{
  "contractName": "BrandRegistry",
  "abi": [
    {
      "inputs": [
        {
          "internalType": "address",
          "name": "_metaverse",
          "type": "address"
        },
        {
          "internalType": "address",
          "name": "_brandEarningsReceiver",
          "type": "address"
        }
      ],
      "stateMutability": "nonpayable",
      "type": "constructor"
    },
    {
      "anonymous": false,
      "inputs": [
        {
          "indexed": true,
          "internalType": "address",
          "name": "brandId",
          "type": "address"
        },
        {
          "indexed": true,
          "internalType": "bytes32",
          "name": "permission",
          "type": "bytes32"
        },
        {
          "indexed": true,
          "internalType": "address",
          "name": "user",
          "type": "address"
        },
        {
          "indexed": false,
          "internalType": "bool",
          "name": "set",
          "type": "bool"
        },
        {
          "indexed": false,
          "internalType": "address",
          "name": "sender",
          "type": "address"
        }
      ],
      "name": "BrandPermissionChanged",
      "type": "event"
    },
    {
      "anonymous": false,
      "inputs": [
        {
          "indexed": true,
          "internalType": "address",
          "name": "registeredBy",
          "type": "address"
        },
        {
          "indexed": true,
          "internalType": "address",
          "name": "brandId",
          "type": "address"
        },
        {
          "indexed": false,
          "internalType": "string",
          "name": "name",
          "type": "string"
        },
        {
          "indexed": false,
          "internalType": "string",
          "name": "description",
          "type": "string"
        },
        {
          "indexed": false,
          "internalType": "uint256",
          "name": "price",
          "type": "uint256"
        },
        {
          "indexed": true,
          "internalType": "address",
          "name": "mintedBy",
          "type": "address"
        }
      ],
      "name": "BrandRegistered",
      "type": "event"
    },
    {
      "anonymous": false,
      "inputs": [
        {
          "indexed": true,
          "internalType": "address",
          "name": "updatedBy",
          "type": "address"
        },
        {
          "indexed": false,
          "internalType": "uint256",
          "name": "newCost",
          "type": "uint256"
        }
      ],
      "name": "BrandRegistrationCostUpdated",
      "type": "event"
    },
    {
      "anonymous": false,
      "inputs": [
        {
          "indexed": true,
          "internalType": "address",
          "name": "updatedBy",
          "type": "address"
        },
        {
          "indexed": false,
          "internalType": "address",
          "name": "newReceiver",
          "type": "address"
        }
      ],
      "name": "BrandRegistrationEarningsReceiverUpdated",
      "type": "event"
    },
    {
      "anonymous": false,
      "inputs": [
        {
          "indexed": true,
          "internalType": "address",
          "name": "updatedBy",
          "type": "address"
        },
        {
          "indexed": true,
          "internalType": "address",
          "name": "brand",
          "type": "address"
        },
        {
          "indexed": false,
          "internalType": "bool",
          "name": "committed",
          "type": "bool"
        }
      ],
      "name": "BrandSocialCommitmentUpdated",
      "type": "event"
    },
    {
      "anonymous": false,
      "inputs": [
        {
          "indexed": true,
          "internalType": "address",
          "name": "updatedBy",
          "type": "address"
        },
        {
          "indexed": true,
          "internalType": "address",
          "name": "brandId",
          "type": "address"
        }
      ],
      "name": "BrandUpdated",
      "type": "event"
    },
    {
      "inputs": [],
      "name": "brandEarningsReceiver",
      "outputs": [
        {
          "internalType": "address",
          "name": "",
          "type": "address"
        }
      ],
      "stateMutability": "view",
      "type": "function"
    },
    {
      "inputs": [],
      "name": "brandRegistrationCost",
      "outputs": [
        {
          "internalType": "uint256",
          "name": "",
          "type": "uint256"
        }
      ],
      "stateMutability": "view",
      "type": "function"
    },
    {
      "inputs": [],
      "name": "metaverse",
      "outputs": [
        {
          "internalType": "address",
          "name": "",
          "type": "address"
        }
      ],
      "stateMutability": "view",
      "type": "function"
    },
    {
      "inputs": [],
      "name": "timeout",
      "outputs": [
        {
          "internalType": "uint256",
          "name": "",
          "type": "uint256"
        }
      ],
      "stateMutability": "view",
      "type": "function"
    },
    {
      "inputs": [
        {
          "internalType": "uint256",
          "name": "_newCost",
          "type": "uint256"
        }
      ],
      "name": "setBrandRegistrationCost",
      "outputs": [],
      "stateMutability": "nonpayable",
      "type": "function"
    },
    {
      "inputs": [
        {
          "internalType": "address",
          "name": "_newReceiver",
          "type": "address"
        }
      ],
      "name": "setBrandRegistrationEarningsReceiver",
      "outputs": [],
      "stateMutability": "nonpayable",
      "type": "function"
    },
    {
      "inputs": [
        {
          "internalType": "bytes",
          "name": "_delegation",
          "type": "bytes"
        },
        {
          "internalType": "string",
          "name": "_name",
          "type": "string"
        },
        {
          "internalType": "string",
          "name": "_description",
          "type": "string"
        },
        {
          "internalType": "string",
          "name": "_image",
          "type": "string"
        },
        {
          "internalType": "string",
          "name": "_icon16x16",
          "type": "string"
        },
        {
          "internalType": "string",
          "name": "_icon32x32",
          "type": "string"
        },
        {
          "internalType": "string",
          "name": "_icon64x64",
          "type": "string"
        }
      ],
      "name": "registerBrand",
      "outputs": [],
      "stateMutability": "payable",
      "type": "function"
    },
    {
      "inputs": [
        {
          "internalType": "address",
          "name": "_brandId",
          "type": "address"
        },
        {
          "internalType": "bool",
          "name": "_committed",
          "type": "bool"
        }
      ],
      "name": "updateBrandSocialCommitment",
      "outputs": [],
      "stateMutability": "nonpayable",
      "type": "function"
    },
    {
      "inputs": [
        {
          "internalType": "address",
          "name": "_brandId",
          "type": "address"
        },
        {
          "internalType": "address",
          "name": "_newOwner",
          "type": "address"
        }
      ],
      "name": "onBrandOwnerChanged",
      "outputs": [],
      "stateMutability": "nonpayable",
      "type": "function"
    },
    {
      "inputs": [
        {
          "internalType": "bytes",
          "name": "_delegation",
          "type": "bytes"
        },
        {
          "internalType": "address",
          "name": "_brandId",
          "type": "address"
        },
        {
          "internalType": "string",
          "name": "_image",
          "type": "string"
        }
      ],
      "name": "updateBrandImage",
      "outputs": [],
      "stateMutability": "nonpayable",
      "type": "function"
    },
    {
      "inputs": [
        {
          "internalType": "bytes",
          "name": "_delegation",
          "type": "bytes"
        },
        {
          "internalType": "address",
          "name": "_brandId",
          "type": "address"
        },
        {
          "internalType": "string",
          "name": "_challengeUrl",
          "type": "string"
        }
      ],
      "name": "updateBrandChallengeUrl",
      "outputs": [],
      "stateMutability": "nonpayable",
      "type": "function"
    },
    {
      "inputs": [
        {
          "internalType": "bytes",
          "name": "_delegation",
          "type": "bytes"
        },
        {
          "internalType": "address",
          "name": "_brandId",
          "type": "address"
        },
        {
          "internalType": "string",
          "name": "_icon",
          "type": "string"
        }
      ],
      "name": "updateBrandIcon16x16Url",
      "outputs": [],
      "stateMutability": "nonpayable",
      "type": "function"
    },
    {
      "inputs": [
        {
          "internalType": "bytes",
          "name": "_delegation",
          "type": "bytes"
        },
        {
          "internalType": "address",
          "name": "_brandId",
          "type": "address"
        },
        {
          "internalType": "string",
          "name": "_icon",
          "type": "string"
        }
      ],
      "name": "updateBrandIcon32x32Url",
      "outputs": [],
      "stateMutability": "nonpayable",
      "type": "function"
    },
    {
      "inputs": [
        {
          "internalType": "bytes",
          "name": "_delegation",
          "type": "bytes"
        },
        {
          "internalType": "address",
          "name": "_brandId",
          "type": "address"
        },
        {
          "internalType": "string",
          "name": "_icon",
          "type": "string"
        }
      ],
      "name": "updateBrandIcon64x64Url",
      "outputs": [],
      "stateMutability": "nonpayable",
      "type": "function"
    },
    {
      "inputs": [
        {
          "internalType": "address",
          "name": "_brandId",
          "type": "address"
        }
      ],
      "name": "brandMetadataURI",
      "outputs": [
        {
          "internalType": "string",
          "name": "",
          "type": "string"
        }
      ],
      "stateMutability": "view",
      "type": "function"
    },
    {
      "inputs": [
        {
          "internalType": "address",
          "name": "_brandId",
          "type": "address"
        }
      ],
      "name": "brandExists",
      "outputs": [
        {
          "internalType": "bool",
          "name": "",
          "type": "bool"
        }
      ],
      "stateMutability": "view",
      "type": "function"
    },
    {
      "inputs": [
        {
          "internalType": "bytes4",
          "name": "interfaceId",
          "type": "bytes4"
        }
      ],
      "name": "supportsInterface",
      "outputs": [
        {
          "internalType": "bool",
          "name": "",
          "type": "bool"
        }
      ],
      "stateMutability": "view",
      "type": "function"
    },
    {
      "inputs": [
        {
          "internalType": "address",
          "name": "_brandId",
          "type": "address"
        },
        {
          "internalType": "bytes32",
          "name": "_permission",
          "type": "bytes32"
        },
        {
          "internalType": "address",
          "name": "_sender",
          "type": "address"
        }
      ],
      "name": "isBrandAllowed",
      "outputs": [
        {
          "internalType": "bool",
          "name": "",
          "type": "bool"
        }
      ],
      "stateMutability": "view",
      "type": "function"
    },
    {
      "inputs": [
        {
          "internalType": "address",
          "name": "_brandId",
          "type": "address"
        }
      ],
      "name": "isCommitted",
      "outputs": [
        {
          "internalType": "bool",
          "name": "",
          "type": "bool"
        }
      ],
      "stateMutability": "view",
      "type": "function"
    },
    {
      "inputs": [
        {
          "internalType": "bytes",
          "name": "_delegation",
          "type": "bytes"
        },
        {
          "internalType": "address",
          "name": "_brandId",
          "type": "address"
        },
        {
          "internalType": "bytes32",
          "name": "_permission",
          "type": "bytes32"
        },
        {
          "internalType": "address",
          "name": "_user",
          "type": "address"
        },
        {
          "internalType": "bool",
          "name": "_allowed",
          "type": "bool"
        }
      ],
      "name": "brandSetPermission",
      "outputs": [],
      "stateMutability": "nonpayable",
      "type": "function"
    }
  ],
  "bytecode": "0x608060405260006005553480156200001657600080fd5b5060405162005e0138038062005e0183398181016040528101906200003c91906200047a565b600073ffffffffffffffffffffffffffffffffffffffff168173ffffffffffffffffffffffffffffffffffffffff161415620000af576040517f08c379a0000000000000000000000000000000000000000000000000000000008152600401620000a69062000548565b60405180910390fd5b600073ffffffffffffffffffffffffffffffffffffffff168273ffffffffffffffffffffffffffffffffffffffff16141562000122576040517f08c379a00000000000000000000000000000000000000000000000000000000081526004016200011990620005e0565b60405180910390fd5b620001727f5936148c000000000000000000000000000000000000000000000000000000008373ffffffffffffffffffffffffffffffffffffffff166200024660201b6200293b1790919060201c565b620001b4576040517f08c379a0000000000000000000000000000000000000000000000000000000008152600401620001ab9062000678565b60405180910390fd5b81600360006101000a81548173ffffffffffffffffffffffffffffffffffffffff021916908373ffffffffffffffffffffffffffffffffffffffff160217905550607860028190555080600460006101000a81548173ffffffffffffffffffffffffffffffffffffffff021916908373ffffffffffffffffffffffffffffffffffffffff1602179055505050620007ff565b600062000259836200027c60201b60201c565b8015620002745750620002738383620002da60201b60201c565b5b905092915050565b6000620002b0827f01ffc9a700000000000000000000000000000000000000000000000000000000620002da60201b60201c565b8015620002d35750620002d18263ffffffff60e01b620002da60201b60201c565b155b9050919050565b6000806301ffc9a760e01b83604051602401620002f89190620006d7565b604051602081830303815290604052907bffffffffffffffffffffffffffffffffffffffffffffffffffffffff19166020820180517bffffffffffffffffffffffffffffffffffffffffffffffffffffffff838183161783525050505090506000808573ffffffffffffffffffffffffffffffffffffffff166175308460405162000384919062000777565b6000604051808303818686fa925050503d8060008114620003c2576040519150601f19603f3d011682016040523d82523d6000602084013e620003c7565b606091505b5091509150602081511015620003e457600093505050506200040a565b81801562000404575080806020019051810190620004039190620007cd565b5b93505050505b92915050565b600080fd5b600073ffffffffffffffffffffffffffffffffffffffff82169050919050565b6000620004428262000415565b9050919050565b620004548162000435565b81146200046057600080fd5b50565b600081519050620004748162000449565b92915050565b6000806040838503121562000494576200049362000410565b5b6000620004a48582860162000463565b9250506020620004b78582860162000463565b9150509250929050565b600082825260208201905092915050565b7f4272616e6452656769737472793a20746865206561726e696e6773207265636560008201527f69766572206d757374206e6f7420626520300000000000000000000000000000602082015250565b600062000530603283620004c1565b91506200053d82620004d2565b604082019050919050565b60006020820190508181036000830152620005638162000521565b9050919050565b7f4272616e6452656769737472793a20746865206f776e657220636f6e7472616360008201527f74206d757374206e6f7420626520300000000000000000000000000000000000602082015250565b6000620005c8602f83620004c1565b9150620005d5826200056a565b604082019050919050565b60006020820190508181036000830152620005fb81620005b9565b9050919050565b7f4272616e6452656769737472793a20746865206f776e657220636f6e7472616360008201527f74206d75737420696d706c656d656e7420494d65746176657273650000000000602082015250565b600062000660603b83620004c1565b91506200066d8262000602565b604082019050919050565b60006020820190508181036000830152620006938162000651565b9050919050565b60007fffffffff0000000000000000000000000000000000000000000000000000000082169050919050565b620006d1816200069a565b82525050565b6000602082019050620006ee6000830184620006c6565b92915050565b600081519050919050565b600081905092915050565b60005b838110156200072a5780820151818401526020810190506200070d565b838111156200073a576000848401525b50505050565b60006200074d82620006f4565b620007598185620006ff565b93506200076b8185602086016200070a565b80840191505092915050565b600062000785828462000740565b915081905092915050565b60008115159050919050565b620007a78162000790565b8114620007b357600080fd5b50565b600081519050620007c7816200079c565b92915050565b600060208284031215620007e657620007e562000410565b5b6000620007f684828501620007b6565b91505092915050565b6155f2806200080f6000396000f3fe60806040526004361061011f5760003560e01c806362a3ed24116100a05780639896c31d116100645780639896c31d146103d4578063a29ab38a14610411578063f200670d1461043a578063f9e0d02614610465578063feb532fd1461048e5761011f565b806362a3ed24146102f157806370dea79a1461031a5780637d5555df146103455780638cd6e9a91461038257806392feccf6146103ab5761011f565b80633e49d925116100e75780633e49d9251461020e57806340cde6131461023957806343779197146102765780634b3fa4881461029f5780635fd11952146102c85761011f565b806301ffc9a71461012457806309dcb0c41461016157806315b80df81461018a5780631a61ba05146101c757806339c46240146101f2575b600080fd5b34801561013057600080fd5b5061014b600480360381019061014691906136ec565b6104b7565b6040516101589190613734565b60405180910390f35b34801561016d57600080fd5b5061018860048036038101906101839190613994565b6105f1565b005b34801561019657600080fd5b506101b160048036038101906101ac9190613a1f565b6108d6565b6040516101be9190613734565b60405180910390f35b3480156101d357600080fd5b506101dc61092f565b6040516101e99190613a5b565b60405180910390f35b61020c60048036038101906102079190613a76565b610955565b005b34801561021a57600080fd5b50610223610d34565b6040516102309190613bf5565b60405180910390f35b34801561024557600080fd5b50610260600480360381019061025b9190613c46565b610d3a565b60405161026d9190613734565b60405180910390f35b34801561028257600080fd5b5061029d60048036038101906102989190613cc5565b610f8c565b005b3480156102ab57600080fd5b506102c660048036038101906102c19190613994565b611191565b005b3480156102d457600080fd5b506102ef60048036038101906102ea9190613a1f565b611431565b005b3480156102fd57600080fd5b5061031860048036038101906103139190613d1e565b61168b565b005b34801561032657600080fd5b5061032f6119f4565b60405161033c9190613bf5565b60405180910390f35b34801561035157600080fd5b5061036c60048036038101906103679190613a1f565b6119fa565b6040516103799190613734565b60405180910390f35b34801561038e57600080fd5b506103a960048036038101906103a49190613db5565b611a95565b005b3480156103b757600080fd5b506103d260048036038101906103cd9190613994565b611c8c565b005b3480156103e057600080fd5b506103fb60048036038101906103f69190613a1f565b611f2c565b6040516104089190613e7d565b60405180910390f35b34801561041d57600080fd5b5061043860048036038101906104339190613994565b6120dc565b005b34801561044657600080fd5b5061044f61237c565b60405161045c9190613a5b565b60405180910390f35b34801561047157600080fd5b5061048c60048036038101906104879190613994565b6123a2565b005b34801561049a57600080fd5b506104b560048036038101906104b09190613e9f565b612642565b005b60007f01ffc9a7000000000000000000000000000000000000000000000000000000007bffffffffffffffffffffffffffffffffffffffffffffffffffffffff1916827bffffffffffffffffffffffffffffffffffffffffffffffffffffffff1916148061058257507f3c609480000000000000000000000000000000000000000000000000000000007bffffffffffffffffffffffffffffffffffffffffffffffffffffffff1916827bffffffffffffffffffffffffffffffffffffffffffffffffffffffff1916145b806105ea57507ff200670d000000000000000000000000000000000000000000000000000000007bffffffffffffffffffffffffffffffffffffffffffffffffffffffff1916827bffffffffffffffffffffffffffffffffffffffffffffffffffffffff1916145b9050919050565b82600084511461062957828260405160200161060e929190613f63565b6040516020818303038152906040528051906020012061062e565b6000801b5b60008251146107115761063f612960565b73ffffffffffffffffffffffffffffffffffffffff1663098c14ac83836002546040518463ffffffff1660e01b815260040161067d93929190613fef565b60408051808303816000875af115801561069b573d6000803e3d6000fd5b505050506040513d601f19601f820116820180604052508101906106bf9190614057565b600160008060008491906101000a81548173ffffffffffffffffffffffffffffffffffffffff021916908373ffffffffffffffffffffffffffffffffffffffff1602179055508391905055505061075d565b6000801b60018190555060008060006101000a81548173ffffffffffffffffffffffffffffffffffffffff021916908373ffffffffffffffffffffffffffffffffffffffff1602179055505b837f3124b80af1484423bc5936dfc5a705268a8d30bd03b155d2273007564e445008610791828261078c61298a565b610d3a565b6107d0576040517f08c379a00000000000000000000000000000000000000000000000000000000081526004016107c79061412f565b60405180910390fd5b600085511415610815576040517f08c379a000000000000000000000000000000000000000000000000000000000815260040161080c906141c1565b60405180910390fd5b84600660008873ffffffffffffffffffffffffffffffffffffffff1673ffffffffffffffffffffffffffffffffffffffff168152602001908152602001600020600401908051906020019061086b9291906135dd565b508573ffffffffffffffffffffffffffffffffffffffff1661088b61298a565b73ffffffffffffffffffffffffffffffffffffffff167f7fd1c43abb0471595dcd4d461fdb320d926cbf2b8ba6fa87a78f1b1b0bf3e59260405160405180910390a350505050505050565b6000600660008373ffffffffffffffffffffffffffffffffffffffff1673ffffffffffffffffffffffffffffffffffffffff16815260200190815260200160002060080160009054906101000a900460ff169050919050565b600460009054906101000a900473ffffffffffffffffffffffffffffffffffffffff1681565b86600088511461098f57868686604051602001610974939291906141e1565b60405160208183030381529060405280519060200120610994565b6000801b5b6000825114610a77576109a5612960565b73ffffffffffffffffffffffffffffffffffffffff1663098c14ac83836002546040518463ffffffff1660e01b81526004016109e393929190613fef565b60408051808303816000875af1158015610a01573d6000803e3d6000fd5b505050506040513d601f19601f82011682018060405250810190610a259190614057565b600160008060008491906101000a81548173ffffffffffffffffffffffffffffffffffffffff021916908373ffffffffffffffffffffffffffffffffffffffff16021790555083919050555050610ac3565b6000801b60018190555060008060006101000a81548173ffffffffffffffffffffffffffffffffffffffff021916908373ffffffffffffffffffffffffffffffffffffffff1602179055505b600360009054906101000a900473ffffffffffffffffffffffffffffffffffffffff1673ffffffffffffffffffffffffffffffffffffffff166382027b6d7fd72efdaa95380f0b9680b3402f55b6c0a52c099dfde4fb5a5f8ef0d566d8ebe1336040518363ffffffff1660e01b8152600401610b40929190614212565b602060405180830381865afa158015610b5d573d6000803e3d6000fd5b505050506040513d601f19601f82011682018060405250810190610b819190614250565b15610bac57610ba760405180606001604052806021815260200161559c60219139612a0d565b610bd3565b610bd260405180606001604052806021815260200161559c602191396005546001612a74565b5b600073ffffffffffffffffffffffffffffffffffffffff16600460009054906101000a900473ffffffffffffffffffffffffffffffffffffffff1673ffffffffffffffffffffffffffffffffffffffff161415610c65576040517f08c379a0000000000000000000000000000000000000000000000000000000008152600401610c5c90614315565b60405180910390fd5b610cc0610c7061298a565b610c7861298a565b73ffffffffffffffffffffffffffffffffffffffff163373ffffffffffffffffffffffffffffffffffffffff1614610cb05733610cb3565b60005b8a8a8a8a8a8a6000612bd1565b600460009054906101000a900473ffffffffffffffffffffffffffffffffffffffff1673ffffffffffffffffffffffffffffffffffffffff166108fc349081150290604051600060405180830381858888f19350505050158015610d28573d6000803e3d6000fd5b50505050505050505050565b60055481565b600080600660008673ffffffffffffffffffffffffffffffffffffffff1673ffffffffffffffffffffffffffffffffffffffff16815260200190815260200160002060000160009054906101000a900473ffffffffffffffffffffffffffffffffffffffff169050600073ffffffffffffffffffffffffffffffffffffffff168173ffffffffffffffffffffffffffffffffffffffff1614158015610f8257508073ffffffffffffffffffffffffffffffffffffffff168373ffffffffffffffffffffffffffffffffffffffff161480610e1a5750610e19818461308a565b5b80610edf5750600760008673ffffffffffffffffffffffffffffffffffffffff1673ffffffffffffffffffffffffffffffffffffffff16815260200190815260200160002060007fffffffffffffffffffffffffffffffffffffffffffffffffffffffffffffffff60001b815260200190815260200160002060008473ffffffffffffffffffffffffffffffffffffffff1673ffffffffffffffffffffffffffffffffffffffff16815260200190815260200160002060009054906101000a900460ff165b80610f815750600760008673ffffffffffffffffffffffffffffffffffffffff1673ffffffffffffffffffffffffffffffffffffffff168152602001908152602001600020600085815260200190815260200160002060008473ffffffffffffffffffffffffffffffffffffffff1673ffffffffffffffffffffffffffffffffffffffff16815260200190815260200160002060009054906101000a900460ff165b5b9150509392505050565b6000801b60018190555060008060006101000a81548173ffffffffffffffffffffffffffffffffffffffff021916908373ffffffffffffffffffffffffffffffffffffffff1602179055507f0fbc461ac6a457024a22e860831de53db892bf2309e3a9095ca759ed4970bca6600360009054906101000a900473ffffffffffffffffffffffffffffffffffffffff1673ffffffffffffffffffffffffffffffffffffffff166382027b6d8261103f61298a565b6040518363ffffffff1660e01b815260040161105c929190614212565b602060405180830381865afa158015611079573d6000803e3d6000fd5b505050506040513d601f19601f8201168201806040525081019061109d9190614250565b6110dc576040517f08c379a00000000000000000000000000000000000000000000000000000000081526004016110d3906143cd565b60405180910390fd5b60008214806110f25750662386f26fc100008210155b611131576040517f08c379a000000000000000000000000000000000000000000000000000000000815260040161112890614485565b60405180910390fd5b8160058190555061114061298a565b73ffffffffffffffffffffffffffffffffffffffff167fc23a57ca62f2d4f1a1e0ff47a10efa60ca13527c86b36bba7e2bbddcdeb397e7836040516111859190613bf5565b60405180910390a25050565b8260008451146111c95782826040516020016111ae929190613f63565b604051602081830303815290604052805190602001206111ce565b6000801b5b60008251146112b1576111df612960565b73ffffffffffffffffffffffffffffffffffffffff1663098c14ac83836002546040518463ffffffff1660e01b815260040161121d93929190613fef565b60408051808303816000875af115801561123b573d6000803e3d6000fd5b505050506040513d601f19601f8201168201806040525081019061125f9190614057565b600160008060008491906101000a81548173ffffffffffffffffffffffffffffffffffffffff021916908373ffffffffffffffffffffffffffffffffffffffff160217905550839190505550506112fd565b6000801b60018190555060008060006101000a81548173ffffffffffffffffffffffffffffffffffffffff021916908373ffffffffffffffffffffffffffffffffffffffff1602179055505b837f3124b80af1484423bc5936dfc5a705268a8d30bd03b155d2273007564e445008611331828261132c61298a565b610d3a565b611370576040517f08c379a00000000000000000000000000000000000000000000000000000000081526004016113679061412f565b60405180910390fd5b84600660008873ffffffffffffffffffffffffffffffffffffffff1673ffffffffffffffffffffffffffffffffffffffff16815260200190815260200160002060050190805190602001906113c69291906135dd565b508573ffffffffffffffffffffffffffffffffffffffff166113e661298a565b73ffffffffffffffffffffffffffffffffffffffff167f7fd1c43abb0471595dcd4d461fdb320d926cbf2b8ba6fa87a78f1b1b0bf3e59260405160405180910390a350505050505050565b6000801b60018190555060008060006101000a81548173ffffffffffffffffffffffffffffffffffffffff021916908373ffffffffffffffffffffffffffffffffffffffff1602179055507f0fbc461ac6a457024a22e860831de53db892bf2309e3a9095ca759ed4970bca6600360009054906101000a900473ffffffffffffffffffffffffffffffffffffffff1673ffffffffffffffffffffffffffffffffffffffff166382027b6d826114e461298a565b6040518363ffffffff1660e01b8152600401611501929190614212565b602060405180830381865afa15801561151e573d6000803e3d6000fd5b505050506040513d601f19601f820116820180604052508101906115429190614250565b611581576040517f08c379a0000000000000000000000000000000000000000000000000000000008152600401611578906143cd565b60405180910390fd5b600073ffffffffffffffffffffffffffffffffffffffff168273ffffffffffffffffffffffffffffffffffffffff1614156115f1576040517f08c379a00000000000000000000000000000000000000000000000000000000081526004016115e89061453d565b60405180910390fd5b81600460006101000a81548173ffffffffffffffffffffffffffffffffffffffff021916908373ffffffffffffffffffffffffffffffffffffffff16021790555061163a61298a565b73ffffffffffffffffffffffffffffffffffffffff167f10090bf014c7fc6b4d1efbe7e5ab6afbdf9c41abea161f1f1a297ac70528213d8360405161167f9190613a5b565b60405180910390a25050565b6000801b60018190555060008060006101000a81548173ffffffffffffffffffffffffffffffffffffffff021916908373ffffffffffffffffffffffffffffffffffffffff160217905550837fffffffffffffffffffffffffffffffffffffffffffffffffffffffffffffffff60001b61170d828261170861298a565b610d3a565b61174c576040517f08c379a00000000000000000000000000000000000000000000000000000000081526004016117439061412f565b60405180910390fd5b6000600660008873ffffffffffffffffffffffffffffffffffffffff1673ffffffffffffffffffffffffffffffffffffffff16815260200190815260200160002060000160009054906101000a900473ffffffffffffffffffffffffffffffffffffffff16905060006117bd61298a565b9050600073ffffffffffffffffffffffffffffffffffffffff168673ffffffffffffffffffffffffffffffffffffffff16141561182f576040517f08c379a0000000000000000000000000000000000000000000000000000000008152600401611826906145cf565b60405180910390fd5b8173ffffffffffffffffffffffffffffffffffffffff168173ffffffffffffffffffffffffffffffffffffffff16148061186f575061186e828261308a565b5b8061189d57507fffffffffffffffffffffffffffffffffffffffffffffffffffffffffffffffff60001b8714155b6118dc576040517f08c379a00000000000000000000000000000000000000000000000000000000081526004016118d390614661565b60405180910390fd5b84600760008a73ffffffffffffffffffffffffffffffffffffffff1673ffffffffffffffffffffffffffffffffffffffff168152602001908152602001600020600089815260200190815260200160002060008873ffffffffffffffffffffffffffffffffffffffff1673ffffffffffffffffffffffffffffffffffffffff16815260200190815260200160002060006101000a81548160ff0219169083151502179055508573ffffffffffffffffffffffffffffffffffffffff16878973ffffffffffffffffffffffffffffffffffffffff167f33b774b0016afe5e5c0a745363d93398f9a388dd53cc99f63af77f80baaa96dd88856040516119e1929190614681565b60405180910390a4505050505050505050565b60025481565b60008073ffffffffffffffffffffffffffffffffffffffff16600660008473ffffffffffffffffffffffffffffffffffffffff1673ffffffffffffffffffffffffffffffffffffffff16815260200190815260200160002060000160009054906101000a900473ffffffffffffffffffffffffffffffffffffffff1673ffffffffffffffffffffffffffffffffffffffff1614159050919050565b6000801b60018190555060008060006101000a81548173ffffffffffffffffffffffffffffffffffffffff021916908373ffffffffffffffffffffffffffffffffffffffff160217905550600360009054906101000a900473ffffffffffffffffffffffffffffffffffffffff1673ffffffffffffffffffffffffffffffffffffffff163373ffffffffffffffffffffffffffffffffffffffff1614611b70576040517f08c379a0000000000000000000000000000000000000000000000000000000008152600401611b679061471c565b60405180910390fd5b600073ffffffffffffffffffffffffffffffffffffffff16600660008473ffffffffffffffffffffffffffffffffffffffff1673ffffffffffffffffffffffffffffffffffffffff16815260200190815260200160002060000160009054906101000a900473ffffffffffffffffffffffffffffffffffffffff1673ffffffffffffffffffffffffffffffffffffffff1614611c885780600660008473ffffffffffffffffffffffffffffffffffffffff1673ffffffffffffffffffffffffffffffffffffffff16815260200190815260200160002060000160006101000a81548173ffffffffffffffffffffffffffffffffffffffff021916908373ffffffffffffffffffffffffffffffffffffffff1602179055505b5050565b826000845114611cc4578282604051602001611ca9929190613f63565b60405160208183030381529060405280519060200120611cc9565b6000801b5b6000825114611dac57611cda612960565b73ffffffffffffffffffffffffffffffffffffffff1663098c14ac83836002546040518463ffffffff1660e01b8152600401611d1893929190613fef565b60408051808303816000875af1158015611d36573d6000803e3d6000fd5b505050506040513d601f19601f82011682018060405250810190611d5a9190614057565b600160008060008491906101000a81548173ffffffffffffffffffffffffffffffffffffffff021916908373ffffffffffffffffffffffffffffffffffffffff16021790555083919050555050611df8565b6000801b60018190555060008060006101000a81548173ffffffffffffffffffffffffffffffffffffffff021916908373ffffffffffffffffffffffffffffffffffffffff1602179055505b837f3124b80af1484423bc5936dfc5a705268a8d30bd03b155d2273007564e445008611e2c8282611e2761298a565b610d3a565b611e6b576040517f08c379a0000000000000000000000000000000000000000000000000000000008152600401611e629061412f565b60405180910390fd5b84600660008873ffffffffffffffffffffffffffffffffffffffff1673ffffffffffffffffffffffffffffffffffffffff1681526020019081526020016000206006019080519060200190611ec19291906135dd565b508573ffffffffffffffffffffffffffffffffffffffff16611ee161298a565b73ffffffffffffffffffffffffffffffffffffffff167f7fd1c43abb0471595dcd4d461fdb320d926cbf2b8ba6fa87a78f1b1b0bf3e59260405160405180910390a350505050505050565b60606000600660008473ffffffffffffffffffffffffffffffffffffffff1673ffffffffffffffffffffffffffffffffffffffff1681526020019081526020016000209050600073ffffffffffffffffffffffffffffffffffffffff168160000160009054906101000a900473ffffffffffffffffffffffffffffffffffffffff1673ffffffffffffffffffffffffffffffffffffffff161415611fe257604051806020016040528060008152509150506120d7565b6120b4816001018260020183600401846003018560050186600601876007018860080160009054906101000a900460ff16612052576040518060400160405280600581526020017f66616c7365000000000000000000000000000000000000000000000000000000815250612089565b6040518060400160405280600481526020017f74727565000000000000000000000000000000000000000000000000000000008152505b6040516020016120a0989796959493929190614add565b6040516020818303038152906040526131a0565b6040516020016120c49190614bfe565b6040516020818303038152906040529150505b919050565b8260008451146121145782826040516020016120f9929190613f63565b60405160208183030381529060405280519060200120612119565b6000801b5b60008251146121fc5761212a612960565b73ffffffffffffffffffffffffffffffffffffffff1663098c14ac83836002546040518463ffffffff1660e01b815260040161216893929190613fef565b60408051808303816000875af1158015612186573d6000803e3d6000fd5b505050506040513d601f19601f820116820180604052508101906121aa9190614057565b600160008060008491906101000a81548173ffffffffffffffffffffffffffffffffffffffff021916908373ffffffffffffffffffffffffffffffffffffffff16021790555083919050555050612248565b6000801b60018190555060008060006101000a81548173ffffffffffffffffffffffffffffffffffffffff021916908373ffffffffffffffffffffffffffffffffffffffff1602179055505b837f3124b80af1484423bc5936dfc5a705268a8d30bd03b155d2273007564e44500861227c828261227761298a565b610d3a565b6122bb576040517f08c379a00000000000000000000000000000000000000000000000000000000081526004016122b29061412f565b60405180910390fd5b84600660008873ffffffffffffffffffffffffffffffffffffffff1673ffffffffffffffffffffffffffffffffffffffff16815260200190815260200160002060030190805190602001906123119291906135dd565b508573ffffffffffffffffffffffffffffffffffffffff1661233161298a565b73ffffffffffffffffffffffffffffffffffffffff167f7fd1c43abb0471595dcd4d461fdb320d926cbf2b8ba6fa87a78f1b1b0bf3e59260405160405180910390a350505050505050565b600360009054906101000a900473ffffffffffffffffffffffffffffffffffffffff1681565b8260008451146123da5782826040516020016123bf929190613f63565b604051602081830303815290604052805190602001206123df565b6000801b5b60008251146124c2576123f0612960565b73ffffffffffffffffffffffffffffffffffffffff1663098c14ac83836002546040518463ffffffff1660e01b815260040161242e93929190613fef565b60408051808303816000875af115801561244c573d6000803e3d6000fd5b505050506040513d601f19601f820116820180604052508101906124709190614057565b600160008060008491906101000a81548173ffffffffffffffffffffffffffffffffffffffff021916908373ffffffffffffffffffffffffffffffffffffffff1602179055508391905055505061250e565b6000801b60018190555060008060006101000a81548173ffffffffffffffffffffffffffffffffffffffff021916908373ffffffffffffffffffffffffffffffffffffffff1602179055505b837f3124b80af1484423bc5936dfc5a705268a8d30bd03b155d2273007564e445008612542828261253d61298a565b610d3a565b612581576040517f08c379a00000000000000000000000000000000000000000000000000000000081526004016125789061412f565b60405180910390fd5b84600660008873ffffffffffffffffffffffffffffffffffffffff1673ffffffffffffffffffffffffffffffffffffffff16815260200190815260200160002060070190805190602001906125d79291906135dd565b508573ffffffffffffffffffffffffffffffffffffffff166125f761298a565b73ffffffffffffffffffffffffffffffffffffffff167f7fd1c43abb0471595dcd4d461fdb320d926cbf2b8ba6fa87a78f1b1b0bf3e59260405160405180910390a350505050505050565b6000801b60018190555060008060006101000a81548173ffffffffffffffffffffffffffffffffffffffff021916908373ffffffffffffffffffffffffffffffffffffffff1602179055507f0814c8b32799cd5ec5efb2a3bf1e70fe52da39783ab514ac86782d4ceff14557600360009054906101000a900473ffffffffffffffffffffffffffffffffffffffff1673ffffffffffffffffffffffffffffffffffffffff166382027b6d826126f561298a565b6040518363ffffffff1660e01b8152600401612712929190614212565b602060405180830381865afa15801561272f573d6000803e3d6000fd5b505050506040513d601f19601f820116820180604052508101906127539190614250565b612792576040517f08c379a0000000000000000000000000000000000000000000000000000000008152600401612789906143cd565b60405180910390fd5b6000600660008573ffffffffffffffffffffffffffffffffffffffff1673ffffffffffffffffffffffffffffffffffffffff16815260200190815260200160002060000160009054906101000a900473ffffffffffffffffffffffffffffffffffffffff169050600073ffffffffffffffffffffffffffffffffffffffff168173ffffffffffffffffffffffffffffffffffffffff161415612869576040517f08c379a000000000000000000000000000000000000000000000000000000000815260040161286090614c92565b60405180910390fd5b600061287361298a565b905083600660008773ffffffffffffffffffffffffffffffffffffffff1673ffffffffffffffffffffffffffffffffffffffff16815260200190815260200160002060080160006101000a81548160ff0219169083151502179055508473ffffffffffffffffffffffffffffffffffffffff168173ffffffffffffffffffffffffffffffffffffffff167f1a9425b12b0cb193f4db2ac1b9bc0712393521978231a7fcf5f0262b847cd5498660405161292c9190613734565b60405180910390a35050505050565b600061294683613304565b801561295857506129578383613351565b5b905092915050565b6000600360009054906101000a900473ffffffffffffffffffffffffffffffffffffffff16905090565b60008073ffffffffffffffffffffffffffffffffffffffff1660008054906101000a900473ffffffffffffffffffffffffffffffffffffffff1673ffffffffffffffffffffffffffffffffffffffff1614156129e65733612a08565b60008054906101000a900473ffffffffffffffffffffffffffffffffffffffff165b905090565b60003414612a715780604051602001612a269190614d24565b6040516020818303038152906040526040517f08c379a0000000000000000000000000000000000000000000000000000000008152600401612a689190613e7d565b60405180910390fd5b50565b6000821415612ad95782604051602001612a8e9190614db8565b6040516020818303038152906040526040517f08c379a0000000000000000000000000000000000000000000000000000000008152600401612ad09190613e7d565b60405180910390fd5b6000811415612b3e5782604051602001612af39190614e4c565b6040516020818303038152906040526040517f08c379a0000000000000000000000000000000000000000000000000000000008152600401612b359190613e7d565b60405180910390fd5b60008183612b4c9190614e9d565b90506000349050818114612bca5784612b648361347c565b612b6d8361347c565b604051602001612b7f93929190614fdb565b6040516020818303038152906040526040517f08c379a0000000000000000000000000000000000000000000000000000000008152600401612bc19190613e7d565b60405180910390fd5b5050505050565b600087511415612c16576040517f08c379a0000000000000000000000000000000000000000000000000000000008152600401612c0d9061509f565b60405180910390fd5b600086511415612c5b576040517f08c379a0000000000000000000000000000000000000000000000000000000008152600401612c5290615131565b60405180910390fd5b600085511415612ca0576040517f08c379a0000000000000000000000000000000000000000000000000000000008152600401612c97906141c1565b60405180910390fd5b600160086000828254612cb39190615151565b92505081905550600060d660f81b609460f81b308c60085460001b604051602001612ce2959493929190615215565b6040516020818303038152906040528051906020012060001c9050600073ffffffffffffffffffffffffffffffffffffffff168173ffffffffffffffffffffffffffffffffffffffff161415612d6d576040517f08c379a0000000000000000000000000000000000000000000000000000000008152600401612d64906152e6565b60405180910390fd5b6040518061012001604052808b73ffffffffffffffffffffffffffffffffffffffff1681526020018981526020018881526020016040518060400160405280600b81526020017f61626f75743a626c616e6b0000000000000000000000000000000000000000008152508152602001878152602001868152602001858152602001848152602001831515815250600660008373ffffffffffffffffffffffffffffffffffffffff1673ffffffffffffffffffffffffffffffffffffffff16815260200190815260200160002060008201518160000160006101000a81548173ffffffffffffffffffffffffffffffffffffffff021916908373ffffffffffffffffffffffffffffffffffffffff1602179055506020820151816001019080519060200190612e9c9291906135dd565b506040820151816002019080519060200190612eb99291906135dd565b506060820151816003019080519060200190612ed69291906135dd565b506080820151816004019080519060200190612ef39291906135dd565b5060a0820151816005019080519060200190612f109291906135dd565b5060c0820151816006019080519060200190612f2d9291906135dd565b5060e0820151816007019080519060200190612f4a9291906135dd565b506101008201518160080160006101000a81548160ff021916908315150217905550905050600360009054906101000a900473ffffffffffffffffffffffffffffffffffffffff1673ffffffffffffffffffffffffffffffffffffffff16631b5dc5988b836040518363ffffffff1660e01b8152600401612fcc929190615306565b600060405180830381600087803b158015612fe657600080fd5b505af1158015612ffa573d6000803e3d6000fd5b505050508873ffffffffffffffffffffffffffffffffffffffff168173ffffffffffffffffffffffffffffffffffffffff168b73ffffffffffffffffffffffffffffffffffffffff167ffecc98565fe1cef12a209a9e57f11f7798b6a493d33f578fd44d40657e0a32eb8b8b346040516130769392919061532f565b60405180910390a450505050505050505050565b6000600360009054906101000a900473ffffffffffffffffffffffffffffffffffffffff1673ffffffffffffffffffffffffffffffffffffffff16638820f6bd6040518163ffffffff1660e01b8152600401602060405180830381865afa1580156130f9573d6000803e3d6000fd5b505050506040513d601f19601f8201168201806040525081019061311d9190615374565b73ffffffffffffffffffffffffffffffffffffffff1663e985e9c584846040518363ffffffff1660e01b8152600401613157929190615306565b602060405180830381865afa158015613174573d6000803e3d6000fd5b505050506040513d601f19601f820116820180604052508101906131989190614250565b905092915050565b60606000825114156131c3576040518060200160405280600081525090506132ff565b600060405180606001604052806040815260200161555c60409139905060006003600285516131f29190615151565b6131fc91906153d0565b60046132089190614e9d565b67ffffffffffffffff8111156132215761322061376a565b5b6040519080825280601f01601f1916602001820160405280156132535781602001600182028036833780820191505090505b509050600182016020820185865187015b808210156132bf576003820191508151603f8160121c168501518453600184019350603f81600c1c168501518453600184019350603f8160061c168501518453600184019350603f8116850151845360018401935050613264565b50506003865106600181146132db57600281146132ee576132f6565b603d6001830353603d60028303536132f6565b603d60018303535b50505080925050505b919050565b6000613330827f01ffc9a700000000000000000000000000000000000000000000000000000000613351565b801561334a57506133488263ffffffff60e01b613351565b155b9050919050565b6000806301ffc9a760e01b8360405160240161336d9190615410565b604051602081830303815290604052907bffffffffffffffffffffffffffffffffffffffffffffffffffffffff19166020820180517bffffffffffffffffffffffffffffffffffffffffffffffffffffffff838183161783525050505090506000808573ffffffffffffffffffffffffffffffffffffffff16617530846040516133f79190615467565b6000604051808303818686fa925050503d8060008114613433576040519150601f19603f3d011682016040523d82523d6000602084013e613438565b606091505b50915091506020815110156134535760009350505050613476565b81801561347057508080602001905181019061346f9190614250565b5b93505050505b92915050565b606060008214156134c4576040518060400160405280600181526020017f300000000000000000000000000000000000000000000000000000000000000081525090506135d8565b600082905060005b600082146134f65780806134df9061547e565b915050600a826134ef91906153d0565b91506134cc565b60008167ffffffffffffffff8111156135125761351161376a565b5b6040519080825280601f01601f1916602001820160405280156135445781602001600182028036833780820191505090505b5090505b600085146135d15760018261355d91906154c7565b9150600a8561356c91906154fb565b60306135789190615151565b60f81b81838151811061358e5761358d61552c565b5b60200101907effffffffffffffffffffffffffffffffffffffffffffffffffffffffffffff1916908160001a905350600a856135ca91906153d0565b9450613548565b8093505050505b919050565b8280546135e9906147b7565b90600052602060002090601f01602090048101928261360b5760008555613652565b82601f1061362457805160ff1916838001178555613652565b82800160010185558215613652579182015b82811115613651578251825591602001919060010190613636565b5b50905061365f9190613663565b5090565b5b8082111561367c576000816000905550600101613664565b5090565b6000604051905090565b600080fd5b600080fd5b60007fffffffff0000000000000000000000000000000000000000000000000000000082169050919050565b6136c981613694565b81146136d457600080fd5b50565b6000813590506136e6816136c0565b92915050565b6000602082840312156137025761370161368a565b5b6000613710848285016136d7565b91505092915050565b60008115159050919050565b61372e81613719565b82525050565b60006020820190506137496000830184613725565b92915050565b600080fd5b600080fd5b6000601f19601f8301169050919050565b7f4e487b7100000000000000000000000000000000000000000000000000000000600052604160045260246000fd5b6137a282613759565b810181811067ffffffffffffffff821117156137c1576137c061376a565b5b80604052505050565b60006137d4613680565b90506137e08282613799565b919050565b600067ffffffffffffffff821115613800576137ff61376a565b5b61380982613759565b9050602081019050919050565b82818337600083830152505050565b6000613838613833846137e5565b6137ca565b90508281526020810184848401111561385457613853613754565b5b61385f848285613816565b509392505050565b600082601f83011261387c5761387b61374f565b5b813561388c848260208601613825565b91505092915050565b600073ffffffffffffffffffffffffffffffffffffffff82169050919050565b60006138c082613895565b9050919050565b6138d0816138b5565b81146138db57600080fd5b50565b6000813590506138ed816138c7565b92915050565b600067ffffffffffffffff82111561390e5761390d61376a565b5b61391782613759565b9050602081019050919050565b6000613937613932846138f3565b6137ca565b90508281526020810184848401111561395357613952613754565b5b61395e848285613816565b509392505050565b600082601f83011261397b5761397a61374f565b5b813561398b848260208601613924565b91505092915050565b6000806000606084860312156139ad576139ac61368a565b5b600084013567ffffffffffffffff8111156139cb576139ca61368f565b5b6139d786828701613867565b93505060206139e8868287016138de565b925050604084013567ffffffffffffffff811115613a0957613a0861368f565b5b613a1586828701613966565b9150509250925092565b600060208284031215613a3557613a3461368a565b5b6000613a43848285016138de565b91505092915050565b613a55816138b5565b82525050565b6000602082019050613a706000830184613a4c565b92915050565b600080600080600080600060e0888a031215613a9557613a9461368a565b5b600088013567ffffffffffffffff811115613ab357613ab261368f565b5b613abf8a828b01613867565b975050602088013567ffffffffffffffff811115613ae057613adf61368f565b5b613aec8a828b01613966565b965050604088013567ffffffffffffffff811115613b0d57613b0c61368f565b5b613b198a828b01613966565b955050606088013567ffffffffffffffff811115613b3a57613b3961368f565b5b613b468a828b01613966565b945050608088013567ffffffffffffffff811115613b6757613b6661368f565b5b613b738a828b01613966565b93505060a088013567ffffffffffffffff811115613b9457613b9361368f565b5b613ba08a828b01613966565b92505060c088013567ffffffffffffffff811115613bc157613bc061368f565b5b613bcd8a828b01613966565b91505092959891949750929550565b6000819050919050565b613bef81613bdc565b82525050565b6000602082019050613c0a6000830184613be6565b92915050565b6000819050919050565b613c2381613c10565b8114613c2e57600080fd5b50565b600081359050613c4081613c1a565b92915050565b600080600060608486031215613c5f57613c5e61368a565b5b6000613c6d868287016138de565b9350506020613c7e86828701613c31565b9250506040613c8f868287016138de565b9150509250925092565b613ca281613bdc565b8114613cad57600080fd5b50565b600081359050613cbf81613c99565b92915050565b600060208284031215613cdb57613cda61368a565b5b6000613ce984828501613cb0565b91505092915050565b613cfb81613719565b8114613d0657600080fd5b50565b600081359050613d1881613cf2565b92915050565b600080600080600060a08688031215613d3a57613d3961368a565b5b600086013567ffffffffffffffff811115613d5857613d5761368f565b5b613d6488828901613867565b9550506020613d75888289016138de565b9450506040613d8688828901613c31565b9350506060613d97888289016138de565b9250506080613da888828901613d09565b9150509295509295909350565b60008060408385031215613dcc57613dcb61368a565b5b6000613dda858286016138de565b9250506020613deb858286016138de565b9150509250929050565b600081519050919050565b600082825260208201905092915050565b60005b83811015613e2f578082015181840152602081019050613e14565b83811115613e3e576000848401525b50505050565b6000613e4f82613df5565b613e598185613e00565b9350613e69818560208601613e11565b613e7281613759565b840191505092915050565b60006020820190508181036000830152613e978184613e44565b905092915050565b60008060408385031215613eb657613eb561368a565b5b6000613ec4858286016138de565b9250506020613ed585828601613d09565b9150509250929050565b60008160601b9050919050565b6000613ef782613edf565b9050919050565b6000613f0982613eec565b9050919050565b613f21613f1c826138b5565b613efe565b82525050565b600081905092915050565b6000613f3d82613df5565b613f478185613f27565b9350613f57818560208601613e11565b80840191505092915050565b6000613f6f8285613f10565b601482019150613f7f8284613f32565b91508190509392505050565b600081519050919050565b600082825260208201905092915050565b6000613fb282613f8b565b613fbc8185613f96565b9350613fcc818560208601613e11565b613fd581613759565b840191505092915050565b613fe981613c10565b82525050565b600060608201905081810360008301526140098186613fa7565b90506140186020830185613fe0565b6140256040830184613be6565b949350505050565b60008151905061403c81613c1a565b92915050565b600081519050614051816138c7565b92915050565b6000806040838503121561406e5761406d61368a565b5b600061407c8582860161402d565b925050602061408d85828601614042565b9150509250929050565b7f4272616e6452656769737472793a2063616c6c6572206973206e6f742062726160008201527f6e64206f776e6572206e6f7220617070726f7665642c20616e6420646f65732060208201527f6e6f74206861766520746865207265717569726564207065726d697373696f6e604082015250565b6000614119606083613e00565b915061412482614097565b606082019050919050565b600060208201905081810360008301526141488161410c565b9050919050565b7f4272616e6452656769737472793a207573652061206e6f6e2d656d707479206960008201527f6d6167652075726c000000000000000000000000000000000000000000000000602082015250565b60006141ab602883613e00565b91506141b68261414f565b604082019050919050565b600060208201905081810360008301526141da8161419e565b9050919050565b60006141ed8286613f32565b91506141f98285613f32565b91506142058284613f32565b9150819050949350505050565b60006040820190506142276000830185613fe0565b6142346020830184613a4c565b9392505050565b60008151905061424a81613cf2565b92915050565b6000602082840312156142665761426561368a565b5b60006142748482850161423b565b91505092915050565b7f4272616e6452656769737472793a206272616e6420726567697374726174696f60008201527f6e2069732064697361626c65642073696e6365206e6f2073657475702069732060208201527f646f6e6520666f7220746865206561726e696e67732072656365697665720000604082015250565b60006142ff605e83613e00565b915061430a8261427d565b606082019050919050565b6000602082019050818103600083015261432e816142f2565b9050919050565b7f4272616e6452656769737472793a2063616c6c6572206973206e6f74206d657460008201527f617665727365206f776e65722c20616e6420646f6573206e6f7420686176652060208201527f746865207265717569726564207065726d697373696f6e000000000000000000604082015250565b60006143b7605783613e00565b91506143c282614335565b606082019050919050565b600060208201905081810360008301526143e6816143aa565b9050919050565b7f4272616e6452656769737472793a20746865206272616e64207265676973747260008201527f7920636f7374206d757374206e6f74206265206c657373207468616e20302e3060208201527f31206e617469766520746f6b656e730000000000000000000000000000000000604082015250565b600061446f604f83613e00565b915061447a826143ed565b606082019050919050565b6000602082019050818103600083015261449e81614462565b9050919050565b7f4272616e6452656769737472793a20746865206272616e64207265676973747260008201527f79206561726e696e6773207265636569766572206d757374206e6f742062652060208201527f7468652030206164647265737300000000000000000000000000000000000000604082015250565b6000614527604d83613e00565b9150614532826144a5565b606082019050919050565b600060208201905081810360008301526145568161451a565b9050919050565b7f4272616e6452656769737472793a2063616e6e6f74206772616e74206120706560008201527f726d697373696f6e20746f206164647265737320300000000000000000000000602082015250565b60006145b9603583613e00565b91506145c48261455d565b604082019050919050565b600060208201905081810360008301526145e8816145ac565b9050919050565b7f4272616e6452656769737472793a20535550455255534552207065726d69737360008201527f696f6e2063616e6e6f7420626520616464656420627920746869732075736572602082015250565b600061464b604083613e00565b9150614656826145ef565b604082019050919050565b6000602082019050818103600083015261467a8161463e565b9050919050565b60006040820190506146966000830185613725565b6146a36020830184613a4c565b9392505050565b7f4272616e6452656769737472793a20746865206f6e6c7920616c6c6f7765642060008201527f73656e64657220697320746865206d65746176657273652073797374656d0000602082015250565b6000614706603e83613e00565b9150614711826146aa565b604082019050919050565b60006020820190508181036000830152614735816146f9565b9050919050565b7f7b226e616d65223a220000000000000000000000000000000000000000000000600082015250565b6000614772600983613f27565b915061477d8261473c565b600982019050919050565b7f4e487b7100000000000000000000000000000000000000000000000000000000600052602260045260246000fd5b600060028204905060018216806147cf57607f821691505b602082108114156147e3576147e2614788565b5b50919050565b60008190508160005260206000209050919050565b6000815461480b816147b7565b6148158186613f27565b94506001821660008114614830576001811461484157614874565b60ff19831686528186019350614874565b61484a856147e9565b60005b8381101561486c5781548189015260018201915060208101905061484d565b838801955050505b50505092915050565b7f222c226465736372697074696f6e223a22000000000000000000000000000000600082015250565b60006148b3601183613f27565b91506148be8261487d565b601182019050919050565b7f222c22696d616765223a22000000000000000000000000000000000000000000600082015250565b60006148ff600b83613f27565b915061490a826148c9565b600b82019050919050565b7f222c2270726f70657274696573223a7b226368616c6c656e676555726c223a22600082015250565b600061494b602083613f27565b915061495682614915565b602082019050919050565b7f222c2269636f6e3136783136223a220000000000000000000000000000000000600082015250565b6000614997600f83613f27565b91506149a282614961565b600f82019050919050565b7f222c2269636f6e3332783332223a220000000000000000000000000000000000600082015250565b60006149e3600f83613f27565b91506149ee826149ad565b600f82019050919050565b7f222c2269636f6e3634783634223a220000000000000000000000000000000000600082015250565b6000614a2f600f83613f27565b9150614a3a826149f9565b600f82019050919050565b7f222c22636f6d6d6974746564223a000000000000000000000000000000000000600082015250565b6000614a7b600e83613f27565b9150614a8682614a45565b600e82019050919050565b7f2c2274797065223a226272616e64227d7d000000000000000000000000000000600082015250565b6000614ac7601183613f27565b9150614ad282614a91565b601182019050919050565b6000614ae882614765565b9150614af4828b6147fe565b9150614aff826148a6565b9150614b0b828a6147fe565b9150614b16826148f2565b9150614b2282896147fe565b9150614b2d8261493e565b9150614b3982886147fe565b9150614b448261498a565b9150614b5082876147fe565b9150614b5b826149d6565b9150614b6782866147fe565b9150614b7282614a22565b9150614b7e82856147fe565b9150614b8982614a6e565b9150614b958284613f32565b9150614ba082614aba565b91508190509998505050505050505050565b7f646174613a6170706c69636174696f6e2f6a736f6e3b6261736536342c000000600082015250565b6000614be8601d83613f27565b9150614bf382614bb2565b601d82019050919050565b6000614c0982614bdb565b9150614c158284613f32565b915081905092915050565b7f4272616e6452656769737472793a206e6f6e2d6578697374696e67206272616e60008201527f6400000000000000000000000000000000000000000000000000000000000000602082015250565b6000614c7c602183613e00565b9150614c8782614c20565b604082019050919050565b60006020820190508181036000830152614cab81614c6f565b9050919050565b7f207265717569726573206e6f207061796d656e7420696e207468697320636f6e60008201527f7465787400000000000000000000000000000000000000000000000000000000602082015250565b6000614d0e602483613f27565b9150614d1982614cb2565b602482019050919050565b6000614d308284613f32565b9150614d3b82614d01565b915081905092915050565b7f2069732063757272656e746c792064697361626c656420286e6f20707269636560008201527f2069732073657429000000000000000000000000000000000000000000000000602082015250565b6000614da2602883613f27565b9150614dad82614d46565b602882019050919050565b6000614dc48284613f32565b9150614dcf82614d95565b915081905092915050565b7f206973737565642077697468206e6f20756e69747320746f207075726368617360008201527f6500000000000000000000000000000000000000000000000000000000000000602082015250565b6000614e36602183613f27565b9150614e4182614dda565b602182019050919050565b6000614e588284613f32565b9150614e6382614e29565b915081905092915050565b7f4e487b7100000000000000000000000000000000000000000000000000000000600052601160045260246000fd5b6000614ea882613bdc565b9150614eb383613bdc565b9250817fffffffffffffffffffffffffffffffffffffffffffffffffffffffffffffffff0483118215151615614eec57614eeb614e6e565b5b828202905092915050565b7f20726571756972657320616e206578616374207061796d656e74206f66200000600082015250565b6000614f2d601e83613f27565b9150614f3882614ef7565b601e82019050919050565b7f2062757420000000000000000000000000000000000000000000000000000000600082015250565b6000614f79600583613f27565b9150614f8482614f43565b600582019050919050565b7f2077617320676976656e00000000000000000000000000000000000000000000600082015250565b6000614fc5600a83613f27565b9150614fd082614f8f565b600a82019050919050565b6000614fe78286613f32565b9150614ff282614f20565b9150614ffe8285613f32565b915061500982614f6c565b91506150158284613f32565b915061502082614fb8565b9150819050949350505050565b7f4272616e6452656769737472793a207573652061206e6f6e2d656d707479206e60008201527f616d650000000000000000000000000000000000000000000000000000000000602082015250565b6000615089602383613e00565b91506150948261502d565b604082019050919050565b600060208201905081810360008301526150b88161507c565b9050919050565b7f4272616e6452656769737472793a207573652061206e6f6e2d656d707479206460008201527f65736372697074696f6e00000000000000000000000000000000000000000000602082015250565b600061511b602a83613e00565b9150615126826150bf565b604082019050919050565b6000602082019050818103600083015261514a8161510e565b9050919050565b600061515c82613bdc565b915061516783613bdc565b9250827fffffffffffffffffffffffffffffffffffffffffffffffffffffffffffffffff0382111561519c5761519b614e6e565b5b828201905092915050565b60007fff0000000000000000000000000000000000000000000000000000000000000082169050919050565b6000819050919050565b6151ee6151e9826151a7565b6151d3565b82525050565b6000819050919050565b61520f61520a82613c10565b6151f4565b82525050565b600061522182886151dd565b60018201915061523182876151dd565b6001820191506152418286613f10565b6014820191506152518285613f10565b60148201915061526182846151fe565b6020820191508190509695505050505050565b7f4272616e6452656769737472793a2074686973206272616e642063616e6e6f7460008201527f206265206d696e746564206e6f77202d2074727920616761696e206c61746572602082015250565b60006152d0604083613e00565b91506152db82615274565b604082019050919050565b600060208201905081810360008301526152ff816152c3565b9050919050565b600060408201905061531b6000830185613a4c565b6153286020830184613a4c565b9392505050565b600060608201905081810360008301526153498186613e44565b9050818103602083015261535d8185613e44565b905061536c6040830184613be6565b949350505050565b60006020828403121561538a5761538961368a565b5b600061539884828501614042565b91505092915050565b7f4e487b7100000000000000000000000000000000000000000000000000000000600052601260045260246000fd5b60006153db82613bdc565b91506153e683613bdc565b9250826153f6576153f56153a1565b5b828204905092915050565b61540a81613694565b82525050565b60006020820190506154256000830184615401565b92915050565b600081905092915050565b600061544182613f8b565b61544b818561542b565b935061545b818560208601613e11565b80840191505092915050565b60006154738284615436565b915081905092915050565b600061548982613bdc565b91507fffffffffffffffffffffffffffffffffffffffffffffffffffffffffffffffff8214156154bc576154bb614e6e565b5b600182019050919050565b60006154d282613bdc565b91506154dd83613bdc565b9250828210156154f0576154ef614e6e565b5b828203905092915050565b600061550682613bdc565b915061551183613bdc565b925082615521576155206153a1565b5b828206905092915050565b7f4e487b7100000000000000000000000000000000000000000000000000000000600052603260045260246000fdfe4142434445464748494a4b4c4d4e4f505152535455565758595a6162636465666768696a6b6c6d6e6f707172737475767778797a303132333435363738392b2f4272616e6452656769737472793a206272616e6420726567697374726174696f6ea2646970667358221220380256c5b34efd54743a85bd769ee76756b7671c5dcb8a4949b5908c0f0f853264736f6c634300080a0033",
  "immutableReferences": {},
  "source": "// SPDX-License-Identifier: MIT\npragma solidity >=0.8 <0.9.0;\n\nimport \"@openzeppelin/contracts/utils/Base64.sol\";\nimport \"@openzeppelin/contracts/utils/introspection/ERC165Checker.sol\";\nimport \"@openzeppelin/contracts/utils/introspection/ERC165.sol\";\nimport \"./IBrandRegistry.sol\";\nimport \"../IMetaverse.sol\";\nimport \"../IMetaverseOwned.sol\";\nimport \"../economy/IEconomy.sol\";\nimport \"../../NativePayable.sol\";\nimport \"../DelegableContext.sol\";\n\n/**\n * A Brand registry will keep track of the brands being registered.\n * Those brands will hold the metadata, and this trait will hold\n * the mean to register such brand with its metadata.\n */\ncontract BrandRegistry is DelegableContext, NativePayable, IBrandRegistry, IMetaverseOwned, ERC165 {\n    /**\n     * Addresses can check for ERC165 compliance by using this\n     * embeddable library.\n     */\n    using ERC165Checker for address;\n\n    /**\n     * The metaverse that will own this brand registry.\n     */\n    address public metaverse;\n\n    /**\n     * The address that will receive the earnings of the brand\n     * registration process (when triggered by the public mean).\n     */\n    address public brandEarningsReceiver;\n\n    /**\n     * The cost to register a new brand. This can be changed in\n     * the future and must be able to be known in the ABI for the\n     * users to be aware of the statistic. By default, defining\n     * a brand is disabled by the public mean, until a price is\n     * set by the administration.\n     */\n    uint256 public brandRegistrationCost = 0;\n\n    /**\n     * This is the whole brand metadata. It only has aesthetics,\n     * name and descriptions.\n     */\n    struct BrandMetadata {\n        /**\n         * The owner of the brand (cached).\n         */\n        address owner;\n\n        /**\n         * The name of the brand. It matches the \"name\" field\n         * of the metadata. This field is immutable.\n         */\n        string name;\n\n        /**\n         * The description of the brand. It matches the\n         * \"description\" field of the metadata. This field\n         * is immutable.\n         */\n        string description;\n\n        /**\n         * The challenge URL of the brand. It matches the\n         * \"properties.challengeUrl\" field. This field is\n         * optional and mutable.\n         */\n        string challengeUrl;\n\n        /**\n         * The URL of the brand image. It matches the \"image\"\n         * field of the metadata. This field is mutable.\n         */\n        string image;\n\n        /**\n         * The icon of the brand (16x16). It matches the\n         * \"properties.icon16x16\" field of the metadata.\n         * This field is optional and mutable.\n         */\n        string icon16x16;\n\n        /**\n         * The icon of the brand (32x32). It matches the\n         * \"properties.icon32x32\" field of the metadata.\n         * This field is optional and mutable.\n         */\n        string icon32x32;\n\n        /**\n         * The icon of the brand (64x64). It matches the\n         * \"properties.icon64x64\" field of the metadata.\n         * This field is optional and mutable.\n         */\n        string icon64x64;\n\n        /**\n         * Whether this brand is a regarded non-government\n         * organization or not. Those brands receive another\n         * kind of treatment, as they're recognized by the\n         * management to be socially committed brands, in\n         * accordance to the management guidelines for such\n         * commitment recognition.\n         */\n        bool committed;\n    }\n\n    /**\n     * All the registered brands are here. Each brand will have\n     * a non-empty name and non-empty description. Brands can\n     * only be added - never deleted / unregistered.\n     */\n    mapping(address => BrandMetadata) brands;\n\n    /**\n     * Permission: Superuser (all the permissions are considered\n     * given to a superuser which is registered in a respective\n     * non-zero brand). The only things that superuser per-se\n     * cannot do in a brand are to transfer it via ERC-1155 and\n     * add more superusers.\n     */\n    bytes32 constant SUPERUSER = bytes32(uint256((1 << 256) - 1));\n\n    /**\n     * (Metaverse-scope) Permission: The user is allowed to set\n     * the brand registration cost.\n     */\n    bytes32 constant METAVERSE_MANAGE_REGISTRATION_SETTINGS = keccak256(\"BrandRegistry::Settings::Manage\");\n\n    /**\n     * (Metaverse-scope) Permission: The user is allowed to set\n     * the brand social commitment to a brand, or not. Brands with\n     * that flag set are (1) non-commercial and (2) aligned to this\n     * metaverse's social commitment views.\n     */\n    bytes32 constant METAVERSE_SET_BRAND_COMMITMENT = keccak256(\"BrandRegistry::SetBrandCommitment\");\n\n    /**\n     * (Metaverse-scope) Permission: The user is allowed to mint\n     * and brand, for an owner, for free.\n     */\n    bytes32 constant METAVERSE_MINT_BRAND_FOR = keccak256(\"BrandRegistry::Brands::MintFor\");\n\n    /**\n     * Permission: The user is allowed to edit a brand's aesthetic.\n     */\n    bytes32 constant BRAND_AESTHETICS_EDITION = keccak256(\"BrandRegistry::Brand::Edit\");\n\n    /**\n     * Maintains the permissions assigned to all the brands\n     * (the brand must always be != 0).\n     */\n    mapping(address => mapping(bytes32 => mapping(address => bool))) brandPermissions;\n\n    /**\n     * The count of registered brands.\n     */\n    uint256 brandsCount;\n\n    // ********** Brand management goes here **********\n\n    /**\n     * An event for when the brand registration cost is updated.\n     */\n    event BrandRegistrationCostUpdated(address indexed updatedBy, uint256 newCost);\n\n    /**\n     * An event for when the brand registration earnings receiver is changed.\n     */\n    event BrandRegistrationEarningsReceiverUpdated(address indexed updatedBy, address newReceiver);\n\n    /**\n     * Creating a brand registry requires a valid metaverse\n     * registrar as its owner.\n     */\n    constructor(address _metaverse, address _brandEarningsReceiver) {\n        require(_brandEarningsReceiver != address(0), \"BrandRegistry: the earnings receiver must not be 0\");\n        require(_metaverse != address(0), \"BrandRegistry: the owner contract must not be 0\");\n        require(\n            _metaverse.supportsInterface(type(IMetaverse).interfaceId),\n            \"BrandRegistry: the owner contract must implement IMetaverse\"\n        );\n        metaverse = _metaverse;\n        timeout = 120;\n        brandEarningsReceiver = _brandEarningsReceiver;\n    }\n\n    /**\n     * This modifier restricts function to be only invoked by the metaverse.\n     */\n    modifier onlyMetaverse() {\n        require(msg.sender == metaverse, \"BrandRegistry: the only allowed sender is the metaverse system\");\n        _;\n    }\n\n    /**\n     * Sets the new brand registration cost.\n     */\n    function setBrandRegistrationCost(uint256 _newCost) public\n        nonDelegable onlyMetaverseAllowed(METAVERSE_MANAGE_REGISTRATION_SETTINGS)\n    {\n        require(\n            _newCost == 0 || _newCost >= (1 ether) / 100,\n            \"BrandRegistry: the brand registry cost must not be less than 0.01 native tokens\"\n        );\n        brandRegistrationCost = _newCost;\n        emit BrandRegistrationCostUpdated(_msgSender(), _newCost);\n    }\n\n    /**\n     * Set the new brand registration earnings receiver.\n     */\n    function setBrandRegistrationEarningsReceiver(address _newReceiver) public\n        nonDelegable onlyMetaverseAllowed(METAVERSE_MANAGE_REGISTRATION_SETTINGS)\n    {\n        require(\n            _newReceiver != address(0),\n            \"BrandRegistry: the brand registry earnings receiver must not be the 0 address\"\n        );\n        brandEarningsReceiver = _newReceiver;\n        emit BrandRegistrationEarningsReceiverUpdated(_msgSender(), _newReceiver);\n    }\n\n    // ********** Brand registration & management goes here **********\n\n    /**\n     * Tells whether a particular user is the owner of the brand id.\n     */\n    function _isBrandOwnerApproved(address _brandOwner, address _sender) internal view returns (bool) {\n        return IEconomy(IMetaverse(metaverse).economy()).isApprovedForAll(_brandOwner, _sender);\n    }\n\n    /**\n     * This event is triggered when a brand is registered. The new\n     * address is also included, along some reference data.\n     */\n    event BrandRegistered(\n        address indexed registeredBy, address indexed brandId, string name, string description,\n        uint256 price, address indexed mintedBy\n    );\n\n    /**\n     * Given the appropriate metadata, mints a new brand. The image url\n     * is mandatory, but about:blank may be used if it is missing or one\n     * image is not yet ready. The icons are optional. An empty string\n     * or about:blank should be used if not needed. Ensure all the urls\n     * are empty (as permitted) or valid urls, and the name and description\n     * have only json-string-friendly character, no backslash, and no double\n     * quotes or the metadata might fail to be assembled into valid JSON,\n     * also taking special care with the name and description, since they\n     * cannot be changed later.\n     */\n    function _registerBrand(\n        address _sender, address _mintedBy,\n        string memory _name, string memory _description, string memory _image,\n        string memory _icon16x16, string memory _icon32x32, string memory _icon64x64,\n        bool _committed\n    ) internal {\n        require(bytes(_name).length != 0, \"BrandRegistry: use a non-empty name\");\n        require(bytes(_description).length != 0, \"BrandRegistry: use a non-empty description\");\n        require(bytes(_image).length != 0, \"BrandRegistry: use a non-empty image url\");\n\n        // 1. Increment the counter and generate the new brand address.\n        //    In the extremely unlikely case that the brand id is 0, this\n        //    call will revert.\n        brandsCount += 1;\n        address brandId = address(uint160(uint256(keccak256(\n            abi.encodePacked(\n                bytes1(0xd6), bytes1(0x94), address(this), _sender,\n                bytes32(brandsCount)\n            )\n        ))));\n        require(\n            brandId != address(0),\n            \"BrandRegistry: this brand cannot be minted now - try again later\"\n        );\n\n        // 2. Register the brand.\n        brands[brandId] = BrandMetadata({\n            name: _name, description: _description, challengeUrl: \"about:blank\",\n            image: _image, icon16x16: _icon16x16, icon32x32: _icon32x32,\n            icon64x64: _icon64x64, owner: _sender, committed: _committed\n        });\n\n        // 3. Mint the brand into the economic system for the sender.\n        IMetaverse(metaverse).mintBrandFor(_sender, brandId);\n\n        // 4. Trigger the event.\n        emit BrandRegistered(_sender, brandId, _name, _description, msg.value, _mintedBy);\n    }\n\n    /**\n     * Registers a new brand, when the appropriate price is paid for it.\n     * For more details on how this method works, check _registerBrand's\n     * inline documentation.\n     */\n    function registerBrand(\n        bytes memory _delegation,\n        string memory _name, string memory _description, string memory _image,\n        string memory _icon16x16, string memory _icon32x32, string memory _icon64x64\n    ) public payable delegable(_delegation, _delegation.length == 0 ? bytes32(0) : keccak256(abi.encodePacked(_name, _description, _image)))  {\n        if (IMetaverse(metaverse).isAllowed(METAVERSE_MINT_BRAND_FOR, msg.sender)) {\n            _requireNoPrice(\"BrandRegistry: brand registration\");\n        } else {\n            _requireNativeTokenPrice(\"BrandRegistry: brand registration\", brandRegistrationCost, 1);\n        }\n        require(\n            brandEarningsReceiver != address(0),\n            \"BrandRegistry: brand registration is disabled since no setup is done for the earnings receiver\"\n        );\n        _registerBrand(\n            _msgSender(), msg.sender == _msgSender() ? address(0) : msg.sender, _name, _description, _image,\n            _icon16x16, _icon32x32, _icon64x64, false\n        );\n        payable(brandEarningsReceiver).transfer(msg.value);\n    }\n\n    /**\n     * This event is triggered when a brand is updated with respect\n     * to its social commitment (this is: to tell a brand is socially\n     * committed according to the metaverse's views or not). Special\n     * benefits (in particular, with respect to assets loading on\n     * customers) are given in clients to socially committed brands.\n     */\n    event BrandSocialCommitmentUpdated(address indexed updatedBy, address indexed brand, bool committed);\n\n    /**\n     * Updates whether a brand is socially committed or not.\n     */\n    function updateBrandSocialCommitment(address _brandId, bool _committed) public\n        nonDelegable onlyMetaverseAllowed(METAVERSE_SET_BRAND_COMMITMENT)\n    {\n        // Require the flag to exist.\n        address owner = brands[_brandId].owner;\n        require(owner != address(0), \"BrandRegistry: non-existing brand\");\n\n        // Require the sender to be allowed to set brands' commitment.\n        address sender = _msgSender();\n\n        // Update the commitment flag.\n        brands[_brandId].committed = _committed;\n\n        // Emit the related event.\n        emit BrandSocialCommitmentUpdated(sender, _brandId, _committed);\n    }\n\n    /**\n     * Sets the owner of a brand. This method is meant to be called\n     * internally, when the actual brand transfer is done (brands\n     * can only be transferred, but never burnt).\n     */\n    function onBrandOwnerChanged(address _brandId, address _newOwner) external nonDelegable onlyMetaverse {\n        if (brands[_brandId].owner != address(0)) brands[_brandId].owner = _newOwner;\n    }\n\n    /**\n     * This event is triggered when a brand is registered. The new\n     * address is also included, along some reference data.\n     */\n    event BrandUpdated(address indexed updatedBy, address indexed brandId);\n\n    /**\n     * Updates the brand image. Only the owner of the brand or an\n     * approved account can invoke this method. Ensure the _image is\n     * empty or a valid URL, or metadata might fail to be assembled\n     * into valid JSON.\n     */\n    function updateBrandImage(\n        bytes memory _delegation,\n        address _brandId, string memory _image\n    ) public delegable(_delegation, _delegation.length == 0 ? bytes32(0) : keccak256(abi.encodePacked(_brandId, _image)))\n      onlyBrandAllowed(_brandId, BRAND_AESTHETICS_EDITION)\n    {\n        require(bytes(_image).length != 0, \"BrandRegistry: use a non-empty image url\");\n        brands[_brandId].image = _image;\n        emit BrandUpdated(_msgSender(), _brandId);\n    }\n\n    /**\n     * Updates the brand's challenge url. Only the owner of the brand\n     * or an approved account can invoke this method. Ensure the url\n     * is empty or a valid URL, or metadata might fail to be assembled\n     * into valid JSON.\n     */\n    function updateBrandChallengeUrl(\n        bytes memory _delegation,\n        address _brandId, string memory _challengeUrl\n    ) public delegable(_delegation, _delegation.length == 0 ? bytes32(0) : keccak256(abi.encodePacked(_brandId, _challengeUrl)))\n      onlyBrandAllowed(_brandId, BRAND_AESTHETICS_EDITION) {\n        brands[_brandId].challengeUrl = _challengeUrl;\n        emit BrandUpdated(_msgSender(), _brandId);\n    }\n\n    /**\n     * Updates the brand's 16x16 icon url. Only the owner of the brand\n     * or an approved account can invoke this method. Ensure the _icon\n     * is empty or a valid URL, or metadata might fail to be assembled\n     * into valid JSON.\n     */\n    function updateBrandIcon16x16Url(\n        bytes memory _delegation,\n        address _brandId, string memory _icon\n    ) public delegable(_delegation, _delegation.length == 0 ? bytes32(0) : keccak256(abi.encodePacked(_brandId, _icon))) onlyBrandAllowed(_brandId, BRAND_AESTHETICS_EDITION) {\n        brands[_brandId].icon16x16 = _icon;\n        emit BrandUpdated(_msgSender(), _brandId);\n    }\n\n    /**\n     * Updates the brand's 32x32 icon url. Only the owner of the brand\n     * or an approved account can invoke this method. Ensure the _icon\n     * is empty or a valid URL, or metadata might fail to be assembled\n     * into valid JSON.\n     */\n    function updateBrandIcon32x32Url(\n        bytes memory _delegation,\n        address _brandId, string memory _icon\n    ) public delegable(_delegation, _delegation.length == 0 ? bytes32(0) : keccak256(abi.encodePacked(_brandId, _icon))) onlyBrandAllowed(_brandId, BRAND_AESTHETICS_EDITION) {\n        brands[_brandId].icon32x32 = _icon;\n        emit BrandUpdated(_msgSender(), _brandId);\n    }\n\n    /**\n     * Updates the brand's 64x64 icon url. Only the owner of the brand\n     * or an approved account can invoke this method. Ensure the _icon\n     * is empty or a valid URL, or metadata might fail to be assembled\n     * into valid JSON.\n     */\n    function updateBrandIcon64x64Url(\n        bytes memory _delegation,\n        address _brandId, string memory _icon\n    ) public delegable(_delegation, _delegation.length == 0 ? bytes32(0) : keccak256(abi.encodePacked(_brandId, _icon)))\n      onlyBrandAllowed(_brandId, BRAND_AESTHETICS_EDITION) {\n        brands[_brandId].icon64x64 = _icon;\n        emit BrandUpdated(_msgSender(), _brandId);\n    }\n\n    /**\n     * Assembles the whole metadata for a brand. WARNING: This method\n     * will consume a lot of gas if invoked inside a transaction, so\n     * it is recommended to invoke this method in the context of a\n     * CALL, and never in the context of a SEND (even as part of other\n     * contract's code).\n     */\n    function brandMetadataURI(address _brandId) public view returns (string memory) {\n        BrandMetadata storage brand = brands[_brandId];\n        if (brand.owner == address(0)) return \"\";\n\n        return string(abi.encodePacked(\"data:application/json;base64,\", Base64.encode(abi.encodePacked(\n            '{\"name\":\"', brand.name, '\",\"description\":\"', brand.description, '\",\"image\":\"', brand.image,\n            '\",\"properties\":{\"challengeUrl\":\"',brand.challengeUrl,'\",\"icon16x16\":\"', brand.icon16x16,\n            '\",\"icon32x32\":\"', brand.icon32x32, '\",\"icon64x64\":\"', brand.icon64x64, '\",\"committed\":',\n            brand.committed ? 'true' : 'false',',\"type\":\"brand\"}}'\n        ))));\n    }\n\n    /**\n     * Tells whether an address corresponds to a registered brand or not.\n     */\n    function brandExists(address _brandId) public view returns (bool) {\n        return brands[_brandId].owner != address(0);\n    }\n\n    // ********** Brand registration earnings management goes here **********\n\n    /**\n     * A brand registry satisfies the IBrandRegistry and IERC165.\n     */\n    function supportsInterface(bytes4 interfaceId) public view virtual override returns (bool) {\n        return interfaceId == type(IERC165).interfaceId ||\n               interfaceId == type(IBrandRegistry).interfaceId ||\n               interfaceId == type(IMetaverseOwned).interfaceId;\n    }\n\n    // Brand permissions management start here.\n\n    /**\n     * Restricts an action to senders that are considered to have\n     * certain permission in the (non-zero) brand.\n     */\n    modifier onlyBrandAllowed(address _brandId, bytes32 _permission) {\n        require(\n            isBrandAllowed(_brandId, _permission, _msgSender()),\n            \"BrandRegistry: caller is not brand owner nor approved, and does not have the required permission\"\n        );\n        _;\n    }\n\n    /**\n     * Restricts an action to senders that are considered to have\n     * certain metaverse-scoped permissions.\n     */\n    modifier onlyMetaverseAllowed(bytes32 _permission) {\n        require(\n            IMetaverse(metaverse).isAllowed(_permission, _msgSender()),\n            \"BrandRegistry: caller is not metaverse owner, and does not have the required permission\"\n        );\n        _;\n    }\n\n    /**\n     * Tells whether a user has a specific permission on a specific brand\n     * or it is allowed by the brand's ownership.\n     */\n    function isBrandAllowed(address _brandId, bytes32 _permission, address _sender) public view returns (bool) {\n        address owner = brands[_brandId].owner;\n        return owner != address(0) && (_sender == owner || _isBrandOwnerApproved(owner, _sender) ||\n                                       brandPermissions[_brandId][SUPERUSER][_sender] ||\n                                       brandPermissions[_brandId][_permission][_sender]);\n    }\n\n    /**\n     * Tells whether the address is a committed brand, or not\n     * (this may also be caused by the address not being a brand).\n     */\n    function isCommitted(address _brandId) external view returns (bool) {\n        return brands[_brandId].committed;\n    }\n\n    /**\n     * This event is triggered when a brand permission is set or revoked\n     * for a given user in a given brand.\n     */\n    event BrandPermissionChanged(address indexed brandId, bytes32 indexed permission, address indexed user,\n                                 bool set, address sender);\n\n    /**\n     * Grants a permission to a user. This action is reserved to owners,\n     * approved operators, or allowed superusers. However, superuser cannot\n     * set, in particular, the SUPERUSER permission itself.\n     */\n    function brandSetPermission(\n        bytes memory _delegation,\n        address _brandId, bytes32 _permission, address _user, bool _allowed\n    ) public nonDelegable onlyBrandAllowed(_brandId, SUPERUSER) {\n        address owner = brands[_brandId].owner;\n        address sender = _msgSender();\n        require(_user != address(0), \"BrandRegistry: cannot grant a permission to address 0\");\n        require(\n            sender == owner || _isBrandOwnerApproved(owner, sender) || _permission != SUPERUSER,\n            \"BrandRegistry: SUPERUSER permission cannot be added by this user\"\n        );\n        brandPermissions[_brandId][_permission][_user] = _allowed;\n        emit BrandPermissionChanged(_brandId, _permission, _user, _allowed, sender);\n    }\n\n    /**\n     * Implements the way for the delegable context to return a metaverse.\n     */\n    function _metaverse() internal view override returns (address) {\n        return metaverse;\n    }\n}\n",
  "sourcePath": "/home/luismasuelli/Projects/OuterMaze/semperland-contracts/contracts/semperland/brands/BrandRegistry.sol",
  "compiler": {
    "name": "solc",
    "version": "0.8.10+commit.fc410830.Emscripten.clang"
  },
  "schemaVersion": "3.4.3",
  "updatedAt": "2022-11-16T03:15:43.229Z",
  "devdoc": {
    "kind": "dev",
    "methods": {},
    "version": 1
  },
  "userdoc": {
    "events": {
      "BrandPermissionChanged(address,bytes32,address,bool,address)": {
        "notice": "This event is triggered when a brand permission is set or revoked for a given user in a given brand."
      },
      "BrandRegistered(address,address,string,string,uint256,address)": {
        "notice": "This event is triggered when a brand is registered. The new address is also included, along some reference data."
      },
      "BrandRegistrationCostUpdated(address,uint256)": {
        "notice": "An event for when the brand registration cost is updated."
      },
      "BrandRegistrationEarningsReceiverUpdated(address,address)": {
        "notice": "An event for when the brand registration earnings receiver is changed."
      },
      "BrandSocialCommitmentUpdated(address,address,bool)": {
        "notice": "This event is triggered when a brand is updated with respect to its social commitment (this is: to tell a brand is socially committed according to the metaverse's views or not). Special benefits (in particular, with respect to assets loading on customers) are given in clients to socially committed brands."
      },
      "BrandUpdated(address,address)": {
        "notice": "This event is triggered when a brand is registered. The new address is also included, along some reference data."
      }
    },
    "kind": "user",
    "methods": {
      "brandEarningsReceiver()": {
        "notice": "The address that will receive the earnings of the brand registration process (when triggered by the public mean)."
      },
      "brandExists(address)": {
        "notice": "Tells whether an address corresponds to a registered brand or not."
      },
      "brandMetadataURI(address)": {
        "notice": "Assembles the whole metadata for a brand. WARNING: This method will consume a lot of gas if invoked inside a transaction, so it is recommended to invoke this method in the context of a CALL, and never in the context of a SEND (even as part of other contract's code)."
      },
      "brandRegistrationCost()": {
        "notice": "The cost to register a new brand. This can be changed in the future and must be able to be known in the ABI for the users to be aware of the statistic. By default, defining a brand is disabled by the public mean, until a price is set by the administration."
      },
      "brandSetPermission(bytes,address,bytes32,address,bool)": {
        "notice": "Grants a permission to a user. This action is reserved to owners, approved operators, or allowed superusers. However, superuser cannot set, in particular, the SUPERUSER permission itself."
      },
      "constructor": {
        "notice": "Creating a brand registry requires a valid metaverse registrar as its owner."
      },
      "isBrandAllowed(address,bytes32,address)": {
        "notice": "Tells whether a user has a specific permission on a specific brand or it is allowed by the brand's ownership."
      },
      "isCommitted(address)": {
        "notice": "Tells whether the address is a committed brand, or not (this may also be caused by the address not being a brand)."
      },
      "metaverse()": {
        "notice": "The metaverse that will own this brand registry."
      },
      "onBrandOwnerChanged(address,address)": {
        "notice": "Sets the owner of a brand. This method is meant to be called internally, when the actual brand transfer is done (brands can only be transferred, but never burnt)."
      },
      "registerBrand(bytes,string,string,string,string,string,string)": {
        "notice": "Registers a new brand, when the appropriate price is paid for it. For more details on how this method works, check _registerBrand's inline documentation."
      },
      "setBrandRegistrationCost(uint256)": {
        "notice": "Sets the new brand registration cost."
      },
      "setBrandRegistrationEarningsReceiver(address)": {
        "notice": "Set the new brand registration earnings receiver."
      },
      "supportsInterface(bytes4)": {
        "notice": "A brand registry satisfies the IBrandRegistry and IERC165."
      },
      "timeout()": {
        "notice": "The timeout of the signature after the emission. The current block timestamp must be between the emission date and (emission date + timeout), Both including. This setting can be managed by the metaverse deployers."
      },
      "updateBrandChallengeUrl(bytes,address,string)": {
        "notice": "Updates the brand's challenge url. Only the owner of the brand or an approved account can invoke this method. Ensure the url is empty or a valid URL, or metadata might fail to be assembled into valid JSON."
      },
      "updateBrandIcon16x16Url(bytes,address,string)": {
        "notice": "Updates the brand's 16x16 icon url. Only the owner of the brand or an approved account can invoke this method. Ensure the _icon is empty or a valid URL, or metadata might fail to be assembled into valid JSON."
      },
      "updateBrandIcon32x32Url(bytes,address,string)": {
        "notice": "Updates the brand's 32x32 icon url. Only the owner of the brand or an approved account can invoke this method. Ensure the _icon is empty or a valid URL, or metadata might fail to be assembled into valid JSON."
      },
      "updateBrandIcon64x64Url(bytes,address,string)": {
        "notice": "Updates the brand's 64x64 icon url. Only the owner of the brand or an approved account can invoke this method. Ensure the _icon is empty or a valid URL, or metadata might fail to be assembled into valid JSON."
      },
      "updateBrandImage(bytes,address,string)": {
        "notice": "Updates the brand image. Only the owner of the brand or an approved account can invoke this method. Ensure the _image is empty or a valid URL, or metadata might fail to be assembled into valid JSON."
      },
      "updateBrandSocialCommitment(address,bool)": {
        "notice": "Updates whether a brand is socially committed or not."
      }
    },
    "notice": "A Brand registry will keep track of the brands being registered. Those brands will hold the metadata, and this trait will hold the mean to register such brand with its metadata.",
    "version": 1
  }
}