{
  "contractName": "BrandRegistry",
  "abi": [
    {
      "inputs": [
        {
          "internalType": "address",
          "name": "_metaverse",
          "type": "address"
        }
      ],
      "stateMutability": "nonpayable",
      "type": "constructor"
    },
    {
      "anonymous": false,
      "inputs": [
        {
          "indexed": true,
          "internalType": "address",
          "name": "withdrawnBy",
          "type": "address"
        },
        {
          "indexed": false,
          "internalType": "uint256",
          "name": "amount",
          "type": "uint256"
        }
      ],
      "name": "BrandEarningsWithdrawn",
      "type": "event"
    },
    {
      "anonymous": false,
      "inputs": [
        {
          "indexed": true,
          "internalType": "address",
          "name": "brandId",
          "type": "address"
        },
        {
          "indexed": true,
          "internalType": "bytes32",
          "name": "permission",
          "type": "bytes32"
        },
        {
          "indexed": true,
          "internalType": "address",
          "name": "user",
          "type": "address"
        },
        {
          "indexed": false,
          "internalType": "bool",
          "name": "set",
          "type": "bool"
        },
        {
          "indexed": false,
          "internalType": "address",
          "name": "sender",
          "type": "address"
        }
      ],
      "name": "BrandPermissionChanged",
      "type": "event"
    },
    {
      "anonymous": false,
      "inputs": [
        {
          "indexed": true,
          "internalType": "address",
          "name": "registeredBy",
          "type": "address"
        },
        {
          "indexed": true,
          "internalType": "address",
          "name": "brandId",
          "type": "address"
        },
        {
          "indexed": false,
          "internalType": "string",
          "name": "name",
          "type": "string"
        },
        {
          "indexed": false,
          "internalType": "string",
          "name": "description",
          "type": "string"
        },
        {
          "indexed": false,
          "internalType": "uint256",
          "name": "price",
          "type": "uint256"
        }
      ],
      "name": "BrandRegistered",
      "type": "event"
    },
    {
      "anonymous": false,
      "inputs": [
        {
          "indexed": false,
          "internalType": "uint256",
          "name": "newCost",
          "type": "uint256"
        }
      ],
      "name": "BrandRegistrationCostUpdated",
      "type": "event"
    },
    {
      "anonymous": false,
      "inputs": [
        {
          "indexed": true,
          "internalType": "address",
          "name": "updatedBy",
          "type": "address"
        },
        {
          "indexed": true,
          "internalType": "address",
          "name": "brand",
          "type": "address"
        },
        {
          "indexed": false,
          "internalType": "bool",
          "name": "committed",
          "type": "bool"
        }
      ],
      "name": "BrandSocialCommitmentUpdated",
      "type": "event"
    },
    {
      "anonymous": false,
      "inputs": [
        {
          "indexed": true,
          "internalType": "address",
          "name": "updatedBy",
          "type": "address"
        },
        {
          "indexed": true,
          "internalType": "address",
          "name": "brandId",
          "type": "address"
        }
      ],
      "name": "BrandUpdated",
      "type": "event"
    },
    {
      "inputs": [],
      "name": "brandRegistrationCost",
      "outputs": [
        {
          "internalType": "uint256",
          "name": "",
          "type": "uint256"
        }
      ],
      "stateMutability": "view",
      "type": "function"
    },
    {
      "inputs": [],
      "name": "brandRegistrationCurrentEarnings",
      "outputs": [
        {
          "internalType": "uint256",
          "name": "",
          "type": "uint256"
        }
      ],
      "stateMutability": "view",
      "type": "function"
    },
    {
      "inputs": [],
      "name": "metaverse",
      "outputs": [
        {
          "internalType": "address",
          "name": "",
          "type": "address"
        }
      ],
      "stateMutability": "view",
      "type": "function"
    },
    {
      "inputs": [
        {
          "internalType": "uint256",
          "name": "_newCost",
          "type": "uint256"
        }
      ],
      "name": "setBrandRegistrationCost",
      "outputs": [],
      "stateMutability": "nonpayable",
      "type": "function"
    },
    {
      "inputs": [
        {
          "internalType": "string",
          "name": "_name",
          "type": "string"
        },
        {
          "internalType": "string",
          "name": "_description",
          "type": "string"
        },
        {
          "internalType": "string",
          "name": "_image",
          "type": "string"
        },
        {
          "internalType": "string",
          "name": "_icon16x16",
          "type": "string"
        },
        {
          "internalType": "string",
          "name": "_icon32x32",
          "type": "string"
        },
        {
          "internalType": "string",
          "name": "_icon64x64",
          "type": "string"
        }
      ],
      "name": "registerBrand",
      "outputs": [],
      "stateMutability": "payable",
      "type": "function"
    },
    {
      "inputs": [
        {
          "internalType": "address",
          "name": "_brandId",
          "type": "address"
        },
        {
          "internalType": "bool",
          "name": "_committed",
          "type": "bool"
        }
      ],
      "name": "updateBrandSocialCommitment",
      "outputs": [],
      "stateMutability": "nonpayable",
      "type": "function"
    },
    {
      "inputs": [
        {
          "internalType": "address",
          "name": "_brandId",
          "type": "address"
        },
        {
          "internalType": "address",
          "name": "_newOwner",
          "type": "address"
        }
      ],
      "name": "onBrandOwnerChanged",
      "outputs": [],
      "stateMutability": "nonpayable",
      "type": "function"
    },
    {
      "inputs": [
        {
          "internalType": "address",
          "name": "_brandId",
          "type": "address"
        },
        {
          "internalType": "string",
          "name": "_image",
          "type": "string"
        }
      ],
      "name": "updateBrandImage",
      "outputs": [],
      "stateMutability": "nonpayable",
      "type": "function"
    },
    {
      "inputs": [
        {
          "internalType": "address",
          "name": "_brandId",
          "type": "address"
        },
        {
          "internalType": "string",
          "name": "_challengeUrl",
          "type": "string"
        }
      ],
      "name": "updateBrandChallengeUrl",
      "outputs": [],
      "stateMutability": "nonpayable",
      "type": "function"
    },
    {
      "inputs": [
        {
          "internalType": "address",
          "name": "_brandId",
          "type": "address"
        },
        {
          "internalType": "string",
          "name": "_icon",
          "type": "string"
        }
      ],
      "name": "updateBrandIcon16x16Url",
      "outputs": [],
      "stateMutability": "nonpayable",
      "type": "function"
    },
    {
      "inputs": [
        {
          "internalType": "address",
          "name": "_brandId",
          "type": "address"
        },
        {
          "internalType": "string",
          "name": "_icon",
          "type": "string"
        }
      ],
      "name": "updateBrandIcon32x32Url",
      "outputs": [],
      "stateMutability": "nonpayable",
      "type": "function"
    },
    {
      "inputs": [
        {
          "internalType": "address",
          "name": "_brandId",
          "type": "address"
        },
        {
          "internalType": "string",
          "name": "_icon",
          "type": "string"
        }
      ],
      "name": "updateBrandIcon64x64Url",
      "outputs": [],
      "stateMutability": "nonpayable",
      "type": "function"
    },
    {
      "inputs": [
        {
          "internalType": "address",
          "name": "_brandId",
          "type": "address"
        }
      ],
      "name": "brandMetadataURI",
      "outputs": [
        {
          "internalType": "string",
          "name": "",
          "type": "string"
        }
      ],
      "stateMutability": "view",
      "type": "function"
    },
    {
      "inputs": [
        {
          "internalType": "address",
          "name": "_brandId",
          "type": "address"
        }
      ],
      "name": "brandExists",
      "outputs": [
        {
          "internalType": "bool",
          "name": "",
          "type": "bool"
        }
      ],
      "stateMutability": "view",
      "type": "function"
    },
    {
      "inputs": [
        {
          "internalType": "uint256",
          "name": "amount",
          "type": "uint256"
        }
      ],
      "name": "withdrawBrandRegistrationEarnings",
      "outputs": [],
      "stateMutability": "nonpayable",
      "type": "function"
    },
    {
      "inputs": [
        {
          "internalType": "bytes4",
          "name": "interfaceId",
          "type": "bytes4"
        }
      ],
      "name": "supportsInterface",
      "outputs": [
        {
          "internalType": "bool",
          "name": "",
          "type": "bool"
        }
      ],
      "stateMutability": "view",
      "type": "function"
    },
    {
      "inputs": [
        {
          "internalType": "address",
          "name": "_brandId",
          "type": "address"
        },
        {
          "internalType": "bytes32",
          "name": "_permission",
          "type": "bytes32"
        },
        {
          "internalType": "address",
          "name": "_sender",
          "type": "address"
        }
      ],
      "name": "isBrandAllowed",
      "outputs": [
        {
          "internalType": "bool",
          "name": "",
          "type": "bool"
        }
      ],
      "stateMutability": "view",
      "type": "function"
    },
    {
      "inputs": [
        {
          "internalType": "address",
          "name": "_brandId",
          "type": "address"
        },
        {
          "internalType": "bytes32",
          "name": "_permission",
          "type": "bytes32"
        },
        {
          "internalType": "address",
          "name": "_user",
          "type": "address"
        },
        {
          "internalType": "bool",
          "name": "_allowed",
          "type": "bool"
        }
      ],
      "name": "brandSetPermission",
      "outputs": [],
      "stateMutability": "nonpayable",
      "type": "function"
    }
  ],
  "bytecode": "0x60806040523480156200001157600080fd5b506040516200485a3803806200485a8339818101604052810190620000379190620003b7565b600073ffffffffffffffffffffffffffffffffffffffff168173ffffffffffffffffffffffffffffffffffffffff161415620000aa576040517f08c379a0000000000000000000000000000000000000000000000000000000008152600401620000a19062000470565b60405180910390fd5b620000fa7f163cc027000000000000000000000000000000000000000000000000000000008273ffffffffffffffffffffffffffffffffffffffff166200018360201b62001bd21790919060201c565b6200013c576040517f08c379a0000000000000000000000000000000000000000000000000000000008152600401620001339062000508565b60405180910390fd5b806000806101000a81548173ffffffffffffffffffffffffffffffffffffffff021916908373ffffffffffffffffffffffffffffffffffffffff160217905550506200068f565b60006200019683620001b960201b60201c565b8015620001b15750620001b083836200021760201b60201c565b5b905092915050565b6000620001ed827f01ffc9a7000000000000000000000000000000000000000000000000000000006200021760201b60201c565b80156200021057506200020e8263ffffffff60e01b6200021760201b60201c565b155b9050919050565b6000806301ffc9a760e01b8360405160240162000235919062000567565b604051602081830303815290604052907bffffffffffffffffffffffffffffffffffffffffffffffffffffffff19166020820180517bffffffffffffffffffffffffffffffffffffffffffffffffffffffff838183161783525050505090506000808573ffffffffffffffffffffffffffffffffffffffff1661753084604051620002c1919062000607565b6000604051808303818686fa925050503d8060008114620002ff576040519150601f19603f3d011682016040523d82523d6000602084013e62000304565b606091505b509150915060208151101562000321576000935050505062000347565b818015620003415750808060200190518101906200034091906200065d565b5b93505050505b92915050565b600080fd5b600073ffffffffffffffffffffffffffffffffffffffff82169050919050565b60006200037f8262000352565b9050919050565b620003918162000372565b81146200039d57600080fd5b50565b600081519050620003b18162000386565b92915050565b600060208284031215620003d057620003cf6200034d565b5b6000620003e084828501620003a0565b91505092915050565b600082825260208201905092915050565b7f4272616e6452656769737472793a20746865206f776e657220636f6e7472616360008201527f74206d757374206e6f7420626520300000000000000000000000000000000000602082015250565b600062000458602f83620003e9565b91506200046582620003fa565b604082019050919050565b600060208201905081810360008301526200048b8162000449565b9050919050565b7f4272616e6452656769737472793a20746865206f776e657220636f6e7472616360008201527f74206d75737420696d706c656d656e7420494d65746176657273650000000000602082015250565b6000620004f0603b83620003e9565b9150620004fd8262000492565b604082019050919050565b600060208201905081810360008301526200052381620004e1565b9050919050565b60007fffffffff0000000000000000000000000000000000000000000000000000000082169050919050565b62000561816200052a565b82525050565b60006020820190506200057e600083018462000556565b92915050565b600081519050919050565b600081905092915050565b60005b83811015620005ba5780820151818401526020810190506200059d565b83811115620005ca576000848401525b50505050565b6000620005dd8262000584565b620005e981856200058f565b9350620005fb8185602086016200059a565b80840191505092915050565b6000620006158284620005d0565b915081905092915050565b60008115159050919050565b620006378162000620565b81146200064357600080fd5b50565b60008151905062000657816200062c565b92915050565b6000602082840312156200067657620006756200034d565b5b6000620006868482850162000646565b91505092915050565b6141bb806200069f6000396000f3fe6080604052600436106101095760003560e01c806370e979fb116100955780639896c31d116100645780639896c31d1461035657806399de09ff14610393578063f200670d146103bc578063fc78302f146103e7578063feb532fd1461041057610109565b806370e979fb146102ab57806378df8fb7146102c75780637d5555df146102f05780638cd6e9a91461032d57610109565b80633e49d925116100dc5780633e49d925146101c857806340cde613146101f3578063437791971461023057806351a8de601461025957806352ea8a361461028257610109565b806301ffc9a71461010e5780630f73da861461014b57806320c6940b146101765780633c1213fb1461019f575b600080fd5b34801561011a57600080fd5b5061013560048036038101906101309190612724565b610439565b604051610142919061276c565b60405180910390f35b34801561015757600080fd5b5061016061050b565b60405161016d91906127a0565b60405180910390f35b34801561018257600080fd5b5061019d6004803603810190610198919061295f565b610511565b005b3480156101ab57600080fd5b506101c660048036038101906101c1919061295f565b610642565b005b3480156101d457600080fd5b506101dd610773565b6040516101ea91906127a0565b60405180910390f35b3480156101ff57600080fd5b5061021a600480360381019061021591906129f1565b610779565b604051610227919061276c565b60405180910390f35b34801561023c57600080fd5b5061025760048036038101906102529190612a70565b6109d8565b005b34801561026557600080fd5b50610280600480360381019061027b919061295f565b610b67565b005b34801561028e57600080fd5b506102a960048036038101906102a4919061295f565b610cdd565b005b6102c560048036038101906102c09190612a9d565b610e0e565b005b3480156102d357600080fd5b506102ee60048036038101906102e9919061295f565b610ec3565b005b3480156102fc57600080fd5b5061031760048036038101906103129190612bd2565b610ff4565b604051610324919061276c565b60405180910390f35b34801561033957600080fd5b50610354600480360381019061034f9190612bff565b61108f565b005b34801561036257600080fd5b5061037d60048036038101906103789190612bd2565b611239565b60405161038a9190612cc7565b60405180910390f35b34801561039f57600080fd5b506103ba60048036038101906103b59190612a70565b6113e9565b005b3480156103c857600080fd5b506103d16115e5565b6040516103de9190612cf8565b60405180910390f35b3480156103f357600080fd5b5061040e60048036038101906104099190612d3f565b611609565b005b34801561041c57600080fd5b5061043760048036038101906104329190612da6565b611926565b005b60007f01ffc9a7000000000000000000000000000000000000000000000000000000007bffffffffffffffffffffffffffffffffffffffffffffffffffffffff1916827bffffffffffffffffffffffffffffffffffffffffffffffffffffffff1916148061050457507fdbd8fe75000000000000000000000000000000000000000000000000000000007bffffffffffffffffffffffffffffffffffffffffffffffffffffffff1916827bffffffffffffffffffffffffffffffffffffffffffffffffffffffff1916145b9050919050565b60055481565b817f3124b80af1484423bc5936dfc5a705268a8d30bd03b155d2273007564e4450086105458282610540611bf7565b610779565b610584576040517f08c379a000000000000000000000000000000000000000000000000000000000815260040161057b90612e7e565b60405180910390fd5b82600260008673ffffffffffffffffffffffffffffffffffffffff1673ffffffffffffffffffffffffffffffffffffffff16815260200190815260200160002060050190805190602001906105da929190612615565b508373ffffffffffffffffffffffffffffffffffffffff166105fa611bf7565b73ffffffffffffffffffffffffffffffffffffffff167f7fd1c43abb0471595dcd4d461fdb320d926cbf2b8ba6fa87a78f1b1b0bf3e59260405160405180910390a350505050565b817f3124b80af1484423bc5936dfc5a705268a8d30bd03b155d2273007564e4450086106768282610671611bf7565b610779565b6106b5576040517f08c379a00000000000000000000000000000000000000000000000000000000081526004016106ac90612e7e565b60405180910390fd5b82600260008673ffffffffffffffffffffffffffffffffffffffff1673ffffffffffffffffffffffffffffffffffffffff168152602001908152602001600020600701908051906020019061070b929190612615565b508373ffffffffffffffffffffffffffffffffffffffff1661072b611bf7565b73ffffffffffffffffffffffffffffffffffffffff167f7fd1c43abb0471595dcd4d461fdb320d926cbf2b8ba6fa87a78f1b1b0bf3e59260405160405180910390a350505050565b60015481565b600080600260008673ffffffffffffffffffffffffffffffffffffffff1673ffffffffffffffffffffffffffffffffffffffff16815260200190815260200160002060000160009054906101000a900473ffffffffffffffffffffffffffffffffffffffff16905060006107eb611bf7565b9050600073ffffffffffffffffffffffffffffffffffffffff168273ffffffffffffffffffffffffffffffffffffffff16141580156109cd57508173ffffffffffffffffffffffffffffffffffffffff168173ffffffffffffffffffffffffffffffffffffffff16148061086557506108648282611bff565b5b8061092a5750600360008773ffffffffffffffffffffffffffffffffffffffff1673ffffffffffffffffffffffffffffffffffffffff16815260200190815260200160002060007fffffffffffffffffffffffffffffffffffffffffffffffffffffffffffffffff60001b815260200190815260200160002060008573ffffffffffffffffffffffffffffffffffffffff1673ffffffffffffffffffffffffffffffffffffffff16815260200190815260200160002060009054906101000a900460ff165b806109cc5750600360008773ffffffffffffffffffffffffffffffffffffffff1673ffffffffffffffffffffffffffffffffffffffff168152602001908152602001600020600086815260200190815260200160002060008573ffffffffffffffffffffffffffffffffffffffff1673ffffffffffffffffffffffffffffffffffffffff16815260200190815260200160002060009054906101000a900460ff165b5b925050509392505050565b7f7197e15fe7626a3bdf929aaac5ff852da61afd4f16a312fb9e4c7fb6636b3f8860008054906101000a900473ffffffffffffffffffffffffffffffffffffffff1673ffffffffffffffffffffffffffffffffffffffff166382027b6d82610a3e611bf7565b6040518363ffffffff1660e01b8152600401610a5b929190612ead565b602060405180830381865afa158015610a78573d6000803e3d6000fd5b505050506040513d601f19601f82011682018060405250810190610a9c9190612eeb565b610adb576040517f08c379a0000000000000000000000000000000000000000000000000000000008152600401610ad290612fb0565b60405180910390fd5b662386f26fc10000821015610b25576040517f08c379a0000000000000000000000000000000000000000000000000000000008152600401610b1c90613068565b60405180910390fd5b816001819055507fc652b105063222eb8399f76ca13b5913144c1d8af3a94bc240248ecbc36ac80b82604051610b5b91906127a0565b60405180910390a15050565b817f3124b80af1484423bc5936dfc5a705268a8d30bd03b155d2273007564e445008610b9b8282610b96611bf7565b610779565b610bda576040517f08c379a0000000000000000000000000000000000000000000000000000000008152600401610bd190612e7e565b60405180910390fd5b600083511415610c1f576040517f08c379a0000000000000000000000000000000000000000000000000000000008152600401610c16906130fa565b60405180910390fd5b82600260008673ffffffffffffffffffffffffffffffffffffffff1673ffffffffffffffffffffffffffffffffffffffff1681526020019081526020016000206004019080519060200190610c75929190612615565b508373ffffffffffffffffffffffffffffffffffffffff16610c95611bf7565b73ffffffffffffffffffffffffffffffffffffffff167f7fd1c43abb0471595dcd4d461fdb320d926cbf2b8ba6fa87a78f1b1b0bf3e59260405160405180910390a350505050565b817f3124b80af1484423bc5936dfc5a705268a8d30bd03b155d2273007564e445008610d118282610d0c611bf7565b610779565b610d50576040517f08c379a0000000000000000000000000000000000000000000000000000000008152600401610d4790612e7e565b60405180910390fd5b82600260008673ffffffffffffffffffffffffffffffffffffffff1673ffffffffffffffffffffffffffffffffffffffff1681526020019081526020016000206006019080519060200190610da6929190612615565b508373ffffffffffffffffffffffffffffffffffffffff16610dc6611bf7565b73ffffffffffffffffffffffffffffffffffffffff167f7fd1c43abb0471595dcd4d461fdb320d926cbf2b8ba6fa87a78f1b1b0bf3e59260405160405180910390a350505050565b60405180606001604052806021815260200161416560219139600154600034905081811483610e3c84611d14565b610e4584611d14565b604051602001610e579392919061323a565b60405160208183030381529060405290610ea7576040517f08c379a0000000000000000000000000000000000000000000000000000000008152600401610e9e9190612cc7565b60405180910390fd5b50610eb88989898989896000611e75565b505050505050505050565b817f3124b80af1484423bc5936dfc5a705268a8d30bd03b155d2273007564e445008610ef78282610ef2611bf7565b610779565b610f36576040517f08c379a0000000000000000000000000000000000000000000000000000000008152600401610f2d90612e7e565b60405180910390fd5b82600260008673ffffffffffffffffffffffffffffffffffffffff1673ffffffffffffffffffffffffffffffffffffffff1681526020019081526020016000206003019080519060200190610f8c929190612615565b508373ffffffffffffffffffffffffffffffffffffffff16610fac611bf7565b73ffffffffffffffffffffffffffffffffffffffff167f7fd1c43abb0471595dcd4d461fdb320d926cbf2b8ba6fa87a78f1b1b0bf3e59260405160405180910390a350505050565b60008073ffffffffffffffffffffffffffffffffffffffff16600260008473ffffffffffffffffffffffffffffffffffffffff1673ffffffffffffffffffffffffffffffffffffffff16815260200190815260200160002060000160009054906101000a900473ffffffffffffffffffffffffffffffffffffffff1673ffffffffffffffffffffffffffffffffffffffff1614159050919050565b60008054906101000a900473ffffffffffffffffffffffffffffffffffffffff1673ffffffffffffffffffffffffffffffffffffffff163373ffffffffffffffffffffffffffffffffffffffff161461111d576040517f08c379a0000000000000000000000000000000000000000000000000000000008152600401611114906132fe565b60405180910390fd5b600073ffffffffffffffffffffffffffffffffffffffff16600260008473ffffffffffffffffffffffffffffffffffffffff1673ffffffffffffffffffffffffffffffffffffffff16815260200190815260200160002060000160009054906101000a900473ffffffffffffffffffffffffffffffffffffffff1673ffffffffffffffffffffffffffffffffffffffff16146112355780600260008473ffffffffffffffffffffffffffffffffffffffff1673ffffffffffffffffffffffffffffffffffffffff16815260200190815260200160002060000160006101000a81548173ffffffffffffffffffffffffffffffffffffffff021916908373ffffffffffffffffffffffffffffffffffffffff1602179055505b5050565b60606000600260008473ffffffffffffffffffffffffffffffffffffffff1673ffffffffffffffffffffffffffffffffffffffff1681526020019081526020016000209050600073ffffffffffffffffffffffffffffffffffffffff168160000160009054906101000a900473ffffffffffffffffffffffffffffffffffffffff1673ffffffffffffffffffffffffffffffffffffffff1614156112ef57604051806020016040528060008152509150506113e4565b6113c1816001018260020183600401846003018560050186600601876007018860080160009054906101000a900460ff1661135f576040518060400160405280600581526020017f66616c7365000000000000000000000000000000000000000000000000000000815250611396565b6040518060400160405280600481526020017f74727565000000000000000000000000000000000000000000000000000000008152505b6040516020016113ad9897969594939291906136bf565b604051602081830303815290604052612339565b6040516020016113d191906137e0565b6040516020818303038152906040529150505b919050565b7fe9d360e07d5eef8dbf5ad02567e56941e84599f0182435b8639dfe238e0adccd60008054906101000a900473ffffffffffffffffffffffffffffffffffffffff1673ffffffffffffffffffffffffffffffffffffffff166382027b6d8261144f611bf7565b6040518363ffffffff1660e01b815260040161146c929190612ead565b602060405180830381865afa158015611489573d6000803e3d6000fd5b505050506040513d601f19601f820116820180604052508101906114ad9190612eeb565b6114ec576040517f08c379a00000000000000000000000000000000000000000000000000000000081526004016114e390612fb0565b60405180910390fd5b60006114f6611bf7565b90506000831161153b576040517f08c379a000000000000000000000000000000000000000000000000000000000815260040161153290613874565b60405180910390fd5b826005541015611580576040517f08c379a000000000000000000000000000000000000000000000000000000000815260040161157790613906565b60405180910390fd5b82600560008282546115929190613955565b925050819055508073ffffffffffffffffffffffffffffffffffffffff166108fc849081150290604051600060405180830381858888f193505050501580156115df573d6000803e3d6000fd5b50505050565b60008054906101000a900473ffffffffffffffffffffffffffffffffffffffff1681565b837fffffffffffffffffffffffffffffffffffffffffffffffffffffffffffffffff60001b611640828261163b611bf7565b610779565b61167f576040517f08c379a000000000000000000000000000000000000000000000000000000000815260040161167690612e7e565b60405180910390fd5b6000600260008873ffffffffffffffffffffffffffffffffffffffff1673ffffffffffffffffffffffffffffffffffffffff16815260200190815260200160002060000160009054906101000a900473ffffffffffffffffffffffffffffffffffffffff16905060006116f0611bf7565b9050600073ffffffffffffffffffffffffffffffffffffffff168673ffffffffffffffffffffffffffffffffffffffff161415611762576040517f08c379a0000000000000000000000000000000000000000000000000000000008152600401611759906139fb565b60405180910390fd5b8173ffffffffffffffffffffffffffffffffffffffff168173ffffffffffffffffffffffffffffffffffffffff1614806117a257506117a18282611bff565b5b806117d057507fffffffffffffffffffffffffffffffffffffffffffffffffffffffffffffffff60001b8714155b61180f576040517f08c379a000000000000000000000000000000000000000000000000000000000815260040161180690613a8d565b60405180910390fd5b84600360008a73ffffffffffffffffffffffffffffffffffffffff1673ffffffffffffffffffffffffffffffffffffffff168152602001908152602001600020600089815260200190815260200160002060008873ffffffffffffffffffffffffffffffffffffffff1673ffffffffffffffffffffffffffffffffffffffff16815260200190815260200160002060006101000a81548160ff0219169083151502179055508573ffffffffffffffffffffffffffffffffffffffff16878973ffffffffffffffffffffffffffffffffffffffff167f33b774b0016afe5e5c0a745363d93398f9a388dd53cc99f63af77f80baaa96dd8885604051611914929190613aad565b60405180910390a45050505050505050565b7f0814c8b32799cd5ec5efb2a3bf1e70fe52da39783ab514ac86782d4ceff1455760008054906101000a900473ffffffffffffffffffffffffffffffffffffffff1673ffffffffffffffffffffffffffffffffffffffff166382027b6d8261198c611bf7565b6040518363ffffffff1660e01b81526004016119a9929190612ead565b602060405180830381865afa1580156119c6573d6000803e3d6000fd5b505050506040513d601f19601f820116820180604052508101906119ea9190612eeb565b611a29576040517f08c379a0000000000000000000000000000000000000000000000000000000008152600401611a2090612fb0565b60405180910390fd5b6000600260008573ffffffffffffffffffffffffffffffffffffffff1673ffffffffffffffffffffffffffffffffffffffff16815260200190815260200160002060000160009054906101000a900473ffffffffffffffffffffffffffffffffffffffff169050600073ffffffffffffffffffffffffffffffffffffffff168173ffffffffffffffffffffffffffffffffffffffff161415611b00576040517f08c379a0000000000000000000000000000000000000000000000000000000008152600401611af790613b48565b60405180910390fd5b6000611b0a611bf7565b905083600260008773ffffffffffffffffffffffffffffffffffffffff1673ffffffffffffffffffffffffffffffffffffffff16815260200190815260200160002060080160006101000a81548160ff0219169083151502179055508473ffffffffffffffffffffffffffffffffffffffff168173ffffffffffffffffffffffffffffffffffffffff167f1a9425b12b0cb193f4db2ac1b9bc0712393521978231a7fcf5f0262b847cd54986604051611bc3919061276c565b60405180910390a35050505050565b6000611bdd8361249d565b8015611bef5750611bee83836124ea565b5b905092915050565b600033905090565b60008060009054906101000a900473ffffffffffffffffffffffffffffffffffffffff1673ffffffffffffffffffffffffffffffffffffffff16638820f6bd6040518163ffffffff1660e01b8152600401602060405180830381865afa158015611c6d573d6000803e3d6000fd5b505050506040513d601f19601f82011682018060405250810190611c919190613b7d565b73ffffffffffffffffffffffffffffffffffffffff1663e985e9c584846040518363ffffffff1660e01b8152600401611ccb929190613baa565b602060405180830381865afa158015611ce8573d6000803e3d6000fd5b505050506040513d601f19601f82011682018060405250810190611d0c9190612eeb565b905092915050565b60606000821415611d5c576040518060400160405280600181526020017f30000000000000000000000000000000000000000000000000000000000000008152509050611e70565b600082905060005b60008214611d8e578080611d7790613bd3565b915050600a82611d879190613c4b565b9150611d64565b60008167ffffffffffffffff811115611daa57611da9612834565b5b6040519080825280601f01601f191660200182016040528015611ddc5781602001600182028036833780820191505090505b5090505b60008514611e6957600182611df59190613955565b9150600a85611e049190613c7c565b6030611e109190613cad565b60f81b818381518110611e2657611e25613d03565b5b60200101907effffffffffffffffffffffffffffffffffffffffffffffffffffffffffffff1916908160001a905350600a85611e629190613c4b565b9450611de0565b8093505050505b919050565b6000611e7f611bf7565b9050600088511415611ec6576040517f08c379a0000000000000000000000000000000000000000000000000000000008152600401611ebd90613da4565b60405180910390fd5b600087511415611f0b576040517f08c379a0000000000000000000000000000000000000000000000000000000008152600401611f0290613e36565b60405180910390fd5b600086511415611f50576040517f08c379a0000000000000000000000000000000000000000000000000000000008152600401611f47906130fa565b60405180910390fd5b3460056000828254611f629190613cad565b92505081905550600160046000828254611f7c9190613cad565b92505081905550600060d660f81b609460f81b308460045460001b604051602001611fab959493929190613f0c565b6040516020818303038152906040528051906020012060001c9050600073ffffffffffffffffffffffffffffffffffffffff168173ffffffffffffffffffffffffffffffffffffffff161415612036576040517f08c379a000000000000000000000000000000000000000000000000000000000815260040161202d90613fdd565b60405180910390fd5b6040518061012001604052808373ffffffffffffffffffffffffffffffffffffffff1681526020018a81526020018981526020016040518060400160405280600b81526020017f61626f75743a626c616e6b0000000000000000000000000000000000000000008152508152602001888152602001878152602001868152602001858152602001841515815250600260008373ffffffffffffffffffffffffffffffffffffffff1673ffffffffffffffffffffffffffffffffffffffff16815260200190815260200160002060008201518160000160006101000a81548173ffffffffffffffffffffffffffffffffffffffff021916908373ffffffffffffffffffffffffffffffffffffffff1602179055506020820151816001019080519060200190612165929190612615565b506040820151816002019080519060200190612182929190612615565b50606082015181600301908051906020019061219f929190612615565b5060808201518160040190805190602001906121bc929190612615565b5060a08201518160050190805190602001906121d9929190612615565b5060c08201518160060190805190602001906121f6929190612615565b5060e0820151816007019080519060200190612213929190612615565b506101008201518160080160006101000a81548160ff02191690831515021790555090505060008054906101000a900473ffffffffffffffffffffffffffffffffffffffff1673ffffffffffffffffffffffffffffffffffffffff16631b5dc59883836040518363ffffffff1660e01b8152600401612293929190613baa565b600060405180830381600087803b1580156122ad57600080fd5b505af11580156122c1573d6000803e3d6000fd5b505050508073ffffffffffffffffffffffffffffffffffffffff168273ffffffffffffffffffffffffffffffffffffffff167fbaa80c9cbed3f9a5fcdc4e9dd7785f9cfc968a81b80b94363bea0e92c938c0d98b8b3460405161232693929190613ffd565b60405180910390a3505050505050505050565b606060008251141561235c57604051806020016040528060008152509050612498565b6000604051806060016040528060408152602001614125604091399050600060036002855161238b9190613cad565b6123959190613c4b565b60046123a19190614042565b67ffffffffffffffff8111156123ba576123b9612834565b5b6040519080825280601f01601f1916602001820160405280156123ec5781602001600182028036833780820191505090505b509050600182016020820185865187015b80821015612458576003820191508151603f8160121c168501518453600184019350603f81600c1c168501518453600184019350603f8160061c168501518453600184019350603f81168501518453600184019350506123fd565b505060038651066001811461247457600281146124875761248f565b603d6001830353603d600283035361248f565b603d60018303535b50505080925050505b919050565b60006124c9827f01ffc9a7000000000000000000000000000000000000000000000000000000006124ea565b80156124e357506124e18263ffffffff60e01b6124ea565b155b9050919050565b6000806301ffc9a760e01b8360405160240161250691906140ab565b604051602081830303815290604052907bffffffffffffffffffffffffffffffffffffffffffffffffffffffff19166020820180517bffffffffffffffffffffffffffffffffffffffffffffffffffffffff838183161783525050505090506000808573ffffffffffffffffffffffffffffffffffffffff1661753084604051612590919061410d565b6000604051808303818686fa925050503d80600081146125cc576040519150601f19603f3d011682016040523d82523d6000602084013e6125d1565b606091505b50915091506020815110156125ec576000935050505061260f565b8180156126095750808060200190518101906126089190612eeb565b5b93505050505b92915050565b82805461262190613399565b90600052602060002090601f016020900481019282612643576000855561268a565b82601f1061265c57805160ff191683800117855561268a565b8280016001018555821561268a579182015b8281111561268957825182559160200191906001019061266e565b5b509050612697919061269b565b5090565b5b808211156126b457600081600090555060010161269c565b5090565b6000604051905090565b600080fd5b600080fd5b60007fffffffff0000000000000000000000000000000000000000000000000000000082169050919050565b612701816126cc565b811461270c57600080fd5b50565b60008135905061271e816126f8565b92915050565b60006020828403121561273a576127396126c2565b5b60006127488482850161270f565b91505092915050565b60008115159050919050565b61276681612751565b82525050565b6000602082019050612781600083018461275d565b92915050565b6000819050919050565b61279a81612787565b82525050565b60006020820190506127b56000830184612791565b92915050565b600073ffffffffffffffffffffffffffffffffffffffff82169050919050565b60006127e6826127bb565b9050919050565b6127f6816127db565b811461280157600080fd5b50565b600081359050612813816127ed565b92915050565b600080fd5b600080fd5b6000601f19601f8301169050919050565b7f4e487b7100000000000000000000000000000000000000000000000000000000600052604160045260246000fd5b61286c82612823565b810181811067ffffffffffffffff8211171561288b5761288a612834565b5b80604052505050565b600061289e6126b8565b90506128aa8282612863565b919050565b600067ffffffffffffffff8211156128ca576128c9612834565b5b6128d382612823565b9050602081019050919050565b82818337600083830152505050565b60006129026128fd846128af565b612894565b90508281526020810184848401111561291e5761291d61281e565b5b6129298482856128e0565b509392505050565b600082601f83011261294657612945612819565b5b81356129568482602086016128ef565b91505092915050565b60008060408385031215612976576129756126c2565b5b600061298485828601612804565b925050602083013567ffffffffffffffff8111156129a5576129a46126c7565b5b6129b185828601612931565b9150509250929050565b6000819050919050565b6129ce816129bb565b81146129d957600080fd5b50565b6000813590506129eb816129c5565b92915050565b600080600060608486031215612a0a57612a096126c2565b5b6000612a1886828701612804565b9350506020612a29868287016129dc565b9250506040612a3a86828701612804565b9150509250925092565b612a4d81612787565b8114612a5857600080fd5b50565b600081359050612a6a81612a44565b92915050565b600060208284031215612a8657612a856126c2565b5b6000612a9484828501612a5b565b91505092915050565b60008060008060008060c08789031215612aba57612ab96126c2565b5b600087013567ffffffffffffffff811115612ad857612ad76126c7565b5b612ae489828a01612931565b965050602087013567ffffffffffffffff811115612b0557612b046126c7565b5b612b1189828a01612931565b955050604087013567ffffffffffffffff811115612b3257612b316126c7565b5b612b3e89828a01612931565b945050606087013567ffffffffffffffff811115612b5f57612b5e6126c7565b5b612b6b89828a01612931565b935050608087013567ffffffffffffffff811115612b8c57612b8b6126c7565b5b612b9889828a01612931565b92505060a087013567ffffffffffffffff811115612bb957612bb86126c7565b5b612bc589828a01612931565b9150509295509295509295565b600060208284031215612be857612be76126c2565b5b6000612bf684828501612804565b91505092915050565b60008060408385031215612c1657612c156126c2565b5b6000612c2485828601612804565b9250506020612c3585828601612804565b9150509250929050565b600081519050919050565b600082825260208201905092915050565b60005b83811015612c79578082015181840152602081019050612c5e565b83811115612c88576000848401525b50505050565b6000612c9982612c3f565b612ca38185612c4a565b9350612cb3818560208601612c5b565b612cbc81612823565b840191505092915050565b60006020820190508181036000830152612ce18184612c8e565b905092915050565b612cf2816127db565b82525050565b6000602082019050612d0d6000830184612ce9565b92915050565b612d1c81612751565b8114612d2757600080fd5b50565b600081359050612d3981612d13565b92915050565b60008060008060808587031215612d5957612d586126c2565b5b6000612d6787828801612804565b9450506020612d78878288016129dc565b9350506040612d8987828801612804565b9250506060612d9a87828801612d2a565b91505092959194509250565b60008060408385031215612dbd57612dbc6126c2565b5b6000612dcb85828601612804565b9250506020612ddc85828601612d2a565b9150509250929050565b7f4272616e6452656769737472793a2063616c6c6572206973206e6f742062726160008201527f6e64206f776e6572206e6f7220617070726f7665642c20616e6420646f65732060208201527f6e6f74206861766520746865207265717569726564207065726d697373696f6e604082015250565b6000612e68606083612c4a565b9150612e7382612de6565b606082019050919050565b60006020820190508181036000830152612e9781612e5b565b9050919050565b612ea7816129bb565b82525050565b6000604082019050612ec26000830185612e9e565b612ecf6020830184612ce9565b9392505050565b600081519050612ee581612d13565b92915050565b600060208284031215612f0157612f006126c2565b5b6000612f0f84828501612ed6565b91505092915050565b7f4272616e6452656769737472793a2063616c6c6572206973206e6f74206d657460008201527f617665727365206f776e65722c20616e6420646f6573206e6f7420686176652060208201527f746865207265717569726564207065726d697373696f6e000000000000000000604082015250565b6000612f9a605783612c4a565b9150612fa582612f18565b606082019050919050565b60006020820190508181036000830152612fc981612f8d565b9050919050565b7f4272616e6452656769737472793a20746865206272616e64207265676973747260008201527f7920636f7374206d757374206e6f74206265206c657373207468616e20302e3060208201527f31206e617469766520746f6b656e730000000000000000000000000000000000604082015250565b6000613052604f83612c4a565b915061305d82612fd0565b606082019050919050565b6000602082019050818103600083015261308181613045565b9050919050565b7f4272616e6452656769737472793a207573652061206e6f6e2d656d707479206960008201527f6d6167652075726c000000000000000000000000000000000000000000000000602082015250565b60006130e4602883612c4a565b91506130ef82613088565b604082019050919050565b60006020820190508181036000830152613113816130d7565b9050919050565b600081905092915050565b600061313082612c3f565b61313a818561311a565b935061314a818560208601612c5b565b80840191505092915050565b7f20726571756972657320616e206578616374207061796d656e74206f66200000600082015250565b600061318c601e8361311a565b915061319782613156565b601e82019050919050565b7f2062757420000000000000000000000000000000000000000000000000000000600082015250565b60006131d860058361311a565b91506131e3826131a2565b600582019050919050565b7f2077617320676976656e00000000000000000000000000000000000000000000600082015250565b6000613224600a8361311a565b915061322f826131ee565b600a82019050919050565b60006132468286613125565b91506132518261317f565b915061325d8285613125565b9150613268826131cb565b91506132748284613125565b915061327f82613217565b9150819050949350505050565b7f4272616e6452656769737472793a206f6e6c7920746865206f776e696e67206d60008201527f65746176657273652063616e20696e766f6b652074686973206d6574686f6400602082015250565b60006132e8603f83612c4a565b91506132f38261328c565b604082019050919050565b60006020820190508181036000830152613317816132db565b9050919050565b7f7b226e616d65223a220000000000000000000000000000000000000000000000600082015250565b600061335460098361311a565b915061335f8261331e565b600982019050919050565b7f4e487b7100000000000000000000000000000000000000000000000000000000600052602260045260246000fd5b600060028204905060018216806133b157607f821691505b602082108114156133c5576133c461336a565b5b50919050565b60008190508160005260206000209050919050565b600081546133ed81613399565b6133f7818661311a565b94506001821660008114613412576001811461342357613456565b60ff19831686528186019350613456565b61342c856133cb565b60005b8381101561344e5781548189015260018201915060208101905061342f565b838801955050505b50505092915050565b7f222c226465736372697074696f6e223a22000000000000000000000000000000600082015250565b600061349560118361311a565b91506134a08261345f565b601182019050919050565b7f222c22696d616765223a22000000000000000000000000000000000000000000600082015250565b60006134e1600b8361311a565b91506134ec826134ab565b600b82019050919050565b7f222c2270726f70657274696573223a7b226368616c6c656e676555726c223a22600082015250565b600061352d60208361311a565b9150613538826134f7565b602082019050919050565b7f222c2269636f6e3136783136223a220000000000000000000000000000000000600082015250565b6000613579600f8361311a565b915061358482613543565b600f82019050919050565b7f222c2269636f6e3332783332223a220000000000000000000000000000000000600082015250565b60006135c5600f8361311a565b91506135d08261358f565b600f82019050919050565b7f222c2269636f6e3634783634223a220000000000000000000000000000000000600082015250565b6000613611600f8361311a565b915061361c826135db565b600f82019050919050565b7f222c22636f6d6d6974746564223a000000000000000000000000000000000000600082015250565b600061365d600e8361311a565b915061366882613627565b600e82019050919050565b7f7d7d000000000000000000000000000000000000000000000000000000000000600082015250565b60006136a960028361311a565b91506136b482613673565b600282019050919050565b60006136ca82613347565b91506136d6828b6133e0565b91506136e182613488565b91506136ed828a6133e0565b91506136f8826134d4565b915061370482896133e0565b915061370f82613520565b915061371b82886133e0565b91506137268261356c565b915061373282876133e0565b915061373d826135b8565b915061374982866133e0565b915061375482613604565b915061376082856133e0565b915061376b82613650565b91506137778284613125565b91506137828261369c565b91508190509998505050505050505050565b7f646174613a6170706c69636174696f6e2f6a736f6e3b6261736536342c000000600082015250565b60006137ca601d8361311a565b91506137d582613794565b601d82019050919050565b60006137eb826137bd565b91506137f78284613125565b915081905092915050565b7f4272616e6452656769737472793a206561726e696e677320616d6f756e74206d60008201527f757374206e6f7420626520300000000000000000000000000000000000000000602082015250565b600061385e602c83612c4a565b915061386982613802565b604082019050919050565b6000602082019050818103600083015261388d81613851565b9050919050565b7f4272616e6452656769737472793a206561726e696e677320616d6f756e74206960008201527f73206c657373207468616e207468652072657175657374656420616d6f756e74602082015250565b60006138f0604083612c4a565b91506138fb82613894565b604082019050919050565b6000602082019050818103600083015261391f816138e3565b9050919050565b7f4e487b7100000000000000000000000000000000000000000000000000000000600052601160045260246000fd5b600061396082612787565b915061396b83612787565b92508282101561397e5761397d613926565b5b828203905092915050565b7f4272616e6452656769737472793a2063616e6e6f74206772616e74206120706560008201527f726d697373696f6e20746f206164647265737320300000000000000000000000602082015250565b60006139e5603583612c4a565b91506139f082613989565b604082019050919050565b60006020820190508181036000830152613a14816139d8565b9050919050565b7f4272616e6452656769737472793a20535550455255534552207065726d69737360008201527f696f6e2063616e6e6f7420626520616464656420627920746869732075736572602082015250565b6000613a77604083612c4a565b9150613a8282613a1b565b604082019050919050565b60006020820190508181036000830152613aa681613a6a565b9050919050565b6000604082019050613ac2600083018561275d565b613acf6020830184612ce9565b9392505050565b7f4272616e6452656769737472793a206e6f6e2d6578697374696e67206272616e60008201527f6400000000000000000000000000000000000000000000000000000000000000602082015250565b6000613b32602183612c4a565b9150613b3d82613ad6565b604082019050919050565b60006020820190508181036000830152613b6181613b25565b9050919050565b600081519050613b77816127ed565b92915050565b600060208284031215613b9357613b926126c2565b5b6000613ba184828501613b68565b91505092915050565b6000604082019050613bbf6000830185612ce9565b613bcc6020830184612ce9565b9392505050565b6000613bde82612787565b91507fffffffffffffffffffffffffffffffffffffffffffffffffffffffffffffffff821415613c1157613c10613926565b5b600182019050919050565b7f4e487b7100000000000000000000000000000000000000000000000000000000600052601260045260246000fd5b6000613c5682612787565b9150613c6183612787565b925082613c7157613c70613c1c565b5b828204905092915050565b6000613c8782612787565b9150613c9283612787565b925082613ca257613ca1613c1c565b5b828206905092915050565b6000613cb882612787565b9150613cc383612787565b9250827fffffffffffffffffffffffffffffffffffffffffffffffffffffffffffffffff03821115613cf857613cf7613926565b5b828201905092915050565b7f4e487b7100000000000000000000000000000000000000000000000000000000600052603260045260246000fd5b7f4272616e6452656769737472793a207573652061206e6f6e2d656d707479206e60008201527f616d650000000000000000000000000000000000000000000000000000000000602082015250565b6000613d8e602383612c4a565b9150613d9982613d32565b604082019050919050565b60006020820190508181036000830152613dbd81613d81565b9050919050565b7f4272616e6452656769737472793a207573652061206e6f6e2d656d707479206460008201527f65736372697074696f6e00000000000000000000000000000000000000000000602082015250565b6000613e20602a83612c4a565b9150613e2b82613dc4565b604082019050919050565b60006020820190508181036000830152613e4f81613e13565b9050919050565b60007fff0000000000000000000000000000000000000000000000000000000000000082169050919050565b6000819050919050565b613e9d613e9882613e56565b613e82565b82525050565b60008160601b9050919050565b6000613ebb82613ea3565b9050919050565b6000613ecd82613eb0565b9050919050565b613ee5613ee0826127db565b613ec2565b82525050565b6000819050919050565b613f06613f01826129bb565b613eeb565b82525050565b6000613f188288613e8c565b600182019150613f288287613e8c565b600182019150613f388286613ed4565b601482019150613f488285613ed4565b601482019150613f588284613ef5565b6020820191508190509695505050505050565b7f4272616e6452656769737472793a2074686973206272616e642063616e6e6f7460008201527f206265206d696e746564206e6f77202d2074727920616761696e206c61746572602082015250565b6000613fc7604083612c4a565b9150613fd282613f6b565b604082019050919050565b60006020820190508181036000830152613ff681613fba565b9050919050565b600060608201905081810360008301526140178186612c8e565b9050818103602083015261402b8185612c8e565b905061403a6040830184612791565b949350505050565b600061404d82612787565b915061405883612787565b9250817fffffffffffffffffffffffffffffffffffffffffffffffffffffffffffffffff048311821515161561409157614090613926565b5b828202905092915050565b6140a5816126cc565b82525050565b60006020820190506140c0600083018461409c565b92915050565b600081519050919050565b600081905092915050565b60006140e7826140c6565b6140f181856140d1565b9350614101818560208601612c5b565b80840191505092915050565b600061411982846140dc565b91508190509291505056fe4142434445464748494a4b4c4d4e4f505152535455565758595a6162636465666768696a6b6c6d6e6f707172737475767778797a303132333435363738392b2f4272616e6452656769737472793a206272616e6420726567697374726174696f6ea26469706673582212205abf8cc689badd5bcfe21478c698410c4644137919776e3197e887343e77748e64736f6c634300080a0033",
  "immutableReferences": {},
  "source": "// SPDX-License-Identifier: MIT\npragma solidity >=0.8 <0.9.0;\n\nimport \"@openzeppelin/contracts/utils/Context.sol\";\nimport \"@openzeppelin/contracts/utils/Base64.sol\";\nimport \"@openzeppelin/contracts/utils/introspection/ERC165Checker.sol\";\nimport \"@openzeppelin/contracts/utils/introspection/ERC165.sol\";\nimport \"./IBrandRegistry.sol\";\nimport \"../IMetaverse.sol\";\nimport \"../economy/IEconomy.sol\";\nimport \"../../NativePayable.sol\";\n\n/**\n * A Brand registry will keep track of the brands being registered.\n * Those brands will hold the metadata, and this trait will hold\n * the mean to register such brand with its metadata.\n */\ncontract BrandRegistry is Context, NativePayable, ERC165 {\n    /**\n     * Addresses can check for ERC165 compliance by using this\n     * embeddable library.\n     */\n    using ERC165Checker for address;\n\n    /**\n     * The metaverse that will own this brand registry.\n     */\n    address public metaverse;\n\n    /**\n     * The cost to register a new brand. This can be changed in\n     * the future and must be able to be known in the ABI for the\n     * users to be aware of the statistic.\n     */\n    uint256 public brandRegistrationCost;\n\n    /**\n     * This is the whole brand metadata. It only has aesthetics,\n     * name and descriptions.\n     */\n    struct BrandMetadata {\n        /**\n         * The owner of the brand (cached).\n         */\n        address owner;\n\n        /**\n         * The name of the brand. It matches the \"name\" field\n         * of the metadata. This field is immutable.\n         */\n        string name;\n\n        /**\n         * The description of the brand. It matches the\n         * \"description\" field of the metadata. This field\n         * is immutable.\n         */\n        string description;\n\n        /**\n         * The challenge URL of the brand. It matches the\n         * \"properties.challengeUrl\" field. This field is\n         * optional and mutable.\n         */\n        string challengeUrl;\n\n        /**\n         * The URL of the brand. It matches the \"image\" field\n         * of the metadata. This field is mutable.\n         */\n        string image;\n\n        /**\n         * The icon of the brand (16x16). It matches the\n         * \"properties.icon16x16\" field of the metadata.\n         * This field is optional and mutable.\n         */\n        string icon16x16;\n\n        /**\n         * The icon of the brand (32x32). It matches the\n         * \"properties.icon32x32\" field of the metadata.\n         * This field is optional and mutable.\n         */\n        string icon32x32;\n\n        /**\n         * The icon of the brand (64x64). It matches the\n         * \"properties.icon64x64\" field of the metadata.\n         * This field is optional and mutable.\n         */\n        string icon64x64;\n\n        /**\n         * Whether this brand is a regarded non-government\n         * organization or not. Those brands receive another\n         * kind of treatment, as they're recognized by the\n         * management to be socially committed brands, in\n         * accordance to the management guidelines for such\n         * commitment recognition.\n         */\n        bool committed;\n    }\n\n    /**\n     * All the registered brands are here. Each brand will have\n     * a non-empty name and non-empty description. Brands can\n     * only be added - never deleted / unregistered.\n     */\n    mapping(address => BrandMetadata) brands;\n\n    /**\n     * Permission: Superuser (all the permissions are considered\n     * given to a superuser which is registered in a respective\n     * non-zero brand). The only things that superuser per-se\n     * cannot do in a brand are to transfer it via ERC-1155 and\n     * add more superusers.\n     */\n    bytes32 constant SUPERUSER = bytes32(uint256((1 << 256) - 1));\n\n    /**\n     * (Metaverse-scope) Permission: The user is allowed to set\n     * the brand registration cost.\n     */\n    bytes32 constant METAVERSE_SET_BRAND_REGISTRATION_COST = keccak256(\"BrandRegistry::SetBrandRegistrationCost\");\n\n    /**\n     * (Metaverse-scope) Permission: The user is allowed to set\n     * the brand social commitment to a brand, or not. Brands with\n     * that flag set are (1) non-commercial and (2) aligned to this\n     * metaverse's social commitment views.\n     */\n    bytes32 constant METAVERSE_SET_BRAND_COMMITMENT = keccak256(\"BrandRegistry::SetBrandCommitment\");\n\n    /**\n     * (Metaverse-scope) Permission: The user is allowed to withdraw\n     * the earnings from brand registrations, which reside in this\n     * contract since the very moment a brand is registered.\n     */\n    bytes32 constant METAVERSE_WITHDRAW_BRAND_REGISTRATION_EARNINGS =\n        keccak256(\"BrandRegistry::WithdrawBrandRegistrationEarnings\");\n\n    /**\n     * Permission: The user is allowed to edit a brand's aesthetic.\n     */\n    bytes32 constant BRAND_AESTHETICS_EDITION = keccak256(\"BrandRegistry::Brand::Edit\");\n\n    /**\n     * Maintains the permissions assigned to all the brands\n     * (the brand must always be != 0).\n     */\n    mapping(address => mapping(bytes32 => mapping(address => bool))) brandPermissions;\n\n    /**\n     * The count of registered brands.\n     */\n    uint256 brandsCount;\n\n    /**\n     * Tells the current earnings, not yet withdrawn, from brand\n     * registrations.\n     */\n    uint256 public brandRegistrationCurrentEarnings;\n\n    // ********** Brand management goes here **********\n\n    /**\n     * An event for when the brand registration cost is updated.\n     */\n    event BrandRegistrationCostUpdated(uint256 newCost);\n\n    /**\n     * Creating a brand registry requires a valid metaverse\n     * registrar as its owner.\n     */\n    constructor(address _metaverse) {\n        require(_metaverse != address(0), \"BrandRegistry: the owner contract must not be 0\");\n        require(\n            _metaverse.supportsInterface(type(IMetaverse).interfaceId),\n            \"BrandRegistry: the owner contract must implement IMetaverse\"\n        );\n        metaverse = _metaverse;\n    }\n\n    /**\n     * This modifier restricts function to be only invoked by the metaverse.\n     */\n    modifier onlyMetaverse() {\n        require(msg.sender == metaverse, \"BrandRegistry: only the owning metaverse can invoke this method\");\n        _;\n    }\n\n    /**\n     * Sets the new brand registration cost.\n     */\n    function setBrandRegistrationCost(uint256 _newCost) public\n        onlyMetaverseAllowed(METAVERSE_SET_BRAND_REGISTRATION_COST)\n    {\n        require(\n            _newCost >= (1 ether) / 100,\n            \"BrandRegistry: the brand registry cost must not be less than 0.01 native tokens\"\n        );\n        brandRegistrationCost = _newCost;\n        emit BrandRegistrationCostUpdated(_newCost);\n    }\n\n    // ********** Brand registration & management goes here **********\n\n    /**\n     * Tells whether a particular user is the owner of the brand id.\n     */\n    function _isBrandOwnerApproved(address _brandOwner, address _sender) internal view returns (bool) {\n        return IEconomy(IMetaverse(metaverse).economy()).isApprovedForAll(_brandOwner, _sender);\n    }\n\n    /**\n     * This event is triggered when a brand is registered. The new\n     * address is also included, along some reference data.\n     */\n    event BrandRegistered(\n        address indexed registeredBy, address indexed brandId, string name, string description,\n        uint256 price\n    );\n\n    /**\n     * Given the appropriate metadata, mints a new brand. The image url\n     * is mandatory, but about:blank may be used if it is missing or one\n     * image is not yet ready. The icons are optional. An empty string\n     * or about:blank should be used if not needed. Ensure all the urls\n     * are empty (as permitted) or valid urls, and the name and description\n     * have only json-string-friendly character, no backslash, and no double\n     * quotes or the metadata might fail to be assembled into valid JSON,\n     * also taking special care with the name and description, since they\n     * cannot be changed later.\n     */\n    function _registerBrand(\n        string memory _name, string memory _description, string memory _image,\n        string memory _icon16x16, string memory _icon32x32, string memory _icon64x64,\n        bool committed\n    ) internal {\n        address sender = _msgSender();\n        require(bytes(_name).length != 0, \"BrandRegistry: use a non-empty name\");\n        require(bytes(_description).length != 0, \"BrandRegistry: use a non-empty description\");\n        require(bytes(_image).length != 0, \"BrandRegistry: use a non-empty image url\");\n\n        // 1. Annotate the non-withdrawn earnings with the new amount.\n        brandRegistrationCurrentEarnings += msg.value;\n\n        // 2. Increment the counter and generate the new brand address.\n        //    In the extremely unlikely case that the brand id is 0, this\n        //    call will revert.\n        brandsCount += 1;\n        address brandId = address(uint160(uint256(keccak256(\n            abi.encodePacked(\n                bytes1(0xd6), bytes1(0x94), address(this), sender,\n                bytes32(brandsCount)\n            )\n        ))));\n        require(\n            brandId != address(0),\n            \"BrandRegistry: this brand cannot be minted now - try again later\"\n        );\n\n        // 3. Register the brand.\n        brands[brandId] = BrandMetadata({\n            name: _name, description: _description, challengeUrl: \"about:blank\",\n            image: _image, icon16x16: _icon16x16, icon32x32: _icon32x32,\n            icon64x64: _icon64x64, owner: sender, committed: committed\n        });\n\n        // 4. Mint the brand into the economic system for the sender.\n        IMetaverse(metaverse).mintBrandFor(sender, brandId);\n\n        // 5. Trigger the event.\n        emit BrandRegistered(sender, brandId, _name, _description, msg.value);\n    }\n\n    /**\n     * Registers a new brand, when the appropriate price is paid for it.\n     * For more details on how this method works, check _registerBrand's\n     * inline documentation.\n     */\n    function registerBrand(\n        string memory _name, string memory _description, string memory _image,\n        string memory _icon16x16, string memory _icon32x32, string memory _icon64x64\n    ) public payable hasNativeTokenPrice(\"BrandRegistry: brand registration\", brandRegistrationCost) {\n        _registerBrand(_name, _description, _image, _icon16x16, _icon32x32, _icon64x64, false);\n    }\n\n    /**\n     * This event is triggered when a brand is updated with respect\n     * to its social commitment (this is: to tell a brand is socially\n     * committed according to the metaverse's views or not). Special\n     * benefits (in particular, with respect to assets loading on\n     * customers) are given in clients to socially committed brands.\n     */\n    event BrandSocialCommitmentUpdated(address indexed updatedBy, address indexed brand, bool committed);\n\n    /**\n     * Updates whether a brand is socially committed or not.\n     */\n    function updateBrandSocialCommitment(address _brandId, bool _committed) public\n        onlyMetaverseAllowed(METAVERSE_SET_BRAND_COMMITMENT)\n    {\n        // Require the flag to exist.\n        address owner = brands[_brandId].owner;\n        require(owner != address(0), \"BrandRegistry: non-existing brand\");\n\n        // Require the sender to be allowed to set brands' commitment.\n        address sender = _msgSender();\n\n        // Update the commitment flag.\n        brands[_brandId].committed = _committed;\n\n        // Emit the related event.\n        emit BrandSocialCommitmentUpdated(sender, _brandId, _committed);\n    }\n\n    /**\n     * Sets the owner of a brand. This method is meant to be called\n     * internally, when the actual brand transfer is done (brands\n     * can only be transferred, but never burnt).\n     */\n    function onBrandOwnerChanged(address _brandId, address _newOwner) external onlyMetaverse {\n        if (brands[_brandId].owner != address(0)) brands[_brandId].owner = _newOwner;\n    }\n\n    /**\n     * This event is triggered when a brand is registered. The new\n     * address is also included, along some reference data.\n     */\n    event BrandUpdated(address indexed updatedBy, address indexed brandId);\n\n    /**\n     * Updates the brand image. Only the owner of the brand or an\n     * approved account can invoke this method. Ensure the _image is\n     * empty or a valid URL, or metadata might fail to be assembled\n     * into valid JSON.\n     */\n    function updateBrandImage(address _brandId, string memory _image) public\n        onlyBrandAllowed(_brandId, BRAND_AESTHETICS_EDITION)\n    {\n        require(bytes(_image).length != 0, \"BrandRegistry: use a non-empty image url\");\n        brands[_brandId].image = _image;\n        emit BrandUpdated(_msgSender(), _brandId);\n    }\n\n    /**\n     * Updates the brand's challenge url. Only the owner of the brand\n     * or an approved account can invoke this method. Ensure the url\n     * is empty or a valid URL, or metadata might fail to be assembled\n     * into valid JSON.\n     */\n    function updateBrandChallengeUrl(\n        address _brandId, string memory _challengeUrl\n    ) public onlyBrandAllowed(_brandId, BRAND_AESTHETICS_EDITION) {\n        brands[_brandId].challengeUrl = _challengeUrl;\n        emit BrandUpdated(_msgSender(), _brandId);\n    }\n\n    /**\n     * Updates the brand's 16x16 icon url. Only the owner of the brand\n     * or an approved account can invoke this method. Ensure the _icon\n     * is empty or a valid URL, or metadata might fail to be assembled\n     * into valid JSON.\n     */\n    function updateBrandIcon16x16Url(\n        address _brandId, string memory _icon\n    ) public onlyBrandAllowed(_brandId, BRAND_AESTHETICS_EDITION) {\n        brands[_brandId].icon16x16 = _icon;\n        emit BrandUpdated(_msgSender(), _brandId);\n    }\n\n    /**\n     * Updates the brand's 32x32 icon url. Only the owner of the brand\n     * or an approved account can invoke this method. Ensure the _icon\n     * is empty or a valid URL, or metadata might fail to be assembled\n     * into valid JSON.\n     */\n    function updateBrandIcon32x32Url(\n        address _brandId, string memory _icon\n    ) public onlyBrandAllowed(_brandId, BRAND_AESTHETICS_EDITION) {\n        brands[_brandId].icon32x32 = _icon;\n        emit BrandUpdated(_msgSender(), _brandId);\n    }\n\n    /**\n     * Updates the brand's 64x64 icon url. Only the owner of the brand\n     * or an approved account can invoke this method. Ensure the _icon\n     * is empty or a valid URL, or metadata might fail to be assembled\n     * into valid JSON.\n     */\n    function updateBrandIcon64x64Url(\n        address _brandId, string memory _icon\n    ) public onlyBrandAllowed(_brandId, BRAND_AESTHETICS_EDITION) {\n        brands[_brandId].icon64x64 = _icon;\n        emit BrandUpdated(_msgSender(), _brandId);\n    }\n\n    /**\n     * Assembles the whole metadata for a brand. WARNING: This method\n     * will consume a lot of gas if invoked inside a transaction, so\n     * it is recommended to invoke this method in the context of a\n     * CALL, and never in the context of a SEND (even as part of other\n     * contract's code).\n     */\n    function brandMetadataURI(address _brandId) public view returns (string memory) {\n        BrandMetadata storage brand = brands[_brandId];\n        if (brand.owner == address(0)) return \"\";\n\n        return string(abi.encodePacked(\"data:application/json;base64,\", Base64.encode(abi.encodePacked(\n            '{\"name\":\"', brand.name, '\",\"description\":\"', brand.description, '\",\"image\":\"', brand.image,\n            '\",\"properties\":{\"challengeUrl\":\"',brand.challengeUrl,'\",\"icon16x16\":\"', brand.icon16x16,\n            '\",\"icon32x32\":\"', brand.icon32x32, '\",\"icon64x64\":\"', brand.icon64x64, '\",\"committed\":',\n            brand.committed ? 'true' : 'false','}}'\n        ))));\n    }\n\n    /**\n     * Tells whether an address corresponds to a registered brand or not.\n     */\n    function brandExists(address _brandId) public view returns (bool) {\n        return brands[_brandId].owner != address(0);\n    }\n\n    // ********** Brand registration earnings management goes here **********\n\n    /**\n     * This event is triggered when brand earnings were withdrawn successfully.\n     */\n    event BrandEarningsWithdrawn(address indexed withdrawnBy, uint256 amount);\n\n    /**\n     * Allows the sender to withdraw brand registration earnings.\n     */\n    function withdrawBrandRegistrationEarnings(uint256 amount) public\n        onlyMetaverseAllowed(METAVERSE_WITHDRAW_BRAND_REGISTRATION_EARNINGS)\n    {\n        address sender = _msgSender();\n        require(\n            amount > 0,\n            \"BrandRegistry: earnings amount must not be 0\"\n        );\n        require(\n            brandRegistrationCurrentEarnings >= amount,\n            \"BrandRegistry: earnings amount is less than the requested amount\"\n        );\n        brandRegistrationCurrentEarnings -= amount;\n        payable(sender).transfer(amount);\n    }\n\n    /**\n     * A brand registry satisfies the IBrandRegistry and IERC165.\n     */\n    function supportsInterface(bytes4 interfaceId) public view virtual override returns (bool) {\n        return interfaceId == type(IERC165).interfaceId || interfaceId == type(IBrandRegistry).interfaceId;\n    }\n\n    // Brand permissions management start here.\n\n    /**\n     * Restricts an action to senders that are considered to have\n     * certain permission in the (non-zero) brand.\n     */\n    modifier onlyBrandAllowed(address _brandId, bytes32 _permission) {\n        require(\n            isBrandAllowed(_brandId, _permission, _msgSender()),\n            \"BrandRegistry: caller is not brand owner nor approved, and does not have the required permission\"\n        );\n        _;\n    }\n\n    /**\n     * Restricts an action to senders that are considered to have\n     * certain metaverse-scoped permissions.\n     */\n    modifier onlyMetaverseAllowed(bytes32 _permission) {\n        require(\n            IMetaverse(metaverse).isAllowed(_permission, _msgSender()),\n            \"BrandRegistry: caller is not metaverse owner, and does not have the required permission\"\n        );\n        _;\n    }\n\n    /**\n     * Tells whether a user has a specific permission on a specific brand\n     * or it is allowed by the brand's ownership.\n     */\n    function isBrandAllowed(address _brandId, bytes32 _permission, address _sender) public view returns (bool) {\n        address owner = brands[_brandId].owner;\n        address sender = _msgSender();\n        return owner != address(0) && (sender == owner || _isBrandOwnerApproved(owner, sender) ||\n                                       brandPermissions[_brandId][SUPERUSER][_sender] ||\n                                       brandPermissions[_brandId][_permission][_sender]);\n    }\n\n    /**\n     * This event is triggered when a brand permission is set or revoked\n     * for a given user in a given brand.\n     */\n    event BrandPermissionChanged(address indexed brandId, bytes32 indexed permission, address indexed user, bool set,\n                                 address sender);\n\n    /**\n     * Grants a permission to a user. This action is reserved to owners,\n     * approved operators, or allowed superusers. However, superuser cannot\n     * set, in particular, the SUPERUSER permission itself.\n     */\n    function brandSetPermission(address _brandId, bytes32 _permission, address _user, bool _allowed) public\n        onlyBrandAllowed(_brandId, SUPERUSER)\n    {\n        address owner = brands[_brandId].owner;\n        address sender = _msgSender();\n        require(_user != address(0), \"BrandRegistry: cannot grant a permission to address 0\");\n        require(\n            sender == owner || _isBrandOwnerApproved(owner, sender) || _permission != SUPERUSER,\n            \"BrandRegistry: SUPERUSER permission cannot be added by this user\"\n        );\n        brandPermissions[_brandId][_permission][_user] = _allowed;\n        emit BrandPermissionChanged(_brandId, _permission, _user, _allowed, sender);\n    }\n}\n",
  "sourcePath": "/home/luismasuelli/Projects/OuterMaze/lingr-contracts/contracts/lingr/brands/BrandRegistry.sol",
  "compiler": {
    "name": "solc",
    "version": "0.8.10+commit.fc410830.Emscripten.clang"
  },
  "schemaVersion": "3.4.3",
  "updatedAt": "2022-08-13T14:39:14.897Z",
  "devdoc": {
    "kind": "dev",
    "methods": {},
    "version": 1
  },
  "userdoc": {
    "events": {
      "BrandEarningsWithdrawn(address,uint256)": {
        "notice": "This event is triggered when brand earnings were withdrawn successfully."
      },
      "BrandPermissionChanged(address,bytes32,address,bool,address)": {
        "notice": "This event is triggered when a brand permission is set or revoked for a given user in a given brand."
      },
      "BrandRegistered(address,address,string,string,uint256)": {
        "notice": "This event is triggered when a brand is registered. The new address is also included, along some reference data."
      },
      "BrandRegistrationCostUpdated(uint256)": {
        "notice": "An event for when the brand registration cost is updated."
      },
      "BrandSocialCommitmentUpdated(address,address,bool)": {
        "notice": "This event is triggered when a brand is updated with respect to its social commitment (this is: to tell a brand is socially committed according to the metaverse's views or not). Special benefits (in particular, with respect to assets loading on customers) are given in clients to socially committed brands."
      },
      "BrandUpdated(address,address)": {
        "notice": "This event is triggered when a brand is registered. The new address is also included, along some reference data."
      }
    },
    "kind": "user",
    "methods": {
      "brandExists(address)": {
        "notice": "Tells whether an address corresponds to a registered brand or not."
      },
      "brandMetadataURI(address)": {
        "notice": "Assembles the whole metadata for a brand. WARNING: This method will consume a lot of gas if invoked inside a transaction, so it is recommended to invoke this method in the context of a CALL, and never in the context of a SEND (even as part of other contract's code)."
      },
      "brandRegistrationCost()": {
        "notice": "The cost to register a new brand. This can be changed in the future and must be able to be known in the ABI for the users to be aware of the statistic."
      },
      "brandRegistrationCurrentEarnings()": {
        "notice": "Tells the current earnings, not yet withdrawn, from brand registrations."
      },
      "brandSetPermission(address,bytes32,address,bool)": {
        "notice": "Grants a permission to a user. This action is reserved to owners, approved operators, or allowed superusers. However, superuser cannot set, in particular, the SUPERUSER permission itself."
      },
      "constructor": {
        "notice": "Creating a brand registry requires a valid metaverse registrar as its owner."
      },
      "isBrandAllowed(address,bytes32,address)": {
        "notice": "Tells whether a user has a specific permission on a specific brand or it is allowed by the brand's ownership."
      },
      "metaverse()": {
        "notice": "The metaverse that will own this brand registry."
      },
      "onBrandOwnerChanged(address,address)": {
        "notice": "Sets the owner of a brand. This method is meant to be called internally, when the actual brand transfer is done (brands can only be transferred, but never burnt)."
      },
      "registerBrand(string,string,string,string,string,string)": {
        "notice": "Registers a new brand, when the appropriate price is paid for it. For more details on how this method works, check _registerBrand's inline documentation."
      },
      "setBrandRegistrationCost(uint256)": {
        "notice": "Sets the new brand registration cost."
      },
      "supportsInterface(bytes4)": {
        "notice": "A brand registry satisfies the IBrandRegistry and IERC165."
      },
      "updateBrandChallengeUrl(address,string)": {
        "notice": "Updates the brand's challenge url. Only the owner of the brand or an approved account can invoke this method. Ensure the url is empty or a valid URL, or metadata might fail to be assembled into valid JSON."
      },
      "updateBrandIcon16x16Url(address,string)": {
        "notice": "Updates the brand's 16x16 icon url. Only the owner of the brand or an approved account can invoke this method. Ensure the _icon is empty or a valid URL, or metadata might fail to be assembled into valid JSON."
      },
      "updateBrandIcon32x32Url(address,string)": {
        "notice": "Updates the brand's 32x32 icon url. Only the owner of the brand or an approved account can invoke this method. Ensure the _icon is empty or a valid URL, or metadata might fail to be assembled into valid JSON."
      },
      "updateBrandIcon64x64Url(address,string)": {
        "notice": "Updates the brand's 64x64 icon url. Only the owner of the brand or an approved account can invoke this method. Ensure the _icon is empty or a valid URL, or metadata might fail to be assembled into valid JSON."
      },
      "updateBrandImage(address,string)": {
        "notice": "Updates the brand image. Only the owner of the brand or an approved account can invoke this method. Ensure the _image is empty or a valid URL, or metadata might fail to be assembled into valid JSON."
      },
      "updateBrandSocialCommitment(address,bool)": {
        "notice": "Updates whether a brand is socially committed or not."
      },
      "withdrawBrandRegistrationEarnings(uint256)": {
        "notice": "Allows the sender to withdraw brand registration earnings."
      }
    },
    "notice": "A Brand registry will keep track of the brands being registered. Those brands will hold the metadata, and this trait will hold the mean to register such brand with its metadata.",
    "version": 1
  }
}