{
  "contractName": "Economy",
  "abi": [
    {
      "inputs": [
        {
          "internalType": "address",
          "name": "_metaverse",
          "type": "address"
        }
      ],
      "stateMutability": "nonpayable",
      "type": "constructor"
    },
    {
      "anonymous": false,
      "inputs": [
        {
          "indexed": true,
          "internalType": "address",
          "name": "account",
          "type": "address"
        },
        {
          "indexed": true,
          "internalType": "address",
          "name": "operator",
          "type": "address"
        },
        {
          "indexed": false,
          "internalType": "bool",
          "name": "approved",
          "type": "bool"
        }
      ],
      "name": "ApprovalForAll",
      "type": "event"
    },
    {
      "anonymous": false,
      "inputs": [
        {
          "indexed": true,
          "internalType": "uint256",
          "name": "dealId",
          "type": "uint256"
        },
        {
          "indexed": true,
          "internalType": "address",
          "name": "emitter",
          "type": "address"
        },
        {
          "indexed": true,
          "internalType": "address",
          "name": "receiver",
          "type": "address"
        },
        {
          "indexed": false,
          "internalType": "uint256[]",
          "name": "receiverTokenIds",
          "type": "uint256[]"
        },
        {
          "indexed": false,
          "internalType": "uint256[]",
          "name": "receiverTokenAmounts",
          "type": "uint256[]"
        }
      ],
      "name": "DealAccepted",
      "type": "event"
    },
    {
      "anonymous": false,
      "inputs": [
        {
          "indexed": true,
          "internalType": "uint256",
          "name": "dealId",
          "type": "uint256"
        },
        {
          "indexed": true,
          "internalType": "address",
          "name": "breaker",
          "type": "address"
        }
      ],
      "name": "DealBroken",
      "type": "event"
    },
    {
      "anonymous": false,
      "inputs": [
        {
          "indexed": true,
          "internalType": "uint256",
          "name": "dealId",
          "type": "uint256"
        },
        {
          "indexed": true,
          "internalType": "address",
          "name": "emitter",
          "type": "address"
        },
        {
          "indexed": true,
          "internalType": "address",
          "name": "receiver",
          "type": "address"
        }
      ],
      "name": "DealConfirmed",
      "type": "event"
    },
    {
      "anonymous": false,
      "inputs": [
        {
          "indexed": true,
          "internalType": "uint256",
          "name": "dealId",
          "type": "uint256"
        },
        {
          "indexed": true,
          "internalType": "address",
          "name": "emitter",
          "type": "address"
        },
        {
          "indexed": true,
          "internalType": "address",
          "name": "receiver",
          "type": "address"
        },
        {
          "indexed": false,
          "internalType": "uint256[]",
          "name": "emitterTokenIds",
          "type": "uint256[]"
        },
        {
          "indexed": false,
          "internalType": "uint256[]",
          "name": "emitterTokenAmounts",
          "type": "uint256[]"
        }
      ],
      "name": "DealStarted",
      "type": "event"
    },
    {
      "anonymous": false,
      "inputs": [
        {
          "indexed": true,
          "internalType": "address",
          "name": "operator",
          "type": "address"
        },
        {
          "indexed": true,
          "internalType": "address",
          "name": "from",
          "type": "address"
        },
        {
          "indexed": true,
          "internalType": "address",
          "name": "to",
          "type": "address"
        },
        {
          "indexed": false,
          "internalType": "uint256[]",
          "name": "ids",
          "type": "uint256[]"
        },
        {
          "indexed": false,
          "internalType": "uint256[]",
          "name": "values",
          "type": "uint256[]"
        }
      ],
      "name": "TransferBatch",
      "type": "event"
    },
    {
      "anonymous": false,
      "inputs": [
        {
          "indexed": true,
          "internalType": "address",
          "name": "operator",
          "type": "address"
        },
        {
          "indexed": true,
          "internalType": "address",
          "name": "from",
          "type": "address"
        },
        {
          "indexed": true,
          "internalType": "address",
          "name": "to",
          "type": "address"
        },
        {
          "indexed": false,
          "internalType": "uint256",
          "name": "id",
          "type": "uint256"
        },
        {
          "indexed": false,
          "internalType": "uint256",
          "name": "value",
          "type": "uint256"
        }
      ],
      "name": "TransferSingle",
      "type": "event"
    },
    {
      "anonymous": false,
      "inputs": [
        {
          "indexed": false,
          "internalType": "string",
          "name": "value",
          "type": "string"
        },
        {
          "indexed": true,
          "internalType": "uint256",
          "name": "id",
          "type": "uint256"
        }
      ],
      "name": "URI",
      "type": "event"
    },
    {
      "inputs": [
        {
          "internalType": "address",
          "name": "account",
          "type": "address"
        },
        {
          "internalType": "uint256",
          "name": "id",
          "type": "uint256"
        }
      ],
      "name": "balanceOf",
      "outputs": [
        {
          "internalType": "uint256",
          "name": "",
          "type": "uint256"
        }
      ],
      "stateMutability": "view",
      "type": "function"
    },
    {
      "inputs": [
        {
          "internalType": "address[]",
          "name": "accounts",
          "type": "address[]"
        },
        {
          "internalType": "uint256[]",
          "name": "ids",
          "type": "uint256[]"
        }
      ],
      "name": "balanceOfBatch",
      "outputs": [
        {
          "internalType": "uint256[]",
          "name": "",
          "type": "uint256[]"
        }
      ],
      "stateMutability": "view",
      "type": "function"
    },
    {
      "inputs": [
        {
          "internalType": "uint256",
          "name": "_dealIndex",
          "type": "uint256"
        },
        {
          "internalType": "uint256[]",
          "name": "_tokenIds",
          "type": "uint256[]"
        },
        {
          "internalType": "uint256[]",
          "name": "_tokenAmounts",
          "type": "uint256[]"
        }
      ],
      "name": "dealAccept",
      "outputs": [],
      "stateMutability": "nonpayable",
      "type": "function"
    },
    {
      "inputs": [
        {
          "internalType": "uint256",
          "name": "_dealIndex",
          "type": "uint256"
        }
      ],
      "name": "dealBreak",
      "outputs": [],
      "stateMutability": "nonpayable",
      "type": "function"
    },
    {
      "inputs": [
        {
          "internalType": "uint256",
          "name": "_dealIndex",
          "type": "uint256"
        }
      ],
      "name": "dealConfirm",
      "outputs": [],
      "stateMutability": "nonpayable",
      "type": "function"
    },
    {
      "inputs": [
        {
          "internalType": "address",
          "name": "_emitter",
          "type": "address"
        },
        {
          "internalType": "address",
          "name": "_receiver",
          "type": "address"
        },
        {
          "internalType": "uint256[]",
          "name": "_tokenIds",
          "type": "uint256[]"
        },
        {
          "internalType": "uint256[]",
          "name": "_tokenAmounts",
          "type": "uint256[]"
        }
      ],
      "name": "dealStart",
      "outputs": [],
      "stateMutability": "nonpayable",
      "type": "function"
    },
    {
      "inputs": [
        {
          "internalType": "uint256",
          "name": "",
          "type": "uint256"
        }
      ],
      "name": "deals",
      "outputs": [
        {
          "internalType": "address",
          "name": "emitter",
          "type": "address"
        },
        {
          "internalType": "address",
          "name": "receiver",
          "type": "address"
        },
        {
          "internalType": "enum SafeExchange.DealState",
          "name": "state",
          "type": "uint8"
        }
      ],
      "stateMutability": "view",
      "type": "function"
    },
    {
      "inputs": [
        {
          "internalType": "address",
          "name": "account",
          "type": "address"
        },
        {
          "internalType": "address",
          "name": "operator",
          "type": "address"
        }
      ],
      "name": "isApprovedForAll",
      "outputs": [
        {
          "internalType": "bool",
          "name": "",
          "type": "bool"
        }
      ],
      "stateMutability": "view",
      "type": "function"
    },
    {
      "inputs": [],
      "name": "metaverse",
      "outputs": [
        {
          "internalType": "address",
          "name": "",
          "type": "address"
        }
      ],
      "stateMutability": "view",
      "type": "function"
    },
    {
      "inputs": [
        {
          "internalType": "address",
          "name": "from",
          "type": "address"
        },
        {
          "internalType": "address",
          "name": "to",
          "type": "address"
        },
        {
          "internalType": "uint256[]",
          "name": "ids",
          "type": "uint256[]"
        },
        {
          "internalType": "uint256[]",
          "name": "amounts",
          "type": "uint256[]"
        },
        {
          "internalType": "bytes",
          "name": "data",
          "type": "bytes"
        }
      ],
      "name": "safeBatchTransferFrom",
      "outputs": [],
      "stateMutability": "nonpayable",
      "type": "function"
    },
    {
      "inputs": [
        {
          "internalType": "address",
          "name": "from",
          "type": "address"
        },
        {
          "internalType": "address",
          "name": "to",
          "type": "address"
        },
        {
          "internalType": "uint256",
          "name": "id",
          "type": "uint256"
        },
        {
          "internalType": "uint256",
          "name": "amount",
          "type": "uint256"
        },
        {
          "internalType": "bytes",
          "name": "data",
          "type": "bytes"
        }
      ],
      "name": "safeTransferFrom",
      "outputs": [],
      "stateMutability": "nonpayable",
      "type": "function"
    },
    {
      "inputs": [
        {
          "internalType": "address",
          "name": "operator",
          "type": "address"
        },
        {
          "internalType": "bool",
          "name": "approved",
          "type": "bool"
        }
      ],
      "name": "setApprovalForAll",
      "outputs": [],
      "stateMutability": "nonpayable",
      "type": "function"
    },
    {
      "inputs": [
        {
          "internalType": "bytes4",
          "name": "interfaceId",
          "type": "bytes4"
        }
      ],
      "name": "supportsInterface",
      "outputs": [
        {
          "internalType": "bool",
          "name": "",
          "type": "bool"
        }
      ],
      "stateMutability": "view",
      "type": "function"
    },
    {
      "inputs": [
        {
          "internalType": "uint256",
          "name": "_tokenId",
          "type": "uint256"
        }
      ],
      "name": "uri",
      "outputs": [
        {
          "internalType": "string",
          "name": "",
          "type": "string"
        }
      ],
      "stateMutability": "view",
      "type": "function"
    },
    {
      "inputs": [
        {
          "internalType": "address",
          "name": "_to",
          "type": "address"
        },
        {
          "internalType": "uint256",
          "name": "_tokenId",
          "type": "uint256"
        },
        {
          "internalType": "uint256",
          "name": "_amount",
          "type": "uint256"
        },
        {
          "internalType": "bytes",
          "name": "_data",
          "type": "bytes"
        }
      ],
      "name": "mintFor",
      "outputs": [],
      "stateMutability": "nonpayable",
      "type": "function"
    }
  ],
  "bytecode": "0x608060405260006003553480156200001657600080fd5b50604051620053cf380380620053cf83398181016040528101906200003c9190620004ab565b604051806020016040528060008152506200005d81620001ab60201b60201c565b50600073ffffffffffffffffffffffffffffffffffffffff168173ffffffffffffffffffffffffffffffffffffffff161415620000d1576040517f08c379a0000000000000000000000000000000000000000000000000000000008152600401620000c89062000564565b60405180910390fd5b620001217ff71d653a000000000000000000000000000000000000000000000000000000008273ffffffffffffffffffffffffffffffffffffffff16620001c760201b62001a751790919060201c565b62000163576040517f08c379a00000000000000000000000000000000000000000000000000000000081526004016200015a90620005fc565b60405180910390fd5b80600560006101000a81548173ffffffffffffffffffffffffffffffffffffffff021916908373ffffffffffffffffffffffffffffffffffffffff16021790555050620007e8565b8060029080519060200190620001c392919062000391565b5050565b6000620001da83620001fd60201b60201c565b8015620001f55750620001f483836200025b60201b60201c565b5b905092915050565b600062000231827f01ffc9a7000000000000000000000000000000000000000000000000000000006200025b60201b60201c565b8015620002545750620002528263ffffffff60e01b6200025b60201b60201c565b155b9050919050565b6000806301ffc9a760e01b836040516024016200027991906200065b565b604051602081830303815290604052907bffffffffffffffffffffffffffffffffffffffffffffffffffffffff19166020820180517bffffffffffffffffffffffffffffffffffffffffffffffffffffffff838183161783525050505090506000808573ffffffffffffffffffffffffffffffffffffffff1661753084604051620003059190620006fb565b6000604051808303818686fa925050503d806000811462000343576040519150601f19603f3d011682016040523d82523d6000602084013e62000348565b606091505b50915091506020815110156200036557600093505050506200038b565b8180156200038557508080602001905181019062000384919062000751565b5b93505050505b92915050565b8280546200039f90620007b2565b90600052602060002090601f016020900481019282620003c357600085556200040f565b82601f10620003de57805160ff19168380011785556200040f565b828001600101855582156200040f579182015b828111156200040e578251825591602001919060010190620003f1565b5b5090506200041e919062000422565b5090565b5b808211156200043d57600081600090555060010162000423565b5090565b600080fd5b600073ffffffffffffffffffffffffffffffffffffffff82169050919050565b6000620004738262000446565b9050919050565b620004858162000466565b81146200049157600080fd5b50565b600081519050620004a5816200047a565b92915050565b600060208284031215620004c457620004c362000441565b5b6000620004d48482850162000494565b91505092915050565b600082825260208201905092915050565b7f45636f6e6f6d793a20746865206f776e657220636f6e7472616374206d75737460008201527f206e6f7420626520300000000000000000000000000000000000000000000000602082015250565b60006200054c602983620004dd565b91506200055982620004ee565b604082019050919050565b600060208201905081810360008301526200057f816200053d565b9050919050565b7f45636f6e6f6d793a20746865206f776e657220636f6e7472616374206d75737460008201527f20696d706c656d656e7420494d65746176657273650000000000000000000000602082015250565b6000620005e4603583620004dd565b9150620005f18262000586565b604082019050919050565b600060208201905081810360008301526200061781620005d5565b9050919050565b60007fffffffff0000000000000000000000000000000000000000000000000000000082169050919050565b62000655816200061e565b82525050565b60006020820190506200067260008301846200064a565b92915050565b600081519050919050565b600081905092915050565b60005b83811015620006ae57808201518184015260208101905062000691565b83811115620006be576000848401525b50505050565b6000620006d18262000678565b620006dd818562000683565b9350620006ef8185602086016200068e565b80840191505092915050565b6000620007098284620006c4565b915081905092915050565b60008115159050919050565b6200072b8162000714565b81146200073757600080fd5b50565b6000815190506200074b8162000720565b92915050565b6000602082840312156200076a576200076962000441565b5b60006200077a848285016200073a565b91505092915050565b7f4e487b7100000000000000000000000000000000000000000000000000000000600052602260045260246000fd5b60006002820490506001821680620007cb57607f821691505b60208210811415620007e257620007e162000783565b5b50919050565b614bd780620007f86000396000f3fe608060405234801561001057600080fd5b50600436106100f45760003560e01c80636344bb1311610097578063e067bd6f11610066578063e067bd6f14610293578063e985e9c5146102af578063f200670d146102df578063f242432a146102fd576100f4565b80636344bb1314610223578063a22cb4651461023f578063c3e500271461025b578063d22d235914610277576100f4565b80630e89341c116100d35780630e89341c1461018b5780632eb2c2d6146101bb5780634e1273f4146101d75780635b0034fd14610207576100f4565b8062fdd58e146100f957806301ffc9a71461012957806303988f8414610159575b600080fd5b610113600480360381019061010e9190612e61565b610319565b6040516101209190612eb0565b60405180910390f35b610143600480360381019061013e9190612f23565b6103e2565b6040516101509190612f6b565b60405180910390f35b610173600480360381019061016e9190612f86565b61051c565b60405161018293929190613039565b60405180910390f35b6101a560048036038101906101a09190612f86565b610593565b6040516101b29190613109565b60405180910390f35b6101d560048036038101906101d09190613328565b61063d565b005b6101f160048036038101906101ec91906134ba565b6106de565b6040516101fe91906135f0565b60405180910390f35b610221600480360381019061021c9190613612565b6107f7565b005b61023d60048036038101906102389190612f86565b610899565b005b610259600480360381019061025491906136c1565b610b47565b005b61027560048036038101906102709190612f86565b610b5d565b005b610291600480360381019061028c9190613701565b611069565b005b6102ad60048036038101906102a8919061378c565b611411565b005b6102c960048036038101906102c4919061382b565b61191a565b6040516102d69190612f6b565b60405180910390f35b6102e76119ae565b6040516102f4919061386b565b60405180910390f35b61031760048036038101906103129190613886565b6119d4565b005b60008073ffffffffffffffffffffffffffffffffffffffff168373ffffffffffffffffffffffffffffffffffffffff16141561038a576040517f08c379a00000000000000000000000000000000000000000000000000000000081526004016103819061398f565b60405180910390fd5b60008083815260200190815260200160002060008473ffffffffffffffffffffffffffffffffffffffff1673ffffffffffffffffffffffffffffffffffffffff16815260200190815260200160002054905092915050565b60007f01ffc9a7000000000000000000000000000000000000000000000000000000007bffffffffffffffffffffffffffffffffffffffffffffffffffffffff1916827bffffffffffffffffffffffffffffffffffffffffffffffffffffffff191614806104ad57507fa90053f0000000000000000000000000000000000000000000000000000000007bffffffffffffffffffffffffffffffffffffffffffffffffffffffff1916827bffffffffffffffffffffffffffffffffffffffffffffffffffffffff1916145b8061051557507fd9b67a26000000000000000000000000000000000000000000000000000000007bffffffffffffffffffffffffffffffffffffffffffffffffffffffff1916827bffffffffffffffffffffffffffffffffffffffffffffffffffffffff1916145b9050919050565b60046020528060005260406000206000915090508060000160009054906101000a900473ffffffffffffffffffffffffffffffffffffffff16908060010160009054906101000a900473ffffffffffffffffffffffffffffffffffffffff16908060060160009054906101000a900460ff16905083565b6060600560009054906101000a900473ffffffffffffffffffffffffffffffffffffffff1673ffffffffffffffffffffffffffffffffffffffff1663c87b56dd836040518263ffffffff1660e01b81526004016105f09190612eb0565b600060405180830381865afa15801561060d573d6000803e3d6000fd5b505050506040513d6000823e3d601f19601f820116820180604052508101906106369190613a50565b9050919050565b610645611a9a565b73ffffffffffffffffffffffffffffffffffffffff168573ffffffffffffffffffffffffffffffffffffffff16148061068b575061068a85610685611a9a565b61191a565b5b6106ca576040517f08c379a00000000000000000000000000000000000000000000000000000000081526004016106c190613b0b565b60405180910390fd5b6106d78585858585611aa2565b5050505050565b60608151835114610724576040517f08c379a000000000000000000000000000000000000000000000000000000000815260040161071b90613b9d565b60405180910390fd5b6000835167ffffffffffffffff81111561074157610740613130565b5b60405190808252806020026020018201604052801561076f5781602001602082028036833780820191505090505b50905060005b84518110156107ec576107bc85828151811061079457610793613bbd565b5b60200260200101518583815181106107af576107ae613bbd565b5b6020026020010151610319565b8282815181106107cf576107ce613bbd565b5b602002602001018181525050806107e590613c1b565b9050610775565b508091505092915050565b600560009054906101000a900473ffffffffffffffffffffffffffffffffffffffff1673ffffffffffffffffffffffffffffffffffffffff163373ffffffffffffffffffffffffffffffffffffffff1614610887576040517f08c379a000000000000000000000000000000000000000000000000000000000815260040161087e90613cd6565b60405180910390fd5b61089384848484611dc4565b50505050565b600060046000838152602001908152602001600020905060008160000160009054906101000a900473ffffffffffffffffffffffffffffffffffffffff16905060008260010160009054906101000a900473ffffffffffffffffffffffffffffffffffffffff169050600061090c611a9a565b9050600073ffffffffffffffffffffffffffffffffffffffff168373ffffffffffffffffffffffffffffffffffffffff16141561097e576040517f08c379a000000000000000000000000000000000000000000000000000000000815260040161097590613d42565b60405180910390fd5b8073ffffffffffffffffffffffffffffffffffffffff168373ffffffffffffffffffffffffffffffffffffffff1614806109be57506109bd8382611f75565b5b806109f457508073ffffffffffffffffffffffffffffffffffffffff168273ffffffffffffffffffffffffffffffffffffffff16145b80610a055750610a048282611f75565b5b610a44576040517f08c379a0000000000000000000000000000000000000000000000000000000008152600401610a3b90613dd4565b60405180910390fd5b8073ffffffffffffffffffffffffffffffffffffffff16857f90af83379d8595c89e65f7a24d8e34d82ba665bd027f7e7c61529730189bc57160405160405180910390a360046000868152602001908152602001600020600080820160006101000a81549073ffffffffffffffffffffffffffffffffffffffff02191690556001820160006101000a81549073ffffffffffffffffffffffffffffffffffffffff0219169055600282016000610afa9190612d2e565b600382016000610b0a9190612d2e565b600482016000610b1a9190612d2e565b600582016000610b2a9190612d2e565b6006820160006101000a81549060ff021916905550505050505050565b610b59610b52611a9a565b8383611f89565b5050565b600060046000838152602001908152602001600020905060008160000160009054906101000a900473ffffffffffffffffffffffffffffffffffffffff169050600073ffffffffffffffffffffffffffffffffffffffff168173ffffffffffffffffffffffffffffffffffffffff161415610c0d576040517f08c379a0000000000000000000000000000000000000000000000000000000008152600401610c0490613d42565b60405180910390fd5b610c15611a9a565b73ffffffffffffffffffffffffffffffffffffffff168173ffffffffffffffffffffffffffffffffffffffff161480610c5b5750610c5a81610c55611a9a565b611f75565b5b610c9a576040517f08c379a0000000000000000000000000000000000000000000000000000000008152600401610c9190613e66565b60405180910390fd5b60008260060160009054906101000a900460ff169050600180811115610cc357610cc2612fc2565b5b816001811115610cd657610cd5612fc2565b5b14610d16576040517f08c379a0000000000000000000000000000000000000000000000000000000008152600401610d0d90613ef8565b60405180910390fd5b610e0f848460000160009054906101000a900473ffffffffffffffffffffffffffffffffffffffff168560010160009054906101000a900473ffffffffffffffffffffffffffffffffffffffff1686600201805480602002602001604051908101604052809291908181526020018280548015610db257602002820191906000526020600020905b815481526020019060010190808311610d9e575b505050505087600301805480602002602001604051908101604052809291908181526020018280548015610e0557602002820191906000526020600020905b815481526020019060010190808311610df1575b50505050506120f6565b610f08848460010160009054906101000a900473ffffffffffffffffffffffffffffffffffffffff168560000160009054906101000a900473ffffffffffffffffffffffffffffffffffffffff1686600401805480602002602001604051908101604052809291908181526020018280548015610eab57602002820191906000526020600020905b815481526020019060010190808311610e97575b505050505087600501805480602002602001604051908101604052809291908181526020018280548015610efe57602002820191906000526020600020905b815481526020019060010190808311610eea575b50505050506120f6565b8260010160009054906101000a900473ffffffffffffffffffffffffffffffffffffffff1673ffffffffffffffffffffffffffffffffffffffff168360000160009054906101000a900473ffffffffffffffffffffffffffffffffffffffff1673ffffffffffffffffffffffffffffffffffffffff16857fa5fbbfff4decd4f44ed03e28267dd014277bccd985cc2153acfa058f41ae8c0760405160405180910390a460046000858152602001908152602001600020600080820160006101000a81549073ffffffffffffffffffffffffffffffffffffffff02191690556001820160006101000a81549073ffffffffffffffffffffffffffffffffffffffff021916905560028201600061101d9190612d2e565b60038201600061102d9190612d2e565b60048201600061103d9190612d2e565b60058201600061104d9190612d2e565b6006820160006101000a81549060ff0219169055505050505050565b600060046000858152602001908152602001600020905060008160010160009054906101000a900473ffffffffffffffffffffffffffffffffffffffff169050600073ffffffffffffffffffffffffffffffffffffffff168173ffffffffffffffffffffffffffffffffffffffff161415611119576040517f08c379a000000000000000000000000000000000000000000000000000000000815260040161111090613d42565b60405180910390fd5b611121611a9a565b73ffffffffffffffffffffffffffffffffffffffff168173ffffffffffffffffffffffffffffffffffffffff161480611167575061116681611161611a9a565b611f75565b5b6111a6576040517f08c379a000000000000000000000000000000000000000000000000000000000815260040161119d90613f8a565b60405180910390fd5b825184511480156111b957506000845114155b6111f8576040517f08c379a00000000000000000000000000000000000000000000000000000000081526004016111ef9061401c565b60405180910390fd5b60008260060160009054906101000a900460ff1690506000600181111561122257611221612fc2565b5b81600181111561123557611234612fc2565b5b14611275576040517f08c379a000000000000000000000000000000000000000000000000000000000815260040161126c906140ae565b60405180910390fd5b60005b845181101561131d57600085828151811061129657611295613bbd565b5b602002602001015114156112a982612131565b6040516020016112b991906141a2565b60405160208183030381529060405290611309576040517f08c379a00000000000000000000000000000000000000000000000000000000081526004016113009190613109565b60405180910390fd5b50808061131590613c1b565b915050611278565b5060018360060160006101000a81548160ff0219169083600181111561134657611345612fc2565b5b021790555084836004019080519060200190611363929190612d4f565b508383600501908051906020019061137c929190612d4f565b508173ffffffffffffffffffffffffffffffffffffffff168360000160009054906101000a900473ffffffffffffffffffffffffffffffffffffffff1673ffffffffffffffffffffffffffffffffffffffff16877fda900e880533ef699d6aa6d2f335aebbaa3ee39bd882b9e04dd9ec026fedf7b888886040516114019291906141cf565b60405180910390a4505050505050565b600073ffffffffffffffffffffffffffffffffffffffff168473ffffffffffffffffffffffffffffffffffffffff161415801561147b5750600073ffffffffffffffffffffffffffffffffffffffff168373ffffffffffffffffffffffffffffffffffffffff1614155b6114ba576040517f08c379a00000000000000000000000000000000000000000000000000000000081526004016114b190614278565b60405180910390fd5b6114c2611a9a565b73ffffffffffffffffffffffffffffffffffffffff168473ffffffffffffffffffffffffffffffffffffffff161480611508575061150784611502611a9a565b611f75565b5b611547576040517f08c379a000000000000000000000000000000000000000000000000000000000815260040161153e90613e66565b60405180910390fd5b8051825114801561155a57506000825114155b611599576040517f08c379a00000000000000000000000000000000000000000000000000000000081526004016115909061401c565b60405180910390fd5b60005b81518110156116415760008282815181106115ba576115b9613bbd565b5b602002602001015114156115cd82612131565b6040516020016115dd91906141a2565b6040516020818303038152906040529061162d576040517f08c379a00000000000000000000000000000000000000000000000000000000081526004016116249190613109565b60405180910390fd5b50808061163990613c1b565b91505061159c565b506001600360008282546116559190614298565b925050819055506040518060e001604052808573ffffffffffffffffffffffffffffffffffffffff1681526020018473ffffffffffffffffffffffffffffffffffffffff168152602001838152602001828152602001600067ffffffffffffffff8111156116c6576116c5613130565b5b6040519080825280602002602001820160405280156116f45781602001602082028036833780820191505090505b508152602001600067ffffffffffffffff81111561171557611714613130565b5b6040519080825280602002602001820160405280156117435781602001602082028036833780820191505090505b5081526020016000600181111561175d5761175c612fc2565b5b81525060046000600354815260200190815260200160002060008201518160000160006101000a81548173ffffffffffffffffffffffffffffffffffffffff021916908373ffffffffffffffffffffffffffffffffffffffff16021790555060208201518160010160006101000a81548173ffffffffffffffffffffffffffffffffffffffff021916908373ffffffffffffffffffffffffffffffffffffffff160217905550604082015181600201908051906020019061181f929190612d4f565b50606082015181600301908051906020019061183c929190612d4f565b506080820151816004019080519060200190611859929190612d4f565b5060a0820151816005019080519060200190611876929190612d4f565b5060c08201518160060160006101000a81548160ff021916908360018111156118a2576118a1612fc2565b5b02179055509050508273ffffffffffffffffffffffffffffffffffffffff168473ffffffffffffffffffffffffffffffffffffffff166003547f1c882919e2ba75ab4120979204c8cc6957374c1aa5845cd98feacacc9bdb4f0c858560405161190c9291906141cf565b60405180910390a450505050565b6000600160008473ffffffffffffffffffffffffffffffffffffffff1673ffffffffffffffffffffffffffffffffffffffff16815260200190815260200160002060008373ffffffffffffffffffffffffffffffffffffffff1673ffffffffffffffffffffffffffffffffffffffff16815260200190815260200160002060009054906101000a900460ff16905092915050565b600560009054906101000a900473ffffffffffffffffffffffffffffffffffffffff1681565b6119dc611a9a565b73ffffffffffffffffffffffffffffffffffffffff168573ffffffffffffffffffffffffffffffffffffffff161480611a225750611a2185611a1c611a9a565b61191a565b5b611a61576040517f08c379a0000000000000000000000000000000000000000000000000000000008152600401611a5890613b0b565b60405180910390fd5b611a6e8585858585612292565b5050505050565b6000611a808361252e565b8015611a925750611a91838361257b565b5b905092915050565b600033905090565b8151835114611ae6576040517f08c379a0000000000000000000000000000000000000000000000000000000008152600401611add90614360565b60405180910390fd5b600073ffffffffffffffffffffffffffffffffffffffff168473ffffffffffffffffffffffffffffffffffffffff161415611b56576040517f08c379a0000000000000000000000000000000000000000000000000000000008152600401611b4d906143f2565b60405180910390fd5b6000611b60611a9a565b9050611b708187878787876126a6565b60005b8451811015611d21576000858281518110611b9157611b90613bbd565b5b602002602001015190506000858381518110611bb057611baf613bbd565b5b60200260200101519050600080600084815260200190815260200160002060008b73ffffffffffffffffffffffffffffffffffffffff1673ffffffffffffffffffffffffffffffffffffffff16815260200190815260200160002054905081811015611c51576040517f08c379a0000000000000000000000000000000000000000000000000000000008152600401611c4890614484565b60405180910390fd5b81810360008085815260200190815260200160002060008c73ffffffffffffffffffffffffffffffffffffffff1673ffffffffffffffffffffffffffffffffffffffff168152602001908152602001600020819055508160008085815260200190815260200160002060008b73ffffffffffffffffffffffffffffffffffffffff1673ffffffffffffffffffffffffffffffffffffffff1681526020019081526020016000206000828254611d069190614298565b9250508190555050505080611d1a90613c1b565b9050611b73565b508473ffffffffffffffffffffffffffffffffffffffff168673ffffffffffffffffffffffffffffffffffffffff168273ffffffffffffffffffffffffffffffffffffffff167f4a39dc06d4c0dbc64b70af90fd698a233a518aa5d07e595d983b8c0526c8f7fb8787604051611d989291906141cf565b60405180910390a4611dae8187878787876126ae565b611dbc8187878787876128e1565b505050505050565b600073ffffffffffffffffffffffffffffffffffffffff168473ffffffffffffffffffffffffffffffffffffffff161415611e34576040517f08c379a0000000000000000000000000000000000000000000000000000000008152600401611e2b90614516565b60405180910390fd5b6000611e3e611a9a565b90506000611e4b85612ab9565b90506000611e5885612ab9565b9050611e69836000898585896126a6565b8460008088815260200190815260200160002060008973ffffffffffffffffffffffffffffffffffffffff1673ffffffffffffffffffffffffffffffffffffffff1681526020019081526020016000206000828254611ec89190614298565b925050819055508673ffffffffffffffffffffffffffffffffffffffff16600073ffffffffffffffffffffffffffffffffffffffff168473ffffffffffffffffffffffffffffffffffffffff167fc3d58168c5ae7397731d063d5bbf3d657854427343f4c083240f7aacaa2d0f628989604051611f46929190614536565b60405180910390a4611f5d836000898585896126ae565b611f6c83600089898989612b33565b50505050505050565b6000611f81838361191a565b905092915050565b8173ffffffffffffffffffffffffffffffffffffffff168373ffffffffffffffffffffffffffffffffffffffff161415611ff8576040517f08c379a0000000000000000000000000000000000000000000000000000000008152600401611fef906145d1565b60405180910390fd5b80600160008573ffffffffffffffffffffffffffffffffffffffff1673ffffffffffffffffffffffffffffffffffffffff16815260200190815260200160002060008473ffffffffffffffffffffffffffffffffffffffff1673ffffffffffffffffffffffffffffffffffffffff16815260200190815260200160002060006101000a81548160ff0219169083151502179055508173ffffffffffffffffffffffffffffffffffffffff168373ffffffffffffffffffffffffffffffffffffffff167f17307eab39ab6107e8899845ad3d59bd9653f200f220920489ca2b5937696c31836040516120e99190612f6b565b60405180910390a3505050565b61212a848484846121068a612131565b604051602001612116919061463d565b604051602081830303815290604052611aa2565b5050505050565b60606000821415612179576040518060400160405280600181526020017f3000000000000000000000000000000000000000000000000000000000000000815250905061228d565b600082905060005b600082146121ab57808061219490613c1b565b915050600a826121a4919061468e565b9150612181565b60008167ffffffffffffffff8111156121c7576121c6613130565b5b6040519080825280601f01601f1916602001820160405280156121f95781602001600182028036833780820191505090505b5090505b600085146122865760018261221291906146bf565b9150600a8561222191906146f3565b603061222d9190614298565b60f81b81838151811061224357612242613bbd565b5b60200101907effffffffffffffffffffffffffffffffffffffffffffffffffffffffffffff1916908160001a905350600a8561227f919061468e565b94506121fd565b8093505050505b919050565b600073ffffffffffffffffffffffffffffffffffffffff168473ffffffffffffffffffffffffffffffffffffffff161415612302576040517f08c379a00000000000000000000000000000000000000000000000000000000081526004016122f9906143f2565b60405180910390fd5b600061230c611a9a565b9050600061231985612ab9565b9050600061232685612ab9565b90506123368389898585896126a6565b600080600088815260200190815260200160002060008a73ffffffffffffffffffffffffffffffffffffffff1673ffffffffffffffffffffffffffffffffffffffff168152602001908152602001600020549050858110156123cd576040517f08c379a00000000000000000000000000000000000000000000000000000000081526004016123c490614484565b60405180910390fd5b85810360008089815260200190815260200160002060008b73ffffffffffffffffffffffffffffffffffffffff1673ffffffffffffffffffffffffffffffffffffffff168152602001908152602001600020819055508560008089815260200190815260200160002060008a73ffffffffffffffffffffffffffffffffffffffff1673ffffffffffffffffffffffffffffffffffffffff16815260200190815260200160002060008282546124829190614298565b925050819055508773ffffffffffffffffffffffffffffffffffffffff168973ffffffffffffffffffffffffffffffffffffffff168573ffffffffffffffffffffffffffffffffffffffff167fc3d58168c5ae7397731d063d5bbf3d657854427343f4c083240f7aacaa2d0f628a8a6040516124ff929190614536565b60405180910390a4612515848a8a86868a6126ae565b612523848a8a8a8a8a612b33565b505050505050505050565b600061255a827f01ffc9a70000000000000000000000000000000000000000000000000000000061257b565b801561257457506125728263ffffffff60e01b61257b565b155b9050919050565b6000806301ffc9a760e01b836040516024016125979190614733565b604051602081830303815290604052907bffffffffffffffffffffffffffffffffffffffffffffffffffffffff19166020820180517bffffffffffffffffffffffffffffffffffffffffffffffffffffffff838183161783525050505090506000808573ffffffffffffffffffffffffffffffffffffffff16617530846040516126219190614795565b6000604051808303818686fa925050503d806000811461265d576040519150601f19603f3d011682016040523d82523d6000602084013e612662565b606091505b509150915060208151101561267d57600093505050506126a0565b81801561269a57508080602001905181019061269991906147c1565b5b93505050505b92915050565b505050505050565b600073ffffffffffffffffffffffffffffffffffffffff168573ffffffffffffffffffffffffffffffffffffffff16146128d957600073ffffffffffffffffffffffffffffffffffffffff168473ffffffffffffffffffffffffffffffffffffffff1614156127af57600560009054906101000a900473ffffffffffffffffffffffffffffffffffffffff1673ffffffffffffffffffffffffffffffffffffffff16636b42d613878786866040518563ffffffff1660e01b815260040161277894939291906147ee565b600060405180830381600087803b15801561279257600080fd5b505af11580156127a6573d6000803e3d6000fd5b505050506128d8565b60005b82518110156128d657740100000000000000000000000000000000000000008482815181106127e4576127e3613bbd565b5b60200260200101511080156128145750600083828151811061280957612808613bbd565b5b602002602001015114155b156128c357600560009054906101000a900473ffffffffffffffffffffffffffffffffffffffff1673ffffffffffffffffffffffffffffffffffffffff16638cd6e9a985838151811061286a57612869613bbd565b5b6020026020010151876040518363ffffffff1660e01b8152600401612890929190614841565b600060405180830381600087803b1580156128aa57600080fd5b505af11580156128be573d6000803e3d6000fd5b505050505b80806128ce90613c1b565b9150506127b2565b505b5b505050505050565b6129008473ffffffffffffffffffffffffffffffffffffffff16612d0b565b15612ab1578373ffffffffffffffffffffffffffffffffffffffff1663bc197c8187878686866040518663ffffffff1660e01b81526004016129469594939291906148b4565b6020604051808303816000875af192505050801561298257506040513d601f19601f8201168201806040525081019061297f9190614931565b60015b612a285761298e61496b565b806308c379a014156129eb57506129a361498d565b806129ae57506129ed565b806040517f08c379a00000000000000000000000000000000000000000000000000000000081526004016129e29190613109565b60405180910390fd5b505b6040517f08c379a0000000000000000000000000000000000000000000000000000000008152600401612a1f90614a95565b60405180910390fd5b63bc197c8160e01b7bffffffffffffffffffffffffffffffffffffffffffffffffffffffff1916817bffffffffffffffffffffffffffffffffffffffffffffffffffffffff191614612aaf576040517f08c379a0000000000000000000000000000000000000000000000000000000008152600401612aa690614b27565b60405180910390fd5b505b505050505050565b60606000600167ffffffffffffffff811115612ad857612ad7613130565b5b604051908082528060200260200182016040528015612b065781602001602082028036833780820191505090505b5090508281600081518110612b1e57612b1d613bbd565b5b60200260200101818152505080915050919050565b612b528473ffffffffffffffffffffffffffffffffffffffff16612d0b565b15612d03578373ffffffffffffffffffffffffffffffffffffffff1663f23a6e6187878686866040518663ffffffff1660e01b8152600401612b98959493929190614b47565b6020604051808303816000875af1925050508015612bd457506040513d601f19601f82011682018060405250810190612bd19190614931565b60015b612c7a57612be061496b565b806308c379a01415612c3d5750612bf561498d565b80612c005750612c3f565b806040517f08c379a0000000000000000000000000000000000000000000000000000000008152600401612c349190613109565b60405180910390fd5b505b6040517f08c379a0000000000000000000000000000000000000000000000000000000008152600401612c7190614a95565b60405180910390fd5b63f23a6e6160e01b7bffffffffffffffffffffffffffffffffffffffffffffffffffffffff1916817bffffffffffffffffffffffffffffffffffffffffffffffffffffffff191614612d01576040517f08c379a0000000000000000000000000000000000000000000000000000000008152600401612cf890614b27565b60405180910390fd5b505b505050505050565b6000808273ffffffffffffffffffffffffffffffffffffffff163b119050919050565b5080546000825590600052602060002090810190612d4c9190612d9c565b50565b828054828255906000526020600020908101928215612d8b579160200282015b82811115612d8a578251825591602001919060010190612d6f565b5b509050612d989190612d9c565b5090565b5b80821115612db5576000816000905550600101612d9d565b5090565b6000604051905090565b600080fd5b600080fd5b600073ffffffffffffffffffffffffffffffffffffffff82169050919050565b6000612df882612dcd565b9050919050565b612e0881612ded565b8114612e1357600080fd5b50565b600081359050612e2581612dff565b92915050565b6000819050919050565b612e3e81612e2b565b8114612e4957600080fd5b50565b600081359050612e5b81612e35565b92915050565b60008060408385031215612e7857612e77612dc3565b5b6000612e8685828601612e16565b9250506020612e9785828601612e4c565b9150509250929050565b612eaa81612e2b565b82525050565b6000602082019050612ec56000830184612ea1565b92915050565b60007fffffffff0000000000000000000000000000000000000000000000000000000082169050919050565b612f0081612ecb565b8114612f0b57600080fd5b50565b600081359050612f1d81612ef7565b92915050565b600060208284031215612f3957612f38612dc3565b5b6000612f4784828501612f0e565b91505092915050565b60008115159050919050565b612f6581612f50565b82525050565b6000602082019050612f806000830184612f5c565b92915050565b600060208284031215612f9c57612f9b612dc3565b5b6000612faa84828501612e4c565b91505092915050565b612fbc81612ded565b82525050565b7f4e487b7100000000000000000000000000000000000000000000000000000000600052602160045260246000fd5b6002811061300257613001612fc2565b5b50565b600081905061301382612ff1565b919050565b600061302382613005565b9050919050565b61303381613018565b82525050565b600060608201905061304e6000830186612fb3565b61305b6020830185612fb3565b613068604083018461302a565b949350505050565b600081519050919050565b600082825260208201905092915050565b60005b838110156130aa57808201518184015260208101905061308f565b838111156130b9576000848401525b50505050565b6000601f19601f8301169050919050565b60006130db82613070565b6130e5818561307b565b93506130f581856020860161308c565b6130fe816130bf565b840191505092915050565b6000602082019050818103600083015261312381846130d0565b905092915050565b600080fd5b7f4e487b7100000000000000000000000000000000000000000000000000000000600052604160045260246000fd5b613168826130bf565b810181811067ffffffffffffffff8211171561318757613186613130565b5b80604052505050565b600061319a612db9565b90506131a6828261315f565b919050565b600067ffffffffffffffff8211156131c6576131c5613130565b5b602082029050602081019050919050565b600080fd5b60006131ef6131ea846131ab565b613190565b90508083825260208201905060208402830185811115613212576132116131d7565b5b835b8181101561323b57806132278882612e4c565b845260208401935050602081019050613214565b5050509392505050565b600082601f83011261325a5761325961312b565b5b813561326a8482602086016131dc565b91505092915050565b600080fd5b600067ffffffffffffffff82111561329357613292613130565b5b61329c826130bf565b9050602081019050919050565b82818337600083830152505050565b60006132cb6132c684613278565b613190565b9050828152602081018484840111156132e7576132e6613273565b5b6132f28482856132a9565b509392505050565b600082601f83011261330f5761330e61312b565b5b813561331f8482602086016132b8565b91505092915050565b600080600080600060a0868803121561334457613343612dc3565b5b600061335288828901612e16565b955050602061336388828901612e16565b945050604086013567ffffffffffffffff81111561338457613383612dc8565b5b61339088828901613245565b935050606086013567ffffffffffffffff8111156133b1576133b0612dc8565b5b6133bd88828901613245565b925050608086013567ffffffffffffffff8111156133de576133dd612dc8565b5b6133ea888289016132fa565b9150509295509295909350565b600067ffffffffffffffff82111561341257613411613130565b5b602082029050602081019050919050565b6000613436613431846133f7565b613190565b90508083825260208201905060208402830185811115613459576134586131d7565b5b835b81811015613482578061346e8882612e16565b84526020840193505060208101905061345b565b5050509392505050565b600082601f8301126134a1576134a061312b565b5b81356134b1848260208601613423565b91505092915050565b600080604083850312156134d1576134d0612dc3565b5b600083013567ffffffffffffffff8111156134ef576134ee612dc8565b5b6134fb8582860161348c565b925050602083013567ffffffffffffffff81111561351c5761351b612dc8565b5b61352885828601613245565b9150509250929050565b600081519050919050565b600082825260208201905092915050565b6000819050602082019050919050565b61356781612e2b565b82525050565b6000613579838361355e565b60208301905092915050565b6000602082019050919050565b600061359d82613532565b6135a7818561353d565b93506135b28361354e565b8060005b838110156135e35781516135ca888261356d565b97506135d583613585565b9250506001810190506135b6565b5085935050505092915050565b6000602082019050818103600083015261360a8184613592565b905092915050565b6000806000806080858703121561362c5761362b612dc3565b5b600061363a87828801612e16565b945050602061364b87828801612e4c565b935050604061365c87828801612e4c565b925050606085013567ffffffffffffffff81111561367d5761367c612dc8565b5b613689878288016132fa565b91505092959194509250565b61369e81612f50565b81146136a957600080fd5b50565b6000813590506136bb81613695565b92915050565b600080604083850312156136d8576136d7612dc3565b5b60006136e685828601612e16565b92505060206136f7858286016136ac565b9150509250929050565b60008060006060848603121561371a57613719612dc3565b5b600061372886828701612e4c565b935050602084013567ffffffffffffffff81111561374957613748612dc8565b5b61375586828701613245565b925050604084013567ffffffffffffffff81111561377657613775612dc8565b5b61378286828701613245565b9150509250925092565b600080600080608085870312156137a6576137a5612dc3565b5b60006137b487828801612e16565b94505060206137c587828801612e16565b935050604085013567ffffffffffffffff8111156137e6576137e5612dc8565b5b6137f287828801613245565b925050606085013567ffffffffffffffff81111561381357613812612dc8565b5b61381f87828801613245565b91505092959194509250565b6000806040838503121561384257613841612dc3565b5b600061385085828601612e16565b925050602061386185828601612e16565b9150509250929050565b60006020820190506138806000830184612fb3565b92915050565b600080600080600060a086880312156138a2576138a1612dc3565b5b60006138b088828901612e16565b95505060206138c188828901612e16565b94505060406138d288828901612e4c565b93505060606138e388828901612e4c565b925050608086013567ffffffffffffffff81111561390457613903612dc8565b5b613910888289016132fa565b9150509295509295909350565b7f455243313135353a2061646472657373207a65726f206973206e6f742061207660008201527f616c6964206f776e657200000000000000000000000000000000000000000000602082015250565b6000613979602a8361307b565b91506139848261391d565b604082019050919050565b600060208201905081810360008301526139a88161396c565b9050919050565b600067ffffffffffffffff8211156139ca576139c9613130565b5b6139d3826130bf565b9050602081019050919050565b60006139f36139ee846139af565b613190565b905082815260208101848484011115613a0f57613a0e613273565b5b613a1a84828561308c565b509392505050565b600082601f830112613a3757613a3661312b565b5b8151613a478482602086016139e0565b91505092915050565b600060208284031215613a6657613a65612dc3565b5b600082015167ffffffffffffffff811115613a8457613a83612dc8565b5b613a9084828501613a22565b91505092915050565b7f455243313135353a2063616c6c6572206973206e6f7420746f6b656e206f776e60008201527f6572206e6f7220617070726f7665640000000000000000000000000000000000602082015250565b6000613af5602f8361307b565b9150613b0082613a99565b604082019050919050565b60006020820190508181036000830152613b2481613ae8565b9050919050565b7f455243313135353a206163636f756e747320616e6420696473206c656e67746860008201527f206d69736d617463680000000000000000000000000000000000000000000000602082015250565b6000613b8760298361307b565b9150613b9282613b2b565b604082019050919050565b60006020820190508181036000830152613bb681613b7a565b9050919050565b7f4e487b7100000000000000000000000000000000000000000000000000000000600052603260045260246000fd5b7f4e487b7100000000000000000000000000000000000000000000000000000000600052601160045260246000fd5b6000613c2682612e2b565b91507fffffffffffffffffffffffffffffffffffffffffffffffffffffffffffffffff821415613c5957613c58613bec565b5b600182019050919050565b7f45636f6e6f6d793a206f6e6c7920746865206f776e696e67206d65746176657260008201527f73652063616e20696e766f6b652074686973206d6574686f6400000000000000602082015250565b6000613cc060398361307b565b9150613ccb82613c64565b604082019050919050565b60006020820190508181036000830152613cef81613cb3565b9050919050565b7f5361666545786368616e67653a20696e76616c6964206465616c000000000000600082015250565b6000613d2c601a8361307b565b9150613d3782613cf6565b602082019050919050565b60006020820190508181036000830152613d5b81613d1f565b9050919050565b7f5361666545786368616e67653a2063616c6c6572206973206e6f7420656d697460008201527f7465722f7265636569766572206e6f7220617070726f76656400000000000000602082015250565b6000613dbe60398361307b565b9150613dc982613d62565b604082019050919050565b60006020820190508181036000830152613ded81613db1565b9050919050565b7f5361666545786368616e67653a2063616c6c6572206973206e6f7420656d697460008201527f746572206e6f7220617070726f76656400000000000000000000000000000000602082015250565b6000613e5060308361307b565b9150613e5b82613df4565b604082019050919050565b60006020820190508181036000830152613e7f81613e43565b9050919050565b7f5361666545786368616e67653a206465616c206973206e6f7420696e206a757360008201527f742d616363657074656420737461746500000000000000000000000000000000602082015250565b6000613ee260308361307b565b9150613eed82613e86565b604082019050919050565b60006020820190508181036000830152613f1181613ed5565b9050919050565b7f5361666545786368616e67653a2063616c6c6572206973206e6f74207265636560008201527f69766572206e6f7220617070726f766564000000000000000000000000000000602082015250565b6000613f7460318361307b565b9150613f7f82613f18565b604082019050919050565b60006020820190508181036000830152613fa381613f67565b9050919050565b7f5361666545786368616e67653a20746f6b656e2069647320616e6420616d6f7560008201527f6e7473206c656e677468206d69736d61746368206f7220300000000000000000602082015250565b600061400660388361307b565b915061401182613faa565b604082019050919050565b6000602082019050818103600083015261403581613ff9565b9050919050565b7f5361666545786368616e67653a206465616c206973206e6f7420696e206a757360008201527f742d637265617465642073746174650000000000000000000000000000000000602082015250565b6000614098602f8361307b565b91506140a38261403c565b604082019050919050565b600060208201905081810360008301526140c78161408b565b9050919050565b600081905092915050565b7f5361666545786368616e67653a20746f6b656e20696e20706f736974696f6e20600082015250565b600061410f6020836140ce565b915061411a826140d9565b602082019050919050565b600061413082613070565b61413a81856140ce565b935061414a81856020860161308c565b80840191505092915050565b7f206d757374206e6f74206861766520616d6f756e74206f662030000000000000600082015250565b600061418c601a836140ce565b915061419782614156565b601a82019050919050565b60006141ad82614102565b91506141b98284614125565b91506141c48261417f565b915081905092915050565b600060408201905081810360008301526141e98185613592565b905081810360208301526141fd8184613592565b90509392505050565b7f5361666545786368616e67653a207472616e736665722066726f6d2f746f207460008201527f6865207a65726f20616464726573730000000000000000000000000000000000602082015250565b6000614262602f8361307b565b915061426d82614206565b604082019050919050565b6000602082019050818103600083015261429181614255565b9050919050565b60006142a382612e2b565b91506142ae83612e2b565b9250827fffffffffffffffffffffffffffffffffffffffffffffffffffffffffffffffff038211156142e3576142e2613bec565b5b828201905092915050565b7f455243313135353a2069647320616e6420616d6f756e7473206c656e6774682060008201527f6d69736d61746368000000000000000000000000000000000000000000000000602082015250565b600061434a60288361307b565b9150614355826142ee565b604082019050919050565b600060208201905081810360008301526143798161433d565b9050919050565b7f455243313135353a207472616e7366657220746f20746865207a65726f20616460008201527f6472657373000000000000000000000000000000000000000000000000000000602082015250565b60006143dc60258361307b565b91506143e782614380565b604082019050919050565b6000602082019050818103600083015261440b816143cf565b9050919050565b7f455243313135353a20696e73756666696369656e742062616c616e636520666f60008201527f72207472616e7366657200000000000000000000000000000000000000000000602082015250565b600061446e602a8361307b565b915061447982614412565b604082019050919050565b6000602082019050818103600083015261449d81614461565b9050919050565b7f455243313135353a206d696e7420746f20746865207a65726f2061646472657360008201527f7300000000000000000000000000000000000000000000000000000000000000602082015250565b600061450060218361307b565b915061450b826144a4565b604082019050919050565b6000602082019050818103600083015261452f816144f3565b9050919050565b600060408201905061454b6000830185612ea1565b6145586020830184612ea1565b9392505050565b7f455243313135353a2073657474696e6720617070726f76616c2073746174757360008201527f20666f722073656c660000000000000000000000000000000000000000000000602082015250565b60006145bb60298361307b565b91506145c68261455f565b604082019050919050565b600060208201905081810360008301526145ea816145ae565b9050919050565b7f45636f6e6f6d793a20657865637574696e67206465616c200000000000000000600082015250565b60006146276018836140ce565b9150614632826145f1565b601882019050919050565b60006146488261461a565b91506146548284614125565b915081905092915050565b7f4e487b7100000000000000000000000000000000000000000000000000000000600052601260045260246000fd5b600061469982612e2b565b91506146a483612e2b565b9250826146b4576146b361465f565b5b828204905092915050565b60006146ca82612e2b565b91506146d583612e2b565b9250828210156146e8576146e7613bec565b5b828203905092915050565b60006146fe82612e2b565b915061470983612e2b565b9250826147195761471861465f565b5b828206905092915050565b61472d81612ecb565b82525050565b60006020820190506147486000830184614724565b92915050565b600081519050919050565b600081905092915050565b600061476f8261474e565b6147798185614759565b935061478981856020860161308c565b80840191505092915050565b60006147a18284614764565b915081905092915050565b6000815190506147bb81613695565b92915050565b6000602082840312156147d7576147d6612dc3565b5b60006147e5848285016147ac565b91505092915050565b60006080820190506148036000830187612fb3565b6148106020830186612fb3565b81810360408301526148228185613592565b905081810360608301526148368184613592565b905095945050505050565b60006040820190506148566000830185612fb3565b6148636020830184612fb3565b9392505050565b600082825260208201905092915050565b60006148868261474e565b614890818561486a565b93506148a081856020860161308c565b6148a9816130bf565b840191505092915050565b600060a0820190506148c96000830188612fb3565b6148d66020830187612fb3565b81810360408301526148e88186613592565b905081810360608301526148fc8185613592565b90508181036080830152614910818461487b565b90509695505050505050565b60008151905061492b81612ef7565b92915050565b60006020828403121561494757614946612dc3565b5b60006149558482850161491c565b91505092915050565b60008160e01c9050919050565b600060033d111561498a5760046000803e61498760005161495e565b90505b90565b600060443d101561499d57614a20565b6149a5612db9565b60043d036004823e80513d602482011167ffffffffffffffff821117156149cd575050614a20565b808201805167ffffffffffffffff8111156149eb5750505050614a20565b80602083010160043d038501811115614a08575050505050614a20565b614a178260200185018661315f565b82955050505050505b90565b7f455243313135353a207472616e7366657220746f206e6f6e204552433131353560008201527f526563656976657220696d706c656d656e746572000000000000000000000000602082015250565b6000614a7f60348361307b565b9150614a8a82614a23565b604082019050919050565b60006020820190508181036000830152614aae81614a72565b9050919050565b7f455243313135353a204552433131353552656365697665722072656a6563746560008201527f6420746f6b656e73000000000000000000000000000000000000000000000000602082015250565b6000614b1160288361307b565b9150614b1c82614ab5565b604082019050919050565b60006020820190508181036000830152614b4081614b04565b9050919050565b600060a082019050614b5c6000830188612fb3565b614b696020830187612fb3565b614b766040830186612ea1565b614b836060830185612ea1565b8181036080830152614b95818461487b565b9050969550505050505056fea26469706673582212200d993518c0eb6710c92b5871ca831841683fa54941d6a7d02f257cb11988071264736f6c634300080a0033",
  "immutableReferences": {},
  "source": "// SPDX-License-Identifier: MIT\npragma solidity >=0.8 <0.9.0;\n\nimport \"@openzeppelin/contracts/token/ERC1155/ERC1155.sol\";\nimport \"@openzeppelin/contracts/utils/introspection/ERC165Checker.sol\";\nimport \"@openzeppelin/contracts/utils/introspection/ERC165.sol\";\nimport \"./IEconomy.sol\";\nimport \"../IMetaverse.sol\";\nimport \"../../SafeExchange.sol\";\n\n/**\n * An economy system is a regular ERC1155, but the url will\n * not be stated, and also this contract will belong to a\n * particular metaverse.\n */\ncontract Economy is ERC1155, IEconomy, SafeExchange {\n    /**\n     * Addresses can check for ERC165 compliance by using this\n     * embeddable library.\n     */\n    using ERC165Checker for address;\n\n    /**\n     * The metaverse that will own this economy system.\n     */\n    address public metaverse;\n\n    /**\n     * Creating an economy system requires a valid metaverse\n     * registrar as its owner.\n     */\n    constructor(address _metaverse) ERC1155(\"\") {\n        require(_metaverse != address(0), \"Economy: the owner contract must not be 0\");\n        require(\n            _metaverse.supportsInterface(type(IMetaverse).interfaceId),\n            \"Economy: the owner contract must implement IMetaverse\"\n        );\n        metaverse = _metaverse;\n    }\n\n    /**\n     * For the deals: This hook invokes a parent batch transfer involving deals.\n     */\n    function _batchTransfer(\n        uint256 _dealIndex, address _from, address _to, uint256[] memory _tokenIds, uint256[] memory _tokenAmounts\n    ) internal override {\n        _safeBatchTransferFrom(_from, _to, _tokenIds, _tokenAmounts, abi.encodePacked(\n            \"Economy: executing deal \", Strings.toString(_dealIndex)\n        ));\n    }\n\n    /**\n     * For the deals: This hook tells whether a sender is allowed for a party in a deal.\n     */\n    function _isApproved(address _party, address _sender) internal override view returns (bool) {\n        return isApprovedForAll(_party, _sender);\n    }\n\n    /**\n     * Processes a token transfer or burn appropriately. Burns are\n     * forwarded using the metaverse.\n     */\n    function _afterTokenTransfer(\n        address operator, address from, address to, uint256[] memory ids, uint256[] memory amounts, bytes memory data\n    ) internal override {\n        if (from != address(0)) {\n            if (to == address(0)) {\n                // A burn. Brands cannot be burned. All the other\n                // assets can be burned.\n                IMetaverse(metaverse).onTokensBurned(operator, from, ids, amounts);\n            } else {\n                // A transfer. Brands will be transfer-processed.\n                // I could perhaps think about other watches over\n                // assets and destinations, but I'll think them later.\n                for(uint256 index = 0; index < amounts.length; index++) {\n                    if (ids[index] < (1 << 160) && amounts[index] != 0) {\n                        IMetaverse(metaverse).onBrandOwnerChanged(address(uint160(ids[index])), to);\n                    }\n                }\n            }\n        }\n    }\n\n    /**\n     * This brand registry satisfies the IERC1155, the IBrandRegistry and IERC165 interfaces.\n     */\n    function supportsInterface(bytes4 interfaceId) public view virtual override(ERC1155, IERC165) returns (bool) {\n        return interfaceId == type(IERC165).interfaceId ||\n               interfaceId == type(IEconomy).interfaceId ||\n               interfaceId == type(IERC1155).interfaceId;\n    }\n\n    /**\n     * Querying the url is now defined depending on the metaverse.\n     */\n    function uri(uint256 _tokenId) public view override returns (string memory) {\n        return IMetaverse(metaverse).tokenURI(_tokenId);\n    }\n\n    /**\n     * Mints a token for a particular account.\n     */\n    function mintFor(address _to, uint256 _tokenId, uint256 _amount, bytes memory _data) public onlyMetaverse {\n        _mint(_to, _tokenId, _amount, _data);\n    }\n\n    /**\n     * This modifier restricts function to be only invoked by the metaverse.\n     */\n    modifier onlyMetaverse() {\n        require(msg.sender == metaverse, \"Economy: only the owning metaverse can invoke this method\");\n        _;\n    }\n}\n",
  "sourcePath": "/home/luismasuelli/Projects/OuterMaze/lingr-contracts/contracts/lingr/economy/Economy.sol",
  "compiler": {
    "name": "solc",
    "version": "0.8.10+commit.fc410830.Emscripten.clang"
  },
  "schemaVersion": "3.4.3",
  "updatedAt": "2022-08-11T03:33:28.143Z",
  "devdoc": {
    "kind": "dev",
    "methods": {
      "balanceOf(address,uint256)": {
        "details": "See {IERC1155-balanceOf}. Requirements: - `account` cannot be the zero address."
      },
      "balanceOfBatch(address[],uint256[])": {
        "details": "See {IERC1155-balanceOfBatch}. Requirements: - `accounts` and `ids` must have the same length."
      },
      "isApprovedForAll(address,address)": {
        "details": "See {IERC1155-isApprovedForAll}."
      },
      "safeBatchTransferFrom(address,address,uint256[],uint256[],bytes)": {
        "details": "See {IERC1155-safeBatchTransferFrom}."
      },
      "safeTransferFrom(address,address,uint256,uint256,bytes)": {
        "details": "See {IERC1155-safeTransferFrom}."
      },
      "setApprovalForAll(address,bool)": {
        "details": "See {IERC1155-setApprovalForAll}."
      }
    },
    "version": 1
  },
  "userdoc": {
    "events": {
      "DealAccepted(uint256,address,address,uint256[],uint256[])": {
        "notice": "This event is raised when a deal is accepted by the receiver."
      },
      "DealBroken(uint256,address)": {
        "notice": "This event is raised when a deal is broken by its emitter, the receiver, or an operator on behalf of any of them."
      },
      "DealConfirmed(uint256,address,address)": {
        "notice": "This event is raised when a deal is confirmed by its creator, after the receiver's acceptance."
      },
      "DealStarted(uint256,address,address,uint256[],uint256[])": {
        "notice": "This event is raised when a new deal is created."
      }
    },
    "kind": "user",
    "methods": {
      "constructor": {
        "notice": "Creating an economy system requires a valid metaverse registrar as its owner."
      },
      "dealAccept(uint256,uint256[],uint256[])": {
        "notice": "Accepting a deal requires the deal to be valid, the sender to be the deal receiver (or an allowed operator of the deal receiver), and the deal to be in the appropriate state. Also, the objects data must be non-empty and no element must be 0."
      },
      "dealBreak(uint256)": {
        "notice": "Breaking a deal requires the deal to be valid, the sender to be the emitter (or approved) or the receiver (or approved)."
      },
      "dealConfirm(uint256)": {
        "notice": "Confirming a deal requires the deal to be valid, the sender to be the deal emitter (or an allowed operator of the deal emitter), and the deal to be in the appropriate state."
      },
      "dealStart(address,address,uint256[],uint256[])": {
        "notice": "Starting a deal requires the sender to be the _emitter address or an address the sender can operate on their behalf. Also, the objects data must be non-empty, and no element must be 0."
      },
      "deals(uint256)": {
        "notice": "All the ACTIVE / PENDING deals instantiated so far."
      },
      "metaverse()": {
        "notice": "The metaverse that will own this economy system."
      },
      "mintFor(address,uint256,uint256,bytes)": {
        "notice": "Mints a token for a particular account."
      },
      "supportsInterface(bytes4)": {
        "notice": "This brand registry satisfies the IERC1155, the IBrandRegistry and IERC165 interfaces."
      },
      "uri(uint256)": {
        "notice": "Querying the url is now defined depending on the metaverse."
      }
    },
    "notice": "An economy system is a regular ERC1155, but the url will not be stated, and also this contract will belong to a particular metaverse.",
    "version": 1
  }
}