{
  "contractName": "Economy",
  "abi": [
    {
      "inputs": [
        {
          "internalType": "address",
          "name": "_metaverse",
          "type": "address"
        }
      ],
      "stateMutability": "nonpayable",
      "type": "constructor"
    },
    {
      "anonymous": false,
      "inputs": [
        {
          "indexed": true,
          "internalType": "address",
          "name": "account",
          "type": "address"
        },
        {
          "indexed": true,
          "internalType": "address",
          "name": "operator",
          "type": "address"
        },
        {
          "indexed": false,
          "internalType": "bool",
          "name": "approved",
          "type": "bool"
        }
      ],
      "name": "ApprovalForAll",
      "type": "event"
    },
    {
      "anonymous": false,
      "inputs": [
        {
          "indexed": true,
          "internalType": "uint256",
          "name": "dealId",
          "type": "uint256"
        },
        {
          "indexed": true,
          "internalType": "address",
          "name": "emitter",
          "type": "address"
        },
        {
          "indexed": true,
          "internalType": "address",
          "name": "receiver",
          "type": "address"
        }
      ],
      "name": "DealAccepted",
      "type": "event"
    },
    {
      "anonymous": false,
      "inputs": [
        {
          "indexed": true,
          "internalType": "uint256",
          "name": "dealId",
          "type": "uint256"
        },
        {
          "indexed": true,
          "internalType": "address",
          "name": "breaker",
          "type": "address"
        }
      ],
      "name": "DealBroken",
      "type": "event"
    },
    {
      "anonymous": false,
      "inputs": [
        {
          "indexed": true,
          "internalType": "uint256",
          "name": "dealId",
          "type": "uint256"
        },
        {
          "indexed": true,
          "internalType": "address",
          "name": "emitter",
          "type": "address"
        },
        {
          "indexed": true,
          "internalType": "address",
          "name": "receiver",
          "type": "address"
        }
      ],
      "name": "DealConfirmed",
      "type": "event"
    },
    {
      "anonymous": false,
      "inputs": [
        {
          "indexed": true,
          "internalType": "uint256",
          "name": "dealId",
          "type": "uint256"
        },
        {
          "indexed": true,
          "internalType": "address",
          "name": "emitter",
          "type": "address"
        },
        {
          "indexed": true,
          "internalType": "address",
          "name": "receiver",
          "type": "address"
        }
      ],
      "name": "DealStarted",
      "type": "event"
    },
    {
      "anonymous": false,
      "inputs": [
        {
          "indexed": true,
          "internalType": "address",
          "name": "operator",
          "type": "address"
        },
        {
          "indexed": true,
          "internalType": "address",
          "name": "from",
          "type": "address"
        },
        {
          "indexed": true,
          "internalType": "address",
          "name": "to",
          "type": "address"
        },
        {
          "indexed": false,
          "internalType": "uint256[]",
          "name": "ids",
          "type": "uint256[]"
        },
        {
          "indexed": false,
          "internalType": "uint256[]",
          "name": "values",
          "type": "uint256[]"
        }
      ],
      "name": "TransferBatch",
      "type": "event"
    },
    {
      "anonymous": false,
      "inputs": [
        {
          "indexed": true,
          "internalType": "address",
          "name": "operator",
          "type": "address"
        },
        {
          "indexed": true,
          "internalType": "address",
          "name": "from",
          "type": "address"
        },
        {
          "indexed": true,
          "internalType": "address",
          "name": "to",
          "type": "address"
        },
        {
          "indexed": false,
          "internalType": "uint256",
          "name": "id",
          "type": "uint256"
        },
        {
          "indexed": false,
          "internalType": "uint256",
          "name": "value",
          "type": "uint256"
        }
      ],
      "name": "TransferSingle",
      "type": "event"
    },
    {
      "anonymous": false,
      "inputs": [
        {
          "indexed": false,
          "internalType": "string",
          "name": "value",
          "type": "string"
        },
        {
          "indexed": true,
          "internalType": "uint256",
          "name": "id",
          "type": "uint256"
        }
      ],
      "name": "URI",
      "type": "event"
    },
    {
      "inputs": [
        {
          "internalType": "address",
          "name": "account",
          "type": "address"
        },
        {
          "internalType": "uint256",
          "name": "id",
          "type": "uint256"
        }
      ],
      "name": "balanceOf",
      "outputs": [
        {
          "internalType": "uint256",
          "name": "",
          "type": "uint256"
        }
      ],
      "stateMutability": "view",
      "type": "function"
    },
    {
      "inputs": [
        {
          "internalType": "address[]",
          "name": "accounts",
          "type": "address[]"
        },
        {
          "internalType": "uint256[]",
          "name": "ids",
          "type": "uint256[]"
        }
      ],
      "name": "balanceOfBatch",
      "outputs": [
        {
          "internalType": "uint256[]",
          "name": "",
          "type": "uint256[]"
        }
      ],
      "stateMutability": "view",
      "type": "function"
    },
    {
      "inputs": [
        {
          "internalType": "uint256",
          "name": "_dealIndex",
          "type": "uint256"
        },
        {
          "internalType": "uint256[]",
          "name": "_tokenIds",
          "type": "uint256[]"
        },
        {
          "internalType": "uint256[]",
          "name": "_tokenAmounts",
          "type": "uint256[]"
        }
      ],
      "name": "dealAccept",
      "outputs": [],
      "stateMutability": "nonpayable",
      "type": "function"
    },
    {
      "inputs": [
        {
          "internalType": "uint256",
          "name": "_dealIndex",
          "type": "uint256"
        }
      ],
      "name": "dealBreak",
      "outputs": [],
      "stateMutability": "nonpayable",
      "type": "function"
    },
    {
      "inputs": [
        {
          "internalType": "uint256",
          "name": "_dealIndex",
          "type": "uint256"
        }
      ],
      "name": "dealConfirm",
      "outputs": [],
      "stateMutability": "nonpayable",
      "type": "function"
    },
    {
      "inputs": [
        {
          "internalType": "address",
          "name": "_emitter",
          "type": "address"
        },
        {
          "internalType": "address",
          "name": "_receiver",
          "type": "address"
        },
        {
          "internalType": "uint256[]",
          "name": "_tokenIds",
          "type": "uint256[]"
        },
        {
          "internalType": "uint256[]",
          "name": "_tokenAmounts",
          "type": "uint256[]"
        }
      ],
      "name": "dealStart",
      "outputs": [],
      "stateMutability": "nonpayable",
      "type": "function"
    },
    {
      "inputs": [
        {
          "internalType": "uint256",
          "name": "",
          "type": "uint256"
        }
      ],
      "name": "deals",
      "outputs": [
        {
          "internalType": "address",
          "name": "emitter",
          "type": "address"
        },
        {
          "internalType": "address",
          "name": "receiver",
          "type": "address"
        },
        {
          "internalType": "enum SafeExchange.DealState",
          "name": "state",
          "type": "uint8"
        }
      ],
      "stateMutability": "view",
      "type": "function"
    },
    {
      "inputs": [
        {
          "internalType": "address",
          "name": "account",
          "type": "address"
        },
        {
          "internalType": "address",
          "name": "operator",
          "type": "address"
        }
      ],
      "name": "isApprovedForAll",
      "outputs": [
        {
          "internalType": "bool",
          "name": "",
          "type": "bool"
        }
      ],
      "stateMutability": "view",
      "type": "function"
    },
    {
      "inputs": [],
      "name": "metaverse",
      "outputs": [
        {
          "internalType": "address",
          "name": "",
          "type": "address"
        }
      ],
      "stateMutability": "view",
      "type": "function"
    },
    {
      "inputs": [
        {
          "internalType": "address",
          "name": "from",
          "type": "address"
        },
        {
          "internalType": "address",
          "name": "to",
          "type": "address"
        },
        {
          "internalType": "uint256[]",
          "name": "ids",
          "type": "uint256[]"
        },
        {
          "internalType": "uint256[]",
          "name": "amounts",
          "type": "uint256[]"
        },
        {
          "internalType": "bytes",
          "name": "data",
          "type": "bytes"
        }
      ],
      "name": "safeBatchTransferFrom",
      "outputs": [],
      "stateMutability": "nonpayable",
      "type": "function"
    },
    {
      "inputs": [
        {
          "internalType": "address",
          "name": "from",
          "type": "address"
        },
        {
          "internalType": "address",
          "name": "to",
          "type": "address"
        },
        {
          "internalType": "uint256",
          "name": "id",
          "type": "uint256"
        },
        {
          "internalType": "uint256",
          "name": "amount",
          "type": "uint256"
        },
        {
          "internalType": "bytes",
          "name": "data",
          "type": "bytes"
        }
      ],
      "name": "safeTransferFrom",
      "outputs": [],
      "stateMutability": "nonpayable",
      "type": "function"
    },
    {
      "inputs": [
        {
          "internalType": "address",
          "name": "operator",
          "type": "address"
        },
        {
          "internalType": "bool",
          "name": "approved",
          "type": "bool"
        }
      ],
      "name": "setApprovalForAll",
      "outputs": [],
      "stateMutability": "nonpayable",
      "type": "function"
    },
    {
      "inputs": [
        {
          "internalType": "bytes4",
          "name": "interfaceId",
          "type": "bytes4"
        }
      ],
      "name": "supportsInterface",
      "outputs": [
        {
          "internalType": "bool",
          "name": "",
          "type": "bool"
        }
      ],
      "stateMutability": "view",
      "type": "function"
    },
    {
      "inputs": [
        {
          "internalType": "uint256",
          "name": "_tokenId",
          "type": "uint256"
        }
      ],
      "name": "uri",
      "outputs": [
        {
          "internalType": "string",
          "name": "",
          "type": "string"
        }
      ],
      "stateMutability": "view",
      "type": "function"
    },
    {
      "inputs": [
        {
          "internalType": "address",
          "name": "_to",
          "type": "address"
        },
        {
          "internalType": "uint256",
          "name": "_tokenId",
          "type": "uint256"
        },
        {
          "internalType": "uint256",
          "name": "_amount",
          "type": "uint256"
        },
        {
          "internalType": "bytes",
          "name": "_data",
          "type": "bytes"
        }
      ],
      "name": "mintFor",
      "outputs": [],
      "stateMutability": "nonpayable",
      "type": "function"
    },
    {
      "inputs": [
        {
          "internalType": "address",
          "name": "_from",
          "type": "address"
        },
        {
          "internalType": "uint256",
          "name": "_tokenId",
          "type": "uint256"
        },
        {
          "internalType": "uint256",
          "name": "_amount",
          "type": "uint256"
        }
      ],
      "name": "burn",
      "outputs": [],
      "stateMutability": "nonpayable",
      "type": "function"
    },
    {
      "inputs": [
        {
          "internalType": "address",
          "name": "_from",
          "type": "address"
        },
        {
          "internalType": "uint256[]",
          "name": "_tokenIds",
          "type": "uint256[]"
        },
        {
          "internalType": "uint256[]",
          "name": "_amounts",
          "type": "uint256[]"
        }
      ],
      "name": "burnBatch",
      "outputs": [],
      "stateMutability": "nonpayable",
      "type": "function"
    }
  ],
  "bytecode": "0x608060405260006003553480156200001657600080fd5b5060405162005e1938038062005e1983398181016040528101906200003c9190620004ab565b604051806020016040528060008152506200005d81620001ab60201b60201c565b50600073ffffffffffffffffffffffffffffffffffffffff168173ffffffffffffffffffffffffffffffffffffffff161415620000d1576040517f08c379a0000000000000000000000000000000000000000000000000000000008152600401620000c89062000564565b60405180910390fd5b620001217f5936148c000000000000000000000000000000000000000000000000000000008273ffffffffffffffffffffffffffffffffffffffff16620001c760201b62001c511790919060201c565b62000163576040517f08c379a00000000000000000000000000000000000000000000000000000000081526004016200015a90620005fc565b60405180910390fd5b80600560006101000a81548173ffffffffffffffffffffffffffffffffffffffff021916908373ffffffffffffffffffffffffffffffffffffffff16021790555050620007e8565b8060029080519060200190620001c392919062000391565b5050565b6000620001da83620001fd60201b60201c565b8015620001f55750620001f483836200025b60201b60201c565b5b905092915050565b600062000231827f01ffc9a7000000000000000000000000000000000000000000000000000000006200025b60201b60201c565b8015620002545750620002528263ffffffff60e01b6200025b60201b60201c565b155b9050919050565b6000806301ffc9a760e01b836040516024016200027991906200065b565b604051602081830303815290604052907bffffffffffffffffffffffffffffffffffffffffffffffffffffffff19166020820180517bffffffffffffffffffffffffffffffffffffffffffffffffffffffff838183161783525050505090506000808573ffffffffffffffffffffffffffffffffffffffff1661753084604051620003059190620006fb565b6000604051808303818686fa925050503d806000811462000343576040519150601f19603f3d011682016040523d82523d6000602084013e62000348565b606091505b50915091506020815110156200036557600093505050506200038b565b8180156200038557508080602001905181019062000384919062000751565b5b93505050505b92915050565b8280546200039f90620007b2565b90600052602060002090601f016020900481019282620003c357600085556200040f565b82601f10620003de57805160ff19168380011785556200040f565b828001600101855582156200040f579182015b828111156200040e578251825591602001919060010190620003f1565b5b5090506200041e919062000422565b5090565b5b808211156200043d57600081600090555060010162000423565b5090565b600080fd5b600073ffffffffffffffffffffffffffffffffffffffff82169050919050565b6000620004738262000446565b9050919050565b620004858162000466565b81146200049157600080fd5b50565b600081519050620004a5816200047a565b92915050565b600060208284031215620004c457620004c362000441565b5b6000620004d48482850162000494565b91505092915050565b600082825260208201905092915050565b7f45636f6e6f6d793a20746865206f776e657220636f6e7472616374206d75737460008201527f206e6f7420626520300000000000000000000000000000000000000000000000602082015250565b60006200054c602983620004dd565b91506200055982620004ee565b604082019050919050565b600060208201905081810360008301526200057f816200053d565b9050919050565b7f45636f6e6f6d793a20746865206f776e657220636f6e7472616374206d75737460008201527f20696d706c656d656e7420494d65746176657273650000000000000000000000602082015250565b6000620005e4603583620004dd565b9150620005f18262000586565b604082019050919050565b600060208201905081810360008301526200061781620005d5565b9050919050565b60007fffffffff0000000000000000000000000000000000000000000000000000000082169050919050565b62000655816200061e565b82525050565b60006020820190506200067260008301846200064a565b92915050565b600081519050919050565b600081905092915050565b60005b83811015620006ae57808201518184015260208101905062000691565b83811115620006be576000848401525b50505050565b6000620006d18262000678565b620006dd818562000683565b9350620006ef8185602086016200068e565b80840191505092915050565b6000620007098284620006c4565b915081905092915050565b60008115159050919050565b6200072b8162000714565b81146200073757600080fd5b50565b6000815190506200074b8162000720565b92915050565b6000602082840312156200076a576200076962000441565b5b60006200077a848285016200073a565b91505092915050565b7f4e487b7100000000000000000000000000000000000000000000000000000000600052602260045260246000fd5b60006002820490506001821680620007cb57607f821691505b60208210811415620007e257620007e162000783565b5b50919050565b61562180620007f86000396000f3fe608060405234801561001057600080fd5b506004361061010a5760003560e01c80636b20c454116100a2578063e067bd6f11610071578063e067bd6f146102c5578063e985e9c5146102e1578063f200670d14610311578063f242432a1461032f578063f5298aca1461034b5761010a565b80636b20c45414610255578063a22cb46514610271578063c3e500271461028d578063d22d2359146102a95761010a565b80632eb2c2d6116100de5780632eb2c2d6146101d15780634e1273f4146101ed5780635b0034fd1461021d5780636344bb13146102395761010a565b8062fdd58e1461010f57806301ffc9a71461013f57806303988f841461016f5780630e89341c146101a1575b600080fd5b610129600480360381019061012491906136d3565b610367565b6040516101369190613722565b60405180910390f35b61015960048036038101906101549190613795565b610430565b60405161016691906137dd565b60405180910390f35b610189600480360381019061018491906137f8565b6105d2565b604051610198939291906138ab565b60405180910390f35b6101bb60048036038101906101b691906137f8565b610649565b6040516101c8919061397b565b60405180910390f35b6101eb60048036038101906101e69190613b9a565b6106f3565b005b61020760048036038101906102029190613d2c565b610794565b6040516102149190613e62565b60405180910390f35b61023760048036038101906102329190613e84565b6108ad565b005b610253600480360381019061024e91906137f8565b61094f565b005b61026f600480360381019061026a9190613f07565b610bfd565b005b61028b60048036038101906102869190613fbe565b610c9d565b005b6102a760048036038101906102a291906137f8565b610cb3565b005b6102c360048036038101906102be9190613ffe565b6111bf565b005b6102df60048036038101906102da9190614089565b61155a565b005b6102fb60048036038101906102f69190614128565b611a56565b60405161030891906137dd565b60405180910390f35b610319611aea565b6040516103269190614168565b60405180910390f35b61034960048036038101906103449190614183565b611b10565b005b6103656004803603810190610360919061421a565b611bb1565b005b60008073ffffffffffffffffffffffffffffffffffffffff168373ffffffffffffffffffffffffffffffffffffffff1614156103d8576040517f08c379a00000000000000000000000000000000000000000000000000000000081526004016103cf906142df565b60405180910390fd5b60008083815260200190815260200160002060008473ffffffffffffffffffffffffffffffffffffffff1673ffffffffffffffffffffffffffffffffffffffff16815260200190815260200160002054905092915050565b60007f01ffc9a7000000000000000000000000000000000000000000000000000000007bffffffffffffffffffffffffffffffffffffffffffffffffffffffff1916827bffffffffffffffffffffffffffffffffffffffffffffffffffffffff191614806104fb57507fc5097a63000000000000000000000000000000000000000000000000000000007bffffffffffffffffffffffffffffffffffffffffffffffffffffffff1916827bffffffffffffffffffffffffffffffffffffffffffffffffffffffff1916145b8061056357507fd9b67a26000000000000000000000000000000000000000000000000000000007bffffffffffffffffffffffffffffffffffffffffffffffffffffffff1916827bffffffffffffffffffffffffffffffffffffffffffffffffffffffff1916145b806105cb57507ff200670d000000000000000000000000000000000000000000000000000000007bffffffffffffffffffffffffffffffffffffffffffffffffffffffff1916827bffffffffffffffffffffffffffffffffffffffffffffffffffffffff1916145b9050919050565b60046020528060005260406000206000915090508060000160009054906101000a900473ffffffffffffffffffffffffffffffffffffffff16908060010160009054906101000a900473ffffffffffffffffffffffffffffffffffffffff16908060060160009054906101000a900460ff16905083565b6060600560009054906101000a900473ffffffffffffffffffffffffffffffffffffffff1673ffffffffffffffffffffffffffffffffffffffff1663c87b56dd836040518263ffffffff1660e01b81526004016106a69190613722565b600060405180830381865afa1580156106c3573d6000803e3d6000fd5b505050506040513d6000823e3d601f19601f820116820180604052508101906106ec91906143a0565b9050919050565b6106fb611c76565b73ffffffffffffffffffffffffffffffffffffffff168573ffffffffffffffffffffffffffffffffffffffff16148061074157506107408561073b611c76565b611a56565b5b610780576040517f08c379a00000000000000000000000000000000000000000000000000000000081526004016107779061445b565b60405180910390fd5b61078d8585858585611c7e565b5050505050565b606081518351146107da576040517f08c379a00000000000000000000000000000000000000000000000000000000081526004016107d1906144ed565b60405180910390fd5b6000835167ffffffffffffffff8111156107f7576107f66139a2565b5b6040519080825280602002602001820160405280156108255781602001602082028036833780820191505090505b50905060005b84518110156108a25761087285828151811061084a5761084961450d565b5b60200260200101518583815181106108655761086461450d565b5b6020026020010151610367565b8282815181106108855761088461450d565b5b6020026020010181815250508061089b9061456b565b905061082b565b508091505092915050565b600560009054906101000a900473ffffffffffffffffffffffffffffffffffffffff1673ffffffffffffffffffffffffffffffffffffffff163373ffffffffffffffffffffffffffffffffffffffff161461093d576040517f08c379a000000000000000000000000000000000000000000000000000000000815260040161093490614626565b60405180910390fd5b61094984848484611fa0565b50505050565b600060046000838152602001908152602001600020905060008160000160009054906101000a900473ffffffffffffffffffffffffffffffffffffffff16905060008260010160009054906101000a900473ffffffffffffffffffffffffffffffffffffffff16905060006109c2611c76565b9050600073ffffffffffffffffffffffffffffffffffffffff168373ffffffffffffffffffffffffffffffffffffffff161415610a34576040517f08c379a0000000000000000000000000000000000000000000000000000000008152600401610a2b90614692565b60405180910390fd5b8073ffffffffffffffffffffffffffffffffffffffff168373ffffffffffffffffffffffffffffffffffffffff161480610a745750610a738382612151565b5b80610aaa57508073ffffffffffffffffffffffffffffffffffffffff168273ffffffffffffffffffffffffffffffffffffffff16145b80610abb5750610aba8282612151565b5b610afa576040517f08c379a0000000000000000000000000000000000000000000000000000000008152600401610af190614724565b60405180910390fd5b8073ffffffffffffffffffffffffffffffffffffffff16857f90af83379d8595c89e65f7a24d8e34d82ba665bd027f7e7c61529730189bc57160405160405180910390a360046000868152602001908152602001600020600080820160006101000a81549073ffffffffffffffffffffffffffffffffffffffff02191690556001820160006101000a81549073ffffffffffffffffffffffffffffffffffffffff0219169055600282016000610bb091906135a0565b600382016000610bc091906135a0565b600482016000610bd091906135a0565b600582016000610be091906135a0565b6006820160006101000a81549060ff021916905550505050505050565b600560009054906101000a900473ffffffffffffffffffffffffffffffffffffffff1673ffffffffffffffffffffffffffffffffffffffff163373ffffffffffffffffffffffffffffffffffffffff1614610c8d576040517f08c379a0000000000000000000000000000000000000000000000000000000008152600401610c8490614626565b60405180910390fd5b610c98838383612165565b505050565b610caf610ca8611c76565b8383612434565b5050565b600060046000838152602001908152602001600020905060008160000160009054906101000a900473ffffffffffffffffffffffffffffffffffffffff169050600073ffffffffffffffffffffffffffffffffffffffff168173ffffffffffffffffffffffffffffffffffffffff161415610d63576040517f08c379a0000000000000000000000000000000000000000000000000000000008152600401610d5a90614692565b60405180910390fd5b610d6b611c76565b73ffffffffffffffffffffffffffffffffffffffff168173ffffffffffffffffffffffffffffffffffffffff161480610db15750610db081610dab611c76565b612151565b5b610df0576040517f08c379a0000000000000000000000000000000000000000000000000000000008152600401610de7906147b6565b60405180910390fd5b60008260060160009054906101000a900460ff169050600180811115610e1957610e18613834565b5b816001811115610e2c57610e2b613834565b5b14610e6c576040517f08c379a0000000000000000000000000000000000000000000000000000000008152600401610e6390614848565b60405180910390fd5b610f65848460000160009054906101000a900473ffffffffffffffffffffffffffffffffffffffff168560010160009054906101000a900473ffffffffffffffffffffffffffffffffffffffff1686600201805480602002602001604051908101604052809291908181526020018280548015610f0857602002820191906000526020600020905b815481526020019060010190808311610ef4575b505050505087600301805480602002602001604051908101604052809291908181526020018280548015610f5b57602002820191906000526020600020905b815481526020019060010190808311610f47575b50505050506125a1565b61105e848460010160009054906101000a900473ffffffffffffffffffffffffffffffffffffffff168560000160009054906101000a900473ffffffffffffffffffffffffffffffffffffffff168660040180548060200260200160405190810160405280929190818152602001828054801561100157602002820191906000526020600020905b815481526020019060010190808311610fed575b50505050508760050180548060200260200160405190810160405280929190818152602001828054801561105457602002820191906000526020600020905b815481526020019060010190808311611040575b50505050506125a1565b8260010160009054906101000a900473ffffffffffffffffffffffffffffffffffffffff1673ffffffffffffffffffffffffffffffffffffffff168360000160009054906101000a900473ffffffffffffffffffffffffffffffffffffffff1673ffffffffffffffffffffffffffffffffffffffff16857fa5fbbfff4decd4f44ed03e28267dd014277bccd985cc2153acfa058f41ae8c0760405160405180910390a460046000858152602001908152602001600020600080820160006101000a81549073ffffffffffffffffffffffffffffffffffffffff02191690556001820160006101000a81549073ffffffffffffffffffffffffffffffffffffffff021916905560028201600061117391906135a0565b60038201600061118391906135a0565b60048201600061119391906135a0565b6005820160006111a391906135a0565b6006820160006101000a81549060ff0219169055505050505050565b600060046000858152602001908152602001600020905060008160010160009054906101000a900473ffffffffffffffffffffffffffffffffffffffff169050600073ffffffffffffffffffffffffffffffffffffffff168173ffffffffffffffffffffffffffffffffffffffff16141561126f576040517f08c379a000000000000000000000000000000000000000000000000000000000815260040161126690614692565b60405180910390fd5b611277611c76565b73ffffffffffffffffffffffffffffffffffffffff168173ffffffffffffffffffffffffffffffffffffffff1614806112bd57506112bc816112b7611c76565b612151565b5b6112fc576040517f08c379a00000000000000000000000000000000000000000000000000000000081526004016112f3906148da565b60405180910390fd5b8251845114801561130f57506000845114155b61134e576040517f08c379a00000000000000000000000000000000000000000000000000000000081526004016113459061496c565b60405180910390fd5b60008260060160009054906101000a900460ff1690506000600181111561137857611377613834565b5b81600181111561138b5761138a613834565b5b146113cb576040517f08c379a00000000000000000000000000000000000000000000000000000000081526004016113c2906149fe565b60405180910390fd5b60005b84518110156114735760008582815181106113ec576113eb61450d565b5b602002602001015114156113ff826125dc565b60405160200161140f9190614af2565b6040516020818303038152906040529061145f576040517f08c379a0000000000000000000000000000000000000000000000000000000008152600401611456919061397b565b60405180910390fd5b50808061146b9061456b565b9150506113ce565b5060018360060160006101000a81548160ff0219169083600181111561149c5761149b613834565b5b0217905550848360040190805190602001906114b99291906135c1565b50838360050190805190602001906114d29291906135c1565b508173ffffffffffffffffffffffffffffffffffffffff168360000160009054906101000a900473ffffffffffffffffffffffffffffffffffffffff1673ffffffffffffffffffffffffffffffffffffffff16877fc396021e8ed80b78876c14f5696c767ff229eb9689369af47444c8f10525fbca60405160405180910390a4505050505050565b600073ffffffffffffffffffffffffffffffffffffffff168473ffffffffffffffffffffffffffffffffffffffff16141580156115c45750600073ffffffffffffffffffffffffffffffffffffffff168373ffffffffffffffffffffffffffffffffffffffff1614155b611603576040517f08c379a00000000000000000000000000000000000000000000000000000000081526004016115fa90614b91565b60405180910390fd5b61160b611c76565b73ffffffffffffffffffffffffffffffffffffffff168473ffffffffffffffffffffffffffffffffffffffff16148061165157506116508461164b611c76565b612151565b5b611690576040517f08c379a0000000000000000000000000000000000000000000000000000000008152600401611687906147b6565b60405180910390fd5b805182511480156116a357506000825114155b6116e2576040517f08c379a00000000000000000000000000000000000000000000000000000000081526004016116d99061496c565b60405180910390fd5b60005b815181101561178a5760008282815181106117035761170261450d565b5b60200260200101511415611716826125dc565b6040516020016117269190614af2565b60405160208183030381529060405290611776576040517f08c379a000000000000000000000000000000000000000000000000000000000815260040161176d919061397b565b60405180910390fd5b5080806117829061456b565b9150506116e5565b5060016003600082825461179e9190614bb1565b925050819055506040518060e001604052808573ffffffffffffffffffffffffffffffffffffffff1681526020018473ffffffffffffffffffffffffffffffffffffffff168152602001838152602001828152602001600067ffffffffffffffff81111561180f5761180e6139a2565b5b60405190808252806020026020018201604052801561183d5781602001602082028036833780820191505090505b508152602001600067ffffffffffffffff81111561185e5761185d6139a2565b5b60405190808252806020026020018201604052801561188c5781602001602082028036833780820191505090505b508152602001600060018111156118a6576118a5613834565b5b81525060046000600354815260200190815260200160002060008201518160000160006101000a81548173ffffffffffffffffffffffffffffffffffffffff021916908373ffffffffffffffffffffffffffffffffffffffff16021790555060208201518160010160006101000a81548173ffffffffffffffffffffffffffffffffffffffff021916908373ffffffffffffffffffffffffffffffffffffffff16021790555060408201518160020190805190602001906119689291906135c1565b5060608201518160030190805190602001906119859291906135c1565b5060808201518160040190805190602001906119a29291906135c1565b5060a08201518160050190805190602001906119bf9291906135c1565b5060c08201518160060160006101000a81548160ff021916908360018111156119eb576119ea613834565b5b02179055509050508273ffffffffffffffffffffffffffffffffffffffff168473ffffffffffffffffffffffffffffffffffffffff166003547fbfd9d9412b47e0af5402810f3d892346a590db4773210f27841a6a506d70aa6860405160405180910390a450505050565b6000600160008473ffffffffffffffffffffffffffffffffffffffff1673ffffffffffffffffffffffffffffffffffffffff16815260200190815260200160002060008373ffffffffffffffffffffffffffffffffffffffff1673ffffffffffffffffffffffffffffffffffffffff16815260200190815260200160002060009054906101000a900460ff16905092915050565b600560009054906101000a900473ffffffffffffffffffffffffffffffffffffffff1681565b611b18611c76565b73ffffffffffffffffffffffffffffffffffffffff168573ffffffffffffffffffffffffffffffffffffffff161480611b5e5750611b5d85611b58611c76565b611a56565b5b611b9d576040517f08c379a0000000000000000000000000000000000000000000000000000000008152600401611b949061445b565b60405180910390fd5b611baa858585858561273d565b5050505050565b600560009054906101000a900473ffffffffffffffffffffffffffffffffffffffff1673ffffffffffffffffffffffffffffffffffffffff163373ffffffffffffffffffffffffffffffffffffffff1614611c41576040517f08c379a0000000000000000000000000000000000000000000000000000000008152600401611c3890614626565b60405180910390fd5b611c4c8383836129d9565b505050565b6000611c5c83612c20565b8015611c6e5750611c6d8383612c6d565b5b905092915050565b600033905090565b8151835114611cc2576040517f08c379a0000000000000000000000000000000000000000000000000000000008152600401611cb990614c79565b60405180910390fd5b600073ffffffffffffffffffffffffffffffffffffffff168473ffffffffffffffffffffffffffffffffffffffff161415611d32576040517f08c379a0000000000000000000000000000000000000000000000000000000008152600401611d2990614d0b565b60405180910390fd5b6000611d3c611c76565b9050611d4c818787878787612d98565b60005b8451811015611efd576000858281518110611d6d57611d6c61450d565b5b602002602001015190506000858381518110611d8c57611d8b61450d565b5b60200260200101519050600080600084815260200190815260200160002060008b73ffffffffffffffffffffffffffffffffffffffff1673ffffffffffffffffffffffffffffffffffffffff16815260200190815260200160002054905081811015611e2d576040517f08c379a0000000000000000000000000000000000000000000000000000000008152600401611e2490614d9d565b60405180910390fd5b81810360008085815260200190815260200160002060008c73ffffffffffffffffffffffffffffffffffffffff1673ffffffffffffffffffffffffffffffffffffffff168152602001908152602001600020819055508160008085815260200190815260200160002060008b73ffffffffffffffffffffffffffffffffffffffff1673ffffffffffffffffffffffffffffffffffffffff1681526020019081526020016000206000828254611ee29190614bb1565b9250508190555050505080611ef69061456b565b9050611d4f565b508473ffffffffffffffffffffffffffffffffffffffff168673ffffffffffffffffffffffffffffffffffffffff168273ffffffffffffffffffffffffffffffffffffffff167f4a39dc06d4c0dbc64b70af90fd698a233a518aa5d07e595d983b8c0526c8f7fb8787604051611f74929190614dbd565b60405180910390a4611f8a818787878787612da0565b611f98818787878787613153565b505050505050565b600073ffffffffffffffffffffffffffffffffffffffff168473ffffffffffffffffffffffffffffffffffffffff161415612010576040517f08c379a000000000000000000000000000000000000000000000000000000000815260040161200790614e66565b60405180910390fd5b600061201a611c76565b905060006120278561332b565b905060006120348561332b565b905061204583600089858589612d98565b8460008088815260200190815260200160002060008973ffffffffffffffffffffffffffffffffffffffff1673ffffffffffffffffffffffffffffffffffffffff16815260200190815260200160002060008282546120a49190614bb1565b925050819055508673ffffffffffffffffffffffffffffffffffffffff16600073ffffffffffffffffffffffffffffffffffffffff168473ffffffffffffffffffffffffffffffffffffffff167fc3d58168c5ae7397731d063d5bbf3d657854427343f4c083240f7aacaa2d0f628989604051612122929190614e86565b60405180910390a461213983600089858589612da0565b612148836000898989896133a5565b50505050505050565b600061215d8383611a56565b905092915050565b600073ffffffffffffffffffffffffffffffffffffffff168373ffffffffffffffffffffffffffffffffffffffff1614156121d5576040517f08c379a00000000000000000000000000000000000000000000000000000000081526004016121cc90614f21565b60405180910390fd5b8051825114612219576040517f08c379a000000000000000000000000000000000000000000000000000000000815260040161221090614c79565b60405180910390fd5b6000612223611c76565b905061224381856000868660405180602001604052806000815250612d98565b60005b83518110156123905760008482815181106122645761226361450d565b5b6020026020010151905060008483815181106122835761228261450d565b5b60200260200101519050600080600084815260200190815260200160002060008973ffffffffffffffffffffffffffffffffffffffff1673ffffffffffffffffffffffffffffffffffffffff16815260200190815260200160002054905081811015612324576040517f08c379a000000000000000000000000000000000000000000000000000000000815260040161231b90614fb3565b60405180910390fd5b81810360008085815260200190815260200160002060008a73ffffffffffffffffffffffffffffffffffffffff1673ffffffffffffffffffffffffffffffffffffffff1681526020019081526020016000208190555050505080806123889061456b565b915050612246565b50600073ffffffffffffffffffffffffffffffffffffffff168473ffffffffffffffffffffffffffffffffffffffff168273ffffffffffffffffffffffffffffffffffffffff167f4a39dc06d4c0dbc64b70af90fd698a233a518aa5d07e595d983b8c0526c8f7fb8686604051612408929190614dbd565b60405180910390a461242e81856000868660405180602001604052806000815250612da0565b50505050565b8173ffffffffffffffffffffffffffffffffffffffff168373ffffffffffffffffffffffffffffffffffffffff1614156124a3576040517f08c379a000000000000000000000000000000000000000000000000000000000815260040161249a90615045565b60405180910390fd5b80600160008573ffffffffffffffffffffffffffffffffffffffff1673ffffffffffffffffffffffffffffffffffffffff16815260200190815260200160002060008473ffffffffffffffffffffffffffffffffffffffff1673ffffffffffffffffffffffffffffffffffffffff16815260200190815260200160002060006101000a81548160ff0219169083151502179055508173ffffffffffffffffffffffffffffffffffffffff168373ffffffffffffffffffffffffffffffffffffffff167f17307eab39ab6107e8899845ad3d59bd9653f200f220920489ca2b5937696c318360405161259491906137dd565b60405180910390a3505050565b6125d5848484846125b18a6125dc565b6040516020016125c191906150b1565b604051602081830303815290604052611c7e565b5050505050565b60606000821415612624576040518060400160405280600181526020017f30000000000000000000000000000000000000000000000000000000000000008152509050612738565b600082905060005b6000821461265657808061263f9061456b565b915050600a8261264f9190615102565b915061262c565b60008167ffffffffffffffff811115612672576126716139a2565b5b6040519080825280601f01601f1916602001820160405280156126a45781602001600182028036833780820191505090505b5090505b60008514612731576001826126bd9190615133565b9150600a856126cc9190615167565b60306126d89190614bb1565b60f81b8183815181106126ee576126ed61450d565b5b60200101907effffffffffffffffffffffffffffffffffffffffffffffffffffffffffffff1916908160001a905350600a8561272a9190615102565b94506126a8565b8093505050505b919050565b600073ffffffffffffffffffffffffffffffffffffffff168473ffffffffffffffffffffffffffffffffffffffff1614156127ad576040517f08c379a00000000000000000000000000000000000000000000000000000000081526004016127a490614d0b565b60405180910390fd5b60006127b7611c76565b905060006127c48561332b565b905060006127d18561332b565b90506127e1838989858589612d98565b600080600088815260200190815260200160002060008a73ffffffffffffffffffffffffffffffffffffffff1673ffffffffffffffffffffffffffffffffffffffff16815260200190815260200160002054905085811015612878576040517f08c379a000000000000000000000000000000000000000000000000000000000815260040161286f90614d9d565b60405180910390fd5b85810360008089815260200190815260200160002060008b73ffffffffffffffffffffffffffffffffffffffff1673ffffffffffffffffffffffffffffffffffffffff168152602001908152602001600020819055508560008089815260200190815260200160002060008a73ffffffffffffffffffffffffffffffffffffffff1673ffffffffffffffffffffffffffffffffffffffff168152602001908152602001600020600082825461292d9190614bb1565b925050819055508773ffffffffffffffffffffffffffffffffffffffff168973ffffffffffffffffffffffffffffffffffffffff168573ffffffffffffffffffffffffffffffffffffffff167fc3d58168c5ae7397731d063d5bbf3d657854427343f4c083240f7aacaa2d0f628a8a6040516129aa929190614e86565b60405180910390a46129c0848a8a86868a612da0565b6129ce848a8a8a8a8a6133a5565b505050505050505050565b600073ffffffffffffffffffffffffffffffffffffffff168373ffffffffffffffffffffffffffffffffffffffff161415612a49576040517f08c379a0000000000000000000000000000000000000000000000000000000008152600401612a4090614f21565b60405180910390fd5b6000612a53611c76565b90506000612a608461332b565b90506000612a6d8461332b565b9050612a8d83876000858560405180602001604052806000815250612d98565b600080600087815260200190815260200160002060008873ffffffffffffffffffffffffffffffffffffffff1673ffffffffffffffffffffffffffffffffffffffff16815260200190815260200160002054905084811015612b24576040517f08c379a0000000000000000000000000000000000000000000000000000000008152600401612b1b90614fb3565b60405180910390fd5b84810360008088815260200190815260200160002060008973ffffffffffffffffffffffffffffffffffffffff1673ffffffffffffffffffffffffffffffffffffffff16815260200190815260200160002081905550600073ffffffffffffffffffffffffffffffffffffffff168773ffffffffffffffffffffffffffffffffffffffff168573ffffffffffffffffffffffffffffffffffffffff167fc3d58168c5ae7397731d063d5bbf3d657854427343f4c083240f7aacaa2d0f628989604051612bf1929190614e86565b60405180910390a4612c1784886000868660405180602001604052806000815250612da0565b50505050505050565b6000612c4c827f01ffc9a700000000000000000000000000000000000000000000000000000000612c6d565b8015612c665750612c648263ffffffff60e01b612c6d565b155b9050919050565b6000806301ffc9a760e01b83604051602401612c8991906151a7565b604051602081830303815290604052907bffffffffffffffffffffffffffffffffffffffffffffffffffffffff19166020820180517bffffffffffffffffffffffffffffffffffffffffffffffffffffffff838183161783525050505090506000808573ffffffffffffffffffffffffffffffffffffffff1661753084604051612d139190615209565b6000604051808303818686fa925050503d8060008114612d4f576040519150601f19603f3d011682016040523d82523d6000602084013e612d54565b606091505b5091509150602081511015612d6f5760009350505050612d92565b818015612d8c575080806020019051810190612d8b9190615235565b5b93505050505b92915050565b505050505050565b600082519050600073ffffffffffffffffffffffffffffffffffffffff168673ffffffffffffffffffffffffffffffffffffffff161461309f57600073ffffffffffffffffffffffffffffffffffffffff168573ffffffffffffffffffffffffffffffffffffffff1614612f545760005b81811015612f525774010000000000000000000000000000000000000000858281518110612e4257612e4161450d565b5b6020026020010151108015612e7257506000848281518110612e6757612e6661450d565b5b602002602001015114155b15612f3f576000858281518110612e8c57612e8b61450d565b5b60200260200101519050612ea281896000612434565b612eae81886001612434565b600560009054906101000a900473ffffffffffffffffffffffffffffffffffffffff1673ffffffffffffffffffffffffffffffffffffffff16638cd6e9a982896040518363ffffffff1660e01b8152600401612f0b929190615262565b600060405180830381600087803b158015612f2557600080fd5b505af1158015612f39573d6000803e3d6000fd5b50505050505b8080612f4a9061456b565b915050612e11565b505b60005b81811015613099577f8000000000000000000000000000000000000000000000000000000000000000858281518110612f9357612f9261450d565b5b6020026020010151108015612fd7575074010000000000000000000000000000000000000000858281518110612fcc57612fcb61450d565b5b602002602001015110155b1561308657600560009054906101000a900473ffffffffffffffffffffffffffffffffffffffff1673ffffffffffffffffffffffffffffffffffffffff16639679f01186838151811061302d5761302c61450d565b5b6020026020010151886040518363ffffffff1660e01b815260040161305392919061528b565b600060405180830381600087803b15801561306d57600080fd5b505af1158015613081573d6000803e3d6000fd5b505050505b80806130919061456b565b915050612f57565b5061314a565b60005b8181101561314857740100000000000000000000000000000000000000008582815181106130d3576130d261450d565b5b6020026020010151108015613103575060008482815181106130f8576130f761450d565b5b602002602001015114155b1561313557600085828151811061311d5761311c61450d565b5b6020026020010151905061313381886001612434565b505b80806131409061456b565b9150506130a2565b505b50505050505050565b6131728473ffffffffffffffffffffffffffffffffffffffff1661357d565b15613323578373ffffffffffffffffffffffffffffffffffffffff1663bc197c8187878686866040518663ffffffff1660e01b81526004016131b89594939291906152fe565b6020604051808303816000875af19250505080156131f457506040513d601f19601f820116820180604052508101906131f1919061537b565b60015b61329a576132006153b5565b806308c379a0141561325d57506132156153d7565b80613220575061325f565b806040517f08c379a0000000000000000000000000000000000000000000000000000000008152600401613254919061397b565b60405180910390fd5b505b6040517f08c379a0000000000000000000000000000000000000000000000000000000008152600401613291906154df565b60405180910390fd5b63bc197c8160e01b7bffffffffffffffffffffffffffffffffffffffffffffffffffffffff1916817bffffffffffffffffffffffffffffffffffffffffffffffffffffffff191614613321576040517f08c379a000000000000000000000000000000000000000000000000000000000815260040161331890615571565b60405180910390fd5b505b505050505050565b60606000600167ffffffffffffffff81111561334a576133496139a2565b5b6040519080825280602002602001820160405280156133785781602001602082028036833780820191505090505b50905082816000815181106133905761338f61450d565b5b60200260200101818152505080915050919050565b6133c48473ffffffffffffffffffffffffffffffffffffffff1661357d565b15613575578373ffffffffffffffffffffffffffffffffffffffff1663f23a6e6187878686866040518663ffffffff1660e01b815260040161340a959493929190615591565b6020604051808303816000875af192505050801561344657506040513d601f19601f82011682018060405250810190613443919061537b565b60015b6134ec576134526153b5565b806308c379a014156134af57506134676153d7565b8061347257506134b1565b806040517f08c379a00000000000000000000000000000000000000000000000000000000081526004016134a6919061397b565b60405180910390fd5b505b6040517f08c379a00000000000000000000000000000000000000000000000000000000081526004016134e3906154df565b60405180910390fd5b63f23a6e6160e01b7bffffffffffffffffffffffffffffffffffffffffffffffffffffffff1916817bffffffffffffffffffffffffffffffffffffffffffffffffffffffff191614613573576040517f08c379a000000000000000000000000000000000000000000000000000000000815260040161356a90615571565b60405180910390fd5b505b505050505050565b6000808273ffffffffffffffffffffffffffffffffffffffff163b119050919050565b50805460008255906000526020600020908101906135be919061360e565b50565b8280548282559060005260206000209081019282156135fd579160200282015b828111156135fc5782518255916020019190600101906135e1565b5b50905061360a919061360e565b5090565b5b8082111561362757600081600090555060010161360f565b5090565b6000604051905090565b600080fd5b600080fd5b600073ffffffffffffffffffffffffffffffffffffffff82169050919050565b600061366a8261363f565b9050919050565b61367a8161365f565b811461368557600080fd5b50565b60008135905061369781613671565b92915050565b6000819050919050565b6136b08161369d565b81146136bb57600080fd5b50565b6000813590506136cd816136a7565b92915050565b600080604083850312156136ea576136e9613635565b5b60006136f885828601613688565b9250506020613709858286016136be565b9150509250929050565b61371c8161369d565b82525050565b60006020820190506137376000830184613713565b92915050565b60007fffffffff0000000000000000000000000000000000000000000000000000000082169050919050565b6137728161373d565b811461377d57600080fd5b50565b60008135905061378f81613769565b92915050565b6000602082840312156137ab576137aa613635565b5b60006137b984828501613780565b91505092915050565b60008115159050919050565b6137d7816137c2565b82525050565b60006020820190506137f260008301846137ce565b92915050565b60006020828403121561380e5761380d613635565b5b600061381c848285016136be565b91505092915050565b61382e8161365f565b82525050565b7f4e487b7100000000000000000000000000000000000000000000000000000000600052602160045260246000fd5b6002811061387457613873613834565b5b50565b600081905061388582613863565b919050565b600061389582613877565b9050919050565b6138a58161388a565b82525050565b60006060820190506138c06000830186613825565b6138cd6020830185613825565b6138da604083018461389c565b949350505050565b600081519050919050565b600082825260208201905092915050565b60005b8381101561391c578082015181840152602081019050613901565b8381111561392b576000848401525b50505050565b6000601f19601f8301169050919050565b600061394d826138e2565b61395781856138ed565b93506139678185602086016138fe565b61397081613931565b840191505092915050565b600060208201905081810360008301526139958184613942565b905092915050565b600080fd5b7f4e487b7100000000000000000000000000000000000000000000000000000000600052604160045260246000fd5b6139da82613931565b810181811067ffffffffffffffff821117156139f9576139f86139a2565b5b80604052505050565b6000613a0c61362b565b9050613a1882826139d1565b919050565b600067ffffffffffffffff821115613a3857613a376139a2565b5b602082029050602081019050919050565b600080fd5b6000613a61613a5c84613a1d565b613a02565b90508083825260208201905060208402830185811115613a8457613a83613a49565b5b835b81811015613aad5780613a9988826136be565b845260208401935050602081019050613a86565b5050509392505050565b600082601f830112613acc57613acb61399d565b5b8135613adc848260208601613a4e565b91505092915050565b600080fd5b600067ffffffffffffffff821115613b0557613b046139a2565b5b613b0e82613931565b9050602081019050919050565b82818337600083830152505050565b6000613b3d613b3884613aea565b613a02565b905082815260208101848484011115613b5957613b58613ae5565b5b613b64848285613b1b565b509392505050565b600082601f830112613b8157613b8061399d565b5b8135613b91848260208601613b2a565b91505092915050565b600080600080600060a08688031215613bb657613bb5613635565b5b6000613bc488828901613688565b9550506020613bd588828901613688565b945050604086013567ffffffffffffffff811115613bf657613bf561363a565b5b613c0288828901613ab7565b935050606086013567ffffffffffffffff811115613c2357613c2261363a565b5b613c2f88828901613ab7565b925050608086013567ffffffffffffffff811115613c5057613c4f61363a565b5b613c5c88828901613b6c565b9150509295509295909350565b600067ffffffffffffffff821115613c8457613c836139a2565b5b602082029050602081019050919050565b6000613ca8613ca384613c69565b613a02565b90508083825260208201905060208402830185811115613ccb57613cca613a49565b5b835b81811015613cf45780613ce08882613688565b845260208401935050602081019050613ccd565b5050509392505050565b600082601f830112613d1357613d1261399d565b5b8135613d23848260208601613c95565b91505092915050565b60008060408385031215613d4357613d42613635565b5b600083013567ffffffffffffffff811115613d6157613d6061363a565b5b613d6d85828601613cfe565b925050602083013567ffffffffffffffff811115613d8e57613d8d61363a565b5b613d9a85828601613ab7565b9150509250929050565b600081519050919050565b600082825260208201905092915050565b6000819050602082019050919050565b613dd98161369d565b82525050565b6000613deb8383613dd0565b60208301905092915050565b6000602082019050919050565b6000613e0f82613da4565b613e198185613daf565b9350613e2483613dc0565b8060005b83811015613e55578151613e3c8882613ddf565b9750613e4783613df7565b925050600181019050613e28565b5085935050505092915050565b60006020820190508181036000830152613e7c8184613e04565b905092915050565b60008060008060808587031215613e9e57613e9d613635565b5b6000613eac87828801613688565b9450506020613ebd878288016136be565b9350506040613ece878288016136be565b925050606085013567ffffffffffffffff811115613eef57613eee61363a565b5b613efb87828801613b6c565b91505092959194509250565b600080600060608486031215613f2057613f1f613635565b5b6000613f2e86828701613688565b935050602084013567ffffffffffffffff811115613f4f57613f4e61363a565b5b613f5b86828701613ab7565b925050604084013567ffffffffffffffff811115613f7c57613f7b61363a565b5b613f8886828701613ab7565b9150509250925092565b613f9b816137c2565b8114613fa657600080fd5b50565b600081359050613fb881613f92565b92915050565b60008060408385031215613fd557613fd4613635565b5b6000613fe385828601613688565b9250506020613ff485828601613fa9565b9150509250929050565b60008060006060848603121561401757614016613635565b5b6000614025868287016136be565b935050602084013567ffffffffffffffff8111156140465761404561363a565b5b61405286828701613ab7565b925050604084013567ffffffffffffffff8111156140735761407261363a565b5b61407f86828701613ab7565b9150509250925092565b600080600080608085870312156140a3576140a2613635565b5b60006140b187828801613688565b94505060206140c287828801613688565b935050604085013567ffffffffffffffff8111156140e3576140e261363a565b5b6140ef87828801613ab7565b925050606085013567ffffffffffffffff8111156141105761410f61363a565b5b61411c87828801613ab7565b91505092959194509250565b6000806040838503121561413f5761413e613635565b5b600061414d85828601613688565b925050602061415e85828601613688565b9150509250929050565b600060208201905061417d6000830184613825565b92915050565b600080600080600060a0868803121561419f5761419e613635565b5b60006141ad88828901613688565b95505060206141be88828901613688565b94505060406141cf888289016136be565b93505060606141e0888289016136be565b925050608086013567ffffffffffffffff8111156142015761420061363a565b5b61420d88828901613b6c565b9150509295509295909350565b60008060006060848603121561423357614232613635565b5b600061424186828701613688565b9350506020614252868287016136be565b9250506040614263868287016136be565b9150509250925092565b7f455243313135353a2061646472657373207a65726f206973206e6f742061207660008201527f616c6964206f776e657200000000000000000000000000000000000000000000602082015250565b60006142c9602a836138ed565b91506142d48261426d565b604082019050919050565b600060208201905081810360008301526142f8816142bc565b9050919050565b600067ffffffffffffffff82111561431a576143196139a2565b5b61432382613931565b9050602081019050919050565b600061434361433e846142ff565b613a02565b90508281526020810184848401111561435f5761435e613ae5565b5b61436a8482856138fe565b509392505050565b600082601f8301126143875761438661399d565b5b8151614397848260208601614330565b91505092915050565b6000602082840312156143b6576143b5613635565b5b600082015167ffffffffffffffff8111156143d4576143d361363a565b5b6143e084828501614372565b91505092915050565b7f455243313135353a2063616c6c6572206973206e6f7420746f6b656e206f776e60008201527f6572206e6f7220617070726f7665640000000000000000000000000000000000602082015250565b6000614445602f836138ed565b9150614450826143e9565b604082019050919050565b6000602082019050818103600083015261447481614438565b9050919050565b7f455243313135353a206163636f756e747320616e6420696473206c656e67746860008201527f206d69736d617463680000000000000000000000000000000000000000000000602082015250565b60006144d76029836138ed565b91506144e28261447b565b604082019050919050565b60006020820190508181036000830152614506816144ca565b9050919050565b7f4e487b7100000000000000000000000000000000000000000000000000000000600052603260045260246000fd5b7f4e487b7100000000000000000000000000000000000000000000000000000000600052601160045260246000fd5b60006145768261369d565b91507fffffffffffffffffffffffffffffffffffffffffffffffffffffffffffffffff8214156145a9576145a861453c565b5b600182019050919050565b7f45636f6e6f6d793a20746865206f6e6c7920616c6c6f7765642073656e64657260008201527f20697320746865206d65746176657273652073797374656d0000000000000000602082015250565b60006146106038836138ed565b915061461b826145b4565b604082019050919050565b6000602082019050818103600083015261463f81614603565b9050919050565b7f5361666545786368616e67653a20696e76616c6964206465616c000000000000600082015250565b600061467c601a836138ed565b915061468782614646565b602082019050919050565b600060208201905081810360008301526146ab8161466f565b9050919050565b7f5361666545786368616e67653a2063616c6c6572206973206e6f7420656d697460008201527f7465722f7265636569766572206e6f7220617070726f76656400000000000000602082015250565b600061470e6039836138ed565b9150614719826146b2565b604082019050919050565b6000602082019050818103600083015261473d81614701565b9050919050565b7f5361666545786368616e67653a2063616c6c6572206973206e6f7420656d697460008201527f746572206e6f7220617070726f76656400000000000000000000000000000000602082015250565b60006147a06030836138ed565b91506147ab82614744565b604082019050919050565b600060208201905081810360008301526147cf81614793565b9050919050565b7f5361666545786368616e67653a206465616c206973206e6f7420696e206a757360008201527f742d616363657074656420737461746500000000000000000000000000000000602082015250565b60006148326030836138ed565b915061483d826147d6565b604082019050919050565b6000602082019050818103600083015261486181614825565b9050919050565b7f5361666545786368616e67653a2063616c6c6572206973206e6f74207265636560008201527f69766572206e6f7220617070726f766564000000000000000000000000000000602082015250565b60006148c46031836138ed565b91506148cf82614868565b604082019050919050565b600060208201905081810360008301526148f3816148b7565b9050919050565b7f5361666545786368616e67653a20746f6b656e2069647320616e6420616d6f7560008201527f6e7473206c656e677468206d69736d61746368206f7220300000000000000000602082015250565b60006149566038836138ed565b9150614961826148fa565b604082019050919050565b6000602082019050818103600083015261498581614949565b9050919050565b7f5361666545786368616e67653a206465616c206973206e6f7420696e206a757360008201527f742d637265617465642073746174650000000000000000000000000000000000602082015250565b60006149e8602f836138ed565b91506149f38261498c565b604082019050919050565b60006020820190508181036000830152614a17816149db565b9050919050565b600081905092915050565b7f5361666545786368616e67653a20746f6b656e20696e20706f736974696f6e20600082015250565b6000614a5f602083614a1e565b9150614a6a82614a29565b602082019050919050565b6000614a80826138e2565b614a8a8185614a1e565b9350614a9a8185602086016138fe565b80840191505092915050565b7f206d757374206e6f74206861766520616d6f756e74206f662030000000000000600082015250565b6000614adc601a83614a1e565b9150614ae782614aa6565b601a82019050919050565b6000614afd82614a52565b9150614b098284614a75565b9150614b1482614acf565b915081905092915050565b7f5361666545786368616e67653a207472616e736665722066726f6d2f746f207460008201527f6865207a65726f20616464726573730000000000000000000000000000000000602082015250565b6000614b7b602f836138ed565b9150614b8682614b1f565b604082019050919050565b60006020820190508181036000830152614baa81614b6e565b9050919050565b6000614bbc8261369d565b9150614bc78361369d565b9250827fffffffffffffffffffffffffffffffffffffffffffffffffffffffffffffffff03821115614bfc57614bfb61453c565b5b828201905092915050565b7f455243313135353a2069647320616e6420616d6f756e7473206c656e6774682060008201527f6d69736d61746368000000000000000000000000000000000000000000000000602082015250565b6000614c636028836138ed565b9150614c6e82614c07565b604082019050919050565b60006020820190508181036000830152614c9281614c56565b9050919050565b7f455243313135353a207472616e7366657220746f20746865207a65726f20616460008201527f6472657373000000000000000000000000000000000000000000000000000000602082015250565b6000614cf56025836138ed565b9150614d0082614c99565b604082019050919050565b60006020820190508181036000830152614d2481614ce8565b9050919050565b7f455243313135353a20696e73756666696369656e742062616c616e636520666f60008201527f72207472616e7366657200000000000000000000000000000000000000000000602082015250565b6000614d87602a836138ed565b9150614d9282614d2b565b604082019050919050565b60006020820190508181036000830152614db681614d7a565b9050919050565b60006040820190508181036000830152614dd78185613e04565b90508181036020830152614deb8184613e04565b90509392505050565b7f455243313135353a206d696e7420746f20746865207a65726f2061646472657360008201527f7300000000000000000000000000000000000000000000000000000000000000602082015250565b6000614e506021836138ed565b9150614e5b82614df4565b604082019050919050565b60006020820190508181036000830152614e7f81614e43565b9050919050565b6000604082019050614e9b6000830185613713565b614ea86020830184613713565b9392505050565b7f455243313135353a206275726e2066726f6d20746865207a65726f206164647260008201527f6573730000000000000000000000000000000000000000000000000000000000602082015250565b6000614f0b6023836138ed565b9150614f1682614eaf565b604082019050919050565b60006020820190508181036000830152614f3a81614efe565b9050919050565b7f455243313135353a206275726e20616d6f756e7420657863656564732062616c60008201527f616e636500000000000000000000000000000000000000000000000000000000602082015250565b6000614f9d6024836138ed565b9150614fa882614f41565b604082019050919050565b60006020820190508181036000830152614fcc81614f90565b9050919050565b7f455243313135353a2073657474696e6720617070726f76616c2073746174757360008201527f20666f722073656c660000000000000000000000000000000000000000000000602082015250565b600061502f6029836138ed565b915061503a82614fd3565b604082019050919050565b6000602082019050818103600083015261505e81615022565b9050919050565b7f45636f6e6f6d793a20657865637574696e67206465616c200000000000000000600082015250565b600061509b601883614a1e565b91506150a682615065565b601882019050919050565b60006150bc8261508e565b91506150c88284614a75565b915081905092915050565b7f4e487b7100000000000000000000000000000000000000000000000000000000600052601260045260246000fd5b600061510d8261369d565b91506151188361369d565b925082615128576151276150d3565b5b828204905092915050565b600061513e8261369d565b91506151498361369d565b92508282101561515c5761515b61453c565b5b828203905092915050565b60006151728261369d565b915061517d8361369d565b92508261518d5761518c6150d3565b5b828206905092915050565b6151a18161373d565b82525050565b60006020820190506151bc6000830184615198565b92915050565b600081519050919050565b600081905092915050565b60006151e3826151c2565b6151ed81856151cd565b93506151fd8185602086016138fe565b80840191505092915050565b600061521582846151d8565b915081905092915050565b60008151905061522f81613f92565b92915050565b60006020828403121561524b5761524a613635565b5b600061525984828501615220565b91505092915050565b60006040820190506152776000830185613825565b6152846020830184613825565b9392505050565b60006040820190506152a06000830185613713565b6152ad6020830184613825565b9392505050565b600082825260208201905092915050565b60006152d0826151c2565b6152da81856152b4565b93506152ea8185602086016138fe565b6152f381613931565b840191505092915050565b600060a0820190506153136000830188613825565b6153206020830187613825565b81810360408301526153328186613e04565b905081810360608301526153468185613e04565b9050818103608083015261535a81846152c5565b90509695505050505050565b60008151905061537581613769565b92915050565b60006020828403121561539157615390613635565b5b600061539f84828501615366565b91505092915050565b60008160e01c9050919050565b600060033d11156153d45760046000803e6153d16000516153a8565b90505b90565b600060443d10156153e75761546a565b6153ef61362b565b60043d036004823e80513d602482011167ffffffffffffffff8211171561541757505061546a565b808201805167ffffffffffffffff811115615435575050505061546a565b80602083010160043d03850181111561545257505050505061546a565b615461826020018501866139d1565b82955050505050505b90565b7f455243313135353a207472616e7366657220746f206e6f6e204552433131353560008201527f526563656976657220696d706c656d656e746572000000000000000000000000602082015250565b60006154c96034836138ed565b91506154d48261546d565b604082019050919050565b600060208201905081810360008301526154f8816154bc565b9050919050565b7f455243313135353a204552433131353552656365697665722072656a6563746560008201527f6420746f6b656e73000000000000000000000000000000000000000000000000602082015250565b600061555b6028836138ed565b9150615566826154ff565b604082019050919050565b6000602082019050818103600083015261558a8161554e565b9050919050565b600060a0820190506155a66000830188613825565b6155b36020830187613825565b6155c06040830186613713565b6155cd6060830185613713565b81810360808301526155df81846152c5565b9050969550505050505056fea26469706673582212200ecc773c70c51293931c7582df05a55bde3494e04535da1aa2e2a01ce66be7f864736f6c634300080a0033",
  "immutableReferences": {},
  "source": "// SPDX-License-Identifier: MIT\npragma solidity >=0.8 <0.9.0;\n\nimport \"@openzeppelin/contracts/token/ERC1155/ERC1155.sol\";\nimport \"@openzeppelin/contracts/utils/introspection/ERC165Checker.sol\";\nimport \"@openzeppelin/contracts/utils/introspection/ERC165.sol\";\nimport \"./IEconomy.sol\";\nimport \"../IMetaverse.sol\";\nimport \"../IMetaverseOwned.sol\";\nimport \"./SafeExchange.sol\";\n\n/**\n * An economy system is a regular ERC1155, but the url will\n * not be stated, and also this contract will belong to a\n * particular metaverse.\n */\ncontract Economy is ERC1155, IEconomy, IMetaverseOwned, SafeExchange {\n    /**\n     * Addresses can check for ERC165 compliance by using this\n     * embeddable library.\n     */\n    using ERC165Checker for address;\n\n    /**\n     * The metaverse that will own this economy system.\n     */\n    address public metaverse;\n\n    /**\n     * Creating an economy system requires a valid metaverse\n     * registrar as its owner.\n     */\n    constructor(address _metaverse) ERC1155(\"\") {\n        require(_metaverse != address(0), \"Economy: the owner contract must not be 0\");\n        require(\n            _metaverse.supportsInterface(type(IMetaverse).interfaceId),\n            \"Economy: the owner contract must implement IMetaverse\"\n        );\n        metaverse = _metaverse;\n    }\n\n    /**\n     * For the deals: This hook invokes a parent batch transfer involving deals.\n     */\n    function _batchTransfer(\n        uint256 _dealIndex, address _from, address _to, uint256[] memory _tokenIds, uint256[] memory _tokenAmounts\n    ) internal override {\n        _safeBatchTransferFrom(_from, _to, _tokenIds, _tokenAmounts, abi.encodePacked(\n            \"Economy: executing deal \", Strings.toString(_dealIndex)\n        ));\n    }\n\n    /**\n     * For the deals: This hook tells whether a sender is allowed for a party in a deal.\n     */\n    function _isApproved(address _party, address _sender) internal override view returns (bool) {\n        return isApprovedForAll(_party, _sender);\n    }\n\n    /**\n     * Processes a token transfer or burn appropriately. Burns are\n     * forwarded using the metaverse.\n     */\n    function _afterTokenTransfer(\n        address, address from, address to, uint256[] memory ids, uint256[] memory amounts, bytes memory\n    ) internal override {\n        uint256 length = amounts.length;\n        if (from != address(0)) {\n            // Process transfer:\n            if (to != address(0)) {\n                // Brands will be transfer-processed.\n                for(uint256 index = 0; index < length; index++) {\n                    if (ids[index] < (1 << 160) && amounts[index] != 0) {\n                        address brandId = address(uint160(ids[index]));\n                        _setApprovalForAll(brandId, from, false);\n                        _setApprovalForAll(brandId, to, true);\n                        IMetaverse(metaverse).onBrandOwnerChanged(brandId, to);\n                    }\n                }\n            }\n            // Process transfer or a burn.\n            // NFTs will be transfer/burn processed.\n            for(uint256 index = 0; index < length; index++) {\n                // Other NFT types will have their own process\n                // to be notified - all of them through the\n                // metaverse instance they live into.\n                if (ids[index] < (1 << 255) && ids[index] >= (1 << 160)) {\n                    IMetaverse(metaverse).onNFTOwnerChanged(ids[index], to);\n                }\n            }\n        }\n        else\n        {\n            // Minting brands will be processed here, but\n            // there is no need of actually sending the\n            // onBrandOwnerChanged() event, since brand\n            // registry will be aware of the creation.\n            // Other assets will not be processed here.\n            for(uint256 index = 0; index < length; index++) {\n                if (ids[index] < (1 << 160) && amounts[index] != 0) {\n                    address brandId = address(uint160(ids[index]));\n                    _setApprovalForAll(brandId, to, true);\n                }\n            }\n        }\n    }\n\n    /**\n     * This brand registry satisfies the IERC1155, the IBrandRegistry and IERC165 interfaces.\n     */\n    function supportsInterface(bytes4 interfaceId) public view virtual override(ERC1155, IERC165) returns (bool) {\n        return interfaceId == type(IERC165).interfaceId ||\n               interfaceId == type(IEconomy).interfaceId ||\n               interfaceId == type(IERC1155).interfaceId ||\n               interfaceId == type(IMetaverseOwned).interfaceId;\n    }\n\n    /**\n     * Querying the url is now defined depending on the metaverse.\n     */\n    function uri(uint256 _tokenId) public view override returns (string memory) {\n        return IMetaverse(metaverse).tokenURI(_tokenId);\n    }\n\n    /**\n     * Mints a token for a particular account.\n     */\n    function mintFor(address _to, uint256 _tokenId, uint256 _amount, bytes memory _data) public onlyMetaverse {\n        _mint(_to, _tokenId, _amount, _data);\n    }\n\n    /**\n     * Burns any token from the metaverse (actually: from plugins).\n     */\n    function burn(address _from, uint256 _tokenId, uint256 _amount) external onlyMetaverse {\n        _burn(_from, _tokenId, _amount);\n    }\n\n    /**\n     * Burns many tokens from the metaverse (actually: from plugins).\n     */\n    function burnBatch(address _from, uint256[] memory _tokenIds, uint256[] memory _amounts) external onlyMetaverse {\n        _burnBatch(_from, _tokenIds, _amounts);\n    }\n\n    /**\n     * This modifier restricts function to be only invoked by the metaverse.\n     */\n    modifier onlyMetaverse() {\n        require(msg.sender == metaverse, \"Economy: the only allowed sender is the metaverse system\");\n        _;\n    }\n}\n",
  "sourcePath": "/home/luismasuelli/Projects/OuterMaze/semperland-contracts/contracts/semperland/economy/Economy.sol",
  "compiler": {
    "name": "solc",
    "version": "0.8.10+commit.fc410830.Emscripten.clang"
  },
  "schemaVersion": "3.4.3",
  "updatedAt": "2022-11-16T03:15:43.252Z",
  "devdoc": {
    "kind": "dev",
    "methods": {
      "balanceOf(address,uint256)": {
        "details": "See {IERC1155-balanceOf}. Requirements: - `account` cannot be the zero address."
      },
      "balanceOfBatch(address[],uint256[])": {
        "details": "See {IERC1155-balanceOfBatch}. Requirements: - `accounts` and `ids` must have the same length."
      },
      "isApprovedForAll(address,address)": {
        "details": "See {IERC1155-isApprovedForAll}."
      },
      "safeBatchTransferFrom(address,address,uint256[],uint256[],bytes)": {
        "details": "See {IERC1155-safeBatchTransferFrom}."
      },
      "safeTransferFrom(address,address,uint256,uint256,bytes)": {
        "details": "See {IERC1155-safeTransferFrom}."
      },
      "setApprovalForAll(address,bool)": {
        "details": "See {IERC1155-setApprovalForAll}."
      }
    },
    "version": 1
  },
  "userdoc": {
    "events": {
      "DealAccepted(uint256,address,address)": {
        "notice": "This event is raised when a deal is accepted by the receiver."
      },
      "DealBroken(uint256,address)": {
        "notice": "This event is raised when a deal is broken by its emitter, the receiver, or an operator on behalf of any of them."
      },
      "DealConfirmed(uint256,address,address)": {
        "notice": "This event is raised when a deal is confirmed by its creator, after the receiver's acceptance."
      },
      "DealStarted(uint256,address,address)": {
        "notice": "This event is raised when a new deal is created."
      }
    },
    "kind": "user",
    "methods": {
      "burn(address,uint256,uint256)": {
        "notice": "Burns any token from the metaverse (actually: from plugins)."
      },
      "burnBatch(address,uint256[],uint256[])": {
        "notice": "Burns many tokens from the metaverse (actually: from plugins)."
      },
      "constructor": {
        "notice": "Creating an economy system requires a valid metaverse registrar as its owner."
      },
      "dealAccept(uint256,uint256[],uint256[])": {
        "notice": "Accepting a deal requires the deal to be valid, the sender to be the deal receiver (or an allowed operator of the deal receiver), and the deal to be in the appropriate state. Also, the objects data must be non-empty and no element must be 0."
      },
      "dealBreak(uint256)": {
        "notice": "Breaking a deal requires the deal to be valid, the sender to be the emitter (or approved) or the receiver (or approved)."
      },
      "dealConfirm(uint256)": {
        "notice": "Confirming a deal requires the deal to be valid, the sender to be the deal emitter (or an allowed operator of the deal emitter), and the deal to be in the appropriate state."
      },
      "dealStart(address,address,uint256[],uint256[])": {
        "notice": "Starting a deal requires the sender to be the _emitter address or an address the sender can operate on their behalf. Also, the objects data must be non-empty, and no element must be 0."
      },
      "deals(uint256)": {
        "notice": "All the ACTIVE / PENDING deals instantiated so far."
      },
      "metaverse()": {
        "notice": "The metaverse that will own this economy system."
      },
      "mintFor(address,uint256,uint256,bytes)": {
        "notice": "Mints a token for a particular account."
      },
      "supportsInterface(bytes4)": {
        "notice": "This brand registry satisfies the IERC1155, the IBrandRegistry and IERC165 interfaces."
      },
      "uri(uint256)": {
        "notice": "Querying the url is now defined depending on the metaverse."
      }
    },
    "notice": "An economy system is a regular ERC1155, but the url will not be stated, and also this contract will belong to a particular metaverse.",
    "version": 1
  }
}