{
  "contractName": "Economy",
  "abi": [
    {
      "inputs": [
        {
          "internalType": "address",
          "name": "_metaverse",
          "type": "address"
        }
      ],
      "stateMutability": "nonpayable",
      "type": "constructor"
    },
    {
      "anonymous": false,
      "inputs": [
        {
          "indexed": true,
          "internalType": "address",
          "name": "account",
          "type": "address"
        },
        {
          "indexed": true,
          "internalType": "address",
          "name": "operator",
          "type": "address"
        },
        {
          "indexed": false,
          "internalType": "bool",
          "name": "approved",
          "type": "bool"
        }
      ],
      "name": "ApprovalForAll",
      "type": "event"
    },
    {
      "anonymous": false,
      "inputs": [
        {
          "indexed": true,
          "internalType": "uint256",
          "name": "dealId",
          "type": "uint256"
        },
        {
          "indexed": true,
          "internalType": "address",
          "name": "emitter",
          "type": "address"
        },
        {
          "indexed": true,
          "internalType": "address",
          "name": "receiver",
          "type": "address"
        },
        {
          "indexed": false,
          "internalType": "uint256[]",
          "name": "receiverTokenIds",
          "type": "uint256[]"
        },
        {
          "indexed": false,
          "internalType": "uint256[]",
          "name": "receiverTokenAmounts",
          "type": "uint256[]"
        }
      ],
      "name": "DealAccepted",
      "type": "event"
    },
    {
      "anonymous": false,
      "inputs": [
        {
          "indexed": true,
          "internalType": "uint256",
          "name": "dealId",
          "type": "uint256"
        },
        {
          "indexed": true,
          "internalType": "address",
          "name": "breaker",
          "type": "address"
        }
      ],
      "name": "DealBroken",
      "type": "event"
    },
    {
      "anonymous": false,
      "inputs": [
        {
          "indexed": true,
          "internalType": "uint256",
          "name": "dealId",
          "type": "uint256"
        },
        {
          "indexed": true,
          "internalType": "address",
          "name": "emitter",
          "type": "address"
        },
        {
          "indexed": true,
          "internalType": "address",
          "name": "receiver",
          "type": "address"
        }
      ],
      "name": "DealConfirmed",
      "type": "event"
    },
    {
      "anonymous": false,
      "inputs": [
        {
          "indexed": true,
          "internalType": "uint256",
          "name": "dealId",
          "type": "uint256"
        },
        {
          "indexed": true,
          "internalType": "address",
          "name": "emitter",
          "type": "address"
        },
        {
          "indexed": true,
          "internalType": "address",
          "name": "receiver",
          "type": "address"
        },
        {
          "indexed": false,
          "internalType": "uint256[]",
          "name": "emitterTokenIds",
          "type": "uint256[]"
        },
        {
          "indexed": false,
          "internalType": "uint256[]",
          "name": "emitterTokenAmounts",
          "type": "uint256[]"
        }
      ],
      "name": "DealStarted",
      "type": "event"
    },
    {
      "anonymous": false,
      "inputs": [
        {
          "indexed": true,
          "internalType": "address",
          "name": "operator",
          "type": "address"
        },
        {
          "indexed": true,
          "internalType": "address",
          "name": "from",
          "type": "address"
        },
        {
          "indexed": true,
          "internalType": "address",
          "name": "to",
          "type": "address"
        },
        {
          "indexed": false,
          "internalType": "uint256[]",
          "name": "ids",
          "type": "uint256[]"
        },
        {
          "indexed": false,
          "internalType": "uint256[]",
          "name": "values",
          "type": "uint256[]"
        }
      ],
      "name": "TransferBatch",
      "type": "event"
    },
    {
      "anonymous": false,
      "inputs": [
        {
          "indexed": true,
          "internalType": "address",
          "name": "operator",
          "type": "address"
        },
        {
          "indexed": true,
          "internalType": "address",
          "name": "from",
          "type": "address"
        },
        {
          "indexed": true,
          "internalType": "address",
          "name": "to",
          "type": "address"
        },
        {
          "indexed": false,
          "internalType": "uint256",
          "name": "id",
          "type": "uint256"
        },
        {
          "indexed": false,
          "internalType": "uint256",
          "name": "value",
          "type": "uint256"
        }
      ],
      "name": "TransferSingle",
      "type": "event"
    },
    {
      "anonymous": false,
      "inputs": [
        {
          "indexed": false,
          "internalType": "string",
          "name": "value",
          "type": "string"
        },
        {
          "indexed": true,
          "internalType": "uint256",
          "name": "id",
          "type": "uint256"
        }
      ],
      "name": "URI",
      "type": "event"
    },
    {
      "inputs": [
        {
          "internalType": "address",
          "name": "account",
          "type": "address"
        },
        {
          "internalType": "uint256",
          "name": "id",
          "type": "uint256"
        }
      ],
      "name": "balanceOf",
      "outputs": [
        {
          "internalType": "uint256",
          "name": "",
          "type": "uint256"
        }
      ],
      "stateMutability": "view",
      "type": "function"
    },
    {
      "inputs": [
        {
          "internalType": "address[]",
          "name": "accounts",
          "type": "address[]"
        },
        {
          "internalType": "uint256[]",
          "name": "ids",
          "type": "uint256[]"
        }
      ],
      "name": "balanceOfBatch",
      "outputs": [
        {
          "internalType": "uint256[]",
          "name": "",
          "type": "uint256[]"
        }
      ],
      "stateMutability": "view",
      "type": "function"
    },
    {
      "inputs": [
        {
          "internalType": "uint256",
          "name": "_dealIndex",
          "type": "uint256"
        },
        {
          "internalType": "uint256[]",
          "name": "_tokenIds",
          "type": "uint256[]"
        },
        {
          "internalType": "uint256[]",
          "name": "_tokenAmounts",
          "type": "uint256[]"
        }
      ],
      "name": "dealAccept",
      "outputs": [],
      "stateMutability": "nonpayable",
      "type": "function"
    },
    {
      "inputs": [
        {
          "internalType": "uint256",
          "name": "_dealIndex",
          "type": "uint256"
        }
      ],
      "name": "dealBreak",
      "outputs": [],
      "stateMutability": "nonpayable",
      "type": "function"
    },
    {
      "inputs": [
        {
          "internalType": "uint256",
          "name": "_dealIndex",
          "type": "uint256"
        }
      ],
      "name": "dealConfirm",
      "outputs": [],
      "stateMutability": "nonpayable",
      "type": "function"
    },
    {
      "inputs": [
        {
          "internalType": "address",
          "name": "_emitter",
          "type": "address"
        },
        {
          "internalType": "address",
          "name": "_receiver",
          "type": "address"
        },
        {
          "internalType": "uint256[]",
          "name": "_tokenIds",
          "type": "uint256[]"
        },
        {
          "internalType": "uint256[]",
          "name": "_tokenAmounts",
          "type": "uint256[]"
        }
      ],
      "name": "dealStart",
      "outputs": [],
      "stateMutability": "nonpayable",
      "type": "function"
    },
    {
      "inputs": [
        {
          "internalType": "uint256",
          "name": "",
          "type": "uint256"
        }
      ],
      "name": "deals",
      "outputs": [
        {
          "internalType": "address",
          "name": "emitter",
          "type": "address"
        },
        {
          "internalType": "address",
          "name": "receiver",
          "type": "address"
        },
        {
          "internalType": "enum SafeExchange.DealState",
          "name": "state",
          "type": "uint8"
        }
      ],
      "stateMutability": "view",
      "type": "function"
    },
    {
      "inputs": [
        {
          "internalType": "address",
          "name": "account",
          "type": "address"
        },
        {
          "internalType": "address",
          "name": "operator",
          "type": "address"
        }
      ],
      "name": "isApprovedForAll",
      "outputs": [
        {
          "internalType": "bool",
          "name": "",
          "type": "bool"
        }
      ],
      "stateMutability": "view",
      "type": "function"
    },
    {
      "inputs": [],
      "name": "metaverse",
      "outputs": [
        {
          "internalType": "address",
          "name": "",
          "type": "address"
        }
      ],
      "stateMutability": "view",
      "type": "function"
    },
    {
      "inputs": [
        {
          "internalType": "address",
          "name": "from",
          "type": "address"
        },
        {
          "internalType": "address",
          "name": "to",
          "type": "address"
        },
        {
          "internalType": "uint256[]",
          "name": "ids",
          "type": "uint256[]"
        },
        {
          "internalType": "uint256[]",
          "name": "amounts",
          "type": "uint256[]"
        },
        {
          "internalType": "bytes",
          "name": "data",
          "type": "bytes"
        }
      ],
      "name": "safeBatchTransferFrom",
      "outputs": [],
      "stateMutability": "nonpayable",
      "type": "function"
    },
    {
      "inputs": [
        {
          "internalType": "address",
          "name": "from",
          "type": "address"
        },
        {
          "internalType": "address",
          "name": "to",
          "type": "address"
        },
        {
          "internalType": "uint256",
          "name": "id",
          "type": "uint256"
        },
        {
          "internalType": "uint256",
          "name": "amount",
          "type": "uint256"
        },
        {
          "internalType": "bytes",
          "name": "data",
          "type": "bytes"
        }
      ],
      "name": "safeTransferFrom",
      "outputs": [],
      "stateMutability": "nonpayable",
      "type": "function"
    },
    {
      "inputs": [
        {
          "internalType": "address",
          "name": "operator",
          "type": "address"
        },
        {
          "internalType": "bool",
          "name": "approved",
          "type": "bool"
        }
      ],
      "name": "setApprovalForAll",
      "outputs": [],
      "stateMutability": "nonpayable",
      "type": "function"
    },
    {
      "inputs": [
        {
          "internalType": "bytes4",
          "name": "interfaceId",
          "type": "bytes4"
        }
      ],
      "name": "supportsInterface",
      "outputs": [
        {
          "internalType": "bool",
          "name": "",
          "type": "bool"
        }
      ],
      "stateMutability": "view",
      "type": "function"
    },
    {
      "inputs": [
        {
          "internalType": "uint256",
          "name": "_tokenId",
          "type": "uint256"
        }
      ],
      "name": "uri",
      "outputs": [
        {
          "internalType": "string",
          "name": "",
          "type": "string"
        }
      ],
      "stateMutability": "view",
      "type": "function"
    },
    {
      "inputs": [
        {
          "internalType": "address",
          "name": "_to",
          "type": "address"
        },
        {
          "internalType": "uint256",
          "name": "_tokenId",
          "type": "uint256"
        },
        {
          "internalType": "uint256",
          "name": "_amount",
          "type": "uint256"
        },
        {
          "internalType": "bytes",
          "name": "_data",
          "type": "bytes"
        }
      ],
      "name": "mintFor",
      "outputs": [],
      "stateMutability": "nonpayable",
      "type": "function"
    },
    {
      "inputs": [
        {
          "internalType": "address",
          "name": "_from",
          "type": "address"
        },
        {
          "internalType": "uint256",
          "name": "_tokenId",
          "type": "uint256"
        },
        {
          "internalType": "uint256",
          "name": "_amount",
          "type": "uint256"
        }
      ],
      "name": "burn",
      "outputs": [],
      "stateMutability": "nonpayable",
      "type": "function"
    },
    {
      "inputs": [
        {
          "internalType": "address",
          "name": "_from",
          "type": "address"
        },
        {
          "internalType": "uint256[]",
          "name": "_tokenIds",
          "type": "uint256[]"
        },
        {
          "internalType": "uint256[]",
          "name": "_amounts",
          "type": "uint256[]"
        }
      ],
      "name": "burnBatch",
      "outputs": [],
      "stateMutability": "nonpayable",
      "type": "function"
    }
  ],
  "bytecode": "0x608060405260006003553480156200001657600080fd5b5060405162005b8938038062005b8983398181016040528101906200003c9190620004ab565b604051806020016040528060008152506200005d81620001ab60201b60201c565b50600073ffffffffffffffffffffffffffffffffffffffff168173ffffffffffffffffffffffffffffffffffffffff161415620000d1576040517f08c379a0000000000000000000000000000000000000000000000000000000008152600401620000c89062000564565b60405180910390fd5b620001217f5d945e5b000000000000000000000000000000000000000000000000000000008273ffffffffffffffffffffffffffffffffffffffff16620001c760201b62001c031790919060201c565b62000163576040517f08c379a00000000000000000000000000000000000000000000000000000000081526004016200015a90620005fc565b60405180910390fd5b80600560006101000a81548173ffffffffffffffffffffffffffffffffffffffff021916908373ffffffffffffffffffffffffffffffffffffffff16021790555050620007e8565b8060029080519060200190620001c392919062000391565b5050565b6000620001da83620001fd60201b60201c565b8015620001f55750620001f483836200025b60201b60201c565b5b905092915050565b600062000231827f01ffc9a7000000000000000000000000000000000000000000000000000000006200025b60201b60201c565b8015620002545750620002528263ffffffff60e01b6200025b60201b60201c565b155b9050919050565b6000806301ffc9a760e01b836040516024016200027991906200065b565b604051602081830303815290604052907bffffffffffffffffffffffffffffffffffffffffffffffffffffffff19166020820180517bffffffffffffffffffffffffffffffffffffffffffffffffffffffff838183161783525050505090506000808573ffffffffffffffffffffffffffffffffffffffff1661753084604051620003059190620006fb565b6000604051808303818686fa925050503d806000811462000343576040519150601f19603f3d011682016040523d82523d6000602084013e62000348565b606091505b50915091506020815110156200036557600093505050506200038b565b8180156200038557508080602001905181019062000384919062000751565b5b93505050505b92915050565b8280546200039f90620007b2565b90600052602060002090601f016020900481019282620003c357600085556200040f565b82601f10620003de57805160ff19168380011785556200040f565b828001600101855582156200040f579182015b828111156200040e578251825591602001919060010190620003f1565b5b5090506200041e919062000422565b5090565b5b808211156200043d57600081600090555060010162000423565b5090565b600080fd5b600073ffffffffffffffffffffffffffffffffffffffff82169050919050565b6000620004738262000446565b9050919050565b620004858162000466565b81146200049157600080fd5b50565b600081519050620004a5816200047a565b92915050565b600060208284031215620004c457620004c362000441565b5b6000620004d48482850162000494565b91505092915050565b600082825260208201905092915050565b7f45636f6e6f6d793a20746865206f776e657220636f6e7472616374206d75737460008201527f206e6f7420626520300000000000000000000000000000000000000000000000602082015250565b60006200054c602983620004dd565b91506200055982620004ee565b604082019050919050565b600060208201905081810360008301526200057f816200053d565b9050919050565b7f45636f6e6f6d793a20746865206f776e657220636f6e7472616374206d75737460008201527f20696d706c656d656e7420494d65746176657273650000000000000000000000602082015250565b6000620005e4603583620004dd565b9150620005f18262000586565b604082019050919050565b600060208201905081810360008301526200061781620005d5565b9050919050565b60007fffffffff0000000000000000000000000000000000000000000000000000000082169050919050565b62000655816200061e565b82525050565b60006020820190506200067260008301846200064a565b92915050565b600081519050919050565b600081905092915050565b60005b83811015620006ae57808201518184015260208101905062000691565b83811115620006be576000848401525b50505050565b6000620006d18262000678565b620006dd818562000683565b9350620006ef8185602086016200068e565b80840191505092915050565b6000620007098284620006c4565b915081905092915050565b60008115159050919050565b6200072b8162000714565b81146200073757600080fd5b50565b6000815190506200074b8162000720565b92915050565b6000602082840312156200076a576200076962000441565b5b60006200077a848285016200073a565b91505092915050565b7f4e487b7100000000000000000000000000000000000000000000000000000000600052602260045260246000fd5b60006002820490506001821680620007cb57607f821691505b60208210811415620007e257620007e162000783565b5b50919050565b61539180620007f86000396000f3fe608060405234801561001057600080fd5b506004361061010a5760003560e01c80636b20c454116100a2578063e067bd6f11610071578063e067bd6f146102c5578063e985e9c5146102e1578063f200670d14610311578063f242432a1461032f578063f5298aca1461034b5761010a565b80636b20c45414610255578063a22cb46514610271578063c3e500271461028d578063d22d2359146102a95761010a565b80632eb2c2d6116100de5780632eb2c2d6146101d15780634e1273f4146101ed5780635b0034fd1461021d5780636344bb13146102395761010a565b8062fdd58e1461010f57806301ffc9a71461013f57806303988f841461016f5780630e89341c146101a1575b600080fd5b6101296004803603810190610124919061346c565b610367565b60405161013691906134bb565b60405180910390f35b6101596004803603810190610154919061352e565b610430565b6040516101669190613576565b60405180910390f35b61018960048036038101906101849190613591565b61056a565b60405161019893929190613644565b60405180910390f35b6101bb60048036038101906101b69190613591565b6105e1565b6040516101c89190613714565b60405180910390f35b6101eb60048036038101906101e69190613933565b61068b565b005b61020760048036038101906102029190613ac5565b61072c565b6040516102149190613bfb565b60405180910390f35b61023760048036038101906102329190613c1d565b610845565b005b610253600480360381019061024e9190613591565b6108e7565b005b61026f600480360381019061026a9190613ca0565b610b95565b005b61028b60048036038101906102869190613d57565b610c35565b005b6102a760048036038101906102a29190613591565b610c4b565b005b6102c360048036038101906102be9190613d97565b611157565b005b6102df60048036038101906102da9190613e22565b6114ff565b005b6102fb60048036038101906102f69190613ec1565b611a08565b6040516103089190613576565b60405180910390f35b610319611a9c565b6040516103269190613f01565b60405180910390f35b61034960048036038101906103449190613f1c565b611ac2565b005b61036560048036038101906103609190613fb3565b611b63565b005b60008073ffffffffffffffffffffffffffffffffffffffff168373ffffffffffffffffffffffffffffffffffffffff1614156103d8576040517f08c379a00000000000000000000000000000000000000000000000000000000081526004016103cf90614078565b60405180910390fd5b60008083815260200190815260200160002060008473ffffffffffffffffffffffffffffffffffffffff1673ffffffffffffffffffffffffffffffffffffffff16815260200190815260200160002054905092915050565b60007f01ffc9a7000000000000000000000000000000000000000000000000000000007bffffffffffffffffffffffffffffffffffffffffffffffffffffffff1916827bffffffffffffffffffffffffffffffffffffffffffffffffffffffff191614806104fb57507f37091d6e000000000000000000000000000000000000000000000000000000007bffffffffffffffffffffffffffffffffffffffffffffffffffffffff1916827bffffffffffffffffffffffffffffffffffffffffffffffffffffffff1916145b8061056357507fd9b67a26000000000000000000000000000000000000000000000000000000007bffffffffffffffffffffffffffffffffffffffffffffffffffffffff1916827bffffffffffffffffffffffffffffffffffffffffffffffffffffffff1916145b9050919050565b60046020528060005260406000206000915090508060000160009054906101000a900473ffffffffffffffffffffffffffffffffffffffff16908060010160009054906101000a900473ffffffffffffffffffffffffffffffffffffffff16908060060160009054906101000a900460ff16905083565b6060600560009054906101000a900473ffffffffffffffffffffffffffffffffffffffff1673ffffffffffffffffffffffffffffffffffffffff1663c87b56dd836040518263ffffffff1660e01b815260040161063e91906134bb565b600060405180830381865afa15801561065b573d6000803e3d6000fd5b505050506040513d6000823e3d601f19601f820116820180604052508101906106849190614139565b9050919050565b610693611c28565b73ffffffffffffffffffffffffffffffffffffffff168573ffffffffffffffffffffffffffffffffffffffff1614806106d957506106d8856106d3611c28565b611a08565b5b610718576040517f08c379a000000000000000000000000000000000000000000000000000000000815260040161070f906141f4565b60405180910390fd5b6107258585858585611c30565b5050505050565b60608151835114610772576040517f08c379a000000000000000000000000000000000000000000000000000000000815260040161076990614286565b60405180910390fd5b6000835167ffffffffffffffff81111561078f5761078e61373b565b5b6040519080825280602002602001820160405280156107bd5781602001602082028036833780820191505090505b50905060005b845181101561083a5761080a8582815181106107e2576107e16142a6565b5b60200260200101518583815181106107fd576107fc6142a6565b5b6020026020010151610367565b82828151811061081d5761081c6142a6565b5b6020026020010181815250508061083390614304565b90506107c3565b508091505092915050565b600560009054906101000a900473ffffffffffffffffffffffffffffffffffffffff1673ffffffffffffffffffffffffffffffffffffffff163373ffffffffffffffffffffffffffffffffffffffff16146108d5576040517f08c379a00000000000000000000000000000000000000000000000000000000081526004016108cc906143bf565b60405180910390fd5b6108e184848484611f52565b50505050565b600060046000838152602001908152602001600020905060008160000160009054906101000a900473ffffffffffffffffffffffffffffffffffffffff16905060008260010160009054906101000a900473ffffffffffffffffffffffffffffffffffffffff169050600061095a611c28565b9050600073ffffffffffffffffffffffffffffffffffffffff168373ffffffffffffffffffffffffffffffffffffffff1614156109cc576040517f08c379a00000000000000000000000000000000000000000000000000000000081526004016109c39061442b565b60405180910390fd5b8073ffffffffffffffffffffffffffffffffffffffff168373ffffffffffffffffffffffffffffffffffffffff161480610a0c5750610a0b8382612103565b5b80610a4257508073ffffffffffffffffffffffffffffffffffffffff168273ffffffffffffffffffffffffffffffffffffffff16145b80610a535750610a528282612103565b5b610a92576040517f08c379a0000000000000000000000000000000000000000000000000000000008152600401610a89906144bd565b60405180910390fd5b8073ffffffffffffffffffffffffffffffffffffffff16857f90af83379d8595c89e65f7a24d8e34d82ba665bd027f7e7c61529730189bc57160405160405180910390a360046000868152602001908152602001600020600080820160006101000a81549073ffffffffffffffffffffffffffffffffffffffff02191690556001820160006101000a81549073ffffffffffffffffffffffffffffffffffffffff0219169055600282016000610b489190613339565b600382016000610b589190613339565b600482016000610b689190613339565b600582016000610b789190613339565b6006820160006101000a81549060ff021916905550505050505050565b600560009054906101000a900473ffffffffffffffffffffffffffffffffffffffff1673ffffffffffffffffffffffffffffffffffffffff163373ffffffffffffffffffffffffffffffffffffffff1614610c25576040517f08c379a0000000000000000000000000000000000000000000000000000000008152600401610c1c906143bf565b60405180910390fd5b610c30838383612117565b505050565b610c47610c40611c28565b83836123e6565b5050565b600060046000838152602001908152602001600020905060008160000160009054906101000a900473ffffffffffffffffffffffffffffffffffffffff169050600073ffffffffffffffffffffffffffffffffffffffff168173ffffffffffffffffffffffffffffffffffffffff161415610cfb576040517f08c379a0000000000000000000000000000000000000000000000000000000008152600401610cf29061442b565b60405180910390fd5b610d03611c28565b73ffffffffffffffffffffffffffffffffffffffff168173ffffffffffffffffffffffffffffffffffffffff161480610d495750610d4881610d43611c28565b612103565b5b610d88576040517f08c379a0000000000000000000000000000000000000000000000000000000008152600401610d7f9061454f565b60405180910390fd5b60008260060160009054906101000a900460ff169050600180811115610db157610db06135cd565b5b816001811115610dc457610dc36135cd565b5b14610e04576040517f08c379a0000000000000000000000000000000000000000000000000000000008152600401610dfb906145e1565b60405180910390fd5b610efd848460000160009054906101000a900473ffffffffffffffffffffffffffffffffffffffff168560010160009054906101000a900473ffffffffffffffffffffffffffffffffffffffff1686600201805480602002602001604051908101604052809291908181526020018280548015610ea057602002820191906000526020600020905b815481526020019060010190808311610e8c575b505050505087600301805480602002602001604051908101604052809291908181526020018280548015610ef357602002820191906000526020600020905b815481526020019060010190808311610edf575b5050505050612553565b610ff6848460010160009054906101000a900473ffffffffffffffffffffffffffffffffffffffff168560000160009054906101000a900473ffffffffffffffffffffffffffffffffffffffff1686600401805480602002602001604051908101604052809291908181526020018280548015610f9957602002820191906000526020600020905b815481526020019060010190808311610f85575b505050505087600501805480602002602001604051908101604052809291908181526020018280548015610fec57602002820191906000526020600020905b815481526020019060010190808311610fd8575b5050505050612553565b8260010160009054906101000a900473ffffffffffffffffffffffffffffffffffffffff1673ffffffffffffffffffffffffffffffffffffffff168360000160009054906101000a900473ffffffffffffffffffffffffffffffffffffffff1673ffffffffffffffffffffffffffffffffffffffff16857fa5fbbfff4decd4f44ed03e28267dd014277bccd985cc2153acfa058f41ae8c0760405160405180910390a460046000858152602001908152602001600020600080820160006101000a81549073ffffffffffffffffffffffffffffffffffffffff02191690556001820160006101000a81549073ffffffffffffffffffffffffffffffffffffffff021916905560028201600061110b9190613339565b60038201600061111b9190613339565b60048201600061112b9190613339565b60058201600061113b9190613339565b6006820160006101000a81549060ff0219169055505050505050565b600060046000858152602001908152602001600020905060008160010160009054906101000a900473ffffffffffffffffffffffffffffffffffffffff169050600073ffffffffffffffffffffffffffffffffffffffff168173ffffffffffffffffffffffffffffffffffffffff161415611207576040517f08c379a00000000000000000000000000000000000000000000000000000000081526004016111fe9061442b565b60405180910390fd5b61120f611c28565b73ffffffffffffffffffffffffffffffffffffffff168173ffffffffffffffffffffffffffffffffffffffff16148061125557506112548161124f611c28565b612103565b5b611294576040517f08c379a000000000000000000000000000000000000000000000000000000000815260040161128b90614673565b60405180910390fd5b825184511480156112a757506000845114155b6112e6576040517f08c379a00000000000000000000000000000000000000000000000000000000081526004016112dd90614705565b60405180910390fd5b60008260060160009054906101000a900460ff169050600060018111156113105761130f6135cd565b5b816001811115611323576113226135cd565b5b14611363576040517f08c379a000000000000000000000000000000000000000000000000000000000815260040161135a90614797565b60405180910390fd5b60005b845181101561140b576000858281518110611384576113836142a6565b5b602002602001015114156113978261258e565b6040516020016113a7919061488b565b604051602081830303815290604052906113f7576040517f08c379a00000000000000000000000000000000000000000000000000000000081526004016113ee9190613714565b60405180910390fd5b50808061140390614304565b915050611366565b5060018360060160006101000a81548160ff02191690836001811115611434576114336135cd565b5b02179055508483600401908051906020019061145192919061335a565b508383600501908051906020019061146a92919061335a565b508173ffffffffffffffffffffffffffffffffffffffff168360000160009054906101000a900473ffffffffffffffffffffffffffffffffffffffff1673ffffffffffffffffffffffffffffffffffffffff16877fda900e880533ef699d6aa6d2f335aebbaa3ee39bd882b9e04dd9ec026fedf7b888886040516114ef9291906148b8565b60405180910390a4505050505050565b600073ffffffffffffffffffffffffffffffffffffffff168473ffffffffffffffffffffffffffffffffffffffff16141580156115695750600073ffffffffffffffffffffffffffffffffffffffff168373ffffffffffffffffffffffffffffffffffffffff1614155b6115a8576040517f08c379a000000000000000000000000000000000000000000000000000000000815260040161159f90614961565b60405180910390fd5b6115b0611c28565b73ffffffffffffffffffffffffffffffffffffffff168473ffffffffffffffffffffffffffffffffffffffff1614806115f657506115f5846115f0611c28565b612103565b5b611635576040517f08c379a000000000000000000000000000000000000000000000000000000000815260040161162c9061454f565b60405180910390fd5b8051825114801561164857506000825114155b611687576040517f08c379a000000000000000000000000000000000000000000000000000000000815260040161167e90614705565b60405180910390fd5b60005b815181101561172f5760008282815181106116a8576116a76142a6565b5b602002602001015114156116bb8261258e565b6040516020016116cb919061488b565b6040516020818303038152906040529061171b576040517f08c379a00000000000000000000000000000000000000000000000000000000081526004016117129190613714565b60405180910390fd5b50808061172790614304565b91505061168a565b506001600360008282546117439190614981565b925050819055506040518060e001604052808573ffffffffffffffffffffffffffffffffffffffff1681526020018473ffffffffffffffffffffffffffffffffffffffff168152602001838152602001828152602001600067ffffffffffffffff8111156117b4576117b361373b565b5b6040519080825280602002602001820160405280156117e25781602001602082028036833780820191505090505b508152602001600067ffffffffffffffff8111156118035761180261373b565b5b6040519080825280602002602001820160405280156118315781602001602082028036833780820191505090505b5081526020016000600181111561184b5761184a6135cd565b5b81525060046000600354815260200190815260200160002060008201518160000160006101000a81548173ffffffffffffffffffffffffffffffffffffffff021916908373ffffffffffffffffffffffffffffffffffffffff16021790555060208201518160010160006101000a81548173ffffffffffffffffffffffffffffffffffffffff021916908373ffffffffffffffffffffffffffffffffffffffff160217905550604082015181600201908051906020019061190d92919061335a565b50606082015181600301908051906020019061192a92919061335a565b50608082015181600401908051906020019061194792919061335a565b5060a082015181600501908051906020019061196492919061335a565b5060c08201518160060160006101000a81548160ff021916908360018111156119905761198f6135cd565b5b02179055509050508273ffffffffffffffffffffffffffffffffffffffff168473ffffffffffffffffffffffffffffffffffffffff166003547f1c882919e2ba75ab4120979204c8cc6957374c1aa5845cd98feacacc9bdb4f0c85856040516119fa9291906148b8565b60405180910390a450505050565b6000600160008473ffffffffffffffffffffffffffffffffffffffff1673ffffffffffffffffffffffffffffffffffffffff16815260200190815260200160002060008373ffffffffffffffffffffffffffffffffffffffff1673ffffffffffffffffffffffffffffffffffffffff16815260200190815260200160002060009054906101000a900460ff16905092915050565b600560009054906101000a900473ffffffffffffffffffffffffffffffffffffffff1681565b611aca611c28565b73ffffffffffffffffffffffffffffffffffffffff168573ffffffffffffffffffffffffffffffffffffffff161480611b105750611b0f85611b0a611c28565b611a08565b5b611b4f576040517f08c379a0000000000000000000000000000000000000000000000000000000008152600401611b46906141f4565b60405180910390fd5b611b5c85858585856126ef565b5050505050565b600560009054906101000a900473ffffffffffffffffffffffffffffffffffffffff1673ffffffffffffffffffffffffffffffffffffffff163373ffffffffffffffffffffffffffffffffffffffff1614611bf3576040517f08c379a0000000000000000000000000000000000000000000000000000000008152600401611bea906143bf565b60405180910390fd5b611bfe83838361298b565b505050565b6000611c0e83612bd2565b8015611c205750611c1f8383612c1f565b5b905092915050565b600033905090565b8151835114611c74576040517f08c379a0000000000000000000000000000000000000000000000000000000008152600401611c6b90614a49565b60405180910390fd5b600073ffffffffffffffffffffffffffffffffffffffff168473ffffffffffffffffffffffffffffffffffffffff161415611ce4576040517f08c379a0000000000000000000000000000000000000000000000000000000008152600401611cdb90614adb565b60405180910390fd5b6000611cee611c28565b9050611cfe818787878787612d4a565b60005b8451811015611eaf576000858281518110611d1f57611d1e6142a6565b5b602002602001015190506000858381518110611d3e57611d3d6142a6565b5b60200260200101519050600080600084815260200190815260200160002060008b73ffffffffffffffffffffffffffffffffffffffff1673ffffffffffffffffffffffffffffffffffffffff16815260200190815260200160002054905081811015611ddf576040517f08c379a0000000000000000000000000000000000000000000000000000000008152600401611dd690614b6d565b60405180910390fd5b81810360008085815260200190815260200160002060008c73ffffffffffffffffffffffffffffffffffffffff1673ffffffffffffffffffffffffffffffffffffffff168152602001908152602001600020819055508160008085815260200190815260200160002060008b73ffffffffffffffffffffffffffffffffffffffff1673ffffffffffffffffffffffffffffffffffffffff1681526020019081526020016000206000828254611e949190614981565b9250508190555050505080611ea890614304565b9050611d01565b508473ffffffffffffffffffffffffffffffffffffffff168673ffffffffffffffffffffffffffffffffffffffff168273ffffffffffffffffffffffffffffffffffffffff167f4a39dc06d4c0dbc64b70af90fd698a233a518aa5d07e595d983b8c0526c8f7fb8787604051611f269291906148b8565b60405180910390a4611f3c818787878787612d52565b611f4a818787878787612eec565b505050505050565b600073ffffffffffffffffffffffffffffffffffffffff168473ffffffffffffffffffffffffffffffffffffffff161415611fc2576040517f08c379a0000000000000000000000000000000000000000000000000000000008152600401611fb990614bff565b60405180910390fd5b6000611fcc611c28565b90506000611fd9856130c4565b90506000611fe6856130c4565b9050611ff783600089858589612d4a565b8460008088815260200190815260200160002060008973ffffffffffffffffffffffffffffffffffffffff1673ffffffffffffffffffffffffffffffffffffffff16815260200190815260200160002060008282546120569190614981565b925050819055508673ffffffffffffffffffffffffffffffffffffffff16600073ffffffffffffffffffffffffffffffffffffffff168473ffffffffffffffffffffffffffffffffffffffff167fc3d58168c5ae7397731d063d5bbf3d657854427343f4c083240f7aacaa2d0f6289896040516120d4929190614c1f565b60405180910390a46120eb83600089858589612d52565b6120fa8360008989898961313e565b50505050505050565b600061210f8383611a08565b905092915050565b600073ffffffffffffffffffffffffffffffffffffffff168373ffffffffffffffffffffffffffffffffffffffff161415612187576040517f08c379a000000000000000000000000000000000000000000000000000000000815260040161217e90614cba565b60405180910390fd5b80518251146121cb576040517f08c379a00000000000000000000000000000000000000000000000000000000081526004016121c290614a49565b60405180910390fd5b60006121d5611c28565b90506121f581856000868660405180602001604052806000815250612d4a565b60005b8351811015612342576000848281518110612216576122156142a6565b5b602002602001015190506000848381518110612235576122346142a6565b5b60200260200101519050600080600084815260200190815260200160002060008973ffffffffffffffffffffffffffffffffffffffff1673ffffffffffffffffffffffffffffffffffffffff168152602001908152602001600020549050818110156122d6576040517f08c379a00000000000000000000000000000000000000000000000000000000081526004016122cd90614d4c565b60405180910390fd5b81810360008085815260200190815260200160002060008a73ffffffffffffffffffffffffffffffffffffffff1673ffffffffffffffffffffffffffffffffffffffff16815260200190815260200160002081905550505050808061233a90614304565b9150506121f8565b50600073ffffffffffffffffffffffffffffffffffffffff168473ffffffffffffffffffffffffffffffffffffffff168273ffffffffffffffffffffffffffffffffffffffff167f4a39dc06d4c0dbc64b70af90fd698a233a518aa5d07e595d983b8c0526c8f7fb86866040516123ba9291906148b8565b60405180910390a46123e081856000868660405180602001604052806000815250612d52565b50505050565b8173ffffffffffffffffffffffffffffffffffffffff168373ffffffffffffffffffffffffffffffffffffffff161415612455576040517f08c379a000000000000000000000000000000000000000000000000000000000815260040161244c90614dde565b60405180910390fd5b80600160008573ffffffffffffffffffffffffffffffffffffffff1673ffffffffffffffffffffffffffffffffffffffff16815260200190815260200160002060008473ffffffffffffffffffffffffffffffffffffffff1673ffffffffffffffffffffffffffffffffffffffff16815260200190815260200160002060006101000a81548160ff0219169083151502179055508173ffffffffffffffffffffffffffffffffffffffff168373ffffffffffffffffffffffffffffffffffffffff167f17307eab39ab6107e8899845ad3d59bd9653f200f220920489ca2b5937696c31836040516125469190613576565b60405180910390a3505050565b612587848484846125638a61258e565b6040516020016125739190614e4a565b604051602081830303815290604052611c30565b5050505050565b606060008214156125d6576040518060400160405280600181526020017f300000000000000000000000000000000000000000000000000000000000000081525090506126ea565b600082905060005b600082146126085780806125f190614304565b915050600a826126019190614e9b565b91506125de565b60008167ffffffffffffffff8111156126245761262361373b565b5b6040519080825280601f01601f1916602001820160405280156126565781602001600182028036833780820191505090505b5090505b600085146126e35760018261266f9190614ecc565b9150600a8561267e9190614f00565b603061268a9190614981565b60f81b8183815181106126a05761269f6142a6565b5b60200101907effffffffffffffffffffffffffffffffffffffffffffffffffffffffffffff1916908160001a905350600a856126dc9190614e9b565b945061265a565b8093505050505b919050565b600073ffffffffffffffffffffffffffffffffffffffff168473ffffffffffffffffffffffffffffffffffffffff16141561275f576040517f08c379a000000000000000000000000000000000000000000000000000000000815260040161275690614adb565b60405180910390fd5b6000612769611c28565b90506000612776856130c4565b90506000612783856130c4565b9050612793838989858589612d4a565b600080600088815260200190815260200160002060008a73ffffffffffffffffffffffffffffffffffffffff1673ffffffffffffffffffffffffffffffffffffffff1681526020019081526020016000205490508581101561282a576040517f08c379a000000000000000000000000000000000000000000000000000000000815260040161282190614b6d565b60405180910390fd5b85810360008089815260200190815260200160002060008b73ffffffffffffffffffffffffffffffffffffffff1673ffffffffffffffffffffffffffffffffffffffff168152602001908152602001600020819055508560008089815260200190815260200160002060008a73ffffffffffffffffffffffffffffffffffffffff1673ffffffffffffffffffffffffffffffffffffffff16815260200190815260200160002060008282546128df9190614981565b925050819055508773ffffffffffffffffffffffffffffffffffffffff168973ffffffffffffffffffffffffffffffffffffffff168573ffffffffffffffffffffffffffffffffffffffff167fc3d58168c5ae7397731d063d5bbf3d657854427343f4c083240f7aacaa2d0f628a8a60405161295c929190614c1f565b60405180910390a4612972848a8a86868a612d52565b612980848a8a8a8a8a61313e565b505050505050505050565b600073ffffffffffffffffffffffffffffffffffffffff168373ffffffffffffffffffffffffffffffffffffffff1614156129fb576040517f08c379a00000000000000000000000000000000000000000000000000000000081526004016129f290614cba565b60405180910390fd5b6000612a05611c28565b90506000612a12846130c4565b90506000612a1f846130c4565b9050612a3f83876000858560405180602001604052806000815250612d4a565b600080600087815260200190815260200160002060008873ffffffffffffffffffffffffffffffffffffffff1673ffffffffffffffffffffffffffffffffffffffff16815260200190815260200160002054905084811015612ad6576040517f08c379a0000000000000000000000000000000000000000000000000000000008152600401612acd90614d4c565b60405180910390fd5b84810360008088815260200190815260200160002060008973ffffffffffffffffffffffffffffffffffffffff1673ffffffffffffffffffffffffffffffffffffffff16815260200190815260200160002081905550600073ffffffffffffffffffffffffffffffffffffffff168773ffffffffffffffffffffffffffffffffffffffff168573ffffffffffffffffffffffffffffffffffffffff167fc3d58168c5ae7397731d063d5bbf3d657854427343f4c083240f7aacaa2d0f628989604051612ba3929190614c1f565b60405180910390a4612bc984886000868660405180602001604052806000815250612d52565b50505050505050565b6000612bfe827f01ffc9a700000000000000000000000000000000000000000000000000000000612c1f565b8015612c185750612c168263ffffffff60e01b612c1f565b155b9050919050565b6000806301ffc9a760e01b83604051602401612c3b9190614f40565b604051602081830303815290604052907bffffffffffffffffffffffffffffffffffffffffffffffffffffffff19166020820180517bffffffffffffffffffffffffffffffffffffffffffffffffffffffff838183161783525050505090506000808573ffffffffffffffffffffffffffffffffffffffff1661753084604051612cc59190614fa2565b6000604051808303818686fa925050503d8060008114612d01576040519150601f19603f3d011682016040523d82523d6000602084013e612d06565b606091505b5091509150602081511015612d215760009350505050612d44565b818015612d3e575080806020019051810190612d3d9190614fce565b5b93505050505b92915050565b505050505050565b600073ffffffffffffffffffffffffffffffffffffffff168573ffffffffffffffffffffffffffffffffffffffff1614612ee457600073ffffffffffffffffffffffffffffffffffffffff168473ffffffffffffffffffffffffffffffffffffffff1614612ee35760005b8251811015612ee15774010000000000000000000000000000000000000000848281518110612def57612dee6142a6565b5b6020026020010151108015612e1f57506000838281518110612e1457612e136142a6565b5b602002602001015114155b15612ece57600560009054906101000a900473ffffffffffffffffffffffffffffffffffffffff1673ffffffffffffffffffffffffffffffffffffffff16638cd6e9a9858381518110612e7557612e746142a6565b5b6020026020010151876040518363ffffffff1660e01b8152600401612e9b929190614ffb565b600060405180830381600087803b158015612eb557600080fd5b505af1158015612ec9573d6000803e3d6000fd5b505050505b8080612ed990614304565b915050612dbd565b505b5b505050505050565b612f0b8473ffffffffffffffffffffffffffffffffffffffff16613316565b156130bc578373ffffffffffffffffffffffffffffffffffffffff1663bc197c8187878686866040518663ffffffff1660e01b8152600401612f5195949392919061506e565b6020604051808303816000875af1925050508015612f8d57506040513d601f19601f82011682018060405250810190612f8a91906150eb565b60015b61303357612f99615125565b806308c379a01415612ff65750612fae615147565b80612fb95750612ff8565b806040517f08c379a0000000000000000000000000000000000000000000000000000000008152600401612fed9190613714565b60405180910390fd5b505b6040517f08c379a000000000000000000000000000000000000000000000000000000000815260040161302a9061524f565b60405180910390fd5b63bc197c8160e01b7bffffffffffffffffffffffffffffffffffffffffffffffffffffffff1916817bffffffffffffffffffffffffffffffffffffffffffffffffffffffff1916146130ba576040517f08c379a00000000000000000000000000000000000000000000000000000000081526004016130b1906152e1565b60405180910390fd5b505b505050505050565b60606000600167ffffffffffffffff8111156130e3576130e261373b565b5b6040519080825280602002602001820160405280156131115781602001602082028036833780820191505090505b5090508281600081518110613129576131286142a6565b5b60200260200101818152505080915050919050565b61315d8473ffffffffffffffffffffffffffffffffffffffff16613316565b1561330e578373ffffffffffffffffffffffffffffffffffffffff1663f23a6e6187878686866040518663ffffffff1660e01b81526004016131a3959493929190615301565b6020604051808303816000875af19250505080156131df57506040513d601f19601f820116820180604052508101906131dc91906150eb565b60015b613285576131eb615125565b806308c379a014156132485750613200615147565b8061320b575061324a565b806040517f08c379a000000000000000000000000000000000000000000000000000000000815260040161323f9190613714565b60405180910390fd5b505b6040517f08c379a000000000000000000000000000000000000000000000000000000000815260040161327c9061524f565b60405180910390fd5b63f23a6e6160e01b7bffffffffffffffffffffffffffffffffffffffffffffffffffffffff1916817bffffffffffffffffffffffffffffffffffffffffffffffffffffffff19161461330c576040517f08c379a0000000000000000000000000000000000000000000000000000000008152600401613303906152e1565b60405180910390fd5b505b505050505050565b6000808273ffffffffffffffffffffffffffffffffffffffff163b119050919050565b508054600082559060005260206000209081019061335791906133a7565b50565b828054828255906000526020600020908101928215613396579160200282015b8281111561339557825182559160200191906001019061337a565b5b5090506133a391906133a7565b5090565b5b808211156133c05760008160009055506001016133a8565b5090565b6000604051905090565b600080fd5b600080fd5b600073ffffffffffffffffffffffffffffffffffffffff82169050919050565b6000613403826133d8565b9050919050565b613413816133f8565b811461341e57600080fd5b50565b6000813590506134308161340a565b92915050565b6000819050919050565b61344981613436565b811461345457600080fd5b50565b60008135905061346681613440565b92915050565b60008060408385031215613483576134826133ce565b5b600061349185828601613421565b92505060206134a285828601613457565b9150509250929050565b6134b581613436565b82525050565b60006020820190506134d060008301846134ac565b92915050565b60007fffffffff0000000000000000000000000000000000000000000000000000000082169050919050565b61350b816134d6565b811461351657600080fd5b50565b60008135905061352881613502565b92915050565b600060208284031215613544576135436133ce565b5b600061355284828501613519565b91505092915050565b60008115159050919050565b6135708161355b565b82525050565b600060208201905061358b6000830184613567565b92915050565b6000602082840312156135a7576135a66133ce565b5b60006135b584828501613457565b91505092915050565b6135c7816133f8565b82525050565b7f4e487b7100000000000000000000000000000000000000000000000000000000600052602160045260246000fd5b6002811061360d5761360c6135cd565b5b50565b600081905061361e826135fc565b919050565b600061362e82613610565b9050919050565b61363e81613623565b82525050565b600060608201905061365960008301866135be565b61366660208301856135be565b6136736040830184613635565b949350505050565b600081519050919050565b600082825260208201905092915050565b60005b838110156136b557808201518184015260208101905061369a565b838111156136c4576000848401525b50505050565b6000601f19601f8301169050919050565b60006136e68261367b565b6136f08185613686565b9350613700818560208601613697565b613709816136ca565b840191505092915050565b6000602082019050818103600083015261372e81846136db565b905092915050565b600080fd5b7f4e487b7100000000000000000000000000000000000000000000000000000000600052604160045260246000fd5b613773826136ca565b810181811067ffffffffffffffff821117156137925761379161373b565b5b80604052505050565b60006137a56133c4565b90506137b1828261376a565b919050565b600067ffffffffffffffff8211156137d1576137d061373b565b5b602082029050602081019050919050565b600080fd5b60006137fa6137f5846137b6565b61379b565b9050808382526020820190506020840283018581111561381d5761381c6137e2565b5b835b8181101561384657806138328882613457565b84526020840193505060208101905061381f565b5050509392505050565b600082601f83011261386557613864613736565b5b81356138758482602086016137e7565b91505092915050565b600080fd5b600067ffffffffffffffff82111561389e5761389d61373b565b5b6138a7826136ca565b9050602081019050919050565b82818337600083830152505050565b60006138d66138d184613883565b61379b565b9050828152602081018484840111156138f2576138f161387e565b5b6138fd8482856138b4565b509392505050565b600082601f83011261391a57613919613736565b5b813561392a8482602086016138c3565b91505092915050565b600080600080600060a0868803121561394f5761394e6133ce565b5b600061395d88828901613421565b955050602061396e88828901613421565b945050604086013567ffffffffffffffff81111561398f5761398e6133d3565b5b61399b88828901613850565b935050606086013567ffffffffffffffff8111156139bc576139bb6133d3565b5b6139c888828901613850565b925050608086013567ffffffffffffffff8111156139e9576139e86133d3565b5b6139f588828901613905565b9150509295509295909350565b600067ffffffffffffffff821115613a1d57613a1c61373b565b5b602082029050602081019050919050565b6000613a41613a3c84613a02565b61379b565b90508083825260208201905060208402830185811115613a6457613a636137e2565b5b835b81811015613a8d5780613a798882613421565b845260208401935050602081019050613a66565b5050509392505050565b600082601f830112613aac57613aab613736565b5b8135613abc848260208601613a2e565b91505092915050565b60008060408385031215613adc57613adb6133ce565b5b600083013567ffffffffffffffff811115613afa57613af96133d3565b5b613b0685828601613a97565b925050602083013567ffffffffffffffff811115613b2757613b266133d3565b5b613b3385828601613850565b9150509250929050565b600081519050919050565b600082825260208201905092915050565b6000819050602082019050919050565b613b7281613436565b82525050565b6000613b848383613b69565b60208301905092915050565b6000602082019050919050565b6000613ba882613b3d565b613bb28185613b48565b9350613bbd83613b59565b8060005b83811015613bee578151613bd58882613b78565b9750613be083613b90565b925050600181019050613bc1565b5085935050505092915050565b60006020820190508181036000830152613c158184613b9d565b905092915050565b60008060008060808587031215613c3757613c366133ce565b5b6000613c4587828801613421565b9450506020613c5687828801613457565b9350506040613c6787828801613457565b925050606085013567ffffffffffffffff811115613c8857613c876133d3565b5b613c9487828801613905565b91505092959194509250565b600080600060608486031215613cb957613cb86133ce565b5b6000613cc786828701613421565b935050602084013567ffffffffffffffff811115613ce857613ce76133d3565b5b613cf486828701613850565b925050604084013567ffffffffffffffff811115613d1557613d146133d3565b5b613d2186828701613850565b9150509250925092565b613d348161355b565b8114613d3f57600080fd5b50565b600081359050613d5181613d2b565b92915050565b60008060408385031215613d6e57613d6d6133ce565b5b6000613d7c85828601613421565b9250506020613d8d85828601613d42565b9150509250929050565b600080600060608486031215613db057613daf6133ce565b5b6000613dbe86828701613457565b935050602084013567ffffffffffffffff811115613ddf57613dde6133d3565b5b613deb86828701613850565b925050604084013567ffffffffffffffff811115613e0c57613e0b6133d3565b5b613e1886828701613850565b9150509250925092565b60008060008060808587031215613e3c57613e3b6133ce565b5b6000613e4a87828801613421565b9450506020613e5b87828801613421565b935050604085013567ffffffffffffffff811115613e7c57613e7b6133d3565b5b613e8887828801613850565b925050606085013567ffffffffffffffff811115613ea957613ea86133d3565b5b613eb587828801613850565b91505092959194509250565b60008060408385031215613ed857613ed76133ce565b5b6000613ee685828601613421565b9250506020613ef785828601613421565b9150509250929050565b6000602082019050613f1660008301846135be565b92915050565b600080600080600060a08688031215613f3857613f376133ce565b5b6000613f4688828901613421565b9550506020613f5788828901613421565b9450506040613f6888828901613457565b9350506060613f7988828901613457565b925050608086013567ffffffffffffffff811115613f9a57613f996133d3565b5b613fa688828901613905565b9150509295509295909350565b600080600060608486031215613fcc57613fcb6133ce565b5b6000613fda86828701613421565b9350506020613feb86828701613457565b9250506040613ffc86828701613457565b9150509250925092565b7f455243313135353a2061646472657373207a65726f206973206e6f742061207660008201527f616c6964206f776e657200000000000000000000000000000000000000000000602082015250565b6000614062602a83613686565b915061406d82614006565b604082019050919050565b6000602082019050818103600083015261409181614055565b9050919050565b600067ffffffffffffffff8211156140b3576140b261373b565b5b6140bc826136ca565b9050602081019050919050565b60006140dc6140d784614098565b61379b565b9050828152602081018484840111156140f8576140f761387e565b5b614103848285613697565b509392505050565b600082601f8301126141205761411f613736565b5b81516141308482602086016140c9565b91505092915050565b60006020828403121561414f5761414e6133ce565b5b600082015167ffffffffffffffff81111561416d5761416c6133d3565b5b6141798482850161410b565b91505092915050565b7f455243313135353a2063616c6c6572206973206e6f7420746f6b656e206f776e60008201527f6572206e6f7220617070726f7665640000000000000000000000000000000000602082015250565b60006141de602f83613686565b91506141e982614182565b604082019050919050565b6000602082019050818103600083015261420d816141d1565b9050919050565b7f455243313135353a206163636f756e747320616e6420696473206c656e67746860008201527f206d69736d617463680000000000000000000000000000000000000000000000602082015250565b6000614270602983613686565b915061427b82614214565b604082019050919050565b6000602082019050818103600083015261429f81614263565b9050919050565b7f4e487b7100000000000000000000000000000000000000000000000000000000600052603260045260246000fd5b7f4e487b7100000000000000000000000000000000000000000000000000000000600052601160045260246000fd5b600061430f82613436565b91507fffffffffffffffffffffffffffffffffffffffffffffffffffffffffffffffff821415614342576143416142d5565b5b600182019050919050565b7f45636f6e6f6d793a206f6e6c7920746865206f776e696e67206d65746176657260008201527f73652063616e20696e766f6b652074686973206d6574686f6400000000000000602082015250565b60006143a9603983613686565b91506143b48261434d565b604082019050919050565b600060208201905081810360008301526143d88161439c565b9050919050565b7f5361666545786368616e67653a20696e76616c6964206465616c000000000000600082015250565b6000614415601a83613686565b9150614420826143df565b602082019050919050565b6000602082019050818103600083015261444481614408565b9050919050565b7f5361666545786368616e67653a2063616c6c6572206973206e6f7420656d697460008201527f7465722f7265636569766572206e6f7220617070726f76656400000000000000602082015250565b60006144a7603983613686565b91506144b28261444b565b604082019050919050565b600060208201905081810360008301526144d68161449a565b9050919050565b7f5361666545786368616e67653a2063616c6c6572206973206e6f7420656d697460008201527f746572206e6f7220617070726f76656400000000000000000000000000000000602082015250565b6000614539603083613686565b9150614544826144dd565b604082019050919050565b600060208201905081810360008301526145688161452c565b9050919050565b7f5361666545786368616e67653a206465616c206973206e6f7420696e206a757360008201527f742d616363657074656420737461746500000000000000000000000000000000602082015250565b60006145cb603083613686565b91506145d68261456f565b604082019050919050565b600060208201905081810360008301526145fa816145be565b9050919050565b7f5361666545786368616e67653a2063616c6c6572206973206e6f74207265636560008201527f69766572206e6f7220617070726f766564000000000000000000000000000000602082015250565b600061465d603183613686565b915061466882614601565b604082019050919050565b6000602082019050818103600083015261468c81614650565b9050919050565b7f5361666545786368616e67653a20746f6b656e2069647320616e6420616d6f7560008201527f6e7473206c656e677468206d69736d61746368206f7220300000000000000000602082015250565b60006146ef603883613686565b91506146fa82614693565b604082019050919050565b6000602082019050818103600083015261471e816146e2565b9050919050565b7f5361666545786368616e67653a206465616c206973206e6f7420696e206a757360008201527f742d637265617465642073746174650000000000000000000000000000000000602082015250565b6000614781602f83613686565b915061478c82614725565b604082019050919050565b600060208201905081810360008301526147b081614774565b9050919050565b600081905092915050565b7f5361666545786368616e67653a20746f6b656e20696e20706f736974696f6e20600082015250565b60006147f86020836147b7565b9150614803826147c2565b602082019050919050565b60006148198261367b565b61482381856147b7565b9350614833818560208601613697565b80840191505092915050565b7f206d757374206e6f74206861766520616d6f756e74206f662030000000000000600082015250565b6000614875601a836147b7565b91506148808261483f565b601a82019050919050565b6000614896826147eb565b91506148a2828461480e565b91506148ad82614868565b915081905092915050565b600060408201905081810360008301526148d28185613b9d565b905081810360208301526148e68184613b9d565b90509392505050565b7f5361666545786368616e67653a207472616e736665722066726f6d2f746f207460008201527f6865207a65726f20616464726573730000000000000000000000000000000000602082015250565b600061494b602f83613686565b9150614956826148ef565b604082019050919050565b6000602082019050818103600083015261497a8161493e565b9050919050565b600061498c82613436565b915061499783613436565b9250827fffffffffffffffffffffffffffffffffffffffffffffffffffffffffffffffff038211156149cc576149cb6142d5565b5b828201905092915050565b7f455243313135353a2069647320616e6420616d6f756e7473206c656e6774682060008201527f6d69736d61746368000000000000000000000000000000000000000000000000602082015250565b6000614a33602883613686565b9150614a3e826149d7565b604082019050919050565b60006020820190508181036000830152614a6281614a26565b9050919050565b7f455243313135353a207472616e7366657220746f20746865207a65726f20616460008201527f6472657373000000000000000000000000000000000000000000000000000000602082015250565b6000614ac5602583613686565b9150614ad082614a69565b604082019050919050565b60006020820190508181036000830152614af481614ab8565b9050919050565b7f455243313135353a20696e73756666696369656e742062616c616e636520666f60008201527f72207472616e7366657200000000000000000000000000000000000000000000602082015250565b6000614b57602a83613686565b9150614b6282614afb565b604082019050919050565b60006020820190508181036000830152614b8681614b4a565b9050919050565b7f455243313135353a206d696e7420746f20746865207a65726f2061646472657360008201527f7300000000000000000000000000000000000000000000000000000000000000602082015250565b6000614be9602183613686565b9150614bf482614b8d565b604082019050919050565b60006020820190508181036000830152614c1881614bdc565b9050919050565b6000604082019050614c3460008301856134ac565b614c4160208301846134ac565b9392505050565b7f455243313135353a206275726e2066726f6d20746865207a65726f206164647260008201527f6573730000000000000000000000000000000000000000000000000000000000602082015250565b6000614ca4602383613686565b9150614caf82614c48565b604082019050919050565b60006020820190508181036000830152614cd381614c97565b9050919050565b7f455243313135353a206275726e20616d6f756e7420657863656564732062616c60008201527f616e636500000000000000000000000000000000000000000000000000000000602082015250565b6000614d36602483613686565b9150614d4182614cda565b604082019050919050565b60006020820190508181036000830152614d6581614d29565b9050919050565b7f455243313135353a2073657474696e6720617070726f76616c2073746174757360008201527f20666f722073656c660000000000000000000000000000000000000000000000602082015250565b6000614dc8602983613686565b9150614dd382614d6c565b604082019050919050565b60006020820190508181036000830152614df781614dbb565b9050919050565b7f45636f6e6f6d793a20657865637574696e67206465616c200000000000000000600082015250565b6000614e346018836147b7565b9150614e3f82614dfe565b601882019050919050565b6000614e5582614e27565b9150614e61828461480e565b915081905092915050565b7f4e487b7100000000000000000000000000000000000000000000000000000000600052601260045260246000fd5b6000614ea682613436565b9150614eb183613436565b925082614ec157614ec0614e6c565b5b828204905092915050565b6000614ed782613436565b9150614ee283613436565b925082821015614ef557614ef46142d5565b5b828203905092915050565b6000614f0b82613436565b9150614f1683613436565b925082614f2657614f25614e6c565b5b828206905092915050565b614f3a816134d6565b82525050565b6000602082019050614f556000830184614f31565b92915050565b600081519050919050565b600081905092915050565b6000614f7c82614f5b565b614f868185614f66565b9350614f96818560208601613697565b80840191505092915050565b6000614fae8284614f71565b915081905092915050565b600081519050614fc881613d2b565b92915050565b600060208284031215614fe457614fe36133ce565b5b6000614ff284828501614fb9565b91505092915050565b600060408201905061501060008301856135be565b61501d60208301846135be565b9392505050565b600082825260208201905092915050565b600061504082614f5b565b61504a8185615024565b935061505a818560208601613697565b615063816136ca565b840191505092915050565b600060a08201905061508360008301886135be565b61509060208301876135be565b81810360408301526150a28186613b9d565b905081810360608301526150b68185613b9d565b905081810360808301526150ca8184615035565b90509695505050505050565b6000815190506150e581613502565b92915050565b600060208284031215615101576151006133ce565b5b600061510f848285016150d6565b91505092915050565b60008160e01c9050919050565b600060033d11156151445760046000803e615141600051615118565b90505b90565b600060443d1015615157576151da565b61515f6133c4565b60043d036004823e80513d602482011167ffffffffffffffff821117156151875750506151da565b808201805167ffffffffffffffff8111156151a557505050506151da565b80602083010160043d0385018111156151c25750505050506151da565b6151d18260200185018661376a565b82955050505050505b90565b7f455243313135353a207472616e7366657220746f206e6f6e204552433131353560008201527f526563656976657220696d706c656d656e746572000000000000000000000000602082015250565b6000615239603483613686565b9150615244826151dd565b604082019050919050565b600060208201905081810360008301526152688161522c565b9050919050565b7f455243313135353a204552433131353552656365697665722072656a6563746560008201527f6420746f6b656e73000000000000000000000000000000000000000000000000602082015250565b60006152cb602883613686565b91506152d68261526f565b604082019050919050565b600060208201905081810360008301526152fa816152be565b9050919050565b600060a08201905061531660008301886135be565b61532360208301876135be565b61533060408301866134ac565b61533d60608301856134ac565b818103608083015261534f8184615035565b9050969550505050505056fea264697066735822122091bbf64d2658652d8d1c9694324311f1fb210a23a73757a720620a121b1385b564736f6c634300080a0033",
  "immutableReferences": {},
  "source": "// SPDX-License-Identifier: MIT\npragma solidity >=0.8 <0.9.0;\n\nimport \"@openzeppelin/contracts/token/ERC1155/ERC1155.sol\";\nimport \"@openzeppelin/contracts/utils/introspection/ERC165Checker.sol\";\nimport \"@openzeppelin/contracts/utils/introspection/ERC165.sol\";\nimport \"./IEconomy.sol\";\nimport \"../IMetaverse.sol\";\nimport \"../../SafeExchange.sol\";\n\n/**\n * An economy system is a regular ERC1155, but the url will\n * not be stated, and also this contract will belong to a\n * particular metaverse.\n */\ncontract Economy is ERC1155, IEconomy, SafeExchange {\n    /**\n     * Addresses can check for ERC165 compliance by using this\n     * embeddable library.\n     */\n    using ERC165Checker for address;\n\n    /**\n     * The metaverse that will own this economy system.\n     */\n    address public metaverse;\n\n    /**\n     * Creating an economy system requires a valid metaverse\n     * registrar as its owner.\n     */\n    constructor(address _metaverse) ERC1155(\"\") {\n        require(_metaverse != address(0), \"Economy: the owner contract must not be 0\");\n        require(\n            _metaverse.supportsInterface(type(IMetaverse).interfaceId),\n            \"Economy: the owner contract must implement IMetaverse\"\n        );\n        metaverse = _metaverse;\n    }\n\n    /**\n     * For the deals: This hook invokes a parent batch transfer involving deals.\n     */\n    function _batchTransfer(\n        uint256 _dealIndex, address _from, address _to, uint256[] memory _tokenIds, uint256[] memory _tokenAmounts\n    ) internal override {\n        _safeBatchTransferFrom(_from, _to, _tokenIds, _tokenAmounts, abi.encodePacked(\n            \"Economy: executing deal \", Strings.toString(_dealIndex)\n        ));\n    }\n\n    /**\n     * For the deals: This hook tells whether a sender is allowed for a party in a deal.\n     */\n    function _isApproved(address _party, address _sender) internal override view returns (bool) {\n        return isApprovedForAll(_party, _sender);\n    }\n\n    /**\n     * Processes a token transfer or burn appropriately. Burns are\n     * forwarded using the metaverse.\n     */\n    function _afterTokenTransfer(\n        address operator, address from, address to, uint256[] memory ids, uint256[] memory amounts, bytes memory data\n    ) internal override {\n        if (from != address(0)) {\n            if (to != address(0)) {\n                // A transfer. Brands will be transfer-processed.\n                for(uint256 index = 0; index < amounts.length; index++) {\n                    if (ids[index] < (1 << 160) && amounts[index] != 0) {\n                        IMetaverse(metaverse).onBrandOwnerChanged(address(uint160(ids[index])), to);\n                    }\n                }\n            }\n        }\n    }\n\n    /**\n     * This brand registry satisfies the IERC1155, the IBrandRegistry and IERC165 interfaces.\n     */\n    function supportsInterface(bytes4 interfaceId) public view virtual override(ERC1155, IERC165) returns (bool) {\n        return interfaceId == type(IERC165).interfaceId ||\n               interfaceId == type(IEconomy).interfaceId ||\n               interfaceId == type(IERC1155).interfaceId;\n    }\n\n    /**\n     * Querying the url is now defined depending on the metaverse.\n     */\n    function uri(uint256 _tokenId) public view override returns (string memory) {\n        return IMetaverse(metaverse).tokenURI(_tokenId);\n    }\n\n    /**\n     * Mints a token for a particular account.\n     */\n    function mintFor(address _to, uint256 _tokenId, uint256 _amount, bytes memory _data) public onlyMetaverse {\n        _mint(_to, _tokenId, _amount, _data);\n    }\n\n    /**\n     * Burns any token from the metaverse (actually: from plugins).\n     */\n    function burn(address _from, uint256 _tokenId, uint256 _amount) external onlyMetaverse {\n        _burn(_from, _tokenId, _amount);\n    }\n\n    /**\n     * Burns many tokens from the metaverse (actually: from plugins).\n     */\n    function burnBatch(address _from, uint256[] memory _tokenIds, uint256[] memory _amounts) external onlyMetaverse {\n        _burnBatch(_from, _tokenIds, _amounts);\n    }\n\n    /**\n     * This modifier restricts function to be only invoked by the metaverse.\n     */\n    modifier onlyMetaverse() {\n        require(msg.sender == metaverse, \"Economy: only the owning metaverse can invoke this method\");\n        _;\n    }\n}\n",
  "sourcePath": "/home/luismasuelli/Projects/OuterMaze/lingr-contracts/contracts/lingr/economy/Economy.sol",
  "compiler": {
    "name": "solc",
    "version": "0.8.10+commit.fc410830.Emscripten.clang"
  },
  "schemaVersion": "3.4.3",
  "updatedAt": "2022-08-11T20:39:18.774Z",
  "devdoc": {
    "kind": "dev",
    "methods": {
      "balanceOf(address,uint256)": {
        "details": "See {IERC1155-balanceOf}. Requirements: - `account` cannot be the zero address."
      },
      "balanceOfBatch(address[],uint256[])": {
        "details": "See {IERC1155-balanceOfBatch}. Requirements: - `accounts` and `ids` must have the same length."
      },
      "isApprovedForAll(address,address)": {
        "details": "See {IERC1155-isApprovedForAll}."
      },
      "safeBatchTransferFrom(address,address,uint256[],uint256[],bytes)": {
        "details": "See {IERC1155-safeBatchTransferFrom}."
      },
      "safeTransferFrom(address,address,uint256,uint256,bytes)": {
        "details": "See {IERC1155-safeTransferFrom}."
      },
      "setApprovalForAll(address,bool)": {
        "details": "See {IERC1155-setApprovalForAll}."
      }
    },
    "version": 1
  },
  "userdoc": {
    "events": {
      "DealAccepted(uint256,address,address,uint256[],uint256[])": {
        "notice": "This event is raised when a deal is accepted by the receiver."
      },
      "DealBroken(uint256,address)": {
        "notice": "This event is raised when a deal is broken by its emitter, the receiver, or an operator on behalf of any of them."
      },
      "DealConfirmed(uint256,address,address)": {
        "notice": "This event is raised when a deal is confirmed by its creator, after the receiver's acceptance."
      },
      "DealStarted(uint256,address,address,uint256[],uint256[])": {
        "notice": "This event is raised when a new deal is created."
      }
    },
    "kind": "user",
    "methods": {
      "burn(address,uint256,uint256)": {
        "notice": "Burns any token from the metaverse (actually: from plugins)."
      },
      "burnBatch(address,uint256[],uint256[])": {
        "notice": "Burns many tokens from the metaverse (actually: from plugins)."
      },
      "constructor": {
        "notice": "Creating an economy system requires a valid metaverse registrar as its owner."
      },
      "dealAccept(uint256,uint256[],uint256[])": {
        "notice": "Accepting a deal requires the deal to be valid, the sender to be the deal receiver (or an allowed operator of the deal receiver), and the deal to be in the appropriate state. Also, the objects data must be non-empty and no element must be 0."
      },
      "dealBreak(uint256)": {
        "notice": "Breaking a deal requires the deal to be valid, the sender to be the emitter (or approved) or the receiver (or approved)."
      },
      "dealConfirm(uint256)": {
        "notice": "Confirming a deal requires the deal to be valid, the sender to be the deal emitter (or an allowed operator of the deal emitter), and the deal to be in the appropriate state."
      },
      "dealStart(address,address,uint256[],uint256[])": {
        "notice": "Starting a deal requires the sender to be the _emitter address or an address the sender can operate on their behalf. Also, the objects data must be non-empty, and no element must be 0."
      },
      "deals(uint256)": {
        "notice": "All the ACTIVE / PENDING deals instantiated so far."
      },
      "metaverse()": {
        "notice": "The metaverse that will own this economy system."
      },
      "mintFor(address,uint256,uint256,bytes)": {
        "notice": "Mints a token for a particular account."
      },
      "supportsInterface(bytes4)": {
        "notice": "This brand registry satisfies the IERC1155, the IBrandRegistry and IERC165 interfaces."
      },
      "uri(uint256)": {
        "notice": "Querying the url is now defined depending on the metaverse."
      }
    },
    "notice": "An economy system is a regular ERC1155, but the url will not be stated, and also this contract will belong to a particular metaverse.",
    "version": 1
  }
}