{
  "contractName": "IdUtils",
  "abi": [
    {
      "inputs": [
        {
          "internalType": "uint256",
          "name": "id",
          "type": "uint256"
        }
      ],
      "name": "nftId",
      "outputs": [
        {
          "internalType": "uint256",
          "name": "",
          "type": "uint256"
        }
      ],
      "stateMutability": "pure",
      "type": "function"
    },
    {
      "inputs": [
        {
          "internalType": "address",
          "name": "brand",
          "type": "address"
        }
      ],
      "name": "brandId",
      "outputs": [
        {
          "internalType": "uint256",
          "name": "",
          "type": "uint256"
        }
      ],
      "stateMutability": "pure",
      "type": "function"
    },
    {
      "inputs": [
        {
          "internalType": "address",
          "name": "brand",
          "type": "address"
        },
        {
          "internalType": "uint64",
          "name": "index",
          "type": "uint64"
        }
      ],
      "name": "brandTokenId",
      "outputs": [
        {
          "internalType": "uint256",
          "name": "",
          "type": "uint256"
        }
      ],
      "stateMutability": "pure",
      "type": "function"
    },
    {
      "inputs": [
        {
          "internalType": "uint64",
          "name": "index",
          "type": "uint64"
        }
      ],
      "name": "systemTokenId",
      "outputs": [
        {
          "internalType": "uint256",
          "name": "",
          "type": "uint256"
        }
      ],
      "stateMutability": "pure",
      "type": "function"
    }
  ],
  "bytecode": "0x610412610053600b82828239805160001a607314610046577f4e487b7100000000000000000000000000000000000000000000000000000000600052600060045260246000fd5b30600052607381538281f3fe73000000000000000000000000000000000000000030146080604052600436106100565760003560e01c806332b560171461005b5780636468bc961461008b578063bcc0c1e1146100bb578063bda38d98146100eb575b600080fd5b61007560048036038101906100709190610257565b61011b565b604051610082919061029d565b60405180910390f35b6100a560048036038101906100a09190610316565b610151565b6040516100b2919061029d565b60405180910390f35b6100d560048036038101906100d0919061036f565b610171565b6040516100e2919061029d565b60405180910390f35b6101056004803603810190610100919061039c565b6101bf565b604051610112919061029d565b60405180910390f35b60007f80000000000000000000000000000000000000000000000000000000000000008267ffffffffffffffff16179050919050565b60008173ffffffffffffffffffffffffffffffffffffffff169050919050565b60007f4000000000000000000000000000000000000000000000000000000000000000827f7fffffffffffffffffffffffffffffffffffffffffffffffffffffffffffffff16179050919050565b60007f80000000000000000000000000000000000000000000000000000000000000008267ffffffffffffffff1660408573ffffffffffffffffffffffffffffffffffffffff16901b1717905092915050565b600080fd5b600067ffffffffffffffff82169050919050565b61023481610217565b811461023f57600080fd5b50565b6000813590506102518161022b565b92915050565b60006020828403121561026d5761026c610212565b5b600061027b84828501610242565b91505092915050565b6000819050919050565b61029781610284565b82525050565b60006020820190506102b2600083018461028e565b92915050565b600073ffffffffffffffffffffffffffffffffffffffff82169050919050565b60006102e3826102b8565b9050919050565b6102f3816102d8565b81146102fe57600080fd5b50565b600081359050610310816102ea565b92915050565b60006020828403121561032c5761032b610212565b5b600061033a84828501610301565b91505092915050565b61034c81610284565b811461035757600080fd5b50565b60008135905061036981610343565b92915050565b60006020828403121561038557610384610212565b5b60006103938482850161035a565b91505092915050565b600080604083850312156103b3576103b2610212565b5b60006103c185828601610301565b92505060206103d285828601610242565b915050925092905056fea2646970667358221220a22196cad7c1b9da135d856145cb353bbba9406563dbaa78c4bf4b36ba9ee91464736f6c634300080a0033",
  "immutableReferences": {},
  "source": "// SPDX-License-Identifier: MIT\npragma solidity >=0.8 <0.9.0;\n\n/**\n * This class defines methods to build the ID of a token,\n * be it fungible or not. Brands are NFTs on their own,\n * while other NFTs start with {01}b, and fungible tokens\n * start with {1}b. Also, fungible tokens emitted by the\n * system itself only use the latter 64 bits (the space\n * they would use for a \"brand\" is always 0).\n */\nlibrary IdUtils {\n    // This mask is used to clear the first flag (to make an NFT id).\n    uint256 constant NFT_FILTER = (1 << 255) - 1;\n\n    // This mask is used to set the second flag (to make a non-brand NFT id).\n    uint256 constant NFT_NONBRAND_SET = (1 << 254);\n\n    // This mask is used to set the first flag (to make a brand FT).\n    uint256 constant FT_SET = (1 << 255);\n\n    /**\n     * Constructs a NFT id. While all the ids for the fungible tokens\n     * start with (binary) 0, the ids for NFTs start with (binary) 1.\n     * While this halves the amount of available tokens for NFT, this\n     * still leaves with a lot of available ids. This one is not meant\n     * to make brands, but arbitrary ids.\n     */\n    function nftId(uint256 id) public pure returns (uint256) {\n        return (NFT_FILTER & id) | NFT_NONBRAND_SET;\n    }\n\n    /**\n     * Constructs a brand token id. It is the same as the generated address.\n     */\n    function brandId(address brand) public pure returns (uint256) {\n        return uint256(uint160(brand));\n    }\n\n    /**\n     * Constructs a brand token id. This consists of a brand address\n     * which must be non-zero to effectively refer a brand, while 0\n     * is reserved for the system) and an index (which might be 0\n     * with no issue at all). All the tokens constructed with this\n     * method are fungible tokens.\n     */\n    function brandTokenId(address brand, uint64 index) public pure returns (uint256) {\n        return uint256(uint160(brand)) << 64 | uint256(index) | FT_SET;\n    }\n\n    /**\n     * Constructs a system token id. This consist of the zero address\n     * and an index. That means that values from FT_MASK | (0 to 2**64-1)\n     * are only used as system tokens. This tokens ids are all meant to\n     * be used for fungible tokens.\n     */\n    function systemTokenId(uint64 index) public pure returns (uint256) {\n        return uint256(index) | FT_SET;\n    }\n}\n",
  "sourcePath": "/home/luismasuelli/Projects/OuterMaze/lingr-contracts/contracts/IdUtils.sol",
  "compiler": {
    "name": "solc",
    "version": "0.8.10+commit.fc410830.Emscripten.clang"
  },
  "schemaVersion": "3.4.3",
  "updatedAt": "2022-07-23T22:23:17.092Z",
  "devdoc": {
    "kind": "dev",
    "methods": {},
    "version": 1
  },
  "userdoc": {
    "kind": "user",
    "methods": {
      "brandId(address)": {
        "notice": "Constructs a brand token id. It is the same as the generated address."
      },
      "brandTokenId(address,uint64)": {
        "notice": "Constructs a brand token id. This consists of a brand address which must be non-zero to effectively refer a brand, while 0 is reserved for the system) and an index (which might be 0 with no issue at all). All the tokens constructed with this method are fungible tokens."
      },
      "nftId(uint256)": {
        "notice": "Constructs a NFT id. While all the ids for the fungible tokens start with (binary) 0, the ids for NFTs start with (binary) 1. While this halves the amount of available tokens for NFT, this still leaves with a lot of available ids. This one is not meant to make brands, but arbitrary ids."
      },
      "systemTokenId(uint64)": {
        "notice": "Constructs a system token id. This consist of the zero address and an index. That means that values from FT_MASK | (0 to 2**64-1) are only used as system tokens. This tokens ids are all meant to be used for fungible tokens."
      }
    },
    "notice": "This class defines methods to build the ID of a token, be it fungible or not. Brands are NFTs on their own, while other NFTs start with {01}b, and fungible tokens start with {1}b. Also, fungible tokens emitted by the system itself only use the latter 64 bits (the space they would use for a \"brand\" is always 0).",
    "version": 1
  }
}