{
  "contractName": "Metaverse",
  "abi": [
    {
      "anonymous": false,
      "inputs": [
        {
          "indexed": true,
          "internalType": "address",
          "name": "previousOwner",
          "type": "address"
        },
        {
          "indexed": true,
          "internalType": "address",
          "name": "newOwner",
          "type": "address"
        }
      ],
      "name": "OwnershipTransferred",
      "type": "event"
    },
    {
      "anonymous": false,
      "inputs": [
        {
          "indexed": true,
          "internalType": "bytes32",
          "name": "permission",
          "type": "bytes32"
        },
        {
          "indexed": true,
          "internalType": "address",
          "name": "user",
          "type": "address"
        },
        {
          "indexed": false,
          "internalType": "bool",
          "name": "set",
          "type": "bool"
        },
        {
          "indexed": false,
          "internalType": "address",
          "name": "sender",
          "type": "address"
        }
      ],
      "name": "PermissionChanged",
      "type": "event"
    },
    {
      "inputs": [],
      "name": "brandRegistry",
      "outputs": [
        {
          "internalType": "address",
          "name": "",
          "type": "address"
        }
      ],
      "stateMutability": "view",
      "type": "function"
    },
    {
      "inputs": [],
      "name": "economy",
      "outputs": [
        {
          "internalType": "address",
          "name": "",
          "type": "address"
        }
      ],
      "stateMutability": "view",
      "type": "function"
    },
    {
      "inputs": [
        {
          "internalType": "address",
          "name": "",
          "type": "address"
        }
      ],
      "name": "nextFTIndex",
      "outputs": [
        {
          "internalType": "uint64",
          "name": "",
          "type": "uint64"
        }
      ],
      "stateMutability": "view",
      "type": "function"
    },
    {
      "inputs": [],
      "name": "nextNFTTypeIndex",
      "outputs": [
        {
          "internalType": "uint256",
          "name": "",
          "type": "uint256"
        }
      ],
      "stateMutability": "view",
      "type": "function"
    },
    {
      "inputs": [
        {
          "internalType": "uint256",
          "name": "",
          "type": "uint256"
        }
      ],
      "name": "nftTypes",
      "outputs": [
        {
          "internalType": "uint256",
          "name": "",
          "type": "uint256"
        }
      ],
      "stateMutability": "view",
      "type": "function"
    },
    {
      "inputs": [],
      "name": "owner",
      "outputs": [
        {
          "internalType": "address",
          "name": "",
          "type": "address"
        }
      ],
      "stateMutability": "view",
      "type": "function"
    },
    {
      "inputs": [
        {
          "internalType": "address",
          "name": "",
          "type": "address"
        }
      ],
      "name": "plugins",
      "outputs": [
        {
          "internalType": "bool",
          "name": "",
          "type": "bool"
        }
      ],
      "stateMutability": "view",
      "type": "function"
    },
    {
      "inputs": [
        {
          "internalType": "uint256",
          "name": "",
          "type": "uint256"
        }
      ],
      "name": "pluginsList",
      "outputs": [
        {
          "internalType": "address",
          "name": "",
          "type": "address"
        }
      ],
      "stateMutability": "view",
      "type": "function"
    },
    {
      "inputs": [],
      "name": "renounceOwnership",
      "outputs": [],
      "stateMutability": "nonpayable",
      "type": "function"
    },
    {
      "inputs": [],
      "name": "signatureVerifier",
      "outputs": [
        {
          "internalType": "address",
          "name": "",
          "type": "address"
        }
      ],
      "stateMutability": "view",
      "type": "function"
    },
    {
      "inputs": [],
      "name": "sponsorRegistry",
      "outputs": [
        {
          "internalType": "address",
          "name": "",
          "type": "address"
        }
      ],
      "stateMutability": "view",
      "type": "function"
    },
    {
      "inputs": [
        {
          "internalType": "uint256",
          "name": "",
          "type": "uint256"
        }
      ],
      "name": "tokenTypeResolvers",
      "outputs": [
        {
          "internalType": "address",
          "name": "",
          "type": "address"
        }
      ],
      "stateMutability": "view",
      "type": "function"
    },
    {
      "inputs": [
        {
          "internalType": "address",
          "name": "newOwner",
          "type": "address"
        }
      ],
      "name": "transferOwnership",
      "outputs": [],
      "stateMutability": "nonpayable",
      "type": "function"
    },
    {
      "inputs": [
        {
          "internalType": "address",
          "name": "_brandId",
          "type": "address"
        }
      ],
      "name": "defineNextFTType",
      "outputs": [
        {
          "internalType": "uint256",
          "name": "",
          "type": "uint256"
        }
      ],
      "stateMutability": "nonpayable",
      "type": "function"
    },
    {
      "inputs": [],
      "name": "defineNextNFTType",
      "outputs": [
        {
          "internalType": "uint256",
          "name": "",
          "type": "uint256"
        }
      ],
      "stateMutability": "nonpayable",
      "type": "function"
    },
    {
      "inputs": [
        {
          "internalType": "address",
          "name": "_to",
          "type": "address"
        },
        {
          "internalType": "uint256",
          "name": "_tokenId",
          "type": "uint256"
        },
        {
          "internalType": "uint256",
          "name": "_amount",
          "type": "uint256"
        },
        {
          "internalType": "bytes",
          "name": "_data",
          "type": "bytes"
        }
      ],
      "name": "mintFTFor",
      "outputs": [],
      "stateMutability": "nonpayable",
      "type": "function"
    },
    {
      "inputs": [
        {
          "internalType": "address",
          "name": "_to",
          "type": "address"
        },
        {
          "internalType": "uint256[]",
          "name": "_tokenIds",
          "type": "uint256[]"
        },
        {
          "internalType": "uint256[]",
          "name": "_amounts",
          "type": "uint256[]"
        },
        {
          "internalType": "bytes",
          "name": "_data",
          "type": "bytes"
        }
      ],
      "name": "mintFTsFor",
      "outputs": [],
      "stateMutability": "nonpayable",
      "type": "function"
    },
    {
      "inputs": [
        {
          "internalType": "address",
          "name": "_to",
          "type": "address"
        },
        {
          "internalType": "uint256",
          "name": "_tokenType",
          "type": "uint256"
        },
        {
          "internalType": "bytes",
          "name": "_data",
          "type": "bytes"
        }
      ],
      "name": "mintNFTFor",
      "outputs": [
        {
          "internalType": "uint256",
          "name": "",
          "type": "uint256"
        }
      ],
      "stateMutability": "nonpayable",
      "type": "function"
    },
    {
      "inputs": [
        {
          "internalType": "address",
          "name": "_to",
          "type": "address"
        },
        {
          "internalType": "uint256[]",
          "name": "_tokenTypes",
          "type": "uint256[]"
        },
        {
          "internalType": "bytes",
          "name": "_data",
          "type": "bytes"
        }
      ],
      "name": "mintNFTsFor",
      "outputs": [
        {
          "internalType": "uint256[]",
          "name": "",
          "type": "uint256[]"
        }
      ],
      "stateMutability": "nonpayable",
      "type": "function"
    },
    {
      "inputs": [
        {
          "internalType": "address",
          "name": "_to",
          "type": "address"
        },
        {
          "internalType": "address",
          "name": "_brandId",
          "type": "address"
        }
      ],
      "name": "mintBrandFor",
      "outputs": [],
      "stateMutability": "nonpayable",
      "type": "function"
    },
    {
      "inputs": [
        {
          "internalType": "uint256",
          "name": "_id",
          "type": "uint256"
        },
        {
          "internalType": "uint256",
          "name": "_amount",
          "type": "uint256"
        }
      ],
      "name": "burnToken",
      "outputs": [],
      "stateMutability": "nonpayable",
      "type": "function"
    },
    {
      "inputs": [
        {
          "internalType": "uint256[]",
          "name": "_ids",
          "type": "uint256[]"
        },
        {
          "internalType": "uint256[]",
          "name": "_amounts",
          "type": "uint256[]"
        }
      ],
      "name": "burnTokens",
      "outputs": [],
      "stateMutability": "nonpayable",
      "type": "function"
    },
    {
      "inputs": [
        {
          "internalType": "uint256",
          "name": "_tokenId",
          "type": "uint256"
        }
      ],
      "name": "tokenURI",
      "outputs": [
        {
          "internalType": "string",
          "name": "",
          "type": "string"
        }
      ],
      "stateMutability": "view",
      "type": "function"
    },
    {
      "inputs": [
        {
          "internalType": "address",
          "name": "_brandId",
          "type": "address"
        },
        {
          "internalType": "address",
          "name": "_newOwner",
          "type": "address"
        }
      ],
      "name": "onBrandOwnerChanged",
      "outputs": [],
      "stateMutability": "nonpayable",
      "type": "function"
    },
    {
      "inputs": [
        {
          "internalType": "uint256",
          "name": "_nftId",
          "type": "uint256"
        },
        {
          "internalType": "address",
          "name": "_newOwner",
          "type": "address"
        }
      ],
      "name": "onNFTOwnerChanged",
      "outputs": [],
      "stateMutability": "nonpayable",
      "type": "function"
    },
    {
      "inputs": [
        {
          "internalType": "address",
          "name": "_contract",
          "type": "address"
        }
      ],
      "name": "addPlugin",
      "outputs": [],
      "stateMutability": "nonpayable",
      "type": "function"
    },
    {
      "inputs": [],
      "name": "pluginsCount",
      "outputs": [
        {
          "internalType": "uint256",
          "name": "",
          "type": "uint256"
        }
      ],
      "stateMutability": "view",
      "type": "function"
    },
    {
      "inputs": [
        {
          "internalType": "address",
          "name": "_contract",
          "type": "address"
        }
      ],
      "name": "setBrandRegistry",
      "outputs": [],
      "stateMutability": "nonpayable",
      "type": "function"
    },
    {
      "inputs": [
        {
          "internalType": "address",
          "name": "_contract",
          "type": "address"
        }
      ],
      "name": "setEconomy",
      "outputs": [],
      "stateMutability": "nonpayable",
      "type": "function"
    },
    {
      "inputs": [
        {
          "internalType": "address",
          "name": "_contract",
          "type": "address"
        }
      ],
      "name": "setSponsorRegistry",
      "outputs": [],
      "stateMutability": "nonpayable",
      "type": "function"
    },
    {
      "inputs": [
        {
          "internalType": "address",
          "name": "_contract",
          "type": "address"
        }
      ],
      "name": "setSignatureVerifier",
      "outputs": [],
      "stateMutability": "nonpayable",
      "type": "function"
    },
    {
      "inputs": [
        {
          "internalType": "bytes4",
          "name": "interfaceId",
          "type": "bytes4"
        }
      ],
      "name": "supportsInterface",
      "outputs": [
        {
          "internalType": "bool",
          "name": "",
          "type": "bool"
        }
      ],
      "stateMutability": "view",
      "type": "function"
    },
    {
      "inputs": [
        {
          "internalType": "bytes32",
          "name": "_permission",
          "type": "bytes32"
        },
        {
          "internalType": "address",
          "name": "_sender",
          "type": "address"
        }
      ],
      "name": "isAllowed",
      "outputs": [
        {
          "internalType": "bool",
          "name": "",
          "type": "bool"
        }
      ],
      "stateMutability": "view",
      "type": "function"
    },
    {
      "inputs": [
        {
          "internalType": "bytes32",
          "name": "_permission",
          "type": "bytes32"
        },
        {
          "internalType": "address",
          "name": "_user",
          "type": "address"
        },
        {
          "internalType": "bool",
          "name": "_allowed",
          "type": "bool"
        }
      ],
      "name": "setPermission",
      "outputs": [],
      "stateMutability": "nonpayable",
      "type": "function"
    },
    {
      "inputs": [
        {
          "internalType": "bytes",
          "name": "_delegation",
          "type": "bytes"
        },
        {
          "internalType": "bytes32",
          "name": "_argsHash",
          "type": "bytes32"
        },
        {
          "internalType": "uint256",
          "name": "_timeout",
          "type": "uint256"
        }
      ],
      "name": "checkSignature",
      "outputs": [
        {
          "internalType": "bytes32",
          "name": "",
          "type": "bytes32"
        },
        {
          "internalType": "address",
          "name": "",
          "type": "address"
        }
      ],
      "stateMutability": "nonpayable",
      "type": "function"
    },
    {
      "inputs": [
        {
          "internalType": "address",
          "name": "_sponsor",
          "type": "address"
        },
        {
          "internalType": "address",
          "name": "_brandId",
          "type": "address"
        }
      ],
      "name": "checkSponsoring",
      "outputs": [],
      "stateMutability": "nonpayable",
      "type": "function"
    }
  ],
  "bytecode": "0x60806040526002600b5574010000000000000000000000000000000000000000600c553480156200002f57600080fd5b5062000050620000446200005660201b60201c565b6200005e60201b60201c565b62000122565b600033905090565b60008060009054906101000a900473ffffffffffffffffffffffffffffffffffffffff169050816000806101000a81548173ffffffffffffffffffffffffffffffffffffffff021916908373ffffffffffffffffffffffffffffffffffffffff1602179055508173ffffffffffffffffffffffffffffffffffffffff168173ffffffffffffffffffffffffffffffffffffffff167f8be0079c531659141344cd1fd0a4f28419497f9722a3daafe3b4186f6b6457e060405160405180910390a35050565b615d8780620001326000396000f3fe608060405234801561001057600080fd5b506004361061021c5760003560e01c80638cd6e9a911610125578063cdfe6be3116100ad578063dcd255a01161007c578063dcd255a01461065e578063de8553761461067a578063e08a6605146106aa578063f2fde38b146106c6578063fde919f6146106e25761021c565b8063cdfe6be3146105d8578063d053bfa1146105f4578063d8867fc814610624578063dbf011c3146106405761021c565b8063acb8a060116100f4578063acb8a06014610510578063ad8509b01461052c578063b842aa9214610548578063c05cb36f14610578578063c87b56dd146105a85761021c565b80638cd6e9a91461049e5780638da5cb5b146104ba5780639679f011146104d8578063a16bc2ae146104f45761021c565b8063556112d4116101a857806379b2ab231161017757806379b2ab23146103d457806382027b6d146104045780638225b247146104345780638272bb17146104505780638820f6bd146104805761021c565b8063556112d414610372578063599e4c70146103905780635b1798e4146103ac578063715018a6146103ca5761021c565b806309f6567e116101ef57806309f6567e146102d05780631b5dc598146102ee5780633ef3e1ee1461030a5780634b12e643146103265780634c808f96146103565761021c565b806301ffc9a71461022157806304a6fdc01461025157806307d00b8814610281578063098c14ac1461029f575b600080fd5b61023b60048036038101906102369190613670565b610700565b60405161024891906136b8565b60405180910390f35b61026b600480360381019061026691906138ad565b6107d2565b604051610278919061392b565b60405180910390f35b61028961087b565b604051610296919061392b565b60405180910390f35b6102b960048036038101906102b4919061397c565b610881565b6040516102c7929190613a09565b60405180910390f35b6102d8610b25565b6040516102e5919061392b565b60405180910390f35b61030860048036038101906103039190613a32565b610b32565b005b610324600480360381019061031f9190613a72565b610d0c565b005b610340600480360381019061033b9190613a72565b610ebc565b60405161034d91906136b8565b60405180910390f35b610370600480360381019061036b9190613b67565b610edc565b005b61037a611027565b604051610387919061392b565b60405180910390f35b6103aa60048036038101906103a59190613c4e565b61122b565b005b6103b461147e565b6040516103c19190613ca1565b60405180910390f35b6103d26114a4565b005b6103ee60048036038101906103e99190613cbc565b6114b8565b6040516103fb919061392b565b60405180910390f35b61041e60048036038101906104199190613ce9565b6114d0565b60405161042b91906136b8565b60405180910390f35b61044e60048036038101906104499190613d29565b6115fd565b005b61046a60048036038101906104659190613d69565b61172c565b6040516104779190613eb2565b60405180910390f35b6104886118c3565b6040516104959190613ca1565b60405180910390f35b6104b860048036038101906104b39190613a32565b6118e9565b005b6104c2611a13565b6040516104cf9190613ca1565b60405180910390f35b6104f260048036038101906104ed9190613ed4565b611a3c565b005b61050e60048036038101906105099190613f14565b611bdf565b005b61052a60048036038101906105259190613a72565b611c84565b005b61054660048036038101906105419190613a72565b611e34565b005b610562600480360381019061055d9190613a72565b611fe4565b60405161056f919061392b565b60405180910390f35b610592600480360381019061058d9190613cbc565b6122e3565b60405161059f9190613ca1565b60405180910390f35b6105c260048036038101906105bd9190613cbc565b612322565b6040516105cf919061401f565b60405180910390f35b6105f260048036038101906105ed9190614041565b612445565b005b61060e60048036038101906106099190613cbc565b612574565b60405161061b9190613ca1565b60405180910390f35b61063e60048036038101906106399190613a72565b6125a7565b005b61064861282c565b6040516106559190613ca1565b60405180910390f35b61067860048036038101906106739190613a32565b612852565b005b610694600480360381019061068f9190613a72565b6129f2565b6040516106a191906140dc565b60405180910390f35b6106c460048036038101906106bf9190613a72565b612a19565b005b6106e060048036038101906106db9190613a72565b612bc9565b005b6106ea612c4d565b6040516106f79190613ca1565b60405180910390f35b60007f01ffc9a7000000000000000000000000000000000000000000000000000000007bffffffffffffffffffffffffffffffffffffffffffffffffffffffff1916827bffffffffffffffffffffffffffffffffffffffffffffffffffffffff191614806107cb57507f5936148c000000000000000000000000000000000000000000000000000000007bffffffffffffffffffffffffffffffffffffffffffffffffffffffff1916827bffffffffffffffffffffffffffffffffffffffffffffffffffffffff1916145b9050919050565b6000600160006107e0612c73565b73ffffffffffffffffffffffffffffffffffffffff1673ffffffffffffffffffffffffffffffffffffffff16815260200190815260200160002060009054906101000a900460ff16610867576040517f08c379a000000000000000000000000000000000000000000000000000000000815260040161085e90614169565b60405180910390fd5b610872848484612c7b565b90509392505050565b600b5481565b6000806000806000808880602001905181019061089e9190614261565b93509350935093506000600660009054906101000a900473ffffffffffffffffffffffffffffffffffffffff1673ffffffffffffffffffffffffffffffffffffffff1663daca6f7884846040518363ffffffff1660e01b8152600401610905929190614339565b602060405180830381865afa158015610922573d6000803e3d6000fd5b505050506040513d601f19601f82011682018060405250810190610946919061437e565b90508473ffffffffffffffffffffffffffffffffffffffff168173ffffffffffffffffffffffffffffffffffffffff16146109b6576040517f08c379a00000000000000000000000000000000000000000000000000000000081526004016109ad9061441d565b60405180910390fd5b87846109c2919061446c565b42101580156109dc575087846109d891906144a0565b4211155b610a1b576040517f08c379a0000000000000000000000000000000000000000000000000000000008152600401610a1290614542565b60405180910390fd5b8884604051602001610a2e9291906145a4565b604051602081830303815290604052805190602001208314610a85576040517f08c379a0000000000000000000000000000000000000000000000000000000008152600401610a7c90614642565b60405180910390fd5b6007600084815260200190815260200160002060009054906101000a900460ff1615610ae6576040517f08c379a0000000000000000000000000000000000000000000000000000000008152600401610add906146d4565b60405180910390fd5b60016007600085815260200190815260200160002060006101000a81548160ff0219169083151502179055508281965096505050505050935093915050565b6000600280549050905090565b600360009054906101000a900473ffffffffffffffffffffffffffffffffffffffff1673ffffffffffffffffffffffffffffffffffffffff16610b73612c73565b73ffffffffffffffffffffffffffffffffffffffff1614610bc9576040517f08c379a0000000000000000000000000000000000000000000000000000000008152600401610bc090614766565b60405180910390fd5b600360009054906101000a900473ffffffffffffffffffffffffffffffffffffffff1673ffffffffffffffffffffffffffffffffffffffff16610c0a612c73565b73ffffffffffffffffffffffffffffffffffffffff1614610c60576040517f08c379a0000000000000000000000000000000000000000000000000000000008152600401610c5790614766565b60405180910390fd5b600460009054906101000a900473ffffffffffffffffffffffffffffffffffffffff1673ffffffffffffffffffffffffffffffffffffffff16635b0034fd838373ffffffffffffffffffffffffffffffffffffffff1660016040518463ffffffff1660e01b8152600401610cd693929190614817565b600060405180830381600087803b158015610cf057600080fd5b505af1158015610d04573d6000803e3d6000fd5b505050505050565b7fd423ad544012a26581f96974df14c7d7d97157b066baad5968ccd34bb052421c610d3e81610d39612c73565b6114d0565b610d7d576040517f08c379a0000000000000000000000000000000000000000000000000000000008152600401610d74906148f9565b60405180910390fd5b610da7827f4db5ac0500000000000000000000000000000000000000000000000000000000612f47565b610de6576040517f08c379a0000000000000000000000000000000000000000000000000000000008152600401610ddd906149b1565b60405180910390fd5b600073ffffffffffffffffffffffffffffffffffffffff16600560009054906101000a900473ffffffffffffffffffffffffffffffffffffffff1673ffffffffffffffffffffffffffffffffffffffff1614610e77576040517f08c379a0000000000000000000000000000000000000000000000000000000008152600401610e6e90614a43565b60405180910390fd5b81600560006101000a81548173ffffffffffffffffffffffffffffffffffffffff021916908373ffffffffffffffffffffffffffffffffffffffff1602179055505050565b60016020528060005260406000206000915054906101000a900460ff1681565b60016000610ee8612c73565b73ffffffffffffffffffffffffffffffffffffffff1673ffffffffffffffffffffffffffffffffffffffff16815260200190815260200160002060009054906101000a900460ff16610f6f576040517f08c379a0000000000000000000000000000000000000000000000000000000008152600401610f6690614169565b60405180910390fd5b81518351148015610f8257506000825114155b610fc1576040517f08c379a0000000000000000000000000000000000000000000000000000000008152600401610fb890614afb565b60405180910390fd5b60005b83518110156110205761100d85858381518110610fe457610fe3614b1b565b5b6020026020010151858481518110610fff57610ffe614b1b565b5b602002602001015185613070565b808061101890614b4a565b915050610fc4565b5050505050565b600060016000611035612c73565b73ffffffffffffffffffffffffffffffffffffffff1673ffffffffffffffffffffffffffffffffffffffff16815260200190815260200160002060009054906101000a900460ff166110bc576040517f08c379a00000000000000000000000000000000000000000000000000000000081526004016110b390614169565b60405180910390fd5b6000600b54905060007f7fffffffffffffffffffffffffffffffffffffffffffffffffffffffffffffff90505b6001156111b757808210611132576040517f08c379a000000000000000000000000000000000000000000000000000000000815260040161112990614c05565b60405180910390fd5b600073ffffffffffffffffffffffffffffffffffffffff166008600084815260200190815260200160002060009054906101000a900473ffffffffffffffffffffffffffffffffffffffff1673ffffffffffffffffffffffffffffffffffffffff16146111ad576001826111a691906144a0565b91506111b2565b6111b7565b6110e9565b6001826111c491906144a0565b600b819055506111d2612c73565b6008600084815260200190815260200160002060006101000a81548173ffffffffffffffffffffffffffffffffffffffff021916908373ffffffffffffffffffffffffffffffffffffffff160217905550819250505090565b7fffffffffffffffffffffffffffffffffffffffffffffffffffffffffffffffff60001b6112608161125b612c73565b6114d0565b61129f576040517f08c379a0000000000000000000000000000000000000000000000000000000008152600401611296906148f9565b60405180910390fd5b60006112a9612c73565b9050600073ffffffffffffffffffffffffffffffffffffffff168473ffffffffffffffffffffffffffffffffffffffff16141561131b576040517f08c379a000000000000000000000000000000000000000000000000000000000815260040161131290614c97565b60405180910390fd5b611323611a13565b73ffffffffffffffffffffffffffffffffffffffff168173ffffffffffffffffffffffffffffffffffffffff16148061137f57507fffffffffffffffffffffffffffffffffffffffffffffffffffffffffffffffff60001b8514155b6113be576040517f08c379a00000000000000000000000000000000000000000000000000000000081526004016113b590614d29565b60405180910390fd5b82600d600087815260200190815260200160002060008673ffffffffffffffffffffffffffffffffffffffff1673ffffffffffffffffffffffffffffffffffffffff16815260200190815260200160002060006101000a81548160ff0219169083151502179055508373ffffffffffffffffffffffffffffffffffffffff16857f24af309445c2eef44ddf2bae5d5064c30788ae79ce92147e1c025c92500cebdb858460405161146f929190614d49565b60405180910390a35050505050565b600360009054906101000a900473ffffffffffffffffffffffffffffffffffffffff1681565b6114ac613216565b6114b66000613294565b565b60096020528060005260406000206000915090505481565b60006114da611a13565b73ffffffffffffffffffffffffffffffffffffffff168273ffffffffffffffffffffffffffffffffffffffff1614806115905750600d60007fffffffffffffffffffffffffffffffffffffffffffffffffffffffffffffffff60001b815260200190815260200160002060008373ffffffffffffffffffffffffffffffffffffffff1673ffffffffffffffffffffffffffffffffffffffff16815260200190815260200160002060009054906101000a900460ff165b806115f55750600d600084815260200190815260200160002060008373ffffffffffffffffffffffffffffffffffffffff1673ffffffffffffffffffffffffffffffffffffffff16815260200190815260200160002060009054906101000a900460ff165b905092915050565b60016000611609612c73565b73ffffffffffffffffffffffffffffffffffffffff1673ffffffffffffffffffffffffffffffffffffffff16815260200190815260200160002060009054906101000a900460ff16611690576040517f08c379a000000000000000000000000000000000000000000000000000000000815260040161168790614169565b60405180910390fd5b600460009054906101000a900473ffffffffffffffffffffffffffffffffffffffff1673ffffffffffffffffffffffffffffffffffffffff1663f5298aca6116d6612c73565b84846040518463ffffffff1660e01b81526004016116f693929190614d72565b600060405180830381600087803b15801561171057600080fd5b505af1158015611724573d6000803e3d6000fd5b505050505050565b60606001600061173a612c73565b73ffffffffffffffffffffffffffffffffffffffff1673ffffffffffffffffffffffffffffffffffffffff16815260200190815260200160002060009054906101000a900460ff166117c1576040517f08c379a00000000000000000000000000000000000000000000000000000000081526004016117b890614169565b60405180910390fd5b600083511415611806576040517f08c379a00000000000000000000000000000000000000000000000000000000081526004016117fd90614e1b565b60405180910390fd5b6000835167ffffffffffffffff81111561182357611822613782565b5b6040519080825280602002602001820160405280156118515781602001602082028036833780820191505090505b50905060005b84518110156118b7576118858686838151811061187757611876614b1b565b5b602002602001015186612c7b565b82828151811061189857611897614b1b565b5b60200260200101818152505080806118af90614b4a565b915050611857565b50809150509392505050565b600460009054906101000a900473ffffffffffffffffffffffffffffffffffffffff1681565b600460009054906101000a900473ffffffffffffffffffffffffffffffffffffffff1673ffffffffffffffffffffffffffffffffffffffff1661192a612c73565b73ffffffffffffffffffffffffffffffffffffffff1614611980576040517f08c379a000000000000000000000000000000000000000000000000000000000815260040161197790614ead565b60405180910390fd5b600360009054906101000a900473ffffffffffffffffffffffffffffffffffffffff1673ffffffffffffffffffffffffffffffffffffffff16638cd6e9a983836040518363ffffffff1660e01b81526004016119dd929190614ecd565b600060405180830381600087803b1580156119f757600080fd5b505af1158015611a0b573d6000803e3d6000fd5b505050505050565b60008060009054906101000a900473ffffffffffffffffffffffffffffffffffffffff16905090565b600460009054906101000a900473ffffffffffffffffffffffffffffffffffffffff1673ffffffffffffffffffffffffffffffffffffffff16611a7d612c73565b73ffffffffffffffffffffffffffffffffffffffff1614611ad3576040517f08c379a0000000000000000000000000000000000000000000000000000000008152600401611aca90614ead565b60405180910390fd5b6000600860006009600086815260200190815260200160002054815260200190815260200160002060009054906101000a900473ffffffffffffffffffffffffffffffffffffffff169050611b677f9679f011000000000000000000000000000000000000000000000000000000008273ffffffffffffffffffffffffffffffffffffffff1661335890919063ffffffff16565b15611bda578073ffffffffffffffffffffffffffffffffffffffff16639679f01184846040518363ffffffff1660e01b8152600401611ba7929190614ef6565b600060405180830381600087803b158015611bc157600080fd5b505af1158015611bd5573d6000803e3d6000fd5b505050505b505050565b60016000611beb612c73565b73ffffffffffffffffffffffffffffffffffffffff1673ffffffffffffffffffffffffffffffffffffffff16815260200190815260200160002060009054906101000a900460ff16611c72576040517f08c379a0000000000000000000000000000000000000000000000000000000008152600401611c6990614169565b60405180910390fd5b611c7e84848484613070565b50505050565b7fd423ad544012a26581f96974df14c7d7d97157b066baad5968ccd34bb052421c611cb681611cb1612c73565b6114d0565b611cf5576040517f08c379a0000000000000000000000000000000000000000000000000000000008152600401611cec906148f9565b60405180910390fd5b611d1f827f3c60948000000000000000000000000000000000000000000000000000000000612f47565b611d5e576040517f08c379a0000000000000000000000000000000000000000000000000000000008152600401611d5590614fb7565b60405180910390fd5b600073ffffffffffffffffffffffffffffffffffffffff16600360009054906101000a900473ffffffffffffffffffffffffffffffffffffffff1673ffffffffffffffffffffffffffffffffffffffff1614611def576040517f08c379a0000000000000000000000000000000000000000000000000000000008152600401611de690615049565b60405180910390fd5b81600360006101000a81548173ffffffffffffffffffffffffffffffffffffffff021916908373ffffffffffffffffffffffffffffffffffffffff1602179055505050565b7fd423ad544012a26581f96974df14c7d7d97157b066baad5968ccd34bb052421c611e6681611e61612c73565b6114d0565b611ea5576040517f08c379a0000000000000000000000000000000000000000000000000000000008152600401611e9c906148f9565b60405180910390fd5b611ecf827fc5097a6300000000000000000000000000000000000000000000000000000000612f47565b611f0e576040517f08c379a0000000000000000000000000000000000000000000000000000000008152600401611f0590615101565b60405180910390fd5b600073ffffffffffffffffffffffffffffffffffffffff16600460009054906101000a900473ffffffffffffffffffffffffffffffffffffffff1673ffffffffffffffffffffffffffffffffffffffff1614611f9f576040517f08c379a0000000000000000000000000000000000000000000000000000000008152600401611f9690615193565b60405180910390fd5b81600460006101000a81548173ffffffffffffffffffffffffffffffffffffffff021916908373ffffffffffffffffffffffffffffffffffffffff1602179055505050565b600060016000611ff2612c73565b73ffffffffffffffffffffffffffffffffffffffff1673ffffffffffffffffffffffffffffffffffffffff16815260200190815260200160002060009054906101000a900460ff16612079576040517f08c379a000000000000000000000000000000000000000000000000000000000815260040161207090614169565b60405180910390fd5b6000600a60008473ffffffffffffffffffffffffffffffffffffffff1673ffffffffffffffffffffffffffffffffffffffff16815260200190815260200160002060009054906101000a900467ffffffffffffffff16905060008167ffffffffffffffff1660408573ffffffffffffffffffffffffffffffffffffffff16901b7f8000000000000000000000000000000000000000000000000000000000000000171790505b60011561220e5767ffffffffffffffff8267ffffffffffffffff161061217a576040517f08c379a000000000000000000000000000000000000000000000000000000000815260040161217190615225565b60405180910390fd5b600073ffffffffffffffffffffffffffffffffffffffff166008600083815260200190815260200160002060009054906101000a900473ffffffffffffffffffffffffffffffffffffffff1673ffffffffffffffffffffffffffffffffffffffff1614612204576001826121ee9190615245565b91506001816121fd91906144a0565b9050612209565b61220e565b61211f565b60018261221b9190615245565b600a60008673ffffffffffffffffffffffffffffffffffffffff1673ffffffffffffffffffffffffffffffffffffffff16815260200190815260200160002060006101000a81548167ffffffffffffffff021916908367ffffffffffffffff160217905550612288612c73565b6008600083815260200190815260200160002060006101000a81548173ffffffffffffffffffffffffffffffffffffffff021916908373ffffffffffffffffffffffffffffffffffffffff1602179055508092505050919050565b600281815481106122f357600080fd5b906000526020600020016000915054906101000a900473ffffffffffffffffffffffffffffffffffffffff1681565b6060740100000000000000000000000000000000000000008210156123e957600360009054906101000a900473ffffffffffffffffffffffffffffffffffffffff1673ffffffffffffffffffffffffffffffffffffffff16639896c31d836040518263ffffffff1660e01b815260040161239c9190613ca1565b600060405180830381865afa1580156123b9573d6000803e3d6000fd5b505050506040513d6000823e3d601f19601f820116820180604052508101906123e29190615324565b9050612440565b7f80000000000000000000000000000000000000000000000000000000000000008210156124345761242d600960008481526020019081526020016000205461337d565b9050612440565b61243d8261337d565b90505b919050565b60016000612451612c73565b73ffffffffffffffffffffffffffffffffffffffff1673ffffffffffffffffffffffffffffffffffffffff16815260200190815260200160002060009054906101000a900460ff166124d8576040517f08c379a00000000000000000000000000000000000000000000000000000000081526004016124cf90614169565b60405180910390fd5b600460009054906101000a900473ffffffffffffffffffffffffffffffffffffffff1673ffffffffffffffffffffffffffffffffffffffff16636b20c45461251e612c73565b84846040518463ffffffff1660e01b815260040161253e9392919061536d565b600060405180830381600087803b15801561255857600080fd5b505af115801561256c573d6000803e3d6000fd5b505050505050565b60086020528060005260406000206000915054906101000a900473ffffffffffffffffffffffffffffffffffffffff1681565b7fd423ad544012a26581f96974df14c7d7d97157b066baad5968ccd34bb052421c6125d9816125d4612c73565b6114d0565b612618576040517f08c379a000000000000000000000000000000000000000000000000000000000815260040161260f906148f9565b60405180910390fd5b612642827fc5d91d0c00000000000000000000000000000000000000000000000000000000612f47565b612681576040517f08c379a00000000000000000000000000000000000000000000000000000000081526004016126789061544a565b60405180910390fd5b600160008373ffffffffffffffffffffffffffffffffffffffff1673ffffffffffffffffffffffffffffffffffffffff16815260200190815260200160002060009054906101000a900460ff161561270e576040517f08c379a0000000000000000000000000000000000000000000000000000000008152600401612705906154dc565b60405180910390fd5b60018060008473ffffffffffffffffffffffffffffffffffffffff1673ffffffffffffffffffffffffffffffffffffffff16815260200190815260200160002060006101000a81548160ff0219169083151502179055506002829080600181540180825580915050600190039060005260206000200160009091909190916101000a81548173ffffffffffffffffffffffffffffffffffffffff021916908373ffffffffffffffffffffffffffffffffffffffff1602179055508173ffffffffffffffffffffffffffffffffffffffff16638129fc1c6040518163ffffffff1660e01b8152600401600060405180830381600087803b15801561281057600080fd5b505af1158015612824573d6000803e3d6000fd5b505050505050565b600560009054906101000a900473ffffffffffffffffffffffffffffffffffffffff1681565b6000600560009054906101000a900473ffffffffffffffffffffffffffffffffffffffff1690508073ffffffffffffffffffffffffffffffffffffffff1663d35590c2846040518263ffffffff1660e01b81526004016128b29190613ca1565b602060405180830381865afa1580156128cf573d6000803e3d6000fd5b505050506040513d601f19601f820116820180604052508101906128f39190615511565b612932576040517f08c379a0000000000000000000000000000000000000000000000000000000008152600401612929906155b0565b60405180910390fd5b8073ffffffffffffffffffffffffffffffffffffffff16639ee03cc784846040518363ffffffff1660e01b815260040161296d929190614ecd565b602060405180830381865afa15801561298a573d6000803e3d6000fd5b505050506040513d601f19601f820116820180604052508101906129ae9190615511565b6129ed576040517f08c379a00000000000000000000000000000000000000000000000000000000081526004016129e490615642565b60405180910390fd5b505050565b600a6020528060005260406000206000915054906101000a900467ffffffffffffffff1681565b7fd423ad544012a26581f96974df14c7d7d97157b066baad5968ccd34bb052421c612a4b81612a46612c73565b6114d0565b612a8a576040517f08c379a0000000000000000000000000000000000000000000000000000000008152600401612a81906148f9565b60405180910390fd5b612ab4827f76b503c300000000000000000000000000000000000000000000000000000000612f47565b612af3576040517f08c379a0000000000000000000000000000000000000000000000000000000008152600401612aea906156fa565b60405180910390fd5b600073ffffffffffffffffffffffffffffffffffffffff16600660009054906101000a900473ffffffffffffffffffffffffffffffffffffffff1673ffffffffffffffffffffffffffffffffffffffff1614612b84576040517f08c379a0000000000000000000000000000000000000000000000000000000008152600401612b7b906157b2565b60405180910390fd5b81600660006101000a81548173ffffffffffffffffffffffffffffffffffffffff021916908373ffffffffffffffffffffffffffffffffffffffff1602179055505050565b612bd1613216565b600073ffffffffffffffffffffffffffffffffffffffff168173ffffffffffffffffffffffffffffffffffffffff161415612c41576040517f08c379a0000000000000000000000000000000000000000000000000000000008152600401612c3890615844565b60405180910390fd5b612c4a81613294565b50565b600660009054906101000a900473ffffffffffffffffffffffffffffffffffffffff1681565b600033905090565b6000827f80000000000000000000000000000000000000000000000000000000000000008110612ce0576040517f08c379a0000000000000000000000000000000000000000000000000000000008152600401612cd7906158d6565b60405180910390fd5b612ce8612c73565b73ffffffffffffffffffffffffffffffffffffffff166008600086815260200190815260200160002060009054906101000a900473ffffffffffffffffffffffffffffffffffffffff1673ffffffffffffffffffffffffffffffffffffffff1614612d88576040517f08c379a0000000000000000000000000000000000000000000000000000000008152600401612d7f90615968565b60405180910390fd5b6002841015612dcc576040517f08c379a0000000000000000000000000000000000000000000000000000000008152600401612dc3906159fa565b60405180910390fd5b6000600c54905060007f7fffffffffffffffffffffffffffffffffffffffffffffffffffffffffffffff90505b600115612e7b57808210612e42576040517f08c379a0000000000000000000000000000000000000000000000000000000008152600401612e3990615a66565b60405180910390fd5b6000600960008481526020019081526020016000205414612e7157600182612e6a91906144a0565b9150612e76565b612e7b565b612df9565b600182612e8891906144a0565b600c81905550600460009054906101000a900473ffffffffffffffffffffffffffffffffffffffff1673ffffffffffffffffffffffffffffffffffffffff16635b0034fd88846001896040518563ffffffff1660e01b8152600401612ef09493929190615a86565b600060405180830381600087803b158015612f0a57600080fd5b505af1158015612f1e573d6000803e3d6000fd5b505050508560096000848152602001908152602001600020819055508193505050509392505050565b6000612f927ff200670d000000000000000000000000000000000000000000000000000000008473ffffffffffffffffffffffffffffffffffffffff1661335890919063ffffffff16565b8015612fc35750612fc2828473ffffffffffffffffffffffffffffffffffffffff1661335890919063ffffffff16565b5b801561306857503073ffffffffffffffffffffffffffffffffffffffff168373ffffffffffffffffffffffffffffffffffffffff1663f200670d6040518163ffffffff1660e01b8152600401602060405180830381865afa15801561302c573d6000803e3d6000fd5b505050506040513d601f19601f82011682018060405250810190613050919061437e565b73ffffffffffffffffffffffffffffffffffffffff16145b905092915050565b827f80000000000000000000000000000000000000000000000000000000000000008110156130d4576040517f08c379a00000000000000000000000000000000000000000000000000000000081526004016130cb90615b6a565b60405180910390fd5b6130dc612c73565b73ffffffffffffffffffffffffffffffffffffffff166008600086815260200190815260200160002060009054906101000a900473ffffffffffffffffffffffffffffffffffffffff1673ffffffffffffffffffffffffffffffffffffffff161461317c576040517f08c379a000000000000000000000000000000000000000000000000000000000815260040161317390615bfc565b60405180910390fd5b600460009054906101000a900473ffffffffffffffffffffffffffffffffffffffff1673ffffffffffffffffffffffffffffffffffffffff16635b0034fd868686866040518563ffffffff1660e01b81526004016131dd9493929190615c1c565b600060405180830381600087803b1580156131f757600080fd5b505af115801561320b573d6000803e3d6000fd5b505050505050505050565b61321e612c73565b73ffffffffffffffffffffffffffffffffffffffff1661323c611a13565b73ffffffffffffffffffffffffffffffffffffffff1614613292576040517f08c379a000000000000000000000000000000000000000000000000000000000815260040161328990615cb4565b60405180910390fd5b565b60008060009054906101000a900473ffffffffffffffffffffffffffffffffffffffff169050816000806101000a81548173ffffffffffffffffffffffffffffffffffffffff021916908373ffffffffffffffffffffffffffffffffffffffff1602179055508173ffffffffffffffffffffffffffffffffffffffff168173ffffffffffffffffffffffffffffffffffffffff167f8be0079c531659141344cd1fd0a4f28419497f9722a3daafe3b4186f6b6457e060405160405180910390a35050565b60006133638361348c565b8015613375575061337483836134d9565b5b905092915050565b606060006008600084815260200190815260200160002060009054906101000a900473ffffffffffffffffffffffffffffffffffffffff169050600073ffffffffffffffffffffffffffffffffffffffff168173ffffffffffffffffffffffffffffffffffffffff1614156134045760405180602001604052806000815250915050613487565b8073ffffffffffffffffffffffffffffffffffffffff16630e89341c846040518263ffffffff1660e01b815260040161343d919061392b565b600060405180830381865afa15801561345a573d6000803e3d6000fd5b505050506040513d6000823e3d601f19601f820116820180604052508101906134839190615324565b9150505b919050565b60006134b8827f01ffc9a7000000000000000000000000000000000000000000000000000000006134d9565b80156134d257506134d08263ffffffff60e01b6134d9565b155b9050919050565b6000806301ffc9a760e01b836040516024016134f59190615ce3565b604051602081830303815290604052907bffffffffffffffffffffffffffffffffffffffffffffffffffffffff19166020820180517bffffffffffffffffffffffffffffffffffffffffffffffffffffffff838183161783525050505090506000808573ffffffffffffffffffffffffffffffffffffffff166175308460405161357f9190615d3a565b6000604051808303818686fa925050503d80600081146135bb576040519150601f19603f3d011682016040523d82523d6000602084013e6135c0565b606091505b50915091506020815110156135db57600093505050506135fe565b8180156135f85750808060200190518101906135f79190615511565b5b93505050505b92915050565b6000604051905090565b600080fd5b600080fd5b60007fffffffff0000000000000000000000000000000000000000000000000000000082169050919050565b61364d81613618565b811461365857600080fd5b50565b60008135905061366a81613644565b92915050565b6000602082840312156136865761368561360e565b5b60006136948482850161365b565b91505092915050565b60008115159050919050565b6136b28161369d565b82525050565b60006020820190506136cd60008301846136a9565b92915050565b600073ffffffffffffffffffffffffffffffffffffffff82169050919050565b60006136fe826136d3565b9050919050565b61370e816136f3565b811461371957600080fd5b50565b60008135905061372b81613705565b92915050565b6000819050919050565b61374481613731565b811461374f57600080fd5b50565b6000813590506137618161373b565b92915050565b600080fd5b600080fd5b6000601f19601f8301169050919050565b7f4e487b7100000000000000000000000000000000000000000000000000000000600052604160045260246000fd5b6137ba82613771565b810181811067ffffffffffffffff821117156137d9576137d8613782565b5b80604052505050565b60006137ec613604565b90506137f882826137b1565b919050565b600067ffffffffffffffff82111561381857613817613782565b5b61382182613771565b9050602081019050919050565b82818337600083830152505050565b600061385061384b846137fd565b6137e2565b90508281526020810184848401111561386c5761386b61376c565b5b61387784828561382e565b509392505050565b600082601f83011261389457613893613767565b5b81356138a484826020860161383d565b91505092915050565b6000806000606084860312156138c6576138c561360e565b5b60006138d48682870161371c565b93505060206138e586828701613752565b925050604084013567ffffffffffffffff81111561390657613905613613565b5b6139128682870161387f565b9150509250925092565b61392581613731565b82525050565b6000602082019050613940600083018461391c565b92915050565b6000819050919050565b61395981613946565b811461396457600080fd5b50565b60008135905061397681613950565b92915050565b6000806000606084860312156139955761399461360e565b5b600084013567ffffffffffffffff8111156139b3576139b2613613565b5b6139bf8682870161387f565b93505060206139d086828701613967565b92505060406139e186828701613752565b9150509250925092565b6139f481613946565b82525050565b613a03816136f3565b82525050565b6000604082019050613a1e60008301856139eb565b613a2b60208301846139fa565b9392505050565b60008060408385031215613a4957613a4861360e565b5b6000613a578582860161371c565b9250506020613a688582860161371c565b9150509250929050565b600060208284031215613a8857613a8761360e565b5b6000613a968482850161371c565b91505092915050565b600067ffffffffffffffff821115613aba57613ab9613782565b5b602082029050602081019050919050565b600080fd5b6000613ae3613ade84613a9f565b6137e2565b90508083825260208201905060208402830185811115613b0657613b05613acb565b5b835b81811015613b2f5780613b1b8882613752565b845260208401935050602081019050613b08565b5050509392505050565b600082601f830112613b4e57613b4d613767565b5b8135613b5e848260208601613ad0565b91505092915050565b60008060008060808587031215613b8157613b8061360e565b5b6000613b8f8782880161371c565b945050602085013567ffffffffffffffff811115613bb057613baf613613565b5b613bbc87828801613b39565b935050604085013567ffffffffffffffff811115613bdd57613bdc613613565b5b613be987828801613b39565b925050606085013567ffffffffffffffff811115613c0a57613c09613613565b5b613c168782880161387f565b91505092959194509250565b613c2b8161369d565b8114613c3657600080fd5b50565b600081359050613c4881613c22565b92915050565b600080600060608486031215613c6757613c6661360e565b5b6000613c7586828701613967565b9350506020613c868682870161371c565b9250506040613c9786828701613c39565b9150509250925092565b6000602082019050613cb660008301846139fa565b92915050565b600060208284031215613cd257613cd161360e565b5b6000613ce084828501613752565b91505092915050565b60008060408385031215613d0057613cff61360e565b5b6000613d0e85828601613967565b9250506020613d1f8582860161371c565b9150509250929050565b60008060408385031215613d4057613d3f61360e565b5b6000613d4e85828601613752565b9250506020613d5f85828601613752565b9150509250929050565b600080600060608486031215613d8257613d8161360e565b5b6000613d908682870161371c565b935050602084013567ffffffffffffffff811115613db157613db0613613565b5b613dbd86828701613b39565b925050604084013567ffffffffffffffff811115613dde57613ddd613613565b5b613dea8682870161387f565b9150509250925092565b600081519050919050565b600082825260208201905092915050565b6000819050602082019050919050565b613e2981613731565b82525050565b6000613e3b8383613e20565b60208301905092915050565b6000602082019050919050565b6000613e5f82613df4565b613e698185613dff565b9350613e7483613e10565b8060005b83811015613ea5578151613e8c8882613e2f565b9750613e9783613e47565b925050600181019050613e78565b5085935050505092915050565b60006020820190508181036000830152613ecc8184613e54565b905092915050565b60008060408385031215613eeb57613eea61360e565b5b6000613ef985828601613752565b9250506020613f0a8582860161371c565b9150509250929050565b60008060008060808587031215613f2e57613f2d61360e565b5b6000613f3c8782880161371c565b9450506020613f4d87828801613752565b9350506040613f5e87828801613752565b925050606085013567ffffffffffffffff811115613f7f57613f7e613613565b5b613f8b8782880161387f565b91505092959194509250565b600081519050919050565b600082825260208201905092915050565b60005b83811015613fd1578082015181840152602081019050613fb6565b83811115613fe0576000848401525b50505050565b6000613ff182613f97565b613ffb8185613fa2565b935061400b818560208601613fb3565b61401481613771565b840191505092915050565b600060208201905081810360008301526140398184613fe6565b905092915050565b600080604083850312156140585761405761360e565b5b600083013567ffffffffffffffff81111561407657614075613613565b5b61408285828601613b39565b925050602083013567ffffffffffffffff8111156140a3576140a2613613565b5b6140af85828601613b39565b9150509250929050565b600067ffffffffffffffff82169050919050565b6140d6816140b9565b82525050565b60006020820190506140f160008301846140cd565b92915050565b7f4d65746176657273653a207468652073656e646572206d75737420626520612060008201527f706c75672d696e00000000000000000000000000000000000000000000000000602082015250565b6000614153602783613fa2565b915061415e826140f7565b604082019050919050565b6000602082019050818103600083015261418281614146565b9050919050565b6000614194826136d3565b9050919050565b6141a481614189565b81146141af57600080fd5b50565b6000815190506141c18161419b565b92915050565b6000815190506141d68161373b565b92915050565b6000815190506141eb81613950565b92915050565b60006142046141ff846137fd565b6137e2565b9050828152602081018484840111156142205761421f61376c565b5b61422b848285613fb3565b509392505050565b600082601f83011261424857614247613767565b5b81516142588482602086016141f1565b91505092915050565b6000806000806080858703121561427b5761427a61360e565b5b6000614289878288016141b2565b945050602061429a878288016141c7565b93505060406142ab878288016141dc565b925050606085015167ffffffffffffffff8111156142cc576142cb613613565b5b6142d887828801614233565b91505092959194509250565b600081519050919050565b600082825260208201905092915050565b600061430b826142e4565b61431581856142ef565b9350614325818560208601613fb3565b61432e81613771565b840191505092915050565b600060408201905061434e60008301856139eb565b81810360208301526143608184614300565b90509392505050565b60008151905061437881613705565b92915050565b6000602082840312156143945761439361360e565b5b60006143a284828501614369565b91505092915050565b7f4d65746176657273653a207369676e617475726520766572696669636174696f60008201527f6e206661696c6564000000000000000000000000000000000000000000000000602082015250565b6000614407602883613fa2565b9150614412826143ab565b604082019050919050565b60006020820190508181036000830152614436816143fa565b9050919050565b7f4e487b7100000000000000000000000000000000000000000000000000000000600052601160045260246000fd5b600061447782613731565b915061448283613731565b9250828210156144955761449461443d565b5b828203905092915050565b60006144ab82613731565b91506144b683613731565b9250827fffffffffffffffffffffffffffffffffffffffffffffffffffffffffffffffff038211156144eb576144ea61443d565b5b828201905092915050565b7f4d65746176657273653a207369676e6174757265206f7574206f662074696d65600082015250565b600061452c602083613fa2565b9150614537826144f6565b602082019050919050565b6000602082019050818103600083015261455b8161451f565b9050919050565b6000819050919050565b61457d61457882613946565b614562565b82525050565b6000819050919050565b61459e61459982613731565b614583565b82525050565b60006145b0828561456c565b6020820191506145c0828461458d565b6020820191508190509392505050565b7f4d65746176657273653a20696e76616c6964207369676e61747572652068617360008201527f6800000000000000000000000000000000000000000000000000000000000000602082015250565b600061462c602183613fa2565b9150614637826145d0565b604082019050919050565b6000602082019050818103600083015261465b8161461f565b9050919050565b7f4d65746176657273653a2064656c65676174696f6e20616c726561647920757360008201527f6564000000000000000000000000000000000000000000000000000000000000602082015250565b60006146be602283613fa2565b91506146c982614662565b604082019050919050565b600060208201905081810360008301526146ed816146b1565b9050919050565b7f4d65746176657273653a20746865206f6e6c7920616c6c6f7765642073656e6460008201527f657220697320746865206272616e642072656769737472790000000000000000602082015250565b6000614750603883613fa2565b915061475b826146f4565b604082019050919050565b6000602082019050818103600083015261477f81614743565b9050919050565b6000819050919050565b6000819050919050565b60006147b56147b06147ab84614786565b614790565b613731565b9050919050565b6147c58161479a565b82525050565b7f4d65746176657273653a204d696e74696e672061206272616e64000000000000600082015250565b6000614801601a836142ef565b915061480c826147cb565b602082019050919050565b600060808201905061482c60008301866139fa565b614839602083018561391c565b61484660408301846147bc565b8181036060830152614857816147f4565b9050949350505050565b7f4d65746176657273653a2063616c6c6572206973206e6f74206d65746176657260008201527f7365206f776e65722c20616e6420646f6573206e6f742068617665207468652060208201527f7265717569726564207065726d697373696f6e00000000000000000000000000604082015250565b60006148e3605383613fa2565b91506148ee82614861565b606082019050919050565b60006020820190508181036000830152614912816148d6565b9050919050565b7f4d65746176657273653a20746865206164647265737320646f6573206e6f742060008201527f62656c6f6e6720746f20612076616c69642073706f6e736f722072656769737460208201527f727920666f722074686973206d65746176657273650000000000000000000000604082015250565b600061499b605583613fa2565b91506149a682614919565b606082019050919050565b600060208201905081810360008301526149ca8161498e565b9050919050565b7f4d65746176657273653a20612073706f6e736f7220726567697374727920697360008201527f20616c72656164792073657420696e746f2074686973206d6574617665727365602082015250565b6000614a2d604083613fa2565b9150614a38826149d1565b604082019050919050565b60006020820190508181036000830152614a5c81614a20565b9050919050565b7f4d65746176657273653a20746f6b656e2069647320616e6420616d6f756e747360008201527f206172726179206d75737420626520626f7468206e6f6e2d656d70747920616e60208201527f64206f662073616d65206c656e67746800000000000000000000000000000000604082015250565b6000614ae5605083613fa2565b9150614af082614a63565b606082019050919050565b60006020820190508181036000830152614b1481614ad8565b9050919050565b7f4e487b7100000000000000000000000000000000000000000000000000000000600052603260045260246000fd5b6000614b5582613731565b91507fffffffffffffffffffffffffffffffffffffffffffffffffffffffffffffffff821415614b8857614b8761443d565b5b600182019050919050565b7f4d65746176657273653a2063616e6e6f7420646566696e65206d6f7265204e4660008201527f5420747970657300000000000000000000000000000000000000000000000000602082015250565b6000614bef602783613fa2565b9150614bfa82614b93565b604082019050919050565b60006020820190508181036000830152614c1e81614be2565b9050919050565b7f4d65746176657273653a2063616e6e6f74206772616e742061207065726d697360008201527f73696f6e20746f20616464726573732030000000000000000000000000000000602082015250565b6000614c81603183613fa2565b9150614c8c82614c25565b604082019050919050565b60006020820190508181036000830152614cb081614c74565b9050919050565b7f4d65746176657273653a20535550455255534552207065726d697373696f6e2060008201527f63616e6e6f742062652061646465642062792074686973207573657200000000602082015250565b6000614d13603c83613fa2565b9150614d1e82614cb7565b604082019050919050565b60006020820190508181036000830152614d4281614d06565b9050919050565b6000604082019050614d5e60008301856136a9565b614d6b60208301846139fa565b9392505050565b6000606082019050614d8760008301866139fa565b614d94602083018561391c565b614da1604083018461391c565b949350505050565b7f4d65746176657273653a20746f6b656e207479706520696473206d757374206260008201527f652061206e6f6e2d656d70747920617272617900000000000000000000000000602082015250565b6000614e05603383613fa2565b9150614e1082614da9565b604082019050919050565b60006020820190508181036000830152614e3481614df8565b9050919050565b7f4d65746176657273653a20746865206f6e6c7920616c6c6f7765642073656e6460008201527f6572206973207468652065636f6e6f6d792073797374656d0000000000000000602082015250565b6000614e97603883613fa2565b9150614ea282614e3b565b604082019050919050565b60006020820190508181036000830152614ec681614e8a565b9050919050565b6000604082019050614ee260008301856139fa565b614eef60208301846139fa565b9392505050565b6000604082019050614f0b600083018561391c565b614f1860208301846139fa565b9392505050565b7f4d65746176657273653a20746865206164647265737320646f6573206e6f742060008201527f62656c6f6e6720746f20612076616c6964206272616e6420726567697374727960208201527f20636f6e747261637420666f722074686973206d657461766572736500000000604082015250565b6000614fa1605c83613fa2565b9150614fac82614f1f565b606082019050919050565b60006020820190508181036000830152614fd081614f94565b9050919050565b7f4d65746176657273653a2061206272616e64207265676973747279206973206160008201527f6c72656164792073657420696e746f2074686973206d65746176657273650000602082015250565b6000615033603e83613fa2565b915061503e82614fd7565b604082019050919050565b6000602082019050818103600083015261506281615026565b9050919050565b7f4d65746176657273653a20746865206164647265737320646f6573206e6f742060008201527f62656c6f6e6720746f20612076616c69642065636f6e6f6d7920636f6e74726160208201527f637420666f722074686973206d65746176657273650000000000000000000000604082015250565b60006150eb605583613fa2565b91506150f682615069565b606082019050919050565b6000602082019050818103600083015261511a816150de565b9050919050565b7f4d65746176657273653a20616e2065636f6e6f6d7920697320616c726561647960008201527f2073657420696e746f2074686973206d65746176657273650000000000000000602082015250565b600061517d603883613fa2565b915061518882615121565b604082019050919050565b600060208201905081810360008301526151ac81615170565b9050919050565b7f4d65746176657273653a2063616e6e6f7420646566696e65206d6f726520465460008201527f20747970657320666f7220746869732061646472657373000000000000000000602082015250565b600061520f603783613fa2565b915061521a826151b3565b604082019050919050565b6000602082019050818103600083015261523e81615202565b9050919050565b6000615250826140b9565b915061525b836140b9565b92508267ffffffffffffffff038211156152785761527761443d565b5b828201905092915050565b600067ffffffffffffffff82111561529e5761529d613782565b5b6152a782613771565b9050602081019050919050565b60006152c76152c284615283565b6137e2565b9050828152602081018484840111156152e3576152e261376c565b5b6152ee848285613fb3565b509392505050565b600082601f83011261530b5761530a613767565b5b815161531b8482602086016152b4565b91505092915050565b60006020828403121561533a5761533961360e565b5b600082015167ffffffffffffffff81111561535857615357613613565b5b615364848285016152f6565b91505092915050565b600060608201905061538260008301866139fa565b81810360208301526153948185613e54565b905081810360408301526153a88184613e54565b9050949350505050565b7f4d65746176657273653a20746865206164647265737320646f6573206e6f742060008201527f62656c6f6e6720746f20612076616c696420706c75672d696e20636f6e74726160208201527f637420666f722074686973206d65746176657273650000000000000000000000604082015250565b6000615434605583613fa2565b915061543f826153b2565b606082019050919050565b6000602082019050818103600083015261546381615427565b9050919050565b7f4d65746176657273653a2074686520706c75672d696e20697320616c7265616460008201527f7920616464656420746f2074686973206d657461766572736500000000000000602082015250565b60006154c6603983613fa2565b91506154d18261546a565b604082019050919050565b600060208201905081810360008301526154f5816154b9565b9050919050565b60008151905061550b81613c22565b92915050565b6000602082840312156155275761552661360e565b5b6000615535848285016154fc565b91505092915050565b7f4d65746176657273653a20746865207061796572206973206e6f74206120737060008201527f6f6e736f72000000000000000000000000000000000000000000000000000000602082015250565b600061559a602583613fa2565b91506155a58261553e565b604082019050919050565b600060208201905081810360008301526155c98161558d565b9050919050565b7f4d65746176657273653a20746865206272616e64206973206e6f742073706f6e60008201527f736f726564206279207468652073706f6e736f72000000000000000000000000602082015250565b600061562c603483613fa2565b9150615637826155d0565b604082019050919050565b6000602082019050818103600083015261565b8161561f565b9050919050565b7f4d65746176657273653a20746865206164647265737320646f6573206e6f742060008201527f62656c6f6e6720746f20612076616c6964207369676e6174757265207665726960208201527f6669657220666f722074686973206d6574617665727365000000000000000000604082015250565b60006156e4605783613fa2565b91506156ef82615662565b606082019050919050565b60006020820190508181036000830152615713816156d7565b9050919050565b7f4d65746176657273653a2061207369676e61747572652076657269666965722060008201527f697320616c72656164792073657420696e746f2074686973206d65746176657260208201527f7365000000000000000000000000000000000000000000000000000000000000604082015250565b600061579c604283613fa2565b91506157a78261571a565b606082019050919050565b600060208201905081810360008301526157cb8161578f565b9050919050565b7f4f776e61626c653a206e6577206f776e657220697320746865207a65726f206160008201527f6464726573730000000000000000000000000000000000000000000000000000602082015250565b600061582e602683613fa2565b9150615839826157d2565b604082019050919050565b6000602082019050818103600083015261585d81615821565b9050919050565b7f4d65746176657273653a20746865207370656369666965642076616c7565206960008201527f73206e6f7420696e20746865206e66742072616e676500000000000000000000602082015250565b60006158c0603683613fa2565b91506158cb82615864565b604082019050919050565b600060208201905081810360008301526158ef816158b3565b9050919050565b7f4d65746176657273653a2074686973204e465420747970652063616e6e6f742060008201527f6265206d696e746564206279207468697320706c75672d696e00000000000000602082015250565b6000615952603983613fa2565b915061595d826158f6565b604082019050919050565b6000602082019050818103600083015261598181615945565b9050919050565b7f4d65746176657273653a204e465420747970657320302028696e76616c69642960008201527f20616e64203120286272616e64292063616e6e6f74206265206d696e74656400602082015250565b60006159e4603f83613fa2565b91506159ef82615988565b604082019050919050565b60006020820190508181036000830152615a13816159d7565b9050919050565b7f4d65746176657273653a2063616e6e6f74206d696e74206d6f7265204e465473600082015250565b6000615a50602083613fa2565b9150615a5b82615a1a565b602082019050919050565b60006020820190508181036000830152615a7f81615a43565b9050919050565b6000608082019050615a9b60008301876139fa565b615aa8602083018661391c565b615ab560408301856147bc565b8181036060830152615ac78184614300565b905095945050505050565b7f4d65746176657273653a20746865207370656369666965642076616c7565206960008201527f73206e6f7420696e207468652066756e6769626c6520746f6b656e732072616e60208201527f6765000000000000000000000000000000000000000000000000000000000000604082015250565b6000615b54604283613fa2565b9150615b5f82615ad2565b606082019050919050565b60006020820190508181036000830152615b8381615b47565b9050919050565b7f4d65746176657273653a207468697320465420747970652063616e6e6f74206260008201527f65206d696e746564206279207468697320706c75672d696e0000000000000000602082015250565b6000615be6603883613fa2565b9150615bf182615b8a565b604082019050919050565b60006020820190508181036000830152615c1581615bd9565b9050919050565b6000608082019050615c3160008301876139fa565b615c3e602083018661391c565b615c4b604083018561391c565b8181036060830152615c5d8184614300565b905095945050505050565b7f4f776e61626c653a2063616c6c6572206973206e6f7420746865206f776e6572600082015250565b6000615c9e602083613fa2565b9150615ca982615c68565b602082019050919050565b60006020820190508181036000830152615ccd81615c91565b9050919050565b615cdd81613618565b82525050565b6000602082019050615cf86000830184615cd4565b92915050565b600081905092915050565b6000615d14826142e4565b615d1e8185615cfe565b9350615d2e818560208601613fb3565b80840191505092915050565b6000615d468284615d09565b91508190509291505056fea2646970667358221220243d1f3b0b0383fc41385b983d0c36b21807e8c9f4b9bd2a46697f1d63a0b73564736f6c634300080a0033",
  "immutableReferences": {},
  "source": "// SPDX-License-Identifier: MIT\npragma solidity >=0.8 <0.9.0;\n\nimport \"@openzeppelin/contracts/access/Ownable.sol\";\nimport \"@openzeppelin/contracts/utils/introspection/ERC165Checker.sol\";\nimport \"./plugins/base/IMetaversePlugin.sol\";\nimport \"./plugins/base/INFTTransferWatcherPlugin.sol\";\nimport \"./IMetaverse.sol\";\nimport \"./IMetaverseOwned.sol\";\nimport \"./economy/IEconomy.sol\";\nimport \"./brands/IBrandRegistry.sol\";\nimport \"./sponsoring/ISponsorRegistry.sol\";\nimport \"./signing/IMetaverseSignatureVerifier.sol\";\n\n/**\n * A metaverse hub can receive \"plugs\" (extensions) in the form of\n * different contracts (implementing IMetaversePlugin). This\n * plug mechanism allows extending the metaverse with new asset\n * types and new asset instances (each plug-in is managed by the\n * team, not publicly added by external users).\n *\n * Each of those contracts will make use of their own logic while\n * interacting with the metaverse, which involves having full access\n * to the whole metaverse assets (e.g. taking assets from the users\n * or granting assets to the users).\n */\ncontract Metaverse is Ownable, IMetaverse {\n    /**\n     * Addresses can check for ERC165 compliance by using this\n     * embeddable library.\n     */\n    using ERC165Checker for address;\n\n    /**\n     * This is the list of plug-ins that are being added to the hub.\n     * Each contract has its separate logic but they have access to\n     * the same set of features. Once a contract is added, it will\n     * never be removed from this list. This mapping tells whether\n     * a contract in particular has permission(s) to define a type\n     * and mint tokens for an address.\n     */\n    mapping(address => bool) public plugins;\n\n    /**\n     * This is the enumerable list of plug-ins added to this hub.\n     */\n    address[] public pluginsList;\n\n    /**\n     * The linked brand registry for this metaverse.\n     */\n    address public brandRegistry;\n\n    /**\n     * The linked economy for this metaverse.\n     */\n    address public economy;\n\n    /**\n     * The linked sponsoring registry for this metaverse.\n     */\n    address public sponsorRegistry;\n\n    /**\n     * The linked signature verifier for this metaverse.\n     */\n    address public signatureVerifier;\n\n    /**\n     * The already used hashes on signature check. Used to\n     * avoid replay attacks.\n     */\n    mapping(bytes32 => bool) usedHashes;\n\n    /**\n     * Types are identified as integer values, and each registered type\n     * will have a non-zero responsible address (serving to metadata\n     * resolution and also to account for the existence of a given type).\n     * The type 1 (0x1) will be the first type, and actually it will be\n     * the brand type. Other NFT types will be registered using indices\n     * lower to (1<<255), while FT types will be registered using indices\n     * greater than or equal to that value (i.e. starting with binary {1}).\n     * In the case of the FTs, the index in this mapping is also their\n     * token id. This is not the same for NFTs (they have one extra level\n     * of indirection since multiple ids might share the same type). A\n     * special type id will be regarded as invalid type (i.e. it will\n     * not count as NFT nor FT type, but as a non-existent type): 0 (0x0).\n     *\n     * The responsible serves two purposes: The first one, is to resolve\n     * the metadata of a given token id (be it FT or NFT). The second one\n     * is to account for one of such tokens being burned. The responsible\n     * will actually be one of the registered plug-ins, on each case (save\n     * for the brands case, which is resolved by this contract, and the\n     * invalid case, which has no resolver).\n     */\n    mapping(uint256 => address) public tokenTypeResolvers;\n\n    /**\n     * Now, each NFT id will be registered here along its token type. The\n     * difference with the fungible tokens (they're already registered in\n     * the `tokenTypes` mapping) is that they need to be registered with\n     * a particular token type. Also, both the NFT id and its associated\n     * token type will be lower than (1<<255) since, otherwise, they would\n     * be using values corresponding to the FT side (both for IDs and type\n     * indices). Brand NFTs are not included in this mapping (they are only\n     * characterized by being < (1 << 160)).\n     */\n    mapping(uint256 => uint256) public nftTypes;\n\n    /**\n     * Holds the next FT index to try, in the next iteration, for respective\n     * brand(s) requesting one. These ids are, at most, 1<<64 - 1.\n     */\n    mapping(address => uint64) public nextFTIndex;\n\n    /**\n     * Holds the next NFT type to try, in the next iteration. The initial\n     * value to try is 2 (0 means \"invalid\" and 1 means \"brand\").\n     */\n    uint256 public nextNFTTypeIndex = 2;\n\n    /**\n     * Holds the next NFT index to try, in the next iteration. The initial\n     * value to try is 1 above the maximum value brand addresses can take.\n     */\n    uint256 private nextNFTIndex = 1 << 160;\n\n    /**\n     * Permission: Superuser (all the permissions are considered given to\n     * a superuser which is registered in the metaverse). The only thing\n     * that superuser per-se cannot do is to add more superusers.\n     */\n    bytes32 constant SUPERUSER = bytes32(uint256((1 << 256) - 1));\n\n    /**\n     * Permission: To add a plug-in.\n     */\n    bytes32 constant DEPLOY = keccak256(\"Metaverse::Deploy\");\n\n    /**\n     * Maintains the permissions assigned to this metaverse.\n     */\n    mapping(bytes32 => mapping(address => bool)) permissions;\n\n    /**\n     * This modifier requires the token type to be already registered.\n     */\n    modifier onlyExistingTokenType(uint256 _tokenType) {\n        require(tokenTypeResolvers[_tokenType] != address(0), \"Metaverse: unknown / non-mintable token type id\");\n        _;\n    }\n\n    /**\n     * This modifier requires the token types to be already registered\n     * by the plug-in that requests it (they're FTs).\n     */\n    modifier onlyFTPluginTokenTypes(uint256[] memory _tokenTypes) {\n        for(uint256 index = 0; index < _tokenTypes.length; index++) {\n            require(\n                tokenTypeResolvers[_tokenTypes[index]] == _msgSender(),\n                \"Metaverse: not a type registered by this plug-in\"\n            );\n        }\n        _;\n    }\n\n    /**\n     * This modifier requires the token types to be already registered\n     * by the plug-in that requests it (they're NFTs).\n     */\n    modifier onlyNFTPluginTokenTypes(uint256[] memory _tokenTypes) {\n        for(uint256 index = 0; index < _tokenTypes.length; index++) {\n            require(\n                tokenTypeResolvers[nftTypes[_tokenTypes[index]]] == _msgSender(),\n                \"Metaverse: not a type registered by this plug-in\"\n            );\n        }\n        _;\n    }\n\n    /**\n     * This modifier requires the token type to be in the FT range.\n     */\n    modifier onlyFTRange(uint256 _tokenType) {\n        require(_tokenType >= (1 << 255), \"Metaverse: the specified value is not in the fungible tokens range\");\n        _;\n    }\n\n    /**\n     * This modifier requires the token type to be in the NFT range.\n     */\n    modifier onlyNFTRange(uint256 _tokenType) {\n        require(_tokenType < (1 << 255), \"Metaverse: the specified value is not in the nft range\");\n        _;\n    }\n\n    /**\n     * Defines the resolution of a fungible token type. The token id must be\n     * in the range of the fungible token ids.\n     */\n    function defineNextFTType(address _brandId) external onlyPlugin returns (uint256) {\n        uint64 tokenTypeIndex = nextFTIndex[_brandId];\n        uint256 tokenType = (1 << 255) | (uint256(uint160(_brandId)) << 64) | tokenTypeIndex;\n        while(true) {\n            require(tokenTypeIndex < 0xffffffffffffffff, \"Metaverse: cannot define more FT types for this address\");\n            if (tokenTypeResolvers[tokenType] != address(0)) {\n                tokenTypeIndex += 1;\n                tokenType += 1;\n            } else {\n                break;\n            }\n        }\n        nextFTIndex[_brandId] = tokenTypeIndex + 1;\n        tokenTypeResolvers[tokenType] = _msgSender();\n        return tokenType;\n    }\n\n    /**\n     * Defines the resolution of a non-fungible token type. The token id must\n     * be in the range of the fungible token (type) ids (strictly > 0, strictly\n     * < (1 << 255)).\n     */\n    function defineNextNFTType() external onlyPlugin returns (uint256) {\n        uint256 tokenTypeId = nextNFTTypeIndex;\n        uint256 lastNFTType = (1 << 255) - 1;\n        while(true) {\n            require(tokenTypeId < lastNFTType, \"Metaverse: cannot define more NFT types\");\n            if (tokenTypeResolvers[tokenTypeId] != address(0)) {\n                tokenTypeId += 1;\n            } else {\n                break;\n            }\n        }\n        nextNFTTypeIndex = tokenTypeId + 1;\n        tokenTypeResolvers[tokenTypeId] = _msgSender();\n        return tokenTypeId;\n    }\n\n    /**\n     * Mints a specific fungible token type, in a certain amount.\n     * Requests the type id to be in the FT range.\n     */\n    function _mintFTFor(address _to, uint256 _tokenId, uint256 _amount, bytes memory _data)\n        internal onlyFTRange(_tokenId)\n    {\n        require(\n            tokenTypeResolvers[_tokenId] == _msgSender(),\n            \"Metaverse: this FT type cannot be minted by this plug-in\"\n        );\n        IEconomy(economy).mintFor(_to, _tokenId, _amount, _data);\n    }\n\n    /**\n     * Mints a specific fungible token type, in a certain amount.\n     * This is only allowed for plug-ins.\n     */\n    function mintFTFor(address _to, uint256 _tokenId, uint256 _amount, bytes memory _data)\n        external onlyPlugin\n    {\n        _mintFTFor(_to, _tokenId, _amount, _data);\n    }\n\n    /**\n     * Mints many specific fungible token types, in certain amounts.\n     * The array of types and amounts are both nonempty and same length.\n     * This is only allowed for plug-ins.\n     */\n    function mintFTsFor(address _to, uint256[] memory _tokenIds, uint256[] memory _amounts, bytes memory _data)\n        external onlyPlugin\n    {\n        require(\n            _tokenIds.length == _amounts.length && _amounts.length != 0,\n            \"Metaverse: token ids and amounts array must be both non-empty and of same length\"\n        );\n        for(uint256 index = 0; index < _tokenIds.length; index++)\n        {\n            _mintFTFor(_to, _tokenIds[index], _amounts[index], _data);\n        }\n    }\n\n    /**\n     * Mints a specific non-fungible token type, using a specific type (and always using\n     * an amount of 1). It is an error if the chosen type is unknown or < 2, since those\n     * types are reserved for being invalid or brands. Also, it is an error if the chosen\n     * type is not for that plug-in.\n     */\n    function _mintNFTFor(address _to, uint256 _tokenType, bytes memory _data)\n        internal onlyNFTRange(_tokenType) returns (uint256)\n    {\n        require(\n            tokenTypeResolvers[_tokenType] == _msgSender(),\n            \"Metaverse: this NFT type cannot be minted by this plug-in\"\n        );\n        require(_tokenType >= 2, \"Metaverse: NFT types 0 (invalid) and 1 (brand) cannot be minted\");\n        uint256 tokenId = nextNFTIndex;\n        uint256 lastNFTId = (1 << 255) - 1;\n        while(true) {\n            require(tokenId < lastNFTId, \"Metaverse: cannot mint more NFTs\");\n            if (nftTypes[tokenId] != 0) {\n                tokenId += 1;\n            } else {\n                break;\n            }\n        }\n        nextNFTIndex = tokenId + 1;\n        IEconomy(economy).mintFor(_to, tokenId, 1, _data);\n        nftTypes[tokenId] = _tokenType;\n        return tokenId;\n    }\n\n    /**\n     * Mints a specific non-fungible token, using a specific type (and always using\n     * an amount of 1) id. This is only allowed for plug-ins.\n     */\n    function mintNFTFor(address _to, uint256 _tokenType, bytes memory _data)\n        external onlyPlugin returns (uint256)\n    {\n        return _mintNFTFor(_to, _tokenType, _data);\n    }\n\n    /**\n     * Mints many specific non-fungible tokens, using specific types (and always using\n     * an amount of 1) ids. This is only allowed for plug-ins.\n     */\n    function mintNFTsFor(address _to, uint256[] memory _tokenTypes, bytes memory _data)\n        external onlyPlugin returns (uint256[] memory)\n    {\n        require(\n            _tokenTypes.length != 0,\n            \"Metaverse: token type ids must be a non-empty array\"\n        );\n        uint256[] memory result = new uint256[](_tokenTypes.length);\n        for(uint256 index = 0; index < _tokenTypes.length; index++)\n        {\n            result[index] = _mintNFTFor(_to, _tokenTypes[index], _data);\n        }\n        return result;\n    }\n\n    /**\n     * Mints a specific brand token for a given user. The brand is stated as its address.\n     */\n    function mintBrandFor(address _to, address _brandId) external onlyBrandRegistry {\n        require(_msgSender() == brandRegistry, \"Metaverse: the only allowed sender is the brand registry\");\n        IEconomy(economy).mintFor(_to, uint256(uint160(_brandId)), 1, \"Metaverse: Minting a brand\");\n    }\n\n    /**\n     * Burns a token (FT or NFT, except for brands) on a given amounts.\n     * NFT will always use an amount of 1.\n     */\n    function burnToken(uint256 _id, uint256 _amount) external onlyPlugin {\n        IEconomy(economy).burn(_msgSender(), _id, _amount);\n    }\n\n    /**\n     * Burns many tokens (FTs or NFTs, expect for brands) on given amounts.\n     * NFTs will always be burned in an amount of 1.\n     */\n    function burnTokens(uint256[] memory _ids, uint256[] memory _amounts) external onlyPlugin {\n        IEconomy(economy).burnBatch(_msgSender(), _ids, _amounts);\n    }\n\n    /**\n     * Retrieves the metadata uri from the appropriate plug-in, if any. If the type id is\n     * not registered then return an empty string.\n     */\n    function _metadataFromPlugin(uint256 _typeId) private view returns (string memory) {\n        address plugin = tokenTypeResolvers[_typeId];\n        if (plugin == address(0)) {\n            return \"\";\n        }\n        return IMetaversePlugin(plugin).uri(_typeId);\n    }\n\n    /**\n     * Retrieves the metadata uri of a given token. WARNING: This method\n     * will consume a lot of gas if invoked inside a transaction, so\n     * it is recommended to invoke this method in the context of a\n     * CALL, and never in the context of a SEND (even as part of other\n     * contract's code).\n     */\n    function tokenURI(uint256 _tokenId) external view returns (string memory) {\n        if (_tokenId < (1 << 160)) {\n            return IBrandRegistry(brandRegistry).brandMetadataURI(address(uint160(_tokenId)));\n        } else if (_tokenId < (1 << 255)) {\n            return _metadataFromPlugin(nftTypes[_tokenId]);\n        } else {\n            return _metadataFromPlugin(_tokenId);\n        }\n    }\n\n    /**\n     * Hook to be invoked as part of a transfer from ERC1155 when a brand NFT\n     * is transferred.\n     */\n    function onBrandOwnerChanged(address _brandId, address _newOwner) external onlyEconomy {\n        IBrandRegistry(brandRegistry).onBrandOwnerChanged(_brandId, _newOwner);\n    }\n\n    /**\n     * Hook to be invoked as part of a transfer from ERC1155 when another type\n     * of NFT is transferred.\n     */\n    function onNFTOwnerChanged(uint256 _nftId, address _newOwner) external onlyEconomy {\n        address resolver = tokenTypeResolvers[nftTypes[_nftId]];\n        if (resolver.supportsInterface(type(INFTTransferWatcherPlugin).interfaceId)) {\n            INFTTransferWatcherPlugin(resolver).onNFTOwnerChanged(_nftId, _newOwner);\n        }\n    }\n\n\n    // ********** Plugin management goes here **********\n\n    /**\n     * Tells whether an address is a valid component, for this metaverse\n     * in particular, of a defined type.\n     */\n    function _isComponentForThisMetaverse(address _component, bytes4 _interfaceId) private view returns (bool) {\n        return _component.supportsInterface(type(IMetaverseOwned).interfaceId) &&\n               _component.supportsInterface(_interfaceId) &&\n               IMetaverseOwned(_component).metaverse() == address(this);\n    }\n\n    /**\n     * Adds a plug-in contract to this metaverse.\n     */\n    function addPlugin(address _contract) external onlyAllowed(DEPLOY) {\n        require(\n            _isComponentForThisMetaverse(_contract, type(IMetaversePlugin).interfaceId),\n            \"Metaverse: the address does not belong to a valid plug-in contract for this metaverse\"\n        );\n        require(\n            !plugins[_contract], \"Metaverse: the plug-in is already added to this metaverse\"\n        );\n        plugins[_contract] = true;\n        pluginsList.push(_contract);\n        IMetaversePlugin(_contract).initialize();\n    }\n\n    /**\n     * This is the count of registered plug-ins.\n     */\n    function pluginsCount() external view returns (uint256) {\n        return pluginsList.length;\n    }\n\n    /**\n     * This modifier requires the sender to be one of the authorized contracts.\n     */\n    modifier onlyPlugin() {\n        require(plugins[_msgSender()], \"Metaverse: the sender must be a plug-in\");\n        _;\n    }\n\n    /**\n     * Sets the brand registry contract to this metaverse.\n     */\n    function setBrandRegistry(address _contract) external onlyAllowed(DEPLOY) {\n        require(\n            _isComponentForThisMetaverse(_contract, type(IBrandRegistry).interfaceId),\n            \"Metaverse: the address does not belong to a valid brand registry contract for this metaverse\"\n        );\n        require(\n            brandRegistry == address(0), \"Metaverse: a brand registry is already set into this metaverse\"\n        );\n        brandRegistry = _contract;\n    }\n\n    /**\n     * This modifier requires the sender to be the linked brand registry.\n     */\n    modifier onlyBrandRegistry() {\n        require(_msgSender() == brandRegistry, \"Metaverse: the only allowed sender is the brand registry\");\n        _;\n    }\n\n    /**\n     * Sets the economy contract to this metaverse.\n     */\n    function setEconomy(address _contract) external onlyAllowed(DEPLOY) {\n        require(\n            _isComponentForThisMetaverse(_contract, type(IEconomy).interfaceId),\n            \"Metaverse: the address does not belong to a valid economy contract for this metaverse\"\n        );\n        require(\n            economy == address(0), \"Metaverse: an economy is already set into this metaverse\"\n        );\n        economy = _contract;\n    }\n\n    /**\n     * This modifier restricts a call to the linked economy system.\n     */\n    modifier onlyEconomy() {\n        require(_msgSender() == economy, \"Metaverse: the only allowed sender is the economy system\");\n        _;\n    }\n\n    /**\n     * Sets the sponsor registry contract to this metaverse.\n     */\n    function setSponsorRegistry(address _contract) external onlyAllowed(DEPLOY) {\n        require(\n            _isComponentForThisMetaverse(_contract, type(ISponsorRegistry).interfaceId),\n            \"Metaverse: the address does not belong to a valid sponsor registry for this metaverse\"\n        );\n        require(\n            sponsorRegistry == address(0), \"Metaverse: a sponsor registry is already set into this metaverse\"\n        );\n        sponsorRegistry = _contract;\n    }\n\n    /**\n     * Sets the signature verifier contract to this metaverse.\n     */\n    function setSignatureVerifier(address _contract) external onlyAllowed(DEPLOY) {\n        require(\n            _isComponentForThisMetaverse(_contract, type(IMetaverseSignatureVerifier).interfaceId),\n            \"Metaverse: the address does not belong to a valid signature verifier for this metaverse\"\n        );\n        require(\n            signatureVerifier == address(0), \"Metaverse: a signature verifier is already set into this metaverse\"\n        );\n        signatureVerifier = _contract;\n    }\n\n    /**\n     * A metaverse satisfies the IMetaverse and IERC165 interfaces.\n     */\n    function supportsInterface(bytes4 interfaceId) external view virtual override returns (bool) {\n        return interfaceId == type(IERC165).interfaceId || interfaceId == type(IMetaverse).interfaceId;\n    }\n\n    // Permissions management start here.\n\n    /**\n     * Restricts an action to senders that are considered to have\n     * certain permission in the metaverse.\n     */\n    modifier onlyAllowed(bytes32 _permission) {\n        require(\n            isAllowed(_permission, _msgSender()),\n            \"Metaverse: caller is not metaverse owner, and does not have the required permission\"\n        );\n        _;\n    }\n\n    /**\n     * Tells whether a user has a specific permission on the metaverse, or\n     * is its owner.\n     */\n    function isAllowed(bytes32 _permission, address _sender) public view returns (bool) {\n        return _sender == owner() || permissions[SUPERUSER][_sender] || permissions[_permission][_sender];\n    }\n\n    /**\n     * This event is triggered when a permission is set or revoked\n     * for a given user in the whole metaverse.\n     */\n    event PermissionChanged(bytes32 indexed permission, address indexed user, bool set, address sender);\n\n    /**\n     * Grants a permission to a user. This action is reserved to owners,\n     * approved operators, or allowed superusers. However, superuser cannot\n     * set, in particular, the SUPERUSER permission itself.\n     */\n    function setPermission(bytes32 _permission, address _user, bool _allowed) external onlyAllowed(SUPERUSER) {\n        address sender = _msgSender();\n        require(_user != address(0), \"Metaverse: cannot grant a permission to address 0\");\n        require(\n            sender == owner() || _permission != SUPERUSER,\n            \"Metaverse: SUPERUSER permission cannot be added by this user\"\n        );\n        permissions[_permission][_user] = _allowed;\n        emit PermissionChanged(_permission, _user, _allowed, sender);\n    }\n\n    /**\n     * Checks a signature. Returns the validated hash and sender address.\n     * The delegation must be a pack of (sender, stamp, hash, signature),\n     * and the stamp is checked against the timeout.\n     */\n    function checkSignature(bytes memory _delegation, bytes32 _argsHash, uint256 _timeout)\n        external returns (bytes32, address) {\n        (address expectedSigner, uint256 stamp, bytes32 hash, bytes memory signature) = abi.decode(\n            _delegation, (address, uint256, bytes32, bytes)\n        );\n\n        address signer = ISignatureVerifier(signatureVerifier).verifySignature(hash, signature);\n        require(signer == expectedSigner, \"Metaverse: signature verification failed\");\n        require(\n            block.timestamp >= stamp - _timeout && block.timestamp <= stamp + _timeout,\n            \"Metaverse: signature out of time\"\n        );\n        require(\n            hash == keccak256(abi.encodePacked(_argsHash, stamp)),\n            \"Metaverse: invalid signature hash\"\n        );\n        require(\n            !usedHashes[hash], \"Metaverse: delegation already used\"\n        );\n        usedHashes[hash] = true;\n        return (hash, signer);\n    }\n\n    /**\n     * Checks that a brand is sponsored by a certain sponsor.\n     */\n    function checkSponsoring(address _sponsor, address _brandId) external {\n        ISponsorRegistry registry = ISponsorRegistry(sponsorRegistry);\n        require(registry.sponsors(_sponsor), \"Metaverse: the payer is not a sponsor\");\n        require(registry.sponsored(_sponsor, _brandId), \"Metaverse: the brand is not sponsored by the sponsor\");\n    }\n}\n",
  "sourcePath": "/home/luismasuelli/Projects/OuterMaze/semperland-contracts/contracts/semperland/Metaverse.sol",
  "compiler": {
    "name": "solc",
    "version": "0.8.10+commit.fc410830.Emscripten.clang"
  },
  "schemaVersion": "3.4.3",
  "updatedAt": "2022-11-21T19:25:13.133Z",
  "devdoc": {
    "kind": "dev",
    "methods": {
      "owner()": {
        "details": "Returns the address of the current owner."
      },
      "renounceOwnership()": {
        "details": "Leaves the contract without owner. It will not be possible to call `onlyOwner` functions anymore. Can only be called by the current owner. NOTE: Renouncing ownership will leave the contract without an owner, thereby removing any functionality that is only available to the owner."
      },
      "transferOwnership(address)": {
        "details": "Transfers ownership of the contract to a new account (`newOwner`). Can only be called by the current owner."
      }
    },
    "version": 1
  },
  "userdoc": {
    "events": {
      "PermissionChanged(bytes32,address,bool,address)": {
        "notice": "This event is triggered when a permission is set or revoked for a given user in the whole metaverse."
      }
    },
    "kind": "user",
    "methods": {
      "addPlugin(address)": {
        "notice": "Adds a plug-in contract to this metaverse."
      },
      "brandRegistry()": {
        "notice": "The linked brand registry for this metaverse."
      },
      "burnToken(uint256,uint256)": {
        "notice": "Burns a token (FT or NFT, except for brands) on a given amounts. NFT will always use an amount of 1."
      },
      "burnTokens(uint256[],uint256[])": {
        "notice": "Burns many tokens (FTs or NFTs, expect for brands) on given amounts. NFTs will always be burned in an amount of 1."
      },
      "checkSignature(bytes,bytes32,uint256)": {
        "notice": "Checks a signature. Returns the validated hash and sender address. The delegation must be a pack of (sender, stamp, hash, signature), and the stamp is checked against the timeout."
      },
      "checkSponsoring(address,address)": {
        "notice": "Checks that a brand is sponsored by a certain sponsor."
      },
      "defineNextFTType(address)": {
        "notice": "Defines the resolution of a fungible token type. The token id must be in the range of the fungible token ids."
      },
      "defineNextNFTType()": {
        "notice": "Defines the resolution of a non-fungible token type. The token id must be in the range of the fungible token (type) ids (strictly > 0, strictly < (1 << 255))."
      },
      "economy()": {
        "notice": "The linked economy for this metaverse."
      },
      "isAllowed(bytes32,address)": {
        "notice": "Tells whether a user has a specific permission on the metaverse, or is its owner."
      },
      "mintBrandFor(address,address)": {
        "notice": "Mints a specific brand token for a given user. The brand is stated as its address."
      },
      "mintFTFor(address,uint256,uint256,bytes)": {
        "notice": "Mints a specific fungible token type, in a certain amount. This is only allowed for plug-ins."
      },
      "mintFTsFor(address,uint256[],uint256[],bytes)": {
        "notice": "Mints many specific fungible token types, in certain amounts. The array of types and amounts are both nonempty and same length. This is only allowed for plug-ins."
      },
      "mintNFTFor(address,uint256,bytes)": {
        "notice": "Mints a specific non-fungible token, using a specific type (and always using an amount of 1) id. This is only allowed for plug-ins."
      },
      "mintNFTsFor(address,uint256[],bytes)": {
        "notice": "Mints many specific non-fungible tokens, using specific types (and always using an amount of 1) ids. This is only allowed for plug-ins."
      },
      "nextFTIndex(address)": {
        "notice": "Holds the next FT index to try, in the next iteration, for respective brand(s) requesting one. These ids are, at most, 1<<64 - 1."
      },
      "nextNFTTypeIndex()": {
        "notice": "Holds the next NFT type to try, in the next iteration. The initial value to try is 2 (0 means \"invalid\" and 1 means \"brand\")."
      },
      "nftTypes(uint256)": {
        "notice": "Now, each NFT id will be registered here along its token type. The difference with the fungible tokens (they're already registered in the `tokenTypes` mapping) is that they need to be registered with a particular token type. Also, both the NFT id and its associated token type will be lower than (1<<255) since, otherwise, they would be using values corresponding to the FT side (both for IDs and type indices). Brand NFTs are not included in this mapping (they are only characterized by being < (1 << 160))."
      },
      "onBrandOwnerChanged(address,address)": {
        "notice": "Hook to be invoked as part of a transfer from ERC1155 when a brand NFT is transferred."
      },
      "onNFTOwnerChanged(uint256,address)": {
        "notice": "Hook to be invoked as part of a transfer from ERC1155 when another type of NFT is transferred."
      },
      "plugins(address)": {
        "notice": "This is the list of plug-ins that are being added to the hub. Each contract has its separate logic but they have access to the same set of features. Once a contract is added, it will never be removed from this list. This mapping tells whether a contract in particular has permission(s) to define a type and mint tokens for an address."
      },
      "pluginsCount()": {
        "notice": "This is the count of registered plug-ins."
      },
      "pluginsList(uint256)": {
        "notice": "This is the enumerable list of plug-ins added to this hub."
      },
      "setBrandRegistry(address)": {
        "notice": "Sets the brand registry contract to this metaverse."
      },
      "setEconomy(address)": {
        "notice": "Sets the economy contract to this metaverse."
      },
      "setPermission(bytes32,address,bool)": {
        "notice": "Grants a permission to a user. This action is reserved to owners, approved operators, or allowed superusers. However, superuser cannot set, in particular, the SUPERUSER permission itself."
      },
      "setSignatureVerifier(address)": {
        "notice": "Sets the signature verifier contract to this metaverse."
      },
      "setSponsorRegistry(address)": {
        "notice": "Sets the sponsor registry contract to this metaverse."
      },
      "signatureVerifier()": {
        "notice": "The linked signature verifier for this metaverse."
      },
      "sponsorRegistry()": {
        "notice": "The linked sponsoring registry for this metaverse."
      },
      "supportsInterface(bytes4)": {
        "notice": "A metaverse satisfies the IMetaverse and IERC165 interfaces."
      },
      "tokenTypeResolvers(uint256)": {
        "notice": "Types are identified as integer values, and each registered type will have a non-zero responsible address (serving to metadata resolution and also to account for the existence of a given type). The type 1 (0x1) will be the first type, and actually it will be the brand type. Other NFT types will be registered using indices lower to (1<<255), while FT types will be registered using indices greater than or equal to that value (i.e. starting with binary {1}). In the case of the FTs, the index in this mapping is also their token id. This is not the same for NFTs (they have one extra level of indirection since multiple ids might share the same type). A special type id will be regarded as invalid type (i.e. it will not count as NFT nor FT type, but as a non-existent type): 0 (0x0). The responsible serves two purposes: The first one, is to resolve the metadata of a given token id (be it FT or NFT). The second one is to account for one of such tokens being burned. The responsible will actually be one of the registered plug-ins, on each case (save for the brands case, which is resolved by this contract, and the invalid case, which has no resolver)."
      },
      "tokenURI(uint256)": {
        "notice": "Retrieves the metadata uri of a given token. WARNING: This method will consume a lot of gas if invoked inside a transaction, so it is recommended to invoke this method in the context of a CALL, and never in the context of a SEND (even as part of other contract's code)."
      }
    },
    "notice": "A metaverse hub can receive \"plugs\" (extensions) in the form of different contracts (implementing IMetaversePlugin). This plug mechanism allows extending the metaverse with new asset types and new asset instances (each plug-in is managed by the team, not publicly added by external users). Each of those contracts will make use of their own logic while interacting with the metaverse, which involves having full access to the whole metaverse assets (e.g. taking assets from the users or granting assets to the users).",
    "version": 1
  }
}