{
  "contractName": "Metaverse",
  "abi": [
    {
      "anonymous": false,
      "inputs": [
        {
          "indexed": true,
          "internalType": "address",
          "name": "previousOwner",
          "type": "address"
        },
        {
          "indexed": true,
          "internalType": "address",
          "name": "newOwner",
          "type": "address"
        }
      ],
      "name": "OwnershipTransferred",
      "type": "event"
    },
    {
      "anonymous": false,
      "inputs": [
        {
          "indexed": true,
          "internalType": "bytes32",
          "name": "permission",
          "type": "bytes32"
        },
        {
          "indexed": true,
          "internalType": "address",
          "name": "user",
          "type": "address"
        },
        {
          "indexed": false,
          "internalType": "bool",
          "name": "set",
          "type": "bool"
        },
        {
          "indexed": false,
          "internalType": "address",
          "name": "sender",
          "type": "address"
        }
      ],
      "name": "PermissionChanged",
      "type": "event"
    },
    {
      "inputs": [],
      "name": "brandRegistry",
      "outputs": [
        {
          "internalType": "address",
          "name": "",
          "type": "address"
        }
      ],
      "stateMutability": "view",
      "type": "function"
    },
    {
      "inputs": [],
      "name": "economy",
      "outputs": [
        {
          "internalType": "address",
          "name": "",
          "type": "address"
        }
      ],
      "stateMutability": "view",
      "type": "function"
    },
    {
      "inputs": [
        {
          "internalType": "uint256",
          "name": "",
          "type": "uint256"
        }
      ],
      "name": "nftTypes",
      "outputs": [
        {
          "internalType": "uint256",
          "name": "",
          "type": "uint256"
        }
      ],
      "stateMutability": "view",
      "type": "function"
    },
    {
      "inputs": [],
      "name": "owner",
      "outputs": [
        {
          "internalType": "address",
          "name": "",
          "type": "address"
        }
      ],
      "stateMutability": "view",
      "type": "function"
    },
    {
      "inputs": [
        {
          "internalType": "address",
          "name": "",
          "type": "address"
        }
      ],
      "name": "plugins",
      "outputs": [
        {
          "internalType": "bool",
          "name": "",
          "type": "bool"
        }
      ],
      "stateMutability": "view",
      "type": "function"
    },
    {
      "inputs": [
        {
          "internalType": "uint256",
          "name": "",
          "type": "uint256"
        }
      ],
      "name": "pluginsList",
      "outputs": [
        {
          "internalType": "address",
          "name": "",
          "type": "address"
        }
      ],
      "stateMutability": "view",
      "type": "function"
    },
    {
      "inputs": [],
      "name": "renounceOwnership",
      "outputs": [],
      "stateMutability": "nonpayable",
      "type": "function"
    },
    {
      "inputs": [
        {
          "internalType": "uint256",
          "name": "",
          "type": "uint256"
        }
      ],
      "name": "tokenTypeResolvers",
      "outputs": [
        {
          "internalType": "address",
          "name": "",
          "type": "address"
        }
      ],
      "stateMutability": "view",
      "type": "function"
    },
    {
      "inputs": [
        {
          "internalType": "address",
          "name": "newOwner",
          "type": "address"
        }
      ],
      "name": "transferOwnership",
      "outputs": [],
      "stateMutability": "nonpayable",
      "type": "function"
    },
    {
      "inputs": [
        {
          "internalType": "address",
          "name": "_brandId",
          "type": "address"
        }
      ],
      "name": "defineNextFTType",
      "outputs": [
        {
          "internalType": "uint256",
          "name": "",
          "type": "uint256"
        }
      ],
      "stateMutability": "nonpayable",
      "type": "function"
    },
    {
      "inputs": [],
      "name": "defineNextNFTType",
      "outputs": [
        {
          "internalType": "uint256",
          "name": "",
          "type": "uint256"
        }
      ],
      "stateMutability": "nonpayable",
      "type": "function"
    },
    {
      "inputs": [
        {
          "internalType": "address",
          "name": "_to",
          "type": "address"
        },
        {
          "internalType": "uint256",
          "name": "_tokenId",
          "type": "uint256"
        },
        {
          "internalType": "uint256",
          "name": "_amount",
          "type": "uint256"
        },
        {
          "internalType": "bytes",
          "name": "_data",
          "type": "bytes"
        }
      ],
      "name": "mintFTFor",
      "outputs": [],
      "stateMutability": "nonpayable",
      "type": "function"
    },
    {
      "inputs": [
        {
          "internalType": "address",
          "name": "_to",
          "type": "address"
        },
        {
          "internalType": "uint256",
          "name": "_tokenType",
          "type": "uint256"
        },
        {
          "internalType": "bytes",
          "name": "_data",
          "type": "bytes"
        }
      ],
      "name": "mintNFTFor",
      "outputs": [
        {
          "internalType": "uint256",
          "name": "",
          "type": "uint256"
        }
      ],
      "stateMutability": "nonpayable",
      "type": "function"
    },
    {
      "inputs": [
        {
          "internalType": "uint256",
          "name": "_tokenId",
          "type": "uint256"
        },
        {
          "internalType": "uint256",
          "name": "_amount",
          "type": "uint256"
        }
      ],
      "name": "burnFT",
      "outputs": [],
      "stateMutability": "nonpayable",
      "type": "function"
    },
    {
      "inputs": [
        {
          "internalType": "uint256[]",
          "name": "_tokenIds",
          "type": "uint256[]"
        },
        {
          "internalType": "uint256[]",
          "name": "_amounts",
          "type": "uint256[]"
        }
      ],
      "name": "burnFTs",
      "outputs": [],
      "stateMutability": "nonpayable",
      "type": "function"
    },
    {
      "inputs": [
        {
          "internalType": "uint256",
          "name": "_tokenId",
          "type": "uint256"
        }
      ],
      "name": "burnNFT",
      "outputs": [],
      "stateMutability": "nonpayable",
      "type": "function"
    },
    {
      "inputs": [
        {
          "internalType": "uint256[]",
          "name": "_tokenIds",
          "type": "uint256[]"
        }
      ],
      "name": "burnNFTs",
      "outputs": [],
      "stateMutability": "nonpayable",
      "type": "function"
    },
    {
      "inputs": [
        {
          "internalType": "address",
          "name": "_to",
          "type": "address"
        },
        {
          "internalType": "address",
          "name": "_brandId",
          "type": "address"
        }
      ],
      "name": "mintBrandFor",
      "outputs": [],
      "stateMutability": "nonpayable",
      "type": "function"
    },
    {
      "inputs": [
        {
          "internalType": "uint256",
          "name": "_tokenId",
          "type": "uint256"
        }
      ],
      "name": "tokenURI",
      "outputs": [
        {
          "internalType": "string",
          "name": "",
          "type": "string"
        }
      ],
      "stateMutability": "view",
      "type": "function"
    },
    {
      "inputs": [
        {
          "internalType": "address",
          "name": "_brandId",
          "type": "address"
        },
        {
          "internalType": "address",
          "name": "_newOwner",
          "type": "address"
        }
      ],
      "name": "onBrandOwnerChanged",
      "outputs": [],
      "stateMutability": "nonpayable",
      "type": "function"
    },
    {
      "inputs": [
        {
          "internalType": "address",
          "name": "_contract",
          "type": "address"
        }
      ],
      "name": "addPlugin",
      "outputs": [],
      "stateMutability": "nonpayable",
      "type": "function"
    },
    {
      "inputs": [],
      "name": "pluginsCount",
      "outputs": [
        {
          "internalType": "uint256",
          "name": "",
          "type": "uint256"
        }
      ],
      "stateMutability": "view",
      "type": "function"
    },
    {
      "inputs": [
        {
          "internalType": "address",
          "name": "_contract",
          "type": "address"
        }
      ],
      "name": "setBrandRegistry",
      "outputs": [],
      "stateMutability": "nonpayable",
      "type": "function"
    },
    {
      "inputs": [
        {
          "internalType": "address",
          "name": "_contract",
          "type": "address"
        }
      ],
      "name": "setEconomy",
      "outputs": [],
      "stateMutability": "nonpayable",
      "type": "function"
    },
    {
      "inputs": [
        {
          "internalType": "bytes4",
          "name": "interfaceId",
          "type": "bytes4"
        }
      ],
      "name": "supportsInterface",
      "outputs": [
        {
          "internalType": "bool",
          "name": "",
          "type": "bool"
        }
      ],
      "stateMutability": "view",
      "type": "function"
    },
    {
      "inputs": [
        {
          "internalType": "bytes32",
          "name": "_permission",
          "type": "bytes32"
        },
        {
          "internalType": "address",
          "name": "_sender",
          "type": "address"
        }
      ],
      "name": "isAllowed",
      "outputs": [
        {
          "internalType": "bool",
          "name": "",
          "type": "bool"
        }
      ],
      "stateMutability": "view",
      "type": "function"
    },
    {
      "inputs": [
        {
          "internalType": "bytes32",
          "name": "_permission",
          "type": "bytes32"
        },
        {
          "internalType": "address",
          "name": "_user",
          "type": "address"
        },
        {
          "internalType": "bool",
          "name": "_allowed",
          "type": "bool"
        }
      ],
      "name": "setPermission",
      "outputs": [],
      "stateMutability": "nonpayable",
      "type": "function"
    }
  ],
  "bytecode": "0x60806040526002600855740100000000000000000000000000000000000000006009553480156200002f57600080fd5b5062000050620000446200005660201b60201c565b6200005e60201b60201c565b62000122565b600033905090565b60008060009054906101000a900473ffffffffffffffffffffffffffffffffffffffff169050816000806101000a81548173ffffffffffffffffffffffffffffffffffffffff021916908373ffffffffffffffffffffffffffffffffffffffff1602179055508173ffffffffffffffffffffffffffffffffffffffff168173ffffffffffffffffffffffffffffffffffffffff167f8be0079c531659141344cd1fd0a4f28419497f9722a3daafe3b4186f6b6457e060405160405180910390a35050565b61495280620001326000396000f3fe608060405234801561001057600080fd5b50600436106101a95760003560e01c80638cd6e9a9116100f9578063ba9c5ba911610097578063d053bfa111610071578063d053bfa1146104ca578063d8867fc8146104fa578063f2fde38b14610516578063f981ce7f14610532576101a9565b8063ba9c5ba91461044e578063c05cb36f1461046a578063c87b56dd1461049a576101a9565b8063acb8a060116100d3578063acb8a060146103ca578063ad8509b0146103e6578063b842aa9214610402578063b9225e8414610432576101a9565b80638cd6e9a9146103745780638da5cb5b14610390578063a16bc2ae146103ae576101a9565b8063556112d411610166578063715018a611610140578063715018a6146102ec57806379b2ab23146102f657806382027b6d146103265780638820f6bd14610356576101a9565b8063556112d414610294578063599e4c70146102b25780635b1798e4146102ce576101a9565b806301ffc9a7146101ae57806304a6fdc0146101de57806309f6567e1461020e5780631b5dc5981461022c5780632890e0d7146102485780634b12e64314610264575b600080fd5b6101c860048036038101906101c39190612e66565b61054e565b6040516101d59190612eae565b60405180910390f35b6101f860048036038101906101f391906130a3565b610620565b6040516102059190613121565b60405180910390f35b610216610981565b6040516102239190613121565b60405180910390f35b6102466004803603810190610241919061313c565b61098e565b005b610262600480360381019061025d919061317c565b610ad1565b005b61027e600480360381019061027991906131a9565b610cbd565b60405161028b9190612eae565b60405180910390f35b61029c610cdd565b6040516102a99190613121565b60405180910390f35b6102cc60048036038101906102c79190613238565b610ee1565b005b6102d6611134565b6040516102e3919061329a565b60405180910390f35b6102f461115a565b005b610310600480360381019061030b919061317c565b61116e565b60405161031d9190613121565b60405180910390f35b610340600480360381019061033b91906132b5565b611186565b60405161034d9190612eae565b60405180910390f35b61035e61122b565b60405161036b919061329a565b60405180910390f35b61038e6004803603810190610389919061313c565b611251565b005b61039861137b565b6040516103a5919061329a565b60405180910390f35b6103c860048036038101906103c391906132f5565b6113a4565b005b6103e460048036038101906103df91906131a9565b6115df565b005b61040060048036038101906103fb91906131a9565b61176e565b005b61041c600480360381019061041791906131a9565b6118fd565b6040516104299190613121565b60405180910390f35b61044c60048036038101906104479190613440565b611bfc565b005b61046860048036038101906104639190613489565b611eb6565b005b610484600480360381019061047f919061317c565b61208f565b604051610491919061329a565b60405180910390f35b6104b460048036038101906104af919061317c565b6120ce565b6040516104c19190613551565b60405180910390f35b6104e460048036038101906104df919061317c565b6121f1565b6040516104f1919061329a565b60405180910390f35b610514600480360381019061050f91906131a9565b612224565b005b610530600480360381019061052b91906131a9565b612488565b005b61054c60048036038101906105479190613573565b61250c565b005b60007f01ffc9a7000000000000000000000000000000000000000000000000000000007bffffffffffffffffffffffffffffffffffffffffffffffffffffffff1916827bffffffffffffffffffffffffffffffffffffffffffffffffffffffff1916148061061957507f163cc027000000000000000000000000000000000000000000000000000000007bffffffffffffffffffffffffffffffffffffffffffffffffffffffff1916827bffffffffffffffffffffffffffffffffffffffffffffffffffffffff1916145b9050919050565b60006001600061062e61271f565b73ffffffffffffffffffffffffffffffffffffffff1673ffffffffffffffffffffffffffffffffffffffff16815260200190815260200160002060009054906101000a900460ff166106b5576040517f08c379a00000000000000000000000000000000000000000000000000000000081526004016106ac9061365d565b60405180910390fd5b826106be61271f565b73ffffffffffffffffffffffffffffffffffffffff166005600083815260200190815260200160002060009054906101000a900473ffffffffffffffffffffffffffffffffffffffff1673ffffffffffffffffffffffffffffffffffffffff161461075e576040517f08c379a0000000000000000000000000000000000000000000000000000000008152600401610755906136ef565b60405180910390fd5b837f800000000000000000000000000000000000000000000000000000000000000081106107c1576040517f08c379a00000000000000000000000000000000000000000000000000000000081526004016107b890613781565b60405180910390fd5b6002851015610805576040517f08c379a00000000000000000000000000000000000000000000000000000000081526004016107fc90613813565b60405180910390fd5b6000600954905060007f7fffffffffffffffffffffffffffffffffffffffffffffffffffffffffffffff90505b6001156108b45780821061087b576040517f08c379a00000000000000000000000000000000000000000000000000000000081526004016108729061387f565b60405180910390fd5b60006006600084815260200190815260200160002054146108aa576001826108a391906138ce565b91506108af565b6108b4565b610832565b6001826108c191906138ce565b600981905550600460009054906101000a900473ffffffffffffffffffffffffffffffffffffffff1673ffffffffffffffffffffffffffffffffffffffff16635b0034fd898460018a6040518563ffffffff1660e01b815260040161092994939291906139be565b600060405180830381600087803b15801561094357600080fd5b505af1158015610957573d6000803e3d6000fd5b50505050866006600084815260200190815260200160002081905550819450505050509392505050565b6000600280549050905090565b600360009054906101000a900473ffffffffffffffffffffffffffffffffffffffff1673ffffffffffffffffffffffffffffffffffffffff166109cf61271f565b73ffffffffffffffffffffffffffffffffffffffff1614610a25576040517f08c379a0000000000000000000000000000000000000000000000000000000008152600401610a1c90613a7c565b60405180910390fd5b600460009054906101000a900473ffffffffffffffffffffffffffffffffffffffff1673ffffffffffffffffffffffffffffffffffffffff16635b0034fd838373ffffffffffffffffffffffffffffffffffffffff1660016040518463ffffffff1660e01b8152600401610a9b93929190613ae8565b600060405180830381600087803b158015610ab557600080fd5b505af1158015610ac9573d6000803e3d6000fd5b505050505050565b60016000610add61271f565b73ffffffffffffffffffffffffffffffffffffffff1673ffffffffffffffffffffffffffffffffffffffff16815260200190815260200160002060009054906101000a900460ff16610b64576040517f08c379a0000000000000000000000000000000000000000000000000000000008152600401610b5b9061365d565b60405180910390fd5b6006600082815260200190815260200160002054610b8061271f565b73ffffffffffffffffffffffffffffffffffffffff166005600083815260200190815260200160002060009054906101000a900473ffffffffffffffffffffffffffffffffffffffff1673ffffffffffffffffffffffffffffffffffffffff1614610c20576040517f08c379a0000000000000000000000000000000000000000000000000000000008152600401610c17906136ef565b60405180910390fd5b600460009054906101000a900473ffffffffffffffffffffffffffffffffffffffff1673ffffffffffffffffffffffffffffffffffffffff1663f5298aca610c6661271f565b8460016040518463ffffffff1660e01b8152600401610c8793929190613b32565b600060405180830381600087803b158015610ca157600080fd5b505af1158015610cb5573d6000803e3d6000fd5b505050505050565b60016020528060005260406000206000915054906101000a900460ff1681565b600060016000610ceb61271f565b73ffffffffffffffffffffffffffffffffffffffff1673ffffffffffffffffffffffffffffffffffffffff16815260200190815260200160002060009054906101000a900460ff16610d72576040517f08c379a0000000000000000000000000000000000000000000000000000000008152600401610d699061365d565b60405180910390fd5b6000600854905060007f7fffffffffffffffffffffffffffffffffffffffffffffffffffffffffffffff90505b600115610e6d57808210610de8576040517f08c379a0000000000000000000000000000000000000000000000000000000008152600401610ddf90613bdb565b60405180910390fd5b600073ffffffffffffffffffffffffffffffffffffffff166005600084815260200190815260200160002060009054906101000a900473ffffffffffffffffffffffffffffffffffffffff1673ffffffffffffffffffffffffffffffffffffffff1614610e6357600182610e5c91906138ce565b9150610e68565b610e6d565b610d9f565b600182610e7a91906138ce565b600881905550610e8861271f565b6005600084815260200190815260200160002060006101000a81548173ffffffffffffffffffffffffffffffffffffffff021916908373ffffffffffffffffffffffffffffffffffffffff160217905550819250505090565b7fffffffffffffffffffffffffffffffffffffffffffffffffffffffffffffffff60001b610f1681610f1161271f565b611186565b610f55576040517f08c379a0000000000000000000000000000000000000000000000000000000008152600401610f4c90613c93565b60405180910390fd5b6000610f5f61271f565b9050600073ffffffffffffffffffffffffffffffffffffffff168473ffffffffffffffffffffffffffffffffffffffff161415610fd1576040517f08c379a0000000000000000000000000000000000000000000000000000000008152600401610fc890613d25565b60405180910390fd5b610fd961137b565b73ffffffffffffffffffffffffffffffffffffffff168173ffffffffffffffffffffffffffffffffffffffff16148061103557507fffffffffffffffffffffffffffffffffffffffffffffffffffffffffffffffff60001b8514155b611074576040517f08c379a000000000000000000000000000000000000000000000000000000000815260040161106b90613db7565b60405180910390fd5b82600a600087815260200190815260200160002060008673ffffffffffffffffffffffffffffffffffffffff1673ffffffffffffffffffffffffffffffffffffffff16815260200190815260200160002060006101000a81548160ff0219169083151502179055508373ffffffffffffffffffffffffffffffffffffffff16857f24af309445c2eef44ddf2bae5d5064c30788ae79ce92147e1c025c92500cebdb8584604051611125929190613dd7565b60405180910390a35050505050565b600360009054906101000a900473ffffffffffffffffffffffffffffffffffffffff1681565b611162612727565b61116c60006127a5565b565b60066020528060005260406000206000915090505481565b600061119061137b565b73ffffffffffffffffffffffffffffffffffffffff168273ffffffffffffffffffffffffffffffffffffffff1614806112235750600a600084815260200190815260200160002060008373ffffffffffffffffffffffffffffffffffffffff1673ffffffffffffffffffffffffffffffffffffffff16815260200190815260200160002060009054906101000a900460ff165b905092915050565b600460009054906101000a900473ffffffffffffffffffffffffffffffffffffffff1681565b600460009054906101000a900473ffffffffffffffffffffffffffffffffffffffff1673ffffffffffffffffffffffffffffffffffffffff1661129261271f565b73ffffffffffffffffffffffffffffffffffffffff16146112e8576040517f08c379a00000000000000000000000000000000000000000000000000000000081526004016112df90613e72565b60405180910390fd5b600360009054906101000a900473ffffffffffffffffffffffffffffffffffffffff1673ffffffffffffffffffffffffffffffffffffffff16638cd6e9a983836040518363ffffffff1660e01b8152600401611345929190613e92565b600060405180830381600087803b15801561135f57600080fd5b505af1158015611373573d6000803e3d6000fd5b505050505050565b60008060009054906101000a900473ffffffffffffffffffffffffffffffffffffffff16905090565b600160006113b061271f565b73ffffffffffffffffffffffffffffffffffffffff1673ffffffffffffffffffffffffffffffffffffffff16815260200190815260200160002060009054906101000a900460ff16611437576040517f08c379a000000000000000000000000000000000000000000000000000000000815260040161142e9061365d565b60405180910390fd5b8261144061271f565b73ffffffffffffffffffffffffffffffffffffffff166005600083815260200190815260200160002060009054906101000a900473ffffffffffffffffffffffffffffffffffffffff1673ffffffffffffffffffffffffffffffffffffffff16146114e0576040517f08c379a00000000000000000000000000000000000000000000000000000000081526004016114d7906136ef565b60405180910390fd5b837f8000000000000000000000000000000000000000000000000000000000000000811015611544576040517f08c379a000000000000000000000000000000000000000000000000000000000815260040161153b90613f53565b60405180910390fd5b600460009054906101000a900473ffffffffffffffffffffffffffffffffffffffff1673ffffffffffffffffffffffffffffffffffffffff16635b0034fd878787876040518563ffffffff1660e01b81526004016115a59493929190613f73565b600060405180830381600087803b1580156115bf57600080fd5b505af11580156115d3573d6000803e3d6000fd5b50505050505050505050565b7f92e4e1d5f3e452d7c6c0409b81de95ec9cff51730ec91e8972f77d63e9cc1df16116118161160c61271f565b611186565b611650576040517f08c379a000000000000000000000000000000000000000000000000000000000815260040161164790613c93565b60405180910390fd5b61165982612869565b611698576040517f08c379a000000000000000000000000000000000000000000000000000000000815260040161168f90614057565b60405180910390fd5b600073ffffffffffffffffffffffffffffffffffffffff16600360009054906101000a900473ffffffffffffffffffffffffffffffffffffffff1673ffffffffffffffffffffffffffffffffffffffff1614611729576040517f08c379a0000000000000000000000000000000000000000000000000000000008152600401611720906140e9565b60405180910390fd5b81600360006101000a81548173ffffffffffffffffffffffffffffffffffffffff021916908373ffffffffffffffffffffffffffffffffffffffff1602179055505050565b7fb2f5c1b8a0f3a810bf8ccec4c0f5ad61901b36eadbb8a70006b8d0ded8bf45656117a08161179b61271f565b611186565b6117df576040517f08c379a00000000000000000000000000000000000000000000000000000000081526004016117d690613c93565b60405180910390fd5b6117e882612960565b611827576040517f08c379a000000000000000000000000000000000000000000000000000000000815260040161181e906141a1565b60405180910390fd5b600073ffffffffffffffffffffffffffffffffffffffff16600460009054906101000a900473ffffffffffffffffffffffffffffffffffffffff1673ffffffffffffffffffffffffffffffffffffffff16146118b8576040517f08c379a00000000000000000000000000000000000000000000000000000000081526004016118af90614233565b60405180910390fd5b81600460006101000a81548173ffffffffffffffffffffffffffffffffffffffff021916908373ffffffffffffffffffffffffffffffffffffffff1602179055505050565b60006001600061190b61271f565b73ffffffffffffffffffffffffffffffffffffffff1673ffffffffffffffffffffffffffffffffffffffff16815260200190815260200160002060009054906101000a900460ff16611992576040517f08c379a00000000000000000000000000000000000000000000000000000000081526004016119899061365d565b60405180910390fd5b6000600760008473ffffffffffffffffffffffffffffffffffffffff1673ffffffffffffffffffffffffffffffffffffffff16815260200190815260200160002060009054906101000a900467ffffffffffffffff16905060008167ffffffffffffffff1660408573ffffffffffffffffffffffffffffffffffffffff16901b7f8000000000000000000000000000000000000000000000000000000000000000171790505b600115611b275767ffffffffffffffff8267ffffffffffffffff1610611a93576040517f08c379a0000000000000000000000000000000000000000000000000000000008152600401611a8a906142c5565b60405180910390fd5b600073ffffffffffffffffffffffffffffffffffffffff166005600083815260200190815260200160002060009054906101000a900473ffffffffffffffffffffffffffffffffffffffff1673ffffffffffffffffffffffffffffffffffffffff1614611b1d57600182611b0791906142f9565b9150600181611b1691906138ce565b9050611b22565b611b27565b611a38565b600182611b3491906142f9565b600760008673ffffffffffffffffffffffffffffffffffffffff1673ffffffffffffffffffffffffffffffffffffffff16815260200190815260200160002060006101000a81548167ffffffffffffffff021916908367ffffffffffffffff160217905550611ba161271f565b6005600083815260200190815260200160002060006101000a81548173ffffffffffffffffffffffffffffffffffffffff021916908373ffffffffffffffffffffffffffffffffffffffff1602179055508092505050919050565b60016000611c0861271f565b73ffffffffffffffffffffffffffffffffffffffff1673ffffffffffffffffffffffffffffffffffffffff16815260200190815260200160002060009054906101000a900460ff16611c8f576040517f08c379a0000000000000000000000000000000000000000000000000000000008152600401611c869061365d565b60405180910390fd5b8060005b8151811015611d8457611ca461271f565b73ffffffffffffffffffffffffffffffffffffffff166005600060066000868681518110611cd557611cd4614337565b5b6020026020010151815260200190815260200160002054815260200190815260200160002060009054906101000a900473ffffffffffffffffffffffffffffffffffffffff1673ffffffffffffffffffffffffffffffffffffffff1614611d71576040517f08c379a0000000000000000000000000000000000000000000000000000000008152600401611d68906136ef565b60405180910390fd5b8080611d7c90614366565b915050611c93565b5060008251905060008167ffffffffffffffff811115611da757611da6612f78565b5b604051908082528060200260200182016040528015611dd55781602001602082028036833780820191505090505b50905060005b82811015611e17576001828281518110611df857611df7614337565b5b6020026020010181815250508080611e0f90614366565b915050611ddb565b50600460009054906101000a900473ffffffffffffffffffffffffffffffffffffffff1673ffffffffffffffffffffffffffffffffffffffff16636b20c454611e5e61271f565b86846040518463ffffffff1660e01b8152600401611e7e9392919061446d565b600060405180830381600087803b158015611e9857600080fd5b505af1158015611eac573d6000803e3d6000fd5b5050505050505050565b60016000611ec261271f565b73ffffffffffffffffffffffffffffffffffffffff1673ffffffffffffffffffffffffffffffffffffffff16815260200190815260200160002060009054906101000a900460ff16611f49576040517f08c379a0000000000000000000000000000000000000000000000000000000008152600401611f409061365d565b60405180910390fd5b81611f5261271f565b73ffffffffffffffffffffffffffffffffffffffff166005600083815260200190815260200160002060009054906101000a900473ffffffffffffffffffffffffffffffffffffffff1673ffffffffffffffffffffffffffffffffffffffff1614611ff2576040517f08c379a0000000000000000000000000000000000000000000000000000000008152600401611fe9906136ef565b60405180910390fd5b600460009054906101000a900473ffffffffffffffffffffffffffffffffffffffff1673ffffffffffffffffffffffffffffffffffffffff1663f5298aca61203861271f565b85856040518463ffffffff1660e01b8152600401612058939291906144b2565b600060405180830381600087803b15801561207257600080fd5b505af1158015612086573d6000803e3d6000fd5b50505050505050565b6002818154811061209f57600080fd5b906000526020600020016000915054906101000a900473ffffffffffffffffffffffffffffffffffffffff1681565b60607401000000000000000000000000000000000000000082101561219557600360009054906101000a900473ffffffffffffffffffffffffffffffffffffffff1673ffffffffffffffffffffffffffffffffffffffff16639896c31d836040518263ffffffff1660e01b8152600401612148919061329a565b600060405180830381865afa158015612165573d6000803e3d6000fd5b505050506040513d6000823e3d601f19601f8201168201806040525081019061218e919061458a565b90506121ec565b7f80000000000000000000000000000000000000000000000000000000000000008210156121e0576121d96006600084815260200190815260200160002054612a57565b90506121ec565b6121e982612a57565b90505b919050565b60056020528060005260406000206000915054906101000a900473ffffffffffffffffffffffffffffffffffffffff1681565b7fdb00269ca4e35aeac54f34cf437a65362b615653e0245eeae7ef57687c9682626122568161225161271f565b611186565b612295576040517f08c379a000000000000000000000000000000000000000000000000000000000815260040161228c90613c93565b60405180910390fd5b61229e82612b66565b6122dd576040517f08c379a00000000000000000000000000000000000000000000000000000000081526004016122d49061466b565b60405180910390fd5b600160008373ffffffffffffffffffffffffffffffffffffffff1673ffffffffffffffffffffffffffffffffffffffff16815260200190815260200160002060009054906101000a900460ff161561236a576040517f08c379a0000000000000000000000000000000000000000000000000000000008152600401612361906146fd565b60405180910390fd5b60018060008473ffffffffffffffffffffffffffffffffffffffff1673ffffffffffffffffffffffffffffffffffffffff16815260200190815260200160002060006101000a81548160ff0219169083151502179055506002829080600181540180825580915050600190039060005260206000200160009091909190916101000a81548173ffffffffffffffffffffffffffffffffffffffff021916908373ffffffffffffffffffffffffffffffffffffffff1602179055508173ffffffffffffffffffffffffffffffffffffffff16638129fc1c6040518163ffffffff1660e01b8152600401600060405180830381600087803b15801561246c57600080fd5b505af1158015612480573d6000803e3d6000fd5b505050505050565b612490612727565b600073ffffffffffffffffffffffffffffffffffffffff168173ffffffffffffffffffffffffffffffffffffffff161415612500576040517f08c379a00000000000000000000000000000000000000000000000000000000081526004016124f79061478f565b60405180910390fd5b612509816127a5565b50565b6001600061251861271f565b73ffffffffffffffffffffffffffffffffffffffff1673ffffffffffffffffffffffffffffffffffffffff16815260200190815260200160002060009054906101000a900460ff1661259f576040517f08c379a00000000000000000000000000000000000000000000000000000000081526004016125969061365d565b60405180910390fd5b8160005b8151811015612681576125b461271f565b73ffffffffffffffffffffffffffffffffffffffff16600560008484815181106125e1576125e0614337565b5b6020026020010151815260200190815260200160002060009054906101000a900473ffffffffffffffffffffffffffffffffffffffff1673ffffffffffffffffffffffffffffffffffffffff161461266e576040517f08c379a0000000000000000000000000000000000000000000000000000000008152600401612665906136ef565b60405180910390fd5b808061267990614366565b9150506125a3565b50600460009054906101000a900473ffffffffffffffffffffffffffffffffffffffff1673ffffffffffffffffffffffffffffffffffffffff16636b20c4546126c861271f565b85856040518463ffffffff1660e01b81526004016126e89392919061446d565b600060405180830381600087803b15801561270257600080fd5b505af1158015612716573d6000803e3d6000fd5b50505050505050565b600033905090565b61272f61271f565b73ffffffffffffffffffffffffffffffffffffffff1661274d61137b565b73ffffffffffffffffffffffffffffffffffffffff16146127a3576040517f08c379a000000000000000000000000000000000000000000000000000000000815260040161279a906147fb565b60405180910390fd5b565b60008060009054906101000a900473ffffffffffffffffffffffffffffffffffffffff169050816000806101000a81548173ffffffffffffffffffffffffffffffffffffffff021916908373ffffffffffffffffffffffffffffffffffffffff1602179055508173ffffffffffffffffffffffffffffffffffffffff168173ffffffffffffffffffffffffffffffffffffffff167f8be0079c531659141344cd1fd0a4f28419497f9722a3daafe3b4186f6b6457e060405160405180910390a35050565b60006128b47fdbd8fe75000000000000000000000000000000000000000000000000000000008373ffffffffffffffffffffffffffffffffffffffff16612c5d90919063ffffffff16565b801561295957503073ffffffffffffffffffffffffffffffffffffffff168273ffffffffffffffffffffffffffffffffffffffff1663f200670d6040518163ffffffff1660e01b8152600401602060405180830381865afa15801561291d573d6000803e3d6000fd5b505050506040513d601f19601f820116820180604052508101906129419190614830565b73ffffffffffffffffffffffffffffffffffffffff16145b9050919050565b60006129ab7f37091d6e000000000000000000000000000000000000000000000000000000008373ffffffffffffffffffffffffffffffffffffffff16612c5d90919063ffffffff16565b8015612a5057503073ffffffffffffffffffffffffffffffffffffffff168273ffffffffffffffffffffffffffffffffffffffff1663f200670d6040518163ffffffff1660e01b8152600401602060405180830381865afa158015612a14573d6000803e3d6000fd5b505050506040513d601f19601f82011682018060405250810190612a389190614830565b73ffffffffffffffffffffffffffffffffffffffff16145b9050919050565b606060006005600084815260200190815260200160002060009054906101000a900473ffffffffffffffffffffffffffffffffffffffff169050600073ffffffffffffffffffffffffffffffffffffffff168173ffffffffffffffffffffffffffffffffffffffff161415612ade5760405180602001604052806000815250915050612b61565b8073ffffffffffffffffffffffffffffffffffffffff16630e89341c846040518263ffffffff1660e01b8152600401612b179190613121565b600060405180830381865afa158015612b34573d6000803e3d6000fd5b505050506040513d6000823e3d601f19601f82011682018060405250810190612b5d919061458a565b9150505b919050565b6000612bb17f08267719000000000000000000000000000000000000000000000000000000008373ffffffffffffffffffffffffffffffffffffffff16612c5d90919063ffffffff16565b8015612c5657503073ffffffffffffffffffffffffffffffffffffffff168273ffffffffffffffffffffffffffffffffffffffff1663f200670d6040518163ffffffff1660e01b8152600401602060405180830381865afa158015612c1a573d6000803e3d6000fd5b505050506040513d601f19601f82011682018060405250810190612c3e9190614830565b73ffffffffffffffffffffffffffffffffffffffff16145b9050919050565b6000612c6883612c82565b8015612c7a5750612c798383612ccf565b5b905092915050565b6000612cae827f01ffc9a700000000000000000000000000000000000000000000000000000000612ccf565b8015612cc85750612cc68263ffffffff60e01b612ccf565b155b9050919050565b6000806301ffc9a760e01b83604051602401612ceb919061486c565b604051602081830303815290604052907bffffffffffffffffffffffffffffffffffffffffffffffffffffffff19166020820180517bffffffffffffffffffffffffffffffffffffffffffffffffffffffff838183161783525050505090506000808573ffffffffffffffffffffffffffffffffffffffff1661753084604051612d7591906148c3565b6000604051808303818686fa925050503d8060008114612db1576040519150601f19603f3d011682016040523d82523d6000602084013e612db6565b606091505b5091509150602081511015612dd15760009350505050612df4565b818015612dee575080806020019051810190612ded91906148ef565b5b93505050505b92915050565b6000604051905090565b600080fd5b600080fd5b60007fffffffff0000000000000000000000000000000000000000000000000000000082169050919050565b612e4381612e0e565b8114612e4e57600080fd5b50565b600081359050612e6081612e3a565b92915050565b600060208284031215612e7c57612e7b612e04565b5b6000612e8a84828501612e51565b91505092915050565b60008115159050919050565b612ea881612e93565b82525050565b6000602082019050612ec36000830184612e9f565b92915050565b600073ffffffffffffffffffffffffffffffffffffffff82169050919050565b6000612ef482612ec9565b9050919050565b612f0481612ee9565b8114612f0f57600080fd5b50565b600081359050612f2181612efb565b92915050565b6000819050919050565b612f3a81612f27565b8114612f4557600080fd5b50565b600081359050612f5781612f31565b92915050565b600080fd5b600080fd5b6000601f19601f8301169050919050565b7f4e487b7100000000000000000000000000000000000000000000000000000000600052604160045260246000fd5b612fb082612f67565b810181811067ffffffffffffffff82111715612fcf57612fce612f78565b5b80604052505050565b6000612fe2612dfa565b9050612fee8282612fa7565b919050565b600067ffffffffffffffff82111561300e5761300d612f78565b5b61301782612f67565b9050602081019050919050565b82818337600083830152505050565b600061304661304184612ff3565b612fd8565b90508281526020810184848401111561306257613061612f62565b5b61306d848285613024565b509392505050565b600082601f83011261308a57613089612f5d565b5b813561309a848260208601613033565b91505092915050565b6000806000606084860312156130bc576130bb612e04565b5b60006130ca86828701612f12565b93505060206130db86828701612f48565b925050604084013567ffffffffffffffff8111156130fc576130fb612e09565b5b61310886828701613075565b9150509250925092565b61311b81612f27565b82525050565b60006020820190506131366000830184613112565b92915050565b6000806040838503121561315357613152612e04565b5b600061316185828601612f12565b925050602061317285828601612f12565b9150509250929050565b60006020828403121561319257613191612e04565b5b60006131a084828501612f48565b91505092915050565b6000602082840312156131bf576131be612e04565b5b60006131cd84828501612f12565b91505092915050565b6000819050919050565b6131e9816131d6565b81146131f457600080fd5b50565b600081359050613206816131e0565b92915050565b61321581612e93565b811461322057600080fd5b50565b6000813590506132328161320c565b92915050565b60008060006060848603121561325157613250612e04565b5b600061325f868287016131f7565b935050602061327086828701612f12565b925050604061328186828701613223565b9150509250925092565b61329481612ee9565b82525050565b60006020820190506132af600083018461328b565b92915050565b600080604083850312156132cc576132cb612e04565b5b60006132da858286016131f7565b92505060206132eb85828601612f12565b9150509250929050565b6000806000806080858703121561330f5761330e612e04565b5b600061331d87828801612f12565b945050602061332e87828801612f48565b935050604061333f87828801612f48565b925050606085013567ffffffffffffffff8111156133605761335f612e09565b5b61336c87828801613075565b91505092959194509250565b600067ffffffffffffffff82111561339357613392612f78565b5b602082029050602081019050919050565b600080fd5b60006133bc6133b784613378565b612fd8565b905080838252602082019050602084028301858111156133df576133de6133a4565b5b835b8181101561340857806133f48882612f48565b8452602084019350506020810190506133e1565b5050509392505050565b600082601f83011261342757613426612f5d565b5b81356134378482602086016133a9565b91505092915050565b60006020828403121561345657613455612e04565b5b600082013567ffffffffffffffff81111561347457613473612e09565b5b61348084828501613412565b91505092915050565b600080604083850312156134a05761349f612e04565b5b60006134ae85828601612f48565b92505060206134bf85828601612f48565b9150509250929050565b600081519050919050565b600082825260208201905092915050565b60005b838110156135035780820151818401526020810190506134e8565b83811115613512576000848401525b50505050565b6000613523826134c9565b61352d81856134d4565b935061353d8185602086016134e5565b61354681612f67565b840191505092915050565b6000602082019050818103600083015261356b8184613518565b905092915050565b6000806040838503121561358a57613589612e04565b5b600083013567ffffffffffffffff8111156135a8576135a7612e09565b5b6135b485828601613412565b925050602083013567ffffffffffffffff8111156135d5576135d4612e09565b5b6135e185828601613412565b9150509250929050565b7f4d65746176657273653a207468652073656e646572206d75737420626520612060008201527f706c75672d696e00000000000000000000000000000000000000000000000000602082015250565b60006136476027836134d4565b9150613652826135eb565b604082019050919050565b600060208201905081810360008301526136768161363a565b9050919050565b7f4d65746176657273653a206e6f7420612074797065207265676973746572656460008201527f206279207468697320706c75672d696e00000000000000000000000000000000602082015250565b60006136d96030836134d4565b91506136e48261367d565b604082019050919050565b60006020820190508181036000830152613708816136cc565b9050919050565b7f4d65746176657273653a20746865207370656369666965642076616c7565206960008201527f73206e6f7420696e20746865206e66742072616e676500000000000000000000602082015250565b600061376b6036836134d4565b91506137768261370f565b604082019050919050565b6000602082019050818103600083015261379a8161375e565b9050919050565b7f4d65746176657273653a204e465420747970657320302028696e76616c69642960008201527f20616e64203120286272616e64292063616e6e6f74206265206d696e74656400602082015250565b60006137fd603f836134d4565b9150613808826137a1565b604082019050919050565b6000602082019050818103600083015261382c816137f0565b9050919050565b7f4d65746176657273653a2063616e6e6f74206d696e74206d6f7265204e465473600082015250565b60006138696020836134d4565b915061387482613833565b602082019050919050565b600060208201905081810360008301526138988161385c565b9050919050565b7f4e487b7100000000000000000000000000000000000000000000000000000000600052601160045260246000fd5b60006138d982612f27565b91506138e483612f27565b9250827fffffffffffffffffffffffffffffffffffffffffffffffffffffffffffffffff038211156139195761391861389f565b5b828201905092915050565b6000819050919050565b6000819050919050565b600061395361394e61394984613924565b61392e565b612f27565b9050919050565b61396381613938565b82525050565b600081519050919050565b600082825260208201905092915050565b600061399082613969565b61399a8185613974565b93506139aa8185602086016134e5565b6139b381612f67565b840191505092915050565b60006080820190506139d3600083018761328b565b6139e06020830186613112565b6139ed604083018561395a565b81810360608301526139ff8184613985565b905095945050505050565b7f4d65746176657273653a20746865206f6e6c7920616c6c6f7765642073656e6460008201527f657220697320746865206272616e642072656769737472790000000000000000602082015250565b6000613a666038836134d4565b9150613a7182613a0a565b604082019050919050565b60006020820190508181036000830152613a9581613a59565b9050919050565b7f4d65746176657273653a204d696e74696e672061206272616e64000000000000600082015250565b6000613ad2601a83613974565b9150613add82613a9c565b602082019050919050565b6000608082019050613afd600083018661328b565b613b0a6020830185613112565b613b17604083018461395a565b8181036060830152613b2881613ac5565b9050949350505050565b6000606082019050613b47600083018661328b565b613b546020830185613112565b613b61604083018461395a565b949350505050565b7f4d65746176657273653a2063616e6e6f7420646566696e65206d6f7265204e4660008201527f5420747970657300000000000000000000000000000000000000000000000000602082015250565b6000613bc56027836134d4565b9150613bd082613b69565b604082019050919050565b60006020820190508181036000830152613bf481613bb8565b9050919050565b7f4d65746176657273653a2063616c6c6572206973206e6f74206d65746176657260008201527f7365206f776e65722c20616e6420646f6573206e6f742068617665207468652060208201527f7265717569726564207065726d697373696f6e00000000000000000000000000604082015250565b6000613c7d6053836134d4565b9150613c8882613bfb565b606082019050919050565b60006020820190508181036000830152613cac81613c70565b9050919050565b7f4d65746176657273653a2063616e6e6f74206772616e742061207065726d697360008201527f73696f6e20746f20616464726573732030000000000000000000000000000000602082015250565b6000613d0f6031836134d4565b9150613d1a82613cb3565b604082019050919050565b60006020820190508181036000830152613d3e81613d02565b9050919050565b7f4d65746176657273653a20535550455255534552207065726d697373696f6e2060008201527f63616e6e6f742062652061646465642062792074686973207573657200000000602082015250565b6000613da1603c836134d4565b9150613dac82613d45565b604082019050919050565b60006020820190508181036000830152613dd081613d94565b9050919050565b6000604082019050613dec6000830185612e9f565b613df9602083018461328b565b9392505050565b7f4d65746176657273653a20746865206f6e6c7920616c6c6f7765642073656e6460008201527f6572206973207468652065636f6e6f6d792073797374656d0000000000000000602082015250565b6000613e5c6038836134d4565b9150613e6782613e00565b604082019050919050565b60006020820190508181036000830152613e8b81613e4f565b9050919050565b6000604082019050613ea7600083018561328b565b613eb4602083018461328b565b9392505050565b7f4d65746176657273653a20746865207370656369666965642076616c7565206960008201527f73206e6f7420696e207468652066756e6769626c6520746f6b656e732072616e60208201527f6765000000000000000000000000000000000000000000000000000000000000604082015250565b6000613f3d6042836134d4565b9150613f4882613ebb565b606082019050919050565b60006020820190508181036000830152613f6c81613f30565b9050919050565b6000608082019050613f88600083018761328b565b613f956020830186613112565b613fa26040830185613112565b8181036060830152613fb48184613985565b905095945050505050565b7f4d65746176657273653a20746865206164647265737320646f6573206e6f742060008201527f62656c6f6e6720746f20612076616c6964206272616e6420726567697374727960208201527f20636f6e747261637420666f722074686973206d657461766572736500000000604082015250565b6000614041605c836134d4565b915061404c82613fbf565b606082019050919050565b6000602082019050818103600083015261407081614034565b9050919050565b7f4d65746176657273653a2061206272616e64207265676973747279206973206160008201527f6c72656164792073657420696e746f2074686973206d65746176657273650000602082015250565b60006140d3603e836134d4565b91506140de82614077565b604082019050919050565b60006020820190508181036000830152614102816140c6565b9050919050565b7f4d65746176657273653a20746865206164647265737320646f6573206e6f742060008201527f62656c6f6e6720746f20612076616c69642065636f6e6f6d7920636f6e74726160208201527f637420666f722074686973206d65746176657273650000000000000000000000604082015250565b600061418b6055836134d4565b915061419682614109565b606082019050919050565b600060208201905081810360008301526141ba8161417e565b9050919050565b7f4d65746176657273653a20616e2065636f6e6f6d7920697320616c726561647960008201527f2073657420696e746f2074686973206d65746176657273650000000000000000602082015250565b600061421d6038836134d4565b9150614228826141c1565b604082019050919050565b6000602082019050818103600083015261424c81614210565b9050919050565b7f4d65746176657273653a2063616e6e6f7420646566696e65206d6f726520465460008201527f20747970657320666f7220746869732061646472657373000000000000000000602082015250565b60006142af6037836134d4565b91506142ba82614253565b604082019050919050565b600060208201905081810360008301526142de816142a2565b9050919050565b600067ffffffffffffffff82169050919050565b6000614304826142e5565b915061430f836142e5565b92508267ffffffffffffffff0382111561432c5761432b61389f565b5b828201905092915050565b7f4e487b7100000000000000000000000000000000000000000000000000000000600052603260045260246000fd5b600061437182612f27565b91507fffffffffffffffffffffffffffffffffffffffffffffffffffffffffffffffff8214156143a4576143a361389f565b5b600182019050919050565b600081519050919050565b600082825260208201905092915050565b6000819050602082019050919050565b6143e481612f27565b82525050565b60006143f683836143db565b60208301905092915050565b6000602082019050919050565b600061441a826143af565b61442481856143ba565b935061442f836143cb565b8060005b8381101561446057815161444788826143ea565b975061445283614402565b925050600181019050614433565b5085935050505092915050565b6000606082019050614482600083018661328b565b8181036020830152614494818561440f565b905081810360408301526144a8818461440f565b9050949350505050565b60006060820190506144c7600083018661328b565b6144d46020830185613112565b6144e16040830184613112565b949350505050565b600067ffffffffffffffff82111561450457614503612f78565b5b61450d82612f67565b9050602081019050919050565b600061452d614528846144e9565b612fd8565b90508281526020810184848401111561454957614548612f62565b5b6145548482856134e5565b509392505050565b600082601f83011261457157614570612f5d565b5b815161458184826020860161451a565b91505092915050565b6000602082840312156145a05761459f612e04565b5b600082015167ffffffffffffffff8111156145be576145bd612e09565b5b6145ca8482850161455c565b91505092915050565b7f4d65746176657273653a20746865206164647265737320646f6573206e6f742060008201527f62656c6f6e6720746f20612076616c696420706c75672d696e20636f6e74726160208201527f637420666f722074686973206d65746176657273650000000000000000000000604082015250565b60006146556055836134d4565b9150614660826145d3565b606082019050919050565b6000602082019050818103600083015261468481614648565b9050919050565b7f4d65746176657273653a2074686520706c75672d696e20697320616c7265616460008201527f7920616464656420746f2074686973206d657461766572736500000000000000602082015250565b60006146e76039836134d4565b91506146f28261468b565b604082019050919050565b60006020820190508181036000830152614716816146da565b9050919050565b7f4f776e61626c653a206e6577206f776e657220697320746865207a65726f206160008201527f6464726573730000000000000000000000000000000000000000000000000000602082015250565b60006147796026836134d4565b91506147848261471d565b604082019050919050565b600060208201905081810360008301526147a88161476c565b9050919050565b7f4f776e61626c653a2063616c6c6572206973206e6f7420746865206f776e6572600082015250565b60006147e56020836134d4565b91506147f0826147af565b602082019050919050565b60006020820190508181036000830152614814816147d8565b9050919050565b60008151905061482a81612efb565b92915050565b60006020828403121561484657614845612e04565b5b60006148548482850161481b565b91505092915050565b61486681612e0e565b82525050565b6000602082019050614881600083018461485d565b92915050565b600081905092915050565b600061489d82613969565b6148a78185614887565b93506148b78185602086016134e5565b80840191505092915050565b60006148cf8284614892565b915081905092915050565b6000815190506148e98161320c565b92915050565b60006020828403121561490557614904612e04565b5b6000614913848285016148da565b9150509291505056fea2646970667358221220867e21e2eb6b8290e56083a2247f58f9010ea255afbe7b853219c98adbc87ee764736f6c634300080a0033",
  "immutableReferences": {},
  "source": "// SPDX-License-Identifier: MIT\npragma solidity >=0.8 <0.9.0;\n\nimport \"@openzeppelin/contracts/access/Ownable.sol\";\nimport \"@openzeppelin/contracts/utils/introspection/ERC165Checker.sol\";\nimport \"./plugins/base/IMetaversePlugin.sol\";\nimport \"./IMetaverse.sol\";\nimport \"./economy/IEconomy.sol\";\nimport \"./brands/IBrandRegistry.sol\";\n\n/**\n * A metaverse hub can receive \"plugs\" (extensions) in the form of\n * different contracts (implementing IMetaversePlugin). This\n * plug mechanism allows extending the metaverse with new asset\n * types and new asset instances (each plug-in is managed by the\n * team, not publicly added by external users).\n *\n * Each of those contracts will make use of their own logic while\n * interacting with the metaverse, which involves having full access\n * to the whole metaverse assets (e.g. taking assets from the users\n * or granting assets to the users).\n */\ncontract Metaverse is Ownable, IMetaverse {\n    /**\n     * Addresses can check for ERC165 compliance by using this\n     * embeddable library.\n     */\n    using ERC165Checker for address;\n\n    /**\n     * This is the list of plug-ins that are being added to the hub.\n     * Each contract has its separate logic but they have access to\n     * the same set of features. Once a contract is added, it will\n     * never be removed from this list. This mapping tells whether\n     * a contract in particular has permission(s) to define a type\n     * and mint tokens for an address.\n     */\n    mapping(address => bool) public plugins;\n\n    /**\n     * This is the enumerable list of plug-ins added to this hub.\n     */\n    address[] public pluginsList;\n\n    /**\n     * The linked brand registry for this metaverse.\n     */\n    address public brandRegistry;\n\n    /**\n     * The linked economy for this metaverse.\n     */\n    address public economy;\n\n    /**\n     * Types are identified as integer values, and each registered type\n     * will have a non-zero responsible address (serving to metadata\n     * resolution and also to account for the existence of a given type).\n     * The type 1 (0x1) will be the first type, and actually it will be\n     * the brand type. Other NFT types will be registered using indices\n     * lower to (1<<255), while FT types will be registered using indices\n     * greater than or equal to that value (i.e. starting with binary {1}).\n     * In the case of the FTs, the index in this mapping is also their\n     * token id. This is not the same for NFTs (they have one extra level\n     * of indirection since multiple ids might share the same type). A\n     * special type id will be regarded as invalid type (i.e. it will\n     * not count as NFT nor FT type, but as a non-existent type): 0 (0x0).\n     *\n     * The responsible serves two purposes: The first one, is to resolve\n     * the metadata of a given token id (be it FT or NFT). The second one\n     * is to account for one of such tokens being burned. The responsible\n     * will actually be one of the registered plug-ins, on each case (save\n     * for the brands case, which is resolved by this contract, and the\n     * invalid case, which has no resolver).\n     */\n    mapping(uint256 => address) public tokenTypeResolvers;\n\n    /**\n     * Now, each NFT id will be registered here along its token type. The\n     * difference with the fungible tokens (they're already registered in\n     * the `tokenTypes` mapping) is that they need to be registered with\n     * a particular token type. Also, both the NFT id and its associated\n     * token type will be lower than (1<<255) since, otherwise, they would\n     * be using values corresponding to the FT side (both for IDs and type\n     * indices). Brand NFTs are not included in this mapping (they are only\n     * characterized by being < (1 << 160)).\n     */\n    mapping(uint256 => uint256) public nftTypes;\n\n    /**\n     * Holds the next FT index to try, in the next iteration, for respective\n     * brand(s) requesting one. These ids are, at most, 1<<64 - 1.\n     */\n    mapping(address => uint64) private nextFTIndex;\n\n    /**\n     * Holds the next NFT type to try, in the next iteration. The initial\n     * value to try is 2 (0 means \"invalid\" and 1 means \"brand\").\n     */\n    uint256 private nextNFTTypeIndex = 2;\n\n    /**\n     * Holds the next NFT index to try, in the next iteration. The initial\n     * value to try is 1 above the maximum value brand addresses can take.\n     */\n    uint256 private nextNFTIndex = 1 << 160;\n\n    /**\n     * Permission: Superuser (all the permissions are considered given to\n     * a superuser which is registered in the metaverse). The only thing\n     * that superuser per-se cannot do is to add more superusers.\n     */\n    bytes32 constant SUPERUSER = bytes32(uint256((1 << 256) - 1));\n\n    /**\n     * Permission: To add a plug-in.\n     */\n    bytes32 constant ADD_PLUGIN = keccak256(\"Metaverse::AddPlugin\");\n\n    /**\n     * Permission: To set a brand registry.\n     */\n    bytes32 constant SET_BRAND_REGISTRY = keccak256(\"Metaverse::SetBrandRegistry\");\n\n    /**\n     * Permission: To set the related economy.\n     */\n    bytes32 constant SET_ECONOMY = keccak256(\"Metaverse::SetEconomy\");\n\n    /**\n     * Maintains the permissions assigned to this metaverse.\n     */\n    mapping(bytes32 => mapping(address => bool)) permissions;\n\n    /**\n     * This modifier requires the sender to be one of the authorized contracts.\n     */\n    modifier onlyPlugin() {\n        require(plugins[_msgSender()], \"Metaverse: the sender must be a plug-in\");\n        _;\n    }\n\n    /**\n     * This modifier requires the token type to be already registered.\n     */\n    modifier onlyExistingTokenType(uint256 _tokenType) {\n        require(tokenTypeResolvers[_tokenType] != address(0), \"Metaverse: unknown / non-mintable token type id\");\n        _;\n    }\n\n    /**\n     * This modifier requires the token type to be already registered\n     * by the plug-in that requests it.\n     */\n    modifier onlyPluginTokenType(uint256 _tokenType) {\n        require(tokenTypeResolvers[_tokenType] == _msgSender(), \"Metaverse: not a type registered by this plug-in\");\n        _;\n    }\n\n    /**\n     * This modifier requires the token types to be already registered\n     * by the plug-in that requests it (they're FTs).\n     */\n    modifier onlyFTPluginTokenTypes(uint256[] memory _tokenTypes) {\n        for(uint256 index = 0; index < _tokenTypes.length; index++) {\n            require(\n                tokenTypeResolvers[_tokenTypes[index]] == _msgSender(),\n                \"Metaverse: not a type registered by this plug-in\"\n            );\n        }\n        _;\n    }\n\n    /**\n     * This modifier requires the token types to be already registered\n     * by the plug-in that requests it (they're NFTs).\n     */\n    modifier onlyNFTPluginTokenTypes(uint256[] memory _tokenTypes) {\n        for(uint256 index = 0; index < _tokenTypes.length; index++) {\n            require(\n                tokenTypeResolvers[nftTypes[_tokenTypes[index]]] == _msgSender(),\n                \"Metaverse: not a type registered by this plug-in\"\n            );\n        }\n        _;\n    }\n\n    /**\n     * This modifier requires the token type to be in the FT range.\n     */\n    modifier onlyFTRange(uint256 _tokenType) {\n        require(_tokenType >= (1 << 255), \"Metaverse: the specified value is not in the fungible tokens range\");\n        _;\n    }\n\n    /**\n     * This modifier requires the token type to be in the NFT range.\n     */\n    modifier onlyNFTRange(uint256 _tokenType) {\n        require(_tokenType < (1 << 255), \"Metaverse: the specified value is not in the nft range\");\n        _;\n    }\n\n    /**\n     * Defines the resolution of a fungible token type. The token id must be\n     * in the range of the fungible token ids.\n     */\n    function defineNextFTType(address _brandId) external onlyPlugin returns (uint256) {\n        uint64 tokenTypeIndex = nextFTIndex[_brandId];\n        uint256 tokenType = (1 << 255) | (uint256(uint160(_brandId)) << 64) | tokenTypeIndex;\n        while(true) {\n            require(tokenTypeIndex < 0xffffffffffffffff, \"Metaverse: cannot define more FT types for this address\");\n            if (tokenTypeResolvers[tokenType] != address(0)) {\n                tokenTypeIndex += 1;\n                tokenType += 1;\n            } else {\n                break;\n            }\n        }\n        nextFTIndex[_brandId] = tokenTypeIndex + 1;\n        tokenTypeResolvers[tokenType] = _msgSender();\n        return tokenType;\n    }\n\n    /**\n     * Defines the resolution of a non-fungible token type. The token id must\n     * be in the range of the fungible token (type) ids (strictly > 0, strictly\n     * < (1 << 255)).\n     */\n    function defineNextNFTType() external onlyPlugin returns (uint256) {\n        uint256 tokenTypeId = nextNFTTypeIndex;\n        uint256 lastNFTType = (1 << 255) - 1;\n        while(true) {\n            require(tokenTypeId < lastNFTType, \"Metaverse: cannot define more NFT types\");\n            if (tokenTypeResolvers[tokenTypeId] != address(0)) {\n                tokenTypeId += 1;\n            } else {\n                break;\n            }\n        }\n        nextNFTTypeIndex = tokenTypeId + 1;\n        tokenTypeResolvers[tokenTypeId] = _msgSender();\n        return tokenTypeId;\n    }\n\n    /**\n     * Mints a specific fungible token type, in a certain amount.\n     */\n    function mintFTFor(address _to, uint256 _tokenId, uint256 _amount, bytes memory _data)\n        external onlyPlugin onlyPluginTokenType(_tokenId) onlyFTRange(_tokenId)\n    {\n        IEconomy(economy).mintFor(_to, _tokenId, _amount, _data);\n    }\n\n    /**\n     * Mints a specific non-fungible token type, using a specific type (and always using\n     * an amount of 1). It is an error if the chosen type is unknown or < 2, since those\n     * types are reserved for being invalid or brands. Also, it is an error if the chosen\n     * type is not for that plug-in.\n     */\n    function mintNFTFor(address _to, uint256 _tokenType, bytes memory _data)\n        external onlyPlugin onlyPluginTokenType(_tokenType) onlyNFTRange(_tokenType) returns (uint256)\n    {\n        require(_tokenType >= 2, \"Metaverse: NFT types 0 (invalid) and 1 (brand) cannot be minted\");\n        uint256 tokenId = nextNFTIndex;\n        uint256 lastNFTId = (1 << 255) - 1;\n        while(true) {\n            require(tokenId < lastNFTId, \"Metaverse: cannot mint more NFTs\");\n            if (nftTypes[tokenId] != 0) {\n                tokenId += 1;\n            } else {\n                break;\n            }\n        }\n        nextNFTIndex = tokenId + 1;\n        IEconomy(economy).mintFor(_to, tokenId, 1, _data);\n        nftTypes[tokenId] = _tokenType;\n        return tokenId;\n    }\n\n    /**\n     * Burns any FT the sender has, provided the sender is a plugin and also defines\n     * the type of the token being burned.\n     */\n    function burnFT(uint256 _tokenId, uint256 _amount) external onlyPlugin onlyPluginTokenType(_tokenId) {\n        IEconomy(economy).burn(_msgSender(), _tokenId, _amount);\n    }\n\n    /**\n     * Burns many FT the sender has, provided the sender is a plugin and also defines\n     * the type of the token being burned.\n     */\n    function burnFTs(uint256[] memory _tokenIds, uint256[] memory _amounts) external\n        onlyPlugin onlyFTPluginTokenTypes(_tokenIds) {\n        IEconomy(economy).burnBatch(_msgSender(), _tokenIds, _amounts);\n    }\n\n    /**\n     * Burns any NFT the sender has, provided the sender is a plugin and also defines\n     * the type of the tokens being burned.\n     */\n    function burnNFT(uint256 _tokenId) external onlyPlugin onlyPluginTokenType(nftTypes[_tokenId]) {\n        IEconomy(economy).burn(_msgSender(), _tokenId, 1);\n    }\n\n    /**\n     * Burns many NFT the sender has, provided the sender is a plugin and also defines\n     * the type of the tokens being burned.\n     */\n    function burnNFTs(uint256[] memory _tokenIds) external onlyPlugin onlyNFTPluginTokenTypes(_tokenIds) {\n        uint256 length = _tokenIds.length;\n        uint256[] memory amounts = new uint[](length);\n        for (uint i = 0; i < length; i++) amounts[i] = 1;\n        IEconomy(economy).burnBatch(_msgSender(), _tokenIds, amounts);\n    }\n\n    /**\n     * Mints a specific brand token for a given user. The brand is stated as its address.\n     */\n    function mintBrandFor(address _to, address _brandId) external {\n        require(_msgSender() == brandRegistry, \"Metaverse: the only allowed sender is the brand registry\");\n        IEconomy(economy).mintFor(_to, uint256(uint160(_brandId)), 1, \"Metaverse: Minting a brand\");\n    }\n\n    /**\n     * Retrieves the metadata uri from the appropriate plug-in, if any. If the type id is\n     * not registered then return an empty string.\n     */\n    function _metadataFromPlugin(uint256 _typeId) private view returns (string memory) {\n        address plugin = tokenTypeResolvers[_typeId];\n        if (plugin == address(0)) {\n            return \"\";\n        }\n        return IMetaversePlugin(plugin).uri(_typeId);\n    }\n\n    /**\n     * Retrieves the metadata uri of a given token. WARNING: This method\n     * will consume a lot of gas if invoked inside a transaction, so\n     * it is recommended to invoke this method in the context of a\n     * CALL, and never in the context of a SEND (even as part of other\n     * contract's code).\n     */\n    function tokenURI(uint256 _tokenId) external view returns (string memory) {\n        if (_tokenId < (1 << 160)) {\n            return IBrandRegistry(brandRegistry).brandMetadataURI(address(uint160(_tokenId)));\n        } else if (_tokenId < (1 << 255)) {\n            return _metadataFromPlugin(nftTypes[_tokenId]);\n        } else {\n            return _metadataFromPlugin(_tokenId);\n        }\n    }\n\n    /**\n     * Hook to be invoked as part of a transfer from ERC1155.\n     */\n    function onBrandOwnerChanged(address _brandId, address _newOwner) external onlyEconomy {\n        IBrandRegistry(brandRegistry).onBrandOwnerChanged(_brandId, _newOwner);\n    }\n\n    // ********** Plugin management goes here **********\n\n    /**\n     * Tells whether an address is a valid metaverse plug-in contract for\n     * this metaverse in particular.\n     */\n    function _isPluginForThisMetaverse(address _plugin) private view returns (bool) {\n        return _plugin.supportsInterface(type(IMetaversePlugin).interfaceId) &&\n            IMetaversePlugin(_plugin).metaverse() == address(this);\n    }\n\n    /**\n     * Adds a plug-in contract to this metaverse.\n     */\n    function addPlugin(address _contract) public onlyAllowed(ADD_PLUGIN) {\n        require(\n            _isPluginForThisMetaverse(_contract),\n            \"Metaverse: the address does not belong to a valid plug-in contract for this metaverse\"\n        );\n        require(\n            !plugins[_contract], \"Metaverse: the plug-in is already added to this metaverse\"\n        );\n        plugins[_contract] = true;\n        pluginsList.push(_contract);\n        IMetaversePlugin(_contract).initialize();\n    }\n\n    /**\n     * This is the count of registered plug-ins.\n     */\n    function pluginsCount() public view returns (uint256) {\n        return pluginsList.length;\n    }\n\n    /**\n     * Tells whether an address is a valid brand registry contract for\n     * this metaverse in particular.\n     */\n    function _isBrandRegistryForThisMetaverse(address _registry) private view returns (bool) {\n        return _registry.supportsInterface(type(IBrandRegistry).interfaceId) &&\n            IBrandRegistry(_registry).metaverse() == address(this);\n    }\n\n    /**\n     * Adds a plug-in contract to this metaverse.\n     */\n    function setBrandRegistry(address _contract) public onlyAllowed(SET_BRAND_REGISTRY) {\n        require(\n            _isBrandRegistryForThisMetaverse(_contract),\n            \"Metaverse: the address does not belong to a valid brand registry contract for this metaverse\"\n        );\n        require(\n            brandRegistry == address(0), \"Metaverse: a brand registry is already set into this metaverse\"\n        );\n        brandRegistry = _contract;\n    }\n\n    /**\n     * Tells whether an address is a valid economy system contract for\n     * this metaverse in particular.\n     */\n    function _isEconomyForThisMetaverse(address _economy) private view returns (bool) {\n        return _economy.supportsInterface(type(IEconomy).interfaceId) &&\n            IEconomy(_economy).metaverse() == address(this);\n    }\n\n    /**\n     * Set the economy contract to this metaverse.\n     */\n    function setEconomy(address _contract) public onlyAllowed(SET_ECONOMY) {\n        require(\n            _isEconomyForThisMetaverse(_contract),\n            \"Metaverse: the address does not belong to a valid economy contract for this metaverse\"\n        );\n        require(\n            economy == address(0), \"Metaverse: an economy is already set into this metaverse\"\n        );\n        economy = _contract;\n    }\n\n    /**\n     * This modifier restricts a call to the linked economy system.\n     */\n    modifier onlyEconomy() {\n        require(_msgSender() == economy, \"Metaverse: the only allowed sender is the economy system\");\n        _;\n    }\n\n    /**\n     * A metaverse satisfies the IMetaverse and IERC165 interfaces.\n     */\n    function supportsInterface(bytes4 interfaceId) public view virtual override returns (bool) {\n        return interfaceId == type(IERC165).interfaceId || interfaceId == type(IMetaverse).interfaceId;\n    }\n\n    // TODO: Implement many features:\n    // 1. A sample contract defining a COIN type and a dumb DEED type.\n    // 2. TEST everything.\n\n    // Permissions management start here.\n\n    /**\n     * Restricts an action to senders that are considered to have\n     * certain permission in the metaverse.\n     */\n    modifier onlyAllowed(bytes32 _permission) {\n        require(\n            isAllowed(_permission, _msgSender()),\n            \"Metaverse: caller is not metaverse owner, and does not have the required permission\"\n        );\n        _;\n    }\n\n    /**\n     * Tells whether a user has a specific permission on the metaverse, or\n     * is its owner.\n     */\n    function isAllowed(bytes32 _permission, address _sender) public view returns (bool) {\n        return _sender == owner() || permissions[_permission][_sender];\n    }\n\n    /**\n     * This event is triggered when a permission is set or revoked\n     * for a given user in the whole metaverse.\n     */\n    event PermissionChanged(bytes32 indexed permission, address indexed user, bool set, address sender);\n\n    /**\n     * Grants a permission to a user. This action is reserved to owners,\n     * approved operators, or allowed superusers. However, superuser cannot\n     * set, in particular, the SUPERUSER permission itself.\n     */\n    function setPermission(bytes32 _permission, address _user, bool _allowed) public onlyAllowed(SUPERUSER) {\n        address sender = _msgSender();\n        require(_user != address(0), \"Metaverse: cannot grant a permission to address 0\");\n        require(\n            sender == owner() || _permission != SUPERUSER,\n            \"Metaverse: SUPERUSER permission cannot be added by this user\"\n        );\n        permissions[_permission][_user] = _allowed;\n        emit PermissionChanged(_permission, _user, _allowed, sender);\n    }\n}\n",
  "sourcePath": "/home/luismasuelli/Projects/OuterMaze/lingr-contracts/contracts/lingr/Metaverse.sol",
  "compiler": {
    "name": "solc",
    "version": "0.8.10+commit.fc410830.Emscripten.clang"
  },
  "schemaVersion": "3.4.3",
  "updatedAt": "2022-08-13T14:39:14.864Z",
  "devdoc": {
    "kind": "dev",
    "methods": {
      "owner()": {
        "details": "Returns the address of the current owner."
      },
      "renounceOwnership()": {
        "details": "Leaves the contract without owner. It will not be possible to call `onlyOwner` functions anymore. Can only be called by the current owner. NOTE: Renouncing ownership will leave the contract without an owner, thereby removing any functionality that is only available to the owner."
      },
      "transferOwnership(address)": {
        "details": "Transfers ownership of the contract to a new account (`newOwner`). Can only be called by the current owner."
      }
    },
    "version": 1
  },
  "userdoc": {
    "events": {
      "PermissionChanged(bytes32,address,bool,address)": {
        "notice": "This event is triggered when a permission is set or revoked for a given user in the whole metaverse."
      }
    },
    "kind": "user",
    "methods": {
      "addPlugin(address)": {
        "notice": "Adds a plug-in contract to this metaverse."
      },
      "brandRegistry()": {
        "notice": "The linked brand registry for this metaverse."
      },
      "burnFT(uint256,uint256)": {
        "notice": "Burns any FT the sender has, provided the sender is a plugin and also defines the type of the token being burned."
      },
      "burnFTs(uint256[],uint256[])": {
        "notice": "Burns many FT the sender has, provided the sender is a plugin and also defines the type of the token being burned."
      },
      "burnNFT(uint256)": {
        "notice": "Burns any NFT the sender has, provided the sender is a plugin and also defines the type of the tokens being burned."
      },
      "burnNFTs(uint256[])": {
        "notice": "Burns many NFT the sender has, provided the sender is a plugin and also defines the type of the tokens being burned."
      },
      "defineNextFTType(address)": {
        "notice": "Defines the resolution of a fungible token type. The token id must be in the range of the fungible token ids."
      },
      "defineNextNFTType()": {
        "notice": "Defines the resolution of a non-fungible token type. The token id must be in the range of the fungible token (type) ids (strictly > 0, strictly < (1 << 255))."
      },
      "economy()": {
        "notice": "The linked economy for this metaverse."
      },
      "isAllowed(bytes32,address)": {
        "notice": "Tells whether a user has a specific permission on the metaverse, or is its owner."
      },
      "mintBrandFor(address,address)": {
        "notice": "Mints a specific brand token for a given user. The brand is stated as its address."
      },
      "mintFTFor(address,uint256,uint256,bytes)": {
        "notice": "Mints a specific fungible token type, in a certain amount."
      },
      "mintNFTFor(address,uint256,bytes)": {
        "notice": "Mints a specific non-fungible token type, using a specific type (and always using an amount of 1). It is an error if the chosen type is unknown or < 2, since those types are reserved for being invalid or brands. Also, it is an error if the chosen type is not for that plug-in."
      },
      "nftTypes(uint256)": {
        "notice": "Now, each NFT id will be registered here along its token type. The difference with the fungible tokens (they're already registered in the `tokenTypes` mapping) is that they need to be registered with a particular token type. Also, both the NFT id and its associated token type will be lower than (1<<255) since, otherwise, they would be using values corresponding to the FT side (both for IDs and type indices). Brand NFTs are not included in this mapping (they are only characterized by being < (1 << 160))."
      },
      "onBrandOwnerChanged(address,address)": {
        "notice": "Hook to be invoked as part of a transfer from ERC1155."
      },
      "plugins(address)": {
        "notice": "This is the list of plug-ins that are being added to the hub. Each contract has its separate logic but they have access to the same set of features. Once a contract is added, it will never be removed from this list. This mapping tells whether a contract in particular has permission(s) to define a type and mint tokens for an address."
      },
      "pluginsCount()": {
        "notice": "This is the count of registered plug-ins."
      },
      "pluginsList(uint256)": {
        "notice": "This is the enumerable list of plug-ins added to this hub."
      },
      "setBrandRegistry(address)": {
        "notice": "Adds a plug-in contract to this metaverse."
      },
      "setEconomy(address)": {
        "notice": "Set the economy contract to this metaverse."
      },
      "setPermission(bytes32,address,bool)": {
        "notice": "Grants a permission to a user. This action is reserved to owners, approved operators, or allowed superusers. However, superuser cannot set, in particular, the SUPERUSER permission itself."
      },
      "supportsInterface(bytes4)": {
        "notice": "A metaverse satisfies the IMetaverse and IERC165 interfaces."
      },
      "tokenTypeResolvers(uint256)": {
        "notice": "Types are identified as integer values, and each registered type will have a non-zero responsible address (serving to metadata resolution and also to account for the existence of a given type). The type 1 (0x1) will be the first type, and actually it will be the brand type. Other NFT types will be registered using indices lower to (1<<255), while FT types will be registered using indices greater than or equal to that value (i.e. starting with binary {1}). In the case of the FTs, the index in this mapping is also their token id. This is not the same for NFTs (they have one extra level of indirection since multiple ids might share the same type). A special type id will be regarded as invalid type (i.e. it will not count as NFT nor FT type, but as a non-existent type): 0 (0x0). The responsible serves two purposes: The first one, is to resolve the metadata of a given token id (be it FT or NFT). The second one is to account for one of such tokens being burned. The responsible will actually be one of the registered plug-ins, on each case (save for the brands case, which is resolved by this contract, and the invalid case, which has no resolver)."
      },
      "tokenURI(uint256)": {
        "notice": "Retrieves the metadata uri of a given token. WARNING: This method will consume a lot of gas if invoked inside a transaction, so it is recommended to invoke this method in the context of a CALL, and never in the context of a SEND (even as part of other contract's code)."
      }
    },
    "notice": "A metaverse hub can receive \"plugs\" (extensions) in the form of different contracts (implementing IMetaversePlugin). This plug mechanism allows extending the metaverse with new asset types and new asset instances (each plug-in is managed by the team, not publicly added by external users). Each of those contracts will make use of their own logic while interacting with the metaverse, which involves having full access to the whole metaverse assets (e.g. taking assets from the users or granting assets to the users).",
    "version": 1
  }
}