{
  "contractName": "SampleERC1155WithBrandRegistry",
  "abi": [
    {
      "inputs": [],
      "stateMutability": "nonpayable",
      "type": "constructor"
    },
    {
      "anonymous": false,
      "inputs": [
        {
          "indexed": true,
          "internalType": "address",
          "name": "account",
          "type": "address"
        },
        {
          "indexed": true,
          "internalType": "address",
          "name": "operator",
          "type": "address"
        },
        {
          "indexed": false,
          "internalType": "bool",
          "name": "approved",
          "type": "bool"
        }
      ],
      "name": "ApprovalForAll",
      "type": "event"
    },
    {
      "anonymous": false,
      "inputs": [
        {
          "indexed": true,
          "internalType": "address",
          "name": "withdrawnBy",
          "type": "address"
        },
        {
          "indexed": false,
          "internalType": "uint256",
          "name": "amount",
          "type": "uint256"
        }
      ],
      "name": "BrandEarningsWithdrawn",
      "type": "event"
    },
    {
      "anonymous": false,
      "inputs": [
        {
          "indexed": true,
          "internalType": "address",
          "name": "registeredBy",
          "type": "address"
        },
        {
          "indexed": true,
          "internalType": "address",
          "name": "brandId",
          "type": "address"
        },
        {
          "indexed": false,
          "internalType": "string",
          "name": "name",
          "type": "string"
        },
        {
          "indexed": false,
          "internalType": "string",
          "name": "description",
          "type": "string"
        },
        {
          "indexed": false,
          "internalType": "uint256",
          "name": "price",
          "type": "uint256"
        }
      ],
      "name": "BrandRegistered",
      "type": "event"
    },
    {
      "anonymous": false,
      "inputs": [
        {
          "indexed": false,
          "internalType": "uint256",
          "name": "newCost",
          "type": "uint256"
        }
      ],
      "name": "BrandRegistrationCostUpdated",
      "type": "event"
    },
    {
      "anonymous": false,
      "inputs": [
        {
          "indexed": true,
          "internalType": "address",
          "name": "updatedBy",
          "type": "address"
        },
        {
          "indexed": true,
          "internalType": "address",
          "name": "brand",
          "type": "address"
        },
        {
          "indexed": false,
          "internalType": "bool",
          "name": "committed",
          "type": "bool"
        }
      ],
      "name": "BrandSocialCommitmentUpdated",
      "type": "event"
    },
    {
      "anonymous": false,
      "inputs": [
        {
          "indexed": true,
          "internalType": "address",
          "name": "updatedBy",
          "type": "address"
        },
        {
          "indexed": true,
          "internalType": "address",
          "name": "brandId",
          "type": "address"
        }
      ],
      "name": "BrandUpdated",
      "type": "event"
    },
    {
      "anonymous": false,
      "inputs": [
        {
          "indexed": true,
          "internalType": "address",
          "name": "operator",
          "type": "address"
        },
        {
          "indexed": true,
          "internalType": "address",
          "name": "from",
          "type": "address"
        },
        {
          "indexed": true,
          "internalType": "address",
          "name": "to",
          "type": "address"
        },
        {
          "indexed": false,
          "internalType": "uint256[]",
          "name": "ids",
          "type": "uint256[]"
        },
        {
          "indexed": false,
          "internalType": "uint256[]",
          "name": "values",
          "type": "uint256[]"
        }
      ],
      "name": "TransferBatch",
      "type": "event"
    },
    {
      "anonymous": false,
      "inputs": [
        {
          "indexed": true,
          "internalType": "address",
          "name": "operator",
          "type": "address"
        },
        {
          "indexed": true,
          "internalType": "address",
          "name": "from",
          "type": "address"
        },
        {
          "indexed": true,
          "internalType": "address",
          "name": "to",
          "type": "address"
        },
        {
          "indexed": false,
          "internalType": "uint256",
          "name": "id",
          "type": "uint256"
        },
        {
          "indexed": false,
          "internalType": "uint256",
          "name": "value",
          "type": "uint256"
        }
      ],
      "name": "TransferSingle",
      "type": "event"
    },
    {
      "anonymous": false,
      "inputs": [
        {
          "indexed": false,
          "internalType": "string",
          "name": "value",
          "type": "string"
        },
        {
          "indexed": true,
          "internalType": "uint256",
          "name": "id",
          "type": "uint256"
        }
      ],
      "name": "URI",
      "type": "event"
    },
    {
      "inputs": [
        {
          "internalType": "address",
          "name": "account",
          "type": "address"
        },
        {
          "internalType": "uint256",
          "name": "id",
          "type": "uint256"
        }
      ],
      "name": "balanceOf",
      "outputs": [
        {
          "internalType": "uint256",
          "name": "",
          "type": "uint256"
        }
      ],
      "stateMutability": "view",
      "type": "function"
    },
    {
      "inputs": [
        {
          "internalType": "address[]",
          "name": "accounts",
          "type": "address[]"
        },
        {
          "internalType": "uint256[]",
          "name": "ids",
          "type": "uint256[]"
        }
      ],
      "name": "balanceOfBatch",
      "outputs": [
        {
          "internalType": "uint256[]",
          "name": "",
          "type": "uint256[]"
        }
      ],
      "stateMutability": "view",
      "type": "function"
    },
    {
      "inputs": [
        {
          "internalType": "address",
          "name": "_brandId",
          "type": "address"
        }
      ],
      "name": "brandExists",
      "outputs": [
        {
          "internalType": "bool",
          "name": "",
          "type": "bool"
        }
      ],
      "stateMutability": "view",
      "type": "function"
    },
    {
      "inputs": [
        {
          "internalType": "address",
          "name": "_brandId",
          "type": "address"
        }
      ],
      "name": "brandMetadataURI",
      "outputs": [
        {
          "internalType": "string",
          "name": "",
          "type": "string"
        }
      ],
      "stateMutability": "view",
      "type": "function"
    },
    {
      "inputs": [],
      "name": "brandRegistrationCost",
      "outputs": [
        {
          "internalType": "uint256",
          "name": "",
          "type": "uint256"
        }
      ],
      "stateMutability": "view",
      "type": "function"
    },
    {
      "inputs": [],
      "name": "brandRegistrationCurrentEarnings",
      "outputs": [
        {
          "internalType": "uint256",
          "name": "",
          "type": "uint256"
        }
      ],
      "stateMutability": "view",
      "type": "function"
    },
    {
      "inputs": [
        {
          "internalType": "address",
          "name": "account",
          "type": "address"
        },
        {
          "internalType": "address",
          "name": "operator",
          "type": "address"
        }
      ],
      "name": "isApprovedForAll",
      "outputs": [
        {
          "internalType": "bool",
          "name": "",
          "type": "bool"
        }
      ],
      "stateMutability": "view",
      "type": "function"
    },
    {
      "inputs": [],
      "name": "owner",
      "outputs": [
        {
          "internalType": "address",
          "name": "",
          "type": "address"
        }
      ],
      "stateMutability": "view",
      "type": "function"
    },
    {
      "inputs": [
        {
          "internalType": "string",
          "name": "_name",
          "type": "string"
        },
        {
          "internalType": "string",
          "name": "_description",
          "type": "string"
        },
        {
          "internalType": "string",
          "name": "_image",
          "type": "string"
        },
        {
          "internalType": "string",
          "name": "_icon16x16",
          "type": "string"
        },
        {
          "internalType": "string",
          "name": "_icon32x32",
          "type": "string"
        },
        {
          "internalType": "string",
          "name": "_icon64x64",
          "type": "string"
        }
      ],
      "name": "registerBrand",
      "outputs": [],
      "stateMutability": "payable",
      "type": "function"
    },
    {
      "inputs": [
        {
          "internalType": "address",
          "name": "from",
          "type": "address"
        },
        {
          "internalType": "address",
          "name": "to",
          "type": "address"
        },
        {
          "internalType": "uint256[]",
          "name": "ids",
          "type": "uint256[]"
        },
        {
          "internalType": "uint256[]",
          "name": "amounts",
          "type": "uint256[]"
        },
        {
          "internalType": "bytes",
          "name": "data",
          "type": "bytes"
        }
      ],
      "name": "safeBatchTransferFrom",
      "outputs": [],
      "stateMutability": "nonpayable",
      "type": "function"
    },
    {
      "inputs": [
        {
          "internalType": "address",
          "name": "from",
          "type": "address"
        },
        {
          "internalType": "address",
          "name": "to",
          "type": "address"
        },
        {
          "internalType": "uint256",
          "name": "id",
          "type": "uint256"
        },
        {
          "internalType": "uint256",
          "name": "amount",
          "type": "uint256"
        },
        {
          "internalType": "bytes",
          "name": "data",
          "type": "bytes"
        }
      ],
      "name": "safeTransferFrom",
      "outputs": [],
      "stateMutability": "nonpayable",
      "type": "function"
    },
    {
      "inputs": [
        {
          "internalType": "address",
          "name": "operator",
          "type": "address"
        },
        {
          "internalType": "bool",
          "name": "approved",
          "type": "bool"
        }
      ],
      "name": "setApprovalForAll",
      "outputs": [],
      "stateMutability": "nonpayable",
      "type": "function"
    },
    {
      "inputs": [
        {
          "internalType": "uint256",
          "name": "_newCost",
          "type": "uint256"
        }
      ],
      "name": "setBrandRegistrationCost",
      "outputs": [],
      "stateMutability": "nonpayable",
      "type": "function"
    },
    {
      "inputs": [
        {
          "internalType": "bytes4",
          "name": "interfaceId",
          "type": "bytes4"
        }
      ],
      "name": "supportsInterface",
      "outputs": [
        {
          "internalType": "bool",
          "name": "",
          "type": "bool"
        }
      ],
      "stateMutability": "view",
      "type": "function"
    },
    {
      "inputs": [
        {
          "internalType": "address",
          "name": "_brandId",
          "type": "address"
        },
        {
          "internalType": "string",
          "name": "_challengeUrl",
          "type": "string"
        }
      ],
      "name": "updateBrandChallengeUrl",
      "outputs": [],
      "stateMutability": "nonpayable",
      "type": "function"
    },
    {
      "inputs": [
        {
          "internalType": "address",
          "name": "_brandId",
          "type": "address"
        },
        {
          "internalType": "string",
          "name": "_icon",
          "type": "string"
        }
      ],
      "name": "updateBrandIcon16x16Url",
      "outputs": [],
      "stateMutability": "nonpayable",
      "type": "function"
    },
    {
      "inputs": [
        {
          "internalType": "address",
          "name": "_brandId",
          "type": "address"
        },
        {
          "internalType": "string",
          "name": "_icon",
          "type": "string"
        }
      ],
      "name": "updateBrandIcon32x32Url",
      "outputs": [],
      "stateMutability": "nonpayable",
      "type": "function"
    },
    {
      "inputs": [
        {
          "internalType": "address",
          "name": "_brandId",
          "type": "address"
        },
        {
          "internalType": "string",
          "name": "_icon",
          "type": "string"
        }
      ],
      "name": "updateBrandIcon64x64Url",
      "outputs": [],
      "stateMutability": "nonpayable",
      "type": "function"
    },
    {
      "inputs": [
        {
          "internalType": "address",
          "name": "_brandId",
          "type": "address"
        },
        {
          "internalType": "string",
          "name": "_image",
          "type": "string"
        }
      ],
      "name": "updateBrandImage",
      "outputs": [],
      "stateMutability": "nonpayable",
      "type": "function"
    },
    {
      "inputs": [
        {
          "internalType": "address",
          "name": "_brandId",
          "type": "address"
        },
        {
          "internalType": "bool",
          "name": "_committed",
          "type": "bool"
        }
      ],
      "name": "updateBrandSocialCommitment",
      "outputs": [],
      "stateMutability": "nonpayable",
      "type": "function"
    },
    {
      "inputs": [
        {
          "internalType": "uint256",
          "name": "",
          "type": "uint256"
        }
      ],
      "name": "uri",
      "outputs": [
        {
          "internalType": "string",
          "name": "",
          "type": "string"
        }
      ],
      "stateMutability": "view",
      "type": "function"
    },
    {
      "inputs": [
        {
          "internalType": "uint256",
          "name": "amount",
          "type": "uint256"
        }
      ],
      "name": "withdrawBrandRegistrationEarnings",
      "outputs": [],
      "stateMutability": "nonpayable",
      "type": "function"
    }
  ],
  "bytecode": "0x60806040523480156200001157600080fd5b506040518060400160405280600b81526020017f61626f75743a626c616e6b0000000000000000000000000000000000000000008152506200005981620000a160201b60201c565b5033600760006101000a81548173ffffffffffffffffffffffffffffffffffffffff021916908373ffffffffffffffffffffffffffffffffffffffff160217905550620001d2565b8060029080519060200190620000b9929190620000bd565b5050565b828054620000cb906200019c565b90600052602060002090601f016020900481019282620000ef57600085556200013b565b82601f106200010a57805160ff19168380011785556200013b565b828001600101855582156200013b579182015b828111156200013a5782518255916020019190600101906200011d565b5b5090506200014a91906200014e565b5090565b5b80821115620001695760008160009055506001016200014f565b5090565b7f4e487b7100000000000000000000000000000000000000000000000000000000600052602260045260246000fd5b60006002820490506001821680620001b557607f821691505b60208210811415620001cc57620001cb6200016d565b5b50919050565b61589980620001e26000396000f3fe6080604052600436106101345760003560e01c806352ea8a36116100ab5780639896c31d1161006f5780639896c31d1461042657806399de09ff14610463578063a22cb4651461048c578063e985e9c5146104b5578063f242432a146104f2578063feb532fd1461051b57610134565b806352ea8a361461035057806370e979fb1461037957806378df8fb7146103955780637d5555df146103be5780638da5cb5b146103fb57610134565b80632eb2c2d6116100fd5780632eb2c2d6146102445780633c1213fb1461026d5780633e49d9251461029657806343779197146102c15780634e1273f4146102ea57806351a8de601461032757610134565b8062fdd58e1461013957806301ffc9a7146101765780630e89341c146101b35780630f73da86146101f057806320c6940b1461021b575b600080fd5b34801561014557600080fd5b50610160600480360381019061015b919061349c565b610544565b60405161016d91906134eb565b60405180910390f35b34801561018257600080fd5b5061019d6004803603810190610198919061355e565b61060d565b6040516101aa91906135a6565b60405180910390f35b3480156101bf57600080fd5b506101da60048036038101906101d591906135c1565b6106ef565b6040516101e79190613687565b60405180910390f35b3480156101fc57600080fd5b50610205610783565b60405161021291906134eb565b60405180910390f35b34801561022757600080fd5b50610242600480360381019061023d91906137de565b610789565b005b34801561025057600080fd5b5061026b600480360381019061026691906139a3565b610974565b005b34801561027957600080fd5b50610294600480360381019061028f91906137de565b610a15565b005b3480156102a257600080fd5b506102ab610c00565b6040516102b891906134eb565b60405180910390f35b3480156102cd57600080fd5b506102e860048036038101906102e391906135c1565b610c06565b005b3480156102f657600080fd5b50610311600480360381019061030c9190613b35565b610ce0565b60405161031e9190613c6b565b60405180910390f35b34801561033357600080fd5b5061034e600480360381019061034991906137de565b610df9565b005b34801561035c57600080fd5b50610377600480360381019061037291906137de565b611029565b005b610393600480360381019061038e9190613c8d565b611214565b005b3480156103a157600080fd5b506103bc60048036038101906103b791906137de565b6112c9565b005b3480156103ca57600080fd5b506103e560048036038101906103e09190613dc2565b6114b4565b6040516103f291906135a6565b60405180910390f35b34801561040757600080fd5b5061041061154f565b60405161041d9190613dfe565b60405180910390f35b34801561043257600080fd5b5061044d60048036038101906104489190613dc2565b611575565b60405161045a9190613687565b60405180910390f35b34801561046f57600080fd5b5061048a600480360381019061048591906135c1565b611725565b005b34801561049857600080fd5b506104b360048036038101906104ae9190613e45565b611865565b005b3480156104c157600080fd5b506104dc60048036038101906104d79190613e85565b61187b565b6040516104e991906135a6565b60405180910390f35b3480156104fe57600080fd5b5061051960048036038101906105149190613ec5565b61190f565b005b34801561052757600080fd5b50610542600480360381019061053d9190613e45565b6119b0565b005b60008073ffffffffffffffffffffffffffffffffffffffff168373ffffffffffffffffffffffffffffffffffffffff1614156105b5576040517f08c379a00000000000000000000000000000000000000000000000000000000081526004016105ac90613fce565b60405180910390fd5b60008083815260200190815260200160002060008473ffffffffffffffffffffffffffffffffffffffff1673ffffffffffffffffffffffffffffffffffffffff16815260200190815260200160002054905092915050565b60007fd9b67a26000000000000000000000000000000000000000000000000000000007bffffffffffffffffffffffffffffffffffffffffffffffffffffffff1916827bffffffffffffffffffffffffffffffffffffffffffffffffffffffff191614806106d857507f0e89341c000000000000000000000000000000000000000000000000000000007bffffffffffffffffffffffffffffffffffffffffffffffffffffffff1916827bffffffffffffffffffffffffffffffffffffffffffffffffffffffff1916145b806106e857506106e782611ba0565b5b9050919050565b6060600280546106fe9061401d565b80601f016020809104026020016040519081016040528092919081815260200182805461072a9061401d565b80156107775780601f1061074c57610100808354040283529160200191610777565b820191906000526020600020905b81548152906001019060200180831161075a57829003601f168201915b50505050509050919050565b60065481565b816000600460008373ffffffffffffffffffffffffffffffffffffffff1673ffffffffffffffffffffffffffffffffffffffff16815260200190815260200160002060000160009054906101000a900473ffffffffffffffffffffffffffffffffffffffff16905060006107fb611c0a565b9050600073ffffffffffffffffffffffffffffffffffffffff168273ffffffffffffffffffffffffffffffffffffffff161415801561087657508173ffffffffffffffffffffffffffffffffffffffff168173ffffffffffffffffffffffffffffffffffffffff16148061087557506108748282611c12565b5b5b6108b5576040517f08c379a00000000000000000000000000000000000000000000000000000000081526004016108ac906140c1565b60405180910390fd5b83600460008773ffffffffffffffffffffffffffffffffffffffff1673ffffffffffffffffffffffffffffffffffffffff168152602001908152602001600020600501908051906020019061090b929190613351565b508473ffffffffffffffffffffffffffffffffffffffff1661092b611c0a565b73ffffffffffffffffffffffffffffffffffffffff167f7fd1c43abb0471595dcd4d461fdb320d926cbf2b8ba6fa87a78f1b1b0bf3e59260405160405180910390a35050505050565b61097c611c0a565b73ffffffffffffffffffffffffffffffffffffffff168573ffffffffffffffffffffffffffffffffffffffff1614806109c257506109c1856109bc611c0a565b61187b565b5b610a01576040517f08c379a00000000000000000000000000000000000000000000000000000000081526004016109f890614153565b60405180910390fd5b610a0e8585858585611c26565b5050505050565b816000600460008373ffffffffffffffffffffffffffffffffffffffff1673ffffffffffffffffffffffffffffffffffffffff16815260200190815260200160002060000160009054906101000a900473ffffffffffffffffffffffffffffffffffffffff1690506000610a87611c0a565b9050600073ffffffffffffffffffffffffffffffffffffffff168273ffffffffffffffffffffffffffffffffffffffff1614158015610b0257508173ffffffffffffffffffffffffffffffffffffffff168173ffffffffffffffffffffffffffffffffffffffff161480610b015750610b008282611c12565b5b5b610b41576040517f08c379a0000000000000000000000000000000000000000000000000000000008152600401610b38906140c1565b60405180910390fd5b83600460008773ffffffffffffffffffffffffffffffffffffffff1673ffffffffffffffffffffffffffffffffffffffff1681526020019081526020016000206007019080519060200190610b97929190613351565b508473ffffffffffffffffffffffffffffffffffffffff16610bb7611c0a565b73ffffffffffffffffffffffffffffffffffffffff167f7fd1c43abb0471595dcd4d461fdb320d926cbf2b8ba6fa87a78f1b1b0bf3e59260405160405180910390a35050505050565b60035481565b610c16610c11611c0a565b611cdd565b610c55576040517f08c379a0000000000000000000000000000000000000000000000000000000008152600401610c4c906141e5565b60405180910390fd5b662386f26fc10000811015610c9f576040517f08c379a0000000000000000000000000000000000000000000000000000000008152600401610c969061429d565b60405180910390fd5b806003819055507fc652b105063222eb8399f76ca13b5913144c1d8af3a94bc240248ecbc36ac80b81604051610cd591906134eb565b60405180910390a150565b60608151835114610d26576040517f08c379a0000000000000000000000000000000000000000000000000000000008152600401610d1d9061432f565b60405180910390fd5b6000835167ffffffffffffffff811115610d4357610d426136b3565b5b604051908082528060200260200182016040528015610d715781602001602082028036833780820191505090505b50905060005b8451811015610dee57610dbe858281518110610d9657610d9561434f565b5b6020026020010151858381518110610db157610db061434f565b5b6020026020010151610544565b828281518110610dd157610dd061434f565b5b60200260200101818152505080610de7906143ad565b9050610d77565b508091505092915050565b816000600460008373ffffffffffffffffffffffffffffffffffffffff1673ffffffffffffffffffffffffffffffffffffffff16815260200190815260200160002060000160009054906101000a900473ffffffffffffffffffffffffffffffffffffffff1690506000610e6b611c0a565b9050600073ffffffffffffffffffffffffffffffffffffffff168273ffffffffffffffffffffffffffffffffffffffff1614158015610ee657508173ffffffffffffffffffffffffffffffffffffffff168173ffffffffffffffffffffffffffffffffffffffff161480610ee55750610ee48282611c12565b5b5b610f25576040517f08c379a0000000000000000000000000000000000000000000000000000000008152600401610f1c906140c1565b60405180910390fd5b600084511415610f6a576040517f08c379a0000000000000000000000000000000000000000000000000000000008152600401610f6190614468565b60405180910390fd5b83600460008773ffffffffffffffffffffffffffffffffffffffff1673ffffffffffffffffffffffffffffffffffffffff1681526020019081526020016000206004019080519060200190610fc0929190613351565b508473ffffffffffffffffffffffffffffffffffffffff16610fe0611c0a565b73ffffffffffffffffffffffffffffffffffffffff167f7fd1c43abb0471595dcd4d461fdb320d926cbf2b8ba6fa87a78f1b1b0bf3e59260405160405180910390a35050505050565b816000600460008373ffffffffffffffffffffffffffffffffffffffff1673ffffffffffffffffffffffffffffffffffffffff16815260200190815260200160002060000160009054906101000a900473ffffffffffffffffffffffffffffffffffffffff169050600061109b611c0a565b9050600073ffffffffffffffffffffffffffffffffffffffff168273ffffffffffffffffffffffffffffffffffffffff161415801561111657508173ffffffffffffffffffffffffffffffffffffffff168173ffffffffffffffffffffffffffffffffffffffff16148061111557506111148282611c12565b5b5b611155576040517f08c379a000000000000000000000000000000000000000000000000000000000815260040161114c906140c1565b60405180910390fd5b83600460008773ffffffffffffffffffffffffffffffffffffffff1673ffffffffffffffffffffffffffffffffffffffff16815260200190815260200160002060060190805190602001906111ab929190613351565b508473ffffffffffffffffffffffffffffffffffffffff166111cb611c0a565b73ffffffffffffffffffffffffffffffffffffffff167f7fd1c43abb0471595dcd4d461fdb320d926cbf2b8ba6fa87a78f1b1b0bf3e59260405160405180910390a35050505050565b6040518060600160405280602181526020016158436021913960035460003490508181148361124284611d37565b61124b84611d37565b60405160200161125d939291906145a8565b604051602081830303815290604052906112ad576040517f08c379a00000000000000000000000000000000000000000000000000000000081526004016112a49190613687565b60405180910390fd5b506112be8989898989896000611e98565b505050505050505050565b816000600460008373ffffffffffffffffffffffffffffffffffffffff1673ffffffffffffffffffffffffffffffffffffffff16815260200190815260200160002060000160009054906101000a900473ffffffffffffffffffffffffffffffffffffffff169050600061133b611c0a565b9050600073ffffffffffffffffffffffffffffffffffffffff168273ffffffffffffffffffffffffffffffffffffffff16141580156113b657508173ffffffffffffffffffffffffffffffffffffffff168173ffffffffffffffffffffffffffffffffffffffff1614806113b557506113b48282611c12565b5b5b6113f5576040517f08c379a00000000000000000000000000000000000000000000000000000000081526004016113ec906140c1565b60405180910390fd5b83600460008773ffffffffffffffffffffffffffffffffffffffff1673ffffffffffffffffffffffffffffffffffffffff168152602001908152602001600020600301908051906020019061144b929190613351565b508473ffffffffffffffffffffffffffffffffffffffff1661146b611c0a565b73ffffffffffffffffffffffffffffffffffffffff167f7fd1c43abb0471595dcd4d461fdb320d926cbf2b8ba6fa87a78f1b1b0bf3e59260405160405180910390a35050505050565b60008073ffffffffffffffffffffffffffffffffffffffff16600460008473ffffffffffffffffffffffffffffffffffffffff1673ffffffffffffffffffffffffffffffffffffffff16815260200190815260200160002060000160009054906101000a900473ffffffffffffffffffffffffffffffffffffffff1673ffffffffffffffffffffffffffffffffffffffff1614159050919050565b600760009054906101000a900473ffffffffffffffffffffffffffffffffffffffff1681565b60606000600460008473ffffffffffffffffffffffffffffffffffffffff1673ffffffffffffffffffffffffffffffffffffffff1681526020019081526020016000209050600073ffffffffffffffffffffffffffffffffffffffff168160000160009054906101000a900473ffffffffffffffffffffffffffffffffffffffff1673ffffffffffffffffffffffffffffffffffffffff16141561162b5760405180602001604052806000815250915050611720565b6116fd816001018260020183600401846003018560050186600601876007018860080160009054906101000a900460ff1661169b576040518060400160405280600581526020017f66616c73650000000000000000000000000000000000000000000000000000008152506116d2565b6040518060400160405280600481526020017f74727565000000000000000000000000000000000000000000000000000000008152505b6040516020016116e998979695949392919061493a565b604051602081830303815290604052612269565b60405160200161170d9190614a5b565b6040516020818303038152906040529150505b919050565b600061172f611c0a565b905061173a816123cd565b611779576040517f08c379a000000000000000000000000000000000000000000000000000000000815260040161177090614aef565b60405180910390fd5b600082116117bc576040517f08c379a00000000000000000000000000000000000000000000000000000000081526004016117b390614b81565b60405180910390fd5b816006541015611801576040517f08c379a00000000000000000000000000000000000000000000000000000000081526004016117f890614c13565b60405180910390fd5b81600660008282546118139190614c33565b925050819055508073ffffffffffffffffffffffffffffffffffffffff166108fc839081150290604051600060405180830381858888f19350505050158015611860573d6000803e3d6000fd5b505050565b611877611870611c0a565b8383612427565b5050565b6000600160008473ffffffffffffffffffffffffffffffffffffffff1673ffffffffffffffffffffffffffffffffffffffff16815260200190815260200160002060008373ffffffffffffffffffffffffffffffffffffffff1673ffffffffffffffffffffffffffffffffffffffff16815260200190815260200160002060009054906101000a900460ff16905092915050565b611917611c0a565b73ffffffffffffffffffffffffffffffffffffffff168573ffffffffffffffffffffffffffffffffffffffff16148061195d575061195c85611957611c0a565b61187b565b5b61199c576040517f08c379a000000000000000000000000000000000000000000000000000000000815260040161199390614153565b60405180910390fd5b6119a98585858585612594565b5050505050565b6000600460008473ffffffffffffffffffffffffffffffffffffffff1673ffffffffffffffffffffffffffffffffffffffff16815260200190815260200160002060000160009054906101000a900473ffffffffffffffffffffffffffffffffffffffff169050600073ffffffffffffffffffffffffffffffffffffffff168173ffffffffffffffffffffffffffffffffffffffff161415611a87576040517f08c379a0000000000000000000000000000000000000000000000000000000008152600401611a7e90614cd9565b60405180910390fd5b6000611a91611c0a565b9050611a9c816125d0565b611adb576040517f08c379a0000000000000000000000000000000000000000000000000000000008152600401611ad290614d6b565b60405180910390fd5b82600460008673ffffffffffffffffffffffffffffffffffffffff1673ffffffffffffffffffffffffffffffffffffffff16815260200190815260200160002060080160006101000a81548160ff0219169083151502179055508373ffffffffffffffffffffffffffffffffffffffff168173ffffffffffffffffffffffffffffffffffffffff167f1a9425b12b0cb193f4db2ac1b9bc0712393521978231a7fcf5f0262b847cd54985604051611b9291906135a6565b60405180910390a350505050565b60007f01ffc9a7000000000000000000000000000000000000000000000000000000007bffffffffffffffffffffffffffffffffffffffffffffffffffffffff1916827bffffffffffffffffffffffffffffffffffffffffffffffffffffffff1916149050919050565b600033905090565b6000611c1e838361187b565b905092915050565b611c33858585858561262a565b60005b8251811015611cd55774010000000000000000000000000000000000000000848281518110611c6857611c6761434f565b5b6020026020010151108015611c9857506000838281518110611c8d57611c8c61434f565b5b602002602001015114155b15611cc257611cc1848281518110611cb357611cb261434f565b5b60200260200101518661294c565b5b8080611ccd906143ad565b915050611c36565b505050505050565b60008173ffffffffffffffffffffffffffffffffffffffff16600760009054906101000a900473ffffffffffffffffffffffffffffffffffffffff1673ffffffffffffffffffffffffffffffffffffffff16149050919050565b60606000821415611d7f576040518060400160405280600181526020017f30000000000000000000000000000000000000000000000000000000000000008152509050611e93565b600082905060005b60008214611db1578080611d9a906143ad565b915050600a82611daa9190614dba565b9150611d87565b60008167ffffffffffffffff811115611dcd57611dcc6136b3565b5b6040519080825280601f01601f191660200182016040528015611dff5781602001600182028036833780820191505090505b5090505b60008514611e8c57600182611e189190614c33565b9150600a85611e279190614deb565b6030611e339190614e1c565b60f81b818381518110611e4957611e4861434f565b5b60200101907effffffffffffffffffffffffffffffffffffffffffffffffffffffffffffff1916908160001a905350600a85611e859190614dba565b9450611e03565b8093505050505b919050565b6000611ea2611c0a565b9050600088511415611ee9576040517f08c379a0000000000000000000000000000000000000000000000000000000008152600401611ee090614ee4565b60405180910390fd5b600087511415611f2e576040517f08c379a0000000000000000000000000000000000000000000000000000000008152600401611f2590614f76565b60405180910390fd5b600086511415611f73576040517f08c379a0000000000000000000000000000000000000000000000000000000008152600401611f6a90614468565b60405180910390fd5b3460066000828254611f859190614e1c565b92505081905550600160056000828254611f9f9190614e1c565b92505081905550600060d660f81b609460f81b308460055460001b604051602001611fce959493929190615056565b6040516020818303038152906040528051906020012060001c90506040518061012001604052808373ffffffffffffffffffffffffffffffffffffffff1681526020018a81526020018981526020016040518060400160405280600b81526020017f61626f75743a626c616e6b0000000000000000000000000000000000000000008152508152602001888152602001878152602001868152602001858152602001841515815250600460008373ffffffffffffffffffffffffffffffffffffffff1673ffffffffffffffffffffffffffffffffffffffff16815260200190815260200160002060008201518160000160006101000a81548173ffffffffffffffffffffffffffffffffffffffff021916908373ffffffffffffffffffffffffffffffffffffffff1602179055506020820151816001019080519060200190612118929190613351565b506040820151816002019080519060200190612135929190613351565b506060820151816003019080519060200190612152929190613351565b50608082015181600401908051906020019061216f929190613351565b5060a082015181600501908051906020019061218c929190613351565b5060c08201518160060190805190602001906121a9929190613351565b5060e08201518160070190805190602001906121c6929190613351565b506101008201518160080160006101000a81548160ff0219169083151502179055509050506121f58282612a68565b8073ffffffffffffffffffffffffffffffffffffffff168273ffffffffffffffffffffffffffffffffffffffff167fbaa80c9cbed3f9a5fcdc4e9dd7785f9cfc968a81b80b94363bea0e92c938c0d98b8b34604051612256939291906150b5565b60405180910390a3505050505050505050565b606060008251141561228c576040518060200160405280600081525090506123c8565b600060405180606001604052806040815260200161580360409139905060006003600285516122bb9190614e1c565b6122c59190614dba565b60046122d191906150fa565b67ffffffffffffffff8111156122ea576122e96136b3565b5b6040519080825280601f01601f19166020018201604052801561231c5781602001600182028036833780820191505090505b509050600182016020820185865187015b80821015612388576003820191508151603f8160121c168501518453600184019350603f81600c1c168501518453600184019350603f8160061c168501518453600184019350603f811685015184536001840193505061232d565b50506003865106600181146123a457600281146123b7576123bf565b603d6001830353603d60028303536123bf565b603d60018303535b50505080925050505b919050565b60008173ffffffffffffffffffffffffffffffffffffffff16600760009054906101000a900473ffffffffffffffffffffffffffffffffffffffff1673ffffffffffffffffffffffffffffffffffffffff16149050919050565b8173ffffffffffffffffffffffffffffffffffffffff168373ffffffffffffffffffffffffffffffffffffffff161415612496576040517f08c379a000000000000000000000000000000000000000000000000000000000815260040161248d906151c6565b60405180910390fd5b80600160008573ffffffffffffffffffffffffffffffffffffffff1673ffffffffffffffffffffffffffffffffffffffff16815260200190815260200160002060008473ffffffffffffffffffffffffffffffffffffffff1673ffffffffffffffffffffffffffffffffffffffff16815260200190815260200160002060006101000a81548160ff0219169083151502179055508173ffffffffffffffffffffffffffffffffffffffff168373ffffffffffffffffffffffffffffffffffffffff167f17307eab39ab6107e8899845ad3d59bd9653f200f220920489ca2b5937696c318360405161258791906135a6565b60405180910390a3505050565b6125a18585858585612aa7565b740100000000000000000000000000000000000000008310156125c9576125c8838561294c565b5b5050505050565b60008173ffffffffffffffffffffffffffffffffffffffff16600760009054906101000a900473ffffffffffffffffffffffffffffffffffffffff1673ffffffffffffffffffffffffffffffffffffffff16149050919050565b815183511461266e576040517f08c379a000000000000000000000000000000000000000000000000000000000815260040161266590615258565b60405180910390fd5b600073ffffffffffffffffffffffffffffffffffffffff168473ffffffffffffffffffffffffffffffffffffffff1614156126de576040517f08c379a00000000000000000000000000000000000000000000000000000000081526004016126d5906152ea565b60405180910390fd5b60006126e8611c0a565b90506126f8818787878787612d43565b60005b84518110156128a95760008582815181106127195761271861434f565b5b6020026020010151905060008583815181106127385761273761434f565b5b60200260200101519050600080600084815260200190815260200160002060008b73ffffffffffffffffffffffffffffffffffffffff1673ffffffffffffffffffffffffffffffffffffffff168152602001908152602001600020549050818110156127d9576040517f08c379a00000000000000000000000000000000000000000000000000000000081526004016127d09061537c565b60405180910390fd5b81810360008085815260200190815260200160002060008c73ffffffffffffffffffffffffffffffffffffffff1673ffffffffffffffffffffffffffffffffffffffff168152602001908152602001600020819055508160008085815260200190815260200160002060008b73ffffffffffffffffffffffffffffffffffffffff1673ffffffffffffffffffffffffffffffffffffffff168152602001908152602001600020600082825461288e9190614e1c565b92505081905550505050806128a2906143ad565b90506126fb565b508473ffffffffffffffffffffffffffffffffffffffff168673ffffffffffffffffffffffffffffffffffffffff168273ffffffffffffffffffffffffffffffffffffffff167f4a39dc06d4c0dbc64b70af90fd698a233a518aa5d07e595d983b8c0526c8f7fb878760405161292092919061539c565b60405180910390a4612936818787878787612d4b565b612944818787878787612d53565b505050505050565b600073ffffffffffffffffffffffffffffffffffffffff16600460008473ffffffffffffffffffffffffffffffffffffffff1673ffffffffffffffffffffffffffffffffffffffff16815260200190815260200160002060000160009054906101000a900473ffffffffffffffffffffffffffffffffffffffff1673ffffffffffffffffffffffffffffffffffffffff1614612a645780600460008473ffffffffffffffffffffffffffffffffffffffff1673ffffffffffffffffffffffffffffffffffffffff16815260200190815260200160002060000160006101000a81548173ffffffffffffffffffffffffffffffffffffffff021916908373ffffffffffffffffffffffffffffffffffffffff1602179055505b5050565b612aa3818373ffffffffffffffffffffffffffffffffffffffff1660016040518060600160405280603281526020016157d160329139612f2b565b5050565b600073ffffffffffffffffffffffffffffffffffffffff168473ffffffffffffffffffffffffffffffffffffffff161415612b17576040517f08c379a0000000000000000000000000000000000000000000000000000000008152600401612b0e906152ea565b60405180910390fd5b6000612b21611c0a565b90506000612b2e856130dc565b90506000612b3b856130dc565b9050612b4b838989858589612d43565b600080600088815260200190815260200160002060008a73ffffffffffffffffffffffffffffffffffffffff1673ffffffffffffffffffffffffffffffffffffffff16815260200190815260200160002054905085811015612be2576040517f08c379a0000000000000000000000000000000000000000000000000000000008152600401612bd99061537c565b60405180910390fd5b85810360008089815260200190815260200160002060008b73ffffffffffffffffffffffffffffffffffffffff1673ffffffffffffffffffffffffffffffffffffffff168152602001908152602001600020819055508560008089815260200190815260200160002060008a73ffffffffffffffffffffffffffffffffffffffff1673ffffffffffffffffffffffffffffffffffffffff1681526020019081526020016000206000828254612c979190614e1c565b925050819055508773ffffffffffffffffffffffffffffffffffffffff168973ffffffffffffffffffffffffffffffffffffffff168573ffffffffffffffffffffffffffffffffffffffff167fc3d58168c5ae7397731d063d5bbf3d657854427343f4c083240f7aacaa2d0f628a8a604051612d149291906153d3565b60405180910390a4612d2a848a8a86868a612d4b565b612d38848a8a8a8a8a613156565b505050505050505050565b505050505050565b505050505050565b612d728473ffffffffffffffffffffffffffffffffffffffff1661332e565b15612f23578373ffffffffffffffffffffffffffffffffffffffff1663bc197c8187878686866040518663ffffffff1660e01b8152600401612db8959493929190615451565b6020604051808303816000875af1925050508015612df457506040513d601f19601f82011682018060405250810190612df191906154ce565b60015b612e9a57612e00615508565b806308c379a01415612e5d5750612e1561552a565b80612e205750612e5f565b806040517f08c379a0000000000000000000000000000000000000000000000000000000008152600401612e549190613687565b60405180910390fd5b505b6040517f08c379a0000000000000000000000000000000000000000000000000000000008152600401612e9190615632565b60405180910390fd5b63bc197c8160e01b7bffffffffffffffffffffffffffffffffffffffffffffffffffffffff1916817bffffffffffffffffffffffffffffffffffffffffffffffffffffffff191614612f21576040517f08c379a0000000000000000000000000000000000000000000000000000000008152600401612f18906156c4565b60405180910390fd5b505b505050505050565b600073ffffffffffffffffffffffffffffffffffffffff168473ffffffffffffffffffffffffffffffffffffffff161415612f9b576040517f08c379a0000000000000000000000000000000000000000000000000000000008152600401612f9290615756565b60405180910390fd5b6000612fa5611c0a565b90506000612fb2856130dc565b90506000612fbf856130dc565b9050612fd083600089858589612d43565b8460008088815260200190815260200160002060008973ffffffffffffffffffffffffffffffffffffffff1673ffffffffffffffffffffffffffffffffffffffff168152602001908152602001600020600082825461302f9190614e1c565b925050819055508673ffffffffffffffffffffffffffffffffffffffff16600073ffffffffffffffffffffffffffffffffffffffff168473ffffffffffffffffffffffffffffffffffffffff167fc3d58168c5ae7397731d063d5bbf3d657854427343f4c083240f7aacaa2d0f6289896040516130ad9291906153d3565b60405180910390a46130c483600089858589612d4b565b6130d383600089898989613156565b50505050505050565b60606000600167ffffffffffffffff8111156130fb576130fa6136b3565b5b6040519080825280602002602001820160405280156131295781602001602082028036833780820191505090505b50905082816000815181106131415761314061434f565b5b60200260200101818152505080915050919050565b6131758473ffffffffffffffffffffffffffffffffffffffff1661332e565b15613326578373ffffffffffffffffffffffffffffffffffffffff1663f23a6e6187878686866040518663ffffffff1660e01b81526004016131bb959493929190615776565b6020604051808303816000875af19250505080156131f757506040513d601f19601f820116820180604052508101906131f491906154ce565b60015b61329d57613203615508565b806308c379a01415613260575061321861552a565b806132235750613262565b806040517f08c379a00000000000000000000000000000000000000000000000000000000081526004016132579190613687565b60405180910390fd5b505b6040517f08c379a000000000000000000000000000000000000000000000000000000000815260040161329490615632565b60405180910390fd5b63f23a6e6160e01b7bffffffffffffffffffffffffffffffffffffffffffffffffffffffff1916817bffffffffffffffffffffffffffffffffffffffffffffffffffffffff191614613324576040517f08c379a000000000000000000000000000000000000000000000000000000000815260040161331b906156c4565b60405180910390fd5b505b505050505050565b6000808273ffffffffffffffffffffffffffffffffffffffff163b119050919050565b82805461335d9061401d565b90600052602060002090601f01602090048101928261337f57600085556133c6565b82601f1061339857805160ff19168380011785556133c6565b828001600101855582156133c6579182015b828111156133c55782518255916020019190600101906133aa565b5b5090506133d391906133d7565b5090565b5b808211156133f05760008160009055506001016133d8565b5090565b6000604051905090565b600080fd5b600080fd5b600073ffffffffffffffffffffffffffffffffffffffff82169050919050565b600061343382613408565b9050919050565b61344381613428565b811461344e57600080fd5b50565b6000813590506134608161343a565b92915050565b6000819050919050565b61347981613466565b811461348457600080fd5b50565b60008135905061349681613470565b92915050565b600080604083850312156134b3576134b26133fe565b5b60006134c185828601613451565b92505060206134d285828601613487565b9150509250929050565b6134e581613466565b82525050565b600060208201905061350060008301846134dc565b92915050565b60007fffffffff0000000000000000000000000000000000000000000000000000000082169050919050565b61353b81613506565b811461354657600080fd5b50565b60008135905061355881613532565b92915050565b600060208284031215613574576135736133fe565b5b600061358284828501613549565b91505092915050565b60008115159050919050565b6135a08161358b565b82525050565b60006020820190506135bb6000830184613597565b92915050565b6000602082840312156135d7576135d66133fe565b5b60006135e584828501613487565b91505092915050565b600081519050919050565b600082825260208201905092915050565b60005b8381101561362857808201518184015260208101905061360d565b83811115613637576000848401525b50505050565b6000601f19601f8301169050919050565b6000613659826135ee565b61366381856135f9565b935061367381856020860161360a565b61367c8161363d565b840191505092915050565b600060208201905081810360008301526136a1818461364e565b905092915050565b600080fd5b600080fd5b7f4e487b7100000000000000000000000000000000000000000000000000000000600052604160045260246000fd5b6136eb8261363d565b810181811067ffffffffffffffff8211171561370a576137096136b3565b5b80604052505050565b600061371d6133f4565b905061372982826136e2565b919050565b600067ffffffffffffffff821115613749576137486136b3565b5b6137528261363d565b9050602081019050919050565b82818337600083830152505050565b600061378161377c8461372e565b613713565b90508281526020810184848401111561379d5761379c6136ae565b5b6137a884828561375f565b509392505050565b600082601f8301126137c5576137c46136a9565b5b81356137d584826020860161376e565b91505092915050565b600080604083850312156137f5576137f46133fe565b5b600061380385828601613451565b925050602083013567ffffffffffffffff81111561382457613823613403565b5b613830858286016137b0565b9150509250929050565b600067ffffffffffffffff821115613855576138546136b3565b5b602082029050602081019050919050565b600080fd5b600061387e6138798461383a565b613713565b905080838252602082019050602084028301858111156138a1576138a0613866565b5b835b818110156138ca57806138b68882613487565b8452602084019350506020810190506138a3565b5050509392505050565b600082601f8301126138e9576138e86136a9565b5b81356138f984826020860161386b565b91505092915050565b600067ffffffffffffffff82111561391d5761391c6136b3565b5b6139268261363d565b9050602081019050919050565b600061394661394184613902565b613713565b905082815260208101848484011115613962576139616136ae565b5b61396d84828561375f565b509392505050565b600082601f83011261398a576139896136a9565b5b813561399a848260208601613933565b91505092915050565b600080600080600060a086880312156139bf576139be6133fe565b5b60006139cd88828901613451565b95505060206139de88828901613451565b945050604086013567ffffffffffffffff8111156139ff576139fe613403565b5b613a0b888289016138d4565b935050606086013567ffffffffffffffff811115613a2c57613a2b613403565b5b613a38888289016138d4565b925050608086013567ffffffffffffffff811115613a5957613a58613403565b5b613a6588828901613975565b9150509295509295909350565b600067ffffffffffffffff821115613a8d57613a8c6136b3565b5b602082029050602081019050919050565b6000613ab1613aac84613a72565b613713565b90508083825260208201905060208402830185811115613ad457613ad3613866565b5b835b81811015613afd5780613ae98882613451565b845260208401935050602081019050613ad6565b5050509392505050565b600082601f830112613b1c57613b1b6136a9565b5b8135613b2c848260208601613a9e565b91505092915050565b60008060408385031215613b4c57613b4b6133fe565b5b600083013567ffffffffffffffff811115613b6a57613b69613403565b5b613b7685828601613b07565b925050602083013567ffffffffffffffff811115613b9757613b96613403565b5b613ba3858286016138d4565b9150509250929050565b600081519050919050565b600082825260208201905092915050565b6000819050602082019050919050565b613be281613466565b82525050565b6000613bf48383613bd9565b60208301905092915050565b6000602082019050919050565b6000613c1882613bad565b613c228185613bb8565b9350613c2d83613bc9565b8060005b83811015613c5e578151613c458882613be8565b9750613c5083613c00565b925050600181019050613c31565b5085935050505092915050565b60006020820190508181036000830152613c858184613c0d565b905092915050565b60008060008060008060c08789031215613caa57613ca96133fe565b5b600087013567ffffffffffffffff811115613cc857613cc7613403565b5b613cd489828a016137b0565b965050602087013567ffffffffffffffff811115613cf557613cf4613403565b5b613d0189828a016137b0565b955050604087013567ffffffffffffffff811115613d2257613d21613403565b5b613d2e89828a016137b0565b945050606087013567ffffffffffffffff811115613d4f57613d4e613403565b5b613d5b89828a016137b0565b935050608087013567ffffffffffffffff811115613d7c57613d7b613403565b5b613d8889828a016137b0565b92505060a087013567ffffffffffffffff811115613da957613da8613403565b5b613db589828a016137b0565b9150509295509295509295565b600060208284031215613dd857613dd76133fe565b5b6000613de684828501613451565b91505092915050565b613df881613428565b82525050565b6000602082019050613e136000830184613def565b92915050565b613e228161358b565b8114613e2d57600080fd5b50565b600081359050613e3f81613e19565b92915050565b60008060408385031215613e5c57613e5b6133fe565b5b6000613e6a85828601613451565b9250506020613e7b85828601613e30565b9150509250929050565b60008060408385031215613e9c57613e9b6133fe565b5b6000613eaa85828601613451565b9250506020613ebb85828601613451565b9150509250929050565b600080600080600060a08688031215613ee157613ee06133fe565b5b6000613eef88828901613451565b9550506020613f0088828901613451565b9450506040613f1188828901613487565b9350506060613f2288828901613487565b925050608086013567ffffffffffffffff811115613f4357613f42613403565b5b613f4f88828901613975565b9150509295509295909350565b7f455243313135353a2061646472657373207a65726f206973206e6f742061207660008201527f616c6964206f776e657200000000000000000000000000000000000000000000602082015250565b6000613fb8602a836135f9565b9150613fc382613f5c565b604082019050919050565b60006020820190508181036000830152613fe781613fab565b9050919050565b7f4e487b7100000000000000000000000000000000000000000000000000000000600052602260045260246000fd5b6000600282049050600182168061403557607f821691505b6020821081141561404957614048613fee565b5b50919050565b7f4272616e6452656769737472793a2063616c6c6572206973206e6f742062726160008201527f6e64206f776e6572206e6f7220617070726f7665640000000000000000000000602082015250565b60006140ab6035836135f9565b91506140b68261404f565b604082019050919050565b600060208201905081810360008301526140da8161409e565b9050919050565b7f455243313135353a2063616c6c6572206973206e6f7420746f6b656e206f776e60008201527f6572206e6f7220617070726f7665640000000000000000000000000000000000602082015250565b600061413d602f836135f9565b9150614148826140e1565b604082019050919050565b6000602082019050818103600083015261416c81614130565b9050919050565b7f4272616e6452656769737472793a206e6f7420616c6c6f77656420746f20736560008201527f7420746865206272616e6420726567697374726174696f6e20636f7374000000602082015250565b60006141cf603d836135f9565b91506141da82614173565b604082019050919050565b600060208201905081810360008301526141fe816141c2565b9050919050565b7f4272616e6452656769737472793a20746865206272616e64207265676973747260008201527f7920636f7374206d757374206e6f74206265206c657373207468616e20302e3060208201527f31206e617469766520746f6b656e730000000000000000000000000000000000604082015250565b6000614287604f836135f9565b915061429282614205565b606082019050919050565b600060208201905081810360008301526142b68161427a565b9050919050565b7f455243313135353a206163636f756e747320616e6420696473206c656e67746860008201527f206d69736d617463680000000000000000000000000000000000000000000000602082015250565b60006143196029836135f9565b9150614324826142bd565b604082019050919050565b600060208201905081810360008301526143488161430c565b9050919050565b7f4e487b7100000000000000000000000000000000000000000000000000000000600052603260045260246000fd5b7f4e487b7100000000000000000000000000000000000000000000000000000000600052601160045260246000fd5b60006143b882613466565b91507fffffffffffffffffffffffffffffffffffffffffffffffffffffffffffffffff8214156143eb576143ea61437e565b5b600182019050919050565b7f4272616e6452656769737472793a207573652061206e6f6e2d656d707479206960008201527f6d6167652075726c000000000000000000000000000000000000000000000000602082015250565b60006144526028836135f9565b915061445d826143f6565b604082019050919050565b6000602082019050818103600083015261448181614445565b9050919050565b600081905092915050565b600061449e826135ee565b6144a88185614488565b93506144b881856020860161360a565b80840191505092915050565b7f20726571756972657320616e206578616374207061796d656e74206f66200000600082015250565b60006144fa601e83614488565b9150614505826144c4565b601e82019050919050565b7f2062757420000000000000000000000000000000000000000000000000000000600082015250565b6000614546600583614488565b915061455182614510565b600582019050919050565b7f2077617320676976656e00000000000000000000000000000000000000000000600082015250565b6000614592600a83614488565b915061459d8261455c565b600a82019050919050565b60006145b48286614493565b91506145bf826144ed565b91506145cb8285614493565b91506145d682614539565b91506145e28284614493565b91506145ed82614585565b9150819050949350505050565b7f7b226e616d65223a220000000000000000000000000000000000000000000000600082015250565b6000614630600983614488565b915061463b826145fa565b600982019050919050565b60008190508160005260206000209050919050565b600081546146688161401d565b6146728186614488565b9450600182166000811461468d576001811461469e576146d1565b60ff198316865281860193506146d1565b6146a785614646565b60005b838110156146c9578154818901526001820191506020810190506146aa565b838801955050505b50505092915050565b7f222c226465736372697074696f6e223a22000000000000000000000000000000600082015250565b6000614710601183614488565b915061471b826146da565b601182019050919050565b7f222c22696d616765223a22000000000000000000000000000000000000000000600082015250565b600061475c600b83614488565b915061476782614726565b600b82019050919050565b7f222c2270726f70657274696573223a7b226368616c6c656e676555726c223a22600082015250565b60006147a8602083614488565b91506147b382614772565b602082019050919050565b7f222c2269636f6e3136783136223a220000000000000000000000000000000000600082015250565b60006147f4600f83614488565b91506147ff826147be565b600f82019050919050565b7f222c2269636f6e3332783332223a220000000000000000000000000000000000600082015250565b6000614840600f83614488565b915061484b8261480a565b600f82019050919050565b7f222c2269636f6e3634783634223a220000000000000000000000000000000000600082015250565b600061488c600f83614488565b915061489782614856565b600f82019050919050565b7f222c22636f6d6d6974746564223a000000000000000000000000000000000000600082015250565b60006148d8600e83614488565b91506148e3826148a2565b600e82019050919050565b7f7d7d000000000000000000000000000000000000000000000000000000000000600082015250565b6000614924600283614488565b915061492f826148ee565b600282019050919050565b600061494582614623565b9150614951828b61465b565b915061495c82614703565b9150614968828a61465b565b91506149738261474f565b915061497f828961465b565b915061498a8261479b565b9150614996828861465b565b91506149a1826147e7565b91506149ad828761465b565b91506149b882614833565b91506149c4828661465b565b91506149cf8261487f565b91506149db828561465b565b91506149e6826148cb565b91506149f28284614493565b91506149fd82614917565b91508190509998505050505050505050565b7f646174613a6170706c69636174696f6e2f6a736f6e3b6261736536342c000000600082015250565b6000614a45601d83614488565b9150614a5082614a0f565b601d82019050919050565b6000614a6682614a38565b9150614a728284614493565b915081905092915050565b7f4272616e6452656769737472793a206561726e696e67732063616e6e6f74206260008201527f652077697468647261776e20627920746869732073656e646572000000000000602082015250565b6000614ad9603a836135f9565b9150614ae482614a7d565b604082019050919050565b60006020820190508181036000830152614b0881614acc565b9050919050565b7f4272616e6452656769737472793a206561726e696e677320616d6f756e74206d60008201527f757374206e6f7420626520300000000000000000000000000000000000000000602082015250565b6000614b6b602c836135f9565b9150614b7682614b0f565b604082019050919050565b60006020820190508181036000830152614b9a81614b5e565b9050919050565b7f4272616e6452656769737472793a206561726e696e677320616d6f756e74206960008201527f73206c657373207468616e207468652072657175657374656420616d6f756e74602082015250565b6000614bfd6040836135f9565b9150614c0882614ba1565b604082019050919050565b60006020820190508181036000830152614c2c81614bf0565b9050919050565b6000614c3e82613466565b9150614c4983613466565b925082821015614c5c57614c5b61437e565b5b828203905092915050565b7f4272616e6452656769737472793a206e6f6e2d6578697374696e67206272616e60008201527f6400000000000000000000000000000000000000000000000000000000000000602082015250565b6000614cc36021836135f9565b9150614cce82614c67565b604082019050919050565b60006020820190508181036000830152614cf281614cb6565b9050919050565b7f4272616e6452656769737472793a206e6f7420616c6c6f77656420746f20736560008201527f74206272616e64732720736f6369616c20636f6d6d69746d656e740000000000602082015250565b6000614d55603b836135f9565b9150614d6082614cf9565b604082019050919050565b60006020820190508181036000830152614d8481614d48565b9050919050565b7f4e487b7100000000000000000000000000000000000000000000000000000000600052601260045260246000fd5b6000614dc582613466565b9150614dd083613466565b925082614de057614ddf614d8b565b5b828204905092915050565b6000614df682613466565b9150614e0183613466565b925082614e1157614e10614d8b565b5b828206905092915050565b6000614e2782613466565b9150614e3283613466565b9250827fffffffffffffffffffffffffffffffffffffffffffffffffffffffffffffffff03821115614e6757614e6661437e565b5b828201905092915050565b7f4272616e6452656769737472793a207573652061206e6f6e2d656d707479206e60008201527f616d650000000000000000000000000000000000000000000000000000000000602082015250565b6000614ece6023836135f9565b9150614ed982614e72565b604082019050919050565b60006020820190508181036000830152614efd81614ec1565b9050919050565b7f4272616e6452656769737472793a207573652061206e6f6e2d656d707479206460008201527f65736372697074696f6e00000000000000000000000000000000000000000000602082015250565b6000614f60602a836135f9565b9150614f6b82614f04565b604082019050919050565b60006020820190508181036000830152614f8f81614f53565b9050919050565b60007fff0000000000000000000000000000000000000000000000000000000000000082169050919050565b6000819050919050565b614fdd614fd882614f96565b614fc2565b82525050565b60008160601b9050919050565b6000614ffb82614fe3565b9050919050565b600061500d82614ff0565b9050919050565b61502561502082613428565b615002565b82525050565b6000819050919050565b6000819050919050565b61505061504b8261502b565b615035565b82525050565b60006150628288614fcc565b6001820191506150728287614fcc565b6001820191506150828286615014565b6014820191506150928285615014565b6014820191506150a2828461503f565b6020820191508190509695505050505050565b600060608201905081810360008301526150cf818661364e565b905081810360208301526150e3818561364e565b90506150f260408301846134dc565b949350505050565b600061510582613466565b915061511083613466565b9250817fffffffffffffffffffffffffffffffffffffffffffffffffffffffffffffffff04831182151516156151495761514861437e565b5b828202905092915050565b7f455243313135353a2073657474696e6720617070726f76616c2073746174757360008201527f20666f722073656c660000000000000000000000000000000000000000000000602082015250565b60006151b06029836135f9565b91506151bb82615154565b604082019050919050565b600060208201905081810360008301526151df816151a3565b9050919050565b7f455243313135353a2069647320616e6420616d6f756e7473206c656e6774682060008201527f6d69736d61746368000000000000000000000000000000000000000000000000602082015250565b60006152426028836135f9565b915061524d826151e6565b604082019050919050565b6000602082019050818103600083015261527181615235565b9050919050565b7f455243313135353a207472616e7366657220746f20746865207a65726f20616460008201527f6472657373000000000000000000000000000000000000000000000000000000602082015250565b60006152d46025836135f9565b91506152df82615278565b604082019050919050565b60006020820190508181036000830152615303816152c7565b9050919050565b7f455243313135353a20696e73756666696369656e742062616c616e636520666f60008201527f72207472616e7366657200000000000000000000000000000000000000000000602082015250565b6000615366602a836135f9565b91506153718261530a565b604082019050919050565b6000602082019050818103600083015261539581615359565b9050919050565b600060408201905081810360008301526153b68185613c0d565b905081810360208301526153ca8184613c0d565b90509392505050565b60006040820190506153e860008301856134dc565b6153f560208301846134dc565b9392505050565b600081519050919050565b600082825260208201905092915050565b6000615423826153fc565b61542d8185615407565b935061543d81856020860161360a565b6154468161363d565b840191505092915050565b600060a0820190506154666000830188613def565b6154736020830187613def565b81810360408301526154858186613c0d565b905081810360608301526154998185613c0d565b905081810360808301526154ad8184615418565b90509695505050505050565b6000815190506154c881613532565b92915050565b6000602082840312156154e4576154e36133fe565b5b60006154f2848285016154b9565b91505092915050565b60008160e01c9050919050565b600060033d11156155275760046000803e6155246000516154fb565b90505b90565b600060443d101561553a576155bd565b6155426133f4565b60043d036004823e80513d602482011167ffffffffffffffff8211171561556a5750506155bd565b808201805167ffffffffffffffff81111561558857505050506155bd565b80602083010160043d0385018111156155a55750505050506155bd565b6155b4826020018501866136e2565b82955050505050505b90565b7f455243313135353a207472616e7366657220746f206e6f6e204552433131353560008201527f526563656976657220696d706c656d656e746572000000000000000000000000602082015250565b600061561c6034836135f9565b9150615627826155c0565b604082019050919050565b6000602082019050818103600083015261564b8161560f565b9050919050565b7f455243313135353a204552433131353552656365697665722072656a6563746560008201527f6420746f6b656e73000000000000000000000000000000000000000000000000602082015250565b60006156ae6028836135f9565b91506156b982615652565b604082019050919050565b600060208201905081810360008301526156dd816156a1565b9050919050565b7f455243313135353a206d696e7420746f20746865207a65726f2061646472657360008201527f7300000000000000000000000000000000000000000000000000000000000000602082015250565b60006157406021836135f9565b915061574b826156e4565b604082019050919050565b6000602082019050818103600083015261576f81615733565b9050919050565b600060a08201905061578b6000830188613def565b6157986020830187613def565b6157a560408301866134dc565b6157b260608301856134dc565b81810360808301526157c48184615418565b9050969550505050505056fe53616d706c6545524331313535576974684272616e6452656769737472793a2074657374205f6d696e744272616e64466f724142434445464748494a4b4c4d4e4f505152535455565758595a6162636465666768696a6b6c6d6e6f707172737475767778797a303132333435363738392b2f4272616e6452656769737472793a206272616e6420726567697374726174696f6ea26469706673582212201c7d6889fae8c4200c8abc1e55009453d10feede43b73861763a3eba49e630d064736f6c634300080a0033",
  "immutableReferences": {},
  "source": "// SPDX-License-Identifier: MIT\npragma solidity >=0.8 <0.9.0;\n\nimport \"@openzeppelin/contracts/token/ERC1155/ERC1155.sol\";\nimport \"../BrandRegistry.sol\";\nimport \"../../IdUtils.sol\";\n\ncontract SampleERC1155WithBrandRegistry is ERC1155, BrandRegistry {\n    address public owner;\n\n    constructor() ERC1155(\"about:blank\") {\n        owner = msg.sender;\n    }\n\n    function _canSetBrandRegistrationCost(address _sender) internal override view returns (bool) {\n        return owner == _sender;\n    }\n\n    function _mintBrandFor(address _brandId, address _owner) internal override {\n        _mint(_owner, uint256(uint160(_brandId)), 1, \"SampleERC1155WithBrandRegistry: test _mintBrandFor\");\n    }\n\n    function _isBrandOwnerApprovedEditor(address _brandOwner, address _sender) internal view override returns (bool) {\n        return isApprovedForAll(_brandOwner, _sender);\n    }\n\n    function _canWithdrawBrandRegistrationEarnings(address _sender) internal view override returns (bool) {\n        return owner == _sender;\n    }\n\n    function _canSetBrandCommitment(address _sender) internal view override returns (bool) {\n        return owner == _sender;\n    }\n\n    function _safeTransferFrom(\n        address from,\n        address to,\n        uint256 id,\n        uint256 amount,\n        bytes memory data\n    ) internal override {\n        super._safeTransferFrom(from, to, id, amount, data);\n        if (id < (1 << 160)) {\n            _setBrandOwner(address(uint160(id)), to);\n        }\n    }\n\n    function _safeBatchTransferFrom(\n        address from,\n        address to,\n        uint256[] memory ids,\n        uint256[] memory amounts,\n        bytes memory data\n    ) internal override {\n        super._safeBatchTransferFrom(from, to, ids, amounts, data);\n        for(uint256 index = 0; index < amounts.length; index++) {\n            if (ids[index] < (1 << 160) && amounts[index] != 0) {\n                _setBrandOwner(address(uint160(ids[index])), to);\n            }\n        }\n    }\n}",
  "sourcePath": "/home/luismasuelli/Projects/OuterMaze/lingr-contracts/contracts/lingr/samples/SampleERC1155WithBrandRegistry.sol",
  "compiler": {
    "name": "solc",
    "version": "0.8.10+commit.fc410830.Emscripten.clang"
  },
  "schemaVersion": "3.4.3",
  "updatedAt": "2022-08-06T22:33:28.074Z",
  "devdoc": {
    "kind": "dev",
    "methods": {
      "balanceOf(address,uint256)": {
        "details": "See {IERC1155-balanceOf}. Requirements: - `account` cannot be the zero address."
      },
      "balanceOfBatch(address[],uint256[])": {
        "details": "See {IERC1155-balanceOfBatch}. Requirements: - `accounts` and `ids` must have the same length."
      },
      "isApprovedForAll(address,address)": {
        "details": "See {IERC1155-isApprovedForAll}."
      },
      "safeBatchTransferFrom(address,address,uint256[],uint256[],bytes)": {
        "details": "See {IERC1155-safeBatchTransferFrom}."
      },
      "safeTransferFrom(address,address,uint256,uint256,bytes)": {
        "details": "See {IERC1155-safeTransferFrom}."
      },
      "setApprovalForAll(address,bool)": {
        "details": "See {IERC1155-setApprovalForAll}."
      },
      "supportsInterface(bytes4)": {
        "details": "See {IERC165-supportsInterface}."
      },
      "uri(uint256)": {
        "details": "See {IERC1155MetadataURI-uri}. This implementation returns the same URI for *all* token types. It relies on the token type ID substitution mechanism https://eips.ethereum.org/EIPS/eip-1155#metadata[defined in the EIP]. Clients calling this function must replace the `\\{id\\}` substring with the actual token type ID."
      }
    },
    "version": 1
  },
  "userdoc": {
    "events": {
      "BrandEarningsWithdrawn(address,uint256)": {
        "notice": "This event is triggered when brand earnings were withdrawn successfully."
      },
      "BrandRegistered(address,address,string,string,uint256)": {
        "notice": "This event is triggered when a brand is registered. The new address is also included, along some reference data."
      },
      "BrandRegistrationCostUpdated(uint256)": {
        "notice": "An event for when the brand registration cost is updated."
      },
      "BrandSocialCommitmentUpdated(address,address,bool)": {
        "notice": "This event is triggered when a brand is updated with respect to its social commitment (this is: to tell a brand is socially committed according to the metaverse's views or not). Special benefits (in particular, with respect to assets loading on customers) are given in clients to socially committed brands."
      },
      "BrandUpdated(address,address)": {
        "notice": "This event is triggered when a brand is registered. The new address is also included, along some reference data."
      }
    },
    "kind": "user",
    "methods": {
      "brandExists(address)": {
        "notice": "Tells whether an address corresponds to a registered brand or not."
      },
      "brandMetadataURI(address)": {
        "notice": "Assembles the whole metadata for a brand. WARNING: This method will consume a lot of gas if invoked inside a transaction, so it is recommended to invoke this method in the context of a CALL, and never in the context of a SEND (even as part of other contract's code)."
      },
      "brandRegistrationCost()": {
        "notice": "The cost to register a new brand. This can be changed in the future and must be able to be known in the ABI for the users to be aware of the statistic."
      },
      "brandRegistrationCurrentEarnings()": {
        "notice": "Tells the current earnings, not yet withdrawn, from brand registrations."
      },
      "registerBrand(string,string,string,string,string,string)": {
        "notice": "Registers a new brand, when the appropriate price is paid for it. For more details on how this method works, check _registerBrand's inline documentation."
      },
      "setBrandRegistrationCost(uint256)": {
        "notice": "Sets the new brand registration cost."
      },
      "updateBrandChallengeUrl(address,string)": {
        "notice": "Updates the brand's challenge url. Only the owner of the brand or an approved account can invoke this method. Ensure the url is empty or a valid URL, or metadata might fail to be assembled into valid JSON."
      },
      "updateBrandIcon16x16Url(address,string)": {
        "notice": "Updates the brand's 16x16 icon url. Only the owner of the brand or an approved account can invoke this method. Ensure the _icon is empty or a valid URL, or metadata might fail to be assembled into valid JSON."
      },
      "updateBrandIcon32x32Url(address,string)": {
        "notice": "Updates the brand's 32x32 icon url. Only the owner of the brand or an approved account can invoke this method. Ensure the _icon is empty or a valid URL, or metadata might fail to be assembled into valid JSON."
      },
      "updateBrandIcon64x64Url(address,string)": {
        "notice": "Updates the brand's 64x64 icon url. Only the owner of the brand or an approved account can invoke this method. Ensure the _icon is empty or a valid URL, or metadata might fail to be assembled into valid JSON."
      },
      "updateBrandImage(address,string)": {
        "notice": "Updates the brand image. Only the owner of the brand or an approved account can invoke this method. Ensure the _image is empty or a valid URL, or metadata might fail to be assembled into valid JSON."
      },
      "updateBrandSocialCommitment(address,bool)": {
        "notice": "Updates whether a brand is socially committed or not."
      },
      "withdrawBrandRegistrationEarnings(uint256)": {
        "notice": "Allows the sender to withdraw brand registration earnings."
      }
    },
    "version": 1
  }
}