{
  "contractName": "SampleERC1155WithSafeExchange",
  "abi": [
    {
      "inputs": [],
      "stateMutability": "nonpayable",
      "type": "constructor"
    },
    {
      "anonymous": false,
      "inputs": [
        {
          "indexed": true,
          "internalType": "address",
          "name": "account",
          "type": "address"
        },
        {
          "indexed": true,
          "internalType": "address",
          "name": "operator",
          "type": "address"
        },
        {
          "indexed": false,
          "internalType": "bool",
          "name": "approved",
          "type": "bool"
        }
      ],
      "name": "ApprovalForAll",
      "type": "event"
    },
    {
      "anonymous": false,
      "inputs": [
        {
          "indexed": true,
          "internalType": "uint256",
          "name": "dealId",
          "type": "uint256"
        },
        {
          "indexed": true,
          "internalType": "address",
          "name": "emitter",
          "type": "address"
        },
        {
          "indexed": true,
          "internalType": "address",
          "name": "receiver",
          "type": "address"
        },
        {
          "indexed": false,
          "internalType": "uint256[]",
          "name": "receiverTokenIds",
          "type": "uint256[]"
        },
        {
          "indexed": false,
          "internalType": "uint256[]",
          "name": "receiverTokenAmounts",
          "type": "uint256[]"
        }
      ],
      "name": "DealAccepted",
      "type": "event"
    },
    {
      "anonymous": false,
      "inputs": [
        {
          "indexed": true,
          "internalType": "uint256",
          "name": "dealId",
          "type": "uint256"
        },
        {
          "indexed": true,
          "internalType": "address",
          "name": "breaker",
          "type": "address"
        }
      ],
      "name": "DealBroken",
      "type": "event"
    },
    {
      "anonymous": false,
      "inputs": [
        {
          "indexed": true,
          "internalType": "uint256",
          "name": "dealId",
          "type": "uint256"
        },
        {
          "indexed": true,
          "internalType": "address",
          "name": "emitter",
          "type": "address"
        },
        {
          "indexed": true,
          "internalType": "address",
          "name": "receiver",
          "type": "address"
        }
      ],
      "name": "DealConfirmed",
      "type": "event"
    },
    {
      "anonymous": false,
      "inputs": [
        {
          "indexed": true,
          "internalType": "uint256",
          "name": "dealId",
          "type": "uint256"
        },
        {
          "indexed": true,
          "internalType": "address",
          "name": "emitter",
          "type": "address"
        },
        {
          "indexed": true,
          "internalType": "address",
          "name": "receiver",
          "type": "address"
        },
        {
          "indexed": false,
          "internalType": "uint256[]",
          "name": "emitterTokenIds",
          "type": "uint256[]"
        },
        {
          "indexed": false,
          "internalType": "uint256[]",
          "name": "emitterTokenAmounts",
          "type": "uint256[]"
        }
      ],
      "name": "DealStarted",
      "type": "event"
    },
    {
      "anonymous": false,
      "inputs": [
        {
          "indexed": true,
          "internalType": "address",
          "name": "operator",
          "type": "address"
        },
        {
          "indexed": true,
          "internalType": "address",
          "name": "from",
          "type": "address"
        },
        {
          "indexed": true,
          "internalType": "address",
          "name": "to",
          "type": "address"
        },
        {
          "indexed": false,
          "internalType": "uint256[]",
          "name": "ids",
          "type": "uint256[]"
        },
        {
          "indexed": false,
          "internalType": "uint256[]",
          "name": "values",
          "type": "uint256[]"
        }
      ],
      "name": "TransferBatch",
      "type": "event"
    },
    {
      "anonymous": false,
      "inputs": [
        {
          "indexed": true,
          "internalType": "address",
          "name": "operator",
          "type": "address"
        },
        {
          "indexed": true,
          "internalType": "address",
          "name": "from",
          "type": "address"
        },
        {
          "indexed": true,
          "internalType": "address",
          "name": "to",
          "type": "address"
        },
        {
          "indexed": false,
          "internalType": "uint256",
          "name": "id",
          "type": "uint256"
        },
        {
          "indexed": false,
          "internalType": "uint256",
          "name": "value",
          "type": "uint256"
        }
      ],
      "name": "TransferSingle",
      "type": "event"
    },
    {
      "anonymous": false,
      "inputs": [
        {
          "indexed": false,
          "internalType": "string",
          "name": "value",
          "type": "string"
        },
        {
          "indexed": true,
          "internalType": "uint256",
          "name": "id",
          "type": "uint256"
        }
      ],
      "name": "URI",
      "type": "event"
    },
    {
      "inputs": [
        {
          "internalType": "address",
          "name": "account",
          "type": "address"
        },
        {
          "internalType": "uint256",
          "name": "id",
          "type": "uint256"
        }
      ],
      "name": "balanceOf",
      "outputs": [
        {
          "internalType": "uint256",
          "name": "",
          "type": "uint256"
        }
      ],
      "stateMutability": "view",
      "type": "function"
    },
    {
      "inputs": [
        {
          "internalType": "address[]",
          "name": "accounts",
          "type": "address[]"
        },
        {
          "internalType": "uint256[]",
          "name": "ids",
          "type": "uint256[]"
        }
      ],
      "name": "balanceOfBatch",
      "outputs": [
        {
          "internalType": "uint256[]",
          "name": "",
          "type": "uint256[]"
        }
      ],
      "stateMutability": "view",
      "type": "function"
    },
    {
      "inputs": [
        {
          "internalType": "uint256",
          "name": "_dealIndex",
          "type": "uint256"
        },
        {
          "internalType": "uint256[]",
          "name": "_tokenIds",
          "type": "uint256[]"
        },
        {
          "internalType": "uint256[]",
          "name": "_tokenAmounts",
          "type": "uint256[]"
        }
      ],
      "name": "dealAccept",
      "outputs": [],
      "stateMutability": "nonpayable",
      "type": "function"
    },
    {
      "inputs": [
        {
          "internalType": "uint256",
          "name": "_dealIndex",
          "type": "uint256"
        }
      ],
      "name": "dealBreak",
      "outputs": [],
      "stateMutability": "nonpayable",
      "type": "function"
    },
    {
      "inputs": [
        {
          "internalType": "uint256",
          "name": "_dealIndex",
          "type": "uint256"
        }
      ],
      "name": "dealConfirm",
      "outputs": [],
      "stateMutability": "nonpayable",
      "type": "function"
    },
    {
      "inputs": [
        {
          "internalType": "address",
          "name": "_emitter",
          "type": "address"
        },
        {
          "internalType": "address",
          "name": "_receiver",
          "type": "address"
        },
        {
          "internalType": "uint256[]",
          "name": "_tokenIds",
          "type": "uint256[]"
        },
        {
          "internalType": "uint256[]",
          "name": "_tokenAmounts",
          "type": "uint256[]"
        }
      ],
      "name": "dealStart",
      "outputs": [],
      "stateMutability": "nonpayable",
      "type": "function"
    },
    {
      "inputs": [
        {
          "internalType": "uint256",
          "name": "",
          "type": "uint256"
        }
      ],
      "name": "deals",
      "outputs": [
        {
          "internalType": "address",
          "name": "emitter",
          "type": "address"
        },
        {
          "internalType": "address",
          "name": "receiver",
          "type": "address"
        },
        {
          "internalType": "enum SafeExchange.DealState",
          "name": "state",
          "type": "uint8"
        }
      ],
      "stateMutability": "view",
      "type": "function"
    },
    {
      "inputs": [
        {
          "internalType": "address",
          "name": "account",
          "type": "address"
        },
        {
          "internalType": "address",
          "name": "operator",
          "type": "address"
        }
      ],
      "name": "isApprovedForAll",
      "outputs": [
        {
          "internalType": "bool",
          "name": "",
          "type": "bool"
        }
      ],
      "stateMutability": "view",
      "type": "function"
    },
    {
      "inputs": [
        {
          "internalType": "address",
          "name": "from",
          "type": "address"
        },
        {
          "internalType": "address",
          "name": "to",
          "type": "address"
        },
        {
          "internalType": "uint256[]",
          "name": "ids",
          "type": "uint256[]"
        },
        {
          "internalType": "uint256[]",
          "name": "amounts",
          "type": "uint256[]"
        },
        {
          "internalType": "bytes",
          "name": "data",
          "type": "bytes"
        }
      ],
      "name": "safeBatchTransferFrom",
      "outputs": [],
      "stateMutability": "nonpayable",
      "type": "function"
    },
    {
      "inputs": [
        {
          "internalType": "address",
          "name": "from",
          "type": "address"
        },
        {
          "internalType": "address",
          "name": "to",
          "type": "address"
        },
        {
          "internalType": "uint256",
          "name": "id",
          "type": "uint256"
        },
        {
          "internalType": "uint256",
          "name": "amount",
          "type": "uint256"
        },
        {
          "internalType": "bytes",
          "name": "data",
          "type": "bytes"
        }
      ],
      "name": "safeTransferFrom",
      "outputs": [],
      "stateMutability": "nonpayable",
      "type": "function"
    },
    {
      "inputs": [
        {
          "internalType": "address",
          "name": "operator",
          "type": "address"
        },
        {
          "internalType": "bool",
          "name": "approved",
          "type": "bool"
        }
      ],
      "name": "setApprovalForAll",
      "outputs": [],
      "stateMutability": "nonpayable",
      "type": "function"
    },
    {
      "inputs": [
        {
          "internalType": "bytes4",
          "name": "interfaceId",
          "type": "bytes4"
        }
      ],
      "name": "supportsInterface",
      "outputs": [
        {
          "internalType": "bool",
          "name": "",
          "type": "bool"
        }
      ],
      "stateMutability": "view",
      "type": "function"
    },
    {
      "inputs": [
        {
          "internalType": "uint256",
          "name": "",
          "type": "uint256"
        }
      ],
      "name": "uri",
      "outputs": [
        {
          "internalType": "string",
          "name": "",
          "type": "string"
        }
      ],
      "stateMutability": "view",
      "type": "function"
    }
  ],
  "bytecode": "0x608060405260006003553480156200001657600080fd5b506040518060400160405280600b81526020017f61626f75743a626c616e6b0000000000000000000000000000000000000000008152506200005e816200018860201b60201c565b50620000c062000073620001a460201b60201c565b6001670de0b6b3a76400006040518060400160405280600481526020017f7465737400000000000000000000000000000000000000000000000000000000815250620001ac60201b60201c565b62000121620000d4620001a460201b60201c565b6002671bc16d674ec800006040518060400160405280600481526020017f7465737400000000000000000000000000000000000000000000000000000000815250620001ac60201b60201c565b6200018262000135620001a460201b60201c565b60036729a2241af62c00006040518060400160405280600481526020017f7465737400000000000000000000000000000000000000000000000000000000815250620001ac60201b60201c565b62000dc7565b8060029080519060200190620001a092919062000642565b5050565b600033905090565b600073ffffffffffffffffffffffffffffffffffffffff168473ffffffffffffffffffffffffffffffffffffffff1614156200021f576040517f08c379a0000000000000000000000000000000000000000000000000000000008152600401620002169062000779565b60405180910390fd5b600062000231620001a460201b60201c565b9050600062000246856200039460201b60201c565b905060006200025b856200039460201b60201c565b905062000274836000898585896200041560201b60201c565b8460008088815260200190815260200160002060008973ffffffffffffffffffffffffffffffffffffffff1673ffffffffffffffffffffffffffffffffffffffff1681526020019081526020016000206000828254620002d59190620007d4565b925050819055508673ffffffffffffffffffffffffffffffffffffffff16600073ffffffffffffffffffffffffffffffffffffffff168473ffffffffffffffffffffffffffffffffffffffff167fc3d58168c5ae7397731d063d5bbf3d657854427343f4c083240f7aacaa2d0f6289896040516200035592919062000842565b60405180910390a462000374836000898585896200041d60201b60201c565b6200038b836000898989896200042560201b60201c565b50505050505050565b60606000600167ffffffffffffffff811115620003b657620003b56200086f565b5b604051908082528060200260200182016040528015620003e55781602001602082028036833780820191505090505b50905082816000815181106200040057620003ff6200089e565b5b60200260200101818152505080915050919050565b505050505050565b505050505050565b620004518473ffffffffffffffffffffffffffffffffffffffff166200061f60201b620018df1760201c565b1562000617578373ffffffffffffffffffffffffffffffffffffffff1663f23a6e6187878686866040518663ffffffff1660e01b81526004016200049a959493929190620009b6565b6020604051808303816000875af1925050508015620004d957506040513d601f19601f82011682018060405250810190620004d6919062000a86565b60015b6200058b57620004e862000ac5565b806308c379a014156200054c57506200050062000b20565b806200050d57506200054e565b806040517f08c379a000000000000000000000000000000000000000000000000000000000815260040162000543919062000c0e565b60405180910390fd5b505b6040517f08c379a0000000000000000000000000000000000000000000000000000000008152600401620005829062000ca8565b60405180910390fd5b63f23a6e6160e01b7bffffffffffffffffffffffffffffffffffffffffffffffffffffffff1916817bffffffffffffffffffffffffffffffffffffffffffffffffffffffff19161462000615576040517f08c379a00000000000000000000000000000000000000000000000000000000081526004016200060c9062000d40565b60405180910390fd5b505b505050505050565b6000808273ffffffffffffffffffffffffffffffffffffffff163b119050919050565b828054620006509062000d91565b90600052602060002090601f016020900481019282620006745760008555620006c0565b82601f106200068f57805160ff1916838001178555620006c0565b82800160010185558215620006c0579182015b82811115620006bf578251825591602001919060010190620006a2565b5b509050620006cf9190620006d3565b5090565b5b80821115620006ee576000816000905550600101620006d4565b5090565b600082825260208201905092915050565b7f455243313135353a206d696e7420746f20746865207a65726f2061646472657360008201527f7300000000000000000000000000000000000000000000000000000000000000602082015250565b600062000761602183620006f2565b91506200076e8262000703565b604082019050919050565b60006020820190508181036000830152620007948162000752565b9050919050565b6000819050919050565b7f4e487b7100000000000000000000000000000000000000000000000000000000600052601160045260246000fd5b6000620007e1826200079b565b9150620007ee836200079b565b9250827fffffffffffffffffffffffffffffffffffffffffffffffffffffffffffffffff03821115620008265762000825620007a5565b5b828201905092915050565b6200083c816200079b565b82525050565b600060408201905062000859600083018562000831565b62000868602083018462000831565b9392505050565b7f4e487b7100000000000000000000000000000000000000000000000000000000600052604160045260246000fd5b7f4e487b7100000000000000000000000000000000000000000000000000000000600052603260045260246000fd5b600073ffffffffffffffffffffffffffffffffffffffff82169050919050565b6000620008fa82620008cd565b9050919050565b6200090c81620008ed565b82525050565b600081519050919050565b600082825260208201905092915050565b60005b838110156200094e57808201518184015260208101905062000931565b838111156200095e576000848401525b50505050565b6000601f19601f8301169050919050565b6000620009828262000912565b6200098e81856200091d565b9350620009a08185602086016200092e565b620009ab8162000964565b840191505092915050565b600060a082019050620009cd600083018862000901565b620009dc602083018762000901565b620009eb604083018662000831565b620009fa606083018562000831565b818103608083015262000a0e818462000975565b90509695505050505050565b6000604051905090565b600080fd5b60007fffffffff0000000000000000000000000000000000000000000000000000000082169050919050565b62000a608162000a29565b811462000a6c57600080fd5b50565b60008151905062000a808162000a55565b92915050565b60006020828403121562000a9f5762000a9e62000a24565b5b600062000aaf8482850162000a6f565b91505092915050565b60008160e01c9050919050565b600060033d111562000ae75760046000803e62000ae460005162000ab8565b90505b90565b62000af58262000964565b810181811067ffffffffffffffff8211171562000b175762000b166200086f565b5b80604052505050565b600060443d101562000b325762000bbf565b62000b3c62000a1a565b60043d036004823e80513d602482011167ffffffffffffffff8211171562000b6657505062000bbf565b808201805167ffffffffffffffff81111562000b86575050505062000bbf565b80602083010160043d03850181111562000ba557505050505062000bbf565b62000bb68260200185018662000aea565b82955050505050505b90565b600081519050919050565b600062000bda8262000bc2565b62000be68185620006f2565b935062000bf88185602086016200092e565b62000c038162000964565b840191505092915050565b6000602082019050818103600083015262000c2a818462000bcd565b905092915050565b7f455243313135353a207472616e7366657220746f206e6f6e204552433131353560008201527f526563656976657220696d706c656d656e746572000000000000000000000000602082015250565b600062000c90603483620006f2565b915062000c9d8262000c32565b604082019050919050565b6000602082019050818103600083015262000cc38162000c81565b9050919050565b7f455243313135353a204552433131353552656365697665722072656a6563746560008201527f6420746f6b656e73000000000000000000000000000000000000000000000000602082015250565b600062000d28602883620006f2565b915062000d358262000cca565b604082019050919050565b6000602082019050818103600083015262000d5b8162000d19565b9050919050565b7f4e487b7100000000000000000000000000000000000000000000000000000000600052602260045260246000fd5b6000600282049050600182168062000daa57607f821691505b6020821081141562000dc15762000dc062000d62565b5b50919050565b6141d28062000dd76000396000f3fe608060405234801561001057600080fd5b50600436106100ce5760003560e01c80636344bb131161008c578063d22d235911610066578063d22d235914610235578063e067bd6f14610251578063e985e9c51461026d578063f242432a1461029d576100ce565b80636344bb13146101e1578063a22cb465146101fd578063c3e5002714610219576100ce565b8062fdd58e146100d357806301ffc9a71461010357806303988f84146101335780630e89341c146101655780632eb2c2d6146101955780634e1273f4146101b1575b600080fd5b6100ed60048036038101906100e891906127bc565b6102b9565b6040516100fa919061280b565b60405180910390f35b61011d6004803603810190610118919061287e565b610382565b60405161012a91906128c6565b60405180910390f35b61014d600480360381019061014891906128e1565b610464565b60405161015c93929190612994565b60405180910390f35b61017f600480360381019061017a91906128e1565b6104db565b60405161018c9190612a64565b60405180910390f35b6101af60048036038101906101aa9190612c83565b61056f565b005b6101cb60048036038101906101c69190612e15565b610610565b6040516101d89190612f4b565b60405180910390f35b6101fb60048036038101906101f691906128e1565b610729565b005b61021760048036038101906102129190612f99565b6109d7565b005b610233600480360381019061022e91906128e1565b6109ed565b005b61024f600480360381019061024a9190612fd9565b610ef9565b005b61026b60048036038101906102669190613064565b6112a1565b005b61028760048036038101906102829190613103565b6117aa565b60405161029491906128c6565b60405180910390f35b6102b760048036038101906102b29190613143565b61183e565b005b60008073ffffffffffffffffffffffffffffffffffffffff168373ffffffffffffffffffffffffffffffffffffffff16141561032a576040517f08c379a00000000000000000000000000000000000000000000000000000000081526004016103219061324c565b60405180910390fd5b60008083815260200190815260200160002060008473ffffffffffffffffffffffffffffffffffffffff1673ffffffffffffffffffffffffffffffffffffffff16815260200190815260200160002054905092915050565b60007fd9b67a26000000000000000000000000000000000000000000000000000000007bffffffffffffffffffffffffffffffffffffffffffffffffffffffff1916827bffffffffffffffffffffffffffffffffffffffffffffffffffffffff1916148061044d57507f0e89341c000000000000000000000000000000000000000000000000000000007bffffffffffffffffffffffffffffffffffffffffffffffffffffffff1916827bffffffffffffffffffffffffffffffffffffffffffffffffffffffff1916145b8061045d575061045c82611902565b5b9050919050565b60046020528060005260406000206000915090508060000160009054906101000a900473ffffffffffffffffffffffffffffffffffffffff16908060010160009054906101000a900473ffffffffffffffffffffffffffffffffffffffff16908060060160009054906101000a900460ff16905083565b6060600280546104ea9061329b565b80601f01602080910402602001604051908101604052809291908181526020018280546105169061329b565b80156105635780601f1061053857610100808354040283529160200191610563565b820191906000526020600020905b81548152906001019060200180831161054657829003601f168201915b50505050509050919050565b61057761196c565b73ffffffffffffffffffffffffffffffffffffffff168573ffffffffffffffffffffffffffffffffffffffff1614806105bd57506105bc856105b761196c565b6117aa565b5b6105fc576040517f08c379a00000000000000000000000000000000000000000000000000000000081526004016105f39061333f565b60405180910390fd5b6106098585858585611974565b5050505050565b60608151835114610656576040517f08c379a000000000000000000000000000000000000000000000000000000000815260040161064d906133d1565b60405180910390fd5b6000835167ffffffffffffffff81111561067357610672612a8b565b5b6040519080825280602002602001820160405280156106a15781602001602082028036833780820191505090505b50905060005b845181101561071e576106ee8582815181106106c6576106c56133f1565b5b60200260200101518583815181106106e1576106e06133f1565b5b60200260200101516102b9565b828281518110610701576107006133f1565b5b602002602001018181525050806107179061344f565b90506106a7565b508091505092915050565b600060046000838152602001908152602001600020905060008160000160009054906101000a900473ffffffffffffffffffffffffffffffffffffffff16905060008260010160009054906101000a900473ffffffffffffffffffffffffffffffffffffffff169050600061079c61196c565b9050600073ffffffffffffffffffffffffffffffffffffffff168373ffffffffffffffffffffffffffffffffffffffff16141561080e576040517f08c379a0000000000000000000000000000000000000000000000000000000008152600401610805906134e4565b60405180910390fd5b8073ffffffffffffffffffffffffffffffffffffffff168373ffffffffffffffffffffffffffffffffffffffff16148061084e575061084d8382611c96565b5b8061088457508073ffffffffffffffffffffffffffffffffffffffff168273ffffffffffffffffffffffffffffffffffffffff16145b8061089557506108948282611c96565b5b6108d4576040517f08c379a00000000000000000000000000000000000000000000000000000000081526004016108cb90613576565b60405180910390fd5b8073ffffffffffffffffffffffffffffffffffffffff16857f90af83379d8595c89e65f7a24d8e34d82ba665bd027f7e7c61529730189bc57160405160405180910390a360046000868152602001908152602001600020600080820160006101000a81549073ffffffffffffffffffffffffffffffffffffffff02191690556001820160006101000a81549073ffffffffffffffffffffffffffffffffffffffff021916905560028201600061098a9190612689565b60038201600061099a9190612689565b6004820160006109aa9190612689565b6005820160006109ba9190612689565b6006820160006101000a81549060ff021916905550505050505050565b6109e96109e261196c565b8383611caa565b5050565b600060046000838152602001908152602001600020905060008160000160009054906101000a900473ffffffffffffffffffffffffffffffffffffffff169050600073ffffffffffffffffffffffffffffffffffffffff168173ffffffffffffffffffffffffffffffffffffffff161415610a9d576040517f08c379a0000000000000000000000000000000000000000000000000000000008152600401610a94906134e4565b60405180910390fd5b610aa561196c565b73ffffffffffffffffffffffffffffffffffffffff168173ffffffffffffffffffffffffffffffffffffffff161480610aeb5750610aea81610ae561196c565b611c96565b5b610b2a576040517f08c379a0000000000000000000000000000000000000000000000000000000008152600401610b2190613608565b60405180910390fd5b60008260060160009054906101000a900460ff169050600180811115610b5357610b5261291d565b5b816001811115610b6657610b6561291d565b5b14610ba6576040517f08c379a0000000000000000000000000000000000000000000000000000000008152600401610b9d9061369a565b60405180910390fd5b610c9f848460000160009054906101000a900473ffffffffffffffffffffffffffffffffffffffff168560010160009054906101000a900473ffffffffffffffffffffffffffffffffffffffff1686600201805480602002602001604051908101604052809291908181526020018280548015610c4257602002820191906000526020600020905b815481526020019060010190808311610c2e575b505050505087600301805480602002602001604051908101604052809291908181526020018280548015610c9557602002820191906000526020600020905b815481526020019060010190808311610c81575b5050505050611e17565b610d98848460010160009054906101000a900473ffffffffffffffffffffffffffffffffffffffff168560000160009054906101000a900473ffffffffffffffffffffffffffffffffffffffff1686600401805480602002602001604051908101604052809291908181526020018280548015610d3b57602002820191906000526020600020905b815481526020019060010190808311610d27575b505050505087600501805480602002602001604051908101604052809291908181526020018280548015610d8e57602002820191906000526020600020905b815481526020019060010190808311610d7a575b5050505050611e17565b8260010160009054906101000a900473ffffffffffffffffffffffffffffffffffffffff1673ffffffffffffffffffffffffffffffffffffffff168360000160009054906101000a900473ffffffffffffffffffffffffffffffffffffffff1673ffffffffffffffffffffffffffffffffffffffff16857fa5fbbfff4decd4f44ed03e28267dd014277bccd985cc2153acfa058f41ae8c0760405160405180910390a460046000858152602001908152602001600020600080820160006101000a81549073ffffffffffffffffffffffffffffffffffffffff02191690556001820160006101000a81549073ffffffffffffffffffffffffffffffffffffffff0219169055600282016000610ead9190612689565b600382016000610ebd9190612689565b600482016000610ecd9190612689565b600582016000610edd9190612689565b6006820160006101000a81549060ff0219169055505050505050565b600060046000858152602001908152602001600020905060008160010160009054906101000a900473ffffffffffffffffffffffffffffffffffffffff169050600073ffffffffffffffffffffffffffffffffffffffff168173ffffffffffffffffffffffffffffffffffffffff161415610fa9576040517f08c379a0000000000000000000000000000000000000000000000000000000008152600401610fa0906134e4565b60405180910390fd5b610fb161196c565b73ffffffffffffffffffffffffffffffffffffffff168173ffffffffffffffffffffffffffffffffffffffff161480610ff75750610ff681610ff161196c565b611c96565b5b611036576040517f08c379a000000000000000000000000000000000000000000000000000000000815260040161102d9061372c565b60405180910390fd5b8251845114801561104957506000845114155b611088576040517f08c379a000000000000000000000000000000000000000000000000000000000815260040161107f906137be565b60405180910390fd5b60008260060160009054906101000a900460ff169050600060018111156110b2576110b161291d565b5b8160018111156110c5576110c461291d565b5b14611105576040517f08c379a00000000000000000000000000000000000000000000000000000000081526004016110fc90613850565b60405180910390fd5b60005b84518110156111ad576000858281518110611126576111256133f1565b5b6020026020010151141561113982611e52565b6040516020016111499190613944565b60405160208183030381529060405290611199576040517f08c379a00000000000000000000000000000000000000000000000000000000081526004016111909190612a64565b60405180910390fd5b5080806111a59061344f565b915050611108565b5060018360060160006101000a81548160ff021916908360018111156111d6576111d561291d565b5b0217905550848360040190805190602001906111f39291906126aa565b508383600501908051906020019061120c9291906126aa565b508173ffffffffffffffffffffffffffffffffffffffff168360000160009054906101000a900473ffffffffffffffffffffffffffffffffffffffff1673ffffffffffffffffffffffffffffffffffffffff16877fda900e880533ef699d6aa6d2f335aebbaa3ee39bd882b9e04dd9ec026fedf7b88888604051611291929190613971565b60405180910390a4505050505050565b600073ffffffffffffffffffffffffffffffffffffffff168473ffffffffffffffffffffffffffffffffffffffff161415801561130b5750600073ffffffffffffffffffffffffffffffffffffffff168373ffffffffffffffffffffffffffffffffffffffff1614155b61134a576040517f08c379a000000000000000000000000000000000000000000000000000000000815260040161134190613a1a565b60405180910390fd5b61135261196c565b73ffffffffffffffffffffffffffffffffffffffff168473ffffffffffffffffffffffffffffffffffffffff16148061139857506113978461139261196c565b611c96565b5b6113d7576040517f08c379a00000000000000000000000000000000000000000000000000000000081526004016113ce90613608565b60405180910390fd5b805182511480156113ea57506000825114155b611429576040517f08c379a0000000000000000000000000000000000000000000000000000000008152600401611420906137be565b60405180910390fd5b60005b81518110156114d157600082828151811061144a576114496133f1565b5b6020026020010151141561145d82611e52565b60405160200161146d9190613944565b604051602081830303815290604052906114bd576040517f08c379a00000000000000000000000000000000000000000000000000000000081526004016114b49190612a64565b60405180910390fd5b5080806114c99061344f565b91505061142c565b506001600360008282546114e59190613a3a565b925050819055506040518060e001604052808573ffffffffffffffffffffffffffffffffffffffff1681526020018473ffffffffffffffffffffffffffffffffffffffff168152602001838152602001828152602001600067ffffffffffffffff81111561155657611555612a8b565b5b6040519080825280602002602001820160405280156115845781602001602082028036833780820191505090505b508152602001600067ffffffffffffffff8111156115a5576115a4612a8b565b5b6040519080825280602002602001820160405280156115d35781602001602082028036833780820191505090505b508152602001600060018111156115ed576115ec61291d565b5b81525060046000600354815260200190815260200160002060008201518160000160006101000a81548173ffffffffffffffffffffffffffffffffffffffff021916908373ffffffffffffffffffffffffffffffffffffffff16021790555060208201518160010160006101000a81548173ffffffffffffffffffffffffffffffffffffffff021916908373ffffffffffffffffffffffffffffffffffffffff16021790555060408201518160020190805190602001906116af9291906126aa565b5060608201518160030190805190602001906116cc9291906126aa565b5060808201518160040190805190602001906116e99291906126aa565b5060a08201518160050190805190602001906117069291906126aa565b5060c08201518160060160006101000a81548160ff021916908360018111156117325761173161291d565b5b02179055509050508273ffffffffffffffffffffffffffffffffffffffff168473ffffffffffffffffffffffffffffffffffffffff166003547f1c882919e2ba75ab4120979204c8cc6957374c1aa5845cd98feacacc9bdb4f0c858560405161179c929190613971565b60405180910390a450505050565b6000600160008473ffffffffffffffffffffffffffffffffffffffff1673ffffffffffffffffffffffffffffffffffffffff16815260200190815260200160002060008373ffffffffffffffffffffffffffffffffffffffff1673ffffffffffffffffffffffffffffffffffffffff16815260200190815260200160002060009054906101000a900460ff16905092915050565b61184661196c565b73ffffffffffffffffffffffffffffffffffffffff168573ffffffffffffffffffffffffffffffffffffffff16148061188c575061188b8561188661196c565b6117aa565b5b6118cb576040517f08c379a00000000000000000000000000000000000000000000000000000000081526004016118c29061333f565b60405180910390fd5b6118d88585858585611fb3565b5050505050565b6000808273ffffffffffffffffffffffffffffffffffffffff163b119050919050565b60007f01ffc9a7000000000000000000000000000000000000000000000000000000007bffffffffffffffffffffffffffffffffffffffffffffffffffffffff1916827bffffffffffffffffffffffffffffffffffffffffffffffffffffffff1916149050919050565b600033905090565b81518351146119b8576040517f08c379a00000000000000000000000000000000000000000000000000000000081526004016119af90613b02565b60405180910390fd5b600073ffffffffffffffffffffffffffffffffffffffff168473ffffffffffffffffffffffffffffffffffffffff161415611a28576040517f08c379a0000000000000000000000000000000000000000000000000000000008152600401611a1f90613b94565b60405180910390fd5b6000611a3261196c565b9050611a4281878787878761224f565b60005b8451811015611bf3576000858281518110611a6357611a626133f1565b5b602002602001015190506000858381518110611a8257611a816133f1565b5b60200260200101519050600080600084815260200190815260200160002060008b73ffffffffffffffffffffffffffffffffffffffff1673ffffffffffffffffffffffffffffffffffffffff16815260200190815260200160002054905081811015611b23576040517f08c379a0000000000000000000000000000000000000000000000000000000008152600401611b1a90613c26565b60405180910390fd5b81810360008085815260200190815260200160002060008c73ffffffffffffffffffffffffffffffffffffffff1673ffffffffffffffffffffffffffffffffffffffff168152602001908152602001600020819055508160008085815260200190815260200160002060008b73ffffffffffffffffffffffffffffffffffffffff1673ffffffffffffffffffffffffffffffffffffffff1681526020019081526020016000206000828254611bd89190613a3a565b9250508190555050505080611bec9061344f565b9050611a45565b508473ffffffffffffffffffffffffffffffffffffffff168673ffffffffffffffffffffffffffffffffffffffff168273ffffffffffffffffffffffffffffffffffffffff167f4a39dc06d4c0dbc64b70af90fd698a233a518aa5d07e595d983b8c0526c8f7fb8787604051611c6a929190613971565b60405180910390a4611c80818787878787612257565b611c8e81878787878761225f565b505050505050565b6000611ca283836117aa565b905092915050565b8173ffffffffffffffffffffffffffffffffffffffff168373ffffffffffffffffffffffffffffffffffffffff161415611d19576040517f08c379a0000000000000000000000000000000000000000000000000000000008152600401611d1090613cb8565b60405180910390fd5b80600160008573ffffffffffffffffffffffffffffffffffffffff1673ffffffffffffffffffffffffffffffffffffffff16815260200190815260200160002060008473ffffffffffffffffffffffffffffffffffffffff1673ffffffffffffffffffffffffffffffffffffffff16815260200190815260200160002060006101000a81548160ff0219169083151502179055508173ffffffffffffffffffffffffffffffffffffffff168373ffffffffffffffffffffffffffffffffffffffff167f17307eab39ab6107e8899845ad3d59bd9653f200f220920489ca2b5937696c3183604051611e0a91906128c6565b60405180910390a3505050565b611e4b84848484611e278a611e52565b604051602001611e379190613d4a565b604051602081830303815290604052611974565b5050505050565b60606000821415611e9a576040518060400160405280600181526020017f30000000000000000000000000000000000000000000000000000000000000008152509050611fae565b600082905060005b60008214611ecc578080611eb59061344f565b915050600a82611ec59190613d9b565b9150611ea2565b60008167ffffffffffffffff811115611ee857611ee7612a8b565b5b6040519080825280601f01601f191660200182016040528015611f1a5781602001600182028036833780820191505090505b5090505b60008514611fa757600182611f339190613dcc565b9150600a85611f429190613e00565b6030611f4e9190613a3a565b60f81b818381518110611f6457611f636133f1565b5b60200101907effffffffffffffffffffffffffffffffffffffffffffffffffffffffffffff1916908160001a905350600a85611fa09190613d9b565b9450611f1e565b8093505050505b919050565b600073ffffffffffffffffffffffffffffffffffffffff168473ffffffffffffffffffffffffffffffffffffffff161415612023576040517f08c379a000000000000000000000000000000000000000000000000000000000815260040161201a90613b94565b60405180910390fd5b600061202d61196c565b9050600061203a85612437565b9050600061204785612437565b905061205783898985858961224f565b600080600088815260200190815260200160002060008a73ffffffffffffffffffffffffffffffffffffffff1673ffffffffffffffffffffffffffffffffffffffff168152602001908152602001600020549050858110156120ee576040517f08c379a00000000000000000000000000000000000000000000000000000000081526004016120e590613c26565b60405180910390fd5b85810360008089815260200190815260200160002060008b73ffffffffffffffffffffffffffffffffffffffff1673ffffffffffffffffffffffffffffffffffffffff168152602001908152602001600020819055508560008089815260200190815260200160002060008a73ffffffffffffffffffffffffffffffffffffffff1673ffffffffffffffffffffffffffffffffffffffff16815260200190815260200160002060008282546121a39190613a3a565b925050819055508773ffffffffffffffffffffffffffffffffffffffff168973ffffffffffffffffffffffffffffffffffffffff168573ffffffffffffffffffffffffffffffffffffffff167fc3d58168c5ae7397731d063d5bbf3d657854427343f4c083240f7aacaa2d0f628a8a604051612220929190613e31565b60405180910390a4612236848a8a86868a612257565b612244848a8a8a8a8a6124b1565b505050505050505050565b505050505050565b505050505050565b61227e8473ffffffffffffffffffffffffffffffffffffffff166118df565b1561242f578373ffffffffffffffffffffffffffffffffffffffff1663bc197c8187878686866040518663ffffffff1660e01b81526004016122c4959493929190613eaf565b6020604051808303816000875af192505050801561230057506040513d601f19601f820116820180604052508101906122fd9190613f2c565b60015b6123a65761230c613f66565b806308c379a014156123695750612321613f88565b8061232c575061236b565b806040517f08c379a00000000000000000000000000000000000000000000000000000000081526004016123609190612a64565b60405180910390fd5b505b6040517f08c379a000000000000000000000000000000000000000000000000000000000815260040161239d90614090565b60405180910390fd5b63bc197c8160e01b7bffffffffffffffffffffffffffffffffffffffffffffffffffffffff1916817bffffffffffffffffffffffffffffffffffffffffffffffffffffffff19161461242d576040517f08c379a000000000000000000000000000000000000000000000000000000000815260040161242490614122565b60405180910390fd5b505b505050505050565b60606000600167ffffffffffffffff81111561245657612455612a8b565b5b6040519080825280602002602001820160405280156124845781602001602082028036833780820191505090505b509050828160008151811061249c5761249b6133f1565b5b60200260200101818152505080915050919050565b6124d08473ffffffffffffffffffffffffffffffffffffffff166118df565b15612681578373ffffffffffffffffffffffffffffffffffffffff1663f23a6e6187878686866040518663ffffffff1660e01b8152600401612516959493929190614142565b6020604051808303816000875af192505050801561255257506040513d601f19601f8201168201806040525081019061254f9190613f2c565b60015b6125f85761255e613f66565b806308c379a014156125bb5750612573613f88565b8061257e57506125bd565b806040517f08c379a00000000000000000000000000000000000000000000000000000000081526004016125b29190612a64565b60405180910390fd5b505b6040517f08c379a00000000000000000000000000000000000000000000000000000000081526004016125ef90614090565b60405180910390fd5b63f23a6e6160e01b7bffffffffffffffffffffffffffffffffffffffffffffffffffffffff1916817bffffffffffffffffffffffffffffffffffffffffffffffffffffffff19161461267f576040517f08c379a000000000000000000000000000000000000000000000000000000000815260040161267690614122565b60405180910390fd5b505b505050505050565b50805460008255906000526020600020908101906126a791906126f7565b50565b8280548282559060005260206000209081019282156126e6579160200282015b828111156126e55782518255916020019190600101906126ca565b5b5090506126f391906126f7565b5090565b5b808211156127105760008160009055506001016126f8565b5090565b6000604051905090565b600080fd5b600080fd5b600073ffffffffffffffffffffffffffffffffffffffff82169050919050565b600061275382612728565b9050919050565b61276381612748565b811461276e57600080fd5b50565b6000813590506127808161275a565b92915050565b6000819050919050565b61279981612786565b81146127a457600080fd5b50565b6000813590506127b681612790565b92915050565b600080604083850312156127d3576127d261271e565b5b60006127e185828601612771565b92505060206127f2858286016127a7565b9150509250929050565b61280581612786565b82525050565b600060208201905061282060008301846127fc565b92915050565b60007fffffffff0000000000000000000000000000000000000000000000000000000082169050919050565b61285b81612826565b811461286657600080fd5b50565b60008135905061287881612852565b92915050565b6000602082840312156128945761289361271e565b5b60006128a284828501612869565b91505092915050565b60008115159050919050565b6128c0816128ab565b82525050565b60006020820190506128db60008301846128b7565b92915050565b6000602082840312156128f7576128f661271e565b5b6000612905848285016127a7565b91505092915050565b61291781612748565b82525050565b7f4e487b7100000000000000000000000000000000000000000000000000000000600052602160045260246000fd5b6002811061295d5761295c61291d565b5b50565b600081905061296e8261294c565b919050565b600061297e82612960565b9050919050565b61298e81612973565b82525050565b60006060820190506129a9600083018661290e565b6129b6602083018561290e565b6129c36040830184612985565b949350505050565b600081519050919050565b600082825260208201905092915050565b60005b83811015612a055780820151818401526020810190506129ea565b83811115612a14576000848401525b50505050565b6000601f19601f8301169050919050565b6000612a36826129cb565b612a4081856129d6565b9350612a508185602086016129e7565b612a5981612a1a565b840191505092915050565b60006020820190508181036000830152612a7e8184612a2b565b905092915050565b600080fd5b7f4e487b7100000000000000000000000000000000000000000000000000000000600052604160045260246000fd5b612ac382612a1a565b810181811067ffffffffffffffff82111715612ae257612ae1612a8b565b5b80604052505050565b6000612af5612714565b9050612b018282612aba565b919050565b600067ffffffffffffffff821115612b2157612b20612a8b565b5b602082029050602081019050919050565b600080fd5b6000612b4a612b4584612b06565b612aeb565b90508083825260208201905060208402830185811115612b6d57612b6c612b32565b5b835b81811015612b965780612b8288826127a7565b845260208401935050602081019050612b6f565b5050509392505050565b600082601f830112612bb557612bb4612a86565b5b8135612bc5848260208601612b37565b91505092915050565b600080fd5b600067ffffffffffffffff821115612bee57612bed612a8b565b5b612bf782612a1a565b9050602081019050919050565b82818337600083830152505050565b6000612c26612c2184612bd3565b612aeb565b905082815260208101848484011115612c4257612c41612bce565b5b612c4d848285612c04565b509392505050565b600082601f830112612c6a57612c69612a86565b5b8135612c7a848260208601612c13565b91505092915050565b600080600080600060a08688031215612c9f57612c9e61271e565b5b6000612cad88828901612771565b9550506020612cbe88828901612771565b945050604086013567ffffffffffffffff811115612cdf57612cde612723565b5b612ceb88828901612ba0565b935050606086013567ffffffffffffffff811115612d0c57612d0b612723565b5b612d1888828901612ba0565b925050608086013567ffffffffffffffff811115612d3957612d38612723565b5b612d4588828901612c55565b9150509295509295909350565b600067ffffffffffffffff821115612d6d57612d6c612a8b565b5b602082029050602081019050919050565b6000612d91612d8c84612d52565b612aeb565b90508083825260208201905060208402830185811115612db457612db3612b32565b5b835b81811015612ddd5780612dc98882612771565b845260208401935050602081019050612db6565b5050509392505050565b600082601f830112612dfc57612dfb612a86565b5b8135612e0c848260208601612d7e565b91505092915050565b60008060408385031215612e2c57612e2b61271e565b5b600083013567ffffffffffffffff811115612e4a57612e49612723565b5b612e5685828601612de7565b925050602083013567ffffffffffffffff811115612e7757612e76612723565b5b612e8385828601612ba0565b9150509250929050565b600081519050919050565b600082825260208201905092915050565b6000819050602082019050919050565b612ec281612786565b82525050565b6000612ed48383612eb9565b60208301905092915050565b6000602082019050919050565b6000612ef882612e8d565b612f028185612e98565b9350612f0d83612ea9565b8060005b83811015612f3e578151612f258882612ec8565b9750612f3083612ee0565b925050600181019050612f11565b5085935050505092915050565b60006020820190508181036000830152612f658184612eed565b905092915050565b612f76816128ab565b8114612f8157600080fd5b50565b600081359050612f9381612f6d565b92915050565b60008060408385031215612fb057612faf61271e565b5b6000612fbe85828601612771565b9250506020612fcf85828601612f84565b9150509250929050565b600080600060608486031215612ff257612ff161271e565b5b6000613000868287016127a7565b935050602084013567ffffffffffffffff81111561302157613020612723565b5b61302d86828701612ba0565b925050604084013567ffffffffffffffff81111561304e5761304d612723565b5b61305a86828701612ba0565b9150509250925092565b6000806000806080858703121561307e5761307d61271e565b5b600061308c87828801612771565b945050602061309d87828801612771565b935050604085013567ffffffffffffffff8111156130be576130bd612723565b5b6130ca87828801612ba0565b925050606085013567ffffffffffffffff8111156130eb576130ea612723565b5b6130f787828801612ba0565b91505092959194509250565b6000806040838503121561311a5761311961271e565b5b600061312885828601612771565b925050602061313985828601612771565b9150509250929050565b600080600080600060a0868803121561315f5761315e61271e565b5b600061316d88828901612771565b955050602061317e88828901612771565b945050604061318f888289016127a7565b93505060606131a0888289016127a7565b925050608086013567ffffffffffffffff8111156131c1576131c0612723565b5b6131cd88828901612c55565b9150509295509295909350565b7f455243313135353a2061646472657373207a65726f206973206e6f742061207660008201527f616c6964206f776e657200000000000000000000000000000000000000000000602082015250565b6000613236602a836129d6565b9150613241826131da565b604082019050919050565b6000602082019050818103600083015261326581613229565b9050919050565b7f4e487b7100000000000000000000000000000000000000000000000000000000600052602260045260246000fd5b600060028204905060018216806132b357607f821691505b602082108114156132c7576132c661326c565b5b50919050565b7f455243313135353a2063616c6c6572206973206e6f7420746f6b656e206f776e60008201527f6572206e6f7220617070726f7665640000000000000000000000000000000000602082015250565b6000613329602f836129d6565b9150613334826132cd565b604082019050919050565b600060208201905081810360008301526133588161331c565b9050919050565b7f455243313135353a206163636f756e747320616e6420696473206c656e67746860008201527f206d69736d617463680000000000000000000000000000000000000000000000602082015250565b60006133bb6029836129d6565b91506133c68261335f565b604082019050919050565b600060208201905081810360008301526133ea816133ae565b9050919050565b7f4e487b7100000000000000000000000000000000000000000000000000000000600052603260045260246000fd5b7f4e487b7100000000000000000000000000000000000000000000000000000000600052601160045260246000fd5b600061345a82612786565b91507fffffffffffffffffffffffffffffffffffffffffffffffffffffffffffffffff82141561348d5761348c613420565b5b600182019050919050565b7f5361666545786368616e67653a20696e76616c6964206465616c000000000000600082015250565b60006134ce601a836129d6565b91506134d982613498565b602082019050919050565b600060208201905081810360008301526134fd816134c1565b9050919050565b7f5361666545786368616e67653a2063616c6c6572206973206e6f7420656d697460008201527f7465722f7265636569766572206e6f7220617070726f76656400000000000000602082015250565b60006135606039836129d6565b915061356b82613504565b604082019050919050565b6000602082019050818103600083015261358f81613553565b9050919050565b7f5361666545786368616e67653a2063616c6c6572206973206e6f7420656d697460008201527f746572206e6f7220617070726f76656400000000000000000000000000000000602082015250565b60006135f26030836129d6565b91506135fd82613596565b604082019050919050565b60006020820190508181036000830152613621816135e5565b9050919050565b7f5361666545786368616e67653a206465616c206973206e6f7420696e206a757360008201527f742d616363657074656420737461746500000000000000000000000000000000602082015250565b60006136846030836129d6565b915061368f82613628565b604082019050919050565b600060208201905081810360008301526136b381613677565b9050919050565b7f5361666545786368616e67653a2063616c6c6572206973206e6f74207265636560008201527f69766572206e6f7220617070726f766564000000000000000000000000000000602082015250565b60006137166031836129d6565b9150613721826136ba565b604082019050919050565b6000602082019050818103600083015261374581613709565b9050919050565b7f5361666545786368616e67653a20746f6b656e2069647320616e6420616d6f7560008201527f6e7473206c656e677468206d69736d61746368206f7220300000000000000000602082015250565b60006137a86038836129d6565b91506137b38261374c565b604082019050919050565b600060208201905081810360008301526137d78161379b565b9050919050565b7f5361666545786368616e67653a206465616c206973206e6f7420696e206a757360008201527f742d637265617465642073746174650000000000000000000000000000000000602082015250565b600061383a602f836129d6565b9150613845826137de565b604082019050919050565b600060208201905081810360008301526138698161382d565b9050919050565b600081905092915050565b7f5361666545786368616e67653a20746f6b656e20696e20706f736974696f6e20600082015250565b60006138b1602083613870565b91506138bc8261387b565b602082019050919050565b60006138d2826129cb565b6138dc8185613870565b93506138ec8185602086016129e7565b80840191505092915050565b7f206d757374206e6f74206861766520616d6f756e74206f662030000000000000600082015250565b600061392e601a83613870565b9150613939826138f8565b601a82019050919050565b600061394f826138a4565b915061395b82846138c7565b915061396682613921565b915081905092915050565b6000604082019050818103600083015261398b8185612eed565b9050818103602083015261399f8184612eed565b90509392505050565b7f5361666545786368616e67653a207472616e736665722066726f6d2f746f207460008201527f6865207a65726f20616464726573730000000000000000000000000000000000602082015250565b6000613a04602f836129d6565b9150613a0f826139a8565b604082019050919050565b60006020820190508181036000830152613a33816139f7565b9050919050565b6000613a4582612786565b9150613a5083612786565b9250827fffffffffffffffffffffffffffffffffffffffffffffffffffffffffffffffff03821115613a8557613a84613420565b5b828201905092915050565b7f455243313135353a2069647320616e6420616d6f756e7473206c656e6774682060008201527f6d69736d61746368000000000000000000000000000000000000000000000000602082015250565b6000613aec6028836129d6565b9150613af782613a90565b604082019050919050565b60006020820190508181036000830152613b1b81613adf565b9050919050565b7f455243313135353a207472616e7366657220746f20746865207a65726f20616460008201527f6472657373000000000000000000000000000000000000000000000000000000602082015250565b6000613b7e6025836129d6565b9150613b8982613b22565b604082019050919050565b60006020820190508181036000830152613bad81613b71565b9050919050565b7f455243313135353a20696e73756666696369656e742062616c616e636520666f60008201527f72207472616e7366657200000000000000000000000000000000000000000000602082015250565b6000613c10602a836129d6565b9150613c1b82613bb4565b604082019050919050565b60006020820190508181036000830152613c3f81613c03565b9050919050565b7f455243313135353a2073657474696e6720617070726f76616c2073746174757360008201527f20666f722073656c660000000000000000000000000000000000000000000000602082015250565b6000613ca26029836129d6565b9150613cad82613c46565b604082019050919050565b60006020820190508181036000830152613cd181613c95565b9050919050565b7f53616d706c6545524331313535576974685361666545786368616e67653a206560008201527f7865637574696e67206465616c20000000000000000000000000000000000000602082015250565b6000613d34602e83613870565b9150613d3f82613cd8565b602e82019050919050565b6000613d5582613d27565b9150613d6182846138c7565b915081905092915050565b7f4e487b7100000000000000000000000000000000000000000000000000000000600052601260045260246000fd5b6000613da682612786565b9150613db183612786565b925082613dc157613dc0613d6c565b5b828204905092915050565b6000613dd782612786565b9150613de283612786565b925082821015613df557613df4613420565b5b828203905092915050565b6000613e0b82612786565b9150613e1683612786565b925082613e2657613e25613d6c565b5b828206905092915050565b6000604082019050613e4660008301856127fc565b613e5360208301846127fc565b9392505050565b600081519050919050565b600082825260208201905092915050565b6000613e8182613e5a565b613e8b8185613e65565b9350613e9b8185602086016129e7565b613ea481612a1a565b840191505092915050565b600060a082019050613ec4600083018861290e565b613ed1602083018761290e565b8181036040830152613ee38186612eed565b90508181036060830152613ef78185612eed565b90508181036080830152613f0b8184613e76565b90509695505050505050565b600081519050613f2681612852565b92915050565b600060208284031215613f4257613f4161271e565b5b6000613f5084828501613f17565b91505092915050565b60008160e01c9050919050565b600060033d1115613f855760046000803e613f82600051613f59565b90505b90565b600060443d1015613f985761401b565b613fa0612714565b60043d036004823e80513d602482011167ffffffffffffffff82111715613fc857505061401b565b808201805167ffffffffffffffff811115613fe6575050505061401b565b80602083010160043d03850181111561400357505050505061401b565b61401282602001850186612aba565b82955050505050505b90565b7f455243313135353a207472616e7366657220746f206e6f6e204552433131353560008201527f526563656976657220696d706c656d656e746572000000000000000000000000602082015250565b600061407a6034836129d6565b91506140858261401e565b604082019050919050565b600060208201905081810360008301526140a98161406d565b9050919050565b7f455243313135353a204552433131353552656365697665722072656a6563746560008201527f6420746f6b656e73000000000000000000000000000000000000000000000000602082015250565b600061410c6028836129d6565b9150614117826140b0565b604082019050919050565b6000602082019050818103600083015261413b816140ff565b9050919050565b600060a082019050614157600083018861290e565b614164602083018761290e565b61417160408301866127fc565b61417e60608301856127fc565b81810360808301526141908184613e76565b9050969550505050505056fea26469706673582212206bf0eeaab6232328d38f15eaf602962225df13a20ab2cc6ebb9adfd01687062864736f6c634300080a0033",
  "immutableReferences": {},
  "source": "// SPDX-License-Identifier: MIT\npragma solidity >=0.8 <0.9.0;\n\nimport \"@openzeppelin/contracts/token/ERC1155/ERC1155.sol\";\nimport \"@openzeppelin/contracts/utils/Strings.sol\";\nimport \"../SafeExchange.sol\";\n\ncontract SampleERC1155WithSafeExchange is ERC1155, SafeExchange\n{\n    constructor() ERC1155(\"about:blank\") {\n        _mint(_msgSender(), 1, 1 ether, \"test\");\n        _mint(_msgSender(), 2, 2 ether, \"test\");\n        _mint(_msgSender(), 3, 3 ether, \"test\");\n    }\n\n    function _batchTransfer(\n        uint256 _dealIndex, address _from, address _to, uint256[] memory _tokenIds, uint256[] memory _tokenAmounts\n    ) internal override {\n        _safeBatchTransferFrom(_from, _to, _tokenIds, _tokenAmounts, abi.encodePacked(\n            \"SampleERC1155WithSafeExchange: executing deal \", Strings.toString(_dealIndex)\n        ));\n    }\n\n    function _isApproved(address _party, address _sender) internal override view returns (bool) {\n        return isApprovedForAll(_party, _sender);\n    }\n}\n",
  "sourcePath": "/home/luismasuelli/Projects/OuterMaze/lingr-contracts/contracts/samples/SampleERC1155WithSafeExchange.sol",
  "compiler": {
    "name": "solc",
    "version": "0.8.10+commit.fc410830.Emscripten.clang"
  },
  "schemaVersion": "3.4.3",
  "updatedAt": "2022-07-24T19:36:35.183Z",
  "devdoc": {
    "kind": "dev",
    "methods": {
      "balanceOf(address,uint256)": {
        "details": "See {IERC1155-balanceOf}. Requirements: - `account` cannot be the zero address."
      },
      "balanceOfBatch(address[],uint256[])": {
        "details": "See {IERC1155-balanceOfBatch}. Requirements: - `accounts` and `ids` must have the same length."
      },
      "isApprovedForAll(address,address)": {
        "details": "See {IERC1155-isApprovedForAll}."
      },
      "safeBatchTransferFrom(address,address,uint256[],uint256[],bytes)": {
        "details": "See {IERC1155-safeBatchTransferFrom}."
      },
      "safeTransferFrom(address,address,uint256,uint256,bytes)": {
        "details": "See {IERC1155-safeTransferFrom}."
      },
      "setApprovalForAll(address,bool)": {
        "details": "See {IERC1155-setApprovalForAll}."
      },
      "supportsInterface(bytes4)": {
        "details": "See {IERC165-supportsInterface}."
      },
      "uri(uint256)": {
        "details": "See {IERC1155MetadataURI-uri}. This implementation returns the same URI for *all* token types. It relies on the token type ID substitution mechanism https://eips.ethereum.org/EIPS/eip-1155#metadata[defined in the EIP]. Clients calling this function must replace the `\\{id\\}` substring with the actual token type ID."
      }
    },
    "version": 1
  },
  "userdoc": {
    "events": {
      "DealAccepted(uint256,address,address,uint256[],uint256[])": {
        "notice": "This event is raised when a deal is accepted by the receiver."
      },
      "DealBroken(uint256,address)": {
        "notice": "This event is raised when a deal is broken by its emitter, the receiver, or an operator on behalf of any of them."
      },
      "DealConfirmed(uint256,address,address)": {
        "notice": "This event is raised when a deal is confirmed by its creator, after the receiver's acceptance."
      },
      "DealStarted(uint256,address,address,uint256[],uint256[])": {
        "notice": "This event is raised when a new deal is created."
      }
    },
    "kind": "user",
    "methods": {
      "dealAccept(uint256,uint256[],uint256[])": {
        "notice": "Accepting a deal requires the deal to be valid, the sender to be the deal receiver (or an allowed operator of the deal receiver), and the deal to be in the appropriate state. Also, the objects data must be non-empty and no element must be 0."
      },
      "dealBreak(uint256)": {
        "notice": "Breaking a deal requires the deal to be valid, the sender to be the emitter (or approved) or the receiver (or approved)."
      },
      "dealConfirm(uint256)": {
        "notice": "Confirming a deal requires the deal to be valid, the sender to be the deal emitter (or an allowed operator of the deal emitter), and the deal to be in the appropriate state."
      },
      "dealStart(address,address,uint256[],uint256[])": {
        "notice": "Starting a deal requires the sender to be the _emitter address or an address the sender can operate on their behalf. Also, the objects data must be non-empty, and no element must be 0."
      },
      "deals(uint256)": {
        "notice": "All the ACTIVE / PENDING deals instantiated so far."
      }
    },
    "version": 1
  }
}