{
  "contractName": "SampleERC1155WithBrandRegistry",
  "abi": [
    {
      "inputs": [],
      "stateMutability": "nonpayable",
      "type": "constructor"
    },
    {
      "anonymous": false,
      "inputs": [
        {
          "indexed": true,
          "internalType": "address",
          "name": "account",
          "type": "address"
        },
        {
          "indexed": true,
          "internalType": "address",
          "name": "operator",
          "type": "address"
        },
        {
          "indexed": false,
          "internalType": "bool",
          "name": "approved",
          "type": "bool"
        }
      ],
      "name": "ApprovalForAll",
      "type": "event"
    },
    {
      "anonymous": false,
      "inputs": [
        {
          "indexed": true,
          "internalType": "address",
          "name": "withdrawnBy",
          "type": "address"
        },
        {
          "indexed": false,
          "internalType": "uint256",
          "name": "amount",
          "type": "uint256"
        }
      ],
      "name": "BrandEarningsWithdrawn",
      "type": "event"
    },
    {
      "anonymous": false,
      "inputs": [
        {
          "indexed": true,
          "internalType": "address",
          "name": "registeredBy",
          "type": "address"
        },
        {
          "indexed": true,
          "internalType": "address",
          "name": "brandId",
          "type": "address"
        },
        {
          "indexed": false,
          "internalType": "string",
          "name": "name",
          "type": "string"
        },
        {
          "indexed": false,
          "internalType": "string",
          "name": "description",
          "type": "string"
        },
        {
          "indexed": false,
          "internalType": "uint256",
          "name": "price",
          "type": "uint256"
        }
      ],
      "name": "BrandRegistered",
      "type": "event"
    },
    {
      "anonymous": false,
      "inputs": [
        {
          "indexed": false,
          "internalType": "uint256",
          "name": "newCost",
          "type": "uint256"
        }
      ],
      "name": "BrandRegistrationCostUpdated",
      "type": "event"
    },
    {
      "anonymous": false,
      "inputs": [
        {
          "indexed": true,
          "internalType": "address",
          "name": "operator",
          "type": "address"
        },
        {
          "indexed": true,
          "internalType": "address",
          "name": "from",
          "type": "address"
        },
        {
          "indexed": true,
          "internalType": "address",
          "name": "to",
          "type": "address"
        },
        {
          "indexed": false,
          "internalType": "uint256[]",
          "name": "ids",
          "type": "uint256[]"
        },
        {
          "indexed": false,
          "internalType": "uint256[]",
          "name": "values",
          "type": "uint256[]"
        }
      ],
      "name": "TransferBatch",
      "type": "event"
    },
    {
      "anonymous": false,
      "inputs": [
        {
          "indexed": true,
          "internalType": "address",
          "name": "operator",
          "type": "address"
        },
        {
          "indexed": true,
          "internalType": "address",
          "name": "from",
          "type": "address"
        },
        {
          "indexed": true,
          "internalType": "address",
          "name": "to",
          "type": "address"
        },
        {
          "indexed": false,
          "internalType": "uint256",
          "name": "id",
          "type": "uint256"
        },
        {
          "indexed": false,
          "internalType": "uint256",
          "name": "value",
          "type": "uint256"
        }
      ],
      "name": "TransferSingle",
      "type": "event"
    },
    {
      "anonymous": false,
      "inputs": [
        {
          "indexed": false,
          "internalType": "string",
          "name": "value",
          "type": "string"
        },
        {
          "indexed": true,
          "internalType": "uint256",
          "name": "id",
          "type": "uint256"
        }
      ],
      "name": "URI",
      "type": "event"
    },
    {
      "inputs": [
        {
          "internalType": "address",
          "name": "account",
          "type": "address"
        },
        {
          "internalType": "uint256",
          "name": "id",
          "type": "uint256"
        }
      ],
      "name": "balanceOf",
      "outputs": [
        {
          "internalType": "uint256",
          "name": "",
          "type": "uint256"
        }
      ],
      "stateMutability": "view",
      "type": "function"
    },
    {
      "inputs": [
        {
          "internalType": "address[]",
          "name": "accounts",
          "type": "address[]"
        },
        {
          "internalType": "uint256[]",
          "name": "ids",
          "type": "uint256[]"
        }
      ],
      "name": "balanceOfBatch",
      "outputs": [
        {
          "internalType": "uint256[]",
          "name": "",
          "type": "uint256[]"
        }
      ],
      "stateMutability": "view",
      "type": "function"
    },
    {
      "inputs": [
        {
          "internalType": "address",
          "name": "_brandId",
          "type": "address"
        }
      ],
      "name": "brandMetadata",
      "outputs": [
        {
          "internalType": "string",
          "name": "",
          "type": "string"
        }
      ],
      "stateMutability": "view",
      "type": "function"
    },
    {
      "inputs": [],
      "name": "brandRegistrationCost",
      "outputs": [
        {
          "internalType": "uint256",
          "name": "",
          "type": "uint256"
        }
      ],
      "stateMutability": "view",
      "type": "function"
    },
    {
      "inputs": [],
      "name": "brandRegistrationCurrentEarnings",
      "outputs": [
        {
          "internalType": "uint256",
          "name": "",
          "type": "uint256"
        }
      ],
      "stateMutability": "view",
      "type": "function"
    },
    {
      "inputs": [
        {
          "internalType": "address",
          "name": "account",
          "type": "address"
        },
        {
          "internalType": "address",
          "name": "operator",
          "type": "address"
        }
      ],
      "name": "isApprovedForAll",
      "outputs": [
        {
          "internalType": "bool",
          "name": "",
          "type": "bool"
        }
      ],
      "stateMutability": "view",
      "type": "function"
    },
    {
      "inputs": [],
      "name": "owner",
      "outputs": [
        {
          "internalType": "address",
          "name": "",
          "type": "address"
        }
      ],
      "stateMutability": "view",
      "type": "function"
    },
    {
      "inputs": [
        {
          "internalType": "string",
          "name": "_name",
          "type": "string"
        },
        {
          "internalType": "string",
          "name": "_description",
          "type": "string"
        },
        {
          "internalType": "string",
          "name": "_image",
          "type": "string"
        },
        {
          "internalType": "string",
          "name": "_challengeUrl",
          "type": "string"
        },
        {
          "internalType": "string",
          "name": "_icon16x16",
          "type": "string"
        },
        {
          "internalType": "string",
          "name": "_icon32x32",
          "type": "string"
        },
        {
          "internalType": "string",
          "name": "_icon64x64",
          "type": "string"
        }
      ],
      "name": "registerBrand",
      "outputs": [],
      "stateMutability": "payable",
      "type": "function"
    },
    {
      "inputs": [
        {
          "internalType": "address",
          "name": "from",
          "type": "address"
        },
        {
          "internalType": "address",
          "name": "to",
          "type": "address"
        },
        {
          "internalType": "uint256[]",
          "name": "ids",
          "type": "uint256[]"
        },
        {
          "internalType": "uint256[]",
          "name": "amounts",
          "type": "uint256[]"
        },
        {
          "internalType": "bytes",
          "name": "data",
          "type": "bytes"
        }
      ],
      "name": "safeBatchTransferFrom",
      "outputs": [],
      "stateMutability": "nonpayable",
      "type": "function"
    },
    {
      "inputs": [
        {
          "internalType": "address",
          "name": "from",
          "type": "address"
        },
        {
          "internalType": "address",
          "name": "to",
          "type": "address"
        },
        {
          "internalType": "uint256",
          "name": "id",
          "type": "uint256"
        },
        {
          "internalType": "uint256",
          "name": "amount",
          "type": "uint256"
        },
        {
          "internalType": "bytes",
          "name": "data",
          "type": "bytes"
        }
      ],
      "name": "safeTransferFrom",
      "outputs": [],
      "stateMutability": "nonpayable",
      "type": "function"
    },
    {
      "inputs": [
        {
          "internalType": "address",
          "name": "operator",
          "type": "address"
        },
        {
          "internalType": "bool",
          "name": "approved",
          "type": "bool"
        }
      ],
      "name": "setApprovalForAll",
      "outputs": [],
      "stateMutability": "nonpayable",
      "type": "function"
    },
    {
      "inputs": [
        {
          "internalType": "uint256",
          "name": "_newCost",
          "type": "uint256"
        }
      ],
      "name": "setBrandRegistrationCost",
      "outputs": [],
      "stateMutability": "nonpayable",
      "type": "function"
    },
    {
      "inputs": [
        {
          "internalType": "bytes4",
          "name": "interfaceId",
          "type": "bytes4"
        }
      ],
      "name": "supportsInterface",
      "outputs": [
        {
          "internalType": "bool",
          "name": "",
          "type": "bool"
        }
      ],
      "stateMutability": "view",
      "type": "function"
    },
    {
      "inputs": [
        {
          "internalType": "address",
          "name": "_brandId",
          "type": "address"
        },
        {
          "internalType": "string",
          "name": "_challengeUrl",
          "type": "string"
        }
      ],
      "name": "updateBrandChallengeUrl",
      "outputs": [],
      "stateMutability": "nonpayable",
      "type": "function"
    },
    {
      "inputs": [
        {
          "internalType": "address",
          "name": "_brandId",
          "type": "address"
        },
        {
          "internalType": "string",
          "name": "_icon",
          "type": "string"
        }
      ],
      "name": "updateBrandIcon16x16Url",
      "outputs": [],
      "stateMutability": "nonpayable",
      "type": "function"
    },
    {
      "inputs": [
        {
          "internalType": "address",
          "name": "_brandId",
          "type": "address"
        },
        {
          "internalType": "string",
          "name": "_icon",
          "type": "string"
        }
      ],
      "name": "updateBrandIcon32x32Url",
      "outputs": [],
      "stateMutability": "nonpayable",
      "type": "function"
    },
    {
      "inputs": [
        {
          "internalType": "address",
          "name": "_brandId",
          "type": "address"
        },
        {
          "internalType": "string",
          "name": "_icon",
          "type": "string"
        }
      ],
      "name": "updateBrandIcon64x64Url",
      "outputs": [],
      "stateMutability": "nonpayable",
      "type": "function"
    },
    {
      "inputs": [
        {
          "internalType": "address",
          "name": "_brandId",
          "type": "address"
        },
        {
          "internalType": "string",
          "name": "_image",
          "type": "string"
        }
      ],
      "name": "updateBrandImage",
      "outputs": [],
      "stateMutability": "nonpayable",
      "type": "function"
    },
    {
      "inputs": [
        {
          "internalType": "uint256",
          "name": "",
          "type": "uint256"
        }
      ],
      "name": "uri",
      "outputs": [
        {
          "internalType": "string",
          "name": "",
          "type": "string"
        }
      ],
      "stateMutability": "view",
      "type": "function"
    },
    {
      "inputs": [
        {
          "internalType": "uint256",
          "name": "amount",
          "type": "uint256"
        }
      ],
      "name": "withdrawBrandRegistrationEarnings",
      "outputs": [],
      "stateMutability": "nonpayable",
      "type": "function"
    }
  ],
  "bytecode": "0x60806040523480156200001157600080fd5b506040518060400160405280600b81526020017f61626f75743a626c616e6b0000000000000000000000000000000000000000008152506200005981620000a160201b60201c565b5033600760006101000a81548173ffffffffffffffffffffffffffffffffffffffff021916908373ffffffffffffffffffffffffffffffffffffffff160217905550620001d2565b8060029080519060200190620000b9929190620000bd565b5050565b828054620000cb906200019c565b90600052602060002090601f016020900481019282620000ef57600085556200013b565b82601f106200010a57805160ff19168380011785556200013b565b828001600101855582156200013b579182015b828111156200013a5782518255916020019190600101906200011d565b5b5090506200014a91906200014e565b5090565b5b80821115620001695760008160009055506001016200014f565b5090565b7f4e487b7100000000000000000000000000000000000000000000000000000000600052602260045260246000fd5b60006002820490506001821680620001b557607f821691505b60208210811415620001cc57620001cb6200016d565b5b50919050565b6150f380620001e26000396000f3fe60806040526004361061011e5760003560e01c806351a8de60116100a057806399de09ff1161006457806399de09ff146103d3578063a22cb465146103fc578063e838116814610425578063e985e9c514610462578063f242432a1461049f5761011e565b806351a8de601461031157806352ea8a361461033a57806374ee38681461036357806378df8fb71461037f5780638da5cb5b146103a85761011e565b80632eb2c2d6116100e75780632eb2c2d61461022e5780633c1213fb146102575780633e49d9251461028057806343779197146102ab5780634e1273f4146102d45761011e565b8062fdd58e1461012357806301ffc9a7146101605780630e89341c1461019d5780630f73da86146101da57806320c6940b14610205575b600080fd5b34801561012f57600080fd5b5061014a60048036038101906101459190612e4d565b6104c8565b6040516101579190612e9c565b60405180910390f35b34801561016c57600080fd5b5061018760048036038101906101829190612f0f565b610591565b6040516101949190612f57565b60405180910390f35b3480156101a957600080fd5b506101c460048036038101906101bf9190612f72565b610673565b6040516101d19190613038565b60405180910390f35b3480156101e657600080fd5b506101ef610707565b6040516101fc9190612e9c565b60405180910390f35b34801561021157600080fd5b5061022c6004803603810190610227919061318f565b61070d565b005b34801561023a57600080fd5b5061025560048036038101906102509190613354565b610895565b005b34801561026357600080fd5b5061027e6004803603810190610279919061318f565b610936565b005b34801561028c57600080fd5b50610295610abe565b6040516102a29190612e9c565b60405180910390f35b3480156102b757600080fd5b506102d260048036038101906102cd9190612f72565b610ac4565b005b3480156102e057600080fd5b506102fb60048036038101906102f691906134e6565b610b9e565b604051610308919061361c565b60405180910390f35b34801561031d57600080fd5b506103386004803603810190610333919061318f565b610cb7565b005b34801561034657600080fd5b50610361600480360381019061035c919061318f565b610e84565b005b61037d6004803603810190610378919061363e565b61100c565b005b34801561038b57600080fd5b506103a660048036038101906103a1919061318f565b61141c565b005b3480156103b457600080fd5b506103bd6115a4565b6040516103ca91906137b3565b60405180910390f35b3480156103df57600080fd5b506103fa60048036038101906103f59190612f72565b6115ca565b005b34801561040857600080fd5b50610423600480360381019061041e91906137fa565b61170a565b005b34801561043157600080fd5b5061044c6004803603810190610447919061383a565b611720565b6040516104599190613038565b60405180910390f35b34801561046e57600080fd5b5061048960048036038101906104849190613867565b611847565b6040516104969190612f57565b60405180910390f35b3480156104ab57600080fd5b506104c660048036038101906104c191906138a7565b6118db565b005b60008073ffffffffffffffffffffffffffffffffffffffff168373ffffffffffffffffffffffffffffffffffffffff161415610539576040517f08c379a0000000000000000000000000000000000000000000000000000000008152600401610530906139b0565b60405180910390fd5b60008083815260200190815260200160002060008473ffffffffffffffffffffffffffffffffffffffff1673ffffffffffffffffffffffffffffffffffffffff16815260200190815260200160002054905092915050565b60007fd9b67a26000000000000000000000000000000000000000000000000000000007bffffffffffffffffffffffffffffffffffffffffffffffffffffffff1916827bffffffffffffffffffffffffffffffffffffffffffffffffffffffff1916148061065c57507f0e89341c000000000000000000000000000000000000000000000000000000007bffffffffffffffffffffffffffffffffffffffffffffffffffffffff1916827bffffffffffffffffffffffffffffffffffffffffffffffffffffffff1916145b8061066c575061066b8261197c565b5b9050919050565b606060028054610682906139ff565b80601f01602080910402602001604051908101604052809291908181526020018280546106ae906139ff565b80156106fb5780601f106106d0576101008083540402835291602001916106fb565b820191906000526020600020905b8154815290600101906020018083116106de57829003601f168201915b50505050509050919050565b60065481565b816000600460008373ffffffffffffffffffffffffffffffffffffffff1673ffffffffffffffffffffffffffffffffffffffff16815260200190815260200160002060000160009054906101000a900473ffffffffffffffffffffffffffffffffffffffff169050600061077f6119e6565b9050600073ffffffffffffffffffffffffffffffffffffffff168273ffffffffffffffffffffffffffffffffffffffff1614806107e757508173ffffffffffffffffffffffffffffffffffffffff168173ffffffffffffffffffffffffffffffffffffffff16145b806107f857506107f782826119ee565b5b610837576040517f08c379a000000000000000000000000000000000000000000000000000000000815260040161082e90613aa3565b60405180910390fd5b83600460008773ffffffffffffffffffffffffffffffffffffffff1673ffffffffffffffffffffffffffffffffffffffff168152602001908152602001600020600501908051906020019061088d929190612d02565b505050505050565b61089d6119e6565b73ffffffffffffffffffffffffffffffffffffffff168573ffffffffffffffffffffffffffffffffffffffff1614806108e357506108e2856108dd6119e6565b611847565b5b610922576040517f08c379a000000000000000000000000000000000000000000000000000000000815260040161091990613b35565b60405180910390fd5b61092f8585858585611a02565b5050505050565b816000600460008373ffffffffffffffffffffffffffffffffffffffff1673ffffffffffffffffffffffffffffffffffffffff16815260200190815260200160002060000160009054906101000a900473ffffffffffffffffffffffffffffffffffffffff16905060006109a86119e6565b9050600073ffffffffffffffffffffffffffffffffffffffff168273ffffffffffffffffffffffffffffffffffffffff161480610a1057508173ffffffffffffffffffffffffffffffffffffffff168173ffffffffffffffffffffffffffffffffffffffff16145b80610a215750610a2082826119ee565b5b610a60576040517f08c379a0000000000000000000000000000000000000000000000000000000008152600401610a5790613aa3565b60405180910390fd5b83600460008773ffffffffffffffffffffffffffffffffffffffff1673ffffffffffffffffffffffffffffffffffffffff1681526020019081526020016000206007019080519060200190610ab6929190612d02565b505050505050565b60035481565b610ad4610acf6119e6565b611ab9565b610b13576040517f08c379a0000000000000000000000000000000000000000000000000000000008152600401610b0a90613bc7565b60405180910390fd5b662386f26fc10000811015610b5d576040517f08c379a0000000000000000000000000000000000000000000000000000000008152600401610b5490613c7f565b60405180910390fd5b806003819055507fc652b105063222eb8399f76ca13b5913144c1d8af3a94bc240248ecbc36ac80b81604051610b939190612e9c565b60405180910390a150565b60608151835114610be4576040517f08c379a0000000000000000000000000000000000000000000000000000000008152600401610bdb90613d11565b60405180910390fd5b6000835167ffffffffffffffff811115610c0157610c00613064565b5b604051908082528060200260200182016040528015610c2f5781602001602082028036833780820191505090505b50905060005b8451811015610cac57610c7c858281518110610c5457610c53613d31565b5b6020026020010151858381518110610c6f57610c6e613d31565b5b60200260200101516104c8565b828281518110610c8f57610c8e613d31565b5b60200260200101818152505080610ca590613d8f565b9050610c35565b508091505092915050565b816000600460008373ffffffffffffffffffffffffffffffffffffffff1673ffffffffffffffffffffffffffffffffffffffff16815260200190815260200160002060000160009054906101000a900473ffffffffffffffffffffffffffffffffffffffff1690506000610d296119e6565b9050600073ffffffffffffffffffffffffffffffffffffffff168273ffffffffffffffffffffffffffffffffffffffff161480610d9157508173ffffffffffffffffffffffffffffffffffffffff168173ffffffffffffffffffffffffffffffffffffffff16145b80610da25750610da182826119ee565b5b610de1576040517f08c379a0000000000000000000000000000000000000000000000000000000008152600401610dd890613aa3565b60405180910390fd5b600084511415610e26576040517f08c379a0000000000000000000000000000000000000000000000000000000008152600401610e1d90613e4a565b60405180910390fd5b83600460008773ffffffffffffffffffffffffffffffffffffffff1673ffffffffffffffffffffffffffffffffffffffff1681526020019081526020016000206004019080519060200190610e7c929190612d02565b505050505050565b816000600460008373ffffffffffffffffffffffffffffffffffffffff1673ffffffffffffffffffffffffffffffffffffffff16815260200190815260200160002060000160009054906101000a900473ffffffffffffffffffffffffffffffffffffffff1690506000610ef66119e6565b9050600073ffffffffffffffffffffffffffffffffffffffff168273ffffffffffffffffffffffffffffffffffffffff161480610f5e57508173ffffffffffffffffffffffffffffffffffffffff168173ffffffffffffffffffffffffffffffffffffffff16145b80610f6f5750610f6e82826119ee565b5b610fae576040517f08c379a0000000000000000000000000000000000000000000000000000000008152600401610fa590613aa3565b60405180910390fd5b83600460008773ffffffffffffffffffffffffffffffffffffffff1673ffffffffffffffffffffffffffffffffffffffff1681526020019081526020016000206006019080519060200190611004929190612d02565b505050505050565b60405180606001604052806021815260200161509d6021913960035460003490508181148361103a84611b13565b61104384611b13565b60405160200161105593929190613f8a565b604051602081830303815290604052906110a5576040517f08c379a000000000000000000000000000000000000000000000000000000000815260040161109c9190613038565b60405180910390fd5b5060006110b06119e6565b905060008b5114156110f7576040517f08c379a00000000000000000000000000000000000000000000000000000000081526004016110ee9061404e565b60405180910390fd5b60008a51141561113c576040517f08c379a0000000000000000000000000000000000000000000000000000000008152600401611133906140e0565b60405180910390fd5b600089511415611181576040517f08c379a000000000000000000000000000000000000000000000000000000000815260040161117890613e4a565b60405180910390fd5b34600660008282546111939190614100565b925050819055506001600560008282546111ad9190614100565b92505081905550600060d660f81b609460f81b308460055460001b6040516020016111dc959493929190614216565b6040516020818303038152906040528051906020012060001c90506040518061010001604052808373ffffffffffffffffffffffffffffffffffffffff1681526020018d81526020018c81526020018a81526020018b815260200189815260200188815260200187815250600460008373ffffffffffffffffffffffffffffffffffffffff1673ffffffffffffffffffffffffffffffffffffffff16815260200190815260200160002060008201518160000160006101000a81548173ffffffffffffffffffffffffffffffffffffffff021916908373ffffffffffffffffffffffffffffffffffffffff16021790555060208201518160010190805190602001906112e9929190612d02565b506040820151816002019080519060200190611306929190612d02565b506060820151816003019080519060200190611323929190612d02565b506080820151816004019080519060200190611340929190612d02565b5060a082015181600501908051906020019061135d929190612d02565b5060c082015181600601908051906020019061137a929190612d02565b5060e0820151816007019080519060200190611397929190612d02565b509050506113a58183611c74565b8073ffffffffffffffffffffffffffffffffffffffff168273ffffffffffffffffffffffffffffffffffffffff167fbaa80c9cbed3f9a5fcdc4e9dd7785f9cfc968a81b80b94363bea0e92c938c0d98e8e3460405161140693929190614275565b60405180910390a3505050505050505050505050565b816000600460008373ffffffffffffffffffffffffffffffffffffffff1673ffffffffffffffffffffffffffffffffffffffff16815260200190815260200160002060000160009054906101000a900473ffffffffffffffffffffffffffffffffffffffff169050600061148e6119e6565b9050600073ffffffffffffffffffffffffffffffffffffffff168273ffffffffffffffffffffffffffffffffffffffff1614806114f657508173ffffffffffffffffffffffffffffffffffffffff168173ffffffffffffffffffffffffffffffffffffffff16145b80611507575061150682826119ee565b5b611546576040517f08c379a000000000000000000000000000000000000000000000000000000000815260040161153d90613aa3565b60405180910390fd5b83600460008773ffffffffffffffffffffffffffffffffffffffff1673ffffffffffffffffffffffffffffffffffffffff168152602001908152602001600020600301908051906020019061159c929190612d02565b505050505050565b600760009054906101000a900473ffffffffffffffffffffffffffffffffffffffff1681565b60006115d46119e6565b90506115df81611cb3565b61161e576040517f08c379a00000000000000000000000000000000000000000000000000000000081526004016116159061432c565b60405180910390fd5b60008211611661576040517f08c379a0000000000000000000000000000000000000000000000000000000008152600401611658906143be565b60405180910390fd5b8160065410156116a6576040517f08c379a000000000000000000000000000000000000000000000000000000000815260040161169d90614450565b60405180910390fd5b81600660008282546116b89190614470565b925050819055508073ffffffffffffffffffffffffffffffffffffffff166108fc839081150290604051600060405180830381858888f19350505050158015611705573d6000803e3d6000fd5b505050565b61171c6117156119e6565b8383611d0d565b5050565b60606000600460008473ffffffffffffffffffffffffffffffffffffffff1673ffffffffffffffffffffffffffffffffffffffff1681526020019081526020016000209050600073ffffffffffffffffffffffffffffffffffffffff168160000160009054906101000a900473ffffffffffffffffffffffffffffffffffffffff1673ffffffffffffffffffffffffffffffffffffffff1614156117d65760405180602001604052806000815250915050611842565b61181f8160010182600201836004018460030185600501866006018760070160405160200161180b9796959493929190614798565b604051602081830303815290604052611e7a565b60405160200161182f91906148a1565b6040516020818303038152906040529150505b919050565b6000600160008473ffffffffffffffffffffffffffffffffffffffff1673ffffffffffffffffffffffffffffffffffffffff16815260200190815260200160002060008373ffffffffffffffffffffffffffffffffffffffff1673ffffffffffffffffffffffffffffffffffffffff16815260200190815260200160002060009054906101000a900460ff16905092915050565b6118e36119e6565b73ffffffffffffffffffffffffffffffffffffffff168573ffffffffffffffffffffffffffffffffffffffff1614806119295750611928856119236119e6565b611847565b5b611968576040517f08c379a000000000000000000000000000000000000000000000000000000000815260040161195f90613b35565b60405180910390fd5b6119758585858585611fde565b5050505050565b60007f01ffc9a7000000000000000000000000000000000000000000000000000000007bffffffffffffffffffffffffffffffffffffffffffffffffffffffff1916827bffffffffffffffffffffffffffffffffffffffffffffffffffffffff1916149050919050565b600033905090565b60006119fa8383611847565b905092915050565b611a0f858585858561201a565b60005b8251811015611ab15774010000000000000000000000000000000000000000848281518110611a4457611a43613d31565b5b6020026020010151108015611a7457506000838281518110611a6957611a68613d31565b5b602002602001015114155b15611a9e57611a9d848281518110611a8f57611a8e613d31565b5b60200260200101518661233c565b5b8080611aa990613d8f565b915050611a12565b505050505050565b60008173ffffffffffffffffffffffffffffffffffffffff16600760009054906101000a900473ffffffffffffffffffffffffffffffffffffffff1673ffffffffffffffffffffffffffffffffffffffff16149050919050565b60606000821415611b5b576040518060400160405280600181526020017f30000000000000000000000000000000000000000000000000000000000000008152509050611c6f565b600082905060005b60008214611b8d578080611b7690613d8f565b915050600a82611b8691906148f2565b9150611b63565b60008167ffffffffffffffff811115611ba957611ba8613064565b5b6040519080825280601f01601f191660200182016040528015611bdb5781602001600182028036833780820191505090505b5090505b60008514611c6857600182611bf49190614470565b9150600a85611c039190614923565b6030611c0f9190614100565b60f81b818381518110611c2557611c24613d31565b5b60200101907effffffffffffffffffffffffffffffffffffffffffffffffffffffffffffff1916908160001a905350600a85611c6191906148f2565b9450611bdf565b8093505050505b919050565b611caf818373ffffffffffffffffffffffffffffffffffffffff16600160405180606001604052806032815260200161502b60329139612458565b5050565b60008173ffffffffffffffffffffffffffffffffffffffff16600760009054906101000a900473ffffffffffffffffffffffffffffffffffffffff1673ffffffffffffffffffffffffffffffffffffffff16149050919050565b8173ffffffffffffffffffffffffffffffffffffffff168373ffffffffffffffffffffffffffffffffffffffff161415611d7c576040517f08c379a0000000000000000000000000000000000000000000000000000000008152600401611d73906149c6565b60405180910390fd5b80600160008573ffffffffffffffffffffffffffffffffffffffff1673ffffffffffffffffffffffffffffffffffffffff16815260200190815260200160002060008473ffffffffffffffffffffffffffffffffffffffff1673ffffffffffffffffffffffffffffffffffffffff16815260200190815260200160002060006101000a81548160ff0219169083151502179055508173ffffffffffffffffffffffffffffffffffffffff168373ffffffffffffffffffffffffffffffffffffffff167f17307eab39ab6107e8899845ad3d59bd9653f200f220920489ca2b5937696c3183604051611e6d9190612f57565b60405180910390a3505050565b6060600082511415611e9d57604051806020016040528060008152509050611fd9565b600060405180606001604052806040815260200161505d6040913990506000600360028551611ecc9190614100565b611ed691906148f2565b6004611ee291906149e6565b67ffffffffffffffff811115611efb57611efa613064565b5b6040519080825280601f01601f191660200182016040528015611f2d5781602001600182028036833780820191505090505b509050600182016020820185865187015b80821015611f99576003820191508151603f8160121c168501518453600184019350603f81600c1c168501518453600184019350603f8160061c168501518453600184019350603f8116850151845360018401935050611f3e565b5050600386510660018114611fb55760028114611fc857611fd0565b603d6001830353603d6002830353611fd0565b603d60018303535b50505080925050505b919050565b611feb8585858585612609565b7401000000000000000000000000000000000000000083101561201357612012838561233c565b5b5050505050565b815183511461205e576040517f08c379a000000000000000000000000000000000000000000000000000000000815260040161205590614ab2565b60405180910390fd5b600073ffffffffffffffffffffffffffffffffffffffff168473ffffffffffffffffffffffffffffffffffffffff1614156120ce576040517f08c379a00000000000000000000000000000000000000000000000000000000081526004016120c590614b44565b60405180910390fd5b60006120d86119e6565b90506120e88187878787876128a5565b60005b845181101561229957600085828151811061210957612108613d31565b5b60200260200101519050600085838151811061212857612127613d31565b5b60200260200101519050600080600084815260200190815260200160002060008b73ffffffffffffffffffffffffffffffffffffffff1673ffffffffffffffffffffffffffffffffffffffff168152602001908152602001600020549050818110156121c9576040517f08c379a00000000000000000000000000000000000000000000000000000000081526004016121c090614bd6565b60405180910390fd5b81810360008085815260200190815260200160002060008c73ffffffffffffffffffffffffffffffffffffffff1673ffffffffffffffffffffffffffffffffffffffff168152602001908152602001600020819055508160008085815260200190815260200160002060008b73ffffffffffffffffffffffffffffffffffffffff1673ffffffffffffffffffffffffffffffffffffffff168152602001908152602001600020600082825461227e9190614100565b925050819055505050508061229290613d8f565b90506120eb565b508473ffffffffffffffffffffffffffffffffffffffff168673ffffffffffffffffffffffffffffffffffffffff168273ffffffffffffffffffffffffffffffffffffffff167f4a39dc06d4c0dbc64b70af90fd698a233a518aa5d07e595d983b8c0526c8f7fb8787604051612310929190614bf6565b60405180910390a46123268187878787876128ad565b6123348187878787876128b5565b505050505050565b600073ffffffffffffffffffffffffffffffffffffffff16600460008473ffffffffffffffffffffffffffffffffffffffff1673ffffffffffffffffffffffffffffffffffffffff16815260200190815260200160002060000160009054906101000a900473ffffffffffffffffffffffffffffffffffffffff1673ffffffffffffffffffffffffffffffffffffffff16146124545780600460008473ffffffffffffffffffffffffffffffffffffffff1673ffffffffffffffffffffffffffffffffffffffff16815260200190815260200160002060000160006101000a81548173ffffffffffffffffffffffffffffffffffffffff021916908373ffffffffffffffffffffffffffffffffffffffff1602179055505b5050565b600073ffffffffffffffffffffffffffffffffffffffff168473ffffffffffffffffffffffffffffffffffffffff1614156124c8576040517f08c379a00000000000000000000000000000000000000000000000000000000081526004016124bf90614c9f565b60405180910390fd5b60006124d26119e6565b905060006124df85612a8d565b905060006124ec85612a8d565b90506124fd836000898585896128a5565b8460008088815260200190815260200160002060008973ffffffffffffffffffffffffffffffffffffffff1673ffffffffffffffffffffffffffffffffffffffff168152602001908152602001600020600082825461255c9190614100565b925050819055508673ffffffffffffffffffffffffffffffffffffffff16600073ffffffffffffffffffffffffffffffffffffffff168473ffffffffffffffffffffffffffffffffffffffff167fc3d58168c5ae7397731d063d5bbf3d657854427343f4c083240f7aacaa2d0f6289896040516125da929190614cbf565b60405180910390a46125f1836000898585896128ad565b61260083600089898989612b07565b50505050505050565b600073ffffffffffffffffffffffffffffffffffffffff168473ffffffffffffffffffffffffffffffffffffffff161415612679576040517f08c379a000000000000000000000000000000000000000000000000000000000815260040161267090614b44565b60405180910390fd5b60006126836119e6565b9050600061269085612a8d565b9050600061269d85612a8d565b90506126ad8389898585896128a5565b600080600088815260200190815260200160002060008a73ffffffffffffffffffffffffffffffffffffffff1673ffffffffffffffffffffffffffffffffffffffff16815260200190815260200160002054905085811015612744576040517f08c379a000000000000000000000000000000000000000000000000000000000815260040161273b90614bd6565b60405180910390fd5b85810360008089815260200190815260200160002060008b73ffffffffffffffffffffffffffffffffffffffff1673ffffffffffffffffffffffffffffffffffffffff168152602001908152602001600020819055508560008089815260200190815260200160002060008a73ffffffffffffffffffffffffffffffffffffffff1673ffffffffffffffffffffffffffffffffffffffff16815260200190815260200160002060008282546127f99190614100565b925050819055508773ffffffffffffffffffffffffffffffffffffffff168973ffffffffffffffffffffffffffffffffffffffff168573ffffffffffffffffffffffffffffffffffffffff167fc3d58168c5ae7397731d063d5bbf3d657854427343f4c083240f7aacaa2d0f628a8a604051612876929190614cbf565b60405180910390a461288c848a8a86868a6128ad565b61289a848a8a8a8a8a612b07565b505050505050505050565b505050505050565b505050505050565b6128d48473ffffffffffffffffffffffffffffffffffffffff16612cdf565b15612a85578373ffffffffffffffffffffffffffffffffffffffff1663bc197c8187878686866040518663ffffffff1660e01b815260040161291a959493929190614d3d565b6020604051808303816000875af192505050801561295657506040513d601f19601f820116820180604052508101906129539190614dba565b60015b6129fc57612962614df4565b806308c379a014156129bf5750612977614e16565b8061298257506129c1565b806040517f08c379a00000000000000000000000000000000000000000000000000000000081526004016129b69190613038565b60405180910390fd5b505b6040517f08c379a00000000000000000000000000000000000000000000000000000000081526004016129f390614f1e565b60405180910390fd5b63bc197c8160e01b7bffffffffffffffffffffffffffffffffffffffffffffffffffffffff1916817bffffffffffffffffffffffffffffffffffffffffffffffffffffffff191614612a83576040517f08c379a0000000000000000000000000000000000000000000000000000000008152600401612a7a90614fb0565b60405180910390fd5b505b505050505050565b60606000600167ffffffffffffffff811115612aac57612aab613064565b5b604051908082528060200260200182016040528015612ada5781602001602082028036833780820191505090505b5090508281600081518110612af257612af1613d31565b5b60200260200101818152505080915050919050565b612b268473ffffffffffffffffffffffffffffffffffffffff16612cdf565b15612cd7578373ffffffffffffffffffffffffffffffffffffffff1663f23a6e6187878686866040518663ffffffff1660e01b8152600401612b6c959493929190614fd0565b6020604051808303816000875af1925050508015612ba857506040513d601f19601f82011682018060405250810190612ba59190614dba565b60015b612c4e57612bb4614df4565b806308c379a01415612c115750612bc9614e16565b80612bd45750612c13565b806040517f08c379a0000000000000000000000000000000000000000000000000000000008152600401612c089190613038565b60405180910390fd5b505b6040517f08c379a0000000000000000000000000000000000000000000000000000000008152600401612c4590614f1e565b60405180910390fd5b63f23a6e6160e01b7bffffffffffffffffffffffffffffffffffffffffffffffffffffffff1916817bffffffffffffffffffffffffffffffffffffffffffffffffffffffff191614612cd5576040517f08c379a0000000000000000000000000000000000000000000000000000000008152600401612ccc90614fb0565b60405180910390fd5b505b505050505050565b6000808273ffffffffffffffffffffffffffffffffffffffff163b119050919050565b828054612d0e906139ff565b90600052602060002090601f016020900481019282612d305760008555612d77565b82601f10612d4957805160ff1916838001178555612d77565b82800160010185558215612d77579182015b82811115612d76578251825591602001919060010190612d5b565b5b509050612d849190612d88565b5090565b5b80821115612da1576000816000905550600101612d89565b5090565b6000604051905090565b600080fd5b600080fd5b600073ffffffffffffffffffffffffffffffffffffffff82169050919050565b6000612de482612db9565b9050919050565b612df481612dd9565b8114612dff57600080fd5b50565b600081359050612e1181612deb565b92915050565b6000819050919050565b612e2a81612e17565b8114612e3557600080fd5b50565b600081359050612e4781612e21565b92915050565b60008060408385031215612e6457612e63612daf565b5b6000612e7285828601612e02565b9250506020612e8385828601612e38565b9150509250929050565b612e9681612e17565b82525050565b6000602082019050612eb16000830184612e8d565b92915050565b60007fffffffff0000000000000000000000000000000000000000000000000000000082169050919050565b612eec81612eb7565b8114612ef757600080fd5b50565b600081359050612f0981612ee3565b92915050565b600060208284031215612f2557612f24612daf565b5b6000612f3384828501612efa565b91505092915050565b60008115159050919050565b612f5181612f3c565b82525050565b6000602082019050612f6c6000830184612f48565b92915050565b600060208284031215612f8857612f87612daf565b5b6000612f9684828501612e38565b91505092915050565b600081519050919050565b600082825260208201905092915050565b60005b83811015612fd9578082015181840152602081019050612fbe565b83811115612fe8576000848401525b50505050565b6000601f19601f8301169050919050565b600061300a82612f9f565b6130148185612faa565b9350613024818560208601612fbb565b61302d81612fee565b840191505092915050565b600060208201905081810360008301526130528184612fff565b905092915050565b600080fd5b600080fd5b7f4e487b7100000000000000000000000000000000000000000000000000000000600052604160045260246000fd5b61309c82612fee565b810181811067ffffffffffffffff821117156130bb576130ba613064565b5b80604052505050565b60006130ce612da5565b90506130da8282613093565b919050565b600067ffffffffffffffff8211156130fa576130f9613064565b5b61310382612fee565b9050602081019050919050565b82818337600083830152505050565b600061313261312d846130df565b6130c4565b90508281526020810184848401111561314e5761314d61305f565b5b613159848285613110565b509392505050565b600082601f8301126131765761317561305a565b5b813561318684826020860161311f565b91505092915050565b600080604083850312156131a6576131a5612daf565b5b60006131b485828601612e02565b925050602083013567ffffffffffffffff8111156131d5576131d4612db4565b5b6131e185828601613161565b9150509250929050565b600067ffffffffffffffff82111561320657613205613064565b5b602082029050602081019050919050565b600080fd5b600061322f61322a846131eb565b6130c4565b9050808382526020820190506020840283018581111561325257613251613217565b5b835b8181101561327b57806132678882612e38565b845260208401935050602081019050613254565b5050509392505050565b600082601f83011261329a5761329961305a565b5b81356132aa84826020860161321c565b91505092915050565b600067ffffffffffffffff8211156132ce576132cd613064565b5b6132d782612fee565b9050602081019050919050565b60006132f76132f2846132b3565b6130c4565b9050828152602081018484840111156133135761331261305f565b5b61331e848285613110565b509392505050565b600082601f83011261333b5761333a61305a565b5b813561334b8482602086016132e4565b91505092915050565b600080600080600060a086880312156133705761336f612daf565b5b600061337e88828901612e02565b955050602061338f88828901612e02565b945050604086013567ffffffffffffffff8111156133b0576133af612db4565b5b6133bc88828901613285565b935050606086013567ffffffffffffffff8111156133dd576133dc612db4565b5b6133e988828901613285565b925050608086013567ffffffffffffffff81111561340a57613409612db4565b5b61341688828901613326565b9150509295509295909350565b600067ffffffffffffffff82111561343e5761343d613064565b5b602082029050602081019050919050565b600061346261345d84613423565b6130c4565b9050808382526020820190506020840283018581111561348557613484613217565b5b835b818110156134ae578061349a8882612e02565b845260208401935050602081019050613487565b5050509392505050565b600082601f8301126134cd576134cc61305a565b5b81356134dd84826020860161344f565b91505092915050565b600080604083850312156134fd576134fc612daf565b5b600083013567ffffffffffffffff81111561351b5761351a612db4565b5b613527858286016134b8565b925050602083013567ffffffffffffffff81111561354857613547612db4565b5b61355485828601613285565b9150509250929050565b600081519050919050565b600082825260208201905092915050565b6000819050602082019050919050565b61359381612e17565b82525050565b60006135a5838361358a565b60208301905092915050565b6000602082019050919050565b60006135c98261355e565b6135d38185613569565b93506135de8361357a565b8060005b8381101561360f5781516135f68882613599565b9750613601836135b1565b9250506001810190506135e2565b5085935050505092915050565b6000602082019050818103600083015261363681846135be565b905092915050565b600080600080600080600060e0888a03121561365d5761365c612daf565b5b600088013567ffffffffffffffff81111561367b5761367a612db4565b5b6136878a828b01613161565b975050602088013567ffffffffffffffff8111156136a8576136a7612db4565b5b6136b48a828b01613161565b965050604088013567ffffffffffffffff8111156136d5576136d4612db4565b5b6136e18a828b01613161565b955050606088013567ffffffffffffffff81111561370257613701612db4565b5b61370e8a828b01613161565b945050608088013567ffffffffffffffff81111561372f5761372e612db4565b5b61373b8a828b01613161565b93505060a088013567ffffffffffffffff81111561375c5761375b612db4565b5b6137688a828b01613161565b92505060c088013567ffffffffffffffff81111561378957613788612db4565b5b6137958a828b01613161565b91505092959891949750929550565b6137ad81612dd9565b82525050565b60006020820190506137c860008301846137a4565b92915050565b6137d781612f3c565b81146137e257600080fd5b50565b6000813590506137f4816137ce565b92915050565b6000806040838503121561381157613810612daf565b5b600061381f85828601612e02565b9250506020613830858286016137e5565b9150509250929050565b6000602082840312156138505761384f612daf565b5b600061385e84828501612e02565b91505092915050565b6000806040838503121561387e5761387d612daf565b5b600061388c85828601612e02565b925050602061389d85828601612e02565b9150509250929050565b600080600080600060a086880312156138c3576138c2612daf565b5b60006138d188828901612e02565b95505060206138e288828901612e02565b94505060406138f388828901612e38565b935050606061390488828901612e38565b925050608086013567ffffffffffffffff81111561392557613924612db4565b5b61393188828901613326565b9150509295509295909350565b7f455243313135353a2061646472657373207a65726f206973206e6f742061207660008201527f616c6964206f776e657200000000000000000000000000000000000000000000602082015250565b600061399a602a83612faa565b91506139a58261393e565b604082019050919050565b600060208201905081810360008301526139c98161398d565b9050919050565b7f4e487b7100000000000000000000000000000000000000000000000000000000600052602260045260246000fd5b60006002820490506001821680613a1757607f821691505b60208210811415613a2b57613a2a6139d0565b5b50919050565b7f4272616e6452656769737472793a2063616c6c6572206973206e6f742062726160008201527f6e64206f776e6572206e6f7220617070726f7665640000000000000000000000602082015250565b6000613a8d603583612faa565b9150613a9882613a31565b604082019050919050565b60006020820190508181036000830152613abc81613a80565b9050919050565b7f455243313135353a2063616c6c6572206973206e6f7420746f6b656e206f776e60008201527f6572206e6f7220617070726f7665640000000000000000000000000000000000602082015250565b6000613b1f602f83612faa565b9150613b2a82613ac3565b604082019050919050565b60006020820190508181036000830152613b4e81613b12565b9050919050565b7f4272616e6452656769737472793a206e6f7420616c6c6f77656420746f20736560008201527f7420746865206272616e6420726567697374726174696f6e20636f7374000000602082015250565b6000613bb1603d83612faa565b9150613bbc82613b55565b604082019050919050565b60006020820190508181036000830152613be081613ba4565b9050919050565b7f4272616e6452656769737472793a20746865206272616e64207265676973747260008201527f7920636f7374206d757374206e6f74206265206c657373207468616e20302e3060208201527f31206e617469766520746f6b656e730000000000000000000000000000000000604082015250565b6000613c69604f83612faa565b9150613c7482613be7565b606082019050919050565b60006020820190508181036000830152613c9881613c5c565b9050919050565b7f455243313135353a206163636f756e747320616e6420696473206c656e67746860008201527f206d69736d617463680000000000000000000000000000000000000000000000602082015250565b6000613cfb602983612faa565b9150613d0682613c9f565b604082019050919050565b60006020820190508181036000830152613d2a81613cee565b9050919050565b7f4e487b7100000000000000000000000000000000000000000000000000000000600052603260045260246000fd5b7f4e487b7100000000000000000000000000000000000000000000000000000000600052601160045260246000fd5b6000613d9a82612e17565b91507fffffffffffffffffffffffffffffffffffffffffffffffffffffffffffffffff821415613dcd57613dcc613d60565b5b600182019050919050565b7f4272616e6452656769737472793a207573652061206e6f6e2d656d707479206960008201527f6d6167652075726c000000000000000000000000000000000000000000000000602082015250565b6000613e34602883612faa565b9150613e3f82613dd8565b604082019050919050565b60006020820190508181036000830152613e6381613e27565b9050919050565b600081905092915050565b6000613e8082612f9f565b613e8a8185613e6a565b9350613e9a818560208601612fbb565b80840191505092915050565b7f20726571756972657320616e206578616374207061796d656e74206f66200000600082015250565b6000613edc601e83613e6a565b9150613ee782613ea6565b601e82019050919050565b7f2062757420000000000000000000000000000000000000000000000000000000600082015250565b6000613f28600583613e6a565b9150613f3382613ef2565b600582019050919050565b7f2077617320676976656e00000000000000000000000000000000000000000000600082015250565b6000613f74600a83613e6a565b9150613f7f82613f3e565b600a82019050919050565b6000613f968286613e75565b9150613fa182613ecf565b9150613fad8285613e75565b9150613fb882613f1b565b9150613fc48284613e75565b9150613fcf82613f67565b9150819050949350505050565b7f4272616e6452656769737472793a207573652061206e6f6e2d656d707479206e60008201527f616d650000000000000000000000000000000000000000000000000000000000602082015250565b6000614038602383612faa565b915061404382613fdc565b604082019050919050565b600060208201905081810360008301526140678161402b565b9050919050565b7f4272616e6452656769737472793a207573652061206e6f6e2d656d707479206460008201527f65736372697074696f6e00000000000000000000000000000000000000000000602082015250565b60006140ca602a83612faa565b91506140d58261406e565b604082019050919050565b600060208201905081810360008301526140f9816140bd565b9050919050565b600061410b82612e17565b915061411683612e17565b9250827fffffffffffffffffffffffffffffffffffffffffffffffffffffffffffffffff0382111561414b5761414a613d60565b5b828201905092915050565b60007fff0000000000000000000000000000000000000000000000000000000000000082169050919050565b6000819050919050565b61419d61419882614156565b614182565b82525050565b60008160601b9050919050565b60006141bb826141a3565b9050919050565b60006141cd826141b0565b9050919050565b6141e56141e082612dd9565b6141c2565b82525050565b6000819050919050565b6000819050919050565b61421061420b826141eb565b6141f5565b82525050565b6000614222828861418c565b600182019150614232828761418c565b60018201915061424282866141d4565b60148201915061425282856141d4565b60148201915061426282846141ff565b6020820191508190509695505050505050565b6000606082019050818103600083015261428f8186612fff565b905081810360208301526142a38185612fff565b90506142b26040830184612e8d565b949350505050565b7f4272616e6452656769737472793a206561726e696e67732063616e6e6f74206260008201527f652077697468647261776e20627920746869732073656e646572000000000000602082015250565b6000614316603a83612faa565b9150614321826142ba565b604082019050919050565b6000602082019050818103600083015261434581614309565b9050919050565b7f4272616e6452656769737472793a206561726e696e677320616d6f756e74206d60008201527f757374206e6f7420626520300000000000000000000000000000000000000000602082015250565b60006143a8602c83612faa565b91506143b38261434c565b604082019050919050565b600060208201905081810360008301526143d78161439b565b9050919050565b7f4272616e6452656769737472793a206561726e696e677320616d6f756e74206960008201527f73206c657373207468616e207468652072657175657374656420616d6f756e74602082015250565b600061443a604083612faa565b9150614445826143de565b604082019050919050565b600060208201905081810360008301526144698161442d565b9050919050565b600061447b82612e17565b915061448683612e17565b92508282101561449957614498613d60565b5b828203905092915050565b7f7b226e616d65223a220000000000000000000000000000000000000000000000600082015250565b60006144da600983613e6a565b91506144e5826144a4565b600982019050919050565b60008190508160005260206000209050919050565b60008154614512816139ff565b61451c8186613e6a565b9450600182166000811461453757600181146145485761457b565b60ff1983168652818601935061457b565b614551856144f0565b60005b8381101561457357815481890152600182019150602081019050614554565b838801955050505b50505092915050565b7f222c226465736372697074696f6e223a22000000000000000000000000000000600082015250565b60006145ba601183613e6a565b91506145c582614584565b601182019050919050565b7f222c22696d616765223a22000000000000000000000000000000000000000000600082015250565b6000614606600b83613e6a565b9150614611826145d0565b600b82019050919050565b7f222c2270726f70657274696573223a7b226368616c6c656e676555726c223a22600082015250565b6000614652602083613e6a565b915061465d8261461c565b602082019050919050565b7f222c2269636f6e3136783136223a220000000000000000000000000000000000600082015250565b600061469e600f83613e6a565b91506146a982614668565b600f82019050919050565b7f222c2269636f6e3332783332223a220000000000000000000000000000000000600082015250565b60006146ea600f83613e6a565b91506146f5826146b4565b600f82019050919050565b7f222c2269636f6e3634783634223a220000000000000000000000000000000000600082015250565b6000614736600f83613e6a565b915061474182614700565b600f82019050919050565b7f227d7d0000000000000000000000000000000000000000000000000000000000600082015250565b6000614782600383613e6a565b915061478d8261474c565b600382019050919050565b60006147a3826144cd565b91506147af828a614505565b91506147ba826145ad565b91506147c68289614505565b91506147d1826145f9565b91506147dd8288614505565b91506147e882614645565b91506147f48287614505565b91506147ff82614691565b915061480b8286614505565b9150614816826146dd565b91506148228285614505565b915061482d82614729565b91506148398284614505565b915061484482614775565b915081905098975050505050505050565b7f646174613a6170706c69636174696f6e2f6a736f6e3b6261736536342c000000600082015250565b600061488b601d83613e6a565b915061489682614855565b601d82019050919050565b60006148ac8261487e565b91506148b88284613e75565b915081905092915050565b7f4e487b7100000000000000000000000000000000000000000000000000000000600052601260045260246000fd5b60006148fd82612e17565b915061490883612e17565b925082614918576149176148c3565b5b828204905092915050565b600061492e82612e17565b915061493983612e17565b925082614949576149486148c3565b5b828206905092915050565b7f455243313135353a2073657474696e6720617070726f76616c2073746174757360008201527f20666f722073656c660000000000000000000000000000000000000000000000602082015250565b60006149b0602983612faa565b91506149bb82614954565b604082019050919050565b600060208201905081810360008301526149df816149a3565b9050919050565b60006149f182612e17565b91506149fc83612e17565b9250817fffffffffffffffffffffffffffffffffffffffffffffffffffffffffffffffff0483118215151615614a3557614a34613d60565b5b828202905092915050565b7f455243313135353a2069647320616e6420616d6f756e7473206c656e6774682060008201527f6d69736d61746368000000000000000000000000000000000000000000000000602082015250565b6000614a9c602883612faa565b9150614aa782614a40565b604082019050919050565b60006020820190508181036000830152614acb81614a8f565b9050919050565b7f455243313135353a207472616e7366657220746f20746865207a65726f20616460008201527f6472657373000000000000000000000000000000000000000000000000000000602082015250565b6000614b2e602583612faa565b9150614b3982614ad2565b604082019050919050565b60006020820190508181036000830152614b5d81614b21565b9050919050565b7f455243313135353a20696e73756666696369656e742062616c616e636520666f60008201527f72207472616e7366657200000000000000000000000000000000000000000000602082015250565b6000614bc0602a83612faa565b9150614bcb82614b64565b604082019050919050565b60006020820190508181036000830152614bef81614bb3565b9050919050565b60006040820190508181036000830152614c1081856135be565b90508181036020830152614c2481846135be565b90509392505050565b7f455243313135353a206d696e7420746f20746865207a65726f2061646472657360008201527f7300000000000000000000000000000000000000000000000000000000000000602082015250565b6000614c89602183612faa565b9150614c9482614c2d565b604082019050919050565b60006020820190508181036000830152614cb881614c7c565b9050919050565b6000604082019050614cd46000830185612e8d565b614ce16020830184612e8d565b9392505050565b600081519050919050565b600082825260208201905092915050565b6000614d0f82614ce8565b614d198185614cf3565b9350614d29818560208601612fbb565b614d3281612fee565b840191505092915050565b600060a082019050614d5260008301886137a4565b614d5f60208301876137a4565b8181036040830152614d7181866135be565b90508181036060830152614d8581856135be565b90508181036080830152614d998184614d04565b90509695505050505050565b600081519050614db481612ee3565b92915050565b600060208284031215614dd057614dcf612daf565b5b6000614dde84828501614da5565b91505092915050565b60008160e01c9050919050565b600060033d1115614e135760046000803e614e10600051614de7565b90505b90565b600060443d1015614e2657614ea9565b614e2e612da5565b60043d036004823e80513d602482011167ffffffffffffffff82111715614e56575050614ea9565b808201805167ffffffffffffffff811115614e745750505050614ea9565b80602083010160043d038501811115614e91575050505050614ea9565b614ea082602001850186613093565b82955050505050505b90565b7f455243313135353a207472616e7366657220746f206e6f6e204552433131353560008201527f526563656976657220696d706c656d656e746572000000000000000000000000602082015250565b6000614f08603483612faa565b9150614f1382614eac565b604082019050919050565b60006020820190508181036000830152614f3781614efb565b9050919050565b7f455243313135353a204552433131353552656365697665722072656a6563746560008201527f6420746f6b656e73000000000000000000000000000000000000000000000000602082015250565b6000614f9a602883612faa565b9150614fa582614f3e565b604082019050919050565b60006020820190508181036000830152614fc981614f8d565b9050919050565b600060a082019050614fe560008301886137a4565b614ff260208301876137a4565b614fff6040830186612e8d565b61500c6060830185612e8d565b818103608083015261501e8184614d04565b9050969550505050505056fe53616d706c6545524331313535576974684272616e6452656769737472793a2074657374205f6d696e744272616e64466f724142434445464748494a4b4c4d4e4f505152535455565758595a6162636465666768696a6b6c6d6e6f707172737475767778797a303132333435363738392b2f4272616e6452656769737472793a206272616e6420726567697374726174696f6ea26469706673582212208e924f9cea3dc9e3bde7217a56bf38589f7bf45406791cf05a43aae7c7b37f4d64736f6c634300080a0033",
  "immutableReferences": {},
  "source": "// SPDX-License-Identifier: MIT\npragma solidity >=0.8 <0.9.0;\n\nimport \"@openzeppelin/contracts/token/ERC1155/ERC1155.sol\";\nimport \"../BrandRegistry.sol\";\nimport \"../../IdUtils.sol\";\n\ncontract SampleERC1155WithBrandRegistry is ERC1155, BrandRegistry {\n    address public owner;\n\n    constructor() ERC1155(\"about:blank\") {\n        owner = msg.sender;\n    }\n\n    function _canSetBrandRegistrationCost(address _sender) internal override view returns (bool) {\n        return owner == _sender;\n    }\n\n    function _mintBrandFor(address _brandId, address _owner) internal override {\n        _mint(_owner, uint256(uint160(_brandId)), 1, \"SampleERC1155WithBrandRegistry: test _mintBrandFor\");\n    }\n\n    function _isBrandOwnerApproved(address _brandOwner, address _sender) internal view override returns (bool) {\n        return isApprovedForAll(_brandOwner, _sender);\n    }\n\n    function _canWithdrawBrandRegistrationEarnings(address _sender) internal view override returns (bool) {\n        return owner == _sender;\n    }\n\n    function _safeTransferFrom(\n        address from,\n        address to,\n        uint256 id,\n        uint256 amount,\n        bytes memory data\n    ) internal override {\n        super._safeTransferFrom(from, to, id, amount, data);\n        if (id < (1 << 160)) {\n            _setBrandOwner(address(uint160(id)), to);\n        }\n    }\n\n    function _safeBatchTransferFrom(\n        address from,\n        address to,\n        uint256[] memory ids,\n        uint256[] memory amounts,\n        bytes memory data\n    ) internal override {\n        super._safeBatchTransferFrom(from, to, ids, amounts, data);\n        for(uint256 index = 0; index < amounts.length; index++) {\n            if (ids[index] < (1 << 160) && amounts[index] != 0) {\n                _setBrandOwner(address(uint160(ids[index])), to);\n            }\n        }\n    }\n}",
  "sourcePath": "/home/luismasuelli/Projects/OuterMaze/lingr-contracts/contracts/lingr/samples/SampleERC1155WithBrandRegistry.sol",
  "compiler": {
    "name": "solc",
    "version": "0.8.10+commit.fc410830.Emscripten.clang"
  },
  "schemaVersion": "3.4.3",
  "updatedAt": "2022-07-29T03:29:53.955Z",
  "devdoc": {
    "kind": "dev",
    "methods": {
      "balanceOf(address,uint256)": {
        "details": "See {IERC1155-balanceOf}. Requirements: - `account` cannot be the zero address."
      },
      "balanceOfBatch(address[],uint256[])": {
        "details": "See {IERC1155-balanceOfBatch}. Requirements: - `accounts` and `ids` must have the same length."
      },
      "isApprovedForAll(address,address)": {
        "details": "See {IERC1155-isApprovedForAll}."
      },
      "safeBatchTransferFrom(address,address,uint256[],uint256[],bytes)": {
        "details": "See {IERC1155-safeBatchTransferFrom}."
      },
      "safeTransferFrom(address,address,uint256,uint256,bytes)": {
        "details": "See {IERC1155-safeTransferFrom}."
      },
      "setApprovalForAll(address,bool)": {
        "details": "See {IERC1155-setApprovalForAll}."
      },
      "supportsInterface(bytes4)": {
        "details": "See {IERC165-supportsInterface}."
      },
      "uri(uint256)": {
        "details": "See {IERC1155MetadataURI-uri}. This implementation returns the same URI for *all* token types. It relies on the token type ID substitution mechanism https://eips.ethereum.org/EIPS/eip-1155#metadata[defined in the EIP]. Clients calling this function must replace the `\\{id\\}` substring with the actual token type ID."
      }
    },
    "version": 1
  },
  "userdoc": {
    "events": {
      "BrandEarningsWithdrawn(address,uint256)": {
        "notice": "This event is triggered when brand earnings were withdrawn successfully."
      },
      "BrandRegistered(address,address,string,string,uint256)": {
        "notice": "This event is triggered when a brand is registered. The new address is also included, along some reference data."
      },
      "BrandRegistrationCostUpdated(uint256)": {
        "notice": "An event for when the brand registration cost is updated."
      }
    },
    "kind": "user",
    "methods": {
      "brandMetadata(address)": {
        "notice": "Assembles the whole metadata for a brand. WARNING: This method will consume a lot of gas if invoked inside a transaction, so it is recommended to invoke this method in the context of a CALL, and never in the context of a SEND (even as part of other contract's code)."
      },
      "brandRegistrationCost()": {
        "notice": "The cost to register a new brand. This can be changed in the future and must be able to be known in the ABI for the users to be aware of the statistic."
      },
      "brandRegistrationCurrentEarnings()": {
        "notice": "Tells the current earnings, not yet withdrawn, from brand registrations."
      },
      "registerBrand(string,string,string,string,string,string,string)": {
        "notice": "Given the appropriate metadata, mints a new brand. The image url is mandatory, but about:blank may be used if it is missing or one image is not yet ready. The icons are optional. An empty string or about:blank should be used if not needed. Ensure all the urls are empty (as permitted) or valid urls, and the name and description have only json-string-friendly character, no backslash, and no double quotes or the metadata might fail to be assembled into valid JSON, also taking special care with the name and description, since they cannot be changed later."
      },
      "setBrandRegistrationCost(uint256)": {
        "notice": "Sets the new brand registration cost."
      },
      "updateBrandChallengeUrl(address,string)": {
        "notice": "Updates the brand's challenge url. Only the owner of the brand or an approved account can invoke this method. Ensure the url is empty or a valid URL, or metadata might fail to be assembled into valid JSON."
      },
      "updateBrandIcon16x16Url(address,string)": {
        "notice": "Updates the brand's 16x16 icon url. Only the owner of the brand or an approved account can invoke this method. Ensure the _icon is empty or a valid URL, or metadata might fail to be assembled into valid JSON."
      },
      "updateBrandIcon32x32Url(address,string)": {
        "notice": "Updates the brand's 32x32 icon url. Only the owner of the brand or an approved account can invoke this method. Ensure the _icon is empty or a valid URL, or metadata might fail to be assembled into valid JSON."
      },
      "updateBrandIcon64x64Url(address,string)": {
        "notice": "Updates the brand's 64x64 icon url. Only the owner of the brand or an approved account can invoke this method. Ensure the _icon is empty or a valid URL, or metadata might fail to be assembled into valid JSON."
      },
      "updateBrandImage(address,string)": {
        "notice": "Updates the brand image. Only the owner of the brand or an approved account can invoke this method. Ensure the _image is empty or a valid URL, or metadata might fail to be assembled into valid JSON."
      },
      "withdrawBrandRegistrationEarnings(uint256)": {
        "notice": "Allows the sender to withdraw brand registration earnings."
      }
    },
    "version": 1
  }
}