{
  "contractName": "SampleBrandRegistry",
  "abi": [
    {
      "inputs": [
        {
          "internalType": "address",
          "name": "_metaverse",
          "type": "address"
        }
      ],
      "stateMutability": "nonpayable",
      "type": "constructor"
    },
    {
      "anonymous": false,
      "inputs": [
        {
          "indexed": true,
          "internalType": "address",
          "name": "withdrawnBy",
          "type": "address"
        },
        {
          "indexed": false,
          "internalType": "uint256",
          "name": "amount",
          "type": "uint256"
        }
      ],
      "name": "BrandEarningsWithdrawn",
      "type": "event"
    },
    {
      "anonymous": false,
      "inputs": [
        {
          "indexed": true,
          "internalType": "address",
          "name": "registeredBy",
          "type": "address"
        },
        {
          "indexed": true,
          "internalType": "address",
          "name": "brandId",
          "type": "address"
        },
        {
          "indexed": false,
          "internalType": "string",
          "name": "name",
          "type": "string"
        },
        {
          "indexed": false,
          "internalType": "string",
          "name": "description",
          "type": "string"
        },
        {
          "indexed": false,
          "internalType": "uint256",
          "name": "price",
          "type": "uint256"
        }
      ],
      "name": "BrandRegistered",
      "type": "event"
    },
    {
      "anonymous": false,
      "inputs": [
        {
          "indexed": false,
          "internalType": "uint256",
          "name": "newCost",
          "type": "uint256"
        }
      ],
      "name": "BrandRegistrationCostUpdated",
      "type": "event"
    },
    {
      "anonymous": false,
      "inputs": [
        {
          "indexed": true,
          "internalType": "address",
          "name": "updatedBy",
          "type": "address"
        },
        {
          "indexed": true,
          "internalType": "address",
          "name": "brand",
          "type": "address"
        },
        {
          "indexed": false,
          "internalType": "bool",
          "name": "committed",
          "type": "bool"
        }
      ],
      "name": "BrandSocialCommitmentUpdated",
      "type": "event"
    },
    {
      "anonymous": false,
      "inputs": [
        {
          "indexed": true,
          "internalType": "address",
          "name": "updatedBy",
          "type": "address"
        },
        {
          "indexed": true,
          "internalType": "address",
          "name": "brandId",
          "type": "address"
        }
      ],
      "name": "BrandUpdated",
      "type": "event"
    },
    {
      "inputs": [
        {
          "internalType": "address",
          "name": "_brandId",
          "type": "address"
        }
      ],
      "name": "brandExists",
      "outputs": [
        {
          "internalType": "bool",
          "name": "",
          "type": "bool"
        }
      ],
      "stateMutability": "view",
      "type": "function"
    },
    {
      "inputs": [
        {
          "internalType": "address",
          "name": "_brandId",
          "type": "address"
        }
      ],
      "name": "brandMetadataURI",
      "outputs": [
        {
          "internalType": "string",
          "name": "",
          "type": "string"
        }
      ],
      "stateMutability": "view",
      "type": "function"
    },
    {
      "inputs": [],
      "name": "brandRegistrationCost",
      "outputs": [
        {
          "internalType": "uint256",
          "name": "",
          "type": "uint256"
        }
      ],
      "stateMutability": "view",
      "type": "function"
    },
    {
      "inputs": [],
      "name": "brandRegistrationCurrentEarnings",
      "outputs": [
        {
          "internalType": "uint256",
          "name": "",
          "type": "uint256"
        }
      ],
      "stateMutability": "view",
      "type": "function"
    },
    {
      "inputs": [],
      "name": "deployer",
      "outputs": [
        {
          "internalType": "address",
          "name": "",
          "type": "address"
        }
      ],
      "stateMutability": "view",
      "type": "function"
    },
    {
      "inputs": [],
      "name": "metaverse",
      "outputs": [
        {
          "internalType": "address",
          "name": "",
          "type": "address"
        }
      ],
      "stateMutability": "view",
      "type": "function"
    },
    {
      "inputs": [
        {
          "internalType": "address",
          "name": "_brandId",
          "type": "address"
        },
        {
          "internalType": "address",
          "name": "_newOwner",
          "type": "address"
        }
      ],
      "name": "onBrandOwnerChanged",
      "outputs": [],
      "stateMutability": "nonpayable",
      "type": "function"
    },
    {
      "inputs": [
        {
          "internalType": "string",
          "name": "_name",
          "type": "string"
        },
        {
          "internalType": "string",
          "name": "_description",
          "type": "string"
        },
        {
          "internalType": "string",
          "name": "_image",
          "type": "string"
        },
        {
          "internalType": "string",
          "name": "_icon16x16",
          "type": "string"
        },
        {
          "internalType": "string",
          "name": "_icon32x32",
          "type": "string"
        },
        {
          "internalType": "string",
          "name": "_icon64x64",
          "type": "string"
        }
      ],
      "name": "registerBrand",
      "outputs": [],
      "stateMutability": "payable",
      "type": "function"
    },
    {
      "inputs": [
        {
          "internalType": "uint256",
          "name": "_newCost",
          "type": "uint256"
        }
      ],
      "name": "setBrandRegistrationCost",
      "outputs": [],
      "stateMutability": "nonpayable",
      "type": "function"
    },
    {
      "inputs": [
        {
          "internalType": "bytes4",
          "name": "interfaceId",
          "type": "bytes4"
        }
      ],
      "name": "supportsInterface",
      "outputs": [
        {
          "internalType": "bool",
          "name": "",
          "type": "bool"
        }
      ],
      "stateMutability": "view",
      "type": "function"
    },
    {
      "inputs": [
        {
          "internalType": "address",
          "name": "_brandId",
          "type": "address"
        },
        {
          "internalType": "string",
          "name": "_challengeUrl",
          "type": "string"
        }
      ],
      "name": "updateBrandChallengeUrl",
      "outputs": [],
      "stateMutability": "nonpayable",
      "type": "function"
    },
    {
      "inputs": [
        {
          "internalType": "address",
          "name": "_brandId",
          "type": "address"
        },
        {
          "internalType": "string",
          "name": "_icon",
          "type": "string"
        }
      ],
      "name": "updateBrandIcon16x16Url",
      "outputs": [],
      "stateMutability": "nonpayable",
      "type": "function"
    },
    {
      "inputs": [
        {
          "internalType": "address",
          "name": "_brandId",
          "type": "address"
        },
        {
          "internalType": "string",
          "name": "_icon",
          "type": "string"
        }
      ],
      "name": "updateBrandIcon32x32Url",
      "outputs": [],
      "stateMutability": "nonpayable",
      "type": "function"
    },
    {
      "inputs": [
        {
          "internalType": "address",
          "name": "_brandId",
          "type": "address"
        },
        {
          "internalType": "string",
          "name": "_icon",
          "type": "string"
        }
      ],
      "name": "updateBrandIcon64x64Url",
      "outputs": [],
      "stateMutability": "nonpayable",
      "type": "function"
    },
    {
      "inputs": [
        {
          "internalType": "address",
          "name": "_brandId",
          "type": "address"
        },
        {
          "internalType": "string",
          "name": "_image",
          "type": "string"
        }
      ],
      "name": "updateBrandImage",
      "outputs": [],
      "stateMutability": "nonpayable",
      "type": "function"
    },
    {
      "inputs": [
        {
          "internalType": "address",
          "name": "_brandId",
          "type": "address"
        },
        {
          "internalType": "bool",
          "name": "_committed",
          "type": "bool"
        }
      ],
      "name": "updateBrandSocialCommitment",
      "outputs": [],
      "stateMutability": "nonpayable",
      "type": "function"
    },
    {
      "inputs": [
        {
          "internalType": "uint256",
          "name": "amount",
          "type": "uint256"
        }
      ],
      "name": "withdrawBrandRegistrationEarnings",
      "outputs": [],
      "stateMutability": "nonpayable",
      "type": "function"
    }
  ],
  "bytecode": "0x60806040523480156200001157600080fd5b506040516200430638038062004306833981810160405281019062000037919062000411565b80600073ffffffffffffffffffffffffffffffffffffffff168173ffffffffffffffffffffffffffffffffffffffff161415620000ab576040517f08c379a0000000000000000000000000000000000000000000000000000000008152600401620000a290620004ca565b60405180910390fd5b620000fb7faa6ab870000000000000000000000000000000000000000000000000000000008273ffffffffffffffffffffffffffffffffffffffff16620001d560201b620017ab1790919060201c565b6200013d576040517f08c379a0000000000000000000000000000000000000000000000000000000008152600401620001349062000562565b60405180910390fd5b806000806101000a81548173ffffffffffffffffffffffffffffffffffffffff021916908373ffffffffffffffffffffffffffffffffffffffff160217905550506200018e6200020b60201b60201c565b600560006101000a81548173ffffffffffffffffffffffffffffffffffffffff021916908373ffffffffffffffffffffffffffffffffffffffff16021790555050620006e9565b6000620001e8836200021360201b60201c565b80156200020357506200020283836200027160201b60201c565b5b905092915050565b600033905090565b600062000247827f01ffc9a7000000000000000000000000000000000000000000000000000000006200027160201b60201c565b80156200026a5750620002688263ffffffff60e01b6200027160201b60201c565b155b9050919050565b6000806301ffc9a760e01b836040516024016200028f9190620005c1565b604051602081830303815290604052907bffffffffffffffffffffffffffffffffffffffffffffffffffffffff19166020820180517bffffffffffffffffffffffffffffffffffffffffffffffffffffffff838183161783525050505090506000808573ffffffffffffffffffffffffffffffffffffffff16617530846040516200031b919062000661565b6000604051808303818686fa925050503d806000811462000359576040519150601f19603f3d011682016040523d82523d6000602084013e6200035e565b606091505b50915091506020815110156200037b5760009350505050620003a1565b8180156200039b5750808060200190518101906200039a9190620006b7565b5b93505050505b92915050565b600080fd5b600073ffffffffffffffffffffffffffffffffffffffff82169050919050565b6000620003d982620003ac565b9050919050565b620003eb81620003cc565b8114620003f757600080fd5b50565b6000815190506200040b81620003e0565b92915050565b6000602082840312156200042a5762000429620003a7565b5b60006200043a84828501620003fa565b91505092915050565b600082825260208201905092915050565b7f4272616e6452656769737472793a20746865206f776e657220636f6e7472616360008201527f74206d757374206e6f7420626520300000000000000000000000000000000000602082015250565b6000620004b2602f8362000443565b9150620004bf8262000454565b604082019050919050565b60006020820190508181036000830152620004e581620004a3565b9050919050565b7f4272616e6452656769737472793a20746865206f776e657220636f6e7472616360008201527f74206d75737420696d706c656d656e7420494d65746176657273650000000000602082015250565b60006200054a603b8362000443565b91506200055782620004ec565b604082019050919050565b600060208201905081810360008301526200057d816200053b565b9050919050565b60007fffffffff0000000000000000000000000000000000000000000000000000000082169050919050565b620005bb8162000584565b82525050565b6000602082019050620005d86000830184620005b0565b92915050565b600081519050919050565b600081905092915050565b60005b8381101562000614578082015181840152602081019050620005f7565b8381111562000624576000848401525b50505050565b60006200063782620005de565b620006438185620005e9565b935062000655818560208601620005f4565b80840191505092915050565b60006200066f82846200062a565b915081905092915050565b60008115159050919050565b62000691816200067a565b81146200069d57600080fd5b50565b600081519050620006b18162000686565b92915050565b600060208284031215620006d057620006cf620003a7565b5b6000620006e084828501620006a0565b91505092915050565b613c0d80620006f96000396000f3fe6080604052600436106100fe5760003560e01c806370e979fb116100955780639896c31d116100645780639896c31d1461030e57806399de09ff1461034b578063d5f3948814610374578063f200670d1461039f578063feb532fd146103ca576100fe565b806370e979fb1461026357806378df8fb71461027f5780637d5555df146102a85780638cd6e9a9146102e5576100fe565b80633e49d925116100d15780633e49d925146101bd57806343779197146101e857806351a8de601461021157806352ea8a361461023a576100fe565b806301ffc9a7146101035780630f73da861461014057806320c6940b1461016b5780633c1213fb14610194575b600080fd5b34801561010f57600080fd5b5061012a6004803603810190610125919061239b565b6103f3565b60405161013791906123e3565b60405180910390f35b34801561014c57600080fd5b506101556104c5565b6040516101629190612417565b60405180910390f35b34801561017757600080fd5b50610192600480360381019061018d91906125d6565b6104cb565b005b3480156101a057600080fd5b506101bb60048036038101906101b691906125d6565b6106b6565b005b3480156101c957600080fd5b506101d26108a1565b6040516101df9190612417565b60405180910390f35b3480156101f457600080fd5b5061020f600480360381019061020a919061265e565b6108a7565b005b34801561021d57600080fd5b50610238600480360381019061023391906125d6565b610981565b005b34801561024657600080fd5b50610261600480360381019061025c91906125d6565b610bb1565b005b61027d6004803603810190610278919061268b565b610d9c565b005b34801561028b57600080fd5b506102a660048036038101906102a191906125d6565b610e51565b005b3480156102b457600080fd5b506102cf60048036038101906102ca91906127c0565b61103c565b6040516102dc91906123e3565b60405180910390f35b3480156102f157600080fd5b5061030c600480360381019061030791906127ed565b6110d7565b005b34801561031a57600080fd5b50610335600480360381019061033091906127c0565b611281565b60405161034291906128b5565b60405180910390f35b34801561035757600080fd5b50610372600480360381019061036d919061265e565b611431565b005b34801561038057600080fd5b50610389611571565b60405161039691906128e6565b60405180910390f35b3480156103ab57600080fd5b506103b4611597565b6040516103c191906128e6565b60405180910390f35b3480156103d657600080fd5b506103f160048036038101906103ec919061292d565b6115bb565b005b60007f01ffc9a7000000000000000000000000000000000000000000000000000000007bffffffffffffffffffffffffffffffffffffffffffffffffffffffff1916827bffffffffffffffffffffffffffffffffffffffffffffffffffffffff191614806104be57507f9b151866000000000000000000000000000000000000000000000000000000007bffffffffffffffffffffffffffffffffffffffffffffffffffffffff1916827bffffffffffffffffffffffffffffffffffffffffffffffffffffffff1916145b9050919050565b60045481565b816000600260008373ffffffffffffffffffffffffffffffffffffffff1673ffffffffffffffffffffffffffffffffffffffff16815260200190815260200160002060000160009054906101000a900473ffffffffffffffffffffffffffffffffffffffff169050600061053d6117d0565b9050600073ffffffffffffffffffffffffffffffffffffffff168273ffffffffffffffffffffffffffffffffffffffff16141580156105b857508173ffffffffffffffffffffffffffffffffffffffff168173ffffffffffffffffffffffffffffffffffffffff1614806105b757506105b682826117d8565b5b5b6105f7576040517f08c379a00000000000000000000000000000000000000000000000000000000081526004016105ee906129df565b60405180910390fd5b83600260008773ffffffffffffffffffffffffffffffffffffffff1673ffffffffffffffffffffffffffffffffffffffff168152602001908152602001600020600501908051906020019061064d92919061228c565b508473ffffffffffffffffffffffffffffffffffffffff1661066d6117d0565b73ffffffffffffffffffffffffffffffffffffffff167f7fd1c43abb0471595dcd4d461fdb320d926cbf2b8ba6fa87a78f1b1b0bf3e59260405160405180910390a35050505050565b816000600260008373ffffffffffffffffffffffffffffffffffffffff1673ffffffffffffffffffffffffffffffffffffffff16815260200190815260200160002060000160009054906101000a900473ffffffffffffffffffffffffffffffffffffffff16905060006107286117d0565b9050600073ffffffffffffffffffffffffffffffffffffffff168273ffffffffffffffffffffffffffffffffffffffff16141580156107a357508173ffffffffffffffffffffffffffffffffffffffff168173ffffffffffffffffffffffffffffffffffffffff1614806107a257506107a182826117d8565b5b5b6107e2576040517f08c379a00000000000000000000000000000000000000000000000000000000081526004016107d9906129df565b60405180910390fd5b83600260008773ffffffffffffffffffffffffffffffffffffffff1673ffffffffffffffffffffffffffffffffffffffff168152602001908152602001600020600701908051906020019061083892919061228c565b508473ffffffffffffffffffffffffffffffffffffffff166108586117d0565b73ffffffffffffffffffffffffffffffffffffffff167f7fd1c43abb0471595dcd4d461fdb320d926cbf2b8ba6fa87a78f1b1b0bf3e59260405160405180910390a35050505050565b60015481565b6108b76108b26117d0565b6118ed565b6108f6576040517f08c379a00000000000000000000000000000000000000000000000000000000081526004016108ed90612a71565b60405180910390fd5b662386f26fc10000811015610940576040517f08c379a000000000000000000000000000000000000000000000000000000000815260040161093790612b29565b60405180910390fd5b806001819055507fc652b105063222eb8399f76ca13b5913144c1d8af3a94bc240248ecbc36ac80b816040516109769190612417565b60405180910390a150565b816000600260008373ffffffffffffffffffffffffffffffffffffffff1673ffffffffffffffffffffffffffffffffffffffff16815260200190815260200160002060000160009054906101000a900473ffffffffffffffffffffffffffffffffffffffff16905060006109f36117d0565b9050600073ffffffffffffffffffffffffffffffffffffffff168273ffffffffffffffffffffffffffffffffffffffff1614158015610a6e57508173ffffffffffffffffffffffffffffffffffffffff168173ffffffffffffffffffffffffffffffffffffffff161480610a6d5750610a6c82826117d8565b5b5b610aad576040517f08c379a0000000000000000000000000000000000000000000000000000000008152600401610aa4906129df565b60405180910390fd5b600084511415610af2576040517f08c379a0000000000000000000000000000000000000000000000000000000008152600401610ae990612bbb565b60405180910390fd5b83600260008773ffffffffffffffffffffffffffffffffffffffff1673ffffffffffffffffffffffffffffffffffffffff1681526020019081526020016000206004019080519060200190610b4892919061228c565b508473ffffffffffffffffffffffffffffffffffffffff16610b686117d0565b73ffffffffffffffffffffffffffffffffffffffff167f7fd1c43abb0471595dcd4d461fdb320d926cbf2b8ba6fa87a78f1b1b0bf3e59260405160405180910390a35050505050565b816000600260008373ffffffffffffffffffffffffffffffffffffffff1673ffffffffffffffffffffffffffffffffffffffff16815260200190815260200160002060000160009054906101000a900473ffffffffffffffffffffffffffffffffffffffff1690506000610c236117d0565b9050600073ffffffffffffffffffffffffffffffffffffffff168273ffffffffffffffffffffffffffffffffffffffff1614158015610c9e57508173ffffffffffffffffffffffffffffffffffffffff168173ffffffffffffffffffffffffffffffffffffffff161480610c9d5750610c9c82826117d8565b5b5b610cdd576040517f08c379a0000000000000000000000000000000000000000000000000000000008152600401610cd4906129df565b60405180910390fd5b83600260008773ffffffffffffffffffffffffffffffffffffffff1673ffffffffffffffffffffffffffffffffffffffff1681526020019081526020016000206006019080519060200190610d3392919061228c565b508473ffffffffffffffffffffffffffffffffffffffff16610d536117d0565b73ffffffffffffffffffffffffffffffffffffffff167f7fd1c43abb0471595dcd4d461fdb320d926cbf2b8ba6fa87a78f1b1b0bf3e59260405160405180910390a35050505050565b604051806060016040528060218152602001613bb760219139600154600034905081811483610dca84611947565b610dd384611947565b604051602001610de593929190612cfb565b60405160208183030381529060405290610e35576040517f08c379a0000000000000000000000000000000000000000000000000000000008152600401610e2c91906128b5565b60405180910390fd5b50610e468989898989896000611aa8565b505050505050505050565b816000600260008373ffffffffffffffffffffffffffffffffffffffff1673ffffffffffffffffffffffffffffffffffffffff16815260200190815260200160002060000160009054906101000a900473ffffffffffffffffffffffffffffffffffffffff1690506000610ec36117d0565b9050600073ffffffffffffffffffffffffffffffffffffffff168273ffffffffffffffffffffffffffffffffffffffff1614158015610f3e57508173ffffffffffffffffffffffffffffffffffffffff168173ffffffffffffffffffffffffffffffffffffffff161480610f3d5750610f3c82826117d8565b5b5b610f7d576040517f08c379a0000000000000000000000000000000000000000000000000000000008152600401610f74906129df565b60405180910390fd5b83600260008773ffffffffffffffffffffffffffffffffffffffff1673ffffffffffffffffffffffffffffffffffffffff1681526020019081526020016000206003019080519060200190610fd392919061228c565b508473ffffffffffffffffffffffffffffffffffffffff16610ff36117d0565b73ffffffffffffffffffffffffffffffffffffffff167f7fd1c43abb0471595dcd4d461fdb320d926cbf2b8ba6fa87a78f1b1b0bf3e59260405160405180910390a35050505050565b60008073ffffffffffffffffffffffffffffffffffffffff16600260008473ffffffffffffffffffffffffffffffffffffffff1673ffffffffffffffffffffffffffffffffffffffff16815260200190815260200160002060000160009054906101000a900473ffffffffffffffffffffffffffffffffffffffff1673ffffffffffffffffffffffffffffffffffffffff1614159050919050565b60008054906101000a900473ffffffffffffffffffffffffffffffffffffffff1673ffffffffffffffffffffffffffffffffffffffff163373ffffffffffffffffffffffffffffffffffffffff1614611165576040517f08c379a000000000000000000000000000000000000000000000000000000000815260040161115c90612dbf565b60405180910390fd5b600073ffffffffffffffffffffffffffffffffffffffff16600260008473ffffffffffffffffffffffffffffffffffffffff1673ffffffffffffffffffffffffffffffffffffffff16815260200190815260200160002060000160009054906101000a900473ffffffffffffffffffffffffffffffffffffffff1673ffffffffffffffffffffffffffffffffffffffff161461127d5780600260008473ffffffffffffffffffffffffffffffffffffffff1673ffffffffffffffffffffffffffffffffffffffff16815260200190815260200160002060000160006101000a81548173ffffffffffffffffffffffffffffffffffffffff021916908373ffffffffffffffffffffffffffffffffffffffff1602179055505b5050565b60606000600260008473ffffffffffffffffffffffffffffffffffffffff1673ffffffffffffffffffffffffffffffffffffffff1681526020019081526020016000209050600073ffffffffffffffffffffffffffffffffffffffff168160000160009054906101000a900473ffffffffffffffffffffffffffffffffffffffff1673ffffffffffffffffffffffffffffffffffffffff161415611337576040518060200160405280600081525091505061142c565b611409816001018260020183600401846003018560050186600601876007018860080160009054906101000a900460ff166113a7576040518060400160405280600581526020017f66616c73650000000000000000000000000000000000000000000000000000008152506113de565b6040518060400160405280600481526020017f74727565000000000000000000000000000000000000000000000000000000008152505b6040516020016113f5989796959493929190613180565b604051602081830303815290604052611efc565b60405160200161141991906132a1565b6040516020818303038152906040529150505b919050565b600061143b6117d0565b905061144681612060565b611485576040517f08c379a000000000000000000000000000000000000000000000000000000000815260040161147c90613335565b60405180910390fd5b600082116114c8576040517f08c379a00000000000000000000000000000000000000000000000000000000081526004016114bf906133c7565b60405180910390fd5b81600454101561150d576040517f08c379a000000000000000000000000000000000000000000000000000000000815260040161150490613459565b60405180910390fd5b816004600082825461151f91906134a8565b925050819055508073ffffffffffffffffffffffffffffffffffffffff166108fc839081150290604051600060405180830381858888f1935050505015801561156c573d6000803e3d6000fd5b505050565b600560009054906101000a900473ffffffffffffffffffffffffffffffffffffffff1681565b60008054906101000a900473ffffffffffffffffffffffffffffffffffffffff1681565b6000600260008473ffffffffffffffffffffffffffffffffffffffff1673ffffffffffffffffffffffffffffffffffffffff16815260200190815260200160002060000160009054906101000a900473ffffffffffffffffffffffffffffffffffffffff169050600073ffffffffffffffffffffffffffffffffffffffff168173ffffffffffffffffffffffffffffffffffffffff161415611692576040517f08c379a00000000000000000000000000000000000000000000000000000000081526004016116899061354e565b60405180910390fd5b600061169c6117d0565b90506116a7816120ba565b6116e6576040517f08c379a00000000000000000000000000000000000000000000000000000000081526004016116dd906135e0565b60405180910390fd5b82600260008673ffffffffffffffffffffffffffffffffffffffff1673ffffffffffffffffffffffffffffffffffffffff16815260200190815260200160002060080160006101000a81548160ff0219169083151502179055508373ffffffffffffffffffffffffffffffffffffffff168173ffffffffffffffffffffffffffffffffffffffff167f1a9425b12b0cb193f4db2ac1b9bc0712393521978231a7fcf5f0262b847cd5498560405161179d91906123e3565b60405180910390a350505050565b60006117b683612114565b80156117c857506117c78383612161565b5b905092915050565b600033905090565b60008060009054906101000a900473ffffffffffffffffffffffffffffffffffffffff1673ffffffffffffffffffffffffffffffffffffffff16638820f6bd6040518163ffffffff1660e01b8152600401602060405180830381865afa158015611846573d6000803e3d6000fd5b505050506040513d601f19601f8201168201806040525081019061186a9190613615565b73ffffffffffffffffffffffffffffffffffffffff1663e985e9c584846040518363ffffffff1660e01b81526004016118a4929190613642565b602060405180830381865afa1580156118c1573d6000803e3d6000fd5b505050506040513d601f19601f820116820180604052508101906118e59190613680565b905092915050565b6000600560009054906101000a900473ffffffffffffffffffffffffffffffffffffffff1673ffffffffffffffffffffffffffffffffffffffff168273ffffffffffffffffffffffffffffffffffffffff16149050919050565b6060600082141561198f576040518060400160405280600181526020017f30000000000000000000000000000000000000000000000000000000000000008152509050611aa3565b600082905060005b600082146119c15780806119aa906136ad565b915050600a826119ba9190613725565b9150611997565b60008167ffffffffffffffff8111156119dd576119dc6124ab565b5b6040519080825280601f01601f191660200182016040528015611a0f5781602001600182028036833780820191505090505b5090505b60008514611a9c57600182611a2891906134a8565b9150600a85611a379190613756565b6030611a439190613787565b60f81b818381518110611a5957611a586137dd565b5b60200101907effffffffffffffffffffffffffffffffffffffffffffffffffffffffffffff1916908160001a905350600a85611a959190613725565b9450611a13565b8093505050505b919050565b6000611ab26117d0565b9050600088511415611af9576040517f08c379a0000000000000000000000000000000000000000000000000000000008152600401611af09061387e565b60405180910390fd5b600087511415611b3e576040517f08c379a0000000000000000000000000000000000000000000000000000000008152600401611b3590613910565b60405180910390fd5b600086511415611b83576040517f08c379a0000000000000000000000000000000000000000000000000000000008152600401611b7a90612bbb565b60405180910390fd5b3460046000828254611b959190613787565b92505081905550600160036000828254611baf9190613787565b92505081905550600060d660f81b609460f81b308460035460001b604051602001611bde9594939291906139f0565b6040516020818303038152906040528051906020012060001c90506040518061012001604052808373ffffffffffffffffffffffffffffffffffffffff1681526020018a81526020018981526020016040518060400160405280600b81526020017f61626f75743a626c616e6b0000000000000000000000000000000000000000008152508152602001888152602001878152602001868152602001858152602001841515815250600260008373ffffffffffffffffffffffffffffffffffffffff1673ffffffffffffffffffffffffffffffffffffffff16815260200190815260200160002060008201518160000160006101000a81548173ffffffffffffffffffffffffffffffffffffffff021916908373ffffffffffffffffffffffffffffffffffffffff1602179055506020820151816001019080519060200190611d2892919061228c565b506040820151816002019080519060200190611d4592919061228c565b506060820151816003019080519060200190611d6292919061228c565b506080820151816004019080519060200190611d7f92919061228c565b5060a0820151816005019080519060200190611d9c92919061228c565b5060c0820151816006019080519060200190611db992919061228c565b5060e0820151816007019080519060200190611dd692919061228c565b506101008201518160080160006101000a81548160ff02191690831515021790555090505060008054906101000a900473ffffffffffffffffffffffffffffffffffffffff1673ffffffffffffffffffffffffffffffffffffffff16631b5dc59883836040518363ffffffff1660e01b8152600401611e56929190613642565b600060405180830381600087803b158015611e7057600080fd5b505af1158015611e84573d6000803e3d6000fd5b505050508073ffffffffffffffffffffffffffffffffffffffff168273ffffffffffffffffffffffffffffffffffffffff167fbaa80c9cbed3f9a5fcdc4e9dd7785f9cfc968a81b80b94363bea0e92c938c0d98b8b34604051611ee993929190613a4f565b60405180910390a3505050505050505050565b6060600082511415611f1f5760405180602001604052806000815250905061205b565b6000604051806060016040528060408152602001613b776040913990506000600360028551611f4e9190613787565b611f589190613725565b6004611f649190613a94565b67ffffffffffffffff811115611f7d57611f7c6124ab565b5b6040519080825280601f01601f191660200182016040528015611faf5781602001600182028036833780820191505090505b509050600182016020820185865187015b8082101561201b576003820191508151603f8160121c168501518453600184019350603f81600c1c168501518453600184019350603f8160061c168501518453600184019350603f8116850151845360018401935050611fc0565b5050600386510660018114612037576002811461204a57612052565b603d6001830353603d6002830353612052565b603d60018303535b50505080925050505b919050565b6000600560009054906101000a900473ffffffffffffffffffffffffffffffffffffffff1673ffffffffffffffffffffffffffffffffffffffff168273ffffffffffffffffffffffffffffffffffffffff16149050919050565b6000600560009054906101000a900473ffffffffffffffffffffffffffffffffffffffff1673ffffffffffffffffffffffffffffffffffffffff168273ffffffffffffffffffffffffffffffffffffffff16149050919050565b6000612140827f01ffc9a700000000000000000000000000000000000000000000000000000000612161565b801561215a57506121588263ffffffff60e01b612161565b155b9050919050565b6000806301ffc9a760e01b8360405160240161217d9190613afd565b604051602081830303815290604052907bffffffffffffffffffffffffffffffffffffffffffffffffffffffff19166020820180517bffffffffffffffffffffffffffffffffffffffffffffffffffffffff838183161783525050505090506000808573ffffffffffffffffffffffffffffffffffffffff16617530846040516122079190613b5f565b6000604051808303818686fa925050503d8060008114612243576040519150601f19603f3d011682016040523d82523d6000602084013e612248565b606091505b50915091506020815110156122635760009350505050612286565b81801561228057508080602001905181019061227f9190613680565b5b93505050505b92915050565b82805461229890612e5a565b90600052602060002090601f0160209004810192826122ba5760008555612301565b82601f106122d357805160ff1916838001178555612301565b82800160010185558215612301579182015b828111156123005782518255916020019190600101906122e5565b5b50905061230e9190612312565b5090565b5b8082111561232b576000816000905550600101612313565b5090565b6000604051905090565b600080fd5b600080fd5b60007fffffffff0000000000000000000000000000000000000000000000000000000082169050919050565b61237881612343565b811461238357600080fd5b50565b6000813590506123958161236f565b92915050565b6000602082840312156123b1576123b0612339565b5b60006123bf84828501612386565b91505092915050565b60008115159050919050565b6123dd816123c8565b82525050565b60006020820190506123f860008301846123d4565b92915050565b6000819050919050565b612411816123fe565b82525050565b600060208201905061242c6000830184612408565b92915050565b600073ffffffffffffffffffffffffffffffffffffffff82169050919050565b600061245d82612432565b9050919050565b61246d81612452565b811461247857600080fd5b50565b60008135905061248a81612464565b92915050565b600080fd5b600080fd5b6000601f19601f8301169050919050565b7f4e487b7100000000000000000000000000000000000000000000000000000000600052604160045260246000fd5b6124e38261249a565b810181811067ffffffffffffffff82111715612502576125016124ab565b5b80604052505050565b600061251561232f565b905061252182826124da565b919050565b600067ffffffffffffffff821115612541576125406124ab565b5b61254a8261249a565b9050602081019050919050565b82818337600083830152505050565b600061257961257484612526565b61250b565b90508281526020810184848401111561259557612594612495565b5b6125a0848285612557565b509392505050565b600082601f8301126125bd576125bc612490565b5b81356125cd848260208601612566565b91505092915050565b600080604083850312156125ed576125ec612339565b5b60006125fb8582860161247b565b925050602083013567ffffffffffffffff81111561261c5761261b61233e565b5b612628858286016125a8565b9150509250929050565b61263b816123fe565b811461264657600080fd5b50565b60008135905061265881612632565b92915050565b60006020828403121561267457612673612339565b5b600061268284828501612649565b91505092915050565b60008060008060008060c087890312156126a8576126a7612339565b5b600087013567ffffffffffffffff8111156126c6576126c561233e565b5b6126d289828a016125a8565b965050602087013567ffffffffffffffff8111156126f3576126f261233e565b5b6126ff89828a016125a8565b955050604087013567ffffffffffffffff8111156127205761271f61233e565b5b61272c89828a016125a8565b945050606087013567ffffffffffffffff81111561274d5761274c61233e565b5b61275989828a016125a8565b935050608087013567ffffffffffffffff81111561277a5761277961233e565b5b61278689828a016125a8565b92505060a087013567ffffffffffffffff8111156127a7576127a661233e565b5b6127b389828a016125a8565b9150509295509295509295565b6000602082840312156127d6576127d5612339565b5b60006127e48482850161247b565b91505092915050565b6000806040838503121561280457612803612339565b5b60006128128582860161247b565b92505060206128238582860161247b565b9150509250929050565b600081519050919050565b600082825260208201905092915050565b60005b8381101561286757808201518184015260208101905061284c565b83811115612876576000848401525b50505050565b60006128878261282d565b6128918185612838565b93506128a1818560208601612849565b6128aa8161249a565b840191505092915050565b600060208201905081810360008301526128cf818461287c565b905092915050565b6128e081612452565b82525050565b60006020820190506128fb60008301846128d7565b92915050565b61290a816123c8565b811461291557600080fd5b50565b60008135905061292781612901565b92915050565b6000806040838503121561294457612943612339565b5b60006129528582860161247b565b925050602061296385828601612918565b9150509250929050565b7f4272616e6452656769737472793a2063616c6c6572206973206e6f742062726160008201527f6e64206f776e6572206e6f7220617070726f7665640000000000000000000000602082015250565b60006129c9603583612838565b91506129d48261296d565b604082019050919050565b600060208201905081810360008301526129f8816129bc565b9050919050565b7f4272616e6452656769737472793a206e6f7420616c6c6f77656420746f20736560008201527f7420746865206272616e6420726567697374726174696f6e20636f7374000000602082015250565b6000612a5b603d83612838565b9150612a66826129ff565b604082019050919050565b60006020820190508181036000830152612a8a81612a4e565b9050919050565b7f4272616e6452656769737472793a20746865206272616e64207265676973747260008201527f7920636f7374206d757374206e6f74206265206c657373207468616e20302e3060208201527f31206e617469766520746f6b656e730000000000000000000000000000000000604082015250565b6000612b13604f83612838565b9150612b1e82612a91565b606082019050919050565b60006020820190508181036000830152612b4281612b06565b9050919050565b7f4272616e6452656769737472793a207573652061206e6f6e2d656d707479206960008201527f6d6167652075726c000000000000000000000000000000000000000000000000602082015250565b6000612ba5602883612838565b9150612bb082612b49565b604082019050919050565b60006020820190508181036000830152612bd481612b98565b9050919050565b600081905092915050565b6000612bf18261282d565b612bfb8185612bdb565b9350612c0b818560208601612849565b80840191505092915050565b7f20726571756972657320616e206578616374207061796d656e74206f66200000600082015250565b6000612c4d601e83612bdb565b9150612c5882612c17565b601e82019050919050565b7f2062757420000000000000000000000000000000000000000000000000000000600082015250565b6000612c99600583612bdb565b9150612ca482612c63565b600582019050919050565b7f2077617320676976656e00000000000000000000000000000000000000000000600082015250565b6000612ce5600a83612bdb565b9150612cf082612caf565b600a82019050919050565b6000612d078286612be6565b9150612d1282612c40565b9150612d1e8285612be6565b9150612d2982612c8c565b9150612d358284612be6565b9150612d4082612cd8565b9150819050949350505050565b7f4272616e6452656769737472793a206f6e6c7920746865206f776e696e67206d60008201527f65746176657273652063616e20696e766f6b652074686973206d6574686f6400602082015250565b6000612da9603f83612838565b9150612db482612d4d565b604082019050919050565b60006020820190508181036000830152612dd881612d9c565b9050919050565b7f7b226e616d65223a220000000000000000000000000000000000000000000000600082015250565b6000612e15600983612bdb565b9150612e2082612ddf565b600982019050919050565b7f4e487b7100000000000000000000000000000000000000000000000000000000600052602260045260246000fd5b60006002820490506001821680612e7257607f821691505b60208210811415612e8657612e85612e2b565b5b50919050565b60008190508160005260206000209050919050565b60008154612eae81612e5a565b612eb88186612bdb565b94506001821660008114612ed35760018114612ee457612f17565b60ff19831686528186019350612f17565b612eed85612e8c565b60005b83811015612f0f57815481890152600182019150602081019050612ef0565b838801955050505b50505092915050565b7f222c226465736372697074696f6e223a22000000000000000000000000000000600082015250565b6000612f56601183612bdb565b9150612f6182612f20565b601182019050919050565b7f222c22696d616765223a22000000000000000000000000000000000000000000600082015250565b6000612fa2600b83612bdb565b9150612fad82612f6c565b600b82019050919050565b7f222c2270726f70657274696573223a7b226368616c6c656e676555726c223a22600082015250565b6000612fee602083612bdb565b9150612ff982612fb8565b602082019050919050565b7f222c2269636f6e3136783136223a220000000000000000000000000000000000600082015250565b600061303a600f83612bdb565b915061304582613004565b600f82019050919050565b7f222c2269636f6e3332783332223a220000000000000000000000000000000000600082015250565b6000613086600f83612bdb565b915061309182613050565b600f82019050919050565b7f222c2269636f6e3634783634223a220000000000000000000000000000000000600082015250565b60006130d2600f83612bdb565b91506130dd8261309c565b600f82019050919050565b7f222c22636f6d6d6974746564223a000000000000000000000000000000000000600082015250565b600061311e600e83612bdb565b9150613129826130e8565b600e82019050919050565b7f7d7d000000000000000000000000000000000000000000000000000000000000600082015250565b600061316a600283612bdb565b915061317582613134565b600282019050919050565b600061318b82612e08565b9150613197828b612ea1565b91506131a282612f49565b91506131ae828a612ea1565b91506131b982612f95565b91506131c58289612ea1565b91506131d082612fe1565b91506131dc8288612ea1565b91506131e78261302d565b91506131f38287612ea1565b91506131fe82613079565b915061320a8286612ea1565b9150613215826130c5565b91506132218285612ea1565b915061322c82613111565b91506132388284612be6565b91506132438261315d565b91508190509998505050505050505050565b7f646174613a6170706c69636174696f6e2f6a736f6e3b6261736536342c000000600082015250565b600061328b601d83612bdb565b915061329682613255565b601d82019050919050565b60006132ac8261327e565b91506132b88284612be6565b915081905092915050565b7f4272616e6452656769737472793a206561726e696e67732063616e6e6f74206260008201527f652077697468647261776e20627920746869732073656e646572000000000000602082015250565b600061331f603a83612838565b915061332a826132c3565b604082019050919050565b6000602082019050818103600083015261334e81613312565b9050919050565b7f4272616e6452656769737472793a206561726e696e677320616d6f756e74206d60008201527f757374206e6f7420626520300000000000000000000000000000000000000000602082015250565b60006133b1602c83612838565b91506133bc82613355565b604082019050919050565b600060208201905081810360008301526133e0816133a4565b9050919050565b7f4272616e6452656769737472793a206561726e696e677320616d6f756e74206960008201527f73206c657373207468616e207468652072657175657374656420616d6f756e74602082015250565b6000613443604083612838565b915061344e826133e7565b604082019050919050565b6000602082019050818103600083015261347281613436565b9050919050565b7f4e487b7100000000000000000000000000000000000000000000000000000000600052601160045260246000fd5b60006134b3826123fe565b91506134be836123fe565b9250828210156134d1576134d0613479565b5b828203905092915050565b7f4272616e6452656769737472793a206e6f6e2d6578697374696e67206272616e60008201527f6400000000000000000000000000000000000000000000000000000000000000602082015250565b6000613538602183612838565b9150613543826134dc565b604082019050919050565b600060208201905081810360008301526135678161352b565b9050919050565b7f4272616e6452656769737472793a206e6f7420616c6c6f77656420746f20736560008201527f74206272616e64732720736f6369616c20636f6d6d69746d656e740000000000602082015250565b60006135ca603b83612838565b91506135d58261356e565b604082019050919050565b600060208201905081810360008301526135f9816135bd565b9050919050565b60008151905061360f81612464565b92915050565b60006020828403121561362b5761362a612339565b5b600061363984828501613600565b91505092915050565b600060408201905061365760008301856128d7565b61366460208301846128d7565b9392505050565b60008151905061367a81612901565b92915050565b60006020828403121561369657613695612339565b5b60006136a48482850161366b565b91505092915050565b60006136b8826123fe565b91507fffffffffffffffffffffffffffffffffffffffffffffffffffffffffffffffff8214156136eb576136ea613479565b5b600182019050919050565b7f4e487b7100000000000000000000000000000000000000000000000000000000600052601260045260246000fd5b6000613730826123fe565b915061373b836123fe565b92508261374b5761374a6136f6565b5b828204905092915050565b6000613761826123fe565b915061376c836123fe565b92508261377c5761377b6136f6565b5b828206905092915050565b6000613792826123fe565b915061379d836123fe565b9250827fffffffffffffffffffffffffffffffffffffffffffffffffffffffffffffffff038211156137d2576137d1613479565b5b828201905092915050565b7f4e487b7100000000000000000000000000000000000000000000000000000000600052603260045260246000fd5b7f4272616e6452656769737472793a207573652061206e6f6e2d656d707479206e60008201527f616d650000000000000000000000000000000000000000000000000000000000602082015250565b6000613868602383612838565b91506138738261380c565b604082019050919050565b600060208201905081810360008301526138978161385b565b9050919050565b7f4272616e6452656769737472793a207573652061206e6f6e2d656d707479206460008201527f65736372697074696f6e00000000000000000000000000000000000000000000602082015250565b60006138fa602a83612838565b91506139058261389e565b604082019050919050565b60006020820190508181036000830152613929816138ed565b9050919050565b60007fff0000000000000000000000000000000000000000000000000000000000000082169050919050565b6000819050919050565b61397761397282613930565b61395c565b82525050565b60008160601b9050919050565b60006139958261397d565b9050919050565b60006139a78261398a565b9050919050565b6139bf6139ba82612452565b61399c565b82525050565b6000819050919050565b6000819050919050565b6139ea6139e5826139c5565b6139cf565b82525050565b60006139fc8288613966565b600182019150613a0c8287613966565b600182019150613a1c82866139ae565b601482019150613a2c82856139ae565b601482019150613a3c82846139d9565b6020820191508190509695505050505050565b60006060820190508181036000830152613a69818661287c565b90508181036020830152613a7d818561287c565b9050613a8c6040830184612408565b949350505050565b6000613a9f826123fe565b9150613aaa836123fe565b9250817fffffffffffffffffffffffffffffffffffffffffffffffffffffffffffffffff0483118215151615613ae357613ae2613479565b5b828202905092915050565b613af781612343565b82525050565b6000602082019050613b126000830184613aee565b92915050565b600081519050919050565b600081905092915050565b6000613b3982613b18565b613b438185613b23565b9350613b53818560208601612849565b80840191505092915050565b6000613b6b8284613b2e565b91508190509291505056fe4142434445464748494a4b4c4d4e4f505152535455565758595a6162636465666768696a6b6c6d6e6f707172737475767778797a303132333435363738392b2f4272616e6452656769737472793a206272616e6420726567697374726174696f6ea26469706673582212205470022882c24ece50500b59d0c876a62ed04f857db103235f4193f30c1d3b7a64736f6c634300080a0033",
  "immutableReferences": {},
  "source": "// SPDX-License-Identifier: MIT\npragma solidity >=0.8 <0.9.0;\n\nimport \"../BrandRegistry.sol\";\n\ncontract SampleBrandRegistry is BrandRegistry {\n    /**\n     * The deployer of this metaverse.\n     */\n    address public deployer;\n\n    constructor(address _metaverse) BrandRegistry(_metaverse) {\n        deployer = _msgSender();\n    }\n\n    /**\n     * Setting the brand registration fee is only allowed to the deployer.\n     */\n    function _canSetBrandRegistrationCost(address _sender) internal override view returns (bool) {\n        return _sender == deployer;\n    }\n\n    /**\n     * Setting a brand's social commitment is only allowed to the deployer.\n     */\n    function _canSetBrandCommitment(address _sender) internal override view returns (bool) {\n        return _sender == deployer;\n    }\n\n    /**\n     * Withdrawing funds from brand registrations is only allowed to the deployer.\n     */\n    function _canWithdrawBrandRegistrationEarnings(address _sender) internal view override returns (bool) {\n        return _sender == deployer;\n    }\n}\n",
  "sourcePath": "/home/luismasuelli/Projects/OuterMaze/lingr-contracts/contracts/lingr/brands/samples/SampleBrandRegistry.sol",
  "compiler": {
    "name": "solc",
    "version": "0.8.10+commit.fc410830.Emscripten.clang"
  },
  "schemaVersion": "3.4.3",
  "updatedAt": "2022-08-10T04:27:51.737Z",
  "devdoc": {
    "kind": "dev",
    "methods": {},
    "version": 1
  },
  "userdoc": {
    "events": {
      "BrandEarningsWithdrawn(address,uint256)": {
        "notice": "This event is triggered when brand earnings were withdrawn successfully."
      },
      "BrandRegistered(address,address,string,string,uint256)": {
        "notice": "This event is triggered when a brand is registered. The new address is also included, along some reference data."
      },
      "BrandRegistrationCostUpdated(uint256)": {
        "notice": "An event for when the brand registration cost is updated."
      },
      "BrandSocialCommitmentUpdated(address,address,bool)": {
        "notice": "This event is triggered when a brand is updated with respect to its social commitment (this is: to tell a brand is socially committed according to the metaverse's views or not). Special benefits (in particular, with respect to assets loading on customers) are given in clients to socially committed brands."
      },
      "BrandUpdated(address,address)": {
        "notice": "This event is triggered when a brand is registered. The new address is also included, along some reference data."
      }
    },
    "kind": "user",
    "methods": {
      "brandExists(address)": {
        "notice": "Tells whether an address corresponds to a registered brand or not."
      },
      "brandMetadataURI(address)": {
        "notice": "Assembles the whole metadata for a brand. WARNING: This method will consume a lot of gas if invoked inside a transaction, so it is recommended to invoke this method in the context of a CALL, and never in the context of a SEND (even as part of other contract's code)."
      },
      "brandRegistrationCost()": {
        "notice": "The cost to register a new brand. This can be changed in the future and must be able to be known in the ABI for the users to be aware of the statistic."
      },
      "brandRegistrationCurrentEarnings()": {
        "notice": "Tells the current earnings, not yet withdrawn, from brand registrations."
      },
      "deployer()": {
        "notice": "The deployer of this metaverse."
      },
      "metaverse()": {
        "notice": "The metaverse that will own this brand registry."
      },
      "onBrandOwnerChanged(address,address)": {
        "notice": "Sets the owner of a brand. This method is meant to be called internally, when the actual brand transfer is done (brands can only be transferred, but never burnt)."
      },
      "registerBrand(string,string,string,string,string,string)": {
        "notice": "Registers a new brand, when the appropriate price is paid for it. For more details on how this method works, check _registerBrand's inline documentation."
      },
      "setBrandRegistrationCost(uint256)": {
        "notice": "Sets the new brand registration cost."
      },
      "supportsInterface(bytes4)": {
        "notice": "A brand registry satisfies the IBrandRegistry and IERC165."
      },
      "updateBrandChallengeUrl(address,string)": {
        "notice": "Updates the brand's challenge url. Only the owner of the brand or an approved account can invoke this method. Ensure the url is empty or a valid URL, or metadata might fail to be assembled into valid JSON."
      },
      "updateBrandIcon16x16Url(address,string)": {
        "notice": "Updates the brand's 16x16 icon url. Only the owner of the brand or an approved account can invoke this method. Ensure the _icon is empty or a valid URL, or metadata might fail to be assembled into valid JSON."
      },
      "updateBrandIcon32x32Url(address,string)": {
        "notice": "Updates the brand's 32x32 icon url. Only the owner of the brand or an approved account can invoke this method. Ensure the _icon is empty or a valid URL, or metadata might fail to be assembled into valid JSON."
      },
      "updateBrandIcon64x64Url(address,string)": {
        "notice": "Updates the brand's 64x64 icon url. Only the owner of the brand or an approved account can invoke this method. Ensure the _icon is empty or a valid URL, or metadata might fail to be assembled into valid JSON."
      },
      "updateBrandImage(address,string)": {
        "notice": "Updates the brand image. Only the owner of the brand or an approved account can invoke this method. Ensure the _image is empty or a valid URL, or metadata might fail to be assembled into valid JSON."
      },
      "updateBrandSocialCommitment(address,bool)": {
        "notice": "Updates whether a brand is socially committed or not."
      },
      "withdrawBrandRegistrationEarnings(uint256)": {
        "notice": "Allows the sender to withdraw brand registration earnings."
      }
    },
    "version": 1
  }
}