{
  "contractName": "SampleERC1155WithBrandRegistry",
  "abi": [
    {
      "inputs": [],
      "stateMutability": "nonpayable",
      "type": "constructor"
    },
    {
      "anonymous": false,
      "inputs": [
        {
          "indexed": true,
          "internalType": "address",
          "name": "account",
          "type": "address"
        },
        {
          "indexed": true,
          "internalType": "address",
          "name": "operator",
          "type": "address"
        },
        {
          "indexed": false,
          "internalType": "bool",
          "name": "approved",
          "type": "bool"
        }
      ],
      "name": "ApprovalForAll",
      "type": "event"
    },
    {
      "anonymous": false,
      "inputs": [
        {
          "indexed": true,
          "internalType": "address",
          "name": "withdrawnBy",
          "type": "address"
        },
        {
          "indexed": false,
          "internalType": "uint256",
          "name": "amount",
          "type": "uint256"
        }
      ],
      "name": "BrandEarningsWithdrawn",
      "type": "event"
    },
    {
      "anonymous": false,
      "inputs": [
        {
          "indexed": true,
          "internalType": "address",
          "name": "registeredBy",
          "type": "address"
        },
        {
          "indexed": true,
          "internalType": "address",
          "name": "brandId",
          "type": "address"
        },
        {
          "indexed": false,
          "internalType": "string",
          "name": "name",
          "type": "string"
        },
        {
          "indexed": false,
          "internalType": "string",
          "name": "description",
          "type": "string"
        },
        {
          "indexed": false,
          "internalType": "uint256",
          "name": "price",
          "type": "uint256"
        }
      ],
      "name": "BrandRegistered",
      "type": "event"
    },
    {
      "anonymous": false,
      "inputs": [
        {
          "indexed": false,
          "internalType": "uint256",
          "name": "newCost",
          "type": "uint256"
        }
      ],
      "name": "BrandRegistrationCostUpdated",
      "type": "event"
    },
    {
      "anonymous": false,
      "inputs": [
        {
          "indexed": true,
          "internalType": "address",
          "name": "updatedBy",
          "type": "address"
        },
        {
          "indexed": true,
          "internalType": "address",
          "name": "brand",
          "type": "address"
        },
        {
          "indexed": false,
          "internalType": "bool",
          "name": "committed",
          "type": "bool"
        }
      ],
      "name": "BrandSocialCommitmentUpdated",
      "type": "event"
    },
    {
      "anonymous": false,
      "inputs": [
        {
          "indexed": true,
          "internalType": "address",
          "name": "updatedBy",
          "type": "address"
        },
        {
          "indexed": true,
          "internalType": "address",
          "name": "brandId",
          "type": "address"
        }
      ],
      "name": "BrandUpdated",
      "type": "event"
    },
    {
      "anonymous": false,
      "inputs": [
        {
          "indexed": true,
          "internalType": "address",
          "name": "operator",
          "type": "address"
        },
        {
          "indexed": true,
          "internalType": "address",
          "name": "from",
          "type": "address"
        },
        {
          "indexed": true,
          "internalType": "address",
          "name": "to",
          "type": "address"
        },
        {
          "indexed": false,
          "internalType": "uint256[]",
          "name": "ids",
          "type": "uint256[]"
        },
        {
          "indexed": false,
          "internalType": "uint256[]",
          "name": "values",
          "type": "uint256[]"
        }
      ],
      "name": "TransferBatch",
      "type": "event"
    },
    {
      "anonymous": false,
      "inputs": [
        {
          "indexed": true,
          "internalType": "address",
          "name": "operator",
          "type": "address"
        },
        {
          "indexed": true,
          "internalType": "address",
          "name": "from",
          "type": "address"
        },
        {
          "indexed": true,
          "internalType": "address",
          "name": "to",
          "type": "address"
        },
        {
          "indexed": false,
          "internalType": "uint256",
          "name": "id",
          "type": "uint256"
        },
        {
          "indexed": false,
          "internalType": "uint256",
          "name": "value",
          "type": "uint256"
        }
      ],
      "name": "TransferSingle",
      "type": "event"
    },
    {
      "anonymous": false,
      "inputs": [
        {
          "indexed": false,
          "internalType": "string",
          "name": "value",
          "type": "string"
        },
        {
          "indexed": true,
          "internalType": "uint256",
          "name": "id",
          "type": "uint256"
        }
      ],
      "name": "URI",
      "type": "event"
    },
    {
      "inputs": [
        {
          "internalType": "address",
          "name": "account",
          "type": "address"
        },
        {
          "internalType": "uint256",
          "name": "id",
          "type": "uint256"
        }
      ],
      "name": "balanceOf",
      "outputs": [
        {
          "internalType": "uint256",
          "name": "",
          "type": "uint256"
        }
      ],
      "stateMutability": "view",
      "type": "function"
    },
    {
      "inputs": [
        {
          "internalType": "address[]",
          "name": "accounts",
          "type": "address[]"
        },
        {
          "internalType": "uint256[]",
          "name": "ids",
          "type": "uint256[]"
        }
      ],
      "name": "balanceOfBatch",
      "outputs": [
        {
          "internalType": "uint256[]",
          "name": "",
          "type": "uint256[]"
        }
      ],
      "stateMutability": "view",
      "type": "function"
    },
    {
      "inputs": [
        {
          "internalType": "address",
          "name": "_brandId",
          "type": "address"
        }
      ],
      "name": "brandExists",
      "outputs": [
        {
          "internalType": "bool",
          "name": "",
          "type": "bool"
        }
      ],
      "stateMutability": "view",
      "type": "function"
    },
    {
      "inputs": [
        {
          "internalType": "address",
          "name": "_brandId",
          "type": "address"
        }
      ],
      "name": "brandMetadataURI",
      "outputs": [
        {
          "internalType": "string",
          "name": "",
          "type": "string"
        }
      ],
      "stateMutability": "view",
      "type": "function"
    },
    {
      "inputs": [],
      "name": "brandRegistrationCost",
      "outputs": [
        {
          "internalType": "uint256",
          "name": "",
          "type": "uint256"
        }
      ],
      "stateMutability": "view",
      "type": "function"
    },
    {
      "inputs": [],
      "name": "brandRegistrationCurrentEarnings",
      "outputs": [
        {
          "internalType": "uint256",
          "name": "",
          "type": "uint256"
        }
      ],
      "stateMutability": "view",
      "type": "function"
    },
    {
      "inputs": [
        {
          "internalType": "address",
          "name": "account",
          "type": "address"
        },
        {
          "internalType": "address",
          "name": "operator",
          "type": "address"
        }
      ],
      "name": "isApprovedForAll",
      "outputs": [
        {
          "internalType": "bool",
          "name": "",
          "type": "bool"
        }
      ],
      "stateMutability": "view",
      "type": "function"
    },
    {
      "inputs": [],
      "name": "owner",
      "outputs": [
        {
          "internalType": "address",
          "name": "",
          "type": "address"
        }
      ],
      "stateMutability": "view",
      "type": "function"
    },
    {
      "inputs": [
        {
          "internalType": "string",
          "name": "_name",
          "type": "string"
        },
        {
          "internalType": "string",
          "name": "_description",
          "type": "string"
        },
        {
          "internalType": "string",
          "name": "_image",
          "type": "string"
        },
        {
          "internalType": "string",
          "name": "_icon16x16",
          "type": "string"
        },
        {
          "internalType": "string",
          "name": "_icon32x32",
          "type": "string"
        },
        {
          "internalType": "string",
          "name": "_icon64x64",
          "type": "string"
        }
      ],
      "name": "registerBrand",
      "outputs": [],
      "stateMutability": "payable",
      "type": "function"
    },
    {
      "inputs": [
        {
          "internalType": "address",
          "name": "from",
          "type": "address"
        },
        {
          "internalType": "address",
          "name": "to",
          "type": "address"
        },
        {
          "internalType": "uint256[]",
          "name": "ids",
          "type": "uint256[]"
        },
        {
          "internalType": "uint256[]",
          "name": "amounts",
          "type": "uint256[]"
        },
        {
          "internalType": "bytes",
          "name": "data",
          "type": "bytes"
        }
      ],
      "name": "safeBatchTransferFrom",
      "outputs": [],
      "stateMutability": "nonpayable",
      "type": "function"
    },
    {
      "inputs": [
        {
          "internalType": "address",
          "name": "from",
          "type": "address"
        },
        {
          "internalType": "address",
          "name": "to",
          "type": "address"
        },
        {
          "internalType": "uint256",
          "name": "id",
          "type": "uint256"
        },
        {
          "internalType": "uint256",
          "name": "amount",
          "type": "uint256"
        },
        {
          "internalType": "bytes",
          "name": "data",
          "type": "bytes"
        }
      ],
      "name": "safeTransferFrom",
      "outputs": [],
      "stateMutability": "nonpayable",
      "type": "function"
    },
    {
      "inputs": [
        {
          "internalType": "address",
          "name": "operator",
          "type": "address"
        },
        {
          "internalType": "bool",
          "name": "approved",
          "type": "bool"
        }
      ],
      "name": "setApprovalForAll",
      "outputs": [],
      "stateMutability": "nonpayable",
      "type": "function"
    },
    {
      "inputs": [
        {
          "internalType": "uint256",
          "name": "_newCost",
          "type": "uint256"
        }
      ],
      "name": "setBrandRegistrationCost",
      "outputs": [],
      "stateMutability": "nonpayable",
      "type": "function"
    },
    {
      "inputs": [
        {
          "internalType": "address",
          "name": "_brandId",
          "type": "address"
        },
        {
          "internalType": "string",
          "name": "_challengeUrl",
          "type": "string"
        }
      ],
      "name": "updateBrandChallengeUrl",
      "outputs": [],
      "stateMutability": "nonpayable",
      "type": "function"
    },
    {
      "inputs": [
        {
          "internalType": "address",
          "name": "_brandId",
          "type": "address"
        },
        {
          "internalType": "string",
          "name": "_icon",
          "type": "string"
        }
      ],
      "name": "updateBrandIcon16x16Url",
      "outputs": [],
      "stateMutability": "nonpayable",
      "type": "function"
    },
    {
      "inputs": [
        {
          "internalType": "address",
          "name": "_brandId",
          "type": "address"
        },
        {
          "internalType": "string",
          "name": "_icon",
          "type": "string"
        }
      ],
      "name": "updateBrandIcon32x32Url",
      "outputs": [],
      "stateMutability": "nonpayable",
      "type": "function"
    },
    {
      "inputs": [
        {
          "internalType": "address",
          "name": "_brandId",
          "type": "address"
        },
        {
          "internalType": "string",
          "name": "_icon",
          "type": "string"
        }
      ],
      "name": "updateBrandIcon64x64Url",
      "outputs": [],
      "stateMutability": "nonpayable",
      "type": "function"
    },
    {
      "inputs": [
        {
          "internalType": "address",
          "name": "_brandId",
          "type": "address"
        },
        {
          "internalType": "string",
          "name": "_image",
          "type": "string"
        }
      ],
      "name": "updateBrandImage",
      "outputs": [],
      "stateMutability": "nonpayable",
      "type": "function"
    },
    {
      "inputs": [
        {
          "internalType": "address",
          "name": "_brandId",
          "type": "address"
        },
        {
          "internalType": "bool",
          "name": "_committed",
          "type": "bool"
        }
      ],
      "name": "updateBrandSocialCommitment",
      "outputs": [],
      "stateMutability": "nonpayable",
      "type": "function"
    },
    {
      "inputs": [
        {
          "internalType": "uint256",
          "name": "",
          "type": "uint256"
        }
      ],
      "name": "uri",
      "outputs": [
        {
          "internalType": "string",
          "name": "",
          "type": "string"
        }
      ],
      "stateMutability": "view",
      "type": "function"
    },
    {
      "inputs": [
        {
          "internalType": "uint256",
          "name": "amount",
          "type": "uint256"
        }
      ],
      "name": "withdrawBrandRegistrationEarnings",
      "outputs": [],
      "stateMutability": "nonpayable",
      "type": "function"
    },
    {
      "inputs": [
        {
          "internalType": "bytes4",
          "name": "interfaceId",
          "type": "bytes4"
        }
      ],
      "name": "supportsInterface",
      "outputs": [
        {
          "internalType": "bool",
          "name": "",
          "type": "bool"
        }
      ],
      "stateMutability": "view",
      "type": "function"
    }
  ],
  "bytecode": "0x60806040523480156200001157600080fd5b506040518060400160405280600b81526020017f61626f75743a626c616e6b0000000000000000000000000000000000000000008152506200005981620000a160201b60201c565b5033600760006101000a81548173ffffffffffffffffffffffffffffffffffffffff021916908373ffffffffffffffffffffffffffffffffffffffff160217905550620001d2565b8060029080519060200190620000b9929190620000bd565b5050565b828054620000cb906200019c565b90600052602060002090601f016020900481019282620000ef57600085556200013b565b82601f106200010a57805160ff19168380011785556200013b565b828001600101855582156200013b579182015b828111156200013a5782518255916020019190600101906200011d565b5b5090506200014a91906200014e565b5090565b5b80821115620001695760008160009055506001016200014f565b5090565b7f4e487b7100000000000000000000000000000000000000000000000000000000600052602260045260246000fd5b60006002820490506001821680620001b557607f821691505b60208210811415620001cc57620001cb6200016d565b5b50919050565b61588780620001e26000396000f3fe6080604052600436106101345760003560e01c806352ea8a36116100ab5780639896c31d1161006f5780639896c31d1461042657806399de09ff14610463578063a22cb4651461048c578063e985e9c5146104b5578063f242432a146104f2578063feb532fd1461051b57610134565b806352ea8a361461035057806370e979fb1461037957806378df8fb7146103955780637d5555df146103be5780638da5cb5b146103fb57610134565b80632eb2c2d6116100fd5780632eb2c2d6146102445780633c1213fb1461026d5780633e49d9251461029657806343779197146102c15780634e1273f4146102ea57806351a8de601461032757610134565b8062fdd58e1461013957806301ffc9a7146101765780630e89341c146101b35780630f73da86146101f057806320c6940b1461021b575b600080fd5b34801561014557600080fd5b50610160600480360381019061015b919061348a565b610544565b60405161016d91906134d9565b60405180910390f35b34801561018257600080fd5b5061019d6004803603810190610198919061354c565b61060d565b6040516101aa9190613594565b60405180910390f35b3480156101bf57600080fd5b506101da60048036038101906101d591906135af565b610747565b6040516101e79190613675565b60405180910390f35b3480156101fc57600080fd5b506102056107db565b60405161021291906134d9565b60405180910390f35b34801561022757600080fd5b50610242600480360381019061023d91906137cc565b6107e1565b005b34801561025057600080fd5b5061026b60048036038101906102669190613991565b6109cc565b005b34801561027957600080fd5b50610294600480360381019061028f91906137cc565b610a6d565b005b3480156102a257600080fd5b506102ab610c58565b6040516102b891906134d9565b60405180910390f35b3480156102cd57600080fd5b506102e860048036038101906102e391906135af565b610c5e565b005b3480156102f657600080fd5b50610311600480360381019061030c9190613b23565b610d38565b60405161031e9190613c59565b60405180910390f35b34801561033357600080fd5b5061034e600480360381019061034991906137cc565b610e51565b005b34801561035c57600080fd5b50610377600480360381019061037291906137cc565b611081565b005b610393600480360381019061038e9190613c7b565b61126c565b005b3480156103a157600080fd5b506103bc60048036038101906103b791906137cc565b611321565b005b3480156103ca57600080fd5b506103e560048036038101906103e09190613db0565b61150c565b6040516103f29190613594565b60405180910390f35b34801561040757600080fd5b506104106115a7565b60405161041d9190613dec565b60405180910390f35b34801561043257600080fd5b5061044d60048036038101906104489190613db0565b6115cd565b60405161045a9190613675565b60405180910390f35b34801561046f57600080fd5b5061048a600480360381019061048591906135af565b61177d565b005b34801561049857600080fd5b506104b360048036038101906104ae9190613e33565b6118bd565b005b3480156104c157600080fd5b506104dc60048036038101906104d79190613e73565b6118d3565b6040516104e99190613594565b60405180910390f35b3480156104fe57600080fd5b5061051960048036038101906105149190613eb3565b611967565b005b34801561052757600080fd5b50610542600480360381019061053d9190613e33565b611a08565b005b60008073ffffffffffffffffffffffffffffffffffffffff168373ffffffffffffffffffffffffffffffffffffffff1614156105b5576040517f08c379a00000000000000000000000000000000000000000000000000000000081526004016105ac90613fbc565b60405180910390fd5b60008083815260200190815260200160002060008473ffffffffffffffffffffffffffffffffffffffff1673ffffffffffffffffffffffffffffffffffffffff16815260200190815260200160002054905092915050565b60007f01ffc9a7000000000000000000000000000000000000000000000000000000007bffffffffffffffffffffffffffffffffffffffffffffffffffffffff1916827bffffffffffffffffffffffffffffffffffffffffffffffffffffffff191614806106d857507fe5c396c2000000000000000000000000000000000000000000000000000000007bffffffffffffffffffffffffffffffffffffffffffffffffffffffff1916827bffffffffffffffffffffffffffffffffffffffffffffffffffffffff1916145b8061074057507fd9b67a26000000000000000000000000000000000000000000000000000000007bffffffffffffffffffffffffffffffffffffffffffffffffffffffff1916827bffffffffffffffffffffffffffffffffffffffffffffffffffffffff1916145b9050919050565b6060600280546107569061400b565b80601f01602080910402602001604051908101604052809291908181526020018280546107829061400b565b80156107cf5780601f106107a4576101008083540402835291602001916107cf565b820191906000526020600020905b8154815290600101906020018083116107b257829003601f168201915b50505050509050919050565b60065481565b816000600460008373ffffffffffffffffffffffffffffffffffffffff1673ffffffffffffffffffffffffffffffffffffffff16815260200190815260200160002060000160009054906101000a900473ffffffffffffffffffffffffffffffffffffffff1690506000610853611bf8565b9050600073ffffffffffffffffffffffffffffffffffffffff168273ffffffffffffffffffffffffffffffffffffffff16141580156108ce57508173ffffffffffffffffffffffffffffffffffffffff168173ffffffffffffffffffffffffffffffffffffffff1614806108cd57506108cc8282611c00565b5b5b61090d576040517f08c379a0000000000000000000000000000000000000000000000000000000008152600401610904906140af565b60405180910390fd5b83600460008773ffffffffffffffffffffffffffffffffffffffff1673ffffffffffffffffffffffffffffffffffffffff168152602001908152602001600020600501908051906020019061096392919061333f565b508473ffffffffffffffffffffffffffffffffffffffff16610983611bf8565b73ffffffffffffffffffffffffffffffffffffffff167f7fd1c43abb0471595dcd4d461fdb320d926cbf2b8ba6fa87a78f1b1b0bf3e59260405160405180910390a35050505050565b6109d4611bf8565b73ffffffffffffffffffffffffffffffffffffffff168573ffffffffffffffffffffffffffffffffffffffff161480610a1a5750610a1985610a14611bf8565b6118d3565b5b610a59576040517f08c379a0000000000000000000000000000000000000000000000000000000008152600401610a5090614141565b60405180910390fd5b610a668585858585611c14565b5050505050565b816000600460008373ffffffffffffffffffffffffffffffffffffffff1673ffffffffffffffffffffffffffffffffffffffff16815260200190815260200160002060000160009054906101000a900473ffffffffffffffffffffffffffffffffffffffff1690506000610adf611bf8565b9050600073ffffffffffffffffffffffffffffffffffffffff168273ffffffffffffffffffffffffffffffffffffffff1614158015610b5a57508173ffffffffffffffffffffffffffffffffffffffff168173ffffffffffffffffffffffffffffffffffffffff161480610b595750610b588282611c00565b5b5b610b99576040517f08c379a0000000000000000000000000000000000000000000000000000000008152600401610b90906140af565b60405180910390fd5b83600460008773ffffffffffffffffffffffffffffffffffffffff1673ffffffffffffffffffffffffffffffffffffffff1681526020019081526020016000206007019080519060200190610bef92919061333f565b508473ffffffffffffffffffffffffffffffffffffffff16610c0f611bf8565b73ffffffffffffffffffffffffffffffffffffffff167f7fd1c43abb0471595dcd4d461fdb320d926cbf2b8ba6fa87a78f1b1b0bf3e59260405160405180910390a35050505050565b60035481565b610c6e610c69611bf8565b611ccb565b610cad576040517f08c379a0000000000000000000000000000000000000000000000000000000008152600401610ca4906141d3565b60405180910390fd5b662386f26fc10000811015610cf7576040517f08c379a0000000000000000000000000000000000000000000000000000000008152600401610cee9061428b565b60405180910390fd5b806003819055507fc652b105063222eb8399f76ca13b5913144c1d8af3a94bc240248ecbc36ac80b81604051610d2d91906134d9565b60405180910390a150565b60608151835114610d7e576040517f08c379a0000000000000000000000000000000000000000000000000000000008152600401610d759061431d565b60405180910390fd5b6000835167ffffffffffffffff811115610d9b57610d9a6136a1565b5b604051908082528060200260200182016040528015610dc95781602001602082028036833780820191505090505b50905060005b8451811015610e4657610e16858281518110610dee57610ded61433d565b5b6020026020010151858381518110610e0957610e0861433d565b5b6020026020010151610544565b828281518110610e2957610e2861433d565b5b60200260200101818152505080610e3f9061439b565b9050610dcf565b508091505092915050565b816000600460008373ffffffffffffffffffffffffffffffffffffffff1673ffffffffffffffffffffffffffffffffffffffff16815260200190815260200160002060000160009054906101000a900473ffffffffffffffffffffffffffffffffffffffff1690506000610ec3611bf8565b9050600073ffffffffffffffffffffffffffffffffffffffff168273ffffffffffffffffffffffffffffffffffffffff1614158015610f3e57508173ffffffffffffffffffffffffffffffffffffffff168173ffffffffffffffffffffffffffffffffffffffff161480610f3d5750610f3c8282611c00565b5b5b610f7d576040517f08c379a0000000000000000000000000000000000000000000000000000000008152600401610f74906140af565b60405180910390fd5b600084511415610fc2576040517f08c379a0000000000000000000000000000000000000000000000000000000008152600401610fb990614456565b60405180910390fd5b83600460008773ffffffffffffffffffffffffffffffffffffffff1673ffffffffffffffffffffffffffffffffffffffff168152602001908152602001600020600401908051906020019061101892919061333f565b508473ffffffffffffffffffffffffffffffffffffffff16611038611bf8565b73ffffffffffffffffffffffffffffffffffffffff167f7fd1c43abb0471595dcd4d461fdb320d926cbf2b8ba6fa87a78f1b1b0bf3e59260405160405180910390a35050505050565b816000600460008373ffffffffffffffffffffffffffffffffffffffff1673ffffffffffffffffffffffffffffffffffffffff16815260200190815260200160002060000160009054906101000a900473ffffffffffffffffffffffffffffffffffffffff16905060006110f3611bf8565b9050600073ffffffffffffffffffffffffffffffffffffffff168273ffffffffffffffffffffffffffffffffffffffff161415801561116e57508173ffffffffffffffffffffffffffffffffffffffff168173ffffffffffffffffffffffffffffffffffffffff16148061116d575061116c8282611c00565b5b5b6111ad576040517f08c379a00000000000000000000000000000000000000000000000000000000081526004016111a4906140af565b60405180910390fd5b83600460008773ffffffffffffffffffffffffffffffffffffffff1673ffffffffffffffffffffffffffffffffffffffff168152602001908152602001600020600601908051906020019061120392919061333f565b508473ffffffffffffffffffffffffffffffffffffffff16611223611bf8565b73ffffffffffffffffffffffffffffffffffffffff167f7fd1c43abb0471595dcd4d461fdb320d926cbf2b8ba6fa87a78f1b1b0bf3e59260405160405180910390a35050505050565b6040518060600160405280602181526020016158316021913960035460003490508181148361129a84611d25565b6112a384611d25565b6040516020016112b593929190614596565b60405160208183030381529060405290611305576040517f08c379a00000000000000000000000000000000000000000000000000000000081526004016112fc9190613675565b60405180910390fd5b506113168989898989896000611e86565b505050505050505050565b816000600460008373ffffffffffffffffffffffffffffffffffffffff1673ffffffffffffffffffffffffffffffffffffffff16815260200190815260200160002060000160009054906101000a900473ffffffffffffffffffffffffffffffffffffffff1690506000611393611bf8565b9050600073ffffffffffffffffffffffffffffffffffffffff168273ffffffffffffffffffffffffffffffffffffffff161415801561140e57508173ffffffffffffffffffffffffffffffffffffffff168173ffffffffffffffffffffffffffffffffffffffff16148061140d575061140c8282611c00565b5b5b61144d576040517f08c379a0000000000000000000000000000000000000000000000000000000008152600401611444906140af565b60405180910390fd5b83600460008773ffffffffffffffffffffffffffffffffffffffff1673ffffffffffffffffffffffffffffffffffffffff16815260200190815260200160002060030190805190602001906114a392919061333f565b508473ffffffffffffffffffffffffffffffffffffffff166114c3611bf8565b73ffffffffffffffffffffffffffffffffffffffff167f7fd1c43abb0471595dcd4d461fdb320d926cbf2b8ba6fa87a78f1b1b0bf3e59260405160405180910390a35050505050565b60008073ffffffffffffffffffffffffffffffffffffffff16600460008473ffffffffffffffffffffffffffffffffffffffff1673ffffffffffffffffffffffffffffffffffffffff16815260200190815260200160002060000160009054906101000a900473ffffffffffffffffffffffffffffffffffffffff1673ffffffffffffffffffffffffffffffffffffffff1614159050919050565b600760009054906101000a900473ffffffffffffffffffffffffffffffffffffffff1681565b60606000600460008473ffffffffffffffffffffffffffffffffffffffff1673ffffffffffffffffffffffffffffffffffffffff1681526020019081526020016000209050600073ffffffffffffffffffffffffffffffffffffffff168160000160009054906101000a900473ffffffffffffffffffffffffffffffffffffffff1673ffffffffffffffffffffffffffffffffffffffff1614156116835760405180602001604052806000815250915050611778565b611755816001018260020183600401846003018560050186600601876007018860080160009054906101000a900460ff166116f3576040518060400160405280600581526020017f66616c736500000000000000000000000000000000000000000000000000000081525061172a565b6040518060400160405280600481526020017f74727565000000000000000000000000000000000000000000000000000000008152505b604051602001611741989796959493929190614928565b604051602081830303815290604052612257565b6040516020016117659190614a49565b6040516020818303038152906040529150505b919050565b6000611787611bf8565b9050611792816123bb565b6117d1576040517f08c379a00000000000000000000000000000000000000000000000000000000081526004016117c890614add565b60405180910390fd5b60008211611814576040517f08c379a000000000000000000000000000000000000000000000000000000000815260040161180b90614b6f565b60405180910390fd5b816006541015611859576040517f08c379a000000000000000000000000000000000000000000000000000000000815260040161185090614c01565b60405180910390fd5b816006600082825461186b9190614c21565b925050819055508073ffffffffffffffffffffffffffffffffffffffff166108fc839081150290604051600060405180830381858888f193505050501580156118b8573d6000803e3d6000fd5b505050565b6118cf6118c8611bf8565b8383612415565b5050565b6000600160008473ffffffffffffffffffffffffffffffffffffffff1673ffffffffffffffffffffffffffffffffffffffff16815260200190815260200160002060008373ffffffffffffffffffffffffffffffffffffffff1673ffffffffffffffffffffffffffffffffffffffff16815260200190815260200160002060009054906101000a900460ff16905092915050565b61196f611bf8565b73ffffffffffffffffffffffffffffffffffffffff168573ffffffffffffffffffffffffffffffffffffffff1614806119b557506119b4856119af611bf8565b6118d3565b5b6119f4576040517f08c379a00000000000000000000000000000000000000000000000000000000081526004016119eb90614141565b60405180910390fd5b611a018585858585612582565b5050505050565b6000600460008473ffffffffffffffffffffffffffffffffffffffff1673ffffffffffffffffffffffffffffffffffffffff16815260200190815260200160002060000160009054906101000a900473ffffffffffffffffffffffffffffffffffffffff169050600073ffffffffffffffffffffffffffffffffffffffff168173ffffffffffffffffffffffffffffffffffffffff161415611adf576040517f08c379a0000000000000000000000000000000000000000000000000000000008152600401611ad690614cc7565b60405180910390fd5b6000611ae9611bf8565b9050611af4816125be565b611b33576040517f08c379a0000000000000000000000000000000000000000000000000000000008152600401611b2a90614d59565b60405180910390fd5b82600460008673ffffffffffffffffffffffffffffffffffffffff1673ffffffffffffffffffffffffffffffffffffffff16815260200190815260200160002060080160006101000a81548160ff0219169083151502179055508373ffffffffffffffffffffffffffffffffffffffff168173ffffffffffffffffffffffffffffffffffffffff167f1a9425b12b0cb193f4db2ac1b9bc0712393521978231a7fcf5f0262b847cd54985604051611bea9190613594565b60405180910390a350505050565b600033905090565b6000611c0c83836118d3565b905092915050565b611c218585858585612618565b60005b8251811015611cc35774010000000000000000000000000000000000000000848281518110611c5657611c5561433d565b5b6020026020010151108015611c8657506000838281518110611c7b57611c7a61433d565b5b602002602001015114155b15611cb057611caf848281518110611ca157611ca061433d565b5b60200260200101518661293a565b5b8080611cbb9061439b565b915050611c24565b505050505050565b60008173ffffffffffffffffffffffffffffffffffffffff16600760009054906101000a900473ffffffffffffffffffffffffffffffffffffffff1673ffffffffffffffffffffffffffffffffffffffff16149050919050565b60606000821415611d6d576040518060400160405280600181526020017f30000000000000000000000000000000000000000000000000000000000000008152509050611e81565b600082905060005b60008214611d9f578080611d889061439b565b915050600a82611d989190614da8565b9150611d75565b60008167ffffffffffffffff811115611dbb57611dba6136a1565b5b6040519080825280601f01601f191660200182016040528015611ded5781602001600182028036833780820191505090505b5090505b60008514611e7a57600182611e069190614c21565b9150600a85611e159190614dd9565b6030611e219190614e0a565b60f81b818381518110611e3757611e3661433d565b5b60200101907effffffffffffffffffffffffffffffffffffffffffffffffffffffffffffff1916908160001a905350600a85611e739190614da8565b9450611df1565b8093505050505b919050565b6000611e90611bf8565b9050600088511415611ed7576040517f08c379a0000000000000000000000000000000000000000000000000000000008152600401611ece90614ed2565b60405180910390fd5b600087511415611f1c576040517f08c379a0000000000000000000000000000000000000000000000000000000008152600401611f1390614f64565b60405180910390fd5b600086511415611f61576040517f08c379a0000000000000000000000000000000000000000000000000000000008152600401611f5890614456565b60405180910390fd5b3460066000828254611f739190614e0a565b92505081905550600160056000828254611f8d9190614e0a565b92505081905550600060d660f81b609460f81b308460055460001b604051602001611fbc959493929190615044565b6040516020818303038152906040528051906020012060001c90506040518061012001604052808373ffffffffffffffffffffffffffffffffffffffff1681526020018a81526020018981526020016040518060400160405280600b81526020017f61626f75743a626c616e6b0000000000000000000000000000000000000000008152508152602001888152602001878152602001868152602001858152602001841515815250600460008373ffffffffffffffffffffffffffffffffffffffff1673ffffffffffffffffffffffffffffffffffffffff16815260200190815260200160002060008201518160000160006101000a81548173ffffffffffffffffffffffffffffffffffffffff021916908373ffffffffffffffffffffffffffffffffffffffff160217905550602082015181600101908051906020019061210692919061333f565b50604082015181600201908051906020019061212392919061333f565b50606082015181600301908051906020019061214092919061333f565b50608082015181600401908051906020019061215d92919061333f565b5060a082015181600501908051906020019061217a92919061333f565b5060c082015181600601908051906020019061219792919061333f565b5060e08201518160070190805190602001906121b492919061333f565b506101008201518160080160006101000a81548160ff0219169083151502179055509050506121e38282612a56565b8073ffffffffffffffffffffffffffffffffffffffff168273ffffffffffffffffffffffffffffffffffffffff167fbaa80c9cbed3f9a5fcdc4e9dd7785f9cfc968a81b80b94363bea0e92c938c0d98b8b34604051612244939291906150a3565b60405180910390a3505050505050505050565b606060008251141561227a576040518060200160405280600081525090506123b6565b60006040518060600160405280604081526020016157f160409139905060006003600285516122a99190614e0a565b6122b39190614da8565b60046122bf91906150e8565b67ffffffffffffffff8111156122d8576122d76136a1565b5b6040519080825280601f01601f19166020018201604052801561230a5781602001600182028036833780820191505090505b509050600182016020820185865187015b80821015612376576003820191508151603f8160121c168501518453600184019350603f81600c1c168501518453600184019350603f8160061c168501518453600184019350603f811685015184536001840193505061231b565b505060038651066001811461239257600281146123a5576123ad565b603d6001830353603d60028303536123ad565b603d60018303535b50505080925050505b919050565b60008173ffffffffffffffffffffffffffffffffffffffff16600760009054906101000a900473ffffffffffffffffffffffffffffffffffffffff1673ffffffffffffffffffffffffffffffffffffffff16149050919050565b8173ffffffffffffffffffffffffffffffffffffffff168373ffffffffffffffffffffffffffffffffffffffff161415612484576040517f08c379a000000000000000000000000000000000000000000000000000000000815260040161247b906151b4565b60405180910390fd5b80600160008573ffffffffffffffffffffffffffffffffffffffff1673ffffffffffffffffffffffffffffffffffffffff16815260200190815260200160002060008473ffffffffffffffffffffffffffffffffffffffff1673ffffffffffffffffffffffffffffffffffffffff16815260200190815260200160002060006101000a81548160ff0219169083151502179055508173ffffffffffffffffffffffffffffffffffffffff168373ffffffffffffffffffffffffffffffffffffffff167f17307eab39ab6107e8899845ad3d59bd9653f200f220920489ca2b5937696c31836040516125759190613594565b60405180910390a3505050565b61258f8585858585612a95565b740100000000000000000000000000000000000000008310156125b7576125b6838561293a565b5b5050505050565b60008173ffffffffffffffffffffffffffffffffffffffff16600760009054906101000a900473ffffffffffffffffffffffffffffffffffffffff1673ffffffffffffffffffffffffffffffffffffffff16149050919050565b815183511461265c576040517f08c379a000000000000000000000000000000000000000000000000000000000815260040161265390615246565b60405180910390fd5b600073ffffffffffffffffffffffffffffffffffffffff168473ffffffffffffffffffffffffffffffffffffffff1614156126cc576040517f08c379a00000000000000000000000000000000000000000000000000000000081526004016126c3906152d8565b60405180910390fd5b60006126d6611bf8565b90506126e6818787878787612d31565b60005b84518110156128975760008582815181106127075761270661433d565b5b6020026020010151905060008583815181106127265761272561433d565b5b60200260200101519050600080600084815260200190815260200160002060008b73ffffffffffffffffffffffffffffffffffffffff1673ffffffffffffffffffffffffffffffffffffffff168152602001908152602001600020549050818110156127c7576040517f08c379a00000000000000000000000000000000000000000000000000000000081526004016127be9061536a565b60405180910390fd5b81810360008085815260200190815260200160002060008c73ffffffffffffffffffffffffffffffffffffffff1673ffffffffffffffffffffffffffffffffffffffff168152602001908152602001600020819055508160008085815260200190815260200160002060008b73ffffffffffffffffffffffffffffffffffffffff1673ffffffffffffffffffffffffffffffffffffffff168152602001908152602001600020600082825461287c9190614e0a565b92505081905550505050806128909061439b565b90506126e9565b508473ffffffffffffffffffffffffffffffffffffffff168673ffffffffffffffffffffffffffffffffffffffff168273ffffffffffffffffffffffffffffffffffffffff167f4a39dc06d4c0dbc64b70af90fd698a233a518aa5d07e595d983b8c0526c8f7fb878760405161290e92919061538a565b60405180910390a4612924818787878787612d39565b612932818787878787612d41565b505050505050565b600073ffffffffffffffffffffffffffffffffffffffff16600460008473ffffffffffffffffffffffffffffffffffffffff1673ffffffffffffffffffffffffffffffffffffffff16815260200190815260200160002060000160009054906101000a900473ffffffffffffffffffffffffffffffffffffffff1673ffffffffffffffffffffffffffffffffffffffff1614612a525780600460008473ffffffffffffffffffffffffffffffffffffffff1673ffffffffffffffffffffffffffffffffffffffff16815260200190815260200160002060000160006101000a81548173ffffffffffffffffffffffffffffffffffffffff021916908373ffffffffffffffffffffffffffffffffffffffff1602179055505b5050565b612a91818373ffffffffffffffffffffffffffffffffffffffff1660016040518060600160405280603281526020016157bf60329139612f19565b5050565b600073ffffffffffffffffffffffffffffffffffffffff168473ffffffffffffffffffffffffffffffffffffffff161415612b05576040517f08c379a0000000000000000000000000000000000000000000000000000000008152600401612afc906152d8565b60405180910390fd5b6000612b0f611bf8565b90506000612b1c856130ca565b90506000612b29856130ca565b9050612b39838989858589612d31565b600080600088815260200190815260200160002060008a73ffffffffffffffffffffffffffffffffffffffff1673ffffffffffffffffffffffffffffffffffffffff16815260200190815260200160002054905085811015612bd0576040517f08c379a0000000000000000000000000000000000000000000000000000000008152600401612bc79061536a565b60405180910390fd5b85810360008089815260200190815260200160002060008b73ffffffffffffffffffffffffffffffffffffffff1673ffffffffffffffffffffffffffffffffffffffff168152602001908152602001600020819055508560008089815260200190815260200160002060008a73ffffffffffffffffffffffffffffffffffffffff1673ffffffffffffffffffffffffffffffffffffffff1681526020019081526020016000206000828254612c859190614e0a565b925050819055508773ffffffffffffffffffffffffffffffffffffffff168973ffffffffffffffffffffffffffffffffffffffff168573ffffffffffffffffffffffffffffffffffffffff167fc3d58168c5ae7397731d063d5bbf3d657854427343f4c083240f7aacaa2d0f628a8a604051612d029291906153c1565b60405180910390a4612d18848a8a86868a612d39565b612d26848a8a8a8a8a613144565b505050505050505050565b505050505050565b505050505050565b612d608473ffffffffffffffffffffffffffffffffffffffff1661331c565b15612f11578373ffffffffffffffffffffffffffffffffffffffff1663bc197c8187878686866040518663ffffffff1660e01b8152600401612da695949392919061543f565b6020604051808303816000875af1925050508015612de257506040513d601f19601f82011682018060405250810190612ddf91906154bc565b60015b612e8857612dee6154f6565b806308c379a01415612e4b5750612e03615518565b80612e0e5750612e4d565b806040517f08c379a0000000000000000000000000000000000000000000000000000000008152600401612e429190613675565b60405180910390fd5b505b6040517f08c379a0000000000000000000000000000000000000000000000000000000008152600401612e7f90615620565b60405180910390fd5b63bc197c8160e01b7bffffffffffffffffffffffffffffffffffffffffffffffffffffffff1916817bffffffffffffffffffffffffffffffffffffffffffffffffffffffff191614612f0f576040517f08c379a0000000000000000000000000000000000000000000000000000000008152600401612f06906156b2565b60405180910390fd5b505b505050505050565b600073ffffffffffffffffffffffffffffffffffffffff168473ffffffffffffffffffffffffffffffffffffffff161415612f89576040517f08c379a0000000000000000000000000000000000000000000000000000000008152600401612f8090615744565b60405180910390fd5b6000612f93611bf8565b90506000612fa0856130ca565b90506000612fad856130ca565b9050612fbe83600089858589612d31565b8460008088815260200190815260200160002060008973ffffffffffffffffffffffffffffffffffffffff1673ffffffffffffffffffffffffffffffffffffffff168152602001908152602001600020600082825461301d9190614e0a565b925050819055508673ffffffffffffffffffffffffffffffffffffffff16600073ffffffffffffffffffffffffffffffffffffffff168473ffffffffffffffffffffffffffffffffffffffff167fc3d58168c5ae7397731d063d5bbf3d657854427343f4c083240f7aacaa2d0f62898960405161309b9291906153c1565b60405180910390a46130b283600089858589612d39565b6130c183600089898989613144565b50505050505050565b60606000600167ffffffffffffffff8111156130e9576130e86136a1565b5b6040519080825280602002602001820160405280156131175781602001602082028036833780820191505090505b509050828160008151811061312f5761312e61433d565b5b60200260200101818152505080915050919050565b6131638473ffffffffffffffffffffffffffffffffffffffff1661331c565b15613314578373ffffffffffffffffffffffffffffffffffffffff1663f23a6e6187878686866040518663ffffffff1660e01b81526004016131a9959493929190615764565b6020604051808303816000875af19250505080156131e557506040513d601f19601f820116820180604052508101906131e291906154bc565b60015b61328b576131f16154f6565b806308c379a0141561324e5750613206615518565b806132115750613250565b806040517f08c379a00000000000000000000000000000000000000000000000000000000081526004016132459190613675565b60405180910390fd5b505b6040517f08c379a000000000000000000000000000000000000000000000000000000000815260040161328290615620565b60405180910390fd5b63f23a6e6160e01b7bffffffffffffffffffffffffffffffffffffffffffffffffffffffff1916817bffffffffffffffffffffffffffffffffffffffffffffffffffffffff191614613312576040517f08c379a0000000000000000000000000000000000000000000000000000000008152600401613309906156b2565b60405180910390fd5b505b505050505050565b6000808273ffffffffffffffffffffffffffffffffffffffff163b119050919050565b82805461334b9061400b565b90600052602060002090601f01602090048101928261336d57600085556133b4565b82601f1061338657805160ff19168380011785556133b4565b828001600101855582156133b4579182015b828111156133b3578251825591602001919060010190613398565b5b5090506133c191906133c5565b5090565b5b808211156133de5760008160009055506001016133c6565b5090565b6000604051905090565b600080fd5b600080fd5b600073ffffffffffffffffffffffffffffffffffffffff82169050919050565b6000613421826133f6565b9050919050565b61343181613416565b811461343c57600080fd5b50565b60008135905061344e81613428565b92915050565b6000819050919050565b61346781613454565b811461347257600080fd5b50565b6000813590506134848161345e565b92915050565b600080604083850312156134a1576134a06133ec565b5b60006134af8582860161343f565b92505060206134c085828601613475565b9150509250929050565b6134d381613454565b82525050565b60006020820190506134ee60008301846134ca565b92915050565b60007fffffffff0000000000000000000000000000000000000000000000000000000082169050919050565b613529816134f4565b811461353457600080fd5b50565b60008135905061354681613520565b92915050565b600060208284031215613562576135616133ec565b5b600061357084828501613537565b91505092915050565b60008115159050919050565b61358e81613579565b82525050565b60006020820190506135a96000830184613585565b92915050565b6000602082840312156135c5576135c46133ec565b5b60006135d384828501613475565b91505092915050565b600081519050919050565b600082825260208201905092915050565b60005b838110156136165780820151818401526020810190506135fb565b83811115613625576000848401525b50505050565b6000601f19601f8301169050919050565b6000613647826135dc565b61365181856135e7565b93506136618185602086016135f8565b61366a8161362b565b840191505092915050565b6000602082019050818103600083015261368f818461363c565b905092915050565b600080fd5b600080fd5b7f4e487b7100000000000000000000000000000000000000000000000000000000600052604160045260246000fd5b6136d98261362b565b810181811067ffffffffffffffff821117156136f8576136f76136a1565b5b80604052505050565b600061370b6133e2565b905061371782826136d0565b919050565b600067ffffffffffffffff821115613737576137366136a1565b5b6137408261362b565b9050602081019050919050565b82818337600083830152505050565b600061376f61376a8461371c565b613701565b90508281526020810184848401111561378b5761378a61369c565b5b61379684828561374d565b509392505050565b600082601f8301126137b3576137b2613697565b5b81356137c384826020860161375c565b91505092915050565b600080604083850312156137e3576137e26133ec565b5b60006137f18582860161343f565b925050602083013567ffffffffffffffff811115613812576138116133f1565b5b61381e8582860161379e565b9150509250929050565b600067ffffffffffffffff821115613843576138426136a1565b5b602082029050602081019050919050565b600080fd5b600061386c61386784613828565b613701565b9050808382526020820190506020840283018581111561388f5761388e613854565b5b835b818110156138b857806138a48882613475565b845260208401935050602081019050613891565b5050509392505050565b600082601f8301126138d7576138d6613697565b5b81356138e7848260208601613859565b91505092915050565b600067ffffffffffffffff82111561390b5761390a6136a1565b5b6139148261362b565b9050602081019050919050565b600061393461392f846138f0565b613701565b9050828152602081018484840111156139505761394f61369c565b5b61395b84828561374d565b509392505050565b600082601f83011261397857613977613697565b5b8135613988848260208601613921565b91505092915050565b600080600080600060a086880312156139ad576139ac6133ec565b5b60006139bb8882890161343f565b95505060206139cc8882890161343f565b945050604086013567ffffffffffffffff8111156139ed576139ec6133f1565b5b6139f9888289016138c2565b935050606086013567ffffffffffffffff811115613a1a57613a196133f1565b5b613a26888289016138c2565b925050608086013567ffffffffffffffff811115613a4757613a466133f1565b5b613a5388828901613963565b9150509295509295909350565b600067ffffffffffffffff821115613a7b57613a7a6136a1565b5b602082029050602081019050919050565b6000613a9f613a9a84613a60565b613701565b90508083825260208201905060208402830185811115613ac257613ac1613854565b5b835b81811015613aeb5780613ad7888261343f565b845260208401935050602081019050613ac4565b5050509392505050565b600082601f830112613b0a57613b09613697565b5b8135613b1a848260208601613a8c565b91505092915050565b60008060408385031215613b3a57613b396133ec565b5b600083013567ffffffffffffffff811115613b5857613b576133f1565b5b613b6485828601613af5565b925050602083013567ffffffffffffffff811115613b8557613b846133f1565b5b613b91858286016138c2565b9150509250929050565b600081519050919050565b600082825260208201905092915050565b6000819050602082019050919050565b613bd081613454565b82525050565b6000613be28383613bc7565b60208301905092915050565b6000602082019050919050565b6000613c0682613b9b565b613c108185613ba6565b9350613c1b83613bb7565b8060005b83811015613c4c578151613c338882613bd6565b9750613c3e83613bee565b925050600181019050613c1f565b5085935050505092915050565b60006020820190508181036000830152613c738184613bfb565b905092915050565b60008060008060008060c08789031215613c9857613c976133ec565b5b600087013567ffffffffffffffff811115613cb657613cb56133f1565b5b613cc289828a0161379e565b965050602087013567ffffffffffffffff811115613ce357613ce26133f1565b5b613cef89828a0161379e565b955050604087013567ffffffffffffffff811115613d1057613d0f6133f1565b5b613d1c89828a0161379e565b945050606087013567ffffffffffffffff811115613d3d57613d3c6133f1565b5b613d4989828a0161379e565b935050608087013567ffffffffffffffff811115613d6a57613d696133f1565b5b613d7689828a0161379e565b92505060a087013567ffffffffffffffff811115613d9757613d966133f1565b5b613da389828a0161379e565b9150509295509295509295565b600060208284031215613dc657613dc56133ec565b5b6000613dd48482850161343f565b91505092915050565b613de681613416565b82525050565b6000602082019050613e016000830184613ddd565b92915050565b613e1081613579565b8114613e1b57600080fd5b50565b600081359050613e2d81613e07565b92915050565b60008060408385031215613e4a57613e496133ec565b5b6000613e588582860161343f565b9250506020613e6985828601613e1e565b9150509250929050565b60008060408385031215613e8a57613e896133ec565b5b6000613e988582860161343f565b9250506020613ea98582860161343f565b9150509250929050565b600080600080600060a08688031215613ecf57613ece6133ec565b5b6000613edd8882890161343f565b9550506020613eee8882890161343f565b9450506040613eff88828901613475565b9350506060613f1088828901613475565b925050608086013567ffffffffffffffff811115613f3157613f306133f1565b5b613f3d88828901613963565b9150509295509295909350565b7f455243313135353a2061646472657373207a65726f206973206e6f742061207660008201527f616c6964206f776e657200000000000000000000000000000000000000000000602082015250565b6000613fa6602a836135e7565b9150613fb182613f4a565b604082019050919050565b60006020820190508181036000830152613fd581613f99565b9050919050565b7f4e487b7100000000000000000000000000000000000000000000000000000000600052602260045260246000fd5b6000600282049050600182168061402357607f821691505b6020821081141561403757614036613fdc565b5b50919050565b7f4272616e6452656769737472793a2063616c6c6572206973206e6f742062726160008201527f6e64206f776e6572206e6f7220617070726f7665640000000000000000000000602082015250565b60006140996035836135e7565b91506140a48261403d565b604082019050919050565b600060208201905081810360008301526140c88161408c565b9050919050565b7f455243313135353a2063616c6c6572206973206e6f7420746f6b656e206f776e60008201527f6572206e6f7220617070726f7665640000000000000000000000000000000000602082015250565b600061412b602f836135e7565b9150614136826140cf565b604082019050919050565b6000602082019050818103600083015261415a8161411e565b9050919050565b7f4272616e6452656769737472793a206e6f7420616c6c6f77656420746f20736560008201527f7420746865206272616e6420726567697374726174696f6e20636f7374000000602082015250565b60006141bd603d836135e7565b91506141c882614161565b604082019050919050565b600060208201905081810360008301526141ec816141b0565b9050919050565b7f4272616e6452656769737472793a20746865206272616e64207265676973747260008201527f7920636f7374206d757374206e6f74206265206c657373207468616e20302e3060208201527f31206e617469766520746f6b656e730000000000000000000000000000000000604082015250565b6000614275604f836135e7565b9150614280826141f3565b606082019050919050565b600060208201905081810360008301526142a481614268565b9050919050565b7f455243313135353a206163636f756e747320616e6420696473206c656e67746860008201527f206d69736d617463680000000000000000000000000000000000000000000000602082015250565b60006143076029836135e7565b9150614312826142ab565b604082019050919050565b60006020820190508181036000830152614336816142fa565b9050919050565b7f4e487b7100000000000000000000000000000000000000000000000000000000600052603260045260246000fd5b7f4e487b7100000000000000000000000000000000000000000000000000000000600052601160045260246000fd5b60006143a682613454565b91507fffffffffffffffffffffffffffffffffffffffffffffffffffffffffffffffff8214156143d9576143d861436c565b5b600182019050919050565b7f4272616e6452656769737472793a207573652061206e6f6e2d656d707479206960008201527f6d6167652075726c000000000000000000000000000000000000000000000000602082015250565b60006144406028836135e7565b915061444b826143e4565b604082019050919050565b6000602082019050818103600083015261446f81614433565b9050919050565b600081905092915050565b600061448c826135dc565b6144968185614476565b93506144a68185602086016135f8565b80840191505092915050565b7f20726571756972657320616e206578616374207061796d656e74206f66200000600082015250565b60006144e8601e83614476565b91506144f3826144b2565b601e82019050919050565b7f2062757420000000000000000000000000000000000000000000000000000000600082015250565b6000614534600583614476565b915061453f826144fe565b600582019050919050565b7f2077617320676976656e00000000000000000000000000000000000000000000600082015250565b6000614580600a83614476565b915061458b8261454a565b600a82019050919050565b60006145a28286614481565b91506145ad826144db565b91506145b98285614481565b91506145c482614527565b91506145d08284614481565b91506145db82614573565b9150819050949350505050565b7f7b226e616d65223a220000000000000000000000000000000000000000000000600082015250565b600061461e600983614476565b9150614629826145e8565b600982019050919050565b60008190508160005260206000209050919050565b600081546146568161400b565b6146608186614476565b9450600182166000811461467b576001811461468c576146bf565b60ff198316865281860193506146bf565b61469585614634565b60005b838110156146b757815481890152600182019150602081019050614698565b838801955050505b50505092915050565b7f222c226465736372697074696f6e223a22000000000000000000000000000000600082015250565b60006146fe601183614476565b9150614709826146c8565b601182019050919050565b7f222c22696d616765223a22000000000000000000000000000000000000000000600082015250565b600061474a600b83614476565b915061475582614714565b600b82019050919050565b7f222c2270726f70657274696573223a7b226368616c6c656e676555726c223a22600082015250565b6000614796602083614476565b91506147a182614760565b602082019050919050565b7f222c2269636f6e3136783136223a220000000000000000000000000000000000600082015250565b60006147e2600f83614476565b91506147ed826147ac565b600f82019050919050565b7f222c2269636f6e3332783332223a220000000000000000000000000000000000600082015250565b600061482e600f83614476565b9150614839826147f8565b600f82019050919050565b7f222c2269636f6e3634783634223a220000000000000000000000000000000000600082015250565b600061487a600f83614476565b915061488582614844565b600f82019050919050565b7f222c22636f6d6d6974746564223a000000000000000000000000000000000000600082015250565b60006148c6600e83614476565b91506148d182614890565b600e82019050919050565b7f7d7d000000000000000000000000000000000000000000000000000000000000600082015250565b6000614912600283614476565b915061491d826148dc565b600282019050919050565b600061493382614611565b915061493f828b614649565b915061494a826146f1565b9150614956828a614649565b91506149618261473d565b915061496d8289614649565b915061497882614789565b91506149848288614649565b915061498f826147d5565b915061499b8287614649565b91506149a682614821565b91506149b28286614649565b91506149bd8261486d565b91506149c98285614649565b91506149d4826148b9565b91506149e08284614481565b91506149eb82614905565b91508190509998505050505050505050565b7f646174613a6170706c69636174696f6e2f6a736f6e3b6261736536342c000000600082015250565b6000614a33601d83614476565b9150614a3e826149fd565b601d82019050919050565b6000614a5482614a26565b9150614a608284614481565b915081905092915050565b7f4272616e6452656769737472793a206561726e696e67732063616e6e6f74206260008201527f652077697468647261776e20627920746869732073656e646572000000000000602082015250565b6000614ac7603a836135e7565b9150614ad282614a6b565b604082019050919050565b60006020820190508181036000830152614af681614aba565b9050919050565b7f4272616e6452656769737472793a206561726e696e677320616d6f756e74206d60008201527f757374206e6f7420626520300000000000000000000000000000000000000000602082015250565b6000614b59602c836135e7565b9150614b6482614afd565b604082019050919050565b60006020820190508181036000830152614b8881614b4c565b9050919050565b7f4272616e6452656769737472793a206561726e696e677320616d6f756e74206960008201527f73206c657373207468616e207468652072657175657374656420616d6f756e74602082015250565b6000614beb6040836135e7565b9150614bf682614b8f565b604082019050919050565b60006020820190508181036000830152614c1a81614bde565b9050919050565b6000614c2c82613454565b9150614c3783613454565b925082821015614c4a57614c4961436c565b5b828203905092915050565b7f4272616e6452656769737472793a206e6f6e2d6578697374696e67206272616e60008201527f6400000000000000000000000000000000000000000000000000000000000000602082015250565b6000614cb16021836135e7565b9150614cbc82614c55565b604082019050919050565b60006020820190508181036000830152614ce081614ca4565b9050919050565b7f4272616e6452656769737472793a206e6f7420616c6c6f77656420746f20736560008201527f74206272616e64732720736f6369616c20636f6d6d69746d656e740000000000602082015250565b6000614d43603b836135e7565b9150614d4e82614ce7565b604082019050919050565b60006020820190508181036000830152614d7281614d36565b9050919050565b7f4e487b7100000000000000000000000000000000000000000000000000000000600052601260045260246000fd5b6000614db382613454565b9150614dbe83613454565b925082614dce57614dcd614d79565b5b828204905092915050565b6000614de482613454565b9150614def83613454565b925082614dff57614dfe614d79565b5b828206905092915050565b6000614e1582613454565b9150614e2083613454565b9250827fffffffffffffffffffffffffffffffffffffffffffffffffffffffffffffffff03821115614e5557614e5461436c565b5b828201905092915050565b7f4272616e6452656769737472793a207573652061206e6f6e2d656d707479206e60008201527f616d650000000000000000000000000000000000000000000000000000000000602082015250565b6000614ebc6023836135e7565b9150614ec782614e60565b604082019050919050565b60006020820190508181036000830152614eeb81614eaf565b9050919050565b7f4272616e6452656769737472793a207573652061206e6f6e2d656d707479206460008201527f65736372697074696f6e00000000000000000000000000000000000000000000602082015250565b6000614f4e602a836135e7565b9150614f5982614ef2565b604082019050919050565b60006020820190508181036000830152614f7d81614f41565b9050919050565b60007fff0000000000000000000000000000000000000000000000000000000000000082169050919050565b6000819050919050565b614fcb614fc682614f84565b614fb0565b82525050565b60008160601b9050919050565b6000614fe982614fd1565b9050919050565b6000614ffb82614fde565b9050919050565b61501361500e82613416565b614ff0565b82525050565b6000819050919050565b6000819050919050565b61503e61503982615019565b615023565b82525050565b60006150508288614fba565b6001820191506150608287614fba565b6001820191506150708286615002565b6014820191506150808285615002565b601482019150615090828461502d565b6020820191508190509695505050505050565b600060608201905081810360008301526150bd818661363c565b905081810360208301526150d1818561363c565b90506150e060408301846134ca565b949350505050565b60006150f382613454565b91506150fe83613454565b9250817fffffffffffffffffffffffffffffffffffffffffffffffffffffffffffffffff04831182151516156151375761513661436c565b5b828202905092915050565b7f455243313135353a2073657474696e6720617070726f76616c2073746174757360008201527f20666f722073656c660000000000000000000000000000000000000000000000602082015250565b600061519e6029836135e7565b91506151a982615142565b604082019050919050565b600060208201905081810360008301526151cd81615191565b9050919050565b7f455243313135353a2069647320616e6420616d6f756e7473206c656e6774682060008201527f6d69736d61746368000000000000000000000000000000000000000000000000602082015250565b60006152306028836135e7565b915061523b826151d4565b604082019050919050565b6000602082019050818103600083015261525f81615223565b9050919050565b7f455243313135353a207472616e7366657220746f20746865207a65726f20616460008201527f6472657373000000000000000000000000000000000000000000000000000000602082015250565b60006152c26025836135e7565b91506152cd82615266565b604082019050919050565b600060208201905081810360008301526152f1816152b5565b9050919050565b7f455243313135353a20696e73756666696369656e742062616c616e636520666f60008201527f72207472616e7366657200000000000000000000000000000000000000000000602082015250565b6000615354602a836135e7565b915061535f826152f8565b604082019050919050565b6000602082019050818103600083015261538381615347565b9050919050565b600060408201905081810360008301526153a48185613bfb565b905081810360208301526153b88184613bfb565b90509392505050565b60006040820190506153d660008301856134ca565b6153e360208301846134ca565b9392505050565b600081519050919050565b600082825260208201905092915050565b6000615411826153ea565b61541b81856153f5565b935061542b8185602086016135f8565b6154348161362b565b840191505092915050565b600060a0820190506154546000830188613ddd565b6154616020830187613ddd565b81810360408301526154738186613bfb565b905081810360608301526154878185613bfb565b9050818103608083015261549b8184615406565b90509695505050505050565b6000815190506154b681613520565b92915050565b6000602082840312156154d2576154d16133ec565b5b60006154e0848285016154a7565b91505092915050565b60008160e01c9050919050565b600060033d11156155155760046000803e6155126000516154e9565b90505b90565b600060443d1015615528576155ab565b6155306133e2565b60043d036004823e80513d602482011167ffffffffffffffff821117156155585750506155ab565b808201805167ffffffffffffffff81111561557657505050506155ab565b80602083010160043d0385018111156155935750505050506155ab565b6155a2826020018501866136d0565b82955050505050505b90565b7f455243313135353a207472616e7366657220746f206e6f6e204552433131353560008201527f526563656976657220696d706c656d656e746572000000000000000000000000602082015250565b600061560a6034836135e7565b9150615615826155ae565b604082019050919050565b60006020820190508181036000830152615639816155fd565b9050919050565b7f455243313135353a204552433131353552656365697665722072656a6563746560008201527f6420746f6b656e73000000000000000000000000000000000000000000000000602082015250565b600061569c6028836135e7565b91506156a782615640565b604082019050919050565b600060208201905081810360008301526156cb8161568f565b9050919050565b7f455243313135353a206d696e7420746f20746865207a65726f2061646472657360008201527f7300000000000000000000000000000000000000000000000000000000000000602082015250565b600061572e6021836135e7565b9150615739826156d2565b604082019050919050565b6000602082019050818103600083015261575d81615721565b9050919050565b600060a0820190506157796000830188613ddd565b6157866020830187613ddd565b61579360408301866134ca565b6157a060608301856134ca565b81810360808301526157b28184615406565b9050969550505050505056fe53616d706c6545524331313535576974684272616e6452656769737472793a2074657374205f6d696e744272616e64466f724142434445464748494a4b4c4d4e4f505152535455565758595a6162636465666768696a6b6c6d6e6f707172737475767778797a303132333435363738392b2f4272616e6452656769737472793a206272616e6420726567697374726174696f6ea26469706673582212206ce0f7a8be2d7c4fcf569932bf26c67ef5ce91870256d5ad646a4dece7cdd26764736f6c634300080a0033",
  "immutableReferences": {},
  "source": "// SPDX-License-Identifier: MIT\npragma solidity >=0.8 <0.9.0;\n\nimport \"@openzeppelin/contracts/token/ERC1155/ERC1155.sol\";\nimport \"../brands/BrandRegistry.sol\";\nimport \"../../IdUtils.sol\";\n\ncontract SampleERC1155WithBrandRegistry is ERC1155, BrandRegistry {\n    address public owner;\n\n    constructor() ERC1155(\"about:blank\") {\n        owner = msg.sender;\n    }\n\n    function _canSetBrandRegistrationCost(address _sender) internal override view returns (bool) {\n        return owner == _sender;\n    }\n\n    function _mintBrandFor(address _brandId, address _owner) internal override {\n        _mint(_owner, uint256(uint160(_brandId)), 1, \"SampleERC1155WithBrandRegistry: test _mintBrandFor\");\n    }\n\n    function _isBrandOwnerApprovedEditor(address _brandOwner, address _sender) internal view override returns (bool) {\n        return isApprovedForAll(_brandOwner, _sender);\n    }\n\n    function _canWithdrawBrandRegistrationEarnings(address _sender) internal view override returns (bool) {\n        return owner == _sender;\n    }\n\n    function _canSetBrandCommitment(address _sender) internal view override returns (bool) {\n        return owner == _sender;\n    }\n\n    function _safeTransferFrom(\n        address from,\n        address to,\n        uint256 id,\n        uint256 amount,\n        bytes memory data\n    ) internal override {\n        super._safeTransferFrom(from, to, id, amount, data);\n        if (id < (1 << 160)) {\n            _setBrandOwner(address(uint160(id)), to);\n        }\n    }\n\n    function _safeBatchTransferFrom(\n        address from,\n        address to,\n        uint256[] memory ids,\n        uint256[] memory amounts,\n        bytes memory data\n    ) internal override {\n        super._safeBatchTransferFrom(from, to, ids, amounts, data);\n        for(uint256 index = 0; index < amounts.length; index++) {\n            if (ids[index] < (1 << 160) && amounts[index] != 0) {\n                _setBrandOwner(address(uint160(ids[index])), to);\n            }\n        }\n    }\n\n    /**\n     * This brand registry satisfies the IERC1155, the IBrandRegistry and IERC165.\n     */\n    function supportsInterface(bytes4 interfaceId) public view virtual override(ERC1155, BrandRegistry) returns (bool) {\n        return interfaceId == type(IERC165).interfaceId ||\n               interfaceId == type(IBrandRegistry).interfaceId ||\n               interfaceId == type(IERC1155).interfaceId;\n    }\n}",
  "sourcePath": "/home/luismasuelli/Projects/OuterMaze/lingr-contracts/contracts/lingr/samples/SampleERC1155WithBrandRegistry.sol",
  "compiler": {
    "name": "solc",
    "version": "0.8.10+commit.fc410830.Emscripten.clang"
  },
  "schemaVersion": "3.4.3",
  "updatedAt": "2022-08-07T14:50:17.241Z",
  "devdoc": {
    "kind": "dev",
    "methods": {
      "balanceOf(address,uint256)": {
        "details": "See {IERC1155-balanceOf}. Requirements: - `account` cannot be the zero address."
      },
      "balanceOfBatch(address[],uint256[])": {
        "details": "See {IERC1155-balanceOfBatch}. Requirements: - `accounts` and `ids` must have the same length."
      },
      "isApprovedForAll(address,address)": {
        "details": "See {IERC1155-isApprovedForAll}."
      },
      "safeBatchTransferFrom(address,address,uint256[],uint256[],bytes)": {
        "details": "See {IERC1155-safeBatchTransferFrom}."
      },
      "safeTransferFrom(address,address,uint256,uint256,bytes)": {
        "details": "See {IERC1155-safeTransferFrom}."
      },
      "setApprovalForAll(address,bool)": {
        "details": "See {IERC1155-setApprovalForAll}."
      },
      "uri(uint256)": {
        "details": "See {IERC1155MetadataURI-uri}. This implementation returns the same URI for *all* token types. It relies on the token type ID substitution mechanism https://eips.ethereum.org/EIPS/eip-1155#metadata[defined in the EIP]. Clients calling this function must replace the `\\{id\\}` substring with the actual token type ID."
      }
    },
    "version": 1
  },
  "userdoc": {
    "events": {
      "BrandEarningsWithdrawn(address,uint256)": {
        "notice": "This event is triggered when brand earnings were withdrawn successfully."
      },
      "BrandRegistered(address,address,string,string,uint256)": {
        "notice": "This event is triggered when a brand is registered. The new address is also included, along some reference data."
      },
      "BrandRegistrationCostUpdated(uint256)": {
        "notice": "An event for when the brand registration cost is updated."
      },
      "BrandSocialCommitmentUpdated(address,address,bool)": {
        "notice": "This event is triggered when a brand is updated with respect to its social commitment (this is: to tell a brand is socially committed according to the metaverse's views or not). Special benefits (in particular, with respect to assets loading on customers) are given in clients to socially committed brands."
      },
      "BrandUpdated(address,address)": {
        "notice": "This event is triggered when a brand is registered. The new address is also included, along some reference data."
      }
    },
    "kind": "user",
    "methods": {
      "brandExists(address)": {
        "notice": "Tells whether an address corresponds to a registered brand or not."
      },
      "brandMetadataURI(address)": {
        "notice": "Assembles the whole metadata for a brand. WARNING: This method will consume a lot of gas if invoked inside a transaction, so it is recommended to invoke this method in the context of a CALL, and never in the context of a SEND (even as part of other contract's code)."
      },
      "brandRegistrationCost()": {
        "notice": "The cost to register a new brand. This can be changed in the future and must be able to be known in the ABI for the users to be aware of the statistic."
      },
      "brandRegistrationCurrentEarnings()": {
        "notice": "Tells the current earnings, not yet withdrawn, from brand registrations."
      },
      "registerBrand(string,string,string,string,string,string)": {
        "notice": "Registers a new brand, when the appropriate price is paid for it. For more details on how this method works, check _registerBrand's inline documentation."
      },
      "setBrandRegistrationCost(uint256)": {
        "notice": "Sets the new brand registration cost."
      },
      "supportsInterface(bytes4)": {
        "notice": "This brand registry satisfies the IERC1155, the IBrandRegistry and IERC165."
      },
      "updateBrandChallengeUrl(address,string)": {
        "notice": "Updates the brand's challenge url. Only the owner of the brand or an approved account can invoke this method. Ensure the url is empty or a valid URL, or metadata might fail to be assembled into valid JSON."
      },
      "updateBrandIcon16x16Url(address,string)": {
        "notice": "Updates the brand's 16x16 icon url. Only the owner of the brand or an approved account can invoke this method. Ensure the _icon is empty or a valid URL, or metadata might fail to be assembled into valid JSON."
      },
      "updateBrandIcon32x32Url(address,string)": {
        "notice": "Updates the brand's 32x32 icon url. Only the owner of the brand or an approved account can invoke this method. Ensure the _icon is empty or a valid URL, or metadata might fail to be assembled into valid JSON."
      },
      "updateBrandIcon64x64Url(address,string)": {
        "notice": "Updates the brand's 64x64 icon url. Only the owner of the brand or an approved account can invoke this method. Ensure the _icon is empty or a valid URL, or metadata might fail to be assembled into valid JSON."
      },
      "updateBrandImage(address,string)": {
        "notice": "Updates the brand image. Only the owner of the brand or an approved account can invoke this method. Ensure the _image is empty or a valid URL, or metadata might fail to be assembled into valid JSON."
      },
      "updateBrandSocialCommitment(address,bool)": {
        "notice": "Updates whether a brand is socially committed or not."
      },
      "withdrawBrandRegistrationEarnings(uint256)": {
        "notice": "Allows the sender to withdraw brand registration earnings."
      }
    },
    "version": 1
  }
}