{
  "contractName": "SampleMetaverse",
  "abi": [
    {
      "inputs": [],
      "stateMutability": "nonpayable",
      "type": "constructor"
    },
    {
      "inputs": [
        {
          "internalType": "address",
          "name": "_contract",
          "type": "address"
        }
      ],
      "name": "addPlugin",
      "outputs": [],
      "stateMutability": "nonpayable",
      "type": "function"
    },
    {
      "inputs": [],
      "name": "brandRegistry",
      "outputs": [
        {
          "internalType": "address",
          "name": "",
          "type": "address"
        }
      ],
      "stateMutability": "view",
      "type": "function"
    },
    {
      "inputs": [
        {
          "internalType": "uint256",
          "name": "_tokenId",
          "type": "uint256"
        }
      ],
      "name": "defineFTType",
      "outputs": [],
      "stateMutability": "nonpayable",
      "type": "function"
    },
    {
      "inputs": [
        {
          "internalType": "uint256",
          "name": "_tokenId",
          "type": "uint256"
        }
      ],
      "name": "defineNFTType",
      "outputs": [],
      "stateMutability": "nonpayable",
      "type": "function"
    },
    {
      "inputs": [],
      "name": "deployer",
      "outputs": [
        {
          "internalType": "address",
          "name": "",
          "type": "address"
        }
      ],
      "stateMutability": "view",
      "type": "function"
    },
    {
      "inputs": [],
      "name": "economy",
      "outputs": [
        {
          "internalType": "address",
          "name": "",
          "type": "address"
        }
      ],
      "stateMutability": "view",
      "type": "function"
    },
    {
      "inputs": [
        {
          "internalType": "address",
          "name": "_to",
          "type": "address"
        },
        {
          "internalType": "uint256",
          "name": "_tokenId",
          "type": "uint256"
        },
        {
          "internalType": "uint256",
          "name": "_amount",
          "type": "uint256"
        },
        {
          "internalType": "bytes",
          "name": "_data",
          "type": "bytes"
        }
      ],
      "name": "mintFTFor",
      "outputs": [],
      "stateMutability": "nonpayable",
      "type": "function"
    },
    {
      "inputs": [
        {
          "internalType": "address",
          "name": "_to",
          "type": "address"
        },
        {
          "internalType": "uint256",
          "name": "_tokenId",
          "type": "uint256"
        },
        {
          "internalType": "uint256",
          "name": "_tokenType",
          "type": "uint256"
        },
        {
          "internalType": "bytes",
          "name": "_data",
          "type": "bytes"
        }
      ],
      "name": "mintNFTFor",
      "outputs": [],
      "stateMutability": "nonpayable",
      "type": "function"
    },
    {
      "inputs": [
        {
          "internalType": "uint256",
          "name": "",
          "type": "uint256"
        }
      ],
      "name": "nftTypes",
      "outputs": [
        {
          "internalType": "uint256",
          "name": "",
          "type": "uint256"
        }
      ],
      "stateMutability": "view",
      "type": "function"
    },
    {
      "inputs": [
        {
          "internalType": "address",
          "name": "_brandId",
          "type": "address"
        },
        {
          "internalType": "address",
          "name": "_newOwner",
          "type": "address"
        }
      ],
      "name": "onBrandOwnerChanged",
      "outputs": [],
      "stateMutability": "nonpayable",
      "type": "function"
    },
    {
      "inputs": [
        {
          "internalType": "address",
          "name": "_from",
          "type": "address"
        },
        {
          "internalType": "uint256",
          "name": "_tokenId",
          "type": "uint256"
        },
        {
          "internalType": "uint256",
          "name": "_amount",
          "type": "uint256"
        }
      ],
      "name": "onTokenBurned",
      "outputs": [],
      "stateMutability": "nonpayable",
      "type": "function"
    },
    {
      "inputs": [
        {
          "internalType": "address",
          "name": "_from",
          "type": "address"
        },
        {
          "internalType": "uint256[]",
          "name": "_tokenIds",
          "type": "uint256[]"
        },
        {
          "internalType": "uint256[]",
          "name": "_amounts",
          "type": "uint256[]"
        }
      ],
      "name": "onTokensBurned",
      "outputs": [],
      "stateMutability": "nonpayable",
      "type": "function"
    },
    {
      "inputs": [
        {
          "internalType": "address",
          "name": "",
          "type": "address"
        }
      ],
      "name": "plugins",
      "outputs": [
        {
          "internalType": "bool",
          "name": "",
          "type": "bool"
        }
      ],
      "stateMutability": "view",
      "type": "function"
    },
    {
      "inputs": [
        {
          "internalType": "address",
          "name": "_contract",
          "type": "address"
        }
      ],
      "name": "setBrandRegistry",
      "outputs": [],
      "stateMutability": "nonpayable",
      "type": "function"
    },
    {
      "inputs": [
        {
          "internalType": "address",
          "name": "_contract",
          "type": "address"
        }
      ],
      "name": "setEconomy",
      "outputs": [],
      "stateMutability": "nonpayable",
      "type": "function"
    },
    {
      "inputs": [
        {
          "internalType": "uint256",
          "name": "",
          "type": "uint256"
        }
      ],
      "name": "tokenTypeResolvers",
      "outputs": [
        {
          "internalType": "address",
          "name": "",
          "type": "address"
        }
      ],
      "stateMutability": "view",
      "type": "function"
    },
    {
      "inputs": [
        {
          "internalType": "uint256",
          "name": "_tokenId",
          "type": "uint256"
        }
      ],
      "name": "tokenURI",
      "outputs": [
        {
          "internalType": "string",
          "name": "",
          "type": "string"
        }
      ],
      "stateMutability": "view",
      "type": "function"
    }
  ],
  "bytecode": "0x60806040523480156200001157600080fd5b50620000226200006860201b60201c565b600560006101000a81548173ffffffffffffffffffffffffffffffffffffffff021916908373ffffffffffffffffffffffffffffffffffffffff16021790555062000070565b600033905090565b61344780620000806000396000f3fe608060405234801561001057600080fd5b506004361061010b5760003560e01c8063a16bc2ae116100a2578063b2863cc111610071578063b2863cc11461028c578063c87b56dd146102a8578063d053bfa1146102d8578063d5f3948814610308578063d8867fc8146103265761010b565b8063a16bc2ae1461021c578063ab21afb514610238578063acb8a06014610254578063ad8509b0146102705761010b565b80635b1798e4116100de5780635b1798e41461019457806379b2ab23146101b25780638820f6bd146101e25780638cd6e9a9146102005761010b565b806306716519146101105780632320a8b71461012c57806328c90cd9146101485780634b12e64314610164575b600080fd5b61012a60048036038101906101259190611ed9565b610342565b005b61014660048036038101906101419190612085565b6103e9565b005b610162600480360381019061015d9190612110565b6104ea565b005b61017e6004803603810190610179919061213d565b610723565b60405161018b9190612185565b60405180910390f35b61019c610743565b6040516101a991906121af565b60405180910390f35b6101cc60048036038101906101c79190612110565b610769565b6040516101d991906121d9565b60405180910390f35b6101ea610781565b6040516101f791906121af565b60405180910390f35b61021a600480360381019061021591906121f4565b6107a7565b005b610236600480360381019061023191906122e9565b6108d1565b005b610252600480360381019061024d9190612110565b610b06565b005b61026e6004803603810190610269919061213d565b610cfd565b005b61028a6004803603810190610285919061213d565b610e69565b005b6102a660048036038101906102a191906122e9565b610fd5565b005b6102c260048036038101906102bd9190612110565b611334565b6040516102cf91906123f4565b60405180910390f35b6102f260048036038101906102ed9190612110565b611457565b6040516102ff91906121af565b60405180910390f35b61031061148a565b60405161031d91906121af565b60405180910390f35b610340600480360381019061033b919061213d565b6114b0565b005b600260009054906101000a900473ffffffffffffffffffffffffffffffffffffffff1673ffffffffffffffffffffffffffffffffffffffff1661038361168d565b73ffffffffffffffffffffffffffffffffffffffff16146103d9576040517f08c379a00000000000000000000000000000000000000000000000000000000081526004016103d090612488565b60405180910390fd5b6103e4838383611695565b505050565b600260009054906101000a900473ffffffffffffffffffffffffffffffffffffffff1673ffffffffffffffffffffffffffffffffffffffff1661042a61168d565b73ffffffffffffffffffffffffffffffffffffffff1614610480576040517f08c379a000000000000000000000000000000000000000000000000000000000815260040161047790612488565b60405180910390fd5b60008251905060005b818110156104e3576104d0858583815181106104a8576104a76124a8565b5b60200260200101518584815181106104c3576104c26124a8565b5b6020026020010151611695565b80806104db90612506565b915050610489565b5050505050565b6000806104f561168d565b73ffffffffffffffffffffffffffffffffffffffff1673ffffffffffffffffffffffffffffffffffffffff16815260200190815260200160002060009054906101000a900460ff1661057c576040517f08c379a0000000000000000000000000000000000000000000000000000000008152600401610573906125c1565b60405180910390fd5b80600073ffffffffffffffffffffffffffffffffffffffff166003600083815260200190815260200160002060009054906101000a900473ffffffffffffffffffffffffffffffffffffffff1673ffffffffffffffffffffffffffffffffffffffff161461061f576040517f08c379a000000000000000000000000000000000000000000000000000000000815260040161061690612653565b60405180910390fd5b817f80000000000000000000000000000000000000000000000000000000000000008110610682576040517f08c379a0000000000000000000000000000000000000000000000000000000008152600401610679906126e5565b60405180910390fd5b600183116106c5576040517f08c379a00000000000000000000000000000000000000000000000000000000081526004016106bc9061279d565b60405180910390fd5b6106cd61168d565b6003600085815260200190815260200160002060006101000a81548173ffffffffffffffffffffffffffffffffffffffff021916908373ffffffffffffffffffffffffffffffffffffffff160217905550505050565b60006020528060005260406000206000915054906101000a900460ff1681565b600160009054906101000a900473ffffffffffffffffffffffffffffffffffffffff1681565b60046020528060005260406000206000915090505481565b600260009054906101000a900473ffffffffffffffffffffffffffffffffffffffff1681565b600260009054906101000a900473ffffffffffffffffffffffffffffffffffffffff1673ffffffffffffffffffffffffffffffffffffffff166107e861168d565b73ffffffffffffffffffffffffffffffffffffffff161461083e576040517f08c379a000000000000000000000000000000000000000000000000000000000815260040161083590612488565b60405180910390fd5b600160009054906101000a900473ffffffffffffffffffffffffffffffffffffffff1673ffffffffffffffffffffffffffffffffffffffff16638cd6e9a983836040518363ffffffff1660e01b815260040161089b9291906127bd565b600060405180830381600087803b1580156108b557600080fd5b505af11580156108c9573d6000803e3d6000fd5b505050505050565b6000806108dc61168d565b73ffffffffffffffffffffffffffffffffffffffff1673ffffffffffffffffffffffffffffffffffffffff16815260200190815260200160002060009054906101000a900460ff16610963576040517f08c379a000000000000000000000000000000000000000000000000000000000815260040161095a906125c1565b60405180910390fd5b82600073ffffffffffffffffffffffffffffffffffffffff166003600083815260200190815260200160002060009054906101000a900473ffffffffffffffffffffffffffffffffffffffff1673ffffffffffffffffffffffffffffffffffffffff161415610a07576040517f08c379a00000000000000000000000000000000000000000000000000000000081526004016109fe90612858565b60405180910390fd5b837f8000000000000000000000000000000000000000000000000000000000000000811015610a6b576040517f08c379a0000000000000000000000000000000000000000000000000000000008152600401610a6290612910565b60405180910390fd5b600260009054906101000a900473ffffffffffffffffffffffffffffffffffffffff1673ffffffffffffffffffffffffffffffffffffffff16635b0034fd878787876040518563ffffffff1660e01b8152600401610acc9493929190612985565b600060405180830381600087803b158015610ae657600080fd5b505af1158015610afa573d6000803e3d6000fd5b50505050505050505050565b600080610b1161168d565b73ffffffffffffffffffffffffffffffffffffffff1673ffffffffffffffffffffffffffffffffffffffff16815260200190815260200160002060009054906101000a900460ff16610b98576040517f08c379a0000000000000000000000000000000000000000000000000000000008152600401610b8f906125c1565b60405180910390fd5b80600073ffffffffffffffffffffffffffffffffffffffff166003600083815260200190815260200160002060009054906101000a900473ffffffffffffffffffffffffffffffffffffffff1673ffffffffffffffffffffffffffffffffffffffff1614610c3b576040517f08c379a0000000000000000000000000000000000000000000000000000000008152600401610c3290612653565b60405180910390fd5b817f8000000000000000000000000000000000000000000000000000000000000000811015610c9f576040517f08c379a0000000000000000000000000000000000000000000000000000000008152600401610c9690612910565b60405180910390fd5b610ca761168d565b6003600085815260200190815260200160002060006101000a81548173ffffffffffffffffffffffffffffffffffffffff021916908373ffffffffffffffffffffffffffffffffffffffff160217905550505050565b610d0d610d0861168d565b611846565b610d4c576040517f08c379a0000000000000000000000000000000000000000000000000000000008152600401610d4390612a43565b60405180910390fd5b610d55816118a0565b610d94576040517f08c379a0000000000000000000000000000000000000000000000000000000008152600401610d8b90612afb565b60405180910390fd5b600073ffffffffffffffffffffffffffffffffffffffff16600160009054906101000a900473ffffffffffffffffffffffffffffffffffffffff1673ffffffffffffffffffffffffffffffffffffffff1614610e25576040517f08c379a0000000000000000000000000000000000000000000000000000000008152600401610e1c90612b8d565b60405180910390fd5b80600160006101000a81548173ffffffffffffffffffffffffffffffffffffffff021916908373ffffffffffffffffffffffffffffffffffffffff16021790555050565b610e79610e7461168d565b611846565b610eb8576040517f08c379a0000000000000000000000000000000000000000000000000000000008152600401610eaf90612c1f565b60405180910390fd5b610ec181611997565b610f00576040517f08c379a0000000000000000000000000000000000000000000000000000000008152600401610ef790612cd7565b60405180910390fd5b600073ffffffffffffffffffffffffffffffffffffffff16600260009054906101000a900473ffffffffffffffffffffffffffffffffffffffff1673ffffffffffffffffffffffffffffffffffffffff1614610f91576040517f08c379a0000000000000000000000000000000000000000000000000000000008152600401610f8890612d69565b60405180910390fd5b80600260006101000a81548173ffffffffffffffffffffffffffffffffffffffff021916908373ffffffffffffffffffffffffffffffffffffffff16021790555050565b600080610fe061168d565b73ffffffffffffffffffffffffffffffffffffffff1673ffffffffffffffffffffffffffffffffffffffff16815260200190815260200160002060009054906101000a900460ff16611067576040517f08c379a000000000000000000000000000000000000000000000000000000000815260040161105e906125c1565b60405180910390fd5b81600073ffffffffffffffffffffffffffffffffffffffff166003600083815260200190815260200160002060009054906101000a900473ffffffffffffffffffffffffffffffffffffffff1673ffffffffffffffffffffffffffffffffffffffff16141561110b576040517f08c379a000000000000000000000000000000000000000000000000000000000815260040161110290612858565b60405180910390fd5b827f8000000000000000000000000000000000000000000000000000000000000000811061116e576040517f08c379a0000000000000000000000000000000000000000000000000000000008152600401611165906126e5565b60405180910390fd5b847f800000000000000000000000000000000000000000000000000000000000000081106111d1576040517f08c379a00000000000000000000000000000000000000000000000000000000081526004016111c8906126e5565b60405180910390fd5b74010000000000000000000000000000000000000000851015611229576040517f08c379a000000000000000000000000000000000000000000000000000000000815260040161122090612dfb565b60405180910390fd5b600060046000888152602001908152602001600020541461127f576040517f08c379a000000000000000000000000000000000000000000000000000000000815260040161127690612e8d565b60405180910390fd5b600260009054906101000a900473ffffffffffffffffffffffffffffffffffffffff1673ffffffffffffffffffffffffffffffffffffffff16635b0034fd88886001886040518563ffffffff1660e01b81526004016112e19493929190612ef2565b600060405180830381600087803b1580156112fb57600080fd5b505af115801561130f573d6000803e3d6000fd5b5050505084600460008881526020019081526020016000208190555050505050505050565b6060740100000000000000000000000000000000000000008210156113fb57600160009054906101000a900473ffffffffffffffffffffffffffffffffffffffff1673ffffffffffffffffffffffffffffffffffffffff16639896c31d836040518263ffffffff1660e01b81526004016113ae91906121af565b600060405180830381865afa1580156113cb573d6000803e3d6000fd5b505050506040513d6000823e3d601f19601f820116820180604052508101906113f49190612fdf565b9050611452565b7f80000000000000000000000000000000000000000000000000000000000000008210156114465761143f6004600084815260200190815260200160002054611a8e565b9050611452565b61144f82611a8e565b90505b919050565b60036020528060005260406000206000915054906101000a900473ffffffffffffffffffffffffffffffffffffffff1681565b600560009054906101000a900473ffffffffffffffffffffffffffffffffffffffff1681565b6114c06114bb61168d565b611846565b6114ff576040517f08c379a00000000000000000000000000000000000000000000000000000000081526004016114f69061309a565b60405180910390fd5b61150881611b9d565b611547576040517f08c379a000000000000000000000000000000000000000000000000000000000815260040161153e90613152565b60405180910390fd5b6000808273ffffffffffffffffffffffffffffffffffffffff1673ffffffffffffffffffffffffffffffffffffffff16815260200190815260200160002060009054906101000a900460ff16156115d3576040517f08c379a00000000000000000000000000000000000000000000000000000000081526004016115ca906131e4565b60405180910390fd5b60016000808373ffffffffffffffffffffffffffffffffffffffff1673ffffffffffffffffffffffffffffffffffffffff16815260200190815260200160002060006101000a81548160ff0219169083151502179055508073ffffffffffffffffffffffffffffffffffffffff16638129fc1c6040518163ffffffff1660e01b8152600401600060405180830381600087803b15801561167257600080fd5b505af1158015611686573d6000803e3d6000fd5b5050505050565b600033905090565b740100000000000000000000000000000000000000008210156116ed576040517f08c379a00000000000000000000000000000000000000000000000000000000081526004016116e490613276565b60405180910390fd5b60007f800000000000000000000000000000000000000000000000000000000000000083101561176557600360006004600086815260200190815260200160002054815260200190815260200160002060009054906101000a900473ffffffffffffffffffffffffffffffffffffffff16905061179c565b6003600084815260200190815260200160002060009054906101000a900473ffffffffffffffffffffffffffffffffffffffff1690505b600073ffffffffffffffffffffffffffffffffffffffff168173ffffffffffffffffffffffffffffffffffffffff1614611840578073ffffffffffffffffffffffffffffffffffffffff1663c5f980af8585856040518463ffffffff1660e01b815260040161180d93929190613296565b600060405180830381600087803b15801561182757600080fd5b505af115801561183b573d6000803e3d6000fd5b505050505b50505050565b6000600560009054906101000a900473ffffffffffffffffffffffffffffffffffffffff1673ffffffffffffffffffffffffffffffffffffffff168273ffffffffffffffffffffffffffffffffffffffff16149050919050565b60006118eb7f9b151866000000000000000000000000000000000000000000000000000000008373ffffffffffffffffffffffffffffffffffffffff16611c9490919063ffffffff16565b801561199057503073ffffffffffffffffffffffffffffffffffffffff168273ffffffffffffffffffffffffffffffffffffffff1663f200670d6040518163ffffffff1660e01b8152600401602060405180830381865afa158015611954573d6000803e3d6000fd5b505050506040513d601f19601f8201168201806040525081019061197891906132e2565b73ffffffffffffffffffffffffffffffffffffffff16145b9050919050565b60006119e27fa90053f0000000000000000000000000000000000000000000000000000000008373ffffffffffffffffffffffffffffffffffffffff16611c9490919063ffffffff16565b8015611a8757503073ffffffffffffffffffffffffffffffffffffffff168273ffffffffffffffffffffffffffffffffffffffff1663f200670d6040518163ffffffff1660e01b8152600401602060405180830381865afa158015611a4b573d6000803e3d6000fd5b505050506040513d601f19601f82011682018060405250810190611a6f91906132e2565b73ffffffffffffffffffffffffffffffffffffffff16145b9050919050565b606060006003600084815260200190815260200160002060009054906101000a900473ffffffffffffffffffffffffffffffffffffffff169050600073ffffffffffffffffffffffffffffffffffffffff168173ffffffffffffffffffffffffffffffffffffffff161415611b155760405180602001604052806000815250915050611b98565b8073ffffffffffffffffffffffffffffffffffffffff16630e89341c846040518263ffffffff1660e01b8152600401611b4e91906121d9565b600060405180830381865afa158015611b6b573d6000803e3d6000fd5b505050506040513d6000823e3d601f19601f82011682018060405250810190611b949190612fdf565b9150505b919050565b6000611be87ff220faae000000000000000000000000000000000000000000000000000000008373ffffffffffffffffffffffffffffffffffffffff16611c9490919063ffffffff16565b8015611c8d57503073ffffffffffffffffffffffffffffffffffffffff168273ffffffffffffffffffffffffffffffffffffffff1663f200670d6040518163ffffffff1660e01b8152600401602060405180830381865afa158015611c51573d6000803e3d6000fd5b505050506040513d601f19601f82011682018060405250810190611c7591906132e2565b73ffffffffffffffffffffffffffffffffffffffff16145b9050919050565b6000611c9f83611cb9565b8015611cb15750611cb08383611d06565b5b905092915050565b6000611ce5827f01ffc9a700000000000000000000000000000000000000000000000000000000611d06565b8015611cff5750611cfd8263ffffffff60e01b611d06565b155b9050919050565b6000806301ffc9a760e01b83604051602401611d22919061334a565b604051602081830303815290604052907bffffffffffffffffffffffffffffffffffffffffffffffffffffffff19166020820180517bffffffffffffffffffffffffffffffffffffffffffffffffffffffff838183161783525050505090506000808573ffffffffffffffffffffffffffffffffffffffff1661753084604051611dac91906133a1565b6000604051808303818686fa925050503d8060008114611de8576040519150601f19603f3d011682016040523d82523d6000602084013e611ded565b606091505b5091509150602081511015611e085760009350505050611e2b565b818015611e25575080806020019051810190611e2491906133e4565b5b93505050505b92915050565b6000604051905090565b600080fd5b600080fd5b600073ffffffffffffffffffffffffffffffffffffffff82169050919050565b6000611e7082611e45565b9050919050565b611e8081611e65565b8114611e8b57600080fd5b50565b600081359050611e9d81611e77565b92915050565b6000819050919050565b611eb681611ea3565b8114611ec157600080fd5b50565b600081359050611ed381611ead565b92915050565b600080600060608486031215611ef257611ef1611e3b565b5b6000611f0086828701611e8e565b9350506020611f1186828701611ec4565b9250506040611f2286828701611ec4565b9150509250925092565b600080fd5b6000601f19601f8301169050919050565b7f4e487b7100000000000000000000000000000000000000000000000000000000600052604160045260246000fd5b611f7a82611f31565b810181811067ffffffffffffffff82111715611f9957611f98611f42565b5b80604052505050565b6000611fac611e31565b9050611fb88282611f71565b919050565b600067ffffffffffffffff821115611fd857611fd7611f42565b5b602082029050602081019050919050565b600080fd5b6000612001611ffc84611fbd565b611fa2565b9050808382526020820190506020840283018581111561202457612023611fe9565b5b835b8181101561204d57806120398882611ec4565b845260208401935050602081019050612026565b5050509392505050565b600082601f83011261206c5761206b611f2c565b5b813561207c848260208601611fee565b91505092915050565b60008060006060848603121561209e5761209d611e3b565b5b60006120ac86828701611e8e565b935050602084013567ffffffffffffffff8111156120cd576120cc611e40565b5b6120d986828701612057565b925050604084013567ffffffffffffffff8111156120fa576120f9611e40565b5b61210686828701612057565b9150509250925092565b60006020828403121561212657612125611e3b565b5b600061213484828501611ec4565b91505092915050565b60006020828403121561215357612152611e3b565b5b600061216184828501611e8e565b91505092915050565b60008115159050919050565b61217f8161216a565b82525050565b600060208201905061219a6000830184612176565b92915050565b6121a981611e65565b82525050565b60006020820190506121c460008301846121a0565b92915050565b6121d381611ea3565b82525050565b60006020820190506121ee60008301846121ca565b92915050565b6000806040838503121561220b5761220a611e3b565b5b600061221985828601611e8e565b925050602061222a85828601611e8e565b9150509250929050565b600080fd5b600067ffffffffffffffff82111561225457612253611f42565b5b61225d82611f31565b9050602081019050919050565b82818337600083830152505050565b600061228c61228784612239565b611fa2565b9050828152602081018484840111156122a8576122a7612234565b5b6122b384828561226a565b509392505050565b600082601f8301126122d0576122cf611f2c565b5b81356122e0848260208601612279565b91505092915050565b6000806000806080858703121561230357612302611e3b565b5b600061231187828801611e8e565b945050602061232287828801611ec4565b935050604061233387828801611ec4565b925050606085013567ffffffffffffffff81111561235457612353611e40565b5b612360878288016122bb565b91505092959194509250565b600081519050919050565b600082825260208201905092915050565b60005b838110156123a657808201518184015260208101905061238b565b838111156123b5576000848401525b50505050565b60006123c68261236c565b6123d08185612377565b93506123e0818560208601612388565b6123e981611f31565b840191505092915050565b6000602082019050818103600083015261240e81846123bb565b905092915050565b7f4d65746176657273653a20746865206f6e6c7920616c6c6f7765642073656e6460008201527f6572206973207468652065636f6e6f6d792073797374656d0000000000000000602082015250565b6000612472603883612377565b915061247d82612416565b604082019050919050565b600060208201905081810360008301526124a181612465565b9050919050565b7f4e487b7100000000000000000000000000000000000000000000000000000000600052603260045260246000fd5b7f4e487b7100000000000000000000000000000000000000000000000000000000600052601160045260246000fd5b600061251182611ea3565b91507fffffffffffffffffffffffffffffffffffffffffffffffffffffffffffffffff821415612544576125436124d7565b5b600182019050919050565b7f4d65746176657273653a207468652073656e646572206d75737420626520612060008201527f706c75672d696e00000000000000000000000000000000000000000000000000602082015250565b60006125ab602783612377565b91506125b68261254f565b604082019050919050565b600060208201905081810360008301526125da8161259e565b9050919050565b7f4d65746176657273653a207468652073706563696669656420746f6b656e207460008201527f797065206973206e6f7420617661696c61626c65000000000000000000000000602082015250565b600061263d603483612377565b9150612648826125e1565b604082019050919050565b6000602082019050818103600083015261266c81612630565b9050919050565b7f4d65746176657273653a20746865207370656369666965642076616c7565206960008201527f73206e6f7420696e20746865206e66742072616e676500000000000000000000602082015250565b60006126cf603683612377565b91506126da82612673565b604082019050919050565b600060208201905081810360008301526126fe816126c2565b9050919050565b7f4d65746176657273653a206e667420747970652030206973207265736572766560008201527f6420666f7220696e76616c6964202f206d697373696e67206e6674732c20616e60208201527f64203120666f72206272616e6473000000000000000000000000000000000000604082015250565b6000612787604e83612377565b915061279282612705565b606082019050919050565b600060208201905081810360008301526127b68161277a565b9050919050565b60006040820190506127d260008301856121a0565b6127df60208301846121a0565b9392505050565b7f4d65746176657273653a20756e6b6e6f776e202f206e6f6e2d6d696e7461626c60008201527f6520746f6b656e20747970652069640000000000000000000000000000000000602082015250565b6000612842602f83612377565b915061284d826127e6565b604082019050919050565b6000602082019050818103600083015261287181612835565b9050919050565b7f4d65746176657273653a20746865207370656369666965642076616c7565206960008201527f73206e6f7420696e207468652066756e6769626c6520746f6b656e732072616e60208201527f6765000000000000000000000000000000000000000000000000000000000000604082015250565b60006128fa604283612377565b915061290582612878565b606082019050919050565b60006020820190508181036000830152612929816128ed565b9050919050565b600081519050919050565b600082825260208201905092915050565b600061295782612930565b612961818561293b565b9350612971818560208601612388565b61297a81611f31565b840191505092915050565b600060808201905061299a60008301876121a0565b6129a760208301866121ca565b6129b460408301856121ca565b81810360608301526129c6818461294c565b905095945050505050565b7f4d65746176657273653a207468652073656e646572206973206e6f7420616c6c60008201527f6f77656420746f207365742074686520706c75672d696e000000000000000000602082015250565b6000612a2d603783612377565b9150612a38826129d1565b604082019050919050565b60006020820190508181036000830152612a5c81612a20565b9050919050565b7f4d65746176657273653a20746865206164647265737320646f6573206e6f742060008201527f62656c6f6e6720746f20612076616c6964206272616e6420726567697374727960208201527f20636f6e747261637420666f722074686973206d657461766572736500000000604082015250565b6000612ae5605c83612377565b9150612af082612a63565b606082019050919050565b60006020820190508181036000830152612b1481612ad8565b9050919050565b7f4d65746176657273653a2061206272616e64207265676973747279206973206160008201527f6c72656164792073657420696e746f2074686973206d65746176657273650000602082015250565b6000612b77603e83612377565b9150612b8282612b1b565b604082019050919050565b60006020820190508181036000830152612ba681612b6a565b9050919050565b7f4d65746176657273653a207468652073656e646572206973206e6f7420616c6c60008201527f6f77656420746f20736574207468652065636f6e6f6d79000000000000000000602082015250565b6000612c09603783612377565b9150612c1482612bad565b604082019050919050565b60006020820190508181036000830152612c3881612bfc565b9050919050565b7f4d65746176657273653a20746865206164647265737320646f6573206e6f742060008201527f62656c6f6e6720746f20612076616c69642065636f6e6f6d7920636f6e74726160208201527f637420666f722074686973206d65746176657273650000000000000000000000604082015250565b6000612cc1605583612377565b9150612ccc82612c3f565b606082019050919050565b60006020820190508181036000830152612cf081612cb4565b9050919050565b7f4d65746176657273653a20616e2065636f6e6f6d7920697320616c726561647960008201527f2073657420696e746f2074686973206d65746176657273650000000000000000602082015250565b6000612d53603883612377565b9150612d5e82612cf7565b604082019050919050565b60006020820190508181036000830152612d8281612d46565b9050919050565b7f4d65746176657273653a207468652073706563696669656420746f6b656e206960008201527f6420697320726573657276656420666f72206272616e64730000000000000000602082015250565b6000612de5603883612377565b9150612df082612d89565b604082019050919050565b60006020820190508181036000830152612e1481612dd8565b9050919050565b7f4d65746176657273653a2074686520737065636966696564206e66742069642060008201527f6973206e6f7420617661696c61626c6500000000000000000000000000000000602082015250565b6000612e77603083612377565b9150612e8282612e1b565b604082019050919050565b60006020820190508181036000830152612ea681612e6a565b9050919050565b6000819050919050565b6000819050919050565b6000612edc612ed7612ed284612ead565b612eb7565b611ea3565b9050919050565b612eec81612ec1565b82525050565b6000608082019050612f0760008301876121a0565b612f1460208301866121ca565b612f216040830185612ee3565b8181036060830152612f33818461294c565b905095945050505050565b600067ffffffffffffffff821115612f5957612f58611f42565b5b612f6282611f31565b9050602081019050919050565b6000612f82612f7d84612f3e565b611fa2565b905082815260208101848484011115612f9e57612f9d612234565b5b612fa9848285612388565b509392505050565b600082601f830112612fc657612fc5611f2c565b5b8151612fd6848260208601612f6f565b91505092915050565b600060208284031215612ff557612ff4611e3b565b5b600082015167ffffffffffffffff81111561301357613012611e40565b5b61301f84828501612fb1565b91505092915050565b7f4d65746176657273653a207468652073656e646572206973206e6f7420616c6c60008201527f6f77656420746f20616464206120706c75672d696e0000000000000000000000602082015250565b6000613084603583612377565b915061308f82613028565b604082019050919050565b600060208201905081810360008301526130b381613077565b9050919050565b7f4d65746176657273653a20746865206164647265737320646f6573206e6f742060008201527f62656c6f6e6720746f20612076616c696420706c75672d696e20636f6e74726160208201527f637420666f722074686973206d65746176657273650000000000000000000000604082015250565b600061313c605583612377565b9150613147826130ba565b606082019050919050565b6000602082019050818103600083015261316b8161312f565b9050919050565b7f4d65746176657273653a2074686520706c75672d696e20697320616c7265616460008201527f7920616464656420746f2074686973206d657461766572736500000000000000602082015250565b60006131ce603983612377565b91506131d982613172565b604082019050919050565b600060208201905081810360008301526131fd816131c1565b9050919050565b7f4d65746176657273653a206272616e64732063616e6e6f74206265206275726e60008201527f6564000000000000000000000000000000000000000000000000000000000000602082015250565b6000613260602283612377565b915061326b82613204565b604082019050919050565b6000602082019050818103600083015261328f81613253565b9050919050565b60006060820190506132ab60008301866121a0565b6132b860208301856121ca565b6132c560408301846121ca565b949350505050565b6000815190506132dc81611e77565b92915050565b6000602082840312156132f8576132f7611e3b565b5b6000613306848285016132cd565b91505092915050565b60007fffffffff0000000000000000000000000000000000000000000000000000000082169050919050565b6133448161330f565b82525050565b600060208201905061335f600083018461333b565b92915050565b600081905092915050565b600061337b82612930565b6133858185613365565b9350613395818560208601612388565b80840191505092915050565b60006133ad8284613370565b915081905092915050565b6133c18161216a565b81146133cc57600080fd5b50565b6000815190506133de816133b8565b92915050565b6000602082840312156133fa576133f9611e3b565b5b6000613408848285016133cf565b9150509291505056fea26469706673582212202669b90c070abbb9f165d41ae23a26f2d12371159ba23592a5123e2f4dc06dab64736f6c634300080a0033",
  "immutableReferences": {},
  "source": "// SPDX-License-Identifier: MIT\npragma solidity >=0.8 <0.9.0;\n\nimport \"../Metaverse.sol\";\n\ncontract SampleMetaverse is Metaverse {\n    /**\n     * The deployer of this metaverse.\n     */\n    address public deployer;\n\n    constructor() {\n        deployer = _msgSender();\n    }\n\n    /**\n     * Adding the plug-ins is only allowed to the deployer.\n     */\n    function _canAddPlugin(address _sender) internal view override returns (bool) {\n        return _sender == deployer;\n    }\n\n    /**\n     * Setting the brand registry is only allowed to the deployer.\n     */\n    function _canSetBrandRegistry(address _sender) internal view override returns (bool) {\n        return _sender == deployer;\n    }\n\n    /**\n     * Setting the economy system is only allowed to the deployer.\n     */\n    function _canSetEconomy(address _sender) internal view override returns (bool) {\n        return _sender == deployer;\n    }\n}\n",
  "sourcePath": "/home/luismasuelli/Projects/OuterMaze/lingr-contracts/contracts/lingr/samples/SampleMetaverse.sol",
  "compiler": {
    "name": "solc",
    "version": "0.8.10+commit.fc410830.Emscripten.clang"
  },
  "schemaVersion": "3.4.3",
  "updatedAt": "2022-08-08T03:06:07.082Z",
  "devdoc": {
    "kind": "dev",
    "methods": {},
    "version": 1
  },
  "userdoc": {
    "kind": "user",
    "methods": {
      "addPlugin(address)": {
        "notice": "Adds a plug-in contract to this metaverse."
      },
      "brandRegistry()": {
        "notice": "The linked brand registry for this metaverse."
      },
      "defineFTType(uint256)": {
        "notice": "Defines the resolution of a fungible token type. The token id must be in the range of the fungible token ids."
      },
      "defineNFTType(uint256)": {
        "notice": "Defines the resolution of a non-fungible token type. The token id must be in the range of the fungible token (type) ids (strictly > 0, strictly < (1 << 255))."
      },
      "deployer()": {
        "notice": "The deployer of this metaverse."
      },
      "economy()": {
        "notice": "The linked economy for this metaverse."
      },
      "mintFTFor(address,uint256,uint256,bytes)": {
        "notice": "Mints a specific fungible token type, in a certain amount."
      },
      "mintNFTFor(address,uint256,uint256,bytes)": {
        "notice": "Mints a specific non-fungible token type, using a specific id (and always using an amount of 1). It is an error if the token id is already minted, or the chosen id is < (1 << 160) since those ids are reserved for brands."
      },
      "nftTypes(uint256)": {
        "notice": "Now, each NFT id will be registered here along its token type. The difference with the fungible tokens (they're already registered in the `tokenTypes` mapping) is that they need to be registered with a particular token type. Also, both the NFT id and its associated token type will be lower than (1<<255) since, otherwise, they would be using values corresponding to the FT side (both for IDs and type indices). Brand NFTs are not included in this mapping (they are only characterized by being < (1 << 160))."
      },
      "onBrandOwnerChanged(address,address)": {
        "notice": "Hook to be invoked as part of a transfer from ERC1155."
      },
      "onTokenBurned(address,uint256,uint256)": {
        "notice": "Hook to be invoked as part of a burn process when an address burns a particular token in some quantity (for NFTs, the quantity is 1 in every case). By this point, we should be guaranteed that the _tokenId will actually have a resolver (being it a fungible token type, or being it a non-fungible token id)."
      },
      "onTokensBurned(address,uint256[],uint256[])": {
        "notice": "Hook to be invoked as part of a batch burn process when an address burns a particulars et of tokens in respective quantities (for NFTs, the quantity is 1 in every case; it is guaranteed that both arrays are always of the same length."
      },
      "plugins(address)": {
        "notice": "This is the list of plug-ins that are being added to the hub. Each contract has its separate logic but they have access to the same set of features. Once a contract is added, it will never be removed from this list. This mapping tells whether a contract in particular has permission(s) to define a type and mint tokens for an address."
      },
      "setBrandRegistry(address)": {
        "notice": "Adds a plug-in contract to this metaverse."
      },
      "setEconomy(address)": {
        "notice": "Set the economy contract to this metaverse."
      },
      "tokenTypeResolvers(uint256)": {
        "notice": "Types are identified as integer values, and each registered type will have a non-zero responsible address (serving to metadata resolution and also to account for the existence of a given type). The type 1 (0x1) will be the first type, and actually it will be the brand type. Other NFT types will be registered using indices lower to (1<<255), while FT types will be registered using indices greater than or equal to that value (i.e. starting with binary {1}). In the case of the FTs, the index in this mapping is also their token id. This is not the same for NFTs (they have one extra level of indirection since multiple ids might share the same type). A special type id will be regarded as invalid type (i.e. it will not count as NFT nor FT type, but as a non-existent type): 0 (0x0). The responsible serves two purposes: The first one, is to resolve the metadata of a given token id (be it FT or NFT). The second one is to account for one of such tokens being burned. The responsible will actually be one of the registered plug-ins, on each case (save for the brands case, which is resolved by this contract, and the invalid case, which has no resolver)."
      },
      "tokenURI(uint256)": {
        "notice": "Retrieves the metadata uri of a given token. WARNING: This method will consume a lot of gas if invoked inside a transaction, so it is recommended to invoke this method in the context of a CALL, and never in the context of a SEND (even as part of other contract's code)."
      }
    },
    "version": 1
  }
}