{
  "contractName": "SampleMetaverseCore",
  "abi": [
    {
      "inputs": [],
      "stateMutability": "nonpayable",
      "type": "constructor"
    },
    {
      "anonymous": false,
      "inputs": [
        {
          "indexed": true,
          "internalType": "address",
          "name": "account",
          "type": "address"
        },
        {
          "indexed": true,
          "internalType": "address",
          "name": "operator",
          "type": "address"
        },
        {
          "indexed": false,
          "internalType": "bool",
          "name": "approved",
          "type": "bool"
        }
      ],
      "name": "ApprovalForAll",
      "type": "event"
    },
    {
      "anonymous": false,
      "inputs": [
        {
          "indexed": true,
          "internalType": "address",
          "name": "withdrawnBy",
          "type": "address"
        },
        {
          "indexed": false,
          "internalType": "uint256",
          "name": "amount",
          "type": "uint256"
        }
      ],
      "name": "BrandEarningsWithdrawn",
      "type": "event"
    },
    {
      "anonymous": false,
      "inputs": [
        {
          "indexed": true,
          "internalType": "address",
          "name": "registeredBy",
          "type": "address"
        },
        {
          "indexed": true,
          "internalType": "address",
          "name": "brandId",
          "type": "address"
        },
        {
          "indexed": false,
          "internalType": "string",
          "name": "name",
          "type": "string"
        },
        {
          "indexed": false,
          "internalType": "string",
          "name": "description",
          "type": "string"
        },
        {
          "indexed": false,
          "internalType": "uint256",
          "name": "price",
          "type": "uint256"
        }
      ],
      "name": "BrandRegistered",
      "type": "event"
    },
    {
      "anonymous": false,
      "inputs": [
        {
          "indexed": false,
          "internalType": "uint256",
          "name": "newCost",
          "type": "uint256"
        }
      ],
      "name": "BrandRegistrationCostUpdated",
      "type": "event"
    },
    {
      "anonymous": false,
      "inputs": [
        {
          "indexed": true,
          "internalType": "address",
          "name": "updatedBy",
          "type": "address"
        },
        {
          "indexed": true,
          "internalType": "address",
          "name": "brand",
          "type": "address"
        },
        {
          "indexed": false,
          "internalType": "bool",
          "name": "committed",
          "type": "bool"
        }
      ],
      "name": "BrandSocialCommitmentUpdated",
      "type": "event"
    },
    {
      "anonymous": false,
      "inputs": [
        {
          "indexed": true,
          "internalType": "address",
          "name": "updatedBy",
          "type": "address"
        },
        {
          "indexed": true,
          "internalType": "address",
          "name": "brandId",
          "type": "address"
        }
      ],
      "name": "BrandUpdated",
      "type": "event"
    },
    {
      "anonymous": false,
      "inputs": [
        {
          "indexed": true,
          "internalType": "address",
          "name": "operator",
          "type": "address"
        },
        {
          "indexed": true,
          "internalType": "address",
          "name": "from",
          "type": "address"
        },
        {
          "indexed": true,
          "internalType": "address",
          "name": "to",
          "type": "address"
        },
        {
          "indexed": false,
          "internalType": "uint256[]",
          "name": "ids",
          "type": "uint256[]"
        },
        {
          "indexed": false,
          "internalType": "uint256[]",
          "name": "values",
          "type": "uint256[]"
        }
      ],
      "name": "TransferBatch",
      "type": "event"
    },
    {
      "anonymous": false,
      "inputs": [
        {
          "indexed": true,
          "internalType": "address",
          "name": "operator",
          "type": "address"
        },
        {
          "indexed": true,
          "internalType": "address",
          "name": "from",
          "type": "address"
        },
        {
          "indexed": true,
          "internalType": "address",
          "name": "to",
          "type": "address"
        },
        {
          "indexed": false,
          "internalType": "uint256",
          "name": "id",
          "type": "uint256"
        },
        {
          "indexed": false,
          "internalType": "uint256",
          "name": "value",
          "type": "uint256"
        }
      ],
      "name": "TransferSingle",
      "type": "event"
    },
    {
      "anonymous": false,
      "inputs": [
        {
          "indexed": false,
          "internalType": "string",
          "name": "value",
          "type": "string"
        },
        {
          "indexed": true,
          "internalType": "uint256",
          "name": "id",
          "type": "uint256"
        }
      ],
      "name": "URI",
      "type": "event"
    },
    {
      "inputs": [
        {
          "internalType": "address",
          "name": "_contract",
          "type": "address"
        }
      ],
      "name": "addPlugin",
      "outputs": [],
      "stateMutability": "nonpayable",
      "type": "function"
    },
    {
      "inputs": [
        {
          "internalType": "address",
          "name": "account",
          "type": "address"
        },
        {
          "internalType": "uint256",
          "name": "id",
          "type": "uint256"
        }
      ],
      "name": "balanceOf",
      "outputs": [
        {
          "internalType": "uint256",
          "name": "",
          "type": "uint256"
        }
      ],
      "stateMutability": "view",
      "type": "function"
    },
    {
      "inputs": [
        {
          "internalType": "address[]",
          "name": "accounts",
          "type": "address[]"
        },
        {
          "internalType": "uint256[]",
          "name": "ids",
          "type": "uint256[]"
        }
      ],
      "name": "balanceOfBatch",
      "outputs": [
        {
          "internalType": "uint256[]",
          "name": "",
          "type": "uint256[]"
        }
      ],
      "stateMutability": "view",
      "type": "function"
    },
    {
      "inputs": [
        {
          "internalType": "address",
          "name": "_brandId",
          "type": "address"
        }
      ],
      "name": "brandExists",
      "outputs": [
        {
          "internalType": "bool",
          "name": "",
          "type": "bool"
        }
      ],
      "stateMutability": "view",
      "type": "function"
    },
    {
      "inputs": [
        {
          "internalType": "address",
          "name": "_brandId",
          "type": "address"
        }
      ],
      "name": "brandMetadataURI",
      "outputs": [
        {
          "internalType": "string",
          "name": "",
          "type": "string"
        }
      ],
      "stateMutability": "view",
      "type": "function"
    },
    {
      "inputs": [],
      "name": "brandRegistrationCost",
      "outputs": [
        {
          "internalType": "uint256",
          "name": "",
          "type": "uint256"
        }
      ],
      "stateMutability": "view",
      "type": "function"
    },
    {
      "inputs": [],
      "name": "brandRegistrationCurrentEarnings",
      "outputs": [
        {
          "internalType": "uint256",
          "name": "",
          "type": "uint256"
        }
      ],
      "stateMutability": "view",
      "type": "function"
    },
    {
      "inputs": [
        {
          "internalType": "uint256",
          "name": "_tokenId",
          "type": "uint256"
        }
      ],
      "name": "defineFTType",
      "outputs": [],
      "stateMutability": "nonpayable",
      "type": "function"
    },
    {
      "inputs": [
        {
          "internalType": "uint256",
          "name": "_tokenId",
          "type": "uint256"
        }
      ],
      "name": "defineNFTType",
      "outputs": [],
      "stateMutability": "nonpayable",
      "type": "function"
    },
    {
      "inputs": [
        {
          "internalType": "address",
          "name": "account",
          "type": "address"
        },
        {
          "internalType": "address",
          "name": "operator",
          "type": "address"
        }
      ],
      "name": "isApprovedForAll",
      "outputs": [
        {
          "internalType": "bool",
          "name": "",
          "type": "bool"
        }
      ],
      "stateMutability": "view",
      "type": "function"
    },
    {
      "inputs": [
        {
          "internalType": "address",
          "name": "_to",
          "type": "address"
        },
        {
          "internalType": "uint256",
          "name": "_tokenId",
          "type": "uint256"
        },
        {
          "internalType": "uint256",
          "name": "_amount",
          "type": "uint256"
        },
        {
          "internalType": "bytes",
          "name": "_data",
          "type": "bytes"
        }
      ],
      "name": "mintFTFor",
      "outputs": [],
      "stateMutability": "nonpayable",
      "type": "function"
    },
    {
      "inputs": [
        {
          "internalType": "address",
          "name": "_to",
          "type": "address"
        },
        {
          "internalType": "uint256",
          "name": "_tokenId",
          "type": "uint256"
        },
        {
          "internalType": "uint256",
          "name": "_tokenType",
          "type": "uint256"
        },
        {
          "internalType": "bytes",
          "name": "_data",
          "type": "bytes"
        }
      ],
      "name": "mintNFTFor",
      "outputs": [],
      "stateMutability": "nonpayable",
      "type": "function"
    },
    {
      "inputs": [
        {
          "internalType": "uint256",
          "name": "",
          "type": "uint256"
        }
      ],
      "name": "nftTypes",
      "outputs": [
        {
          "internalType": "uint256",
          "name": "",
          "type": "uint256"
        }
      ],
      "stateMutability": "view",
      "type": "function"
    },
    {
      "inputs": [],
      "name": "owner",
      "outputs": [
        {
          "internalType": "address",
          "name": "",
          "type": "address"
        }
      ],
      "stateMutability": "view",
      "type": "function"
    },
    {
      "inputs": [
        {
          "internalType": "address",
          "name": "",
          "type": "address"
        }
      ],
      "name": "plugins",
      "outputs": [
        {
          "internalType": "bool",
          "name": "",
          "type": "bool"
        }
      ],
      "stateMutability": "view",
      "type": "function"
    },
    {
      "inputs": [
        {
          "internalType": "string",
          "name": "_name",
          "type": "string"
        },
        {
          "internalType": "string",
          "name": "_description",
          "type": "string"
        },
        {
          "internalType": "string",
          "name": "_image",
          "type": "string"
        },
        {
          "internalType": "string",
          "name": "_icon16x16",
          "type": "string"
        },
        {
          "internalType": "string",
          "name": "_icon32x32",
          "type": "string"
        },
        {
          "internalType": "string",
          "name": "_icon64x64",
          "type": "string"
        }
      ],
      "name": "registerBrand",
      "outputs": [],
      "stateMutability": "payable",
      "type": "function"
    },
    {
      "inputs": [
        {
          "internalType": "address",
          "name": "from",
          "type": "address"
        },
        {
          "internalType": "address",
          "name": "to",
          "type": "address"
        },
        {
          "internalType": "uint256[]",
          "name": "ids",
          "type": "uint256[]"
        },
        {
          "internalType": "uint256[]",
          "name": "amounts",
          "type": "uint256[]"
        },
        {
          "internalType": "bytes",
          "name": "data",
          "type": "bytes"
        }
      ],
      "name": "safeBatchTransferFrom",
      "outputs": [],
      "stateMutability": "nonpayable",
      "type": "function"
    },
    {
      "inputs": [
        {
          "internalType": "address",
          "name": "from",
          "type": "address"
        },
        {
          "internalType": "address",
          "name": "to",
          "type": "address"
        },
        {
          "internalType": "uint256",
          "name": "id",
          "type": "uint256"
        },
        {
          "internalType": "uint256",
          "name": "amount",
          "type": "uint256"
        },
        {
          "internalType": "bytes",
          "name": "data",
          "type": "bytes"
        }
      ],
      "name": "safeTransferFrom",
      "outputs": [],
      "stateMutability": "nonpayable",
      "type": "function"
    },
    {
      "inputs": [
        {
          "internalType": "address",
          "name": "operator",
          "type": "address"
        },
        {
          "internalType": "bool",
          "name": "approved",
          "type": "bool"
        }
      ],
      "name": "setApprovalForAll",
      "outputs": [],
      "stateMutability": "nonpayable",
      "type": "function"
    },
    {
      "inputs": [
        {
          "internalType": "uint256",
          "name": "_newCost",
          "type": "uint256"
        }
      ],
      "name": "setBrandRegistrationCost",
      "outputs": [],
      "stateMutability": "nonpayable",
      "type": "function"
    },
    {
      "inputs": [
        {
          "internalType": "bytes4",
          "name": "interfaceId",
          "type": "bytes4"
        }
      ],
      "name": "supportsInterface",
      "outputs": [
        {
          "internalType": "bool",
          "name": "",
          "type": "bool"
        }
      ],
      "stateMutability": "view",
      "type": "function"
    },
    {
      "inputs": [
        {
          "internalType": "uint256",
          "name": "",
          "type": "uint256"
        }
      ],
      "name": "tokenTypeResolvers",
      "outputs": [
        {
          "internalType": "address",
          "name": "",
          "type": "address"
        }
      ],
      "stateMutability": "view",
      "type": "function"
    },
    {
      "inputs": [
        {
          "internalType": "uint256",
          "name": "_tokenId",
          "type": "uint256"
        }
      ],
      "name": "tokenURI",
      "outputs": [
        {
          "internalType": "string",
          "name": "",
          "type": "string"
        }
      ],
      "stateMutability": "view",
      "type": "function"
    },
    {
      "inputs": [
        {
          "internalType": "address",
          "name": "_brandId",
          "type": "address"
        },
        {
          "internalType": "string",
          "name": "_challengeUrl",
          "type": "string"
        }
      ],
      "name": "updateBrandChallengeUrl",
      "outputs": [],
      "stateMutability": "nonpayable",
      "type": "function"
    },
    {
      "inputs": [
        {
          "internalType": "address",
          "name": "_brandId",
          "type": "address"
        },
        {
          "internalType": "string",
          "name": "_icon",
          "type": "string"
        }
      ],
      "name": "updateBrandIcon16x16Url",
      "outputs": [],
      "stateMutability": "nonpayable",
      "type": "function"
    },
    {
      "inputs": [
        {
          "internalType": "address",
          "name": "_brandId",
          "type": "address"
        },
        {
          "internalType": "string",
          "name": "_icon",
          "type": "string"
        }
      ],
      "name": "updateBrandIcon32x32Url",
      "outputs": [],
      "stateMutability": "nonpayable",
      "type": "function"
    },
    {
      "inputs": [
        {
          "internalType": "address",
          "name": "_brandId",
          "type": "address"
        },
        {
          "internalType": "string",
          "name": "_icon",
          "type": "string"
        }
      ],
      "name": "updateBrandIcon64x64Url",
      "outputs": [],
      "stateMutability": "nonpayable",
      "type": "function"
    },
    {
      "inputs": [
        {
          "internalType": "address",
          "name": "_brandId",
          "type": "address"
        },
        {
          "internalType": "string",
          "name": "_image",
          "type": "string"
        }
      ],
      "name": "updateBrandImage",
      "outputs": [],
      "stateMutability": "nonpayable",
      "type": "function"
    },
    {
      "inputs": [
        {
          "internalType": "address",
          "name": "_brandId",
          "type": "address"
        },
        {
          "internalType": "bool",
          "name": "_committed",
          "type": "bool"
        }
      ],
      "name": "updateBrandSocialCommitment",
      "outputs": [],
      "stateMutability": "nonpayable",
      "type": "function"
    },
    {
      "inputs": [
        {
          "internalType": "uint256",
          "name": "",
          "type": "uint256"
        }
      ],
      "name": "uri",
      "outputs": [
        {
          "internalType": "string",
          "name": "",
          "type": "string"
        }
      ],
      "stateMutability": "view",
      "type": "function"
    },
    {
      "inputs": [
        {
          "internalType": "uint256",
          "name": "amount",
          "type": "uint256"
        }
      ],
      "name": "withdrawBrandRegistrationEarnings",
      "outputs": [],
      "stateMutability": "nonpayable",
      "type": "function"
    },
    {
      "inputs": [
        {
          "internalType": "address",
          "name": "_brandId",
          "type": "address"
        }
      ],
      "name": "_brandURI",
      "outputs": [
        {
          "internalType": "string",
          "name": "",
          "type": "string"
        }
      ],
      "stateMutability": "view",
      "type": "function"
    }
  ],
  "bytecode": "0x60806040523480156200001157600080fd5b506040518060400160405280600b81526020017f61626f75743a626c616e6b0000000000000000000000000000000000000000008152506200005981620000a160201b60201c565b5033600760006101000a81548173ffffffffffffffffffffffffffffffffffffffff021916908373ffffffffffffffffffffffffffffffffffffffff160217905550620001d2565b8060029080519060200190620000b9929190620000bd565b5050565b828054620000cb906200019c565b90600052602060002090601f016020900481019282620000ef57600085556200013b565b82601f106200010a57805160ff19168380011785556200013b565b828001600101855582156200013b579182015b828111156200013a5782518255916020019190600101906200011d565b5b5090506200014a91906200014e565b5090565b5b80821115620001695760008160009055506001016200014f565b5090565b7f4e487b7100000000000000000000000000000000000000000000000000000000600052602260045260246000fd5b60006002820490506001821680620001b557607f821691505b60208210811415620001cc57620001cb6200016d565b5b50919050565b6174c080620001e26000396000f3fe6080604052600436106101e25760003560e01c806378df8fb711610102578063ab21afb511610095578063d8867fc811610064578063d8867fc814610738578063e985e9c514610761578063f242432a1461079e578063feb532fd146107c7576101e2565b8063ab21afb51461066c578063b2863cc114610695578063c87b56dd146106be578063d053bfa1146106fb576101e2565b80639896c31d116100d15780639896c31d146105b457806399de09ff146105f1578063a16bc2ae1461061a578063a22cb46514610643576101e2565b806378df8fb7146104e657806379b2ab231461050f5780637d5555df1461054c5780638da5cb5b14610589576101e2565b80633c1213fb1161017a5780634e1273f4116101495780634e1273f41461043b57806351a8de601461047857806352ea8a36146104a157806370e979fb146104ca576101e2565b80633c1213fb146103815780633e49d925146103aa57806343779197146103d55780634b12e643146103fe576101e2565b80631cf0d10a116101b65780631cf0d10a146102c957806320c6940b1461030657806328c90cd91461032f5780632eb2c2d614610358576101e2565b8062fdd58e146101e757806301ffc9a7146102245780630e89341c146102615780630f73da861461029e575b600080fd5b3480156101f357600080fd5b5061020e60048036038101906102099190614684565b6107f0565b60405161021b91906146d3565b60405180910390f35b34801561023057600080fd5b5061024b60048036038101906102469190614746565b6108b9565b604051610258919061478e565b60405180910390f35b34801561026d57600080fd5b50610288600480360381019061028391906147a9565b61099b565b604051610295919061486f565b60405180910390f35b3480156102aa57600080fd5b506102b3610a2f565b6040516102c091906146d3565b60405180910390f35b3480156102d557600080fd5b506102f060048036038101906102eb9190614891565b610a35565b6040516102fd919061486f565b60405180910390f35b34801561031257600080fd5b5061032d600480360381019061032891906149f3565b610a47565b005b34801561033b57600080fd5b50610356600480360381019061035191906147a9565b610c32565b005b34801561036457600080fd5b5061037f600480360381019061037a9190614bb8565b610e68565b005b34801561038d57600080fd5b506103a860048036038101906103a391906149f3565b610f09565b005b3480156103b657600080fd5b506103bf6110f4565b6040516103cc91906146d3565b60405180910390f35b3480156103e157600080fd5b506103fc60048036038101906103f791906147a9565b6110fa565b005b34801561040a57600080fd5b5061042560048036038101906104209190614891565b6111d4565b604051610432919061478e565b60405180910390f35b34801561044757600080fd5b50610462600480360381019061045d9190614d4a565b6111f4565b60405161046f9190614e80565b60405180910390f35b34801561048457600080fd5b5061049f600480360381019061049a91906149f3565b61130d565b005b3480156104ad57600080fd5b506104c860048036038101906104c391906149f3565b61153d565b005b6104e460048036038101906104df9190614ea2565b611728565b005b3480156104f257600080fd5b5061050d600480360381019061050891906149f3565b6117dd565b005b34801561051b57600080fd5b50610536600480360381019061053191906147a9565b6119c8565b60405161054391906146d3565b60405180910390f35b34801561055857600080fd5b50610573600480360381019061056e9190614891565b6119e0565b604051610580919061478e565b60405180910390f35b34801561059557600080fd5b5061059e611a7b565b6040516105ab9190614fe6565b60405180910390f35b3480156105c057600080fd5b506105db60048036038101906105d69190614891565b611aa1565b6040516105e8919061486f565b60405180910390f35b3480156105fd57600080fd5b50610618600480360381019061061391906147a9565b611c51565b005b34801561062657600080fd5b50610641600480360381019061063c9190615001565b611d91565b005b34801561064f57600080fd5b5061066a600480360381019061066591906150b0565b611f3c565b005b34801561067857600080fd5b50610693600480360381019061068e91906147a9565b611f52565b005b3480156106a157600080fd5b506106bc60048036038101906106b79190615001565b612146565b005b3480156106ca57600080fd5b506106e560048036038101906106e091906147a9565b6123b7565b6040516106f2919061486f565b60405180910390f35b34801561070757600080fd5b50610722600480360381019061071d91906147a9565b612442565b60405161072f9190614fe6565b60405180910390f35b34801561074457600080fd5b5061075f600480360381019061075a9190614891565b612475565b005b34801561076d57600080fd5b50610788600480360381019061078391906150f0565b612654565b604051610795919061478e565b60405180910390f35b3480156107aa57600080fd5b506107c560048036038101906107c09190615130565b6126e8565b005b3480156107d357600080fd5b506107ee60048036038101906107e991906150b0565b612789565b005b60008073ffffffffffffffffffffffffffffffffffffffff168373ffffffffffffffffffffffffffffffffffffffff161415610861576040517f08c379a000000000000000000000000000000000000000000000000000000000815260040161085890615239565b60405180910390fd5b60008083815260200190815260200160002060008473ffffffffffffffffffffffffffffffffffffffff1673ffffffffffffffffffffffffffffffffffffffff16815260200190815260200160002054905092915050565b60007fd9b67a26000000000000000000000000000000000000000000000000000000007bffffffffffffffffffffffffffffffffffffffffffffffffffffffff1916827bffffffffffffffffffffffffffffffffffffffffffffffffffffffff1916148061098457507f0e89341c000000000000000000000000000000000000000000000000000000007bffffffffffffffffffffffffffffffffffffffffffffffffffffffff1916827bffffffffffffffffffffffffffffffffffffffffffffffffffffffff1916145b80610994575061099382612979565b5b9050919050565b6060600280546109aa90615288565b80601f01602080910402602001604051908101604052809291908181526020018280546109d690615288565b8015610a235780601f106109f857610100808354040283529160200191610a23565b820191906000526020600020905b815481529060010190602001808311610a0657829003601f168201915b50505050509050919050565b60065481565b6060610a4082611aa1565b9050919050565b816000600460008373ffffffffffffffffffffffffffffffffffffffff1673ffffffffffffffffffffffffffffffffffffffff16815260200190815260200160002060000160009054906101000a900473ffffffffffffffffffffffffffffffffffffffff1690506000610ab96129e3565b9050600073ffffffffffffffffffffffffffffffffffffffff168273ffffffffffffffffffffffffffffffffffffffff1614158015610b3457508173ffffffffffffffffffffffffffffffffffffffff168173ffffffffffffffffffffffffffffffffffffffff161480610b335750610b3282826129eb565b5b5b610b73576040517f08c379a0000000000000000000000000000000000000000000000000000000008152600401610b6a9061532c565b60405180910390fd5b83600460008773ffffffffffffffffffffffffffffffffffffffff1673ffffffffffffffffffffffffffffffffffffffff1681526020019081526020016000206005019080519060200190610bc9929190614539565b508473ffffffffffffffffffffffffffffffffffffffff16610be96129e3565b73ffffffffffffffffffffffffffffffffffffffff167f7fd1c43abb0471595dcd4d461fdb320d926cbf2b8ba6fa87a78f1b1b0bf3e59260405160405180910390a35050505050565b60086000610c3e6129e3565b73ffffffffffffffffffffffffffffffffffffffff1673ffffffffffffffffffffffffffffffffffffffff16815260200190815260200160002060009054906101000a900460ff16610cc5576040517f08c379a0000000000000000000000000000000000000000000000000000000008152600401610cbc906153be565b60405180910390fd5b60018111610d08576040517f08c379a0000000000000000000000000000000000000000000000000000000008152600401610cff90615476565b60405180910390fd5b7f80000000000000000000000000000000000000000000000000000000000000008110610d6a576040517f08c379a0000000000000000000000000000000000000000000000000000000008152600401610d619061552e565b60405180910390fd5b600073ffffffffffffffffffffffffffffffffffffffff166009600083815260200190815260200160002060009054906101000a900473ffffffffffffffffffffffffffffffffffffffff1673ffffffffffffffffffffffffffffffffffffffff1614610e0c576040517f08c379a0000000000000000000000000000000000000000000000000000000008152600401610e03906155c0565b60405180910390fd5b610e146129e3565b6009600083815260200190815260200160002060006101000a81548173ffffffffffffffffffffffffffffffffffffffff021916908373ffffffffffffffffffffffffffffffffffffffff16021790555050565b610e706129e3565b73ffffffffffffffffffffffffffffffffffffffff168573ffffffffffffffffffffffffffffffffffffffff161480610eb65750610eb585610eb06129e3565b612654565b5b610ef5576040517f08c379a0000000000000000000000000000000000000000000000000000000008152600401610eec90615652565b60405180910390fd5b610f0285858585856129ff565b5050505050565b816000600460008373ffffffffffffffffffffffffffffffffffffffff1673ffffffffffffffffffffffffffffffffffffffff16815260200190815260200160002060000160009054906101000a900473ffffffffffffffffffffffffffffffffffffffff1690506000610f7b6129e3565b9050600073ffffffffffffffffffffffffffffffffffffffff168273ffffffffffffffffffffffffffffffffffffffff1614158015610ff657508173ffffffffffffffffffffffffffffffffffffffff168173ffffffffffffffffffffffffffffffffffffffff161480610ff55750610ff482826129eb565b5b5b611035576040517f08c379a000000000000000000000000000000000000000000000000000000000815260040161102c9061532c565b60405180910390fd5b83600460008773ffffffffffffffffffffffffffffffffffffffff1673ffffffffffffffffffffffffffffffffffffffff168152602001908152602001600020600701908051906020019061108b929190614539565b508473ffffffffffffffffffffffffffffffffffffffff166110ab6129e3565b73ffffffffffffffffffffffffffffffffffffffff167f7fd1c43abb0471595dcd4d461fdb320d926cbf2b8ba6fa87a78f1b1b0bf3e59260405160405180910390a35050505050565b60035481565b61110a6111056129e3565b612ab6565b611149576040517f08c379a0000000000000000000000000000000000000000000000000000000008152600401611140906156e4565b60405180910390fd5b662386f26fc10000811015611193576040517f08c379a000000000000000000000000000000000000000000000000000000000815260040161118a9061579c565b60405180910390fd5b806003819055507fc652b105063222eb8399f76ca13b5913144c1d8af3a94bc240248ecbc36ac80b816040516111c991906146d3565b60405180910390a150565b60086020528060005260406000206000915054906101000a900460ff1681565b6060815183511461123a576040517f08c379a00000000000000000000000000000000000000000000000000000000081526004016112319061582e565b60405180910390fd5b6000835167ffffffffffffffff811115611257576112566148c8565b5b6040519080825280602002602001820160405280156112855781602001602082028036833780820191505090505b50905060005b8451811015611302576112d28582815181106112aa576112a961584e565b5b60200260200101518583815181106112c5576112c461584e565b5b60200260200101516107f0565b8282815181106112e5576112e461584e565b5b602002602001018181525050806112fb906158ac565b905061128b565b508091505092915050565b816000600460008373ffffffffffffffffffffffffffffffffffffffff1673ffffffffffffffffffffffffffffffffffffffff16815260200190815260200160002060000160009054906101000a900473ffffffffffffffffffffffffffffffffffffffff169050600061137f6129e3565b9050600073ffffffffffffffffffffffffffffffffffffffff168273ffffffffffffffffffffffffffffffffffffffff16141580156113fa57508173ffffffffffffffffffffffffffffffffffffffff168173ffffffffffffffffffffffffffffffffffffffff1614806113f957506113f882826129eb565b5b5b611439576040517f08c379a00000000000000000000000000000000000000000000000000000000081526004016114309061532c565b60405180910390fd5b60008451141561147e576040517f08c379a000000000000000000000000000000000000000000000000000000000815260040161147590615967565b60405180910390fd5b83600460008773ffffffffffffffffffffffffffffffffffffffff1673ffffffffffffffffffffffffffffffffffffffff16815260200190815260200160002060040190805190602001906114d4929190614539565b508473ffffffffffffffffffffffffffffffffffffffff166114f46129e3565b73ffffffffffffffffffffffffffffffffffffffff167f7fd1c43abb0471595dcd4d461fdb320d926cbf2b8ba6fa87a78f1b1b0bf3e59260405160405180910390a35050505050565b816000600460008373ffffffffffffffffffffffffffffffffffffffff1673ffffffffffffffffffffffffffffffffffffffff16815260200190815260200160002060000160009054906101000a900473ffffffffffffffffffffffffffffffffffffffff16905060006115af6129e3565b9050600073ffffffffffffffffffffffffffffffffffffffff168273ffffffffffffffffffffffffffffffffffffffff161415801561162a57508173ffffffffffffffffffffffffffffffffffffffff168173ffffffffffffffffffffffffffffffffffffffff161480611629575061162882826129eb565b5b5b611669576040517f08c379a00000000000000000000000000000000000000000000000000000000081526004016116609061532c565b60405180910390fd5b83600460008773ffffffffffffffffffffffffffffffffffffffff1673ffffffffffffffffffffffffffffffffffffffff16815260200190815260200160002060060190805190602001906116bf929190614539565b508473ffffffffffffffffffffffffffffffffffffffff166116df6129e3565b73ffffffffffffffffffffffffffffffffffffffff167f7fd1c43abb0471595dcd4d461fdb320d926cbf2b8ba6fa87a78f1b1b0bf3e59260405160405180910390a35050505050565b60405180606001604052806021815260200161746a6021913960035460003490508181148361175684612b10565b61175f84612b10565b60405160200161177193929190615aa7565b604051602081830303815290604052906117c1576040517f08c379a00000000000000000000000000000000000000000000000000000000081526004016117b8919061486f565b60405180910390fd5b506117d28989898989896000612c71565b505050505050505050565b816000600460008373ffffffffffffffffffffffffffffffffffffffff1673ffffffffffffffffffffffffffffffffffffffff16815260200190815260200160002060000160009054906101000a900473ffffffffffffffffffffffffffffffffffffffff169050600061184f6129e3565b9050600073ffffffffffffffffffffffffffffffffffffffff168273ffffffffffffffffffffffffffffffffffffffff16141580156118ca57508173ffffffffffffffffffffffffffffffffffffffff168173ffffffffffffffffffffffffffffffffffffffff1614806118c957506118c882826129eb565b5b5b611909576040517f08c379a00000000000000000000000000000000000000000000000000000000081526004016119009061532c565b60405180910390fd5b83600460008773ffffffffffffffffffffffffffffffffffffffff1673ffffffffffffffffffffffffffffffffffffffff168152602001908152602001600020600301908051906020019061195f929190614539565b508473ffffffffffffffffffffffffffffffffffffffff1661197f6129e3565b73ffffffffffffffffffffffffffffffffffffffff167f7fd1c43abb0471595dcd4d461fdb320d926cbf2b8ba6fa87a78f1b1b0bf3e59260405160405180910390a35050505050565b600a6020528060005260406000206000915090505481565b60008073ffffffffffffffffffffffffffffffffffffffff16600460008473ffffffffffffffffffffffffffffffffffffffff1673ffffffffffffffffffffffffffffffffffffffff16815260200190815260200160002060000160009054906101000a900473ffffffffffffffffffffffffffffffffffffffff1673ffffffffffffffffffffffffffffffffffffffff1614159050919050565b600760009054906101000a900473ffffffffffffffffffffffffffffffffffffffff1681565b60606000600460008473ffffffffffffffffffffffffffffffffffffffff1673ffffffffffffffffffffffffffffffffffffffff1681526020019081526020016000209050600073ffffffffffffffffffffffffffffffffffffffff168160000160009054906101000a900473ffffffffffffffffffffffffffffffffffffffff1673ffffffffffffffffffffffffffffffffffffffff161415611b575760405180602001604052806000815250915050611c4c565b611c29816001018260020183600401846003018560050186600601876007018860080160009054906101000a900460ff16611bc7576040518060400160405280600581526020017f66616c7365000000000000000000000000000000000000000000000000000000815250611bfe565b6040518060400160405280600481526020017f74727565000000000000000000000000000000000000000000000000000000008152505b604051602001611c15989796959493929190615e39565b604051602081830303815290604052613042565b604051602001611c399190615f5a565b6040516020818303038152906040529150505b919050565b6000611c5b6129e3565b9050611c66816131a6565b611ca5576040517f08c379a0000000000000000000000000000000000000000000000000000000008152600401611c9c90615fee565b60405180910390fd5b60008211611ce8576040517f08c379a0000000000000000000000000000000000000000000000000000000008152600401611cdf90616080565b60405180910390fd5b816006541015611d2d576040517f08c379a0000000000000000000000000000000000000000000000000000000008152600401611d2490616112565b60405180910390fd5b8160066000828254611d3f9190616132565b925050819055508073ffffffffffffffffffffffffffffffffffffffff166108fc839081150290604051600060405180830381858888f19350505050158015611d8c573d6000803e3d6000fd5b505050565b60086000611d9d6129e3565b73ffffffffffffffffffffffffffffffffffffffff1673ffffffffffffffffffffffffffffffffffffffff16815260200190815260200160002060009054906101000a900460ff16611e24576040517f08c379a0000000000000000000000000000000000000000000000000000000008152600401611e1b906153be565b60405180910390fd5b600073ffffffffffffffffffffffffffffffffffffffff166009600085815260200190815260200160002060009054906101000a900473ffffffffffffffffffffffffffffffffffffffff1673ffffffffffffffffffffffffffffffffffffffff161415611ec7576040517f08c379a0000000000000000000000000000000000000000000000000000000008152600401611ebe906161d8565b60405180910390fd5b7f8000000000000000000000000000000000000000000000000000000000000000831015611f2a576040517f08c379a0000000000000000000000000000000000000000000000000000000008152600401611f2190616290565b60405180910390fd5b611f3684848484613200565b50505050565b611f4e611f476129e3565b8383613212565b5050565b60086000611f5e6129e3565b73ffffffffffffffffffffffffffffffffffffffff1673ffffffffffffffffffffffffffffffffffffffff16815260200190815260200160002060009054906101000a900460ff16611fe5576040517f08c379a0000000000000000000000000000000000000000000000000000000008152600401611fdc906153be565b60405180910390fd5b7f8000000000000000000000000000000000000000000000000000000000000000811015612048576040517f08c379a000000000000000000000000000000000000000000000000000000000815260040161203f90616290565b60405180910390fd5b600073ffffffffffffffffffffffffffffffffffffffff166009600083815260200190815260200160002060009054906101000a900473ffffffffffffffffffffffffffffffffffffffff1673ffffffffffffffffffffffffffffffffffffffff16146120ea576040517f08c379a00000000000000000000000000000000000000000000000000000000081526004016120e1906155c0565b60405180910390fd5b6120f26129e3565b6009600083815260200190815260200160002060006101000a81548173ffffffffffffffffffffffffffffffffffffffff021916908373ffffffffffffffffffffffffffffffffffffffff16021790555050565b600860006121526129e3565b73ffffffffffffffffffffffffffffffffffffffff1673ffffffffffffffffffffffffffffffffffffffff16815260200190815260200160002060009054906101000a900460ff166121d9576040517f08c379a00000000000000000000000000000000000000000000000000000000081526004016121d0906153be565b60405180910390fd5b600073ffffffffffffffffffffffffffffffffffffffff166009600084815260200190815260200160002060009054906101000a900473ffffffffffffffffffffffffffffffffffffffff1673ffffffffffffffffffffffffffffffffffffffff16141561227c576040517f08c379a000000000000000000000000000000000000000000000000000000000815260040161227390616322565b60405180910390fd5b740100000000000000000000000000000000000000008210156122d4576040517f08c379a00000000000000000000000000000000000000000000000000000000081526004016122cb906163b4565b60405180910390fd5b7f80000000000000000000000000000000000000000000000000000000000000008210612336576040517f08c379a000000000000000000000000000000000000000000000000000000000815260040161232d90616446565b60405180910390fd5b6000600a6000858152602001908152602001600020541461238c576040517f08c379a0000000000000000000000000000000000000000000000000000000008152600401612383906164d8565b60405180910390fd5b6123998484600184613200565b81600a60008581526020019081526020016000208190555050505050565b6060740100000000000000000000000000000000000000008210156123e6576123df82610a35565b905061243d565b7f80000000000000000000000000000000000000000000000000000000000000008210156124315761242a600a60008481526020019081526020016000205461337f565b905061243d565b61243a8261337f565b90505b919050565b60096020528060005260406000206000915054906101000a900473ffffffffffffffffffffffffffffffffffffffff1681565b6124856124806129e3565b61348e565b6124c4576040517f08c379a00000000000000000000000000000000000000000000000000000000081526004016124bb9061656a565b60405180910390fd5b6124cd816134e8565b61250c576040517f08c379a000000000000000000000000000000000000000000000000000000000815260040161250390616622565b60405180910390fd5b600860008273ffffffffffffffffffffffffffffffffffffffff1673ffffffffffffffffffffffffffffffffffffffff16815260200190815260200160002060009054906101000a900460ff1615612599576040517f08c379a0000000000000000000000000000000000000000000000000000000008152600401612590906166b4565b60405180910390fd5b6001600860008373ffffffffffffffffffffffffffffffffffffffff1673ffffffffffffffffffffffffffffffffffffffff16815260200190815260200160002060006101000a81548160ff0219169083151502179055508073ffffffffffffffffffffffffffffffffffffffff16638129fc1c6040518163ffffffff1660e01b8152600401600060405180830381600087803b15801561263957600080fd5b505af115801561264d573d6000803e3d6000fd5b5050505050565b6000600160008473ffffffffffffffffffffffffffffffffffffffff1673ffffffffffffffffffffffffffffffffffffffff16815260200190815260200160002060008373ffffffffffffffffffffffffffffffffffffffff1673ffffffffffffffffffffffffffffffffffffffff16815260200190815260200160002060009054906101000a900460ff16905092915050565b6126f06129e3565b73ffffffffffffffffffffffffffffffffffffffff168573ffffffffffffffffffffffffffffffffffffffff1614806127365750612735856127306129e3565b612654565b5b612775576040517f08c379a000000000000000000000000000000000000000000000000000000000815260040161276c90615652565b60405180910390fd5b61278285858585856135df565b5050505050565b6000600460008473ffffffffffffffffffffffffffffffffffffffff1673ffffffffffffffffffffffffffffffffffffffff16815260200190815260200160002060000160009054906101000a900473ffffffffffffffffffffffffffffffffffffffff169050600073ffffffffffffffffffffffffffffffffffffffff168173ffffffffffffffffffffffffffffffffffffffff161415612860576040517f08c379a000000000000000000000000000000000000000000000000000000000815260040161285790616746565b60405180910390fd5b600061286a6129e3565b90506128758161361b565b6128b4576040517f08c379a00000000000000000000000000000000000000000000000000000000081526004016128ab906167d8565b60405180910390fd5b82600460008673ffffffffffffffffffffffffffffffffffffffff1673ffffffffffffffffffffffffffffffffffffffff16815260200190815260200160002060080160006101000a81548160ff0219169083151502179055508373ffffffffffffffffffffffffffffffffffffffff168173ffffffffffffffffffffffffffffffffffffffff167f1a9425b12b0cb193f4db2ac1b9bc0712393521978231a7fcf5f0262b847cd5498560405161296b919061478e565b60405180910390a350505050565b60007f01ffc9a7000000000000000000000000000000000000000000000000000000007bffffffffffffffffffffffffffffffffffffffffffffffffffffffff1916827bffffffffffffffffffffffffffffffffffffffffffffffffffffffff1916149050919050565b600033905090565b60006129f78383612654565b905092915050565b612a0c8585858585613675565b60005b8251811015612aae5774010000000000000000000000000000000000000000848281518110612a4157612a4061584e565b5b6020026020010151108015612a7157506000838281518110612a6657612a6561584e565b5b602002602001015114155b15612a9b57612a9a848281518110612a8c57612a8b61584e565b5b602002602001015186613997565b5b8080612aa6906158ac565b915050612a0f565b505050505050565b60008173ffffffffffffffffffffffffffffffffffffffff16600760009054906101000a900473ffffffffffffffffffffffffffffffffffffffff1673ffffffffffffffffffffffffffffffffffffffff16149050919050565b60606000821415612b58576040518060400160405280600181526020017f30000000000000000000000000000000000000000000000000000000000000008152509050612c6c565b600082905060005b60008214612b8a578080612b73906158ac565b915050600a82612b839190616827565b9150612b60565b60008167ffffffffffffffff811115612ba657612ba56148c8565b5b6040519080825280601f01601f191660200182016040528015612bd85781602001600182028036833780820191505090505b5090505b60008514612c6557600182612bf19190616132565b9150600a85612c009190616858565b6030612c0c9190616889565b60f81b818381518110612c2257612c2161584e565b5b60200101907effffffffffffffffffffffffffffffffffffffffffffffffffffffffffffff1916908160001a905350600a85612c5e9190616827565b9450612bdc565b8093505050505b919050565b6000612c7b6129e3565b9050600088511415612cc2576040517f08c379a0000000000000000000000000000000000000000000000000000000008152600401612cb990616951565b60405180910390fd5b600087511415612d07576040517f08c379a0000000000000000000000000000000000000000000000000000000008152600401612cfe906169e3565b60405180910390fd5b600086511415612d4c576040517f08c379a0000000000000000000000000000000000000000000000000000000008152600401612d4390615967565b60405180910390fd5b3460066000828254612d5e9190616889565b92505081905550600160056000828254612d789190616889565b92505081905550600060d660f81b609460f81b308460055460001b604051602001612da7959493929190616ac3565b6040516020818303038152906040528051906020012060001c90506040518061012001604052808373ffffffffffffffffffffffffffffffffffffffff1681526020018a81526020018981526020016040518060400160405280600b81526020017f61626f75743a626c616e6b0000000000000000000000000000000000000000008152508152602001888152602001878152602001868152602001858152602001841515815250600460008373ffffffffffffffffffffffffffffffffffffffff1673ffffffffffffffffffffffffffffffffffffffff16815260200190815260200160002060008201518160000160006101000a81548173ffffffffffffffffffffffffffffffffffffffff021916908373ffffffffffffffffffffffffffffffffffffffff1602179055506020820151816001019080519060200190612ef1929190614539565b506040820151816002019080519060200190612f0e929190614539565b506060820151816003019080519060200190612f2b929190614539565b506080820151816004019080519060200190612f48929190614539565b5060a0820151816005019080519060200190612f65929190614539565b5060c0820151816006019080519060200190612f82929190614539565b5060e0820151816007019080519060200190612f9f929190614539565b506101008201518160080160006101000a81548160ff021916908315150217905550905050612fce8183613ab3565b8073ffffffffffffffffffffffffffffffffffffffff168273ffffffffffffffffffffffffffffffffffffffff167fbaa80c9cbed3f9a5fcdc4e9dd7785f9cfc968a81b80b94363bea0e92c938c0d98b8b3460405161302f93929190616b22565b60405180910390a3505050505050505050565b6060600082511415613065576040518060200160405280600081525090506131a1565b600060405180606001604052806040815260200161742a60409139905060006003600285516130949190616889565b61309e9190616827565b60046130aa9190616b67565b67ffffffffffffffff8111156130c3576130c26148c8565b5b6040519080825280601f01601f1916602001820160405280156130f55781602001600182028036833780820191505090505b509050600182016020820185865187015b80821015613161576003820191508151603f8160121c168501518453600184019350603f81600c1c168501518453600184019350603f8160061c168501518453600184019350603f8116850151845360018401935050613106565b505060038651066001811461317d576002811461319057613198565b603d6001830353603d6002830353613198565b603d60018303535b50505080925050505b919050565b60008173ffffffffffffffffffffffffffffffffffffffff16600760009054906101000a900473ffffffffffffffffffffffffffffffffffffffff1673ffffffffffffffffffffffffffffffffffffffff16149050919050565b61320c84848484613af2565b50505050565b8173ffffffffffffffffffffffffffffffffffffffff168373ffffffffffffffffffffffffffffffffffffffff161415613281576040517f08c379a000000000000000000000000000000000000000000000000000000000815260040161327890616c33565b60405180910390fd5b80600160008573ffffffffffffffffffffffffffffffffffffffff1673ffffffffffffffffffffffffffffffffffffffff16815260200190815260200160002060008473ffffffffffffffffffffffffffffffffffffffff1673ffffffffffffffffffffffffffffffffffffffff16815260200190815260200160002060006101000a81548160ff0219169083151502179055508173ffffffffffffffffffffffffffffffffffffffff168373ffffffffffffffffffffffffffffffffffffffff167f17307eab39ab6107e8899845ad3d59bd9653f200f220920489ca2b5937696c3183604051613372919061478e565b60405180910390a3505050565b606060006009600084815260200190815260200160002060009054906101000a900473ffffffffffffffffffffffffffffffffffffffff169050600073ffffffffffffffffffffffffffffffffffffffff168173ffffffffffffffffffffffffffffffffffffffff1614156134065760405180602001604052806000815250915050613489565b8073ffffffffffffffffffffffffffffffffffffffff16630e89341c846040518263ffffffff1660e01b815260040161343f91906146d3565b600060405180830381865afa15801561345c573d6000803e3d6000fd5b505050506040513d6000823e3d601f19601f820116820180604052508101906134859190616cc3565b9150505b919050565b60008173ffffffffffffffffffffffffffffffffffffffff16600760009054906101000a900473ffffffffffffffffffffffffffffffffffffffff1673ffffffffffffffffffffffffffffffffffffffff16149050919050565b60006135337f5be0bbb7000000000000000000000000000000000000000000000000000000008373ffffffffffffffffffffffffffffffffffffffff16613ca390919063ffffffff16565b80156135d857503073ffffffffffffffffffffffffffffffffffffffff168273ffffffffffffffffffffffffffffffffffffffff1663f200670d6040518163ffffffff1660e01b8152600401602060405180830381865afa15801561359c573d6000803e3d6000fd5b505050506040513d601f19601f820116820180604052508101906135c09190616d21565b73ffffffffffffffffffffffffffffffffffffffff16145b9050919050565b6135ec8585858585613cc8565b74010000000000000000000000000000000000000000831015613614576136138385613997565b5b5050505050565b60008173ffffffffffffffffffffffffffffffffffffffff16600760009054906101000a900473ffffffffffffffffffffffffffffffffffffffff1673ffffffffffffffffffffffffffffffffffffffff16149050919050565b81518351146136b9576040517f08c379a00000000000000000000000000000000000000000000000000000000081526004016136b090616dc0565b60405180910390fd5b600073ffffffffffffffffffffffffffffffffffffffff168473ffffffffffffffffffffffffffffffffffffffff161415613729576040517f08c379a000000000000000000000000000000000000000000000000000000000815260040161372090616e52565b60405180910390fd5b60006137336129e3565b9050613743818787878787613f64565b60005b84518110156138f45760008582815181106137645761376361584e565b5b6020026020010151905060008583815181106137835761378261584e565b5b60200260200101519050600080600084815260200190815260200160002060008b73ffffffffffffffffffffffffffffffffffffffff1673ffffffffffffffffffffffffffffffffffffffff16815260200190815260200160002054905081811015613824576040517f08c379a000000000000000000000000000000000000000000000000000000000815260040161381b90616ee4565b60405180910390fd5b81810360008085815260200190815260200160002060008c73ffffffffffffffffffffffffffffffffffffffff1673ffffffffffffffffffffffffffffffffffffffff168152602001908152602001600020819055508160008085815260200190815260200160002060008b73ffffffffffffffffffffffffffffffffffffffff1673ffffffffffffffffffffffffffffffffffffffff16815260200190815260200160002060008282546138d99190616889565b92505081905550505050806138ed906158ac565b9050613746565b508473ffffffffffffffffffffffffffffffffffffffff168673ffffffffffffffffffffffffffffffffffffffff168273ffffffffffffffffffffffffffffffffffffffff167f4a39dc06d4c0dbc64b70af90fd698a233a518aa5d07e595d983b8c0526c8f7fb878760405161396b929190616f04565b60405180910390a4613981818787878787613f6c565b61398f818787878787613f74565b505050505050565b600073ffffffffffffffffffffffffffffffffffffffff16600460008473ffffffffffffffffffffffffffffffffffffffff1673ffffffffffffffffffffffffffffffffffffffff16815260200190815260200160002060000160009054906101000a900473ffffffffffffffffffffffffffffffffffffffff1673ffffffffffffffffffffffffffffffffffffffff1614613aaf5780600460008473ffffffffffffffffffffffffffffffffffffffff1673ffffffffffffffffffffffffffffffffffffffff16815260200190815260200160002060000160006101000a81548173ffffffffffffffffffffffffffffffffffffffff021916908373ffffffffffffffffffffffffffffffffffffffff1602179055505b5050565b613aee818373ffffffffffffffffffffffffffffffffffffffff1660016040518060600160405280603281526020016173f860329139613af2565b5050565b600073ffffffffffffffffffffffffffffffffffffffff168473ffffffffffffffffffffffffffffffffffffffff161415613b62576040517f08c379a0000000000000000000000000000000000000000000000000000000008152600401613b5990616fad565b60405180910390fd5b6000613b6c6129e3565b90506000613b798561414c565b90506000613b868561414c565b9050613b9783600089858589613f64565b8460008088815260200190815260200160002060008973ffffffffffffffffffffffffffffffffffffffff1673ffffffffffffffffffffffffffffffffffffffff1681526020019081526020016000206000828254613bf69190616889565b925050819055508673ffffffffffffffffffffffffffffffffffffffff16600073ffffffffffffffffffffffffffffffffffffffff168473ffffffffffffffffffffffffffffffffffffffff167fc3d58168c5ae7397731d063d5bbf3d657854427343f4c083240f7aacaa2d0f628989604051613c74929190616fcd565b60405180910390a4613c8b83600089858589613f6c565b613c9a836000898989896141c6565b50505050505050565b6000613cae8361439e565b8015613cc05750613cbf83836143eb565b5b905092915050565b600073ffffffffffffffffffffffffffffffffffffffff168473ffffffffffffffffffffffffffffffffffffffff161415613d38576040517f08c379a0000000000000000000000000000000000000000000000000000000008152600401613d2f90616e52565b60405180910390fd5b6000613d426129e3565b90506000613d4f8561414c565b90506000613d5c8561414c565b9050613d6c838989858589613f64565b600080600088815260200190815260200160002060008a73ffffffffffffffffffffffffffffffffffffffff1673ffffffffffffffffffffffffffffffffffffffff16815260200190815260200160002054905085811015613e03576040517f08c379a0000000000000000000000000000000000000000000000000000000008152600401613dfa90616ee4565b60405180910390fd5b85810360008089815260200190815260200160002060008b73ffffffffffffffffffffffffffffffffffffffff1673ffffffffffffffffffffffffffffffffffffffff168152602001908152602001600020819055508560008089815260200190815260200160002060008a73ffffffffffffffffffffffffffffffffffffffff1673ffffffffffffffffffffffffffffffffffffffff1681526020019081526020016000206000828254613eb89190616889565b925050819055508773ffffffffffffffffffffffffffffffffffffffff168973ffffffffffffffffffffffffffffffffffffffff168573ffffffffffffffffffffffffffffffffffffffff167fc3d58168c5ae7397731d063d5bbf3d657854427343f4c083240f7aacaa2d0f628a8a604051613f35929190616fcd565b60405180910390a4613f4b848a8a86868a613f6c565b613f59848a8a8a8a8a6141c6565b505050505050505050565b505050505050565b505050505050565b613f938473ffffffffffffffffffffffffffffffffffffffff16614516565b15614144578373ffffffffffffffffffffffffffffffffffffffff1663bc197c8187878686866040518663ffffffff1660e01b8152600401613fd995949392919061704b565b6020604051808303816000875af192505050801561401557506040513d601f19601f8201168201806040525081019061401291906170c8565b60015b6140bb57614021617102565b806308c379a0141561407e5750614036617124565b806140415750614080565b806040517f08c379a0000000000000000000000000000000000000000000000000000000008152600401614075919061486f565b60405180910390fd5b505b6040517f08c379a00000000000000000000000000000000000000000000000000000000081526004016140b29061722c565b60405180910390fd5b63bc197c8160e01b7bffffffffffffffffffffffffffffffffffffffffffffffffffffffff1916817bffffffffffffffffffffffffffffffffffffffffffffffffffffffff191614614142576040517f08c379a0000000000000000000000000000000000000000000000000000000008152600401614139906172be565b60405180910390fd5b505b505050505050565b60606000600167ffffffffffffffff81111561416b5761416a6148c8565b5b6040519080825280602002602001820160405280156141995781602001602082028036833780820191505090505b50905082816000815181106141b1576141b061584e565b5b60200260200101818152505080915050919050565b6141e58473ffffffffffffffffffffffffffffffffffffffff16614516565b15614396578373ffffffffffffffffffffffffffffffffffffffff1663f23a6e6187878686866040518663ffffffff1660e01b815260040161422b9594939291906172de565b6020604051808303816000875af192505050801561426757506040513d601f19601f8201168201806040525081019061426491906170c8565b60015b61430d57614273617102565b806308c379a014156142d05750614288617124565b8061429357506142d2565b806040517f08c379a00000000000000000000000000000000000000000000000000000000081526004016142c7919061486f565b60405180910390fd5b505b6040517f08c379a00000000000000000000000000000000000000000000000000000000081526004016143049061722c565b60405180910390fd5b63f23a6e6160e01b7bffffffffffffffffffffffffffffffffffffffffffffffffffffffff1916817bffffffffffffffffffffffffffffffffffffffffffffffffffffffff191614614394576040517f08c379a000000000000000000000000000000000000000000000000000000000815260040161438b906172be565b60405180910390fd5b505b505050505050565b60006143ca827f01ffc9a7000000000000000000000000000000000000000000000000000000006143eb565b80156143e457506143e28263ffffffff60e01b6143eb565b155b9050919050565b6000806301ffc9a760e01b836040516024016144079190617347565b604051602081830303815290604052907bffffffffffffffffffffffffffffffffffffffffffffffffffffffff19166020820180517bffffffffffffffffffffffffffffffffffffffffffffffffffffffff838183161783525050505090506000808573ffffffffffffffffffffffffffffffffffffffff1661753084604051614491919061739e565b6000604051808303818686fa925050503d80600081146144cd576040519150601f19603f3d011682016040523d82523d6000602084013e6144d2565b606091505b50915091506020815110156144ed5760009350505050614510565b81801561450a57508080602001905181019061450991906173ca565b5b93505050505b92915050565b6000808273ffffffffffffffffffffffffffffffffffffffff163b119050919050565b82805461454590615288565b90600052602060002090601f01602090048101928261456757600085556145ae565b82601f1061458057805160ff19168380011785556145ae565b828001600101855582156145ae579182015b828111156145ad578251825591602001919060010190614592565b5b5090506145bb91906145bf565b5090565b5b808211156145d85760008160009055506001016145c0565b5090565b6000604051905090565b600080fd5b600080fd5b600073ffffffffffffffffffffffffffffffffffffffff82169050919050565b600061461b826145f0565b9050919050565b61462b81614610565b811461463657600080fd5b50565b60008135905061464881614622565b92915050565b6000819050919050565b6146618161464e565b811461466c57600080fd5b50565b60008135905061467e81614658565b92915050565b6000806040838503121561469b5761469a6145e6565b5b60006146a985828601614639565b92505060206146ba8582860161466f565b9150509250929050565b6146cd8161464e565b82525050565b60006020820190506146e860008301846146c4565b92915050565b60007fffffffff0000000000000000000000000000000000000000000000000000000082169050919050565b614723816146ee565b811461472e57600080fd5b50565b6000813590506147408161471a565b92915050565b60006020828403121561475c5761475b6145e6565b5b600061476a84828501614731565b91505092915050565b60008115159050919050565b61478881614773565b82525050565b60006020820190506147a3600083018461477f565b92915050565b6000602082840312156147bf576147be6145e6565b5b60006147cd8482850161466f565b91505092915050565b600081519050919050565b600082825260208201905092915050565b60005b838110156148105780820151818401526020810190506147f5565b8381111561481f576000848401525b50505050565b6000601f19601f8301169050919050565b6000614841826147d6565b61484b81856147e1565b935061485b8185602086016147f2565b61486481614825565b840191505092915050565b600060208201905081810360008301526148898184614836565b905092915050565b6000602082840312156148a7576148a66145e6565b5b60006148b584828501614639565b91505092915050565b600080fd5b600080fd5b7f4e487b7100000000000000000000000000000000000000000000000000000000600052604160045260246000fd5b61490082614825565b810181811067ffffffffffffffff8211171561491f5761491e6148c8565b5b80604052505050565b60006149326145dc565b905061493e82826148f7565b919050565b600067ffffffffffffffff82111561495e5761495d6148c8565b5b61496782614825565b9050602081019050919050565b82818337600083830152505050565b600061499661499184614943565b614928565b9050828152602081018484840111156149b2576149b16148c3565b5b6149bd848285614974565b509392505050565b600082601f8301126149da576149d96148be565b5b81356149ea848260208601614983565b91505092915050565b60008060408385031215614a0a57614a096145e6565b5b6000614a1885828601614639565b925050602083013567ffffffffffffffff811115614a3957614a386145eb565b5b614a45858286016149c5565b9150509250929050565b600067ffffffffffffffff821115614a6a57614a696148c8565b5b602082029050602081019050919050565b600080fd5b6000614a93614a8e84614a4f565b614928565b90508083825260208201905060208402830185811115614ab657614ab5614a7b565b5b835b81811015614adf5780614acb888261466f565b845260208401935050602081019050614ab8565b5050509392505050565b600082601f830112614afe57614afd6148be565b5b8135614b0e848260208601614a80565b91505092915050565b600067ffffffffffffffff821115614b3257614b316148c8565b5b614b3b82614825565b9050602081019050919050565b6000614b5b614b5684614b17565b614928565b905082815260208101848484011115614b7757614b766148c3565b5b614b82848285614974565b509392505050565b600082601f830112614b9f57614b9e6148be565b5b8135614baf848260208601614b48565b91505092915050565b600080600080600060a08688031215614bd457614bd36145e6565b5b6000614be288828901614639565b9550506020614bf388828901614639565b945050604086013567ffffffffffffffff811115614c1457614c136145eb565b5b614c2088828901614ae9565b935050606086013567ffffffffffffffff811115614c4157614c406145eb565b5b614c4d88828901614ae9565b925050608086013567ffffffffffffffff811115614c6e57614c6d6145eb565b5b614c7a88828901614b8a565b9150509295509295909350565b600067ffffffffffffffff821115614ca257614ca16148c8565b5b602082029050602081019050919050565b6000614cc6614cc184614c87565b614928565b90508083825260208201905060208402830185811115614ce957614ce8614a7b565b5b835b81811015614d125780614cfe8882614639565b845260208401935050602081019050614ceb565b5050509392505050565b600082601f830112614d3157614d306148be565b5b8135614d41848260208601614cb3565b91505092915050565b60008060408385031215614d6157614d606145e6565b5b600083013567ffffffffffffffff811115614d7f57614d7e6145eb565b5b614d8b85828601614d1c565b925050602083013567ffffffffffffffff811115614dac57614dab6145eb565b5b614db885828601614ae9565b9150509250929050565b600081519050919050565b600082825260208201905092915050565b6000819050602082019050919050565b614df78161464e565b82525050565b6000614e098383614dee565b60208301905092915050565b6000602082019050919050565b6000614e2d82614dc2565b614e378185614dcd565b9350614e4283614dde565b8060005b83811015614e73578151614e5a8882614dfd565b9750614e6583614e15565b925050600181019050614e46565b5085935050505092915050565b60006020820190508181036000830152614e9a8184614e22565b905092915050565b60008060008060008060c08789031215614ebf57614ebe6145e6565b5b600087013567ffffffffffffffff811115614edd57614edc6145eb565b5b614ee989828a016149c5565b965050602087013567ffffffffffffffff811115614f0a57614f096145eb565b5b614f1689828a016149c5565b955050604087013567ffffffffffffffff811115614f3757614f366145eb565b5b614f4389828a016149c5565b945050606087013567ffffffffffffffff811115614f6457614f636145eb565b5b614f7089828a016149c5565b935050608087013567ffffffffffffffff811115614f9157614f906145eb565b5b614f9d89828a016149c5565b92505060a087013567ffffffffffffffff811115614fbe57614fbd6145eb565b5b614fca89828a016149c5565b9150509295509295509295565b614fe081614610565b82525050565b6000602082019050614ffb6000830184614fd7565b92915050565b6000806000806080858703121561501b5761501a6145e6565b5b600061502987828801614639565b945050602061503a8782880161466f565b935050604061504b8782880161466f565b925050606085013567ffffffffffffffff81111561506c5761506b6145eb565b5b61507887828801614b8a565b91505092959194509250565b61508d81614773565b811461509857600080fd5b50565b6000813590506150aa81615084565b92915050565b600080604083850312156150c7576150c66145e6565b5b60006150d585828601614639565b92505060206150e68582860161509b565b9150509250929050565b60008060408385031215615107576151066145e6565b5b600061511585828601614639565b925050602061512685828601614639565b9150509250929050565b600080600080600060a0868803121561514c5761514b6145e6565b5b600061515a88828901614639565b955050602061516b88828901614639565b945050604061517c8882890161466f565b935050606061518d8882890161466f565b925050608086013567ffffffffffffffff8111156151ae576151ad6145eb565b5b6151ba88828901614b8a565b9150509295509295909350565b7f455243313135353a2061646472657373207a65726f206973206e6f742061207660008201527f616c6964206f776e657200000000000000000000000000000000000000000000602082015250565b6000615223602a836147e1565b915061522e826151c7565b604082019050919050565b6000602082019050818103600083015261525281615216565b9050919050565b7f4e487b7100000000000000000000000000000000000000000000000000000000600052602260045260246000fd5b600060028204905060018216806152a057607f821691505b602082108114156152b4576152b3615259565b5b50919050565b7f4272616e6452656769737472793a2063616c6c6572206973206e6f742062726160008201527f6e64206f776e6572206e6f7220617070726f7665640000000000000000000000602082015250565b60006153166035836147e1565b9150615321826152ba565b604082019050919050565b6000602082019050818103600083015261534581615309565b9050919050565b7f4d6574617665727365436f72653a207468652073656e646572206d757374206260008201527f65206120706c75672d696e000000000000000000000000000000000000000000602082015250565b60006153a8602b836147e1565b91506153b38261534c565b604082019050919050565b600060208201905081810360008301526153d78161539b565b9050919050565b7f4d6574617665727365436f72653a206e6674207479706520302069732072657360008201527f657276656420666f7220696e76616c6964202f206d697373696e67206e66747360208201527f2c20616e64203120666f72206272616e64730000000000000000000000000000604082015250565b60006154606052836147e1565b915061546b826153de565b606082019050919050565b6000602082019050818103600083015261548f81615453565b9050919050565b7f4d6574617665727365436f72653a207468652073706563696669656420746f6b60008201527f656e2074797065206964206973206e6f7420696e20746865206e66742072616e60208201527f6765000000000000000000000000000000000000000000000000000000000000604082015250565b60006155186042836147e1565b915061552382615496565b606082019050919050565b600060208201905081810360008301526155478161550b565b9050919050565b7f4d6574617665727365436f72653a207468652073706563696669656420746f6b60008201527f656e206964206973206e6f7420617661696c61626c6500000000000000000000602082015250565b60006155aa6036836147e1565b91506155b58261554e565b604082019050919050565b600060208201905081810360008301526155d98161559d565b9050919050565b7f455243313135353a2063616c6c6572206973206e6f7420746f6b656e206f776e60008201527f6572206e6f7220617070726f7665640000000000000000000000000000000000602082015250565b600061563c602f836147e1565b9150615647826155e0565b604082019050919050565b6000602082019050818103600083015261566b8161562f565b9050919050565b7f4272616e6452656769737472793a206e6f7420616c6c6f77656420746f20736560008201527f7420746865206272616e6420726567697374726174696f6e20636f7374000000602082015250565b60006156ce603d836147e1565b91506156d982615672565b604082019050919050565b600060208201905081810360008301526156fd816156c1565b9050919050565b7f4272616e6452656769737472793a20746865206272616e64207265676973747260008201527f7920636f7374206d757374206e6f74206265206c657373207468616e20302e3060208201527f31206e617469766520746f6b656e730000000000000000000000000000000000604082015250565b6000615786604f836147e1565b915061579182615704565b606082019050919050565b600060208201905081810360008301526157b581615779565b9050919050565b7f455243313135353a206163636f756e747320616e6420696473206c656e67746860008201527f206d69736d617463680000000000000000000000000000000000000000000000602082015250565b60006158186029836147e1565b9150615823826157bc565b604082019050919050565b600060208201905081810360008301526158478161580b565b9050919050565b7f4e487b7100000000000000000000000000000000000000000000000000000000600052603260045260246000fd5b7f4e487b7100000000000000000000000000000000000000000000000000000000600052601160045260246000fd5b60006158b78261464e565b91507fffffffffffffffffffffffffffffffffffffffffffffffffffffffffffffffff8214156158ea576158e961587d565b5b600182019050919050565b7f4272616e6452656769737472793a207573652061206e6f6e2d656d707479206960008201527f6d6167652075726c000000000000000000000000000000000000000000000000602082015250565b60006159516028836147e1565b915061595c826158f5565b604082019050919050565b6000602082019050818103600083015261598081615944565b9050919050565b600081905092915050565b600061599d826147d6565b6159a78185615987565b93506159b78185602086016147f2565b80840191505092915050565b7f20726571756972657320616e206578616374207061796d656e74206f66200000600082015250565b60006159f9601e83615987565b9150615a04826159c3565b601e82019050919050565b7f2062757420000000000000000000000000000000000000000000000000000000600082015250565b6000615a45600583615987565b9150615a5082615a0f565b600582019050919050565b7f2077617320676976656e00000000000000000000000000000000000000000000600082015250565b6000615a91600a83615987565b9150615a9c82615a5b565b600a82019050919050565b6000615ab38286615992565b9150615abe826159ec565b9150615aca8285615992565b9150615ad582615a38565b9150615ae18284615992565b9150615aec82615a84565b9150819050949350505050565b7f7b226e616d65223a220000000000000000000000000000000000000000000000600082015250565b6000615b2f600983615987565b9150615b3a82615af9565b600982019050919050565b60008190508160005260206000209050919050565b60008154615b6781615288565b615b718186615987565b94506001821660008114615b8c5760018114615b9d57615bd0565b60ff19831686528186019350615bd0565b615ba685615b45565b60005b83811015615bc857815481890152600182019150602081019050615ba9565b838801955050505b50505092915050565b7f222c226465736372697074696f6e223a22000000000000000000000000000000600082015250565b6000615c0f601183615987565b9150615c1a82615bd9565b601182019050919050565b7f222c22696d616765223a22000000000000000000000000000000000000000000600082015250565b6000615c5b600b83615987565b9150615c6682615c25565b600b82019050919050565b7f222c2270726f70657274696573223a7b226368616c6c656e676555726c223a22600082015250565b6000615ca7602083615987565b9150615cb282615c71565b602082019050919050565b7f222c2269636f6e3136783136223a220000000000000000000000000000000000600082015250565b6000615cf3600f83615987565b9150615cfe82615cbd565b600f82019050919050565b7f222c2269636f6e3332783332223a220000000000000000000000000000000000600082015250565b6000615d3f600f83615987565b9150615d4a82615d09565b600f82019050919050565b7f222c2269636f6e3634783634223a220000000000000000000000000000000000600082015250565b6000615d8b600f83615987565b9150615d9682615d55565b600f82019050919050565b7f222c22636f6d6d6974746564223a000000000000000000000000000000000000600082015250565b6000615dd7600e83615987565b9150615de282615da1565b600e82019050919050565b7f7d7d000000000000000000000000000000000000000000000000000000000000600082015250565b6000615e23600283615987565b9150615e2e82615ded565b600282019050919050565b6000615e4482615b22565b9150615e50828b615b5a565b9150615e5b82615c02565b9150615e67828a615b5a565b9150615e7282615c4e565b9150615e7e8289615b5a565b9150615e8982615c9a565b9150615e958288615b5a565b9150615ea082615ce6565b9150615eac8287615b5a565b9150615eb782615d32565b9150615ec38286615b5a565b9150615ece82615d7e565b9150615eda8285615b5a565b9150615ee582615dca565b9150615ef18284615992565b9150615efc82615e16565b91508190509998505050505050505050565b7f646174613a6170706c69636174696f6e2f6a736f6e3b6261736536342c000000600082015250565b6000615f44601d83615987565b9150615f4f82615f0e565b601d82019050919050565b6000615f6582615f37565b9150615f718284615992565b915081905092915050565b7f4272616e6452656769737472793a206561726e696e67732063616e6e6f74206260008201527f652077697468647261776e20627920746869732073656e646572000000000000602082015250565b6000615fd8603a836147e1565b9150615fe382615f7c565b604082019050919050565b6000602082019050818103600083015261600781615fcb565b9050919050565b7f4272616e6452656769737472793a206561726e696e677320616d6f756e74206d60008201527f757374206e6f7420626520300000000000000000000000000000000000000000602082015250565b600061606a602c836147e1565b91506160758261600e565b604082019050919050565b600060208201905081810360008301526160998161605d565b9050919050565b7f4272616e6452656769737472793a206561726e696e677320616d6f756e74206960008201527f73206c657373207468616e207468652072657175657374656420616d6f756e74602082015250565b60006160fc6040836147e1565b9150616107826160a0565b604082019050919050565b6000602082019050818103600083015261612b816160ef565b9050919050565b600061613d8261464e565b91506161488361464e565b92508282101561615b5761615a61587d565b5b828203905092915050565b7f4d6574617665727365436f72653a20756e6b6e6f776e20746f6b656e2074797060008201527f6520696400000000000000000000000000000000000000000000000000000000602082015250565b60006161c26024836147e1565b91506161cd82616166565b604082019050919050565b600060208201905081810360008301526161f1816161b5565b9050919050565b7f4d6574617665727365436f72653a207468652073706563696669656420746f6b60008201527f656e206964206973206e6f7420696e207468652066756e6769626c6520746f6b60208201527f656e732072616e67650000000000000000000000000000000000000000000000604082015250565b600061627a6049836147e1565b9150616285826161f8565b606082019050919050565b600060208201905081810360008301526162a98161626d565b9050919050565b7f4d6574617665727365436f72653a20756e6b6e6f776e202f206e6f6e2d6d696e60008201527f7461626c6520746f6b656e207479706520696400000000000000000000000000602082015250565b600061630c6033836147e1565b9150616317826162b0565b604082019050919050565b6000602082019050818103600083015261633b816162ff565b9050919050565b7f4d6574617665727365436f72653a207468652073706563696669656420746f6b60008201527f656e20696420697320726573657276656420666f72206272616e647300000000602082015250565b600061639e603c836147e1565b91506163a982616342565b604082019050919050565b600060208201905081810360008301526163cd81616391565b9050919050565b7f4d6574617665727365436f72653a207468652073706563696669656420746f6b60008201527f656e206964206973206e6f7420696e20746865206e66742072616e6765000000602082015250565b6000616430603d836147e1565b915061643b826163d4565b604082019050919050565b6000602082019050818103600083015261645f81616423565b9050919050565b7f4d6574617665727365436f72653a2074686520737065636966696564206e667460008201527f206964206973206e6f7420617661696c61626c65000000000000000000000000602082015250565b60006164c26034836147e1565b91506164cd82616466565b604082019050919050565b600060208201905081810360008301526164f1816164b5565b9050919050565b7f4d6574617665727365436f72653a207468652073656e646572206973206e6f7460008201527f20616c6c6f77656420746f20616464206120706c75672d696e00000000000000602082015250565b60006165546039836147e1565b915061655f826164f8565b604082019050919050565b6000602082019050818103600083015261658381616547565b9050919050565b7f4d6574617665727365436f72653a20746865206164647265737320646f65732060008201527f6e6f742062656c6f6e6720746f20612076616c696420706c75672d696e20636f60208201527f6e747261637420666f722074686973206d657461766572736500000000000000604082015250565b600061660c6059836147e1565b91506166178261658a565b606082019050919050565b6000602082019050818103600083015261663b816165ff565b9050919050565b7f4d6574617665727365436f72653a2074686520706c75672d696e20697320616c60008201527f726561647920616464656420746f2074686973206d6574617665727365000000602082015250565b600061669e603d836147e1565b91506166a982616642565b604082019050919050565b600060208201905081810360008301526166cd81616691565b9050919050565b7f4272616e6452656769737472793a206e6f6e2d6578697374696e67206272616e60008201527f6400000000000000000000000000000000000000000000000000000000000000602082015250565b60006167306021836147e1565b915061673b826166d4565b604082019050919050565b6000602082019050818103600083015261675f81616723565b9050919050565b7f4272616e6452656769737472793a206e6f7420616c6c6f77656420746f20736560008201527f74206272616e64732720736f6369616c20636f6d6d69746d656e740000000000602082015250565b60006167c2603b836147e1565b91506167cd82616766565b604082019050919050565b600060208201905081810360008301526167f1816167b5565b9050919050565b7f4e487b7100000000000000000000000000000000000000000000000000000000600052601260045260246000fd5b60006168328261464e565b915061683d8361464e565b92508261684d5761684c6167f8565b5b828204905092915050565b60006168638261464e565b915061686e8361464e565b92508261687e5761687d6167f8565b5b828206905092915050565b60006168948261464e565b915061689f8361464e565b9250827fffffffffffffffffffffffffffffffffffffffffffffffffffffffffffffffff038211156168d4576168d361587d565b5b828201905092915050565b7f4272616e6452656769737472793a207573652061206e6f6e2d656d707479206e60008201527f616d650000000000000000000000000000000000000000000000000000000000602082015250565b600061693b6023836147e1565b9150616946826168df565b604082019050919050565b6000602082019050818103600083015261696a8161692e565b9050919050565b7f4272616e6452656769737472793a207573652061206e6f6e2d656d707479206460008201527f65736372697074696f6e00000000000000000000000000000000000000000000602082015250565b60006169cd602a836147e1565b91506169d882616971565b604082019050919050565b600060208201905081810360008301526169fc816169c0565b9050919050565b60007fff0000000000000000000000000000000000000000000000000000000000000082169050919050565b6000819050919050565b616a4a616a4582616a03565b616a2f565b82525050565b60008160601b9050919050565b6000616a6882616a50565b9050919050565b6000616a7a82616a5d565b9050919050565b616a92616a8d82614610565b616a6f565b82525050565b6000819050919050565b6000819050919050565b616abd616ab882616a98565b616aa2565b82525050565b6000616acf8288616a39565b600182019150616adf8287616a39565b600182019150616aef8286616a81565b601482019150616aff8285616a81565b601482019150616b0f8284616aac565b6020820191508190509695505050505050565b60006060820190508181036000830152616b3c8186614836565b90508181036020830152616b508185614836565b9050616b5f60408301846146c4565b949350505050565b6000616b728261464e565b9150616b7d8361464e565b9250817fffffffffffffffffffffffffffffffffffffffffffffffffffffffffffffffff0483118215151615616bb657616bb561587d565b5b828202905092915050565b7f455243313135353a2073657474696e6720617070726f76616c2073746174757360008201527f20666f722073656c660000000000000000000000000000000000000000000000602082015250565b6000616c1d6029836147e1565b9150616c2882616bc1565b604082019050919050565b60006020820190508181036000830152616c4c81616c10565b9050919050565b6000616c66616c6184614943565b614928565b905082815260208101848484011115616c8257616c816148c3565b5b616c8d8482856147f2565b509392505050565b600082601f830112616caa57616ca96148be565b5b8151616cba848260208601616c53565b91505092915050565b600060208284031215616cd957616cd86145e6565b5b600082015167ffffffffffffffff811115616cf757616cf66145eb565b5b616d0384828501616c95565b91505092915050565b600081519050616d1b81614622565b92915050565b600060208284031215616d3757616d366145e6565b5b6000616d4584828501616d0c565b91505092915050565b7f455243313135353a2069647320616e6420616d6f756e7473206c656e6774682060008201527f6d69736d61746368000000000000000000000000000000000000000000000000602082015250565b6000616daa6028836147e1565b9150616db582616d4e565b604082019050919050565b60006020820190508181036000830152616dd981616d9d565b9050919050565b7f455243313135353a207472616e7366657220746f20746865207a65726f20616460008201527f6472657373000000000000000000000000000000000000000000000000000000602082015250565b6000616e3c6025836147e1565b9150616e4782616de0565b604082019050919050565b60006020820190508181036000830152616e6b81616e2f565b9050919050565b7f455243313135353a20696e73756666696369656e742062616c616e636520666f60008201527f72207472616e7366657200000000000000000000000000000000000000000000602082015250565b6000616ece602a836147e1565b9150616ed982616e72565b604082019050919050565b60006020820190508181036000830152616efd81616ec1565b9050919050565b60006040820190508181036000830152616f1e8185614e22565b90508181036020830152616f328184614e22565b90509392505050565b7f455243313135353a206d696e7420746f20746865207a65726f2061646472657360008201527f7300000000000000000000000000000000000000000000000000000000000000602082015250565b6000616f976021836147e1565b9150616fa282616f3b565b604082019050919050565b60006020820190508181036000830152616fc681616f8a565b9050919050565b6000604082019050616fe260008301856146c4565b616fef60208301846146c4565b9392505050565b600081519050919050565b600082825260208201905092915050565b600061701d82616ff6565b6170278185617001565b93506170378185602086016147f2565b61704081614825565b840191505092915050565b600060a0820190506170606000830188614fd7565b61706d6020830187614fd7565b818103604083015261707f8186614e22565b905081810360608301526170938185614e22565b905081810360808301526170a78184617012565b90509695505050505050565b6000815190506170c28161471a565b92915050565b6000602082840312156170de576170dd6145e6565b5b60006170ec848285016170b3565b91505092915050565b60008160e01c9050919050565b600060033d11156171215760046000803e61711e6000516170f5565b90505b90565b600060443d1015617134576171b7565b61713c6145dc565b60043d036004823e80513d602482011167ffffffffffffffff821117156171645750506171b7565b808201805167ffffffffffffffff81111561718257505050506171b7565b80602083010160043d03850181111561719f5750505050506171b7565b6171ae826020018501866148f7565b82955050505050505b90565b7f455243313135353a207472616e7366657220746f206e6f6e204552433131353560008201527f526563656976657220696d706c656d656e746572000000000000000000000000602082015250565b60006172166034836147e1565b9150617221826171ba565b604082019050919050565b6000602082019050818103600083015261724581617209565b9050919050565b7f455243313135353a204552433131353552656365697665722072656a6563746560008201527f6420746f6b656e73000000000000000000000000000000000000000000000000602082015250565b60006172a86028836147e1565b91506172b38261724c565b604082019050919050565b600060208201905081810360008301526172d78161729b565b9050919050565b600060a0820190506172f36000830188614fd7565b6173006020830187614fd7565b61730d60408301866146c4565b61731a60608301856146c4565b818103608083015261732c8184617012565b90509695505050505050565b617341816146ee565b82525050565b600060208201905061735c6000830184617338565b92915050565b600081905092915050565b600061737882616ff6565b6173828185617362565b93506173928185602086016147f2565b80840191505092915050565b60006173aa828461736d565b915081905092915050565b6000815190506173c481615084565b92915050565b6000602082840312156173e0576173df6145e6565b5b60006173ee848285016173b5565b9150509291505056fe53616d706c6545524331313535576974684272616e6452656769737472793a2074657374205f6d696e744272616e64466f724142434445464748494a4b4c4d4e4f505152535455565758595a6162636465666768696a6b6c6d6e6f707172737475767778797a303132333435363738392b2f4272616e6452656769737472793a206272616e6420726567697374726174696f6ea264697066735822122013f91f00de2abd4ba79545ca8709e4e132777138e16b38214c8677505ecfc91064736f6c634300080a0033",
  "immutableReferences": {},
  "source": "// SPDX-License-Identifier: MIT\npragma solidity >=0.8 <0.9.0;\n\nimport \"./SampleERC1155WithBrandRegistry.sol\";\nimport \"../MetaverseCore.sol\";\n\n/**\n * This is a sample metaverse. It has brand registry and the\n * metaverse core.\n */\ncontract SampleMetaverseCore is SampleERC1155WithBrandRegistry, MetaverseCore {\n    constructor() SampleERC1155WithBrandRegistry() {}\n\n    function _canAddPlugin(address _sender) internal view override returns (bool) {\n        return owner == _sender;\n    }\n\n    function _mintFor(address _to, uint256 _tokenId, uint256 _amount, bytes memory _data) internal override {\n        _mint(_to, _tokenId, _amount, _data);\n    }\n\n    function _burn(address _from, uint256 _tokenId, uint256 _amount) internal override {\n        super._burn(_from, _tokenId, _amount);\n        _tokenBurned(_from, _tokenId, _amount);\n    }\n\n    function _burnBatch(address _from, uint256[] memory _tokenIds, uint256[] memory _amounts) internal override {\n        super._burnBatch(_from, _tokenIds, _amounts);\n        _tokensBurned(_from, _tokenIds, _amounts);\n    }\n\n    function _brandURI(address _brandId) public override view returns (string memory) {\n        return brandMetadataURI(_brandId);\n    }\n}",
  "sourcePath": "/home/luismasuelli/Projects/OuterMaze/lingr-contracts/contracts/lingr/samples/SampleMetaverseCore.sol",
  "compiler": {
    "name": "solc",
    "version": "0.8.10+commit.fc410830.Emscripten.clang"
  },
  "schemaVersion": "3.4.3",
  "updatedAt": "2022-08-06T14:58:35.406Z",
  "devdoc": {
    "kind": "dev",
    "methods": {
      "balanceOf(address,uint256)": {
        "details": "See {IERC1155-balanceOf}. Requirements: - `account` cannot be the zero address."
      },
      "balanceOfBatch(address[],uint256[])": {
        "details": "See {IERC1155-balanceOfBatch}. Requirements: - `accounts` and `ids` must have the same length."
      },
      "isApprovedForAll(address,address)": {
        "details": "See {IERC1155-isApprovedForAll}."
      },
      "safeBatchTransferFrom(address,address,uint256[],uint256[],bytes)": {
        "details": "See {IERC1155-safeBatchTransferFrom}."
      },
      "safeTransferFrom(address,address,uint256,uint256,bytes)": {
        "details": "See {IERC1155-safeTransferFrom}."
      },
      "setApprovalForAll(address,bool)": {
        "details": "See {IERC1155-setApprovalForAll}."
      },
      "supportsInterface(bytes4)": {
        "details": "See {IERC165-supportsInterface}."
      },
      "uri(uint256)": {
        "details": "See {IERC1155MetadataURI-uri}. This implementation returns the same URI for *all* token types. It relies on the token type ID substitution mechanism https://eips.ethereum.org/EIPS/eip-1155#metadata[defined in the EIP]. Clients calling this function must replace the `\\{id\\}` substring with the actual token type ID."
      }
    },
    "version": 1
  },
  "userdoc": {
    "events": {
      "BrandEarningsWithdrawn(address,uint256)": {
        "notice": "This event is triggered when brand earnings were withdrawn successfully."
      },
      "BrandRegistered(address,address,string,string,uint256)": {
        "notice": "This event is triggered when a brand is registered. The new address is also included, along some reference data."
      },
      "BrandRegistrationCostUpdated(uint256)": {
        "notice": "An event for when the brand registration cost is updated."
      },
      "BrandSocialCommitmentUpdated(address,address,bool)": {
        "notice": "This event is triggered when a brand is updated with respect to its social commitment (this is: to tell a brand is socially committed according to the metaverse's views or not). Special benefits (in particular, with respect to assets loading on customers) are given in clients to socially committed brands."
      },
      "BrandUpdated(address,address)": {
        "notice": "This event is triggered when a brand is registered. The new address is also included, along some reference data."
      }
    },
    "kind": "user",
    "methods": {
      "_brandURI(address)": {
        "notice": "This method must be implemented to define how the metadata for a brand id will be retrieved (typically, this occurs in terms of BrandRegistry's brandMetadataURI)."
      },
      "addPlugin(address)": {
        "notice": "Adds a plug-in contract to this metaverse."
      },
      "brandExists(address)": {
        "notice": "Tells whether an address corresponds to a registered brand or not."
      },
      "brandMetadataURI(address)": {
        "notice": "Assembles the whole metadata for a brand. WARNING: This method will consume a lot of gas if invoked inside a transaction, so it is recommended to invoke this method in the context of a CALL, and never in the context of a SEND (even as part of other contract's code)."
      },
      "brandRegistrationCost()": {
        "notice": "The cost to register a new brand. This can be changed in the future and must be able to be known in the ABI for the users to be aware of the statistic."
      },
      "brandRegistrationCurrentEarnings()": {
        "notice": "Tells the current earnings, not yet withdrawn, from brand registrations."
      },
      "defineFTType(uint256)": {
        "notice": "Defines the resolution of a fungible token type. The token id must be in the range of the fungible token ids."
      },
      "defineNFTType(uint256)": {
        "notice": "Defines the resolution of a non-fungible token type. The token id must be in the range of the fungible token (type) ids (strictly > 0, strictly < (1 << 255))."
      },
      "mintFTFor(address,uint256,uint256,bytes)": {
        "notice": "Mints a specific fungible token type, in a certain amount."
      },
      "mintNFTFor(address,uint256,uint256,bytes)": {
        "notice": "Mints a specific non-fungible token type, using a specific id (and always using an amount of 1). It is an error if the token id is already minted, or the chosen id is < (1 << 160) since those ids are reserved for brands."
      },
      "nftTypes(uint256)": {
        "notice": "Now, each NFT id will be registered here along its token type. The difference with the fungible tokens (they're already registered in the `tokenTypes` mapping) is that they need to be registered with a particular token type. Also, both the NFT id and its associated token type will be lower than (1<<255) since, otherwise, they would be using values corresponding to the FT side (both for IDs and type indices). Brand NFTs are not included in this mapping (they are only characterized by being < (1 << 160))."
      },
      "plugins(address)": {
        "notice": "This is the list of plug-ins that are being added to the hub. Each contract has its separate logic but they have access to the same set of features. Once a contract is added, it will never be removed from this list. This mapping tells whether a contract in particular has permission(s) to define a type and mint tokens for an address."
      },
      "registerBrand(string,string,string,string,string,string)": {
        "notice": "Registers a new brand, when the appropriate price is paid for it. For more details on how this method works, check _registerBrand's inline documentation."
      },
      "setBrandRegistrationCost(uint256)": {
        "notice": "Sets the new brand registration cost."
      },
      "tokenTypeResolvers(uint256)": {
        "notice": "Types are identified as integer values, and each registered type will have a non-zero responsible address (serving to metadata resolution and also to account for the existence of a given type). The type 1 (0x1) will be the first type, and actually it will be the brand type. Other NFT types will be registered using indices lower to (1<<255), while FT types will be registered using indices greater than or equal to that value (i.e. starting with binary {1}). In the case of the FTs, the index in this mapping is also their token id. This is not the same for NFTs (they have one extra level of indirection since multiple ids might share the same type). A special type id will be regarded as invalid type (i.e. it will not count as NFT nor FT type, but as a non-existent type): 0 (0x0). The responsible serves two purposes: The first one, is to resolve the metadata of a given token id (be it FT or NFT). The second one is to account for one of such tokens being burned. The responsible will actually be one of the registered plug-ins, on each case (save for the brands case, which is resolved by this contract, and the invalid case, which has no resolver)."
      },
      "tokenURI(uint256)": {
        "notice": "Retrieves the metadata uri of a given token. WARNING: This method will consume a lot of gas if invoked inside a transaction, so it is recommended to invoke this method in the context of a CALL, and never in the context of a SEND (even as part of other contract's code)."
      },
      "updateBrandChallengeUrl(address,string)": {
        "notice": "Updates the brand's challenge url. Only the owner of the brand or an approved account can invoke this method. Ensure the url is empty or a valid URL, or metadata might fail to be assembled into valid JSON."
      },
      "updateBrandIcon16x16Url(address,string)": {
        "notice": "Updates the brand's 16x16 icon url. Only the owner of the brand or an approved account can invoke this method. Ensure the _icon is empty or a valid URL, or metadata might fail to be assembled into valid JSON."
      },
      "updateBrandIcon32x32Url(address,string)": {
        "notice": "Updates the brand's 32x32 icon url. Only the owner of the brand or an approved account can invoke this method. Ensure the _icon is empty or a valid URL, or metadata might fail to be assembled into valid JSON."
      },
      "updateBrandIcon64x64Url(address,string)": {
        "notice": "Updates the brand's 64x64 icon url. Only the owner of the brand or an approved account can invoke this method. Ensure the _icon is empty or a valid URL, or metadata might fail to be assembled into valid JSON."
      },
      "updateBrandImage(address,string)": {
        "notice": "Updates the brand image. Only the owner of the brand or an approved account can invoke this method. Ensure the _image is empty or a valid URL, or metadata might fail to be assembled into valid JSON."
      },
      "updateBrandSocialCommitment(address,bool)": {
        "notice": "Updates whether a brand is socially committed or not."
      },
      "withdrawBrandRegistrationEarnings(uint256)": {
        "notice": "Allows the sender to withdraw brand registration earnings."
      }
    },
    "notice": "This is a sample metaverse. It has brand registry and the metaverse core.",
    "version": 1
  }
}