{
  "contractName": "SampleMetaverse",
  "abi": [
    {
      "inputs": [],
      "stateMutability": "nonpayable",
      "type": "constructor"
    },
    {
      "inputs": [
        {
          "internalType": "address",
          "name": "_contract",
          "type": "address"
        }
      ],
      "name": "addPlugin",
      "outputs": [],
      "stateMutability": "nonpayable",
      "type": "function"
    },
    {
      "inputs": [],
      "name": "brandRegistry",
      "outputs": [
        {
          "internalType": "address",
          "name": "",
          "type": "address"
        }
      ],
      "stateMutability": "view",
      "type": "function"
    },
    {
      "inputs": [
        {
          "internalType": "uint256",
          "name": "_tokenId",
          "type": "uint256"
        },
        {
          "internalType": "uint256",
          "name": "_amount",
          "type": "uint256"
        }
      ],
      "name": "burnFT",
      "outputs": [],
      "stateMutability": "nonpayable",
      "type": "function"
    },
    {
      "inputs": [
        {
          "internalType": "uint256[]",
          "name": "_tokenIds",
          "type": "uint256[]"
        },
        {
          "internalType": "uint256[]",
          "name": "_amounts",
          "type": "uint256[]"
        }
      ],
      "name": "burnFTs",
      "outputs": [],
      "stateMutability": "nonpayable",
      "type": "function"
    },
    {
      "inputs": [
        {
          "internalType": "uint256",
          "name": "_tokenId",
          "type": "uint256"
        }
      ],
      "name": "burnNFT",
      "outputs": [],
      "stateMutability": "nonpayable",
      "type": "function"
    },
    {
      "inputs": [
        {
          "internalType": "uint256[]",
          "name": "_tokenIds",
          "type": "uint256[]"
        }
      ],
      "name": "burnNFTs",
      "outputs": [],
      "stateMutability": "nonpayable",
      "type": "function"
    },
    {
      "inputs": [
        {
          "internalType": "address",
          "name": "_brandId",
          "type": "address"
        }
      ],
      "name": "defineNextFTType",
      "outputs": [
        {
          "internalType": "uint256",
          "name": "",
          "type": "uint256"
        }
      ],
      "stateMutability": "nonpayable",
      "type": "function"
    },
    {
      "inputs": [],
      "name": "defineNextNFTType",
      "outputs": [
        {
          "internalType": "uint256",
          "name": "",
          "type": "uint256"
        }
      ],
      "stateMutability": "nonpayable",
      "type": "function"
    },
    {
      "inputs": [],
      "name": "deployer",
      "outputs": [
        {
          "internalType": "address",
          "name": "",
          "type": "address"
        }
      ],
      "stateMutability": "view",
      "type": "function"
    },
    {
      "inputs": [],
      "name": "economy",
      "outputs": [
        {
          "internalType": "address",
          "name": "",
          "type": "address"
        }
      ],
      "stateMutability": "view",
      "type": "function"
    },
    {
      "inputs": [
        {
          "internalType": "address",
          "name": "_to",
          "type": "address"
        },
        {
          "internalType": "address",
          "name": "_brandId",
          "type": "address"
        }
      ],
      "name": "mintBrandFor",
      "outputs": [],
      "stateMutability": "nonpayable",
      "type": "function"
    },
    {
      "inputs": [
        {
          "internalType": "address",
          "name": "_to",
          "type": "address"
        },
        {
          "internalType": "uint256",
          "name": "_tokenId",
          "type": "uint256"
        },
        {
          "internalType": "uint256",
          "name": "_amount",
          "type": "uint256"
        },
        {
          "internalType": "bytes",
          "name": "_data",
          "type": "bytes"
        }
      ],
      "name": "mintFTFor",
      "outputs": [],
      "stateMutability": "nonpayable",
      "type": "function"
    },
    {
      "inputs": [
        {
          "internalType": "address",
          "name": "_to",
          "type": "address"
        },
        {
          "internalType": "uint256",
          "name": "_tokenType",
          "type": "uint256"
        },
        {
          "internalType": "bytes",
          "name": "_data",
          "type": "bytes"
        }
      ],
      "name": "mintNFTFor",
      "outputs": [
        {
          "internalType": "uint256",
          "name": "",
          "type": "uint256"
        }
      ],
      "stateMutability": "nonpayable",
      "type": "function"
    },
    {
      "inputs": [
        {
          "internalType": "uint256",
          "name": "",
          "type": "uint256"
        }
      ],
      "name": "nftTypes",
      "outputs": [
        {
          "internalType": "uint256",
          "name": "",
          "type": "uint256"
        }
      ],
      "stateMutability": "view",
      "type": "function"
    },
    {
      "inputs": [
        {
          "internalType": "address",
          "name": "_brandId",
          "type": "address"
        },
        {
          "internalType": "address",
          "name": "_newOwner",
          "type": "address"
        }
      ],
      "name": "onBrandOwnerChanged",
      "outputs": [],
      "stateMutability": "nonpayable",
      "type": "function"
    },
    {
      "inputs": [
        {
          "internalType": "address",
          "name": "",
          "type": "address"
        }
      ],
      "name": "plugins",
      "outputs": [
        {
          "internalType": "bool",
          "name": "",
          "type": "bool"
        }
      ],
      "stateMutability": "view",
      "type": "function"
    },
    {
      "inputs": [
        {
          "internalType": "address",
          "name": "_contract",
          "type": "address"
        }
      ],
      "name": "setBrandRegistry",
      "outputs": [],
      "stateMutability": "nonpayable",
      "type": "function"
    },
    {
      "inputs": [
        {
          "internalType": "address",
          "name": "_contract",
          "type": "address"
        }
      ],
      "name": "setEconomy",
      "outputs": [],
      "stateMutability": "nonpayable",
      "type": "function"
    },
    {
      "inputs": [
        {
          "internalType": "bytes4",
          "name": "interfaceId",
          "type": "bytes4"
        }
      ],
      "name": "supportsInterface",
      "outputs": [
        {
          "internalType": "bool",
          "name": "",
          "type": "bool"
        }
      ],
      "stateMutability": "view",
      "type": "function"
    },
    {
      "inputs": [
        {
          "internalType": "uint256",
          "name": "",
          "type": "uint256"
        }
      ],
      "name": "tokenTypeResolvers",
      "outputs": [
        {
          "internalType": "address",
          "name": "",
          "type": "address"
        }
      ],
      "stateMutability": "view",
      "type": "function"
    },
    {
      "inputs": [
        {
          "internalType": "uint256",
          "name": "_tokenId",
          "type": "uint256"
        }
      ],
      "name": "tokenURI",
      "outputs": [
        {
          "internalType": "string",
          "name": "",
          "type": "string"
        }
      ],
      "stateMutability": "view",
      "type": "function"
    }
  ],
  "bytecode": "0x60806040526002600655740100000000000000000000000000000000000000006007553480156200002f57600080fd5b50620000406200008660201b60201c565b600860006101000a81548173ffffffffffffffffffffffffffffffffffffffff021916908373ffffffffffffffffffffffffffffffffffffffff1602179055506200008e565b600033905090565b61410d806200009e6000396000f3fe608060405234801561001057600080fd5b50600436106101375760003560e01c8063a16bc2ae116100b8578063ba9c5ba91161007c578063ba9c5ba91461034a578063c87b56dd14610366578063d053bfa114610396578063d5f39488146103c6578063d8867fc8146103e4578063f981ce7f1461040057610137565b8063a16bc2ae146102aa578063acb8a060146102c6578063ad8509b0146102e2578063b842aa92146102fe578063b9225e841461032e57610137565b8063556112d4116100ff578063556112d4146102045780635b1798e41461022257806379b2ab23146102405780638820f6bd146102705780638cd6e9a91461028e57610137565b806301ffc9a71461013c57806304a6fdc01461016c5780631b5dc5981461019c5780632890e0d7146101b85780634b12e643146101d4575b600080fd5b6101566004803603810190610151919061284c565b61041c565b6040516101639190612894565b60405180910390f35b61018660048036038101906101819190612a89565b6104ee565b6040516101939190612b07565b60405180910390f35b6101b660048036038101906101b19190612b22565b61084e565b005b6101d260048036038101906101cd9190612b62565b610991565b005b6101ee60048036038101906101e99190612b8f565b610b7c565b6040516101fb9190612894565b60405180910390f35b61020c610b9c565b6040516102199190612b07565b60405180910390f35b61022a610d9f565b6040516102379190612bcb565b60405180910390f35b61025a60048036038101906102559190612b62565b610dc5565b6040516102679190612b07565b60405180910390f35b610278610ddd565b6040516102859190612bcb565b60405180910390f35b6102a860048036038101906102a39190612b22565b610e03565b005b6102c460048036038101906102bf9190612be6565b610f2d565b005b6102e060048036038101906102db9190612b8f565b611167565b005b6102fc60048036038101906102f79190612b8f565b6112d3565b005b61031860048036038101906103139190612b8f565b61143f565b6040516103259190612b07565b60405180910390f35b61034860048036038101906103439190612d31565b61173d565b005b610364600480360381019061035f9190612d7a565b6119f6565b005b610380600480360381019061037b9190612b62565b611bce565b60405161038d9190612e42565b60405180910390f35b6103b060048036038101906103ab9190612b62565b611cf1565b6040516103bd9190612bcb565b60405180910390f35b6103ce611d24565b6040516103db9190612bcb565b60405180910390f35b6103fe60048036038101906103f99190612b8f565b611d4a565b005b61041a60048036038101906104159190612e64565b611f27565b005b60007f01ffc9a7000000000000000000000000000000000000000000000000000000007bffffffffffffffffffffffffffffffffffffffffffffffffffffffff1916827bffffffffffffffffffffffffffffffffffffffffffffffffffffffff191614806104e757507f5d945e5b000000000000000000000000000000000000000000000000000000007bffffffffffffffffffffffffffffffffffffffffffffffffffffffff1916827bffffffffffffffffffffffffffffffffffffffffffffffffffffffff1916145b9050919050565b60008060006104fb612139565b73ffffffffffffffffffffffffffffffffffffffff1673ffffffffffffffffffffffffffffffffffffffff16815260200190815260200160002060009054906101000a900460ff16610582576040517f08c379a000000000000000000000000000000000000000000000000000000000815260040161057990612f4e565b60405180910390fd5b8261058b612139565b73ffffffffffffffffffffffffffffffffffffffff166003600083815260200190815260200160002060009054906101000a900473ffffffffffffffffffffffffffffffffffffffff1673ffffffffffffffffffffffffffffffffffffffff161461062b576040517f08c379a000000000000000000000000000000000000000000000000000000000815260040161062290612fe0565b60405180910390fd5b837f8000000000000000000000000000000000000000000000000000000000000000811061068e576040517f08c379a000000000000000000000000000000000000000000000000000000000815260040161068590613072565b60405180910390fd5b60028510156106d2576040517f08c379a00000000000000000000000000000000000000000000000000000000081526004016106c990613104565b60405180910390fd5b6000600754905060007f7fffffffffffffffffffffffffffffffffffffffffffffffffffffffffffffff90505b60011561078157808210610748576040517f08c379a000000000000000000000000000000000000000000000000000000000815260040161073f90613170565b60405180910390fd5b60006004600084815260200190815260200160002054146107775760018261077091906131bf565b915061077c565b610781565b6106ff565b60018261078e91906131bf565b600781905550600260009054906101000a900473ffffffffffffffffffffffffffffffffffffffff1673ffffffffffffffffffffffffffffffffffffffff16635b0034fd898460018a6040518563ffffffff1660e01b81526004016107f694939291906132af565b600060405180830381600087803b15801561081057600080fd5b505af1158015610824573d6000803e3d6000fd5b50505050866004600084815260200190815260200160002081905550819450505050509392505050565b600160009054906101000a900473ffffffffffffffffffffffffffffffffffffffff1673ffffffffffffffffffffffffffffffffffffffff1661088f612139565b73ffffffffffffffffffffffffffffffffffffffff16146108e5576040517f08c379a00000000000000000000000000000000000000000000000000000000081526004016108dc9061336d565b60405180910390fd5b600260009054906101000a900473ffffffffffffffffffffffffffffffffffffffff1673ffffffffffffffffffffffffffffffffffffffff16635b0034fd838373ffffffffffffffffffffffffffffffffffffffff1660016040518463ffffffff1660e01b815260040161095b939291906133d9565b600060405180830381600087803b15801561097557600080fd5b505af1158015610989573d6000803e3d6000fd5b505050505050565b60008061099c612139565b73ffffffffffffffffffffffffffffffffffffffff1673ffffffffffffffffffffffffffffffffffffffff16815260200190815260200160002060009054906101000a900460ff16610a23576040517f08c379a0000000000000000000000000000000000000000000000000000000008152600401610a1a90612f4e565b60405180910390fd5b6004600082815260200190815260200160002054610a3f612139565b73ffffffffffffffffffffffffffffffffffffffff166003600083815260200190815260200160002060009054906101000a900473ffffffffffffffffffffffffffffffffffffffff1673ffffffffffffffffffffffffffffffffffffffff1614610adf576040517f08c379a0000000000000000000000000000000000000000000000000000000008152600401610ad690612fe0565b60405180910390fd5b600260009054906101000a900473ffffffffffffffffffffffffffffffffffffffff1673ffffffffffffffffffffffffffffffffffffffff1663f5298aca610b25612139565b8460016040518463ffffffff1660e01b8152600401610b4693929190613423565b600060405180830381600087803b158015610b6057600080fd5b505af1158015610b74573d6000803e3d6000fd5b505050505050565b60006020528060005260406000206000915054906101000a900460ff1681565b6000806000610ba9612139565b73ffffffffffffffffffffffffffffffffffffffff1673ffffffffffffffffffffffffffffffffffffffff16815260200190815260200160002060009054906101000a900460ff16610c30576040517f08c379a0000000000000000000000000000000000000000000000000000000008152600401610c2790612f4e565b60405180910390fd5b6000600654905060007f7fffffffffffffffffffffffffffffffffffffffffffffffffffffffffffffff90505b600115610d2b57808210610ca6576040517f08c379a0000000000000000000000000000000000000000000000000000000008152600401610c9d906134cc565b60405180910390fd5b600073ffffffffffffffffffffffffffffffffffffffff166003600084815260200190815260200160002060009054906101000a900473ffffffffffffffffffffffffffffffffffffffff1673ffffffffffffffffffffffffffffffffffffffff1614610d2157600182610d1a91906131bf565b9150610d26565b610d2b565b610c5d565b600182610d3891906131bf565b600681905550610d46612139565b6003600084815260200190815260200160002060006101000a81548173ffffffffffffffffffffffffffffffffffffffff021916908373ffffffffffffffffffffffffffffffffffffffff160217905550819250505090565b600160009054906101000a900473ffffffffffffffffffffffffffffffffffffffff1681565b60046020528060005260406000206000915090505481565b600260009054906101000a900473ffffffffffffffffffffffffffffffffffffffff1681565b600260009054906101000a900473ffffffffffffffffffffffffffffffffffffffff1673ffffffffffffffffffffffffffffffffffffffff16610e44612139565b73ffffffffffffffffffffffffffffffffffffffff1614610e9a576040517f08c379a0000000000000000000000000000000000000000000000000000000008152600401610e919061355e565b60405180910390fd5b600160009054906101000a900473ffffffffffffffffffffffffffffffffffffffff1673ffffffffffffffffffffffffffffffffffffffff16638cd6e9a983836040518363ffffffff1660e01b8152600401610ef792919061357e565b600060405180830381600087803b158015610f1157600080fd5b505af1158015610f25573d6000803e3d6000fd5b505050505050565b600080610f38612139565b73ffffffffffffffffffffffffffffffffffffffff1673ffffffffffffffffffffffffffffffffffffffff16815260200190815260200160002060009054906101000a900460ff16610fbf576040517f08c379a0000000000000000000000000000000000000000000000000000000008152600401610fb690612f4e565b60405180910390fd5b82610fc8612139565b73ffffffffffffffffffffffffffffffffffffffff166003600083815260200190815260200160002060009054906101000a900473ffffffffffffffffffffffffffffffffffffffff1673ffffffffffffffffffffffffffffffffffffffff1614611068576040517f08c379a000000000000000000000000000000000000000000000000000000000815260040161105f90612fe0565b60405180910390fd5b837f80000000000000000000000000000000000000000000000000000000000000008110156110cc576040517f08c379a00000000000000000000000000000000000000000000000000000000081526004016110c39061363f565b60405180910390fd5b600260009054906101000a900473ffffffffffffffffffffffffffffffffffffffff1673ffffffffffffffffffffffffffffffffffffffff16635b0034fd878787876040518563ffffffff1660e01b815260040161112d949392919061365f565b600060405180830381600087803b15801561114757600080fd5b505af115801561115b573d6000803e3d6000fd5b50505050505050505050565b611177611172612139565b612141565b6111b6576040517f08c379a00000000000000000000000000000000000000000000000000000000081526004016111ad9061371d565b60405180910390fd5b6111bf8161219b565b6111fe576040517f08c379a00000000000000000000000000000000000000000000000000000000081526004016111f5906137d5565b60405180910390fd5b600073ffffffffffffffffffffffffffffffffffffffff16600160009054906101000a900473ffffffffffffffffffffffffffffffffffffffff1673ffffffffffffffffffffffffffffffffffffffff161461128f576040517f08c379a000000000000000000000000000000000000000000000000000000000815260040161128690613867565b60405180910390fd5b80600160006101000a81548173ffffffffffffffffffffffffffffffffffffffff021916908373ffffffffffffffffffffffffffffffffffffffff16021790555050565b6112e36112de612139565b612292565b611322576040517f08c379a0000000000000000000000000000000000000000000000000000000008152600401611319906138f9565b60405180910390fd5b61132b816122ec565b61136a576040517f08c379a0000000000000000000000000000000000000000000000000000000008152600401611361906139b1565b60405180910390fd5b600073ffffffffffffffffffffffffffffffffffffffff16600260009054906101000a900473ffffffffffffffffffffffffffffffffffffffff1673ffffffffffffffffffffffffffffffffffffffff16146113fb576040517f08c379a00000000000000000000000000000000000000000000000000000000081526004016113f290613a43565b60405180910390fd5b80600260006101000a81548173ffffffffffffffffffffffffffffffffffffffff021916908373ffffffffffffffffffffffffffffffffffffffff16021790555050565b600080600061144c612139565b73ffffffffffffffffffffffffffffffffffffffff1673ffffffffffffffffffffffffffffffffffffffff16815260200190815260200160002060009054906101000a900460ff166114d3576040517f08c379a00000000000000000000000000000000000000000000000000000000081526004016114ca90612f4e565b60405180910390fd5b6000600560008473ffffffffffffffffffffffffffffffffffffffff1673ffffffffffffffffffffffffffffffffffffffff16815260200190815260200160002060009054906101000a900467ffffffffffffffff16905060008167ffffffffffffffff1660408573ffffffffffffffffffffffffffffffffffffffff16901b7f8000000000000000000000000000000000000000000000000000000000000000171790505b6001156116685767ffffffffffffffff8267ffffffffffffffff16106115d4576040517f08c379a00000000000000000000000000000000000000000000000000000000081526004016115cb90613ad5565b60405180910390fd5b600073ffffffffffffffffffffffffffffffffffffffff166003600083815260200190815260200160002060009054906101000a900473ffffffffffffffffffffffffffffffffffffffff1673ffffffffffffffffffffffffffffffffffffffff161461165e576001826116489190613b09565b915060018161165791906131bf565b9050611663565b611668565b611579565b6001826116759190613b09565b600560008673ffffffffffffffffffffffffffffffffffffffff1673ffffffffffffffffffffffffffffffffffffffff16815260200190815260200160002060006101000a81548167ffffffffffffffff021916908367ffffffffffffffff1602179055506116e2612139565b6003600083815260200190815260200160002060006101000a81548173ffffffffffffffffffffffffffffffffffffffff021916908373ffffffffffffffffffffffffffffffffffffffff1602179055508092505050919050565b600080611748612139565b73ffffffffffffffffffffffffffffffffffffffff1673ffffffffffffffffffffffffffffffffffffffff16815260200190815260200160002060009054906101000a900460ff166117cf576040517f08c379a00000000000000000000000000000000000000000000000000000000081526004016117c690612f4e565b60405180910390fd5b8060005b81518110156118c4576117e4612139565b73ffffffffffffffffffffffffffffffffffffffff16600360006004600086868151811061181557611814613b47565b5b6020026020010151815260200190815260200160002054815260200190815260200160002060009054906101000a900473ffffffffffffffffffffffffffffffffffffffff1673ffffffffffffffffffffffffffffffffffffffff16146118b1576040517f08c379a00000000000000000000000000000000000000000000000000000000081526004016118a890612fe0565b60405180910390fd5b80806118bc90613b76565b9150506117d3565b5060008251905060008167ffffffffffffffff8111156118e7576118e661295e565b5b6040519080825280602002602001820160405280156119155781602001602082028036833780820191505090505b50905060005b8281101561195757600182828151811061193857611937613b47565b5b602002602001018181525050808061194f90613b76565b91505061191b565b50600260009054906101000a900473ffffffffffffffffffffffffffffffffffffffff1673ffffffffffffffffffffffffffffffffffffffff16636b20c45461199e612139565b86846040518463ffffffff1660e01b81526004016119be93929190613c7d565b600060405180830381600087803b1580156119d857600080fd5b505af11580156119ec573d6000803e3d6000fd5b5050505050505050565b600080611a01612139565b73ffffffffffffffffffffffffffffffffffffffff1673ffffffffffffffffffffffffffffffffffffffff16815260200190815260200160002060009054906101000a900460ff16611a88576040517f08c379a0000000000000000000000000000000000000000000000000000000008152600401611a7f90612f4e565b60405180910390fd5b81611a91612139565b73ffffffffffffffffffffffffffffffffffffffff166003600083815260200190815260200160002060009054906101000a900473ffffffffffffffffffffffffffffffffffffffff1673ffffffffffffffffffffffffffffffffffffffff1614611b31576040517f08c379a0000000000000000000000000000000000000000000000000000000008152600401611b2890612fe0565b60405180910390fd5b600260009054906101000a900473ffffffffffffffffffffffffffffffffffffffff1673ffffffffffffffffffffffffffffffffffffffff1663f5298aca611b77612139565b85856040518463ffffffff1660e01b8152600401611b9793929190613cc2565b600060405180830381600087803b158015611bb157600080fd5b505af1158015611bc5573d6000803e3d6000fd5b50505050505050565b606074010000000000000000000000000000000000000000821015611c9557600160009054906101000a900473ffffffffffffffffffffffffffffffffffffffff1673ffffffffffffffffffffffffffffffffffffffff16639896c31d836040518263ffffffff1660e01b8152600401611c489190612bcb565b600060405180830381865afa158015611c65573d6000803e3d6000fd5b505050506040513d6000823e3d601f19601f82011682018060405250810190611c8e9190613d9a565b9050611cec565b7f8000000000000000000000000000000000000000000000000000000000000000821015611ce057611cd960046000848152602001908152602001600020546123e3565b9050611cec565b611ce9826123e3565b90505b919050565b60036020528060005260406000206000915054906101000a900473ffffffffffffffffffffffffffffffffffffffff1681565b600860009054906101000a900473ffffffffffffffffffffffffffffffffffffffff1681565b611d5a611d55612139565b6124f2565b611d99576040517f08c379a0000000000000000000000000000000000000000000000000000000008152600401611d9090613e55565b60405180910390fd5b611da28161254c565b611de1576040517f08c379a0000000000000000000000000000000000000000000000000000000008152600401611dd890613f0d565b60405180910390fd5b6000808273ffffffffffffffffffffffffffffffffffffffff1673ffffffffffffffffffffffffffffffffffffffff16815260200190815260200160002060009054906101000a900460ff1615611e6d576040517f08c379a0000000000000000000000000000000000000000000000000000000008152600401611e6490613f9f565b60405180910390fd5b60016000808373ffffffffffffffffffffffffffffffffffffffff1673ffffffffffffffffffffffffffffffffffffffff16815260200190815260200160002060006101000a81548160ff0219169083151502179055508073ffffffffffffffffffffffffffffffffffffffff16638129fc1c6040518163ffffffff1660e01b8152600401600060405180830381600087803b158015611f0c57600080fd5b505af1158015611f20573d6000803e3d6000fd5b5050505050565b600080611f32612139565b73ffffffffffffffffffffffffffffffffffffffff1673ffffffffffffffffffffffffffffffffffffffff16815260200190815260200160002060009054906101000a900460ff16611fb9576040517f08c379a0000000000000000000000000000000000000000000000000000000008152600401611fb090612f4e565b60405180910390fd5b8160005b815181101561209b57611fce612139565b73ffffffffffffffffffffffffffffffffffffffff1660036000848481518110611ffb57611ffa613b47565b5b6020026020010151815260200190815260200160002060009054906101000a900473ffffffffffffffffffffffffffffffffffffffff1673ffffffffffffffffffffffffffffffffffffffff1614612088576040517f08c379a000000000000000000000000000000000000000000000000000000000815260040161207f90612fe0565b60405180910390fd5b808061209390613b76565b915050611fbd565b50600260009054906101000a900473ffffffffffffffffffffffffffffffffffffffff1673ffffffffffffffffffffffffffffffffffffffff16636b20c4546120e2612139565b85856040518463ffffffff1660e01b815260040161210293929190613c7d565b600060405180830381600087803b15801561211c57600080fd5b505af1158015612130573d6000803e3d6000fd5b50505050505050565b600033905090565b6000600860009054906101000a900473ffffffffffffffffffffffffffffffffffffffff1673ffffffffffffffffffffffffffffffffffffffff168273ffffffffffffffffffffffffffffffffffffffff16149050919050565b60006121e67f9b151866000000000000000000000000000000000000000000000000000000008373ffffffffffffffffffffffffffffffffffffffff1661264390919063ffffffff16565b801561228b57503073ffffffffffffffffffffffffffffffffffffffff168273ffffffffffffffffffffffffffffffffffffffff1663f200670d6040518163ffffffff1660e01b8152600401602060405180830381865afa15801561224f573d6000803e3d6000fd5b505050506040513d601f19601f820116820180604052508101906122739190613fd4565b73ffffffffffffffffffffffffffffffffffffffff16145b9050919050565b6000600860009054906101000a900473ffffffffffffffffffffffffffffffffffffffff1673ffffffffffffffffffffffffffffffffffffffff168273ffffffffffffffffffffffffffffffffffffffff16149050919050565b60006123377f37091d6e000000000000000000000000000000000000000000000000000000008373ffffffffffffffffffffffffffffffffffffffff1661264390919063ffffffff16565b80156123dc57503073ffffffffffffffffffffffffffffffffffffffff168273ffffffffffffffffffffffffffffffffffffffff1663f200670d6040518163ffffffff1660e01b8152600401602060405180830381865afa1580156123a0573d6000803e3d6000fd5b505050506040513d601f19601f820116820180604052508101906123c49190613fd4565b73ffffffffffffffffffffffffffffffffffffffff16145b9050919050565b606060006003600084815260200190815260200160002060009054906101000a900473ffffffffffffffffffffffffffffffffffffffff169050600073ffffffffffffffffffffffffffffffffffffffff168173ffffffffffffffffffffffffffffffffffffffff16141561246a57604051806020016040528060008152509150506124ed565b8073ffffffffffffffffffffffffffffffffffffffff16630e89341c846040518263ffffffff1660e01b81526004016124a39190612b07565b600060405180830381865afa1580156124c0573d6000803e3d6000fd5b505050506040513d6000823e3d601f19601f820116820180604052508101906124e99190613d9a565b9150505b919050565b6000600860009054906101000a900473ffffffffffffffffffffffffffffffffffffffff1673ffffffffffffffffffffffffffffffffffffffff168273ffffffffffffffffffffffffffffffffffffffff16149050919050565b60006125977f08267719000000000000000000000000000000000000000000000000000000008373ffffffffffffffffffffffffffffffffffffffff1661264390919063ffffffff16565b801561263c57503073ffffffffffffffffffffffffffffffffffffffff168273ffffffffffffffffffffffffffffffffffffffff1663f200670d6040518163ffffffff1660e01b8152600401602060405180830381865afa158015612600573d6000803e3d6000fd5b505050506040513d601f19601f820116820180604052508101906126249190613fd4565b73ffffffffffffffffffffffffffffffffffffffff16145b9050919050565b600061264e83612668565b8015612660575061265f83836126b5565b5b905092915050565b6000612694827f01ffc9a7000000000000000000000000000000000000000000000000000000006126b5565b80156126ae57506126ac8263ffffffff60e01b6126b5565b155b9050919050565b6000806301ffc9a760e01b836040516024016126d19190614010565b604051602081830303815290604052907bffffffffffffffffffffffffffffffffffffffffffffffffffffffff19166020820180517bffffffffffffffffffffffffffffffffffffffffffffffffffffffff838183161783525050505090506000808573ffffffffffffffffffffffffffffffffffffffff166175308460405161275b9190614067565b6000604051808303818686fa925050503d8060008114612797576040519150601f19603f3d011682016040523d82523d6000602084013e61279c565b606091505b50915091506020815110156127b757600093505050506127da565b8180156127d45750808060200190518101906127d391906140aa565b5b93505050505b92915050565b6000604051905090565b600080fd5b600080fd5b60007fffffffff0000000000000000000000000000000000000000000000000000000082169050919050565b612829816127f4565b811461283457600080fd5b50565b60008135905061284681612820565b92915050565b600060208284031215612862576128616127ea565b5b600061287084828501612837565b91505092915050565b60008115159050919050565b61288e81612879565b82525050565b60006020820190506128a96000830184612885565b92915050565b600073ffffffffffffffffffffffffffffffffffffffff82169050919050565b60006128da826128af565b9050919050565b6128ea816128cf565b81146128f557600080fd5b50565b600081359050612907816128e1565b92915050565b6000819050919050565b6129208161290d565b811461292b57600080fd5b50565b60008135905061293d81612917565b92915050565b600080fd5b600080fd5b6000601f19601f8301169050919050565b7f4e487b7100000000000000000000000000000000000000000000000000000000600052604160045260246000fd5b6129968261294d565b810181811067ffffffffffffffff821117156129b5576129b461295e565b5b80604052505050565b60006129c86127e0565b90506129d4828261298d565b919050565b600067ffffffffffffffff8211156129f4576129f361295e565b5b6129fd8261294d565b9050602081019050919050565b82818337600083830152505050565b6000612a2c612a27846129d9565b6129be565b905082815260208101848484011115612a4857612a47612948565b5b612a53848285612a0a565b509392505050565b600082601f830112612a7057612a6f612943565b5b8135612a80848260208601612a19565b91505092915050565b600080600060608486031215612aa257612aa16127ea565b5b6000612ab0868287016128f8565b9350506020612ac18682870161292e565b925050604084013567ffffffffffffffff811115612ae257612ae16127ef565b5b612aee86828701612a5b565b9150509250925092565b612b018161290d565b82525050565b6000602082019050612b1c6000830184612af8565b92915050565b60008060408385031215612b3957612b386127ea565b5b6000612b47858286016128f8565b9250506020612b58858286016128f8565b9150509250929050565b600060208284031215612b7857612b776127ea565b5b6000612b868482850161292e565b91505092915050565b600060208284031215612ba557612ba46127ea565b5b6000612bb3848285016128f8565b91505092915050565b612bc5816128cf565b82525050565b6000602082019050612be06000830184612bbc565b92915050565b60008060008060808587031215612c0057612bff6127ea565b5b6000612c0e878288016128f8565b9450506020612c1f8782880161292e565b9350506040612c308782880161292e565b925050606085013567ffffffffffffffff811115612c5157612c506127ef565b5b612c5d87828801612a5b565b91505092959194509250565b600067ffffffffffffffff821115612c8457612c8361295e565b5b602082029050602081019050919050565b600080fd5b6000612cad612ca884612c69565b6129be565b90508083825260208201905060208402830185811115612cd057612ccf612c95565b5b835b81811015612cf95780612ce5888261292e565b845260208401935050602081019050612cd2565b5050509392505050565b600082601f830112612d1857612d17612943565b5b8135612d28848260208601612c9a565b91505092915050565b600060208284031215612d4757612d466127ea565b5b600082013567ffffffffffffffff811115612d6557612d646127ef565b5b612d7184828501612d03565b91505092915050565b60008060408385031215612d9157612d906127ea565b5b6000612d9f8582860161292e565b9250506020612db08582860161292e565b9150509250929050565b600081519050919050565b600082825260208201905092915050565b60005b83811015612df4578082015181840152602081019050612dd9565b83811115612e03576000848401525b50505050565b6000612e1482612dba565b612e1e8185612dc5565b9350612e2e818560208601612dd6565b612e378161294d565b840191505092915050565b60006020820190508181036000830152612e5c8184612e09565b905092915050565b60008060408385031215612e7b57612e7a6127ea565b5b600083013567ffffffffffffffff811115612e9957612e986127ef565b5b612ea585828601612d03565b925050602083013567ffffffffffffffff811115612ec657612ec56127ef565b5b612ed285828601612d03565b9150509250929050565b7f4d65746176657273653a207468652073656e646572206d75737420626520612060008201527f706c75672d696e00000000000000000000000000000000000000000000000000602082015250565b6000612f38602783612dc5565b9150612f4382612edc565b604082019050919050565b60006020820190508181036000830152612f6781612f2b565b9050919050565b7f4d65746176657273653a206e6f7420612074797065207265676973746572656460008201527f206279207468697320706c75672d696e00000000000000000000000000000000602082015250565b6000612fca603083612dc5565b9150612fd582612f6e565b604082019050919050565b60006020820190508181036000830152612ff981612fbd565b9050919050565b7f4d65746176657273653a20746865207370656369666965642076616c7565206960008201527f73206e6f7420696e20746865206e66742072616e676500000000000000000000602082015250565b600061305c603683612dc5565b915061306782613000565b604082019050919050565b6000602082019050818103600083015261308b8161304f565b9050919050565b7f4d65746176657273653a204e465420747970657320302028696e76616c69642960008201527f20616e64203120286272616e64292063616e6e6f74206265206d696e74656400602082015250565b60006130ee603f83612dc5565b91506130f982613092565b604082019050919050565b6000602082019050818103600083015261311d816130e1565b9050919050565b7f4d65746176657273653a2063616e6e6f74206d696e74206d6f7265204e465473600082015250565b600061315a602083612dc5565b915061316582613124565b602082019050919050565b600060208201905081810360008301526131898161314d565b9050919050565b7f4e487b7100000000000000000000000000000000000000000000000000000000600052601160045260246000fd5b60006131ca8261290d565b91506131d58361290d565b9250827fffffffffffffffffffffffffffffffffffffffffffffffffffffffffffffffff0382111561320a57613209613190565b5b828201905092915050565b6000819050919050565b6000819050919050565b600061324461323f61323a84613215565b61321f565b61290d565b9050919050565b61325481613229565b82525050565b600081519050919050565b600082825260208201905092915050565b60006132818261325a565b61328b8185613265565b935061329b818560208601612dd6565b6132a48161294d565b840191505092915050565b60006080820190506132c46000830187612bbc565b6132d16020830186612af8565b6132de604083018561324b565b81810360608301526132f08184613276565b905095945050505050565b7f4d65746176657273653a20746865206f6e6c7920616c6c6f7765642073656e6460008201527f657220697320746865206272616e642072656769737472790000000000000000602082015250565b6000613357603883612dc5565b9150613362826132fb565b604082019050919050565b600060208201905081810360008301526133868161334a565b9050919050565b7f4d65746176657273653a204d696e74696e672061206272616e64000000000000600082015250565b60006133c3601a83613265565b91506133ce8261338d565b602082019050919050565b60006080820190506133ee6000830186612bbc565b6133fb6020830185612af8565b613408604083018461324b565b8181036060830152613419816133b6565b9050949350505050565b60006060820190506134386000830186612bbc565b6134456020830185612af8565b613452604083018461324b565b949350505050565b7f4d65746176657273653a2063616e6e6f7420646566696e65206d6f7265204e4660008201527f5420747970657300000000000000000000000000000000000000000000000000602082015250565b60006134b6602783612dc5565b91506134c18261345a565b604082019050919050565b600060208201905081810360008301526134e5816134a9565b9050919050565b7f4d65746176657273653a20746865206f6e6c7920616c6c6f7765642073656e6460008201527f6572206973207468652065636f6e6f6d792073797374656d0000000000000000602082015250565b6000613548603883612dc5565b9150613553826134ec565b604082019050919050565b600060208201905081810360008301526135778161353b565b9050919050565b60006040820190506135936000830185612bbc565b6135a06020830184612bbc565b9392505050565b7f4d65746176657273653a20746865207370656369666965642076616c7565206960008201527f73206e6f7420696e207468652066756e6769626c6520746f6b656e732072616e60208201527f6765000000000000000000000000000000000000000000000000000000000000604082015250565b6000613629604283612dc5565b9150613634826135a7565b606082019050919050565b600060208201905081810360008301526136588161361c565b9050919050565b60006080820190506136746000830187612bbc565b6136816020830186612af8565b61368e6040830185612af8565b81810360608301526136a08184613276565b905095945050505050565b7f4d65746176657273653a207468652073656e646572206973206e6f7420616c6c60008201527f6f77656420746f207365742074686520706c75672d696e000000000000000000602082015250565b6000613707603783612dc5565b9150613712826136ab565b604082019050919050565b60006020820190508181036000830152613736816136fa565b9050919050565b7f4d65746176657273653a20746865206164647265737320646f6573206e6f742060008201527f62656c6f6e6720746f20612076616c6964206272616e6420726567697374727960208201527f20636f6e747261637420666f722074686973206d657461766572736500000000604082015250565b60006137bf605c83612dc5565b91506137ca8261373d565b606082019050919050565b600060208201905081810360008301526137ee816137b2565b9050919050565b7f4d65746176657273653a2061206272616e64207265676973747279206973206160008201527f6c72656164792073657420696e746f2074686973206d65746176657273650000602082015250565b6000613851603e83612dc5565b915061385c826137f5565b604082019050919050565b6000602082019050818103600083015261388081613844565b9050919050565b7f4d65746176657273653a207468652073656e646572206973206e6f7420616c6c60008201527f6f77656420746f20736574207468652065636f6e6f6d79000000000000000000602082015250565b60006138e3603783612dc5565b91506138ee82613887565b604082019050919050565b60006020820190508181036000830152613912816138d6565b9050919050565b7f4d65746176657273653a20746865206164647265737320646f6573206e6f742060008201527f62656c6f6e6720746f20612076616c69642065636f6e6f6d7920636f6e74726160208201527f637420666f722074686973206d65746176657273650000000000000000000000604082015250565b600061399b605583612dc5565b91506139a682613919565b606082019050919050565b600060208201905081810360008301526139ca8161398e565b9050919050565b7f4d65746176657273653a20616e2065636f6e6f6d7920697320616c726561647960008201527f2073657420696e746f2074686973206d65746176657273650000000000000000602082015250565b6000613a2d603883612dc5565b9150613a38826139d1565b604082019050919050565b60006020820190508181036000830152613a5c81613a20565b9050919050565b7f4d65746176657273653a2063616e6e6f7420646566696e65206d6f726520465460008201527f20747970657320666f7220746869732061646472657373000000000000000000602082015250565b6000613abf603783612dc5565b9150613aca82613a63565b604082019050919050565b60006020820190508181036000830152613aee81613ab2565b9050919050565b600067ffffffffffffffff82169050919050565b6000613b1482613af5565b9150613b1f83613af5565b92508267ffffffffffffffff03821115613b3c57613b3b613190565b5b828201905092915050565b7f4e487b7100000000000000000000000000000000000000000000000000000000600052603260045260246000fd5b6000613b818261290d565b91507fffffffffffffffffffffffffffffffffffffffffffffffffffffffffffffffff821415613bb457613bb3613190565b5b600182019050919050565b600081519050919050565b600082825260208201905092915050565b6000819050602082019050919050565b613bf48161290d565b82525050565b6000613c068383613beb565b60208301905092915050565b6000602082019050919050565b6000613c2a82613bbf565b613c348185613bca565b9350613c3f83613bdb565b8060005b83811015613c70578151613c578882613bfa565b9750613c6283613c12565b925050600181019050613c43565b5085935050505092915050565b6000606082019050613c926000830186612bbc565b8181036020830152613ca48185613c1f565b90508181036040830152613cb88184613c1f565b9050949350505050565b6000606082019050613cd76000830186612bbc565b613ce46020830185612af8565b613cf16040830184612af8565b949350505050565b600067ffffffffffffffff821115613d1457613d1361295e565b5b613d1d8261294d565b9050602081019050919050565b6000613d3d613d3884613cf9565b6129be565b905082815260208101848484011115613d5957613d58612948565b5b613d64848285612dd6565b509392505050565b600082601f830112613d8157613d80612943565b5b8151613d91848260208601613d2a565b91505092915050565b600060208284031215613db057613daf6127ea565b5b600082015167ffffffffffffffff811115613dce57613dcd6127ef565b5b613dda84828501613d6c565b91505092915050565b7f4d65746176657273653a207468652073656e646572206973206e6f7420616c6c60008201527f6f77656420746f20616464206120706c75672d696e0000000000000000000000602082015250565b6000613e3f603583612dc5565b9150613e4a82613de3565b604082019050919050565b60006020820190508181036000830152613e6e81613e32565b9050919050565b7f4d65746176657273653a20746865206164647265737320646f6573206e6f742060008201527f62656c6f6e6720746f20612076616c696420706c75672d696e20636f6e74726160208201527f637420666f722074686973206d65746176657273650000000000000000000000604082015250565b6000613ef7605583612dc5565b9150613f0282613e75565b606082019050919050565b60006020820190508181036000830152613f2681613eea565b9050919050565b7f4d65746176657273653a2074686520706c75672d696e20697320616c7265616460008201527f7920616464656420746f2074686973206d657461766572736500000000000000602082015250565b6000613f89603983612dc5565b9150613f9482613f2d565b604082019050919050565b60006020820190508181036000830152613fb881613f7c565b9050919050565b600081519050613fce816128e1565b92915050565b600060208284031215613fea57613fe96127ea565b5b6000613ff884828501613fbf565b91505092915050565b61400a816127f4565b82525050565b60006020820190506140256000830184614001565b92915050565b600081905092915050565b60006140418261325a565b61404b818561402b565b935061405b818560208601612dd6565b80840191505092915050565b60006140738284614036565b915081905092915050565b61408781612879565b811461409257600080fd5b50565b6000815190506140a48161407e565b92915050565b6000602082840312156140c0576140bf6127ea565b5b60006140ce84828501614095565b9150509291505056fea2646970667358221220d16cd9e2007e280bdbdf4bc2c50751cc17263f068549d2284fe7d9f6198ad6bd64736f6c634300080a0033",
  "immutableReferences": {},
  "source": "// SPDX-License-Identifier: MIT\npragma solidity >=0.8 <0.9.0;\n\nimport \"../Metaverse.sol\";\n\ncontract SampleMetaverse is Metaverse {\n    /**\n     * The deployer of this metaverse.\n     */\n    address public deployer;\n\n    constructor() {\n        deployer = _msgSender();\n    }\n\n    /**\n     * Adding the plug-ins is only allowed to the deployer.\n     */\n    function _canAddPlugin(address _sender) internal view override returns (bool) {\n        return _sender == deployer;\n    }\n\n    /**\n     * Setting the brand registry is only allowed to the deployer.\n     */\n    function _canSetBrandRegistry(address _sender) internal view override returns (bool) {\n        return _sender == deployer;\n    }\n\n    /**\n     * Setting the economy system is only allowed to the deployer.\n     */\n    function _canSetEconomy(address _sender) internal view override returns (bool) {\n        return _sender == deployer;\n    }\n}\n",
  "sourcePath": "/home/luismasuelli/Projects/OuterMaze/lingr-contracts/contracts/lingr/samples/SampleMetaverse.sol",
  "compiler": {
    "name": "solc",
    "version": "0.8.10+commit.fc410830.Emscripten.clang"
  },
  "schemaVersion": "3.4.3",
  "updatedAt": "2022-08-11T20:39:18.792Z",
  "devdoc": {
    "kind": "dev",
    "methods": {},
    "version": 1
  },
  "userdoc": {
    "kind": "user",
    "methods": {
      "addPlugin(address)": {
        "notice": "Adds a plug-in contract to this metaverse."
      },
      "brandRegistry()": {
        "notice": "The linked brand registry for this metaverse."
      },
      "burnFT(uint256,uint256)": {
        "notice": "Burns any FT the sender has, provided the sender is a plugin and also defines the type of the token being burned."
      },
      "burnFTs(uint256[],uint256[])": {
        "notice": "Burns many FT the sender has, provided the sender is a plugin and also defines the type of the token being burned."
      },
      "burnNFT(uint256)": {
        "notice": "Burns any NFT the sender has, provided the sender is a plugin and also defines the type of the tokens being burned."
      },
      "burnNFTs(uint256[])": {
        "notice": "Burns many NFT the sender has, provided the sender is a plugin and also defines the type of the tokens being burned."
      },
      "defineNextFTType(address)": {
        "notice": "Defines the resolution of a fungible token type. The token id must be in the range of the fungible token ids."
      },
      "defineNextNFTType()": {
        "notice": "Defines the resolution of a non-fungible token type. The token id must be in the range of the fungible token (type) ids (strictly > 0, strictly < (1 << 255))."
      },
      "deployer()": {
        "notice": "The deployer of this metaverse."
      },
      "economy()": {
        "notice": "The linked economy for this metaverse."
      },
      "mintBrandFor(address,address)": {
        "notice": "Mints a specific brand token for a given user. The brand is stated as its address."
      },
      "mintFTFor(address,uint256,uint256,bytes)": {
        "notice": "Mints a specific fungible token type, in a certain amount."
      },
      "mintNFTFor(address,uint256,bytes)": {
        "notice": "Mints a specific non-fungible token type, using a specific type (and always using an amount of 1). It is an error if the chosen type is unknown or < 2, since those types are reserved for being invalid or brands. Also, it is an error if the chosen type is not for that plug-in."
      },
      "nftTypes(uint256)": {
        "notice": "Now, each NFT id will be registered here along its token type. The difference with the fungible tokens (they're already registered in the `tokenTypes` mapping) is that they need to be registered with a particular token type. Also, both the NFT id and its associated token type will be lower than (1<<255) since, otherwise, they would be using values corresponding to the FT side (both for IDs and type indices). Brand NFTs are not included in this mapping (they are only characterized by being < (1 << 160))."
      },
      "onBrandOwnerChanged(address,address)": {
        "notice": "Hook to be invoked as part of a transfer from ERC1155."
      },
      "plugins(address)": {
        "notice": "This is the list of plug-ins that are being added to the hub. Each contract has its separate logic but they have access to the same set of features. Once a contract is added, it will never be removed from this list. This mapping tells whether a contract in particular has permission(s) to define a type and mint tokens for an address."
      },
      "setBrandRegistry(address)": {
        "notice": "Adds a plug-in contract to this metaverse."
      },
      "setEconomy(address)": {
        "notice": "Set the economy contract to this metaverse."
      },
      "supportsInterface(bytes4)": {
        "notice": "A metaverse satisfies the IMetaverse and IERC165 interfaces."
      },
      "tokenTypeResolvers(uint256)": {
        "notice": "Types are identified as integer values, and each registered type will have a non-zero responsible address (serving to metadata resolution and also to account for the existence of a given type). The type 1 (0x1) will be the first type, and actually it will be the brand type. Other NFT types will be registered using indices lower to (1<<255), while FT types will be registered using indices greater than or equal to that value (i.e. starting with binary {1}). In the case of the FTs, the index in this mapping is also their token id. This is not the same for NFTs (they have one extra level of indirection since multiple ids might share the same type). A special type id will be regarded as invalid type (i.e. it will not count as NFT nor FT type, but as a non-existent type): 0 (0x0). The responsible serves two purposes: The first one, is to resolve the metadata of a given token id (be it FT or NFT). The second one is to account for one of such tokens being burned. The responsible will actually be one of the registered plug-ins, on each case (save for the brands case, which is resolved by this contract, and the invalid case, which has no resolver)."
      },
      "tokenURI(uint256)": {
        "notice": "Retrieves the metadata uri of a given token. WARNING: This method will consume a lot of gas if invoked inside a transaction, so it is recommended to invoke this method in the context of a CALL, and never in the context of a SEND (even as part of other contract's code)."
      }
    },
    "version": 1
  }
}