{
  "contractName": "SampleMetaverse",
  "abi": [
    {
      "inputs": [],
      "stateMutability": "nonpayable",
      "type": "constructor"
    },
    {
      "inputs": [
        {
          "internalType": "address",
          "name": "_contract",
          "type": "address"
        }
      ],
      "name": "addPlugin",
      "outputs": [],
      "stateMutability": "nonpayable",
      "type": "function"
    },
    {
      "inputs": [],
      "name": "brandRegistry",
      "outputs": [
        {
          "internalType": "address",
          "name": "",
          "type": "address"
        }
      ],
      "stateMutability": "view",
      "type": "function"
    },
    {
      "inputs": [
        {
          "internalType": "address",
          "name": "_brandId",
          "type": "address"
        }
      ],
      "name": "defineNextFTType",
      "outputs": [
        {
          "internalType": "uint256",
          "name": "",
          "type": "uint256"
        }
      ],
      "stateMutability": "nonpayable",
      "type": "function"
    },
    {
      "inputs": [],
      "name": "defineNextNFTType",
      "outputs": [
        {
          "internalType": "uint256",
          "name": "",
          "type": "uint256"
        }
      ],
      "stateMutability": "nonpayable",
      "type": "function"
    },
    {
      "inputs": [],
      "name": "deployer",
      "outputs": [
        {
          "internalType": "address",
          "name": "",
          "type": "address"
        }
      ],
      "stateMutability": "view",
      "type": "function"
    },
    {
      "inputs": [],
      "name": "economy",
      "outputs": [
        {
          "internalType": "address",
          "name": "",
          "type": "address"
        }
      ],
      "stateMutability": "view",
      "type": "function"
    },
    {
      "inputs": [
        {
          "internalType": "address",
          "name": "_to",
          "type": "address"
        },
        {
          "internalType": "address",
          "name": "_brandId",
          "type": "address"
        }
      ],
      "name": "mintBrandFor",
      "outputs": [],
      "stateMutability": "nonpayable",
      "type": "function"
    },
    {
      "inputs": [
        {
          "internalType": "address",
          "name": "_to",
          "type": "address"
        },
        {
          "internalType": "uint256",
          "name": "_tokenId",
          "type": "uint256"
        },
        {
          "internalType": "uint256",
          "name": "_amount",
          "type": "uint256"
        },
        {
          "internalType": "bytes",
          "name": "_data",
          "type": "bytes"
        }
      ],
      "name": "mintFTFor",
      "outputs": [],
      "stateMutability": "nonpayable",
      "type": "function"
    },
    {
      "inputs": [
        {
          "internalType": "address",
          "name": "_to",
          "type": "address"
        },
        {
          "internalType": "uint256",
          "name": "_tokenType",
          "type": "uint256"
        },
        {
          "internalType": "bytes",
          "name": "_data",
          "type": "bytes"
        }
      ],
      "name": "mintNFTFor",
      "outputs": [
        {
          "internalType": "uint256",
          "name": "",
          "type": "uint256"
        }
      ],
      "stateMutability": "nonpayable",
      "type": "function"
    },
    {
      "inputs": [
        {
          "internalType": "uint256",
          "name": "",
          "type": "uint256"
        }
      ],
      "name": "nftTypes",
      "outputs": [
        {
          "internalType": "uint256",
          "name": "",
          "type": "uint256"
        }
      ],
      "stateMutability": "view",
      "type": "function"
    },
    {
      "inputs": [
        {
          "internalType": "address",
          "name": "_brandId",
          "type": "address"
        },
        {
          "internalType": "address",
          "name": "_newOwner",
          "type": "address"
        }
      ],
      "name": "onBrandOwnerChanged",
      "outputs": [],
      "stateMutability": "nonpayable",
      "type": "function"
    },
    {
      "inputs": [
        {
          "internalType": "address",
          "name": "_from",
          "type": "address"
        },
        {
          "internalType": "uint256",
          "name": "_tokenId",
          "type": "uint256"
        },
        {
          "internalType": "uint256",
          "name": "_amount",
          "type": "uint256"
        }
      ],
      "name": "onTokenBurned",
      "outputs": [],
      "stateMutability": "nonpayable",
      "type": "function"
    },
    {
      "inputs": [
        {
          "internalType": "address",
          "name": "_from",
          "type": "address"
        },
        {
          "internalType": "uint256[]",
          "name": "_tokenIds",
          "type": "uint256[]"
        },
        {
          "internalType": "uint256[]",
          "name": "_amounts",
          "type": "uint256[]"
        }
      ],
      "name": "onTokensBurned",
      "outputs": [],
      "stateMutability": "nonpayable",
      "type": "function"
    },
    {
      "inputs": [
        {
          "internalType": "address",
          "name": "",
          "type": "address"
        }
      ],
      "name": "plugins",
      "outputs": [
        {
          "internalType": "bool",
          "name": "",
          "type": "bool"
        }
      ],
      "stateMutability": "view",
      "type": "function"
    },
    {
      "inputs": [
        {
          "internalType": "address",
          "name": "_contract",
          "type": "address"
        }
      ],
      "name": "setBrandRegistry",
      "outputs": [],
      "stateMutability": "nonpayable",
      "type": "function"
    },
    {
      "inputs": [
        {
          "internalType": "address",
          "name": "_contract",
          "type": "address"
        }
      ],
      "name": "setEconomy",
      "outputs": [],
      "stateMutability": "nonpayable",
      "type": "function"
    },
    {
      "inputs": [
        {
          "internalType": "bytes4",
          "name": "interfaceId",
          "type": "bytes4"
        }
      ],
      "name": "supportsInterface",
      "outputs": [
        {
          "internalType": "bool",
          "name": "",
          "type": "bool"
        }
      ],
      "stateMutability": "view",
      "type": "function"
    },
    {
      "inputs": [
        {
          "internalType": "uint256",
          "name": "",
          "type": "uint256"
        }
      ],
      "name": "tokenTypeResolvers",
      "outputs": [
        {
          "internalType": "address",
          "name": "",
          "type": "address"
        }
      ],
      "stateMutability": "view",
      "type": "function"
    },
    {
      "inputs": [
        {
          "internalType": "uint256",
          "name": "_tokenId",
          "type": "uint256"
        }
      ],
      "name": "tokenURI",
      "outputs": [
        {
          "internalType": "string",
          "name": "",
          "type": "string"
        }
      ],
      "stateMutability": "view",
      "type": "function"
    }
  ],
  "bytecode": "0x60806040526002600655740100000000000000000000000000000000000000006007553480156200002f57600080fd5b50620000406200008660201b60201c565b600860006101000a81548173ffffffffffffffffffffffffffffffffffffffff021916908373ffffffffffffffffffffffffffffffffffffffff1602179055506200008e565b600033905090565b613ab5806200009e6000396000f3fe608060405234801561001057600080fd5b50600436106101215760003560e01c80638820f6bd116100ad578063b842aa9211610071578063b842aa9214610304578063c87b56dd14610334578063d053bfa114610364578063d5f3948814610394578063d8867fc8146103b257610121565b80638820f6bd146102765780638cd6e9a914610294578063a16bc2ae146102b0578063acb8a060146102cc578063ad8509b0146102e857610121565b80632320a8b7116100f45780632320a8b7146101be5780634b12e643146101da578063556112d41461020a5780635b1798e41461022857806379b2ab231461024657610121565b806301ffc9a71461012657806304a6fdc01461015657806306716519146101865780631b5dc598146101a2575b600080fd5b610140600480360381019061013b91906122bf565b6103ce565b60405161014d9190612307565b60405180910390f35b610170600480360381019061016b91906124fc565b6104a0565b60405161017d919061257a565b60405180910390f35b6101a0600480360381019061019b9190612595565b6107fb565b005b6101bc60048036038101906101b791906125e8565b6108a2565b005b6101d860048036038101906101d391906126f0565b6109e5565b005b6101f460048036038101906101ef919061277b565b610ae6565b6040516102019190612307565b60405180910390f35b610212610b06565b60405161021f919061257a565b60405180910390f35b610230610d09565b60405161023d91906127b7565b60405180910390f35b610260600480360381019061025b91906127d2565b610d2f565b60405161026d919061257a565b60405180910390f35b61027e610d47565b60405161028b91906127b7565b60405180910390f35b6102ae60048036038101906102a991906125e8565b610d6d565b005b6102ca60048036038101906102c591906127ff565b610e97565b005b6102e660048036038101906102e1919061277b565b6110cc565b005b61030260048036038101906102fd919061277b565b611238565b005b61031e6004803603810190610319919061277b565b6113a4565b60405161032b919061257a565b60405180910390f35b61034e600480360381019061034991906127d2565b6116a2565b60405161035b919061290a565b60405180910390f35b61037e600480360381019061037991906127d2565b6117c5565b60405161038b91906127b7565b60405180910390f35b61039c6117f8565b6040516103a991906127b7565b60405180910390f35b6103cc60048036038101906103c7919061277b565b61181e565b005b60007f01ffc9a7000000000000000000000000000000000000000000000000000000007bffffffffffffffffffffffffffffffffffffffffffffffffffffffff1916827bffffffffffffffffffffffffffffffffffffffffffffffffffffffff1916148061049957507faa6ab870000000000000000000000000000000000000000000000000000000007bffffffffffffffffffffffffffffffffffffffffffffffffffffffff1916827bffffffffffffffffffffffffffffffffffffffffffffffffffffffff1916145b9050919050565b60008060006104ad6119fb565b73ffffffffffffffffffffffffffffffffffffffff1673ffffffffffffffffffffffffffffffffffffffff16815260200190815260200160002060009054906101000a900460ff16610534576040517f08c379a000000000000000000000000000000000000000000000000000000000815260040161052b9061299e565b60405180910390fd5b82600073ffffffffffffffffffffffffffffffffffffffff166003600083815260200190815260200160002060009054906101000a900473ffffffffffffffffffffffffffffffffffffffff1673ffffffffffffffffffffffffffffffffffffffff1614156105d8576040517f08c379a00000000000000000000000000000000000000000000000000000000081526004016105cf90612a30565b60405180910390fd5b837f8000000000000000000000000000000000000000000000000000000000000000811061063b576040517f08c379a000000000000000000000000000000000000000000000000000000000815260040161063290612ac2565b60405180910390fd5b600285101561067f576040517f08c379a000000000000000000000000000000000000000000000000000000000815260040161067690612b54565b60405180910390fd5b6000600754905060007f7fffffffffffffffffffffffffffffffffffffffffffffffffffffffffffffff90505b60011561072e578082106106f5576040517f08c379a00000000000000000000000000000000000000000000000000000000081526004016106ec90612bc0565b60405180910390fd5b60006004600084815260200190815260200160002054146107245760018261071d9190612c0f565b9150610729565b61072e565b6106ac565b60018261073b9190612c0f565b600781905550600260009054906101000a900473ffffffffffffffffffffffffffffffffffffffff1673ffffffffffffffffffffffffffffffffffffffff16635b0034fd898460018a6040518563ffffffff1660e01b81526004016107a39493929190612cff565b600060405180830381600087803b1580156107bd57600080fd5b505af11580156107d1573d6000803e3d6000fd5b50505050866004600084815260200190815260200160002081905550819450505050509392505050565b600260009054906101000a900473ffffffffffffffffffffffffffffffffffffffff1673ffffffffffffffffffffffffffffffffffffffff1661083c6119fb565b73ffffffffffffffffffffffffffffffffffffffff1614610892576040517f08c379a000000000000000000000000000000000000000000000000000000000815260040161088990612dbd565b60405180910390fd5b61089d838383611a03565b505050565b600160009054906101000a900473ffffffffffffffffffffffffffffffffffffffff1673ffffffffffffffffffffffffffffffffffffffff166108e36119fb565b73ffffffffffffffffffffffffffffffffffffffff1614610939576040517f08c379a000000000000000000000000000000000000000000000000000000000815260040161093090612e4f565b60405180910390fd5b600260009054906101000a900473ffffffffffffffffffffffffffffffffffffffff1673ffffffffffffffffffffffffffffffffffffffff16635b0034fd838373ffffffffffffffffffffffffffffffffffffffff1660016040518463ffffffff1660e01b81526004016109af93929190612ebb565b600060405180830381600087803b1580156109c957600080fd5b505af11580156109dd573d6000803e3d6000fd5b505050505050565b600260009054906101000a900473ffffffffffffffffffffffffffffffffffffffff1673ffffffffffffffffffffffffffffffffffffffff16610a266119fb565b73ffffffffffffffffffffffffffffffffffffffff1614610a7c576040517f08c379a0000000000000000000000000000000000000000000000000000000008152600401610a7390612dbd565b60405180910390fd5b60008251905060005b81811015610adf57610acc85858381518110610aa457610aa3612f05565b5b6020026020010151858481518110610abf57610abe612f05565b5b6020026020010151611a03565b8080610ad790612f34565b915050610a85565b5050505050565b60006020528060005260406000206000915054906101000a900460ff1681565b6000806000610b136119fb565b73ffffffffffffffffffffffffffffffffffffffff1673ffffffffffffffffffffffffffffffffffffffff16815260200190815260200160002060009054906101000a900460ff16610b9a576040517f08c379a0000000000000000000000000000000000000000000000000000000008152600401610b919061299e565b60405180910390fd5b6000600654905060007f7fffffffffffffffffffffffffffffffffffffffffffffffffffffffffffffff90505b600115610c9557808210610c10576040517f08c379a0000000000000000000000000000000000000000000000000000000008152600401610c0790612fef565b60405180910390fd5b600073ffffffffffffffffffffffffffffffffffffffff166003600084815260200190815260200160002060009054906101000a900473ffffffffffffffffffffffffffffffffffffffff1673ffffffffffffffffffffffffffffffffffffffff1614610c8b57600182610c849190612c0f565b9150610c90565b610c95565b610bc7565b600182610ca29190612c0f565b600681905550610cb06119fb565b6003600084815260200190815260200160002060006101000a81548173ffffffffffffffffffffffffffffffffffffffff021916908373ffffffffffffffffffffffffffffffffffffffff160217905550819250505090565b600160009054906101000a900473ffffffffffffffffffffffffffffffffffffffff1681565b60046020528060005260406000206000915090505481565b600260009054906101000a900473ffffffffffffffffffffffffffffffffffffffff1681565b600260009054906101000a900473ffffffffffffffffffffffffffffffffffffffff1673ffffffffffffffffffffffffffffffffffffffff16610dae6119fb565b73ffffffffffffffffffffffffffffffffffffffff1614610e04576040517f08c379a0000000000000000000000000000000000000000000000000000000008152600401610dfb90612dbd565b60405180910390fd5b600160009054906101000a900473ffffffffffffffffffffffffffffffffffffffff1673ffffffffffffffffffffffffffffffffffffffff16638cd6e9a983836040518363ffffffff1660e01b8152600401610e6192919061300f565b600060405180830381600087803b158015610e7b57600080fd5b505af1158015610e8f573d6000803e3d6000fd5b505050505050565b600080610ea26119fb565b73ffffffffffffffffffffffffffffffffffffffff1673ffffffffffffffffffffffffffffffffffffffff16815260200190815260200160002060009054906101000a900460ff16610f29576040517f08c379a0000000000000000000000000000000000000000000000000000000008152600401610f209061299e565b60405180910390fd5b82600073ffffffffffffffffffffffffffffffffffffffff166003600083815260200190815260200160002060009054906101000a900473ffffffffffffffffffffffffffffffffffffffff1673ffffffffffffffffffffffffffffffffffffffff161415610fcd576040517f08c379a0000000000000000000000000000000000000000000000000000000008152600401610fc490612a30565b60405180910390fd5b837f8000000000000000000000000000000000000000000000000000000000000000811015611031576040517f08c379a0000000000000000000000000000000000000000000000000000000008152600401611028906130d0565b60405180910390fd5b600260009054906101000a900473ffffffffffffffffffffffffffffffffffffffff1673ffffffffffffffffffffffffffffffffffffffff16635b0034fd878787876040518563ffffffff1660e01b815260040161109294939291906130f0565b600060405180830381600087803b1580156110ac57600080fd5b505af11580156110c0573d6000803e3d6000fd5b50505050505050505050565b6110dc6110d76119fb565b611bb4565b61111b576040517f08c379a0000000000000000000000000000000000000000000000000000000008152600401611112906131ae565b60405180910390fd5b61112481611c0e565b611163576040517f08c379a000000000000000000000000000000000000000000000000000000000815260040161115a90613266565b60405180910390fd5b600073ffffffffffffffffffffffffffffffffffffffff16600160009054906101000a900473ffffffffffffffffffffffffffffffffffffffff1673ffffffffffffffffffffffffffffffffffffffff16146111f4576040517f08c379a00000000000000000000000000000000000000000000000000000000081526004016111eb906132f8565b60405180910390fd5b80600160006101000a81548173ffffffffffffffffffffffffffffffffffffffff021916908373ffffffffffffffffffffffffffffffffffffffff16021790555050565b6112486112436119fb565b611d05565b611287576040517f08c379a000000000000000000000000000000000000000000000000000000000815260040161127e9061338a565b60405180910390fd5b61129081611d5f565b6112cf576040517f08c379a00000000000000000000000000000000000000000000000000000000081526004016112c690613442565b60405180910390fd5b600073ffffffffffffffffffffffffffffffffffffffff16600260009054906101000a900473ffffffffffffffffffffffffffffffffffffffff1673ffffffffffffffffffffffffffffffffffffffff1614611360576040517f08c379a0000000000000000000000000000000000000000000000000000000008152600401611357906134d4565b60405180910390fd5b80600260006101000a81548173ffffffffffffffffffffffffffffffffffffffff021916908373ffffffffffffffffffffffffffffffffffffffff16021790555050565b60008060006113b16119fb565b73ffffffffffffffffffffffffffffffffffffffff1673ffffffffffffffffffffffffffffffffffffffff16815260200190815260200160002060009054906101000a900460ff16611438576040517f08c379a000000000000000000000000000000000000000000000000000000000815260040161142f9061299e565b60405180910390fd5b6000600560008473ffffffffffffffffffffffffffffffffffffffff1673ffffffffffffffffffffffffffffffffffffffff16815260200190815260200160002060009054906101000a900467ffffffffffffffff16905060008167ffffffffffffffff1660408573ffffffffffffffffffffffffffffffffffffffff16901b7f8000000000000000000000000000000000000000000000000000000000000000171790505b6001156115cd5767ffffffffffffffff8267ffffffffffffffff1610611539576040517f08c379a000000000000000000000000000000000000000000000000000000000815260040161153090613566565b60405180910390fd5b600073ffffffffffffffffffffffffffffffffffffffff166003600083815260200190815260200160002060009054906101000a900473ffffffffffffffffffffffffffffffffffffffff1673ffffffffffffffffffffffffffffffffffffffff16146115c3576001826115ad919061359a565b91506001816115bc9190612c0f565b90506115c8565b6115cd565b6114de565b6001826115da919061359a565b600560008673ffffffffffffffffffffffffffffffffffffffff1673ffffffffffffffffffffffffffffffffffffffff16815260200190815260200160002060006101000a81548167ffffffffffffffff021916908367ffffffffffffffff1602179055506116476119fb565b6003600083815260200190815260200160002060006101000a81548173ffffffffffffffffffffffffffffffffffffffff021916908373ffffffffffffffffffffffffffffffffffffffff1602179055508092505050919050565b60607401000000000000000000000000000000000000000082101561176957600160009054906101000a900473ffffffffffffffffffffffffffffffffffffffff1673ffffffffffffffffffffffffffffffffffffffff16639896c31d836040518263ffffffff1660e01b815260040161171c91906127b7565b600060405180830381865afa158015611739573d6000803e3d6000fd5b505050506040513d6000823e3d601f19601f820116820180604052508101906117629190613679565b90506117c0565b7f80000000000000000000000000000000000000000000000000000000000000008210156117b4576117ad6004600084815260200190815260200160002054611e56565b90506117c0565b6117bd82611e56565b90505b919050565b60036020528060005260406000206000915054906101000a900473ffffffffffffffffffffffffffffffffffffffff1681565b600860009054906101000a900473ffffffffffffffffffffffffffffffffffffffff1681565b61182e6118296119fb565b611f65565b61186d576040517f08c379a000000000000000000000000000000000000000000000000000000000815260040161186490613734565b60405180910390fd5b61187681611fbf565b6118b5576040517f08c379a00000000000000000000000000000000000000000000000000000000081526004016118ac906137ec565b60405180910390fd5b6000808273ffffffffffffffffffffffffffffffffffffffff1673ffffffffffffffffffffffffffffffffffffffff16815260200190815260200160002060009054906101000a900460ff1615611941576040517f08c379a00000000000000000000000000000000000000000000000000000000081526004016119389061387e565b60405180910390fd5b60016000808373ffffffffffffffffffffffffffffffffffffffff1673ffffffffffffffffffffffffffffffffffffffff16815260200190815260200160002060006101000a81548160ff0219169083151502179055508073ffffffffffffffffffffffffffffffffffffffff16638129fc1c6040518163ffffffff1660e01b8152600401600060405180830381600087803b1580156119e057600080fd5b505af11580156119f4573d6000803e3d6000fd5b5050505050565b600033905090565b74010000000000000000000000000000000000000000821015611a5b576040517f08c379a0000000000000000000000000000000000000000000000000000000008152600401611a5290613910565b60405180910390fd5b60007f8000000000000000000000000000000000000000000000000000000000000000831015611ad357600360006004600086815260200190815260200160002054815260200190815260200160002060009054906101000a900473ffffffffffffffffffffffffffffffffffffffff169050611b0a565b6003600084815260200190815260200160002060009054906101000a900473ffffffffffffffffffffffffffffffffffffffff1690505b600073ffffffffffffffffffffffffffffffffffffffff168173ffffffffffffffffffffffffffffffffffffffff1614611bae578073ffffffffffffffffffffffffffffffffffffffff1663c5f980af8585856040518463ffffffff1660e01b8152600401611b7b93929190613930565b600060405180830381600087803b158015611b9557600080fd5b505af1158015611ba9573d6000803e3d6000fd5b505050505b50505050565b6000600860009054906101000a900473ffffffffffffffffffffffffffffffffffffffff1673ffffffffffffffffffffffffffffffffffffffff168273ffffffffffffffffffffffffffffffffffffffff16149050919050565b6000611c597f9b151866000000000000000000000000000000000000000000000000000000008373ffffffffffffffffffffffffffffffffffffffff166120b690919063ffffffff16565b8015611cfe57503073ffffffffffffffffffffffffffffffffffffffff168273ffffffffffffffffffffffffffffffffffffffff1663f200670d6040518163ffffffff1660e01b8152600401602060405180830381865afa158015611cc2573d6000803e3d6000fd5b505050506040513d601f19601f82011682018060405250810190611ce6919061397c565b73ffffffffffffffffffffffffffffffffffffffff16145b9050919050565b6000600860009054906101000a900473ffffffffffffffffffffffffffffffffffffffff1673ffffffffffffffffffffffffffffffffffffffff168273ffffffffffffffffffffffffffffffffffffffff16149050919050565b6000611daa7fa90053f0000000000000000000000000000000000000000000000000000000008373ffffffffffffffffffffffffffffffffffffffff166120b690919063ffffffff16565b8015611e4f57503073ffffffffffffffffffffffffffffffffffffffff168273ffffffffffffffffffffffffffffffffffffffff1663f200670d6040518163ffffffff1660e01b8152600401602060405180830381865afa158015611e13573d6000803e3d6000fd5b505050506040513d601f19601f82011682018060405250810190611e37919061397c565b73ffffffffffffffffffffffffffffffffffffffff16145b9050919050565b606060006003600084815260200190815260200160002060009054906101000a900473ffffffffffffffffffffffffffffffffffffffff169050600073ffffffffffffffffffffffffffffffffffffffff168173ffffffffffffffffffffffffffffffffffffffff161415611edd5760405180602001604052806000815250915050611f60565b8073ffffffffffffffffffffffffffffffffffffffff16630e89341c846040518263ffffffff1660e01b8152600401611f16919061257a565b600060405180830381865afa158015611f33573d6000803e3d6000fd5b505050506040513d6000823e3d601f19601f82011682018060405250810190611f5c9190613679565b9150505b919050565b6000600860009054906101000a900473ffffffffffffffffffffffffffffffffffffffff1673ffffffffffffffffffffffffffffffffffffffff168273ffffffffffffffffffffffffffffffffffffffff16149050919050565b600061200a7ff220faae000000000000000000000000000000000000000000000000000000008373ffffffffffffffffffffffffffffffffffffffff166120b690919063ffffffff16565b80156120af57503073ffffffffffffffffffffffffffffffffffffffff168273ffffffffffffffffffffffffffffffffffffffff1663f200670d6040518163ffffffff1660e01b8152600401602060405180830381865afa158015612073573d6000803e3d6000fd5b505050506040513d601f19601f82011682018060405250810190612097919061397c565b73ffffffffffffffffffffffffffffffffffffffff16145b9050919050565b60006120c1836120db565b80156120d357506120d28383612128565b5b905092915050565b6000612107827f01ffc9a700000000000000000000000000000000000000000000000000000000612128565b8015612121575061211f8263ffffffff60e01b612128565b155b9050919050565b6000806301ffc9a760e01b8360405160240161214491906139b8565b604051602081830303815290604052907bffffffffffffffffffffffffffffffffffffffffffffffffffffffff19166020820180517bffffffffffffffffffffffffffffffffffffffffffffffffffffffff838183161783525050505090506000808573ffffffffffffffffffffffffffffffffffffffff16617530846040516121ce9190613a0f565b6000604051808303818686fa925050503d806000811461220a576040519150601f19603f3d011682016040523d82523d6000602084013e61220f565b606091505b509150915060208151101561222a576000935050505061224d565b8180156122475750808060200190518101906122469190613a52565b5b93505050505b92915050565b6000604051905090565b600080fd5b600080fd5b60007fffffffff0000000000000000000000000000000000000000000000000000000082169050919050565b61229c81612267565b81146122a757600080fd5b50565b6000813590506122b981612293565b92915050565b6000602082840312156122d5576122d461225d565b5b60006122e3848285016122aa565b91505092915050565b60008115159050919050565b612301816122ec565b82525050565b600060208201905061231c60008301846122f8565b92915050565b600073ffffffffffffffffffffffffffffffffffffffff82169050919050565b600061234d82612322565b9050919050565b61235d81612342565b811461236857600080fd5b50565b60008135905061237a81612354565b92915050565b6000819050919050565b61239381612380565b811461239e57600080fd5b50565b6000813590506123b08161238a565b92915050565b600080fd5b600080fd5b6000601f19601f8301169050919050565b7f4e487b7100000000000000000000000000000000000000000000000000000000600052604160045260246000fd5b612409826123c0565b810181811067ffffffffffffffff82111715612428576124276123d1565b5b80604052505050565b600061243b612253565b90506124478282612400565b919050565b600067ffffffffffffffff821115612467576124666123d1565b5b612470826123c0565b9050602081019050919050565b82818337600083830152505050565b600061249f61249a8461244c565b612431565b9050828152602081018484840111156124bb576124ba6123bb565b5b6124c684828561247d565b509392505050565b600082601f8301126124e3576124e26123b6565b5b81356124f384826020860161248c565b91505092915050565b6000806000606084860312156125155761251461225d565b5b60006125238682870161236b565b9350506020612534868287016123a1565b925050604084013567ffffffffffffffff81111561255557612554612262565b5b612561868287016124ce565b9150509250925092565b61257481612380565b82525050565b600060208201905061258f600083018461256b565b92915050565b6000806000606084860312156125ae576125ad61225d565b5b60006125bc8682870161236b565b93505060206125cd868287016123a1565b92505060406125de868287016123a1565b9150509250925092565b600080604083850312156125ff576125fe61225d565b5b600061260d8582860161236b565b925050602061261e8582860161236b565b9150509250929050565b600067ffffffffffffffff821115612643576126426123d1565b5b602082029050602081019050919050565b600080fd5b600061266c61266784612628565b612431565b9050808382526020820190506020840283018581111561268f5761268e612654565b5b835b818110156126b857806126a488826123a1565b845260208401935050602081019050612691565b5050509392505050565b600082601f8301126126d7576126d66123b6565b5b81356126e7848260208601612659565b91505092915050565b6000806000606084860312156127095761270861225d565b5b60006127178682870161236b565b935050602084013567ffffffffffffffff81111561273857612737612262565b5b612744868287016126c2565b925050604084013567ffffffffffffffff81111561276557612764612262565b5b612771868287016126c2565b9150509250925092565b6000602082840312156127915761279061225d565b5b600061279f8482850161236b565b91505092915050565b6127b181612342565b82525050565b60006020820190506127cc60008301846127a8565b92915050565b6000602082840312156127e8576127e761225d565b5b60006127f6848285016123a1565b91505092915050565b600080600080608085870312156128195761281861225d565b5b60006128278782880161236b565b9450506020612838878288016123a1565b9350506040612849878288016123a1565b925050606085013567ffffffffffffffff81111561286a57612869612262565b5b612876878288016124ce565b91505092959194509250565b600081519050919050565b600082825260208201905092915050565b60005b838110156128bc5780820151818401526020810190506128a1565b838111156128cb576000848401525b50505050565b60006128dc82612882565b6128e6818561288d565b93506128f681856020860161289e565b6128ff816123c0565b840191505092915050565b6000602082019050818103600083015261292481846128d1565b905092915050565b7f4d65746176657273653a207468652073656e646572206d75737420626520612060008201527f706c75672d696e00000000000000000000000000000000000000000000000000602082015250565b600061298860278361288d565b91506129938261292c565b604082019050919050565b600060208201905081810360008301526129b78161297b565b9050919050565b7f4d65746176657273653a20756e6b6e6f776e202f206e6f6e2d6d696e7461626c60008201527f6520746f6b656e20747970652069640000000000000000000000000000000000602082015250565b6000612a1a602f8361288d565b9150612a25826129be565b604082019050919050565b60006020820190508181036000830152612a4981612a0d565b9050919050565b7f4d65746176657273653a20746865207370656369666965642076616c7565206960008201527f73206e6f7420696e20746865206e66742072616e676500000000000000000000602082015250565b6000612aac60368361288d565b9150612ab782612a50565b604082019050919050565b60006020820190508181036000830152612adb81612a9f565b9050919050565b7f4d65746176657273653a204e465420747970657320302028696e76616c69642960008201527f20616e64203120286272616e64292063616e6e6f74206265206d696e74656400602082015250565b6000612b3e603f8361288d565b9150612b4982612ae2565b604082019050919050565b60006020820190508181036000830152612b6d81612b31565b9050919050565b7f4d65746176657273653a2063616e6e6f74206d696e74206d6f7265204e465473600082015250565b6000612baa60208361288d565b9150612bb582612b74565b602082019050919050565b60006020820190508181036000830152612bd981612b9d565b9050919050565b7f4e487b7100000000000000000000000000000000000000000000000000000000600052601160045260246000fd5b6000612c1a82612380565b9150612c2583612380565b9250827fffffffffffffffffffffffffffffffffffffffffffffffffffffffffffffffff03821115612c5a57612c59612be0565b5b828201905092915050565b6000819050919050565b6000819050919050565b6000612c94612c8f612c8a84612c65565b612c6f565b612380565b9050919050565b612ca481612c79565b82525050565b600081519050919050565b600082825260208201905092915050565b6000612cd182612caa565b612cdb8185612cb5565b9350612ceb81856020860161289e565b612cf4816123c0565b840191505092915050565b6000608082019050612d1460008301876127a8565b612d21602083018661256b565b612d2e6040830185612c9b565b8181036060830152612d408184612cc6565b905095945050505050565b7f4d65746176657273653a20746865206f6e6c7920616c6c6f7765642073656e6460008201527f6572206973207468652065636f6e6f6d792073797374656d0000000000000000602082015250565b6000612da760388361288d565b9150612db282612d4b565b604082019050919050565b60006020820190508181036000830152612dd681612d9a565b9050919050565b7f4d65746176657273653a20746865206f6e6c7920616c6c6f7765642073656e6460008201527f657220697320746865206272616e642072656769737472790000000000000000602082015250565b6000612e3960388361288d565b9150612e4482612ddd565b604082019050919050565b60006020820190508181036000830152612e6881612e2c565b9050919050565b7f4d65746176657273653a204d696e74696e672061206272616e64000000000000600082015250565b6000612ea5601a83612cb5565b9150612eb082612e6f565b602082019050919050565b6000608082019050612ed060008301866127a8565b612edd602083018561256b565b612eea6040830184612c9b565b8181036060830152612efb81612e98565b9050949350505050565b7f4e487b7100000000000000000000000000000000000000000000000000000000600052603260045260246000fd5b6000612f3f82612380565b91507fffffffffffffffffffffffffffffffffffffffffffffffffffffffffffffffff821415612f7257612f71612be0565b5b600182019050919050565b7f4d65746176657273653a2063616e6e6f7420646566696e65206d6f7265204e4660008201527f5420747970657300000000000000000000000000000000000000000000000000602082015250565b6000612fd960278361288d565b9150612fe482612f7d565b604082019050919050565b6000602082019050818103600083015261300881612fcc565b9050919050565b600060408201905061302460008301856127a8565b61303160208301846127a8565b9392505050565b7f4d65746176657273653a20746865207370656369666965642076616c7565206960008201527f73206e6f7420696e207468652066756e6769626c6520746f6b656e732072616e60208201527f6765000000000000000000000000000000000000000000000000000000000000604082015250565b60006130ba60428361288d565b91506130c582613038565b606082019050919050565b600060208201905081810360008301526130e9816130ad565b9050919050565b600060808201905061310560008301876127a8565b613112602083018661256b565b61311f604083018561256b565b81810360608301526131318184612cc6565b905095945050505050565b7f4d65746176657273653a207468652073656e646572206973206e6f7420616c6c60008201527f6f77656420746f207365742074686520706c75672d696e000000000000000000602082015250565b600061319860378361288d565b91506131a38261313c565b604082019050919050565b600060208201905081810360008301526131c78161318b565b9050919050565b7f4d65746176657273653a20746865206164647265737320646f6573206e6f742060008201527f62656c6f6e6720746f20612076616c6964206272616e6420726567697374727960208201527f20636f6e747261637420666f722074686973206d657461766572736500000000604082015250565b6000613250605c8361288d565b915061325b826131ce565b606082019050919050565b6000602082019050818103600083015261327f81613243565b9050919050565b7f4d65746176657273653a2061206272616e64207265676973747279206973206160008201527f6c72656164792073657420696e746f2074686973206d65746176657273650000602082015250565b60006132e2603e8361288d565b91506132ed82613286565b604082019050919050565b60006020820190508181036000830152613311816132d5565b9050919050565b7f4d65746176657273653a207468652073656e646572206973206e6f7420616c6c60008201527f6f77656420746f20736574207468652065636f6e6f6d79000000000000000000602082015250565b600061337460378361288d565b915061337f82613318565b604082019050919050565b600060208201905081810360008301526133a381613367565b9050919050565b7f4d65746176657273653a20746865206164647265737320646f6573206e6f742060008201527f62656c6f6e6720746f20612076616c69642065636f6e6f6d7920636f6e74726160208201527f637420666f722074686973206d65746176657273650000000000000000000000604082015250565b600061342c60558361288d565b9150613437826133aa565b606082019050919050565b6000602082019050818103600083015261345b8161341f565b9050919050565b7f4d65746176657273653a20616e2065636f6e6f6d7920697320616c726561647960008201527f2073657420696e746f2074686973206d65746176657273650000000000000000602082015250565b60006134be60388361288d565b91506134c982613462565b604082019050919050565b600060208201905081810360008301526134ed816134b1565b9050919050565b7f4d65746176657273653a2063616e6e6f7420646566696e65206d6f726520465460008201527f20747970657320666f7220746869732061646472657373000000000000000000602082015250565b600061355060378361288d565b915061355b826134f4565b604082019050919050565b6000602082019050818103600083015261357f81613543565b9050919050565b600067ffffffffffffffff82169050919050565b60006135a582613586565b91506135b083613586565b92508267ffffffffffffffff038211156135cd576135cc612be0565b5b828201905092915050565b600067ffffffffffffffff8211156135f3576135f26123d1565b5b6135fc826123c0565b9050602081019050919050565b600061361c613617846135d8565b612431565b905082815260208101848484011115613638576136376123bb565b5b61364384828561289e565b509392505050565b600082601f8301126136605761365f6123b6565b5b8151613670848260208601613609565b91505092915050565b60006020828403121561368f5761368e61225d565b5b600082015167ffffffffffffffff8111156136ad576136ac612262565b5b6136b98482850161364b565b91505092915050565b7f4d65746176657273653a207468652073656e646572206973206e6f7420616c6c60008201527f6f77656420746f20616464206120706c75672d696e0000000000000000000000602082015250565b600061371e60358361288d565b9150613729826136c2565b604082019050919050565b6000602082019050818103600083015261374d81613711565b9050919050565b7f4d65746176657273653a20746865206164647265737320646f6573206e6f742060008201527f62656c6f6e6720746f20612076616c696420706c75672d696e20636f6e74726160208201527f637420666f722074686973206d65746176657273650000000000000000000000604082015250565b60006137d660558361288d565b91506137e182613754565b606082019050919050565b60006020820190508181036000830152613805816137c9565b9050919050565b7f4d65746176657273653a2074686520706c75672d696e20697320616c7265616460008201527f7920616464656420746f2074686973206d657461766572736500000000000000602082015250565b600061386860398361288d565b91506138738261380c565b604082019050919050565b600060208201905081810360008301526138978161385b565b9050919050565b7f4d65746176657273653a206272616e64732063616e6e6f74206265206275726e60008201527f6564000000000000000000000000000000000000000000000000000000000000602082015250565b60006138fa60228361288d565b91506139058261389e565b604082019050919050565b60006020820190508181036000830152613929816138ed565b9050919050565b600060608201905061394560008301866127a8565b613952602083018561256b565b61395f604083018461256b565b949350505050565b60008151905061397681612354565b92915050565b6000602082840312156139925761399161225d565b5b60006139a084828501613967565b91505092915050565b6139b281612267565b82525050565b60006020820190506139cd60008301846139a9565b92915050565b600081905092915050565b60006139e982612caa565b6139f381856139d3565b9350613a0381856020860161289e565b80840191505092915050565b6000613a1b82846139de565b915081905092915050565b613a2f816122ec565b8114613a3a57600080fd5b50565b600081519050613a4c81613a26565b92915050565b600060208284031215613a6857613a6761225d565b5b6000613a7684828501613a3d565b9150509291505056fea2646970667358221220287add1bf48e8a001b90a135f11159bc8575d4852438743f17db3b19a92dc3d964736f6c634300080a0033",
  "immutableReferences": {},
  "source": "// SPDX-License-Identifier: MIT\npragma solidity >=0.8 <0.9.0;\n\nimport \"../Metaverse.sol\";\n\ncontract SampleMetaverse is Metaverse {\n    /**\n     * The deployer of this metaverse.\n     */\n    address public deployer;\n\n    constructor() {\n        deployer = _msgSender();\n    }\n\n    /**\n     * Adding the plug-ins is only allowed to the deployer.\n     */\n    function _canAddPlugin(address _sender) internal view override returns (bool) {\n        return _sender == deployer;\n    }\n\n    /**\n     * Setting the brand registry is only allowed to the deployer.\n     */\n    function _canSetBrandRegistry(address _sender) internal view override returns (bool) {\n        return _sender == deployer;\n    }\n\n    /**\n     * Setting the economy system is only allowed to the deployer.\n     */\n    function _canSetEconomy(address _sender) internal view override returns (bool) {\n        return _sender == deployer;\n    }\n}\n",
  "sourcePath": "/home/luismasuelli/Projects/OuterMaze/lingr-contracts/contracts/lingr/samples/SampleMetaverse.sol",
  "compiler": {
    "name": "solc",
    "version": "0.8.10+commit.fc410830.Emscripten.clang"
  },
  "schemaVersion": "3.4.3",
  "updatedAt": "2022-08-10T04:27:51.768Z",
  "devdoc": {
    "kind": "dev",
    "methods": {},
    "version": 1
  },
  "userdoc": {
    "kind": "user",
    "methods": {
      "addPlugin(address)": {
        "notice": "Adds a plug-in contract to this metaverse."
      },
      "brandRegistry()": {
        "notice": "The linked brand registry for this metaverse."
      },
      "defineNextFTType(address)": {
        "notice": "Defines the resolution of a fungible token type. The token id must be in the range of the fungible token ids."
      },
      "defineNextNFTType()": {
        "notice": "Defines the resolution of a non-fungible token type. The token id must be in the range of the fungible token (type) ids (strictly > 0, strictly < (1 << 255))."
      },
      "deployer()": {
        "notice": "The deployer of this metaverse."
      },
      "economy()": {
        "notice": "The linked economy for this metaverse."
      },
      "mintBrandFor(address,address)": {
        "notice": "Mints a specific brand token for a given user. The brand is stated as its address."
      },
      "mintFTFor(address,uint256,uint256,bytes)": {
        "notice": "Mints a specific fungible token type, in a certain amount."
      },
      "mintNFTFor(address,uint256,bytes)": {
        "notice": "Mints a specific non-fungible token type, using a specific type (and always using an amount of 1). It is an error if the chosen type is unknown or < 2, since those types are reserved for being invalid or brands."
      },
      "nftTypes(uint256)": {
        "notice": "Now, each NFT id will be registered here along its token type. The difference with the fungible tokens (they're already registered in the `tokenTypes` mapping) is that they need to be registered with a particular token type. Also, both the NFT id and its associated token type will be lower than (1<<255) since, otherwise, they would be using values corresponding to the FT side (both for IDs and type indices). Brand NFTs are not included in this mapping (they are only characterized by being < (1 << 160))."
      },
      "onBrandOwnerChanged(address,address)": {
        "notice": "Hook to be invoked as part of a transfer from ERC1155."
      },
      "onTokenBurned(address,uint256,uint256)": {
        "notice": "Hook to be invoked as part of a burn process when an address burns a particular token in some quantity (for NFTs, the quantity is 1 in every case). By this point, we should be guaranteed that the _tokenId will actually have a resolver (being it a fungible token type, or being it a non-fungible token id)."
      },
      "onTokensBurned(address,uint256[],uint256[])": {
        "notice": "Hook to be invoked as part of a batch burn process when an address burns a particulars et of tokens in respective quantities (for NFTs, the quantity is 1 in every case; it is guaranteed that both arrays are always of the same length."
      },
      "plugins(address)": {
        "notice": "This is the list of plug-ins that are being added to the hub. Each contract has its separate logic but they have access to the same set of features. Once a contract is added, it will never be removed from this list. This mapping tells whether a contract in particular has permission(s) to define a type and mint tokens for an address."
      },
      "setBrandRegistry(address)": {
        "notice": "Adds a plug-in contract to this metaverse."
      },
      "setEconomy(address)": {
        "notice": "Set the economy contract to this metaverse."
      },
      "supportsInterface(bytes4)": {
        "notice": "A metaverse satisfies the IMetaverse and IERC165 interfaces."
      },
      "tokenTypeResolvers(uint256)": {
        "notice": "Types are identified as integer values, and each registered type will have a non-zero responsible address (serving to metadata resolution and also to account for the existence of a given type). The type 1 (0x1) will be the first type, and actually it will be the brand type. Other NFT types will be registered using indices lower to (1<<255), while FT types will be registered using indices greater than or equal to that value (i.e. starting with binary {1}). In the case of the FTs, the index in this mapping is also their token id. This is not the same for NFTs (they have one extra level of indirection since multiple ids might share the same type). A special type id will be regarded as invalid type (i.e. it will not count as NFT nor FT type, but as a non-existent type): 0 (0x0). The responsible serves two purposes: The first one, is to resolve the metadata of a given token id (be it FT or NFT). The second one is to account for one of such tokens being burned. The responsible will actually be one of the registered plug-ins, on each case (save for the brands case, which is resolved by this contract, and the invalid case, which has no resolver)."
      },
      "tokenURI(uint256)": {
        "notice": "Retrieves the metadata uri of a given token. WARNING: This method will consume a lot of gas if invoked inside a transaction, so it is recommended to invoke this method in the context of a CALL, and never in the context of a SEND (even as part of other contract's code)."
      }
    },
    "version": 1
  }
}