{
  "contractName": "SampleMetaverseCore",
  "abi": [
    {
      "inputs": [],
      "stateMutability": "nonpayable",
      "type": "constructor"
    },
    {
      "anonymous": false,
      "inputs": [
        {
          "indexed": true,
          "internalType": "address",
          "name": "account",
          "type": "address"
        },
        {
          "indexed": true,
          "internalType": "address",
          "name": "operator",
          "type": "address"
        },
        {
          "indexed": false,
          "internalType": "bool",
          "name": "approved",
          "type": "bool"
        }
      ],
      "name": "ApprovalForAll",
      "type": "event"
    },
    {
      "anonymous": false,
      "inputs": [
        {
          "indexed": true,
          "internalType": "address",
          "name": "withdrawnBy",
          "type": "address"
        },
        {
          "indexed": false,
          "internalType": "uint256",
          "name": "amount",
          "type": "uint256"
        }
      ],
      "name": "BrandEarningsWithdrawn",
      "type": "event"
    },
    {
      "anonymous": false,
      "inputs": [
        {
          "indexed": true,
          "internalType": "address",
          "name": "registeredBy",
          "type": "address"
        },
        {
          "indexed": true,
          "internalType": "address",
          "name": "brandId",
          "type": "address"
        },
        {
          "indexed": false,
          "internalType": "string",
          "name": "name",
          "type": "string"
        },
        {
          "indexed": false,
          "internalType": "string",
          "name": "description",
          "type": "string"
        },
        {
          "indexed": false,
          "internalType": "uint256",
          "name": "price",
          "type": "uint256"
        }
      ],
      "name": "BrandRegistered",
      "type": "event"
    },
    {
      "anonymous": false,
      "inputs": [
        {
          "indexed": false,
          "internalType": "uint256",
          "name": "newCost",
          "type": "uint256"
        }
      ],
      "name": "BrandRegistrationCostUpdated",
      "type": "event"
    },
    {
      "anonymous": false,
      "inputs": [
        {
          "indexed": true,
          "internalType": "address",
          "name": "updatedBy",
          "type": "address"
        },
        {
          "indexed": true,
          "internalType": "address",
          "name": "brand",
          "type": "address"
        },
        {
          "indexed": false,
          "internalType": "bool",
          "name": "committed",
          "type": "bool"
        }
      ],
      "name": "BrandSocialCommitmentUpdated",
      "type": "event"
    },
    {
      "anonymous": false,
      "inputs": [
        {
          "indexed": true,
          "internalType": "address",
          "name": "updatedBy",
          "type": "address"
        },
        {
          "indexed": true,
          "internalType": "address",
          "name": "brandId",
          "type": "address"
        }
      ],
      "name": "BrandUpdated",
      "type": "event"
    },
    {
      "anonymous": false,
      "inputs": [
        {
          "indexed": true,
          "internalType": "address",
          "name": "operator",
          "type": "address"
        },
        {
          "indexed": true,
          "internalType": "address",
          "name": "from",
          "type": "address"
        },
        {
          "indexed": true,
          "internalType": "address",
          "name": "to",
          "type": "address"
        },
        {
          "indexed": false,
          "internalType": "uint256[]",
          "name": "ids",
          "type": "uint256[]"
        },
        {
          "indexed": false,
          "internalType": "uint256[]",
          "name": "values",
          "type": "uint256[]"
        }
      ],
      "name": "TransferBatch",
      "type": "event"
    },
    {
      "anonymous": false,
      "inputs": [
        {
          "indexed": true,
          "internalType": "address",
          "name": "operator",
          "type": "address"
        },
        {
          "indexed": true,
          "internalType": "address",
          "name": "from",
          "type": "address"
        },
        {
          "indexed": true,
          "internalType": "address",
          "name": "to",
          "type": "address"
        },
        {
          "indexed": false,
          "internalType": "uint256",
          "name": "id",
          "type": "uint256"
        },
        {
          "indexed": false,
          "internalType": "uint256",
          "name": "value",
          "type": "uint256"
        }
      ],
      "name": "TransferSingle",
      "type": "event"
    },
    {
      "anonymous": false,
      "inputs": [
        {
          "indexed": false,
          "internalType": "string",
          "name": "value",
          "type": "string"
        },
        {
          "indexed": true,
          "internalType": "uint256",
          "name": "id",
          "type": "uint256"
        }
      ],
      "name": "URI",
      "type": "event"
    },
    {
      "inputs": [
        {
          "internalType": "address",
          "name": "_contract",
          "type": "address"
        }
      ],
      "name": "addPlugin",
      "outputs": [],
      "stateMutability": "nonpayable",
      "type": "function"
    },
    {
      "inputs": [
        {
          "internalType": "address",
          "name": "account",
          "type": "address"
        },
        {
          "internalType": "uint256",
          "name": "id",
          "type": "uint256"
        }
      ],
      "name": "balanceOf",
      "outputs": [
        {
          "internalType": "uint256",
          "name": "",
          "type": "uint256"
        }
      ],
      "stateMutability": "view",
      "type": "function"
    },
    {
      "inputs": [
        {
          "internalType": "address[]",
          "name": "accounts",
          "type": "address[]"
        },
        {
          "internalType": "uint256[]",
          "name": "ids",
          "type": "uint256[]"
        }
      ],
      "name": "balanceOfBatch",
      "outputs": [
        {
          "internalType": "uint256[]",
          "name": "",
          "type": "uint256[]"
        }
      ],
      "stateMutability": "view",
      "type": "function"
    },
    {
      "inputs": [
        {
          "internalType": "address",
          "name": "_brandId",
          "type": "address"
        }
      ],
      "name": "brandExists",
      "outputs": [
        {
          "internalType": "bool",
          "name": "",
          "type": "bool"
        }
      ],
      "stateMutability": "view",
      "type": "function"
    },
    {
      "inputs": [
        {
          "internalType": "address",
          "name": "_brandId",
          "type": "address"
        }
      ],
      "name": "brandMetadataURI",
      "outputs": [
        {
          "internalType": "string",
          "name": "",
          "type": "string"
        }
      ],
      "stateMutability": "view",
      "type": "function"
    },
    {
      "inputs": [],
      "name": "brandRegistrationCost",
      "outputs": [
        {
          "internalType": "uint256",
          "name": "",
          "type": "uint256"
        }
      ],
      "stateMutability": "view",
      "type": "function"
    },
    {
      "inputs": [],
      "name": "brandRegistrationCurrentEarnings",
      "outputs": [
        {
          "internalType": "uint256",
          "name": "",
          "type": "uint256"
        }
      ],
      "stateMutability": "view",
      "type": "function"
    },
    {
      "inputs": [
        {
          "internalType": "uint256",
          "name": "_tokenId",
          "type": "uint256"
        }
      ],
      "name": "defineFTType",
      "outputs": [],
      "stateMutability": "nonpayable",
      "type": "function"
    },
    {
      "inputs": [
        {
          "internalType": "uint256",
          "name": "_tokenId",
          "type": "uint256"
        }
      ],
      "name": "defineNFTType",
      "outputs": [],
      "stateMutability": "nonpayable",
      "type": "function"
    },
    {
      "inputs": [
        {
          "internalType": "address",
          "name": "account",
          "type": "address"
        },
        {
          "internalType": "address",
          "name": "operator",
          "type": "address"
        }
      ],
      "name": "isApprovedForAll",
      "outputs": [
        {
          "internalType": "bool",
          "name": "",
          "type": "bool"
        }
      ],
      "stateMutability": "view",
      "type": "function"
    },
    {
      "inputs": [
        {
          "internalType": "address",
          "name": "_to",
          "type": "address"
        },
        {
          "internalType": "uint256",
          "name": "_tokenId",
          "type": "uint256"
        },
        {
          "internalType": "uint256",
          "name": "_amount",
          "type": "uint256"
        },
        {
          "internalType": "bytes",
          "name": "_data",
          "type": "bytes"
        }
      ],
      "name": "mintFTFor",
      "outputs": [],
      "stateMutability": "nonpayable",
      "type": "function"
    },
    {
      "inputs": [
        {
          "internalType": "address",
          "name": "_to",
          "type": "address"
        },
        {
          "internalType": "uint256",
          "name": "_tokenId",
          "type": "uint256"
        },
        {
          "internalType": "uint256",
          "name": "_tokenType",
          "type": "uint256"
        },
        {
          "internalType": "bytes",
          "name": "_data",
          "type": "bytes"
        }
      ],
      "name": "mintNFTFor",
      "outputs": [],
      "stateMutability": "nonpayable",
      "type": "function"
    },
    {
      "inputs": [
        {
          "internalType": "uint256",
          "name": "",
          "type": "uint256"
        }
      ],
      "name": "nftTypes",
      "outputs": [
        {
          "internalType": "uint256",
          "name": "",
          "type": "uint256"
        }
      ],
      "stateMutability": "view",
      "type": "function"
    },
    {
      "inputs": [],
      "name": "owner",
      "outputs": [
        {
          "internalType": "address",
          "name": "",
          "type": "address"
        }
      ],
      "stateMutability": "view",
      "type": "function"
    },
    {
      "inputs": [
        {
          "internalType": "address",
          "name": "",
          "type": "address"
        }
      ],
      "name": "plugins",
      "outputs": [
        {
          "internalType": "bool",
          "name": "",
          "type": "bool"
        }
      ],
      "stateMutability": "view",
      "type": "function"
    },
    {
      "inputs": [
        {
          "internalType": "string",
          "name": "_name",
          "type": "string"
        },
        {
          "internalType": "string",
          "name": "_description",
          "type": "string"
        },
        {
          "internalType": "string",
          "name": "_image",
          "type": "string"
        },
        {
          "internalType": "string",
          "name": "_icon16x16",
          "type": "string"
        },
        {
          "internalType": "string",
          "name": "_icon32x32",
          "type": "string"
        },
        {
          "internalType": "string",
          "name": "_icon64x64",
          "type": "string"
        }
      ],
      "name": "registerBrand",
      "outputs": [],
      "stateMutability": "payable",
      "type": "function"
    },
    {
      "inputs": [
        {
          "internalType": "address",
          "name": "from",
          "type": "address"
        },
        {
          "internalType": "address",
          "name": "to",
          "type": "address"
        },
        {
          "internalType": "uint256[]",
          "name": "ids",
          "type": "uint256[]"
        },
        {
          "internalType": "uint256[]",
          "name": "amounts",
          "type": "uint256[]"
        },
        {
          "internalType": "bytes",
          "name": "data",
          "type": "bytes"
        }
      ],
      "name": "safeBatchTransferFrom",
      "outputs": [],
      "stateMutability": "nonpayable",
      "type": "function"
    },
    {
      "inputs": [
        {
          "internalType": "address",
          "name": "from",
          "type": "address"
        },
        {
          "internalType": "address",
          "name": "to",
          "type": "address"
        },
        {
          "internalType": "uint256",
          "name": "id",
          "type": "uint256"
        },
        {
          "internalType": "uint256",
          "name": "amount",
          "type": "uint256"
        },
        {
          "internalType": "bytes",
          "name": "data",
          "type": "bytes"
        }
      ],
      "name": "safeTransferFrom",
      "outputs": [],
      "stateMutability": "nonpayable",
      "type": "function"
    },
    {
      "inputs": [
        {
          "internalType": "address",
          "name": "operator",
          "type": "address"
        },
        {
          "internalType": "bool",
          "name": "approved",
          "type": "bool"
        }
      ],
      "name": "setApprovalForAll",
      "outputs": [],
      "stateMutability": "nonpayable",
      "type": "function"
    },
    {
      "inputs": [
        {
          "internalType": "uint256",
          "name": "_newCost",
          "type": "uint256"
        }
      ],
      "name": "setBrandRegistrationCost",
      "outputs": [],
      "stateMutability": "nonpayable",
      "type": "function"
    },
    {
      "inputs": [
        {
          "internalType": "bytes4",
          "name": "interfaceId",
          "type": "bytes4"
        }
      ],
      "name": "supportsInterface",
      "outputs": [
        {
          "internalType": "bool",
          "name": "",
          "type": "bool"
        }
      ],
      "stateMutability": "view",
      "type": "function"
    },
    {
      "inputs": [
        {
          "internalType": "uint256",
          "name": "",
          "type": "uint256"
        }
      ],
      "name": "tokenTypeResolvers",
      "outputs": [
        {
          "internalType": "address",
          "name": "",
          "type": "address"
        }
      ],
      "stateMutability": "view",
      "type": "function"
    },
    {
      "inputs": [
        {
          "internalType": "uint256",
          "name": "_tokenId",
          "type": "uint256"
        }
      ],
      "name": "tokenURI",
      "outputs": [
        {
          "internalType": "string",
          "name": "",
          "type": "string"
        }
      ],
      "stateMutability": "view",
      "type": "function"
    },
    {
      "inputs": [
        {
          "internalType": "address",
          "name": "_brandId",
          "type": "address"
        },
        {
          "internalType": "string",
          "name": "_challengeUrl",
          "type": "string"
        }
      ],
      "name": "updateBrandChallengeUrl",
      "outputs": [],
      "stateMutability": "nonpayable",
      "type": "function"
    },
    {
      "inputs": [
        {
          "internalType": "address",
          "name": "_brandId",
          "type": "address"
        },
        {
          "internalType": "string",
          "name": "_icon",
          "type": "string"
        }
      ],
      "name": "updateBrandIcon16x16Url",
      "outputs": [],
      "stateMutability": "nonpayable",
      "type": "function"
    },
    {
      "inputs": [
        {
          "internalType": "address",
          "name": "_brandId",
          "type": "address"
        },
        {
          "internalType": "string",
          "name": "_icon",
          "type": "string"
        }
      ],
      "name": "updateBrandIcon32x32Url",
      "outputs": [],
      "stateMutability": "nonpayable",
      "type": "function"
    },
    {
      "inputs": [
        {
          "internalType": "address",
          "name": "_brandId",
          "type": "address"
        },
        {
          "internalType": "string",
          "name": "_icon",
          "type": "string"
        }
      ],
      "name": "updateBrandIcon64x64Url",
      "outputs": [],
      "stateMutability": "nonpayable",
      "type": "function"
    },
    {
      "inputs": [
        {
          "internalType": "address",
          "name": "_brandId",
          "type": "address"
        },
        {
          "internalType": "string",
          "name": "_image",
          "type": "string"
        }
      ],
      "name": "updateBrandImage",
      "outputs": [],
      "stateMutability": "nonpayable",
      "type": "function"
    },
    {
      "inputs": [
        {
          "internalType": "address",
          "name": "_brandId",
          "type": "address"
        },
        {
          "internalType": "bool",
          "name": "_committed",
          "type": "bool"
        }
      ],
      "name": "updateBrandSocialCommitment",
      "outputs": [],
      "stateMutability": "nonpayable",
      "type": "function"
    },
    {
      "inputs": [
        {
          "internalType": "uint256",
          "name": "",
          "type": "uint256"
        }
      ],
      "name": "uri",
      "outputs": [
        {
          "internalType": "string",
          "name": "",
          "type": "string"
        }
      ],
      "stateMutability": "view",
      "type": "function"
    },
    {
      "inputs": [
        {
          "internalType": "uint256",
          "name": "amount",
          "type": "uint256"
        }
      ],
      "name": "withdrawBrandRegistrationEarnings",
      "outputs": [],
      "stateMutability": "nonpayable",
      "type": "function"
    }
  ],
  "bytecode": "0x60806040523480156200001157600080fd5b506040518060400160405280600b81526020017f61626f75743a626c616e6b0000000000000000000000000000000000000000008152506200005981620000a160201b60201c565b5033600a60006101000a81548173ffffffffffffffffffffffffffffffffffffffff021916908373ffffffffffffffffffffffffffffffffffffffff160217905550620001d2565b8060029080519060200190620000b9929190620000bd565b5050565b828054620000cb906200019c565b90600052602060002090601f016020900481019282620000ef57600085556200013b565b82601f106200010a57805160ff19168380011785556200013b565b828001600101855582156200013b579182015b828111156200013a5782518255916020019190600101906200011d565b5b5090506200014a91906200014e565b5090565b5b80821115620001695760008160009055506001016200014f565b5090565b7f4e487b7100000000000000000000000000000000000000000000000000000000600052602260045260246000fd5b60006002820490506001821680620001b557607f821691505b60208210811415620001cc57620001cb6200016d565b5b50919050565b61747480620001e26000396000f3fe6080604052600436106101d75760003560e01c806378df8fb711610102578063ab21afb511610095578063d8867fc811610064578063d8867fc8146106f0578063e985e9c514610719578063f242432a14610756578063feb532fd1461077f576101d7565b8063ab21afb514610624578063b2863cc11461064d578063c87b56dd14610676578063d053bfa1146106b3576101d7565b80639896c31d116100d15780639896c31d1461056c57806399de09ff146105a9578063a16bc2ae146105d2578063a22cb465146105fb576101d7565b806378df8fb71461049e57806379b2ab23146104c75780637d5555df146105045780638da5cb5b14610541576101d7565b80633c1213fb1161017a5780634e1273f4116101495780634e1273f4146103f357806351a8de601461043057806352ea8a361461045957806370e979fb14610482576101d7565b80633c1213fb146103395780633e49d92514610362578063437791971461038d5780634b12e643146103b6576101d7565b80630f73da86116101b65780630f73da861461029357806320c6940b146102be57806328c90cd9146102e75780632eb2c2d614610310576101d7565b8062fdd58e146101dc57806301ffc9a7146102195780630e89341c14610256575b600080fd5b3480156101e857600080fd5b5061020360048036038101906101fe919061469e565b6107a8565b60405161021091906146ed565b60405180910390f35b34801561022557600080fd5b50610240600480360381019061023b9190614760565b610871565b60405161024d91906147a8565b60405180910390f35b34801561026257600080fd5b5061027d600480360381019061027891906147c3565b610953565b60405161028a9190614889565b60405180910390f35b34801561029f57600080fd5b506102a86109e7565b6040516102b591906146ed565b60405180910390f35b3480156102ca57600080fd5b506102e560048036038101906102e091906149e0565b6109ed565b005b3480156102f357600080fd5b5061030e600480360381019061030991906147c3565b610bd8565b005b34801561031c57600080fd5b5061033760048036038101906103329190614ba5565b610e12565b005b34801561034557600080fd5b50610360600480360381019061035b91906149e0565b610eb3565b005b34801561036e57600080fd5b5061037761109e565b60405161038491906146ed565b60405180910390f35b34801561039957600080fd5b506103b460048036038101906103af91906147c3565b6110a4565b005b3480156103c257600080fd5b506103dd60048036038101906103d89190614c74565b61117e565b6040516103ea91906147a8565b60405180910390f35b3480156103ff57600080fd5b5061041a60048036038101906104159190614d64565b61119e565b6040516104279190614e9a565b60405180910390f35b34801561043c57600080fd5b50610457600480360381019061045291906149e0565b6112b7565b005b34801561046557600080fd5b50610480600480360381019061047b91906149e0565b6114e7565b005b61049c60048036038101906104979190614ebc565b6116d2565b005b3480156104aa57600080fd5b506104c560048036038101906104c091906149e0565b611787565b005b3480156104d357600080fd5b506104ee60048036038101906104e991906147c3565b611972565b6040516104fb91906146ed565b60405180910390f35b34801561051057600080fd5b5061052b60048036038101906105269190614c74565b61198a565b60405161053891906147a8565b60405180910390f35b34801561054d57600080fd5b50610556611a25565b6040516105639190615000565b60405180910390f35b34801561057857600080fd5b50610593600480360381019061058e9190614c74565b611a4b565b6040516105a09190614889565b60405180910390f35b3480156105b557600080fd5b506105d060048036038101906105cb91906147c3565b611bfb565b005b3480156105de57600080fd5b506105f960048036038101906105f4919061501b565b611d3b565b005b34801561060757600080fd5b50610622600480360381019061061d91906150ca565b611eea565b005b34801561063057600080fd5b5061064b600480360381019061064691906147c3565b611f00565b005b34801561065957600080fd5b50610674600480360381019061066f919061501b565b6120f8565b005b34801561068257600080fd5b5061069d600480360381019061069891906147c3565b6123d1565b6040516106aa9190614889565b60405180910390f35b3480156106bf57600080fd5b506106da60048036038101906106d591906147c3565b61245c565b6040516106e79190615000565b60405180910390f35b3480156106fc57600080fd5b5061071760048036038101906107129190614c74565b61248f565b005b34801561072557600080fd5b50610740600480360381019061073b919061510a565b61266e565b60405161074d91906147a8565b60405180910390f35b34801561076257600080fd5b5061077d6004803603810190610778919061514a565b612702565b005b34801561078b57600080fd5b506107a660048036038101906107a191906150ca565b6127a3565b005b60008073ffffffffffffffffffffffffffffffffffffffff168373ffffffffffffffffffffffffffffffffffffffff161415610819576040517f08c379a000000000000000000000000000000000000000000000000000000000815260040161081090615253565b60405180910390fd5b60008083815260200190815260200160002060008473ffffffffffffffffffffffffffffffffffffffff1673ffffffffffffffffffffffffffffffffffffffff16815260200190815260200160002054905092915050565b60007fd9b67a26000000000000000000000000000000000000000000000000000000007bffffffffffffffffffffffffffffffffffffffffffffffffffffffff1916827bffffffffffffffffffffffffffffffffffffffffffffffffffffffff1916148061093c57507f0e89341c000000000000000000000000000000000000000000000000000000007bffffffffffffffffffffffffffffffffffffffffffffffffffffffff1916827bffffffffffffffffffffffffffffffffffffffffffffffffffffffff1916145b8061094c575061094b82612993565b5b9050919050565b606060028054610962906152a2565b80601f016020809104026020016040519081016040528092919081815260200182805461098e906152a2565b80156109db5780601f106109b0576101008083540402835291602001916109db565b820191906000526020600020905b8154815290600101906020018083116109be57829003601f168201915b50505050509050919050565b60065481565b816000600460008373ffffffffffffffffffffffffffffffffffffffff1673ffffffffffffffffffffffffffffffffffffffff16815260200190815260200160002060000160009054906101000a900473ffffffffffffffffffffffffffffffffffffffff1690506000610a5f6129fd565b9050600073ffffffffffffffffffffffffffffffffffffffff168273ffffffffffffffffffffffffffffffffffffffff1614158015610ada57508173ffffffffffffffffffffffffffffffffffffffff168173ffffffffffffffffffffffffffffffffffffffff161480610ad95750610ad88282612a05565b5b5b610b19576040517f08c379a0000000000000000000000000000000000000000000000000000000008152600401610b1090615346565b60405180910390fd5b83600460008773ffffffffffffffffffffffffffffffffffffffff1673ffffffffffffffffffffffffffffffffffffffff1681526020019081526020016000206005019080519060200190610b6f929190614553565b508473ffffffffffffffffffffffffffffffffffffffff16610b8f6129fd565b73ffffffffffffffffffffffffffffffffffffffff167f7fd1c43abb0471595dcd4d461fdb320d926cbf2b8ba6fa87a78f1b1b0bf3e59260405160405180910390a35050505050565b60076000610be46129fd565b73ffffffffffffffffffffffffffffffffffffffff1673ffffffffffffffffffffffffffffffffffffffff16815260200190815260200160002060009054906101000a900460ff16610c6b576040517f08c379a0000000000000000000000000000000000000000000000000000000008152600401610c62906153d8565b60405180910390fd5b80600073ffffffffffffffffffffffffffffffffffffffff166008600083815260200190815260200160002060009054906101000a900473ffffffffffffffffffffffffffffffffffffffff1673ffffffffffffffffffffffffffffffffffffffff1614610d0e576040517f08c379a0000000000000000000000000000000000000000000000000000000008152600401610d0590615490565b60405180910390fd5b817f80000000000000000000000000000000000000000000000000000000000000008110610d71576040517f08c379a0000000000000000000000000000000000000000000000000000000008152600401610d6890615548565b60405180910390fd5b60018311610db4576040517f08c379a0000000000000000000000000000000000000000000000000000000008152600401610dab90615600565b60405180910390fd5b610dbc6129fd565b6008600085815260200190815260200160002060006101000a81548173ffffffffffffffffffffffffffffffffffffffff021916908373ffffffffffffffffffffffffffffffffffffffff160217905550505050565b610e1a6129fd565b73ffffffffffffffffffffffffffffffffffffffff168573ffffffffffffffffffffffffffffffffffffffff161480610e605750610e5f85610e5a6129fd565b61266e565b5b610e9f576040517f08c379a0000000000000000000000000000000000000000000000000000000008152600401610e9690615692565b60405180910390fd5b610eac8585858585612a19565b5050505050565b816000600460008373ffffffffffffffffffffffffffffffffffffffff1673ffffffffffffffffffffffffffffffffffffffff16815260200190815260200160002060000160009054906101000a900473ffffffffffffffffffffffffffffffffffffffff1690506000610f256129fd565b9050600073ffffffffffffffffffffffffffffffffffffffff168273ffffffffffffffffffffffffffffffffffffffff1614158015610fa057508173ffffffffffffffffffffffffffffffffffffffff168173ffffffffffffffffffffffffffffffffffffffff161480610f9f5750610f9e8282612a05565b5b5b610fdf576040517f08c379a0000000000000000000000000000000000000000000000000000000008152600401610fd690615346565b60405180910390fd5b83600460008773ffffffffffffffffffffffffffffffffffffffff1673ffffffffffffffffffffffffffffffffffffffff1681526020019081526020016000206007019080519060200190611035929190614553565b508473ffffffffffffffffffffffffffffffffffffffff166110556129fd565b73ffffffffffffffffffffffffffffffffffffffff167f7fd1c43abb0471595dcd4d461fdb320d926cbf2b8ba6fa87a78f1b1b0bf3e59260405160405180910390a35050505050565b60035481565b6110b46110af6129fd565b612ad0565b6110f3576040517f08c379a00000000000000000000000000000000000000000000000000000000081526004016110ea90615724565b60405180910390fd5b662386f26fc1000081101561113d576040517f08c379a0000000000000000000000000000000000000000000000000000000008152600401611134906157dc565b60405180910390fd5b806003819055507fc652b105063222eb8399f76ca13b5913144c1d8af3a94bc240248ecbc36ac80b8160405161117391906146ed565b60405180910390a150565b60076020528060005260406000206000915054906101000a900460ff1681565b606081518351146111e4576040517f08c379a00000000000000000000000000000000000000000000000000000000081526004016111db9061586e565b60405180910390fd5b6000835167ffffffffffffffff811115611201576112006148b5565b5b60405190808252806020026020018201604052801561122f5781602001602082028036833780820191505090505b50905060005b84518110156112ac5761127c8582815181106112545761125361588e565b5b602002602001015185838151811061126f5761126e61588e565b5b60200260200101516107a8565b82828151811061128f5761128e61588e565b5b602002602001018181525050806112a5906158ec565b9050611235565b508091505092915050565b816000600460008373ffffffffffffffffffffffffffffffffffffffff1673ffffffffffffffffffffffffffffffffffffffff16815260200190815260200160002060000160009054906101000a900473ffffffffffffffffffffffffffffffffffffffff16905060006113296129fd565b9050600073ffffffffffffffffffffffffffffffffffffffff168273ffffffffffffffffffffffffffffffffffffffff16141580156113a457508173ffffffffffffffffffffffffffffffffffffffff168173ffffffffffffffffffffffffffffffffffffffff1614806113a357506113a28282612a05565b5b5b6113e3576040517f08c379a00000000000000000000000000000000000000000000000000000000081526004016113da90615346565b60405180910390fd5b600084511415611428576040517f08c379a000000000000000000000000000000000000000000000000000000000815260040161141f906159a7565b60405180910390fd5b83600460008773ffffffffffffffffffffffffffffffffffffffff1673ffffffffffffffffffffffffffffffffffffffff168152602001908152602001600020600401908051906020019061147e929190614553565b508473ffffffffffffffffffffffffffffffffffffffff1661149e6129fd565b73ffffffffffffffffffffffffffffffffffffffff167f7fd1c43abb0471595dcd4d461fdb320d926cbf2b8ba6fa87a78f1b1b0bf3e59260405160405180910390a35050505050565b816000600460008373ffffffffffffffffffffffffffffffffffffffff1673ffffffffffffffffffffffffffffffffffffffff16815260200190815260200160002060000160009054906101000a900473ffffffffffffffffffffffffffffffffffffffff16905060006115596129fd565b9050600073ffffffffffffffffffffffffffffffffffffffff168273ffffffffffffffffffffffffffffffffffffffff16141580156115d457508173ffffffffffffffffffffffffffffffffffffffff168173ffffffffffffffffffffffffffffffffffffffff1614806115d357506115d28282612a05565b5b5b611613576040517f08c379a000000000000000000000000000000000000000000000000000000000815260040161160a90615346565b60405180910390fd5b83600460008773ffffffffffffffffffffffffffffffffffffffff1673ffffffffffffffffffffffffffffffffffffffff1681526020019081526020016000206006019080519060200190611669929190614553565b508473ffffffffffffffffffffffffffffffffffffffff166116896129fd565b73ffffffffffffffffffffffffffffffffffffffff167f7fd1c43abb0471595dcd4d461fdb320d926cbf2b8ba6fa87a78f1b1b0bf3e59260405160405180910390a35050505050565b60405180606001604052806021815260200161741e6021913960035460003490508181148361170084612b2a565b61170984612b2a565b60405160200161171b93929190615ae7565b6040516020818303038152906040529061176b576040517f08c379a00000000000000000000000000000000000000000000000000000000081526004016117629190614889565b60405180910390fd5b5061177c8989898989896000612c8b565b505050505050505050565b816000600460008373ffffffffffffffffffffffffffffffffffffffff1673ffffffffffffffffffffffffffffffffffffffff16815260200190815260200160002060000160009054906101000a900473ffffffffffffffffffffffffffffffffffffffff16905060006117f96129fd565b9050600073ffffffffffffffffffffffffffffffffffffffff168273ffffffffffffffffffffffffffffffffffffffff161415801561187457508173ffffffffffffffffffffffffffffffffffffffff168173ffffffffffffffffffffffffffffffffffffffff16148061187357506118728282612a05565b5b5b6118b3576040517f08c379a00000000000000000000000000000000000000000000000000000000081526004016118aa90615346565b60405180910390fd5b83600460008773ffffffffffffffffffffffffffffffffffffffff1673ffffffffffffffffffffffffffffffffffffffff1681526020019081526020016000206003019080519060200190611909929190614553565b508473ffffffffffffffffffffffffffffffffffffffff166119296129fd565b73ffffffffffffffffffffffffffffffffffffffff167f7fd1c43abb0471595dcd4d461fdb320d926cbf2b8ba6fa87a78f1b1b0bf3e59260405160405180910390a35050505050565b60096020528060005260406000206000915090505481565b60008073ffffffffffffffffffffffffffffffffffffffff16600460008473ffffffffffffffffffffffffffffffffffffffff1673ffffffffffffffffffffffffffffffffffffffff16815260200190815260200160002060000160009054906101000a900473ffffffffffffffffffffffffffffffffffffffff1673ffffffffffffffffffffffffffffffffffffffff1614159050919050565b600a60009054906101000a900473ffffffffffffffffffffffffffffffffffffffff1681565b60606000600460008473ffffffffffffffffffffffffffffffffffffffff1673ffffffffffffffffffffffffffffffffffffffff1681526020019081526020016000209050600073ffffffffffffffffffffffffffffffffffffffff168160000160009054906101000a900473ffffffffffffffffffffffffffffffffffffffff1673ffffffffffffffffffffffffffffffffffffffff161415611b015760405180602001604052806000815250915050611bf6565b611bd3816001018260020183600401846003018560050186600601876007018860080160009054906101000a900460ff16611b71576040518060400160405280600581526020017f66616c7365000000000000000000000000000000000000000000000000000000815250611ba8565b6040518060400160405280600481526020017f74727565000000000000000000000000000000000000000000000000000000008152505b604051602001611bbf989796959493929190615e79565b60405160208183030381529060405261305c565b604051602001611be39190615f9a565b6040516020818303038152906040529150505b919050565b6000611c056129fd565b9050611c10816131c0565b611c4f576040517f08c379a0000000000000000000000000000000000000000000000000000000008152600401611c469061602e565b60405180910390fd5b60008211611c92576040517f08c379a0000000000000000000000000000000000000000000000000000000008152600401611c89906160c0565b60405180910390fd5b816006541015611cd7576040517f08c379a0000000000000000000000000000000000000000000000000000000008152600401611cce90616152565b60405180910390fd5b8160066000828254611ce99190616172565b925050819055508073ffffffffffffffffffffffffffffffffffffffff166108fc839081150290604051600060405180830381858888f19350505050158015611d36573d6000803e3d6000fd5b505050565b60076000611d476129fd565b73ffffffffffffffffffffffffffffffffffffffff1673ffffffffffffffffffffffffffffffffffffffff16815260200190815260200160002060009054906101000a900460ff16611dce576040517f08c379a0000000000000000000000000000000000000000000000000000000008152600401611dc5906153d8565b60405180910390fd5b82600073ffffffffffffffffffffffffffffffffffffffff166008600083815260200190815260200160002060009054906101000a900473ffffffffffffffffffffffffffffffffffffffff1673ffffffffffffffffffffffffffffffffffffffff161415611e72576040517f08c379a0000000000000000000000000000000000000000000000000000000008152600401611e6990616218565b60405180910390fd5b837f8000000000000000000000000000000000000000000000000000000000000000811015611ed6576040517f08c379a0000000000000000000000000000000000000000000000000000000008152600401611ecd906162d0565b60405180910390fd5b611ee28686868661321a565b505050505050565b611efc611ef56129fd565b838361322c565b5050565b60076000611f0c6129fd565b73ffffffffffffffffffffffffffffffffffffffff1673ffffffffffffffffffffffffffffffffffffffff16815260200190815260200160002060009054906101000a900460ff16611f93576040517f08c379a0000000000000000000000000000000000000000000000000000000008152600401611f8a906153d8565b60405180910390fd5b80600073ffffffffffffffffffffffffffffffffffffffff166008600083815260200190815260200160002060009054906101000a900473ffffffffffffffffffffffffffffffffffffffff1673ffffffffffffffffffffffffffffffffffffffff1614612036576040517f08c379a000000000000000000000000000000000000000000000000000000000815260040161202d90615490565b60405180910390fd5b817f800000000000000000000000000000000000000000000000000000000000000081101561209a576040517f08c379a0000000000000000000000000000000000000000000000000000000008152600401612091906162d0565b60405180910390fd5b6120a26129fd565b6008600085815260200190815260200160002060006101000a81548173ffffffffffffffffffffffffffffffffffffffff021916908373ffffffffffffffffffffffffffffffffffffffff160217905550505050565b600760006121046129fd565b73ffffffffffffffffffffffffffffffffffffffff1673ffffffffffffffffffffffffffffffffffffffff16815260200190815260200160002060009054906101000a900460ff1661218b576040517f08c379a0000000000000000000000000000000000000000000000000000000008152600401612182906153d8565b60405180910390fd5b81600073ffffffffffffffffffffffffffffffffffffffff166008600083815260200190815260200160002060009054906101000a900473ffffffffffffffffffffffffffffffffffffffff1673ffffffffffffffffffffffffffffffffffffffff16141561222f576040517f08c379a000000000000000000000000000000000000000000000000000000000815260040161222690616218565b60405180910390fd5b827f80000000000000000000000000000000000000000000000000000000000000008110612292576040517f08c379a000000000000000000000000000000000000000000000000000000000815260040161228990615548565b60405180910390fd5b847f800000000000000000000000000000000000000000000000000000000000000081106122f5576040517f08c379a00000000000000000000000000000000000000000000000000000000081526004016122ec90615548565b60405180910390fd5b7401000000000000000000000000000000000000000085101561234d576040517f08c379a000000000000000000000000000000000000000000000000000000000815260040161234490616388565b60405180910390fd5b60006009600088815260200190815260200160002054146123a3576040517f08c379a000000000000000000000000000000000000000000000000000000000815260040161239a9061641a565b60405180910390fd5b6123b0878760018761321a565b84600960008881526020019081526020016000208190555050505050505050565b606074010000000000000000000000000000000000000000821015612400576123f982611a4b565b9050612457565b7f800000000000000000000000000000000000000000000000000000000000000082101561244b576124446009600084815260200190815260200160002054613399565b9050612457565b61245482613399565b90505b919050565b60086020528060005260406000206000915054906101000a900473ffffffffffffffffffffffffffffffffffffffff1681565b61249f61249a6129fd565b6134a8565b6124de576040517f08c379a00000000000000000000000000000000000000000000000000000000081526004016124d5906164d2565b60405180910390fd5b6124e781613502565b612526576040517f08c379a000000000000000000000000000000000000000000000000000000000815260040161251d906165b0565b60405180910390fd5b600760008273ffffffffffffffffffffffffffffffffffffffff1673ffffffffffffffffffffffffffffffffffffffff16815260200190815260200160002060009054906101000a900460ff16156125b3576040517f08c379a00000000000000000000000000000000000000000000000000000000081526004016125aa90616668565b60405180910390fd5b6001600760008373ffffffffffffffffffffffffffffffffffffffff1673ffffffffffffffffffffffffffffffffffffffff16815260200190815260200160002060006101000a81548160ff0219169083151502179055508073ffffffffffffffffffffffffffffffffffffffff16638129fc1c6040518163ffffffff1660e01b8152600401600060405180830381600087803b15801561265357600080fd5b505af1158015612667573d6000803e3d6000fd5b5050505050565b6000600160008473ffffffffffffffffffffffffffffffffffffffff1673ffffffffffffffffffffffffffffffffffffffff16815260200190815260200160002060008373ffffffffffffffffffffffffffffffffffffffff1673ffffffffffffffffffffffffffffffffffffffff16815260200190815260200160002060009054906101000a900460ff16905092915050565b61270a6129fd565b73ffffffffffffffffffffffffffffffffffffffff168573ffffffffffffffffffffffffffffffffffffffff161480612750575061274f8561274a6129fd565b61266e565b5b61278f576040517f08c379a000000000000000000000000000000000000000000000000000000000815260040161278690615692565b60405180910390fd5b61279c85858585856135f9565b5050505050565b6000600460008473ffffffffffffffffffffffffffffffffffffffff1673ffffffffffffffffffffffffffffffffffffffff16815260200190815260200160002060000160009054906101000a900473ffffffffffffffffffffffffffffffffffffffff169050600073ffffffffffffffffffffffffffffffffffffffff168173ffffffffffffffffffffffffffffffffffffffff16141561287a576040517f08c379a0000000000000000000000000000000000000000000000000000000008152600401612871906166fa565b60405180910390fd5b60006128846129fd565b905061288f81613635565b6128ce576040517f08c379a00000000000000000000000000000000000000000000000000000000081526004016128c59061678c565b60405180910390fd5b82600460008673ffffffffffffffffffffffffffffffffffffffff1673ffffffffffffffffffffffffffffffffffffffff16815260200190815260200160002060080160006101000a81548160ff0219169083151502179055508373ffffffffffffffffffffffffffffffffffffffff168173ffffffffffffffffffffffffffffffffffffffff167f1a9425b12b0cb193f4db2ac1b9bc0712393521978231a7fcf5f0262b847cd5498560405161298591906147a8565b60405180910390a350505050565b60007f01ffc9a7000000000000000000000000000000000000000000000000000000007bffffffffffffffffffffffffffffffffffffffffffffffffffffffff1916827bffffffffffffffffffffffffffffffffffffffffffffffffffffffff1916149050919050565b600033905090565b6000612a11838361266e565b905092915050565b612a26858585858561368f565b60005b8251811015612ac85774010000000000000000000000000000000000000000848281518110612a5b57612a5a61588e565b5b6020026020010151108015612a8b57506000838281518110612a8057612a7f61588e565b5b602002602001015114155b15612ab557612ab4848281518110612aa657612aa561588e565b5b6020026020010151866139b1565b5b8080612ac0906158ec565b915050612a29565b505050505050565b60008173ffffffffffffffffffffffffffffffffffffffff16600a60009054906101000a900473ffffffffffffffffffffffffffffffffffffffff1673ffffffffffffffffffffffffffffffffffffffff16149050919050565b60606000821415612b72576040518060400160405280600181526020017f30000000000000000000000000000000000000000000000000000000000000008152509050612c86565b600082905060005b60008214612ba4578080612b8d906158ec565b915050600a82612b9d91906167db565b9150612b7a565b60008167ffffffffffffffff811115612bc057612bbf6148b5565b5b6040519080825280601f01601f191660200182016040528015612bf25781602001600182028036833780820191505090505b5090505b60008514612c7f57600182612c0b9190616172565b9150600a85612c1a919061680c565b6030612c26919061683d565b60f81b818381518110612c3c57612c3b61588e565b5b60200101907effffffffffffffffffffffffffffffffffffffffffffffffffffffffffffff1916908160001a905350600a85612c7891906167db565b9450612bf6565b8093505050505b919050565b6000612c956129fd565b9050600088511415612cdc576040517f08c379a0000000000000000000000000000000000000000000000000000000008152600401612cd390616905565b60405180910390fd5b600087511415612d21576040517f08c379a0000000000000000000000000000000000000000000000000000000008152600401612d1890616997565b60405180910390fd5b600086511415612d66576040517f08c379a0000000000000000000000000000000000000000000000000000000008152600401612d5d906159a7565b60405180910390fd5b3460066000828254612d78919061683d565b92505081905550600160056000828254612d92919061683d565b92505081905550600060d660f81b609460f81b308460055460001b604051602001612dc1959493929190616a77565b6040516020818303038152906040528051906020012060001c90506040518061012001604052808373ffffffffffffffffffffffffffffffffffffffff1681526020018a81526020018981526020016040518060400160405280600b81526020017f61626f75743a626c616e6b0000000000000000000000000000000000000000008152508152602001888152602001878152602001868152602001858152602001841515815250600460008373ffffffffffffffffffffffffffffffffffffffff1673ffffffffffffffffffffffffffffffffffffffff16815260200190815260200160002060008201518160000160006101000a81548173ffffffffffffffffffffffffffffffffffffffff021916908373ffffffffffffffffffffffffffffffffffffffff1602179055506020820151816001019080519060200190612f0b929190614553565b506040820151816002019080519060200190612f28929190614553565b506060820151816003019080519060200190612f45929190614553565b506080820151816004019080519060200190612f62929190614553565b5060a0820151816005019080519060200190612f7f929190614553565b5060c0820151816006019080519060200190612f9c929190614553565b5060e0820151816007019080519060200190612fb9929190614553565b506101008201518160080160006101000a81548160ff021916908315150217905550905050612fe88282613acd565b8073ffffffffffffffffffffffffffffffffffffffff168273ffffffffffffffffffffffffffffffffffffffff167fbaa80c9cbed3f9a5fcdc4e9dd7785f9cfc968a81b80b94363bea0e92c938c0d98b8b3460405161304993929190616ad6565b60405180910390a3505050505050505050565b606060008251141561307f576040518060200160405280600081525090506131bb565b60006040518060600160405280604081526020016173de60409139905060006003600285516130ae919061683d565b6130b891906167db565b60046130c49190616b1b565b67ffffffffffffffff8111156130dd576130dc6148b5565b5b6040519080825280601f01601f19166020018201604052801561310f5781602001600182028036833780820191505090505b509050600182016020820185865187015b8082101561317b576003820191508151603f8160121c168501518453600184019350603f81600c1c168501518453600184019350603f8160061c168501518453600184019350603f8116850151845360018401935050613120565b505060038651066001811461319757600281146131aa576131b2565b603d6001830353603d60028303536131b2565b603d60018303535b50505080925050505b919050565b60008173ffffffffffffffffffffffffffffffffffffffff16600a60009054906101000a900473ffffffffffffffffffffffffffffffffffffffff1673ffffffffffffffffffffffffffffffffffffffff16149050919050565b61322684848484613b0c565b50505050565b8173ffffffffffffffffffffffffffffffffffffffff168373ffffffffffffffffffffffffffffffffffffffff16141561329b576040517f08c379a000000000000000000000000000000000000000000000000000000000815260040161329290616be7565b60405180910390fd5b80600160008573ffffffffffffffffffffffffffffffffffffffff1673ffffffffffffffffffffffffffffffffffffffff16815260200190815260200160002060008473ffffffffffffffffffffffffffffffffffffffff1673ffffffffffffffffffffffffffffffffffffffff16815260200190815260200160002060006101000a81548160ff0219169083151502179055508173ffffffffffffffffffffffffffffffffffffffff168373ffffffffffffffffffffffffffffffffffffffff167f17307eab39ab6107e8899845ad3d59bd9653f200f220920489ca2b5937696c318360405161338c91906147a8565b60405180910390a3505050565b606060006008600084815260200190815260200160002060009054906101000a900473ffffffffffffffffffffffffffffffffffffffff169050600073ffffffffffffffffffffffffffffffffffffffff168173ffffffffffffffffffffffffffffffffffffffff16141561342057604051806020016040528060008152509150506134a3565b8073ffffffffffffffffffffffffffffffffffffffff16630e89341c846040518263ffffffff1660e01b815260040161345991906146ed565b600060405180830381865afa158015613476573d6000803e3d6000fd5b505050506040513d6000823e3d601f19601f8201168201806040525081019061349f9190616c77565b9150505b919050565b60008173ffffffffffffffffffffffffffffffffffffffff16600a60009054906101000a900473ffffffffffffffffffffffffffffffffffffffff1673ffffffffffffffffffffffffffffffffffffffff16149050919050565b600061354d7f5be0bbb7000000000000000000000000000000000000000000000000000000008373ffffffffffffffffffffffffffffffffffffffff16613cbd90919063ffffffff16565b80156135f257503073ffffffffffffffffffffffffffffffffffffffff168273ffffffffffffffffffffffffffffffffffffffff1663f200670d6040518163ffffffff1660e01b8152600401602060405180830381865afa1580156135b6573d6000803e3d6000fd5b505050506040513d601f19601f820116820180604052508101906135da9190616cd5565b73ffffffffffffffffffffffffffffffffffffffff16145b9050919050565b6136068585858585613ce2565b7401000000000000000000000000000000000000000083101561362e5761362d83856139b1565b5b5050505050565b60008173ffffffffffffffffffffffffffffffffffffffff16600a60009054906101000a900473ffffffffffffffffffffffffffffffffffffffff1673ffffffffffffffffffffffffffffffffffffffff16149050919050565b81518351146136d3576040517f08c379a00000000000000000000000000000000000000000000000000000000081526004016136ca90616d74565b60405180910390fd5b600073ffffffffffffffffffffffffffffffffffffffff168473ffffffffffffffffffffffffffffffffffffffff161415613743576040517f08c379a000000000000000000000000000000000000000000000000000000000815260040161373a90616e06565b60405180910390fd5b600061374d6129fd565b905061375d818787878787613f7e565b60005b845181101561390e57600085828151811061377e5761377d61588e565b5b60200260200101519050600085838151811061379d5761379c61588e565b5b60200260200101519050600080600084815260200190815260200160002060008b73ffffffffffffffffffffffffffffffffffffffff1673ffffffffffffffffffffffffffffffffffffffff1681526020019081526020016000205490508181101561383e576040517f08c379a000000000000000000000000000000000000000000000000000000000815260040161383590616e98565b60405180910390fd5b81810360008085815260200190815260200160002060008c73ffffffffffffffffffffffffffffffffffffffff1673ffffffffffffffffffffffffffffffffffffffff168152602001908152602001600020819055508160008085815260200190815260200160002060008b73ffffffffffffffffffffffffffffffffffffffff1673ffffffffffffffffffffffffffffffffffffffff16815260200190815260200160002060008282546138f3919061683d565b9250508190555050505080613907906158ec565b9050613760565b508473ffffffffffffffffffffffffffffffffffffffff168673ffffffffffffffffffffffffffffffffffffffff168273ffffffffffffffffffffffffffffffffffffffff167f4a39dc06d4c0dbc64b70af90fd698a233a518aa5d07e595d983b8c0526c8f7fb8787604051613985929190616eb8565b60405180910390a461399b818787878787613f86565b6139a9818787878787613f8e565b505050505050565b600073ffffffffffffffffffffffffffffffffffffffff16600460008473ffffffffffffffffffffffffffffffffffffffff1673ffffffffffffffffffffffffffffffffffffffff16815260200190815260200160002060000160009054906101000a900473ffffffffffffffffffffffffffffffffffffffff1673ffffffffffffffffffffffffffffffffffffffff1614613ac95780600460008473ffffffffffffffffffffffffffffffffffffffff1673ffffffffffffffffffffffffffffffffffffffff16815260200190815260200160002060000160006101000a81548173ffffffffffffffffffffffffffffffffffffffff021916908373ffffffffffffffffffffffffffffffffffffffff1602179055505b5050565b613b08828273ffffffffffffffffffffffffffffffffffffffff1660016040518060600160405280603281526020016173ac60329139613b0c565b5050565b600073ffffffffffffffffffffffffffffffffffffffff168473ffffffffffffffffffffffffffffffffffffffff161415613b7c576040517f08c379a0000000000000000000000000000000000000000000000000000000008152600401613b7390616f61565b60405180910390fd5b6000613b866129fd565b90506000613b9385614166565b90506000613ba085614166565b9050613bb183600089858589613f7e565b8460008088815260200190815260200160002060008973ffffffffffffffffffffffffffffffffffffffff1673ffffffffffffffffffffffffffffffffffffffff1681526020019081526020016000206000828254613c10919061683d565b925050819055508673ffffffffffffffffffffffffffffffffffffffff16600073ffffffffffffffffffffffffffffffffffffffff168473ffffffffffffffffffffffffffffffffffffffff167fc3d58168c5ae7397731d063d5bbf3d657854427343f4c083240f7aacaa2d0f628989604051613c8e929190616f81565b60405180910390a4613ca583600089858589613f86565b613cb4836000898989896141e0565b50505050505050565b6000613cc8836143b8565b8015613cda5750613cd98383614405565b5b905092915050565b600073ffffffffffffffffffffffffffffffffffffffff168473ffffffffffffffffffffffffffffffffffffffff161415613d52576040517f08c379a0000000000000000000000000000000000000000000000000000000008152600401613d4990616e06565b60405180910390fd5b6000613d5c6129fd565b90506000613d6985614166565b90506000613d7685614166565b9050613d86838989858589613f7e565b600080600088815260200190815260200160002060008a73ffffffffffffffffffffffffffffffffffffffff1673ffffffffffffffffffffffffffffffffffffffff16815260200190815260200160002054905085811015613e1d576040517f08c379a0000000000000000000000000000000000000000000000000000000008152600401613e1490616e98565b60405180910390fd5b85810360008089815260200190815260200160002060008b73ffffffffffffffffffffffffffffffffffffffff1673ffffffffffffffffffffffffffffffffffffffff168152602001908152602001600020819055508560008089815260200190815260200160002060008a73ffffffffffffffffffffffffffffffffffffffff1673ffffffffffffffffffffffffffffffffffffffff1681526020019081526020016000206000828254613ed2919061683d565b925050819055508773ffffffffffffffffffffffffffffffffffffffff168973ffffffffffffffffffffffffffffffffffffffff168573ffffffffffffffffffffffffffffffffffffffff167fc3d58168c5ae7397731d063d5bbf3d657854427343f4c083240f7aacaa2d0f628a8a604051613f4f929190616f81565b60405180910390a4613f65848a8a86868a613f86565b613f73848a8a8a8a8a6141e0565b505050505050505050565b505050505050565b505050505050565b613fad8473ffffffffffffffffffffffffffffffffffffffff16614530565b1561415e578373ffffffffffffffffffffffffffffffffffffffff1663bc197c8187878686866040518663ffffffff1660e01b8152600401613ff3959493929190616fff565b6020604051808303816000875af192505050801561402f57506040513d601f19601f8201168201806040525081019061402c919061707c565b60015b6140d55761403b6170b6565b806308c379a0141561409857506140506170d8565b8061405b575061409a565b806040517f08c379a000000000000000000000000000000000000000000000000000000000815260040161408f9190614889565b60405180910390fd5b505b6040517f08c379a00000000000000000000000000000000000000000000000000000000081526004016140cc906171e0565b60405180910390fd5b63bc197c8160e01b7bffffffffffffffffffffffffffffffffffffffffffffffffffffffff1916817bffffffffffffffffffffffffffffffffffffffffffffffffffffffff19161461415c576040517f08c379a000000000000000000000000000000000000000000000000000000000815260040161415390617272565b60405180910390fd5b505b505050505050565b60606000600167ffffffffffffffff811115614185576141846148b5565b5b6040519080825280602002602001820160405280156141b35781602001602082028036833780820191505090505b50905082816000815181106141cb576141ca61588e565b5b60200260200101818152505080915050919050565b6141ff8473ffffffffffffffffffffffffffffffffffffffff16614530565b156143b0578373ffffffffffffffffffffffffffffffffffffffff1663f23a6e6187878686866040518663ffffffff1660e01b8152600401614245959493929190617292565b6020604051808303816000875af192505050801561428157506040513d601f19601f8201168201806040525081019061427e919061707c565b60015b6143275761428d6170b6565b806308c379a014156142ea57506142a26170d8565b806142ad57506142ec565b806040517f08c379a00000000000000000000000000000000000000000000000000000000081526004016142e19190614889565b60405180910390fd5b505b6040517f08c379a000000000000000000000000000000000000000000000000000000000815260040161431e906171e0565b60405180910390fd5b63f23a6e6160e01b7bffffffffffffffffffffffffffffffffffffffffffffffffffffffff1916817bffffffffffffffffffffffffffffffffffffffffffffffffffffffff1916146143ae576040517f08c379a00000000000000000000000000000000000000000000000000000000081526004016143a590617272565b60405180910390fd5b505b505050505050565b60006143e4827f01ffc9a700000000000000000000000000000000000000000000000000000000614405565b80156143fe57506143fc8263ffffffff60e01b614405565b155b9050919050565b6000806301ffc9a760e01b8360405160240161442191906172fb565b604051602081830303815290604052907bffffffffffffffffffffffffffffffffffffffffffffffffffffffff19166020820180517bffffffffffffffffffffffffffffffffffffffffffffffffffffffff838183161783525050505090506000808573ffffffffffffffffffffffffffffffffffffffff16617530846040516144ab9190617352565b6000604051808303818686fa925050503d80600081146144e7576040519150601f19603f3d011682016040523d82523d6000602084013e6144ec565b606091505b5091509150602081511015614507576000935050505061452a565b818015614524575080806020019051810190614523919061737e565b5b93505050505b92915050565b6000808273ffffffffffffffffffffffffffffffffffffffff163b119050919050565b82805461455f906152a2565b90600052602060002090601f01602090048101928261458157600085556145c8565b82601f1061459a57805160ff19168380011785556145c8565b828001600101855582156145c8579182015b828111156145c75782518255916020019190600101906145ac565b5b5090506145d591906145d9565b5090565b5b808211156145f25760008160009055506001016145da565b5090565b6000604051905090565b600080fd5b600080fd5b600073ffffffffffffffffffffffffffffffffffffffff82169050919050565b60006146358261460a565b9050919050565b6146458161462a565b811461465057600080fd5b50565b6000813590506146628161463c565b92915050565b6000819050919050565b61467b81614668565b811461468657600080fd5b50565b60008135905061469881614672565b92915050565b600080604083850312156146b5576146b4614600565b5b60006146c385828601614653565b92505060206146d485828601614689565b9150509250929050565b6146e781614668565b82525050565b600060208201905061470260008301846146de565b92915050565b60007fffffffff0000000000000000000000000000000000000000000000000000000082169050919050565b61473d81614708565b811461474857600080fd5b50565b60008135905061475a81614734565b92915050565b60006020828403121561477657614775614600565b5b60006147848482850161474b565b91505092915050565b60008115159050919050565b6147a28161478d565b82525050565b60006020820190506147bd6000830184614799565b92915050565b6000602082840312156147d9576147d8614600565b5b60006147e784828501614689565b91505092915050565b600081519050919050565b600082825260208201905092915050565b60005b8381101561482a57808201518184015260208101905061480f565b83811115614839576000848401525b50505050565b6000601f19601f8301169050919050565b600061485b826147f0565b61486581856147fb565b935061487581856020860161480c565b61487e8161483f565b840191505092915050565b600060208201905081810360008301526148a38184614850565b905092915050565b600080fd5b600080fd5b7f4e487b7100000000000000000000000000000000000000000000000000000000600052604160045260246000fd5b6148ed8261483f565b810181811067ffffffffffffffff8211171561490c5761490b6148b5565b5b80604052505050565b600061491f6145f6565b905061492b82826148e4565b919050565b600067ffffffffffffffff82111561494b5761494a6148b5565b5b6149548261483f565b9050602081019050919050565b82818337600083830152505050565b600061498361497e84614930565b614915565b90508281526020810184848401111561499f5761499e6148b0565b5b6149aa848285614961565b509392505050565b600082601f8301126149c7576149c66148ab565b5b81356149d7848260208601614970565b91505092915050565b600080604083850312156149f7576149f6614600565b5b6000614a0585828601614653565b925050602083013567ffffffffffffffff811115614a2657614a25614605565b5b614a32858286016149b2565b9150509250929050565b600067ffffffffffffffff821115614a5757614a566148b5565b5b602082029050602081019050919050565b600080fd5b6000614a80614a7b84614a3c565b614915565b90508083825260208201905060208402830185811115614aa357614aa2614a68565b5b835b81811015614acc5780614ab88882614689565b845260208401935050602081019050614aa5565b5050509392505050565b600082601f830112614aeb57614aea6148ab565b5b8135614afb848260208601614a6d565b91505092915050565b600067ffffffffffffffff821115614b1f57614b1e6148b5565b5b614b288261483f565b9050602081019050919050565b6000614b48614b4384614b04565b614915565b905082815260208101848484011115614b6457614b636148b0565b5b614b6f848285614961565b509392505050565b600082601f830112614b8c57614b8b6148ab565b5b8135614b9c848260208601614b35565b91505092915050565b600080600080600060a08688031215614bc157614bc0614600565b5b6000614bcf88828901614653565b9550506020614be088828901614653565b945050604086013567ffffffffffffffff811115614c0157614c00614605565b5b614c0d88828901614ad6565b935050606086013567ffffffffffffffff811115614c2e57614c2d614605565b5b614c3a88828901614ad6565b925050608086013567ffffffffffffffff811115614c5b57614c5a614605565b5b614c6788828901614b77565b9150509295509295909350565b600060208284031215614c8a57614c89614600565b5b6000614c9884828501614653565b91505092915050565b600067ffffffffffffffff821115614cbc57614cbb6148b5565b5b602082029050602081019050919050565b6000614ce0614cdb84614ca1565b614915565b90508083825260208201905060208402830185811115614d0357614d02614a68565b5b835b81811015614d2c5780614d188882614653565b845260208401935050602081019050614d05565b5050509392505050565b600082601f830112614d4b57614d4a6148ab565b5b8135614d5b848260208601614ccd565b91505092915050565b60008060408385031215614d7b57614d7a614600565b5b600083013567ffffffffffffffff811115614d9957614d98614605565b5b614da585828601614d36565b925050602083013567ffffffffffffffff811115614dc657614dc5614605565b5b614dd285828601614ad6565b9150509250929050565b600081519050919050565b600082825260208201905092915050565b6000819050602082019050919050565b614e1181614668565b82525050565b6000614e238383614e08565b60208301905092915050565b6000602082019050919050565b6000614e4782614ddc565b614e518185614de7565b9350614e5c83614df8565b8060005b83811015614e8d578151614e748882614e17565b9750614e7f83614e2f565b925050600181019050614e60565b5085935050505092915050565b60006020820190508181036000830152614eb48184614e3c565b905092915050565b60008060008060008060c08789031215614ed957614ed8614600565b5b600087013567ffffffffffffffff811115614ef757614ef6614605565b5b614f0389828a016149b2565b965050602087013567ffffffffffffffff811115614f2457614f23614605565b5b614f3089828a016149b2565b955050604087013567ffffffffffffffff811115614f5157614f50614605565b5b614f5d89828a016149b2565b945050606087013567ffffffffffffffff811115614f7e57614f7d614605565b5b614f8a89828a016149b2565b935050608087013567ffffffffffffffff811115614fab57614faa614605565b5b614fb789828a016149b2565b92505060a087013567ffffffffffffffff811115614fd857614fd7614605565b5b614fe489828a016149b2565b9150509295509295509295565b614ffa8161462a565b82525050565b60006020820190506150156000830184614ff1565b92915050565b6000806000806080858703121561503557615034614600565b5b600061504387828801614653565b945050602061505487828801614689565b935050604061506587828801614689565b925050606085013567ffffffffffffffff81111561508657615085614605565b5b61509287828801614b77565b91505092959194509250565b6150a78161478d565b81146150b257600080fd5b50565b6000813590506150c48161509e565b92915050565b600080604083850312156150e1576150e0614600565b5b60006150ef85828601614653565b9250506020615100858286016150b5565b9150509250929050565b6000806040838503121561512157615120614600565b5b600061512f85828601614653565b925050602061514085828601614653565b9150509250929050565b600080600080600060a0868803121561516657615165614600565b5b600061517488828901614653565b955050602061518588828901614653565b945050604061519688828901614689565b93505060606151a788828901614689565b925050608086013567ffffffffffffffff8111156151c8576151c7614605565b5b6151d488828901614b77565b9150509295509295909350565b7f455243313135353a2061646472657373207a65726f206973206e6f742061207660008201527f616c6964206f776e657200000000000000000000000000000000000000000000602082015250565b600061523d602a836147fb565b9150615248826151e1565b604082019050919050565b6000602082019050818103600083015261526c81615230565b9050919050565b7f4e487b7100000000000000000000000000000000000000000000000000000000600052602260045260246000fd5b600060028204905060018216806152ba57607f821691505b602082108114156152ce576152cd615273565b5b50919050565b7f4272616e6452656769737472793a2063616c6c6572206973206e6f742062726160008201527f6e64206f776e6572206e6f7220617070726f7665640000000000000000000000602082015250565b60006153306035836147fb565b915061533b826152d4565b604082019050919050565b6000602082019050818103600083015261535f81615323565b9050919050565b7f4d65746176657273654173736574735265676973747261723a2074686520736560008201527f6e646572206d757374206265206120706c75672d696e00000000000000000000602082015250565b60006153c26036836147fb565b91506153cd82615366565b604082019050919050565b600060208201905081810360008301526153f1816153b5565b9050919050565b7f4d65746176657273654173736574735265676973747261723a2074686520737060008201527f6563696669656420746f6b656e2074797065206973206e6f7420617661696c6160208201527f626c650000000000000000000000000000000000000000000000000000000000604082015250565b600061547a6043836147fb565b9150615485826153f8565b606082019050919050565b600060208201905081810360008301526154a98161546d565b9050919050565b7f4d65746176657273654173736574735265676973747261723a2074686520737060008201527f656369666965642076616c7565206973206e6f7420696e20746865206e66742060208201527f72616e6765000000000000000000000000000000000000000000000000000000604082015250565b60006155326045836147fb565b915061553d826154b0565b606082019050919050565b6000602082019050818103600083015261556181615525565b9050919050565b7f4d65746176657273654173736574735265676973747261723a206e667420747960008201527f7065203020697320726573657276656420666f7220696e76616c6964202f206d60208201527f697373696e67206e6674732c20616e64203120666f72206272616e6473000000604082015250565b60006155ea605d836147fb565b91506155f582615568565b606082019050919050565b60006020820190508181036000830152615619816155dd565b9050919050565b7f455243313135353a2063616c6c6572206973206e6f7420746f6b656e206f776e60008201527f6572206e6f7220617070726f7665640000000000000000000000000000000000602082015250565b600061567c602f836147fb565b915061568782615620565b604082019050919050565b600060208201905081810360008301526156ab8161566f565b9050919050565b7f4272616e6452656769737472793a206e6f7420616c6c6f77656420746f20736560008201527f7420746865206272616e6420726567697374726174696f6e20636f7374000000602082015250565b600061570e603d836147fb565b9150615719826156b2565b604082019050919050565b6000602082019050818103600083015261573d81615701565b9050919050565b7f4272616e6452656769737472793a20746865206272616e64207265676973747260008201527f7920636f7374206d757374206e6f74206265206c657373207468616e20302e3060208201527f31206e617469766520746f6b656e730000000000000000000000000000000000604082015250565b60006157c6604f836147fb565b91506157d182615744565b606082019050919050565b600060208201905081810360008301526157f5816157b9565b9050919050565b7f455243313135353a206163636f756e747320616e6420696473206c656e67746860008201527f206d69736d617463680000000000000000000000000000000000000000000000602082015250565b60006158586029836147fb565b9150615863826157fc565b604082019050919050565b600060208201905081810360008301526158878161584b565b9050919050565b7f4e487b7100000000000000000000000000000000000000000000000000000000600052603260045260246000fd5b7f4e487b7100000000000000000000000000000000000000000000000000000000600052601160045260246000fd5b60006158f782614668565b91507fffffffffffffffffffffffffffffffffffffffffffffffffffffffffffffffff82141561592a576159296158bd565b5b600182019050919050565b7f4272616e6452656769737472793a207573652061206e6f6e2d656d707479206960008201527f6d6167652075726c000000000000000000000000000000000000000000000000602082015250565b60006159916028836147fb565b915061599c82615935565b604082019050919050565b600060208201905081810360008301526159c081615984565b9050919050565b600081905092915050565b60006159dd826147f0565b6159e781856159c7565b93506159f781856020860161480c565b80840191505092915050565b7f20726571756972657320616e206578616374207061796d656e74206f66200000600082015250565b6000615a39601e836159c7565b9150615a4482615a03565b601e82019050919050565b7f2062757420000000000000000000000000000000000000000000000000000000600082015250565b6000615a856005836159c7565b9150615a9082615a4f565b600582019050919050565b7f2077617320676976656e00000000000000000000000000000000000000000000600082015250565b6000615ad1600a836159c7565b9150615adc82615a9b565b600a82019050919050565b6000615af382866159d2565b9150615afe82615a2c565b9150615b0a82856159d2565b9150615b1582615a78565b9150615b2182846159d2565b9150615b2c82615ac4565b9150819050949350505050565b7f7b226e616d65223a220000000000000000000000000000000000000000000000600082015250565b6000615b6f6009836159c7565b9150615b7a82615b39565b600982019050919050565b60008190508160005260206000209050919050565b60008154615ba7816152a2565b615bb181866159c7565b94506001821660008114615bcc5760018114615bdd57615c10565b60ff19831686528186019350615c10565b615be685615b85565b60005b83811015615c0857815481890152600182019150602081019050615be9565b838801955050505b50505092915050565b7f222c226465736372697074696f6e223a22000000000000000000000000000000600082015250565b6000615c4f6011836159c7565b9150615c5a82615c19565b601182019050919050565b7f222c22696d616765223a22000000000000000000000000000000000000000000600082015250565b6000615c9b600b836159c7565b9150615ca682615c65565b600b82019050919050565b7f222c2270726f70657274696573223a7b226368616c6c656e676555726c223a22600082015250565b6000615ce76020836159c7565b9150615cf282615cb1565b602082019050919050565b7f222c2269636f6e3136783136223a220000000000000000000000000000000000600082015250565b6000615d33600f836159c7565b9150615d3e82615cfd565b600f82019050919050565b7f222c2269636f6e3332783332223a220000000000000000000000000000000000600082015250565b6000615d7f600f836159c7565b9150615d8a82615d49565b600f82019050919050565b7f222c2269636f6e3634783634223a220000000000000000000000000000000000600082015250565b6000615dcb600f836159c7565b9150615dd682615d95565b600f82019050919050565b7f222c22636f6d6d6974746564223a000000000000000000000000000000000000600082015250565b6000615e17600e836159c7565b9150615e2282615de1565b600e82019050919050565b7f7d7d000000000000000000000000000000000000000000000000000000000000600082015250565b6000615e636002836159c7565b9150615e6e82615e2d565b600282019050919050565b6000615e8482615b62565b9150615e90828b615b9a565b9150615e9b82615c42565b9150615ea7828a615b9a565b9150615eb282615c8e565b9150615ebe8289615b9a565b9150615ec982615cda565b9150615ed58288615b9a565b9150615ee082615d26565b9150615eec8287615b9a565b9150615ef782615d72565b9150615f038286615b9a565b9150615f0e82615dbe565b9150615f1a8285615b9a565b9150615f2582615e0a565b9150615f3182846159d2565b9150615f3c82615e56565b91508190509998505050505050505050565b7f646174613a6170706c69636174696f6e2f6a736f6e3b6261736536342c000000600082015250565b6000615f84601d836159c7565b9150615f8f82615f4e565b601d82019050919050565b6000615fa582615f77565b9150615fb182846159d2565b915081905092915050565b7f4272616e6452656769737472793a206561726e696e67732063616e6e6f74206260008201527f652077697468647261776e20627920746869732073656e646572000000000000602082015250565b6000616018603a836147fb565b915061602382615fbc565b604082019050919050565b600060208201905081810360008301526160478161600b565b9050919050565b7f4272616e6452656769737472793a206561726e696e677320616d6f756e74206d60008201527f757374206e6f7420626520300000000000000000000000000000000000000000602082015250565b60006160aa602c836147fb565b91506160b58261604e565b604082019050919050565b600060208201905081810360008301526160d98161609d565b9050919050565b7f4272616e6452656769737472793a206561726e696e677320616d6f756e74206960008201527f73206c657373207468616e207468652072657175657374656420616d6f756e74602082015250565b600061613c6040836147fb565b9150616147826160e0565b604082019050919050565b6000602082019050818103600083015261616b8161612f565b9050919050565b600061617d82614668565b915061618883614668565b92508282101561619b5761619a6158bd565b5b828203905092915050565b7f4d65746176657273654173736574735265676973747261723a20756e6b6e6f7760008201527f6e202f206e6f6e2d6d696e7461626c6520746f6b656e20747970652069640000602082015250565b6000616202603e836147fb565b915061620d826161a6565b604082019050919050565b60006020820190508181036000830152616231816161f5565b9050919050565b7f4d65746176657273654173736574735265676973747261723a2074686520737060008201527f656369666965642076616c7565206973206e6f7420696e207468652066756e6760208201527f69626c6520746f6b656e732072616e6765000000000000000000000000000000604082015250565b60006162ba6051836147fb565b91506162c582616238565b606082019050919050565b600060208201905081810360008301526162e9816162ad565b9050919050565b7f4d65746176657273654173736574735265676973747261723a2074686520737060008201527f6563696669656420746f6b656e20696420697320726573657276656420666f7260208201527f206272616e647300000000000000000000000000000000000000000000000000604082015250565b60006163726047836147fb565b915061637d826162f0565b606082019050919050565b600060208201905081810360008301526163a181616365565b9050919050565b7f4d65746176657273654173736574735265676973747261723a2074686520737060008201527f65636966696564206e6674206964206973206e6f7420617661696c61626c6500602082015250565b6000616404603f836147fb565b915061640f826163a8565b604082019050919050565b60006020820190508181036000830152616433816163f7565b9050919050565b7f4d65746176657273654173736574735265676973747261723a2074686520736560008201527f6e646572206973206e6f7420616c6c6f77656420746f20616464206120706c7560208201527f672d696e00000000000000000000000000000000000000000000000000000000604082015250565b60006164bc6044836147fb565b91506164c78261643a565b606082019050919050565b600060208201905081810360008301526164eb816164af565b9050919050565b7f4d65746176657273654173736574735265676973747261723a2074686520616460008201527f647265737320646f6573206e6f742062656c6f6e6720746f20612076616c696460208201527f20706c75672d696e20636f6e747261637420666f722074686973206d6574617660408201527f6572736500000000000000000000000000000000000000000000000000000000606082015250565b600061659a6064836147fb565b91506165a5826164f2565b608082019050919050565b600060208201905081810360008301526165c98161658d565b9050919050565b7f4d65746176657273654173736574735265676973747261723a2074686520706c60008201527f75672d696e20697320616c726561647920616464656420746f2074686973206d60208201527f6574617665727365000000000000000000000000000000000000000000000000604082015250565b60006166526048836147fb565b915061665d826165d0565b606082019050919050565b6000602082019050818103600083015261668181616645565b9050919050565b7f4272616e6452656769737472793a206e6f6e2d6578697374696e67206272616e60008201527f6400000000000000000000000000000000000000000000000000000000000000602082015250565b60006166e46021836147fb565b91506166ef82616688565b604082019050919050565b60006020820190508181036000830152616713816166d7565b9050919050565b7f4272616e6452656769737472793a206e6f7420616c6c6f77656420746f20736560008201527f74206272616e64732720736f6369616c20636f6d6d69746d656e740000000000602082015250565b6000616776603b836147fb565b91506167818261671a565b604082019050919050565b600060208201905081810360008301526167a581616769565b9050919050565b7f4e487b7100000000000000000000000000000000000000000000000000000000600052601260045260246000fd5b60006167e682614668565b91506167f183614668565b925082616801576168006167ac565b5b828204905092915050565b600061681782614668565b915061682283614668565b925082616832576168316167ac565b5b828206905092915050565b600061684882614668565b915061685383614668565b9250827fffffffffffffffffffffffffffffffffffffffffffffffffffffffffffffffff03821115616888576168876158bd565b5b828201905092915050565b7f4272616e6452656769737472793a207573652061206e6f6e2d656d707479206e60008201527f616d650000000000000000000000000000000000000000000000000000000000602082015250565b60006168ef6023836147fb565b91506168fa82616893565b604082019050919050565b6000602082019050818103600083015261691e816168e2565b9050919050565b7f4272616e6452656769737472793a207573652061206e6f6e2d656d707479206460008201527f65736372697074696f6e00000000000000000000000000000000000000000000602082015250565b6000616981602a836147fb565b915061698c82616925565b604082019050919050565b600060208201905081810360008301526169b081616974565b9050919050565b60007fff0000000000000000000000000000000000000000000000000000000000000082169050919050565b6000819050919050565b6169fe6169f9826169b7565b6169e3565b82525050565b60008160601b9050919050565b6000616a1c82616a04565b9050919050565b6000616a2e82616a11565b9050919050565b616a46616a418261462a565b616a23565b82525050565b6000819050919050565b6000819050919050565b616a71616a6c82616a4c565b616a56565b82525050565b6000616a8382886169ed565b600182019150616a9382876169ed565b600182019150616aa38286616a35565b601482019150616ab38285616a35565b601482019150616ac38284616a60565b6020820191508190509695505050505050565b60006060820190508181036000830152616af08186614850565b90508181036020830152616b048185614850565b9050616b1360408301846146de565b949350505050565b6000616b2682614668565b9150616b3183614668565b9250817fffffffffffffffffffffffffffffffffffffffffffffffffffffffffffffffff0483118215151615616b6a57616b696158bd565b5b828202905092915050565b7f455243313135353a2073657474696e6720617070726f76616c2073746174757360008201527f20666f722073656c660000000000000000000000000000000000000000000000602082015250565b6000616bd16029836147fb565b9150616bdc82616b75565b604082019050919050565b60006020820190508181036000830152616c0081616bc4565b9050919050565b6000616c1a616c1584614930565b614915565b905082815260208101848484011115616c3657616c356148b0565b5b616c4184828561480c565b509392505050565b600082601f830112616c5e57616c5d6148ab565b5b8151616c6e848260208601616c07565b91505092915050565b600060208284031215616c8d57616c8c614600565b5b600082015167ffffffffffffffff811115616cab57616caa614605565b5b616cb784828501616c49565b91505092915050565b600081519050616ccf8161463c565b92915050565b600060208284031215616ceb57616cea614600565b5b6000616cf984828501616cc0565b91505092915050565b7f455243313135353a2069647320616e6420616d6f756e7473206c656e6774682060008201527f6d69736d61746368000000000000000000000000000000000000000000000000602082015250565b6000616d5e6028836147fb565b9150616d6982616d02565b604082019050919050565b60006020820190508181036000830152616d8d81616d51565b9050919050565b7f455243313135353a207472616e7366657220746f20746865207a65726f20616460008201527f6472657373000000000000000000000000000000000000000000000000000000602082015250565b6000616df06025836147fb565b9150616dfb82616d94565b604082019050919050565b60006020820190508181036000830152616e1f81616de3565b9050919050565b7f455243313135353a20696e73756666696369656e742062616c616e636520666f60008201527f72207472616e7366657200000000000000000000000000000000000000000000602082015250565b6000616e82602a836147fb565b9150616e8d82616e26565b604082019050919050565b60006020820190508181036000830152616eb181616e75565b9050919050565b60006040820190508181036000830152616ed28185614e3c565b90508181036020830152616ee68184614e3c565b90509392505050565b7f455243313135353a206d696e7420746f20746865207a65726f2061646472657360008201527f7300000000000000000000000000000000000000000000000000000000000000602082015250565b6000616f4b6021836147fb565b9150616f5682616eef565b604082019050919050565b60006020820190508181036000830152616f7a81616f3e565b9050919050565b6000604082019050616f9660008301856146de565b616fa360208301846146de565b9392505050565b600081519050919050565b600082825260208201905092915050565b6000616fd182616faa565b616fdb8185616fb5565b9350616feb81856020860161480c565b616ff48161483f565b840191505092915050565b600060a0820190506170146000830188614ff1565b6170216020830187614ff1565b81810360408301526170338186614e3c565b905081810360608301526170478185614e3c565b9050818103608083015261705b8184616fc6565b90509695505050505050565b60008151905061707681614734565b92915050565b60006020828403121561709257617091614600565b5b60006170a084828501617067565b91505092915050565b60008160e01c9050919050565b600060033d11156170d55760046000803e6170d26000516170a9565b90505b90565b600060443d10156170e85761716b565b6170f06145f6565b60043d036004823e80513d602482011167ffffffffffffffff8211171561711857505061716b565b808201805167ffffffffffffffff811115617136575050505061716b565b80602083010160043d03850181111561715357505050505061716b565b617162826020018501866148e4565b82955050505050505b90565b7f455243313135353a207472616e7366657220746f206e6f6e204552433131353560008201527f526563656976657220696d706c656d656e746572000000000000000000000000602082015250565b60006171ca6034836147fb565b91506171d58261716e565b604082019050919050565b600060208201905081810360008301526171f9816171bd565b9050919050565b7f455243313135353a204552433131353552656365697665722072656a6563746560008201527f6420746f6b656e73000000000000000000000000000000000000000000000000602082015250565b600061725c6028836147fb565b915061726782617200565b604082019050919050565b6000602082019050818103600083015261728b8161724f565b9050919050565b600060a0820190506172a76000830188614ff1565b6172b46020830187614ff1565b6172c160408301866146de565b6172ce60608301856146de565b81810360808301526172e08184616fc6565b90509695505050505050565b6172f581614708565b82525050565b600060208201905061731060008301846172ec565b92915050565b600081905092915050565b600061732c82616faa565b6173368185617316565b935061734681856020860161480c565b80840191505092915050565b600061735e8284617321565b915081905092915050565b6000815190506173788161509e565b92915050565b60006020828403121561739457617393614600565b5b60006173a284828501617369565b9150509291505056fe53616d706c6545524331313535576974684272616e6452656769737472793a2074657374205f6d696e744272616e64466f724142434445464748494a4b4c4d4e4f505152535455565758595a6162636465666768696a6b6c6d6e6f707172737475767778797a303132333435363738392b2f4272616e6452656769737472793a206272616e6420726567697374726174696f6ea26469706673582212208f265922c16cd56d3a0f6ef797badb25f3664417d1bca6c8c12201461a23f1d864736f6c634300080a0033",
  "immutableReferences": {},
  "source": "// SPDX-License-Identifier: MIT\npragma solidity >=0.8 <0.9.0;\n\nimport \"@openzeppelin/contracts/token/ERC1155/ERC1155.sol\";\nimport \"../MetaverseAssetsRegistrar.sol\";\n\n/**\n * This is a sample metaverse. It has brand registry and the\n * metaverse core.\n */\ncontract SampleMetaverseCore is ERC1155, MetaverseAssetsRegistrar {\n    address public owner;\n\n    constructor() ERC1155(\"about:blank\") {\n        owner = msg.sender;\n    }\n\n    function _canSetBrandRegistrationCost(address _sender) internal override view returns (bool) {\n        return owner == _sender;\n    }\n\n    function _mintBrandFor(address _to, address _brandId) internal override {\n        _mint(_to, uint256(uint160(_brandId)), 1, \"SampleERC1155WithBrandRegistry: test _mintBrandFor\");\n    }\n\n    function _isBrandOwnerApprovedEditor(address _brandOwner, address _sender) internal view override returns (bool) {\n        return isApprovedForAll(_brandOwner, _sender);\n    }\n\n    function _canWithdrawBrandRegistrationEarnings(address _sender) internal view override returns (bool) {\n        return owner == _sender;\n    }\n\n    function _canSetBrandCommitment(address _sender) internal view override returns (bool) {\n        return owner == _sender;\n    }\n\n    function _safeTransferFrom(\n        address from,\n        address to,\n        uint256 id,\n        uint256 amount,\n        bytes memory data\n    ) internal override {\n        super._safeTransferFrom(from, to, id, amount, data);\n        if (id < (1 << 160)) {\n            _setBrandOwner(address(uint160(id)), to);\n        }\n    }\n\n    function _safeBatchTransferFrom(\n        address from,\n        address to,\n        uint256[] memory ids,\n        uint256[] memory amounts,\n        bytes memory data\n    ) internal override {\n        super._safeBatchTransferFrom(from, to, ids, amounts, data);\n        for(uint256 index = 0; index < amounts.length; index++) {\n            if (ids[index] < (1 << 160) && amounts[index] != 0) {\n                _setBrandOwner(address(uint160(ids[index])), to);\n            }\n        }\n    }\n\n    function _canAddPlugin(address _sender) internal view override returns (bool) {\n        return owner == _sender;\n    }\n\n    function _mintFor(address _to, uint256 _tokenId, uint256 _amount, bytes memory _data) internal override {\n        _mint(_to, _tokenId, _amount, _data);\n    }\n\n    function _burn(address _from, uint256 _tokenId, uint256 _amount) internal override {\n        super._burn(_from, _tokenId, _amount);\n        _tokenBurned(_from, _tokenId, _amount);\n    }\n\n    function _burnBatch(address _from, uint256[] memory _tokenIds, uint256[] memory _amounts) internal override {\n        super._burnBatch(_from, _tokenIds, _amounts);\n        _tokensBurned(_from, _tokenIds, _amounts);\n    }\n}",
  "sourcePath": "/home/luismasuelli/Projects/OuterMaze/lingr-contracts/contracts/lingr/samples/SampleMetaverseCore.sol",
  "compiler": {
    "name": "solc",
    "version": "0.8.10+commit.fc410830.Emscripten.clang"
  },
  "schemaVersion": "3.4.3",
  "updatedAt": "2022-08-07T13:21:15.116Z",
  "devdoc": {
    "kind": "dev",
    "methods": {
      "balanceOf(address,uint256)": {
        "details": "See {IERC1155-balanceOf}. Requirements: - `account` cannot be the zero address."
      },
      "balanceOfBatch(address[],uint256[])": {
        "details": "See {IERC1155-balanceOfBatch}. Requirements: - `accounts` and `ids` must have the same length."
      },
      "isApprovedForAll(address,address)": {
        "details": "See {IERC1155-isApprovedForAll}."
      },
      "safeBatchTransferFrom(address,address,uint256[],uint256[],bytes)": {
        "details": "See {IERC1155-safeBatchTransferFrom}."
      },
      "safeTransferFrom(address,address,uint256,uint256,bytes)": {
        "details": "See {IERC1155-safeTransferFrom}."
      },
      "setApprovalForAll(address,bool)": {
        "details": "See {IERC1155-setApprovalForAll}."
      },
      "supportsInterface(bytes4)": {
        "details": "See {IERC165-supportsInterface}."
      },
      "uri(uint256)": {
        "details": "See {IERC1155MetadataURI-uri}. This implementation returns the same URI for *all* token types. It relies on the token type ID substitution mechanism https://eips.ethereum.org/EIPS/eip-1155#metadata[defined in the EIP]. Clients calling this function must replace the `\\{id\\}` substring with the actual token type ID."
      }
    },
    "version": 1
  },
  "userdoc": {
    "events": {
      "BrandEarningsWithdrawn(address,uint256)": {
        "notice": "This event is triggered when brand earnings were withdrawn successfully."
      },
      "BrandRegistered(address,address,string,string,uint256)": {
        "notice": "This event is triggered when a brand is registered. The new address is also included, along some reference data."
      },
      "BrandRegistrationCostUpdated(uint256)": {
        "notice": "An event for when the brand registration cost is updated."
      },
      "BrandSocialCommitmentUpdated(address,address,bool)": {
        "notice": "This event is triggered when a brand is updated with respect to its social commitment (this is: to tell a brand is socially committed according to the metaverse's views or not). Special benefits (in particular, with respect to assets loading on customers) are given in clients to socially committed brands."
      },
      "BrandUpdated(address,address)": {
        "notice": "This event is triggered when a brand is registered. The new address is also included, along some reference data."
      }
    },
    "kind": "user",
    "methods": {
      "addPlugin(address)": {
        "notice": "Adds a plug-in contract to this metaverse."
      },
      "brandExists(address)": {
        "notice": "Tells whether an address corresponds to a registered brand or not."
      },
      "brandMetadataURI(address)": {
        "notice": "Assembles the whole metadata for a brand. WARNING: This method will consume a lot of gas if invoked inside a transaction, so it is recommended to invoke this method in the context of a CALL, and never in the context of a SEND (even as part of other contract's code)."
      },
      "brandRegistrationCost()": {
        "notice": "The cost to register a new brand. This can be changed in the future and must be able to be known in the ABI for the users to be aware of the statistic."
      },
      "brandRegistrationCurrentEarnings()": {
        "notice": "Tells the current earnings, not yet withdrawn, from brand registrations."
      },
      "defineFTType(uint256)": {
        "notice": "Defines the resolution of a fungible token type. The token id must be in the range of the fungible token ids."
      },
      "defineNFTType(uint256)": {
        "notice": "Defines the resolution of a non-fungible token type. The token id must be in the range of the fungible token (type) ids (strictly > 0, strictly < (1 << 255))."
      },
      "mintFTFor(address,uint256,uint256,bytes)": {
        "notice": "Mints a specific fungible token type, in a certain amount."
      },
      "mintNFTFor(address,uint256,uint256,bytes)": {
        "notice": "Mints a specific non-fungible token type, using a specific id (and always using an amount of 1). It is an error if the token id is already minted, or the chosen id is < (1 << 160) since those ids are reserved for brands."
      },
      "nftTypes(uint256)": {
        "notice": "Now, each NFT id will be registered here along its token type. The difference with the fungible tokens (they're already registered in the `tokenTypes` mapping) is that they need to be registered with a particular token type. Also, both the NFT id and its associated token type will be lower than (1<<255) since, otherwise, they would be using values corresponding to the FT side (both for IDs and type indices). Brand NFTs are not included in this mapping (they are only characterized by being < (1 << 160))."
      },
      "plugins(address)": {
        "notice": "This is the list of plug-ins that are being added to the hub. Each contract has its separate logic but they have access to the same set of features. Once a contract is added, it will never be removed from this list. This mapping tells whether a contract in particular has permission(s) to define a type and mint tokens for an address."
      },
      "registerBrand(string,string,string,string,string,string)": {
        "notice": "Registers a new brand, when the appropriate price is paid for it. For more details on how this method works, check _registerBrand's inline documentation."
      },
      "setBrandRegistrationCost(uint256)": {
        "notice": "Sets the new brand registration cost."
      },
      "tokenTypeResolvers(uint256)": {
        "notice": "Types are identified as integer values, and each registered type will have a non-zero responsible address (serving to metadata resolution and also to account for the existence of a given type). The type 1 (0x1) will be the first type, and actually it will be the brand type. Other NFT types will be registered using indices lower to (1<<255), while FT types will be registered using indices greater than or equal to that value (i.e. starting with binary {1}). In the case of the FTs, the index in this mapping is also their token id. This is not the same for NFTs (they have one extra level of indirection since multiple ids might share the same type). A special type id will be regarded as invalid type (i.e. it will not count as NFT nor FT type, but as a non-existent type): 0 (0x0). The responsible serves two purposes: The first one, is to resolve the metadata of a given token id (be it FT or NFT). The second one is to account for one of such tokens being burned. The responsible will actually be one of the registered plug-ins, on each case (save for the brands case, which is resolved by this contract, and the invalid case, which has no resolver)."
      },
      "tokenURI(uint256)": {
        "notice": "Retrieves the metadata uri of a given token. WARNING: This method will consume a lot of gas if invoked inside a transaction, so it is recommended to invoke this method in the context of a CALL, and never in the context of a SEND (even as part of other contract's code)."
      },
      "updateBrandChallengeUrl(address,string)": {
        "notice": "Updates the brand's challenge url. Only the owner of the brand or an approved account can invoke this method. Ensure the url is empty or a valid URL, or metadata might fail to be assembled into valid JSON."
      },
      "updateBrandIcon16x16Url(address,string)": {
        "notice": "Updates the brand's 16x16 icon url. Only the owner of the brand or an approved account can invoke this method. Ensure the _icon is empty or a valid URL, or metadata might fail to be assembled into valid JSON."
      },
      "updateBrandIcon32x32Url(address,string)": {
        "notice": "Updates the brand's 32x32 icon url. Only the owner of the brand or an approved account can invoke this method. Ensure the _icon is empty or a valid URL, or metadata might fail to be assembled into valid JSON."
      },
      "updateBrandIcon64x64Url(address,string)": {
        "notice": "Updates the brand's 64x64 icon url. Only the owner of the brand or an approved account can invoke this method. Ensure the _icon is empty or a valid URL, or metadata might fail to be assembled into valid JSON."
      },
      "updateBrandImage(address,string)": {
        "notice": "Updates the brand image. Only the owner of the brand or an approved account can invoke this method. Ensure the _image is empty or a valid URL, or metadata might fail to be assembled into valid JSON."
      },
      "updateBrandSocialCommitment(address,bool)": {
        "notice": "Updates whether a brand is socially committed or not."
      },
      "withdrawBrandRegistrationEarnings(uint256)": {
        "notice": "Allows the sender to withdraw brand registration earnings."
      }
    },
    "notice": "This is a sample metaverse. It has brand registry and the metaverse core.",
    "version": 1
  }
}