{
  "contractName": "SampleMetaverseCore",
  "abi": [
    {
      "inputs": [],
      "stateMutability": "nonpayable",
      "type": "constructor"
    },
    {
      "anonymous": false,
      "inputs": [
        {
          "indexed": true,
          "internalType": "address",
          "name": "account",
          "type": "address"
        },
        {
          "indexed": true,
          "internalType": "address",
          "name": "operator",
          "type": "address"
        },
        {
          "indexed": false,
          "internalType": "bool",
          "name": "approved",
          "type": "bool"
        }
      ],
      "name": "ApprovalForAll",
      "type": "event"
    },
    {
      "anonymous": false,
      "inputs": [
        {
          "indexed": true,
          "internalType": "address",
          "name": "withdrawnBy",
          "type": "address"
        },
        {
          "indexed": false,
          "internalType": "uint256",
          "name": "amount",
          "type": "uint256"
        }
      ],
      "name": "BrandEarningsWithdrawn",
      "type": "event"
    },
    {
      "anonymous": false,
      "inputs": [
        {
          "indexed": true,
          "internalType": "address",
          "name": "registeredBy",
          "type": "address"
        },
        {
          "indexed": true,
          "internalType": "address",
          "name": "brandId",
          "type": "address"
        },
        {
          "indexed": false,
          "internalType": "string",
          "name": "name",
          "type": "string"
        },
        {
          "indexed": false,
          "internalType": "string",
          "name": "description",
          "type": "string"
        },
        {
          "indexed": false,
          "internalType": "uint256",
          "name": "price",
          "type": "uint256"
        }
      ],
      "name": "BrandRegistered",
      "type": "event"
    },
    {
      "anonymous": false,
      "inputs": [
        {
          "indexed": false,
          "internalType": "uint256",
          "name": "newCost",
          "type": "uint256"
        }
      ],
      "name": "BrandRegistrationCostUpdated",
      "type": "event"
    },
    {
      "anonymous": false,
      "inputs": [
        {
          "indexed": true,
          "internalType": "address",
          "name": "updatedBy",
          "type": "address"
        },
        {
          "indexed": true,
          "internalType": "address",
          "name": "brand",
          "type": "address"
        },
        {
          "indexed": false,
          "internalType": "bool",
          "name": "committed",
          "type": "bool"
        }
      ],
      "name": "BrandSocialCommitmentUpdated",
      "type": "event"
    },
    {
      "anonymous": false,
      "inputs": [
        {
          "indexed": true,
          "internalType": "address",
          "name": "updatedBy",
          "type": "address"
        },
        {
          "indexed": true,
          "internalType": "address",
          "name": "brandId",
          "type": "address"
        }
      ],
      "name": "BrandUpdated",
      "type": "event"
    },
    {
      "anonymous": false,
      "inputs": [
        {
          "indexed": true,
          "internalType": "address",
          "name": "operator",
          "type": "address"
        },
        {
          "indexed": true,
          "internalType": "address",
          "name": "from",
          "type": "address"
        },
        {
          "indexed": true,
          "internalType": "address",
          "name": "to",
          "type": "address"
        },
        {
          "indexed": false,
          "internalType": "uint256[]",
          "name": "ids",
          "type": "uint256[]"
        },
        {
          "indexed": false,
          "internalType": "uint256[]",
          "name": "values",
          "type": "uint256[]"
        }
      ],
      "name": "TransferBatch",
      "type": "event"
    },
    {
      "anonymous": false,
      "inputs": [
        {
          "indexed": true,
          "internalType": "address",
          "name": "operator",
          "type": "address"
        },
        {
          "indexed": true,
          "internalType": "address",
          "name": "from",
          "type": "address"
        },
        {
          "indexed": true,
          "internalType": "address",
          "name": "to",
          "type": "address"
        },
        {
          "indexed": false,
          "internalType": "uint256",
          "name": "id",
          "type": "uint256"
        },
        {
          "indexed": false,
          "internalType": "uint256",
          "name": "value",
          "type": "uint256"
        }
      ],
      "name": "TransferSingle",
      "type": "event"
    },
    {
      "anonymous": false,
      "inputs": [
        {
          "indexed": false,
          "internalType": "string",
          "name": "value",
          "type": "string"
        },
        {
          "indexed": true,
          "internalType": "uint256",
          "name": "id",
          "type": "uint256"
        }
      ],
      "name": "URI",
      "type": "event"
    },
    {
      "inputs": [
        {
          "internalType": "address",
          "name": "_contract",
          "type": "address"
        }
      ],
      "name": "addPlugin",
      "outputs": [],
      "stateMutability": "nonpayable",
      "type": "function"
    },
    {
      "inputs": [
        {
          "internalType": "address",
          "name": "account",
          "type": "address"
        },
        {
          "internalType": "uint256",
          "name": "id",
          "type": "uint256"
        }
      ],
      "name": "balanceOf",
      "outputs": [
        {
          "internalType": "uint256",
          "name": "",
          "type": "uint256"
        }
      ],
      "stateMutability": "view",
      "type": "function"
    },
    {
      "inputs": [
        {
          "internalType": "address[]",
          "name": "accounts",
          "type": "address[]"
        },
        {
          "internalType": "uint256[]",
          "name": "ids",
          "type": "uint256[]"
        }
      ],
      "name": "balanceOfBatch",
      "outputs": [
        {
          "internalType": "uint256[]",
          "name": "",
          "type": "uint256[]"
        }
      ],
      "stateMutability": "view",
      "type": "function"
    },
    {
      "inputs": [
        {
          "internalType": "address",
          "name": "_brandId",
          "type": "address"
        }
      ],
      "name": "brandExists",
      "outputs": [
        {
          "internalType": "bool",
          "name": "",
          "type": "bool"
        }
      ],
      "stateMutability": "view",
      "type": "function"
    },
    {
      "inputs": [
        {
          "internalType": "address",
          "name": "_brandId",
          "type": "address"
        }
      ],
      "name": "brandMetadataURI",
      "outputs": [
        {
          "internalType": "string",
          "name": "",
          "type": "string"
        }
      ],
      "stateMutability": "view",
      "type": "function"
    },
    {
      "inputs": [],
      "name": "brandRegistrationCost",
      "outputs": [
        {
          "internalType": "uint256",
          "name": "",
          "type": "uint256"
        }
      ],
      "stateMutability": "view",
      "type": "function"
    },
    {
      "inputs": [],
      "name": "brandRegistrationCurrentEarnings",
      "outputs": [
        {
          "internalType": "uint256",
          "name": "",
          "type": "uint256"
        }
      ],
      "stateMutability": "view",
      "type": "function"
    },
    {
      "inputs": [
        {
          "internalType": "uint256",
          "name": "_tokenId",
          "type": "uint256"
        }
      ],
      "name": "defineFTType",
      "outputs": [],
      "stateMutability": "nonpayable",
      "type": "function"
    },
    {
      "inputs": [
        {
          "internalType": "uint256",
          "name": "_tokenId",
          "type": "uint256"
        }
      ],
      "name": "defineNFTType",
      "outputs": [],
      "stateMutability": "nonpayable",
      "type": "function"
    },
    {
      "inputs": [
        {
          "internalType": "address",
          "name": "account",
          "type": "address"
        },
        {
          "internalType": "address",
          "name": "operator",
          "type": "address"
        }
      ],
      "name": "isApprovedForAll",
      "outputs": [
        {
          "internalType": "bool",
          "name": "",
          "type": "bool"
        }
      ],
      "stateMutability": "view",
      "type": "function"
    },
    {
      "inputs": [
        {
          "internalType": "address",
          "name": "_to",
          "type": "address"
        },
        {
          "internalType": "uint256",
          "name": "_tokenId",
          "type": "uint256"
        },
        {
          "internalType": "uint256",
          "name": "_amount",
          "type": "uint256"
        },
        {
          "internalType": "bytes",
          "name": "_data",
          "type": "bytes"
        }
      ],
      "name": "mintFTFor",
      "outputs": [],
      "stateMutability": "nonpayable",
      "type": "function"
    },
    {
      "inputs": [
        {
          "internalType": "address",
          "name": "_to",
          "type": "address"
        },
        {
          "internalType": "uint256",
          "name": "_tokenId",
          "type": "uint256"
        },
        {
          "internalType": "uint256",
          "name": "_tokenType",
          "type": "uint256"
        },
        {
          "internalType": "bytes",
          "name": "_data",
          "type": "bytes"
        }
      ],
      "name": "mintNFTFor",
      "outputs": [],
      "stateMutability": "nonpayable",
      "type": "function"
    },
    {
      "inputs": [
        {
          "internalType": "uint256",
          "name": "",
          "type": "uint256"
        }
      ],
      "name": "nftTypes",
      "outputs": [
        {
          "internalType": "uint256",
          "name": "",
          "type": "uint256"
        }
      ],
      "stateMutability": "view",
      "type": "function"
    },
    {
      "inputs": [],
      "name": "owner",
      "outputs": [
        {
          "internalType": "address",
          "name": "",
          "type": "address"
        }
      ],
      "stateMutability": "view",
      "type": "function"
    },
    {
      "inputs": [
        {
          "internalType": "address",
          "name": "",
          "type": "address"
        }
      ],
      "name": "plugins",
      "outputs": [
        {
          "internalType": "bool",
          "name": "",
          "type": "bool"
        }
      ],
      "stateMutability": "view",
      "type": "function"
    },
    {
      "inputs": [
        {
          "internalType": "string",
          "name": "_name",
          "type": "string"
        },
        {
          "internalType": "string",
          "name": "_description",
          "type": "string"
        },
        {
          "internalType": "string",
          "name": "_image",
          "type": "string"
        },
        {
          "internalType": "string",
          "name": "_icon16x16",
          "type": "string"
        },
        {
          "internalType": "string",
          "name": "_icon32x32",
          "type": "string"
        },
        {
          "internalType": "string",
          "name": "_icon64x64",
          "type": "string"
        }
      ],
      "name": "registerBrand",
      "outputs": [],
      "stateMutability": "payable",
      "type": "function"
    },
    {
      "inputs": [
        {
          "internalType": "address",
          "name": "from",
          "type": "address"
        },
        {
          "internalType": "address",
          "name": "to",
          "type": "address"
        },
        {
          "internalType": "uint256[]",
          "name": "ids",
          "type": "uint256[]"
        },
        {
          "internalType": "uint256[]",
          "name": "amounts",
          "type": "uint256[]"
        },
        {
          "internalType": "bytes",
          "name": "data",
          "type": "bytes"
        }
      ],
      "name": "safeBatchTransferFrom",
      "outputs": [],
      "stateMutability": "nonpayable",
      "type": "function"
    },
    {
      "inputs": [
        {
          "internalType": "address",
          "name": "from",
          "type": "address"
        },
        {
          "internalType": "address",
          "name": "to",
          "type": "address"
        },
        {
          "internalType": "uint256",
          "name": "id",
          "type": "uint256"
        },
        {
          "internalType": "uint256",
          "name": "amount",
          "type": "uint256"
        },
        {
          "internalType": "bytes",
          "name": "data",
          "type": "bytes"
        }
      ],
      "name": "safeTransferFrom",
      "outputs": [],
      "stateMutability": "nonpayable",
      "type": "function"
    },
    {
      "inputs": [
        {
          "internalType": "address",
          "name": "operator",
          "type": "address"
        },
        {
          "internalType": "bool",
          "name": "approved",
          "type": "bool"
        }
      ],
      "name": "setApprovalForAll",
      "outputs": [],
      "stateMutability": "nonpayable",
      "type": "function"
    },
    {
      "inputs": [
        {
          "internalType": "uint256",
          "name": "_newCost",
          "type": "uint256"
        }
      ],
      "name": "setBrandRegistrationCost",
      "outputs": [],
      "stateMutability": "nonpayable",
      "type": "function"
    },
    {
      "inputs": [
        {
          "internalType": "bytes4",
          "name": "interfaceId",
          "type": "bytes4"
        }
      ],
      "name": "supportsInterface",
      "outputs": [
        {
          "internalType": "bool",
          "name": "",
          "type": "bool"
        }
      ],
      "stateMutability": "view",
      "type": "function"
    },
    {
      "inputs": [
        {
          "internalType": "uint256",
          "name": "",
          "type": "uint256"
        }
      ],
      "name": "tokenTypeResolvers",
      "outputs": [
        {
          "internalType": "address",
          "name": "",
          "type": "address"
        }
      ],
      "stateMutability": "view",
      "type": "function"
    },
    {
      "inputs": [
        {
          "internalType": "uint256",
          "name": "_tokenId",
          "type": "uint256"
        }
      ],
      "name": "tokenURI",
      "outputs": [
        {
          "internalType": "string",
          "name": "",
          "type": "string"
        }
      ],
      "stateMutability": "view",
      "type": "function"
    },
    {
      "inputs": [
        {
          "internalType": "address",
          "name": "_brandId",
          "type": "address"
        },
        {
          "internalType": "string",
          "name": "_challengeUrl",
          "type": "string"
        }
      ],
      "name": "updateBrandChallengeUrl",
      "outputs": [],
      "stateMutability": "nonpayable",
      "type": "function"
    },
    {
      "inputs": [
        {
          "internalType": "address",
          "name": "_brandId",
          "type": "address"
        },
        {
          "internalType": "string",
          "name": "_icon",
          "type": "string"
        }
      ],
      "name": "updateBrandIcon16x16Url",
      "outputs": [],
      "stateMutability": "nonpayable",
      "type": "function"
    },
    {
      "inputs": [
        {
          "internalType": "address",
          "name": "_brandId",
          "type": "address"
        },
        {
          "internalType": "string",
          "name": "_icon",
          "type": "string"
        }
      ],
      "name": "updateBrandIcon32x32Url",
      "outputs": [],
      "stateMutability": "nonpayable",
      "type": "function"
    },
    {
      "inputs": [
        {
          "internalType": "address",
          "name": "_brandId",
          "type": "address"
        },
        {
          "internalType": "string",
          "name": "_icon",
          "type": "string"
        }
      ],
      "name": "updateBrandIcon64x64Url",
      "outputs": [],
      "stateMutability": "nonpayable",
      "type": "function"
    },
    {
      "inputs": [
        {
          "internalType": "address",
          "name": "_brandId",
          "type": "address"
        },
        {
          "internalType": "string",
          "name": "_image",
          "type": "string"
        }
      ],
      "name": "updateBrandImage",
      "outputs": [],
      "stateMutability": "nonpayable",
      "type": "function"
    },
    {
      "inputs": [
        {
          "internalType": "address",
          "name": "_brandId",
          "type": "address"
        },
        {
          "internalType": "bool",
          "name": "_committed",
          "type": "bool"
        }
      ],
      "name": "updateBrandSocialCommitment",
      "outputs": [],
      "stateMutability": "nonpayable",
      "type": "function"
    },
    {
      "inputs": [
        {
          "internalType": "uint256",
          "name": "",
          "type": "uint256"
        }
      ],
      "name": "uri",
      "outputs": [
        {
          "internalType": "string",
          "name": "",
          "type": "string"
        }
      ],
      "stateMutability": "view",
      "type": "function"
    },
    {
      "inputs": [
        {
          "internalType": "uint256",
          "name": "amount",
          "type": "uint256"
        }
      ],
      "name": "withdrawBrandRegistrationEarnings",
      "outputs": [],
      "stateMutability": "nonpayable",
      "type": "function"
    },
    {
      "inputs": [
        {
          "internalType": "address",
          "name": "_brandId",
          "type": "address"
        }
      ],
      "name": "_brandURI",
      "outputs": [
        {
          "internalType": "string",
          "name": "",
          "type": "string"
        }
      ],
      "stateMutability": "view",
      "type": "function"
    }
  ],
  "bytecode": "0x60806040523480156200001157600080fd5b506040518060400160405280600b81526020017f61626f75743a626c616e6b0000000000000000000000000000000000000000008152506200005981620000a160201b60201c565b5033600760006101000a81548173ffffffffffffffffffffffffffffffffffffffff021916908373ffffffffffffffffffffffffffffffffffffffff160217905550620001d2565b8060029080519060200190620000b9929190620000bd565b5050565b828054620000cb906200019c565b90600052602060002090601f016020900481019282620000ef57600085556200013b565b82601f106200010a57805160ff19168380011785556200013b565b828001600101855582156200013b579182015b828111156200013a5782518255916020019190600101906200011d565b5b5090506200014a91906200014e565b5090565b5b80821115620001695760008160009055506001016200014f565b5090565b7f4e487b7100000000000000000000000000000000000000000000000000000000600052602260045260246000fd5b60006002820490506001821680620001b557607f821691505b60208210811415620001cc57620001cb6200016d565b5b50919050565b6173ea80620001e26000396000f3fe6080604052600436106101e25760003560e01c806378df8fb711610102578063ab21afb511610095578063d8867fc811610064578063d8867fc814610738578063e985e9c514610761578063f242432a1461079e578063feb532fd146107c7576101e2565b8063ab21afb51461066c578063b2863cc114610695578063c87b56dd146106be578063d053bfa1146106fb576101e2565b80639896c31d116100d15780639896c31d146105b457806399de09ff146105f1578063a16bc2ae1461061a578063a22cb46514610643576101e2565b806378df8fb7146104e657806379b2ab231461050f5780637d5555df1461054c5780638da5cb5b14610589576101e2565b80633c1213fb1161017a5780634e1273f4116101495780634e1273f41461043b57806351a8de601461047857806352ea8a36146104a157806370e979fb146104ca576101e2565b80633c1213fb146103815780633e49d925146103aa57806343779197146103d55780634b12e643146103fe576101e2565b80631cf0d10a116101b65780631cf0d10a146102c957806320c6940b1461030657806328c90cd91461032f5780632eb2c2d614610358576101e2565b8062fdd58e146101e757806301ffc9a7146102245780630e89341c146102615780630f73da861461029e575b600080fd5b3480156101f357600080fd5b5061020e600480360381019061020991906146f8565b6107f0565b60405161021b9190614747565b60405180910390f35b34801561023057600080fd5b5061024b600480360381019061024691906147ba565b6108b9565b6040516102589190614802565b60405180910390f35b34801561026d57600080fd5b506102886004803603810190610283919061481d565b61099b565b60405161029591906148e3565b60405180910390f35b3480156102aa57600080fd5b506102b3610a2f565b6040516102c09190614747565b60405180910390f35b3480156102d557600080fd5b506102f060048036038101906102eb9190614905565b610a35565b6040516102fd91906148e3565b60405180910390f35b34801561031257600080fd5b5061032d60048036038101906103289190614a67565b610a47565b005b34801561033b57600080fd5b506103566004803603810190610351919061481d565b610c32565b005b34801561036457600080fd5b5061037f600480360381019061037a9190614c2c565b610e6c565b005b34801561038d57600080fd5b506103a860048036038101906103a39190614a67565b610f0d565b005b3480156103b657600080fd5b506103bf6110f8565b6040516103cc9190614747565b60405180910390f35b3480156103e157600080fd5b506103fc60048036038101906103f7919061481d565b6110fe565b005b34801561040a57600080fd5b5061042560048036038101906104209190614905565b6111d8565b6040516104329190614802565b60405180910390f35b34801561044757600080fd5b50610462600480360381019061045d9190614dbe565b6111f8565b60405161046f9190614ef4565b60405180910390f35b34801561048457600080fd5b5061049f600480360381019061049a9190614a67565b611311565b005b3480156104ad57600080fd5b506104c860048036038101906104c39190614a67565b611541565b005b6104e460048036038101906104df9190614f16565b61172c565b005b3480156104f257600080fd5b5061050d60048036038101906105089190614a67565b6117e1565b005b34801561051b57600080fd5b506105366004803603810190610531919061481d565b6119cc565b6040516105439190614747565b60405180910390f35b34801561055857600080fd5b50610573600480360381019061056e9190614905565b6119e4565b6040516105809190614802565b60405180910390f35b34801561059557600080fd5b5061059e611a7f565b6040516105ab919061505a565b60405180910390f35b3480156105c057600080fd5b506105db60048036038101906105d69190614905565b611aa5565b6040516105e891906148e3565b60405180910390f35b3480156105fd57600080fd5b506106186004803603810190610613919061481d565b611c55565b005b34801561062657600080fd5b50610641600480360381019061063c9190615075565b611d95565b005b34801561064f57600080fd5b5061066a60048036038101906106659190615124565b611f44565b005b34801561067857600080fd5b50610693600480360381019061068e919061481d565b611f5a565b005b3480156106a157600080fd5b506106bc60048036038101906106b79190615075565b612152565b005b3480156106ca57600080fd5b506106e560048036038101906106e0919061481d565b61242b565b6040516106f291906148e3565b60405180910390f35b34801561070757600080fd5b50610722600480360381019061071d919061481d565b6124b6565b60405161072f919061505a565b60405180910390f35b34801561074457600080fd5b5061075f600480360381019061075a9190614905565b6124e9565b005b34801561076d57600080fd5b5061078860048036038101906107839190615164565b6126c8565b6040516107959190614802565b60405180910390f35b3480156107aa57600080fd5b506107c560048036038101906107c091906151a4565b61275c565b005b3480156107d357600080fd5b506107ee60048036038101906107e99190615124565b6127fd565b005b60008073ffffffffffffffffffffffffffffffffffffffff168373ffffffffffffffffffffffffffffffffffffffff161415610861576040517f08c379a0000000000000000000000000000000000000000000000000000000008152600401610858906152ad565b60405180910390fd5b60008083815260200190815260200160002060008473ffffffffffffffffffffffffffffffffffffffff1673ffffffffffffffffffffffffffffffffffffffff16815260200190815260200160002054905092915050565b60007fd9b67a26000000000000000000000000000000000000000000000000000000007bffffffffffffffffffffffffffffffffffffffffffffffffffffffff1916827bffffffffffffffffffffffffffffffffffffffffffffffffffffffff1916148061098457507f0e89341c000000000000000000000000000000000000000000000000000000007bffffffffffffffffffffffffffffffffffffffffffffffffffffffff1916827bffffffffffffffffffffffffffffffffffffffffffffffffffffffff1916145b806109945750610993826129ed565b5b9050919050565b6060600280546109aa906152fc565b80601f01602080910402602001604051908101604052809291908181526020018280546109d6906152fc565b8015610a235780601f106109f857610100808354040283529160200191610a23565b820191906000526020600020905b815481529060010190602001808311610a0657829003601f168201915b50505050509050919050565b60065481565b6060610a4082611aa5565b9050919050565b816000600460008373ffffffffffffffffffffffffffffffffffffffff1673ffffffffffffffffffffffffffffffffffffffff16815260200190815260200160002060000160009054906101000a900473ffffffffffffffffffffffffffffffffffffffff1690506000610ab9612a57565b9050600073ffffffffffffffffffffffffffffffffffffffff168273ffffffffffffffffffffffffffffffffffffffff1614158015610b3457508173ffffffffffffffffffffffffffffffffffffffff168173ffffffffffffffffffffffffffffffffffffffff161480610b335750610b328282612a5f565b5b5b610b73576040517f08c379a0000000000000000000000000000000000000000000000000000000008152600401610b6a906153a0565b60405180910390fd5b83600460008773ffffffffffffffffffffffffffffffffffffffff1673ffffffffffffffffffffffffffffffffffffffff1681526020019081526020016000206005019080519060200190610bc99291906145ad565b508473ffffffffffffffffffffffffffffffffffffffff16610be9612a57565b73ffffffffffffffffffffffffffffffffffffffff167f7fd1c43abb0471595dcd4d461fdb320d926cbf2b8ba6fa87a78f1b1b0bf3e59260405160405180910390a35050505050565b60086000610c3e612a57565b73ffffffffffffffffffffffffffffffffffffffff1673ffffffffffffffffffffffffffffffffffffffff16815260200190815260200160002060009054906101000a900460ff16610cc5576040517f08c379a0000000000000000000000000000000000000000000000000000000008152600401610cbc90615432565b60405180910390fd5b80600073ffffffffffffffffffffffffffffffffffffffff166009600083815260200190815260200160002060009054906101000a900473ffffffffffffffffffffffffffffffffffffffff1673ffffffffffffffffffffffffffffffffffffffff1614610d68576040517f08c379a0000000000000000000000000000000000000000000000000000000008152600401610d5f906154c4565b60405180910390fd5b817f80000000000000000000000000000000000000000000000000000000000000008110610dcb576040517f08c379a0000000000000000000000000000000000000000000000000000000008152600401610dc290615556565b60405180910390fd5b60018311610e0e576040517f08c379a0000000000000000000000000000000000000000000000000000000008152600401610e059061560e565b60405180910390fd5b610e16612a57565b6009600085815260200190815260200160002060006101000a81548173ffffffffffffffffffffffffffffffffffffffff021916908373ffffffffffffffffffffffffffffffffffffffff160217905550505050565b610e74612a57565b73ffffffffffffffffffffffffffffffffffffffff168573ffffffffffffffffffffffffffffffffffffffff161480610eba5750610eb985610eb4612a57565b6126c8565b5b610ef9576040517f08c379a0000000000000000000000000000000000000000000000000000000008152600401610ef0906156a0565b60405180910390fd5b610f068585858585612a73565b5050505050565b816000600460008373ffffffffffffffffffffffffffffffffffffffff1673ffffffffffffffffffffffffffffffffffffffff16815260200190815260200160002060000160009054906101000a900473ffffffffffffffffffffffffffffffffffffffff1690506000610f7f612a57565b9050600073ffffffffffffffffffffffffffffffffffffffff168273ffffffffffffffffffffffffffffffffffffffff1614158015610ffa57508173ffffffffffffffffffffffffffffffffffffffff168173ffffffffffffffffffffffffffffffffffffffff161480610ff95750610ff88282612a5f565b5b5b611039576040517f08c379a0000000000000000000000000000000000000000000000000000000008152600401611030906153a0565b60405180910390fd5b83600460008773ffffffffffffffffffffffffffffffffffffffff1673ffffffffffffffffffffffffffffffffffffffff168152602001908152602001600020600701908051906020019061108f9291906145ad565b508473ffffffffffffffffffffffffffffffffffffffff166110af612a57565b73ffffffffffffffffffffffffffffffffffffffff167f7fd1c43abb0471595dcd4d461fdb320d926cbf2b8ba6fa87a78f1b1b0bf3e59260405160405180910390a35050505050565b60035481565b61110e611109612a57565b612b2a565b61114d576040517f08c379a000000000000000000000000000000000000000000000000000000000815260040161114490615732565b60405180910390fd5b662386f26fc10000811015611197576040517f08c379a000000000000000000000000000000000000000000000000000000000815260040161118e906157ea565b60405180910390fd5b806003819055507fc652b105063222eb8399f76ca13b5913144c1d8af3a94bc240248ecbc36ac80b816040516111cd9190614747565b60405180910390a150565b60086020528060005260406000206000915054906101000a900460ff1681565b6060815183511461123e576040517f08c379a00000000000000000000000000000000000000000000000000000000081526004016112359061587c565b60405180910390fd5b6000835167ffffffffffffffff81111561125b5761125a61493c565b5b6040519080825280602002602001820160405280156112895781602001602082028036833780820191505090505b50905060005b8451811015611306576112d68582815181106112ae576112ad61589c565b5b60200260200101518583815181106112c9576112c861589c565b5b60200260200101516107f0565b8282815181106112e9576112e861589c565b5b602002602001018181525050806112ff906158fa565b905061128f565b508091505092915050565b816000600460008373ffffffffffffffffffffffffffffffffffffffff1673ffffffffffffffffffffffffffffffffffffffff16815260200190815260200160002060000160009054906101000a900473ffffffffffffffffffffffffffffffffffffffff1690506000611383612a57565b9050600073ffffffffffffffffffffffffffffffffffffffff168273ffffffffffffffffffffffffffffffffffffffff16141580156113fe57508173ffffffffffffffffffffffffffffffffffffffff168173ffffffffffffffffffffffffffffffffffffffff1614806113fd57506113fc8282612a5f565b5b5b61143d576040517f08c379a0000000000000000000000000000000000000000000000000000000008152600401611434906153a0565b60405180910390fd5b600084511415611482576040517f08c379a0000000000000000000000000000000000000000000000000000000008152600401611479906159b5565b60405180910390fd5b83600460008773ffffffffffffffffffffffffffffffffffffffff1673ffffffffffffffffffffffffffffffffffffffff16815260200190815260200160002060040190805190602001906114d89291906145ad565b508473ffffffffffffffffffffffffffffffffffffffff166114f8612a57565b73ffffffffffffffffffffffffffffffffffffffff167f7fd1c43abb0471595dcd4d461fdb320d926cbf2b8ba6fa87a78f1b1b0bf3e59260405160405180910390a35050505050565b816000600460008373ffffffffffffffffffffffffffffffffffffffff1673ffffffffffffffffffffffffffffffffffffffff16815260200190815260200160002060000160009054906101000a900473ffffffffffffffffffffffffffffffffffffffff16905060006115b3612a57565b9050600073ffffffffffffffffffffffffffffffffffffffff168273ffffffffffffffffffffffffffffffffffffffff161415801561162e57508173ffffffffffffffffffffffffffffffffffffffff168173ffffffffffffffffffffffffffffffffffffffff16148061162d575061162c8282612a5f565b5b5b61166d576040517f08c379a0000000000000000000000000000000000000000000000000000000008152600401611664906153a0565b60405180910390fd5b83600460008773ffffffffffffffffffffffffffffffffffffffff1673ffffffffffffffffffffffffffffffffffffffff16815260200190815260200160002060060190805190602001906116c39291906145ad565b508473ffffffffffffffffffffffffffffffffffffffff166116e3612a57565b73ffffffffffffffffffffffffffffffffffffffff167f7fd1c43abb0471595dcd4d461fdb320d926cbf2b8ba6fa87a78f1b1b0bf3e59260405160405180910390a35050505050565b6040518060600160405280602181526020016173946021913960035460003490508181148361175a84612b84565b61176384612b84565b60405160200161177593929190615af5565b604051602081830303815290604052906117c5576040517f08c379a00000000000000000000000000000000000000000000000000000000081526004016117bc91906148e3565b60405180910390fd5b506117d68989898989896000612ce5565b505050505050505050565b816000600460008373ffffffffffffffffffffffffffffffffffffffff1673ffffffffffffffffffffffffffffffffffffffff16815260200190815260200160002060000160009054906101000a900473ffffffffffffffffffffffffffffffffffffffff1690506000611853612a57565b9050600073ffffffffffffffffffffffffffffffffffffffff168273ffffffffffffffffffffffffffffffffffffffff16141580156118ce57508173ffffffffffffffffffffffffffffffffffffffff168173ffffffffffffffffffffffffffffffffffffffff1614806118cd57506118cc8282612a5f565b5b5b61190d576040517f08c379a0000000000000000000000000000000000000000000000000000000008152600401611904906153a0565b60405180910390fd5b83600460008773ffffffffffffffffffffffffffffffffffffffff1673ffffffffffffffffffffffffffffffffffffffff16815260200190815260200160002060030190805190602001906119639291906145ad565b508473ffffffffffffffffffffffffffffffffffffffff16611983612a57565b73ffffffffffffffffffffffffffffffffffffffff167f7fd1c43abb0471595dcd4d461fdb320d926cbf2b8ba6fa87a78f1b1b0bf3e59260405160405180910390a35050505050565b600a6020528060005260406000206000915090505481565b60008073ffffffffffffffffffffffffffffffffffffffff16600460008473ffffffffffffffffffffffffffffffffffffffff1673ffffffffffffffffffffffffffffffffffffffff16815260200190815260200160002060000160009054906101000a900473ffffffffffffffffffffffffffffffffffffffff1673ffffffffffffffffffffffffffffffffffffffff1614159050919050565b600760009054906101000a900473ffffffffffffffffffffffffffffffffffffffff1681565b60606000600460008473ffffffffffffffffffffffffffffffffffffffff1673ffffffffffffffffffffffffffffffffffffffff1681526020019081526020016000209050600073ffffffffffffffffffffffffffffffffffffffff168160000160009054906101000a900473ffffffffffffffffffffffffffffffffffffffff1673ffffffffffffffffffffffffffffffffffffffff161415611b5b5760405180602001604052806000815250915050611c50565b611c2d816001018260020183600401846003018560050186600601876007018860080160009054906101000a900460ff16611bcb576040518060400160405280600581526020017f66616c7365000000000000000000000000000000000000000000000000000000815250611c02565b6040518060400160405280600481526020017f74727565000000000000000000000000000000000000000000000000000000008152505b604051602001611c19989796959493929190615e87565b6040516020818303038152906040526130b6565b604051602001611c3d9190615fa8565b6040516020818303038152906040529150505b919050565b6000611c5f612a57565b9050611c6a8161321a565b611ca9576040517f08c379a0000000000000000000000000000000000000000000000000000000008152600401611ca09061603c565b60405180910390fd5b60008211611cec576040517f08c379a0000000000000000000000000000000000000000000000000000000008152600401611ce3906160ce565b60405180910390fd5b816006541015611d31576040517f08c379a0000000000000000000000000000000000000000000000000000000008152600401611d2890616160565b60405180910390fd5b8160066000828254611d439190616180565b925050819055508073ffffffffffffffffffffffffffffffffffffffff166108fc839081150290604051600060405180830381858888f19350505050158015611d90573d6000803e3d6000fd5b505050565b60086000611da1612a57565b73ffffffffffffffffffffffffffffffffffffffff1673ffffffffffffffffffffffffffffffffffffffff16815260200190815260200160002060009054906101000a900460ff16611e28576040517f08c379a0000000000000000000000000000000000000000000000000000000008152600401611e1f90615432565b60405180910390fd5b82600073ffffffffffffffffffffffffffffffffffffffff166009600083815260200190815260200160002060009054906101000a900473ffffffffffffffffffffffffffffffffffffffff1673ffffffffffffffffffffffffffffffffffffffff161415611ecc576040517f08c379a0000000000000000000000000000000000000000000000000000000008152600401611ec390616226565b60405180910390fd5b837f8000000000000000000000000000000000000000000000000000000000000000811015611f30576040517f08c379a0000000000000000000000000000000000000000000000000000000008152600401611f27906162de565b60405180910390fd5b611f3c86868686613274565b505050505050565b611f56611f4f612a57565b8383613286565b5050565b60086000611f66612a57565b73ffffffffffffffffffffffffffffffffffffffff1673ffffffffffffffffffffffffffffffffffffffff16815260200190815260200160002060009054906101000a900460ff16611fed576040517f08c379a0000000000000000000000000000000000000000000000000000000008152600401611fe490615432565b60405180910390fd5b80600073ffffffffffffffffffffffffffffffffffffffff166009600083815260200190815260200160002060009054906101000a900473ffffffffffffffffffffffffffffffffffffffff1673ffffffffffffffffffffffffffffffffffffffff1614612090576040517f08c379a0000000000000000000000000000000000000000000000000000000008152600401612087906154c4565b60405180910390fd5b817f80000000000000000000000000000000000000000000000000000000000000008110156120f4576040517f08c379a00000000000000000000000000000000000000000000000000000000081526004016120eb906162de565b60405180910390fd5b6120fc612a57565b6009600085815260200190815260200160002060006101000a81548173ffffffffffffffffffffffffffffffffffffffff021916908373ffffffffffffffffffffffffffffffffffffffff160217905550505050565b6008600061215e612a57565b73ffffffffffffffffffffffffffffffffffffffff1673ffffffffffffffffffffffffffffffffffffffff16815260200190815260200160002060009054906101000a900460ff166121e5576040517f08c379a00000000000000000000000000000000000000000000000000000000081526004016121dc90615432565b60405180910390fd5b81600073ffffffffffffffffffffffffffffffffffffffff166009600083815260200190815260200160002060009054906101000a900473ffffffffffffffffffffffffffffffffffffffff1673ffffffffffffffffffffffffffffffffffffffff161415612289576040517f08c379a000000000000000000000000000000000000000000000000000000000815260040161228090616226565b60405180910390fd5b827f800000000000000000000000000000000000000000000000000000000000000081106122ec576040517f08c379a00000000000000000000000000000000000000000000000000000000081526004016122e390615556565b60405180910390fd5b847f8000000000000000000000000000000000000000000000000000000000000000811061234f576040517f08c379a000000000000000000000000000000000000000000000000000000000815260040161234690615556565b60405180910390fd5b740100000000000000000000000000000000000000008510156123a7576040517f08c379a000000000000000000000000000000000000000000000000000000000815260040161239e90616370565b60405180910390fd5b6000600a600088815260200190815260200160002054146123fd576040517f08c379a00000000000000000000000000000000000000000000000000000000081526004016123f490616402565b60405180910390fd5b61240a8787600187613274565b84600a60008881526020019081526020016000208190555050505050505050565b60607401000000000000000000000000000000000000000082101561245a5761245382610a35565b90506124b1565b7f80000000000000000000000000000000000000000000000000000000000000008210156124a55761249e600a6000848152602001908152602001600020546133f3565b90506124b1565b6124ae826133f3565b90505b919050565b60096020528060005260406000206000915054906101000a900473ffffffffffffffffffffffffffffffffffffffff1681565b6124f96124f4612a57565b613502565b612538576040517f08c379a000000000000000000000000000000000000000000000000000000000815260040161252f90616494565b60405180910390fd5b6125418161355c565b612580576040517f08c379a00000000000000000000000000000000000000000000000000000000081526004016125779061654c565b60405180910390fd5b600860008273ffffffffffffffffffffffffffffffffffffffff1673ffffffffffffffffffffffffffffffffffffffff16815260200190815260200160002060009054906101000a900460ff161561260d576040517f08c379a0000000000000000000000000000000000000000000000000000000008152600401612604906165de565b60405180910390fd5b6001600860008373ffffffffffffffffffffffffffffffffffffffff1673ffffffffffffffffffffffffffffffffffffffff16815260200190815260200160002060006101000a81548160ff0219169083151502179055508073ffffffffffffffffffffffffffffffffffffffff16638129fc1c6040518163ffffffff1660e01b8152600401600060405180830381600087803b1580156126ad57600080fd5b505af11580156126c1573d6000803e3d6000fd5b5050505050565b6000600160008473ffffffffffffffffffffffffffffffffffffffff1673ffffffffffffffffffffffffffffffffffffffff16815260200190815260200160002060008373ffffffffffffffffffffffffffffffffffffffff1673ffffffffffffffffffffffffffffffffffffffff16815260200190815260200160002060009054906101000a900460ff16905092915050565b612764612a57565b73ffffffffffffffffffffffffffffffffffffffff168573ffffffffffffffffffffffffffffffffffffffff1614806127aa57506127a9856127a4612a57565b6126c8565b5b6127e9576040517f08c379a00000000000000000000000000000000000000000000000000000000081526004016127e0906156a0565b60405180910390fd5b6127f68585858585613653565b5050505050565b6000600460008473ffffffffffffffffffffffffffffffffffffffff1673ffffffffffffffffffffffffffffffffffffffff16815260200190815260200160002060000160009054906101000a900473ffffffffffffffffffffffffffffffffffffffff169050600073ffffffffffffffffffffffffffffffffffffffff168173ffffffffffffffffffffffffffffffffffffffff1614156128d4576040517f08c379a00000000000000000000000000000000000000000000000000000000081526004016128cb90616670565b60405180910390fd5b60006128de612a57565b90506128e98161368f565b612928576040517f08c379a000000000000000000000000000000000000000000000000000000000815260040161291f90616702565b60405180910390fd5b82600460008673ffffffffffffffffffffffffffffffffffffffff1673ffffffffffffffffffffffffffffffffffffffff16815260200190815260200160002060080160006101000a81548160ff0219169083151502179055508373ffffffffffffffffffffffffffffffffffffffff168173ffffffffffffffffffffffffffffffffffffffff167f1a9425b12b0cb193f4db2ac1b9bc0712393521978231a7fcf5f0262b847cd549856040516129df9190614802565b60405180910390a350505050565b60007f01ffc9a7000000000000000000000000000000000000000000000000000000007bffffffffffffffffffffffffffffffffffffffffffffffffffffffff1916827bffffffffffffffffffffffffffffffffffffffffffffffffffffffff1916149050919050565b600033905090565b6000612a6b83836126c8565b905092915050565b612a8085858585856136e9565b60005b8251811015612b225774010000000000000000000000000000000000000000848281518110612ab557612ab461589c565b5b6020026020010151108015612ae557506000838281518110612ada57612ad961589c565b5b602002602001015114155b15612b0f57612b0e848281518110612b0057612aff61589c565b5b602002602001015186613a0b565b5b8080612b1a906158fa565b915050612a83565b505050505050565b60008173ffffffffffffffffffffffffffffffffffffffff16600760009054906101000a900473ffffffffffffffffffffffffffffffffffffffff1673ffffffffffffffffffffffffffffffffffffffff16149050919050565b60606000821415612bcc576040518060400160405280600181526020017f30000000000000000000000000000000000000000000000000000000000000008152509050612ce0565b600082905060005b60008214612bfe578080612be7906158fa565b915050600a82612bf79190616751565b9150612bd4565b60008167ffffffffffffffff811115612c1a57612c1961493c565b5b6040519080825280601f01601f191660200182016040528015612c4c5781602001600182028036833780820191505090505b5090505b60008514612cd957600182612c659190616180565b9150600a85612c749190616782565b6030612c8091906167b3565b60f81b818381518110612c9657612c9561589c565b5b60200101907effffffffffffffffffffffffffffffffffffffffffffffffffffffffffffff1916908160001a905350600a85612cd29190616751565b9450612c50565b8093505050505b919050565b6000612cef612a57565b9050600088511415612d36576040517f08c379a0000000000000000000000000000000000000000000000000000000008152600401612d2d9061687b565b60405180910390fd5b600087511415612d7b576040517f08c379a0000000000000000000000000000000000000000000000000000000008152600401612d729061690d565b60405180910390fd5b600086511415612dc0576040517f08c379a0000000000000000000000000000000000000000000000000000000008152600401612db7906159b5565b60405180910390fd5b3460066000828254612dd291906167b3565b92505081905550600160056000828254612dec91906167b3565b92505081905550600060d660f81b609460f81b308460055460001b604051602001612e1b9594939291906169ed565b6040516020818303038152906040528051906020012060001c90506040518061012001604052808373ffffffffffffffffffffffffffffffffffffffff1681526020018a81526020018981526020016040518060400160405280600b81526020017f61626f75743a626c616e6b0000000000000000000000000000000000000000008152508152602001888152602001878152602001868152602001858152602001841515815250600460008373ffffffffffffffffffffffffffffffffffffffff1673ffffffffffffffffffffffffffffffffffffffff16815260200190815260200160002060008201518160000160006101000a81548173ffffffffffffffffffffffffffffffffffffffff021916908373ffffffffffffffffffffffffffffffffffffffff1602179055506020820151816001019080519060200190612f659291906145ad565b506040820151816002019080519060200190612f829291906145ad565b506060820151816003019080519060200190612f9f9291906145ad565b506080820151816004019080519060200190612fbc9291906145ad565b5060a0820151816005019080519060200190612fd99291906145ad565b5060c0820151816006019080519060200190612ff69291906145ad565b5060e08201518160070190805190602001906130139291906145ad565b506101008201518160080160006101000a81548160ff0219169083151502179055509050506130428183613b27565b8073ffffffffffffffffffffffffffffffffffffffff168273ffffffffffffffffffffffffffffffffffffffff167fbaa80c9cbed3f9a5fcdc4e9dd7785f9cfc968a81b80b94363bea0e92c938c0d98b8b346040516130a393929190616a4c565b60405180910390a3505050505050505050565b60606000825114156130d957604051806020016040528060008152509050613215565b6000604051806060016040528060408152602001617354604091399050600060036002855161310891906167b3565b6131129190616751565b600461311e9190616a91565b67ffffffffffffffff8111156131375761313661493c565b5b6040519080825280601f01601f1916602001820160405280156131695781602001600182028036833780820191505090505b509050600182016020820185865187015b808210156131d5576003820191508151603f8160121c168501518453600184019350603f81600c1c168501518453600184019350603f8160061c168501518453600184019350603f811685015184536001840193505061317a565b50506003865106600181146131f157600281146132045761320c565b603d6001830353603d600283035361320c565b603d60018303535b50505080925050505b919050565b60008173ffffffffffffffffffffffffffffffffffffffff16600760009054906101000a900473ffffffffffffffffffffffffffffffffffffffff1673ffffffffffffffffffffffffffffffffffffffff16149050919050565b61328084848484613b66565b50505050565b8173ffffffffffffffffffffffffffffffffffffffff168373ffffffffffffffffffffffffffffffffffffffff1614156132f5576040517f08c379a00000000000000000000000000000000000000000000000000000000081526004016132ec90616b5d565b60405180910390fd5b80600160008573ffffffffffffffffffffffffffffffffffffffff1673ffffffffffffffffffffffffffffffffffffffff16815260200190815260200160002060008473ffffffffffffffffffffffffffffffffffffffff1673ffffffffffffffffffffffffffffffffffffffff16815260200190815260200160002060006101000a81548160ff0219169083151502179055508173ffffffffffffffffffffffffffffffffffffffff168373ffffffffffffffffffffffffffffffffffffffff167f17307eab39ab6107e8899845ad3d59bd9653f200f220920489ca2b5937696c31836040516133e69190614802565b60405180910390a3505050565b606060006009600084815260200190815260200160002060009054906101000a900473ffffffffffffffffffffffffffffffffffffffff169050600073ffffffffffffffffffffffffffffffffffffffff168173ffffffffffffffffffffffffffffffffffffffff16141561347a57604051806020016040528060008152509150506134fd565b8073ffffffffffffffffffffffffffffffffffffffff16630e89341c846040518263ffffffff1660e01b81526004016134b39190614747565b600060405180830381865afa1580156134d0573d6000803e3d6000fd5b505050506040513d6000823e3d601f19601f820116820180604052508101906134f99190616bed565b9150505b919050565b60008173ffffffffffffffffffffffffffffffffffffffff16600760009054906101000a900473ffffffffffffffffffffffffffffffffffffffff1673ffffffffffffffffffffffffffffffffffffffff16149050919050565b60006135a77f5be0bbb7000000000000000000000000000000000000000000000000000000008373ffffffffffffffffffffffffffffffffffffffff16613d1790919063ffffffff16565b801561364c57503073ffffffffffffffffffffffffffffffffffffffff168273ffffffffffffffffffffffffffffffffffffffff1663f200670d6040518163ffffffff1660e01b8152600401602060405180830381865afa158015613610573d6000803e3d6000fd5b505050506040513d601f19601f820116820180604052508101906136349190616c4b565b73ffffffffffffffffffffffffffffffffffffffff16145b9050919050565b6136608585858585613d3c565b74010000000000000000000000000000000000000000831015613688576136878385613a0b565b5b5050505050565b60008173ffffffffffffffffffffffffffffffffffffffff16600760009054906101000a900473ffffffffffffffffffffffffffffffffffffffff1673ffffffffffffffffffffffffffffffffffffffff16149050919050565b815183511461372d576040517f08c379a000000000000000000000000000000000000000000000000000000000815260040161372490616cea565b60405180910390fd5b600073ffffffffffffffffffffffffffffffffffffffff168473ffffffffffffffffffffffffffffffffffffffff16141561379d576040517f08c379a000000000000000000000000000000000000000000000000000000000815260040161379490616d7c565b60405180910390fd5b60006137a7612a57565b90506137b7818787878787613fd8565b60005b84518110156139685760008582815181106137d8576137d761589c565b5b6020026020010151905060008583815181106137f7576137f661589c565b5b60200260200101519050600080600084815260200190815260200160002060008b73ffffffffffffffffffffffffffffffffffffffff1673ffffffffffffffffffffffffffffffffffffffff16815260200190815260200160002054905081811015613898576040517f08c379a000000000000000000000000000000000000000000000000000000000815260040161388f90616e0e565b60405180910390fd5b81810360008085815260200190815260200160002060008c73ffffffffffffffffffffffffffffffffffffffff1673ffffffffffffffffffffffffffffffffffffffff168152602001908152602001600020819055508160008085815260200190815260200160002060008b73ffffffffffffffffffffffffffffffffffffffff1673ffffffffffffffffffffffffffffffffffffffff168152602001908152602001600020600082825461394d91906167b3565b9250508190555050505080613961906158fa565b90506137ba565b508473ffffffffffffffffffffffffffffffffffffffff168673ffffffffffffffffffffffffffffffffffffffff168273ffffffffffffffffffffffffffffffffffffffff167f4a39dc06d4c0dbc64b70af90fd698a233a518aa5d07e595d983b8c0526c8f7fb87876040516139df929190616e2e565b60405180910390a46139f5818787878787613fe0565b613a03818787878787613fe8565b505050505050565b600073ffffffffffffffffffffffffffffffffffffffff16600460008473ffffffffffffffffffffffffffffffffffffffff1673ffffffffffffffffffffffffffffffffffffffff16815260200190815260200160002060000160009054906101000a900473ffffffffffffffffffffffffffffffffffffffff1673ffffffffffffffffffffffffffffffffffffffff1614613b235780600460008473ffffffffffffffffffffffffffffffffffffffff1673ffffffffffffffffffffffffffffffffffffffff16815260200190815260200160002060000160006101000a81548173ffffffffffffffffffffffffffffffffffffffff021916908373ffffffffffffffffffffffffffffffffffffffff1602179055505b5050565b613b62818373ffffffffffffffffffffffffffffffffffffffff16600160405180606001604052806032815260200161732260329139613b66565b5050565b600073ffffffffffffffffffffffffffffffffffffffff168473ffffffffffffffffffffffffffffffffffffffff161415613bd6576040517f08c379a0000000000000000000000000000000000000000000000000000000008152600401613bcd90616ed7565b60405180910390fd5b6000613be0612a57565b90506000613bed856141c0565b90506000613bfa856141c0565b9050613c0b83600089858589613fd8565b8460008088815260200190815260200160002060008973ffffffffffffffffffffffffffffffffffffffff1673ffffffffffffffffffffffffffffffffffffffff1681526020019081526020016000206000828254613c6a91906167b3565b925050819055508673ffffffffffffffffffffffffffffffffffffffff16600073ffffffffffffffffffffffffffffffffffffffff168473ffffffffffffffffffffffffffffffffffffffff167fc3d58168c5ae7397731d063d5bbf3d657854427343f4c083240f7aacaa2d0f628989604051613ce8929190616ef7565b60405180910390a4613cff83600089858589613fe0565b613d0e8360008989898961423a565b50505050505050565b6000613d2283614412565b8015613d345750613d33838361445f565b5b905092915050565b600073ffffffffffffffffffffffffffffffffffffffff168473ffffffffffffffffffffffffffffffffffffffff161415613dac576040517f08c379a0000000000000000000000000000000000000000000000000000000008152600401613da390616d7c565b60405180910390fd5b6000613db6612a57565b90506000613dc3856141c0565b90506000613dd0856141c0565b9050613de0838989858589613fd8565b600080600088815260200190815260200160002060008a73ffffffffffffffffffffffffffffffffffffffff1673ffffffffffffffffffffffffffffffffffffffff16815260200190815260200160002054905085811015613e77576040517f08c379a0000000000000000000000000000000000000000000000000000000008152600401613e6e90616e0e565b60405180910390fd5b85810360008089815260200190815260200160002060008b73ffffffffffffffffffffffffffffffffffffffff1673ffffffffffffffffffffffffffffffffffffffff168152602001908152602001600020819055508560008089815260200190815260200160002060008a73ffffffffffffffffffffffffffffffffffffffff1673ffffffffffffffffffffffffffffffffffffffff1681526020019081526020016000206000828254613f2c91906167b3565b925050819055508773ffffffffffffffffffffffffffffffffffffffff168973ffffffffffffffffffffffffffffffffffffffff168573ffffffffffffffffffffffffffffffffffffffff167fc3d58168c5ae7397731d063d5bbf3d657854427343f4c083240f7aacaa2d0f628a8a604051613fa9929190616ef7565b60405180910390a4613fbf848a8a86868a613fe0565b613fcd848a8a8a8a8a61423a565b505050505050505050565b505050505050565b505050505050565b6140078473ffffffffffffffffffffffffffffffffffffffff1661458a565b156141b8578373ffffffffffffffffffffffffffffffffffffffff1663bc197c8187878686866040518663ffffffff1660e01b815260040161404d959493929190616f75565b6020604051808303816000875af192505050801561408957506040513d601f19601f820116820180604052508101906140869190616ff2565b60015b61412f5761409561702c565b806308c379a014156140f257506140aa61704e565b806140b557506140f4565b806040517f08c379a00000000000000000000000000000000000000000000000000000000081526004016140e991906148e3565b60405180910390fd5b505b6040517f08c379a000000000000000000000000000000000000000000000000000000000815260040161412690617156565b60405180910390fd5b63bc197c8160e01b7bffffffffffffffffffffffffffffffffffffffffffffffffffffffff1916817bffffffffffffffffffffffffffffffffffffffffffffffffffffffff1916146141b6576040517f08c379a00000000000000000000000000000000000000000000000000000000081526004016141ad906171e8565b60405180910390fd5b505b505050505050565b60606000600167ffffffffffffffff8111156141df576141de61493c565b5b60405190808252806020026020018201604052801561420d5781602001602082028036833780820191505090505b50905082816000815181106142255761422461589c565b5b60200260200101818152505080915050919050565b6142598473ffffffffffffffffffffffffffffffffffffffff1661458a565b1561440a578373ffffffffffffffffffffffffffffffffffffffff1663f23a6e6187878686866040518663ffffffff1660e01b815260040161429f959493929190617208565b6020604051808303816000875af19250505080156142db57506040513d601f19601f820116820180604052508101906142d89190616ff2565b60015b614381576142e761702c565b806308c379a0141561434457506142fc61704e565b806143075750614346565b806040517f08c379a000000000000000000000000000000000000000000000000000000000815260040161433b91906148e3565b60405180910390fd5b505b6040517f08c379a000000000000000000000000000000000000000000000000000000000815260040161437890617156565b60405180910390fd5b63f23a6e6160e01b7bffffffffffffffffffffffffffffffffffffffffffffffffffffffff1916817bffffffffffffffffffffffffffffffffffffffffffffffffffffffff191614614408576040517f08c379a00000000000000000000000000000000000000000000000000000000081526004016143ff906171e8565b60405180910390fd5b505b505050505050565b600061443e827f01ffc9a70000000000000000000000000000000000000000000000000000000061445f565b801561445857506144568263ffffffff60e01b61445f565b155b9050919050565b6000806301ffc9a760e01b8360405160240161447b9190617271565b604051602081830303815290604052907bffffffffffffffffffffffffffffffffffffffffffffffffffffffff19166020820180517bffffffffffffffffffffffffffffffffffffffffffffffffffffffff838183161783525050505090506000808573ffffffffffffffffffffffffffffffffffffffff166175308460405161450591906172c8565b6000604051808303818686fa925050503d8060008114614541576040519150601f19603f3d011682016040523d82523d6000602084013e614546565b606091505b50915091506020815110156145615760009350505050614584565b81801561457e57508080602001905181019061457d91906172f4565b5b93505050505b92915050565b6000808273ffffffffffffffffffffffffffffffffffffffff163b119050919050565b8280546145b9906152fc565b90600052602060002090601f0160209004810192826145db5760008555614622565b82601f106145f457805160ff1916838001178555614622565b82800160010185558215614622579182015b82811115614621578251825591602001919060010190614606565b5b50905061462f9190614633565b5090565b5b8082111561464c576000816000905550600101614634565b5090565b6000604051905090565b600080fd5b600080fd5b600073ffffffffffffffffffffffffffffffffffffffff82169050919050565b600061468f82614664565b9050919050565b61469f81614684565b81146146aa57600080fd5b50565b6000813590506146bc81614696565b92915050565b6000819050919050565b6146d5816146c2565b81146146e057600080fd5b50565b6000813590506146f2816146cc565b92915050565b6000806040838503121561470f5761470e61465a565b5b600061471d858286016146ad565b925050602061472e858286016146e3565b9150509250929050565b614741816146c2565b82525050565b600060208201905061475c6000830184614738565b92915050565b60007fffffffff0000000000000000000000000000000000000000000000000000000082169050919050565b61479781614762565b81146147a257600080fd5b50565b6000813590506147b48161478e565b92915050565b6000602082840312156147d0576147cf61465a565b5b60006147de848285016147a5565b91505092915050565b60008115159050919050565b6147fc816147e7565b82525050565b600060208201905061481760008301846147f3565b92915050565b6000602082840312156148335761483261465a565b5b6000614841848285016146e3565b91505092915050565b600081519050919050565b600082825260208201905092915050565b60005b83811015614884578082015181840152602081019050614869565b83811115614893576000848401525b50505050565b6000601f19601f8301169050919050565b60006148b58261484a565b6148bf8185614855565b93506148cf818560208601614866565b6148d881614899565b840191505092915050565b600060208201905081810360008301526148fd81846148aa565b905092915050565b60006020828403121561491b5761491a61465a565b5b6000614929848285016146ad565b91505092915050565b600080fd5b600080fd5b7f4e487b7100000000000000000000000000000000000000000000000000000000600052604160045260246000fd5b61497482614899565b810181811067ffffffffffffffff821117156149935761499261493c565b5b80604052505050565b60006149a6614650565b90506149b2828261496b565b919050565b600067ffffffffffffffff8211156149d2576149d161493c565b5b6149db82614899565b9050602081019050919050565b82818337600083830152505050565b6000614a0a614a05846149b7565b61499c565b905082815260208101848484011115614a2657614a25614937565b5b614a318482856149e8565b509392505050565b600082601f830112614a4e57614a4d614932565b5b8135614a5e8482602086016149f7565b91505092915050565b60008060408385031215614a7e57614a7d61465a565b5b6000614a8c858286016146ad565b925050602083013567ffffffffffffffff811115614aad57614aac61465f565b5b614ab985828601614a39565b9150509250929050565b600067ffffffffffffffff821115614ade57614add61493c565b5b602082029050602081019050919050565b600080fd5b6000614b07614b0284614ac3565b61499c565b90508083825260208201905060208402830185811115614b2a57614b29614aef565b5b835b81811015614b535780614b3f88826146e3565b845260208401935050602081019050614b2c565b5050509392505050565b600082601f830112614b7257614b71614932565b5b8135614b82848260208601614af4565b91505092915050565b600067ffffffffffffffff821115614ba657614ba561493c565b5b614baf82614899565b9050602081019050919050565b6000614bcf614bca84614b8b565b61499c565b905082815260208101848484011115614beb57614bea614937565b5b614bf68482856149e8565b509392505050565b600082601f830112614c1357614c12614932565b5b8135614c23848260208601614bbc565b91505092915050565b600080600080600060a08688031215614c4857614c4761465a565b5b6000614c56888289016146ad565b9550506020614c67888289016146ad565b945050604086013567ffffffffffffffff811115614c8857614c8761465f565b5b614c9488828901614b5d565b935050606086013567ffffffffffffffff811115614cb557614cb461465f565b5b614cc188828901614b5d565b925050608086013567ffffffffffffffff811115614ce257614ce161465f565b5b614cee88828901614bfe565b9150509295509295909350565b600067ffffffffffffffff821115614d1657614d1561493c565b5b602082029050602081019050919050565b6000614d3a614d3584614cfb565b61499c565b90508083825260208201905060208402830185811115614d5d57614d5c614aef565b5b835b81811015614d865780614d7288826146ad565b845260208401935050602081019050614d5f565b5050509392505050565b600082601f830112614da557614da4614932565b5b8135614db5848260208601614d27565b91505092915050565b60008060408385031215614dd557614dd461465a565b5b600083013567ffffffffffffffff811115614df357614df261465f565b5b614dff85828601614d90565b925050602083013567ffffffffffffffff811115614e2057614e1f61465f565b5b614e2c85828601614b5d565b9150509250929050565b600081519050919050565b600082825260208201905092915050565b6000819050602082019050919050565b614e6b816146c2565b82525050565b6000614e7d8383614e62565b60208301905092915050565b6000602082019050919050565b6000614ea182614e36565b614eab8185614e41565b9350614eb683614e52565b8060005b83811015614ee7578151614ece8882614e71565b9750614ed983614e89565b925050600181019050614eba565b5085935050505092915050565b60006020820190508181036000830152614f0e8184614e96565b905092915050565b60008060008060008060c08789031215614f3357614f3261465a565b5b600087013567ffffffffffffffff811115614f5157614f5061465f565b5b614f5d89828a01614a39565b965050602087013567ffffffffffffffff811115614f7e57614f7d61465f565b5b614f8a89828a01614a39565b955050604087013567ffffffffffffffff811115614fab57614faa61465f565b5b614fb789828a01614a39565b945050606087013567ffffffffffffffff811115614fd857614fd761465f565b5b614fe489828a01614a39565b935050608087013567ffffffffffffffff8111156150055761500461465f565b5b61501189828a01614a39565b92505060a087013567ffffffffffffffff8111156150325761503161465f565b5b61503e89828a01614a39565b9150509295509295509295565b61505481614684565b82525050565b600060208201905061506f600083018461504b565b92915050565b6000806000806080858703121561508f5761508e61465a565b5b600061509d878288016146ad565b94505060206150ae878288016146e3565b93505060406150bf878288016146e3565b925050606085013567ffffffffffffffff8111156150e0576150df61465f565b5b6150ec87828801614bfe565b91505092959194509250565b615101816147e7565b811461510c57600080fd5b50565b60008135905061511e816150f8565b92915050565b6000806040838503121561513b5761513a61465a565b5b6000615149858286016146ad565b925050602061515a8582860161510f565b9150509250929050565b6000806040838503121561517b5761517a61465a565b5b6000615189858286016146ad565b925050602061519a858286016146ad565b9150509250929050565b600080600080600060a086880312156151c0576151bf61465a565b5b60006151ce888289016146ad565b95505060206151df888289016146ad565b94505060406151f0888289016146e3565b9350506060615201888289016146e3565b925050608086013567ffffffffffffffff8111156152225761522161465f565b5b61522e88828901614bfe565b9150509295509295909350565b7f455243313135353a2061646472657373207a65726f206973206e6f742061207660008201527f616c6964206f776e657200000000000000000000000000000000000000000000602082015250565b6000615297602a83614855565b91506152a28261523b565b604082019050919050565b600060208201905081810360008301526152c68161528a565b9050919050565b7f4e487b7100000000000000000000000000000000000000000000000000000000600052602260045260246000fd5b6000600282049050600182168061531457607f821691505b60208210811415615328576153276152cd565b5b50919050565b7f4272616e6452656769737472793a2063616c6c6572206973206e6f742062726160008201527f6e64206f776e6572206e6f7220617070726f7665640000000000000000000000602082015250565b600061538a603583614855565b91506153958261532e565b604082019050919050565b600060208201905081810360008301526153b98161537d565b9050919050565b7f4d6574617665727365436f72653a207468652073656e646572206d757374206260008201527f65206120706c75672d696e000000000000000000000000000000000000000000602082015250565b600061541c602b83614855565b9150615427826153c0565b604082019050919050565b6000602082019050818103600083015261544b8161540f565b9050919050565b7f4d6574617665727365436f72653a207468652073706563696669656420746f6b60008201527f656e2074797065206973206e6f7420617661696c61626c650000000000000000602082015250565b60006154ae603883614855565b91506154b982615452565b604082019050919050565b600060208201905081810360008301526154dd816154a1565b9050919050565b7f4d6574617665727365436f72653a20746865207370656369666965642076616c60008201527f7565206973206e6f7420696e20746865206e66742072616e6765000000000000602082015250565b6000615540603a83614855565b915061554b826154e4565b604082019050919050565b6000602082019050818103600083015261556f81615533565b9050919050565b7f4d6574617665727365436f72653a206e6674207479706520302069732072657360008201527f657276656420666f7220696e76616c6964202f206d697373696e67206e66747360208201527f2c20616e64203120666f72206272616e64730000000000000000000000000000604082015250565b60006155f8605283614855565b915061560382615576565b606082019050919050565b60006020820190508181036000830152615627816155eb565b9050919050565b7f455243313135353a2063616c6c6572206973206e6f7420746f6b656e206f776e60008201527f6572206e6f7220617070726f7665640000000000000000000000000000000000602082015250565b600061568a602f83614855565b91506156958261562e565b604082019050919050565b600060208201905081810360008301526156b98161567d565b9050919050565b7f4272616e6452656769737472793a206e6f7420616c6c6f77656420746f20736560008201527f7420746865206272616e6420726567697374726174696f6e20636f7374000000602082015250565b600061571c603d83614855565b9150615727826156c0565b604082019050919050565b6000602082019050818103600083015261574b8161570f565b9050919050565b7f4272616e6452656769737472793a20746865206272616e64207265676973747260008201527f7920636f7374206d757374206e6f74206265206c657373207468616e20302e3060208201527f31206e617469766520746f6b656e730000000000000000000000000000000000604082015250565b60006157d4604f83614855565b91506157df82615752565b606082019050919050565b60006020820190508181036000830152615803816157c7565b9050919050565b7f455243313135353a206163636f756e747320616e6420696473206c656e67746860008201527f206d69736d617463680000000000000000000000000000000000000000000000602082015250565b6000615866602983614855565b91506158718261580a565b604082019050919050565b6000602082019050818103600083015261589581615859565b9050919050565b7f4e487b7100000000000000000000000000000000000000000000000000000000600052603260045260246000fd5b7f4e487b7100000000000000000000000000000000000000000000000000000000600052601160045260246000fd5b6000615905826146c2565b91507fffffffffffffffffffffffffffffffffffffffffffffffffffffffffffffffff821415615938576159376158cb565b5b600182019050919050565b7f4272616e6452656769737472793a207573652061206e6f6e2d656d707479206960008201527f6d6167652075726c000000000000000000000000000000000000000000000000602082015250565b600061599f602883614855565b91506159aa82615943565b604082019050919050565b600060208201905081810360008301526159ce81615992565b9050919050565b600081905092915050565b60006159eb8261484a565b6159f581856159d5565b9350615a05818560208601614866565b80840191505092915050565b7f20726571756972657320616e206578616374207061796d656e74206f66200000600082015250565b6000615a47601e836159d5565b9150615a5282615a11565b601e82019050919050565b7f2062757420000000000000000000000000000000000000000000000000000000600082015250565b6000615a936005836159d5565b9150615a9e82615a5d565b600582019050919050565b7f2077617320676976656e00000000000000000000000000000000000000000000600082015250565b6000615adf600a836159d5565b9150615aea82615aa9565b600a82019050919050565b6000615b0182866159e0565b9150615b0c82615a3a565b9150615b1882856159e0565b9150615b2382615a86565b9150615b2f82846159e0565b9150615b3a82615ad2565b9150819050949350505050565b7f7b226e616d65223a220000000000000000000000000000000000000000000000600082015250565b6000615b7d6009836159d5565b9150615b8882615b47565b600982019050919050565b60008190508160005260206000209050919050565b60008154615bb5816152fc565b615bbf81866159d5565b94506001821660008114615bda5760018114615beb57615c1e565b60ff19831686528186019350615c1e565b615bf485615b93565b60005b83811015615c1657815481890152600182019150602081019050615bf7565b838801955050505b50505092915050565b7f222c226465736372697074696f6e223a22000000000000000000000000000000600082015250565b6000615c5d6011836159d5565b9150615c6882615c27565b601182019050919050565b7f222c22696d616765223a22000000000000000000000000000000000000000000600082015250565b6000615ca9600b836159d5565b9150615cb482615c73565b600b82019050919050565b7f222c2270726f70657274696573223a7b226368616c6c656e676555726c223a22600082015250565b6000615cf56020836159d5565b9150615d0082615cbf565b602082019050919050565b7f222c2269636f6e3136783136223a220000000000000000000000000000000000600082015250565b6000615d41600f836159d5565b9150615d4c82615d0b565b600f82019050919050565b7f222c2269636f6e3332783332223a220000000000000000000000000000000000600082015250565b6000615d8d600f836159d5565b9150615d9882615d57565b600f82019050919050565b7f222c2269636f6e3634783634223a220000000000000000000000000000000000600082015250565b6000615dd9600f836159d5565b9150615de482615da3565b600f82019050919050565b7f222c22636f6d6d6974746564223a000000000000000000000000000000000000600082015250565b6000615e25600e836159d5565b9150615e3082615def565b600e82019050919050565b7f7d7d000000000000000000000000000000000000000000000000000000000000600082015250565b6000615e716002836159d5565b9150615e7c82615e3b565b600282019050919050565b6000615e9282615b70565b9150615e9e828b615ba8565b9150615ea982615c50565b9150615eb5828a615ba8565b9150615ec082615c9c565b9150615ecc8289615ba8565b9150615ed782615ce8565b9150615ee38288615ba8565b9150615eee82615d34565b9150615efa8287615ba8565b9150615f0582615d80565b9150615f118286615ba8565b9150615f1c82615dcc565b9150615f288285615ba8565b9150615f3382615e18565b9150615f3f82846159e0565b9150615f4a82615e64565b91508190509998505050505050505050565b7f646174613a6170706c69636174696f6e2f6a736f6e3b6261736536342c000000600082015250565b6000615f92601d836159d5565b9150615f9d82615f5c565b601d82019050919050565b6000615fb382615f85565b9150615fbf82846159e0565b915081905092915050565b7f4272616e6452656769737472793a206561726e696e67732063616e6e6f74206260008201527f652077697468647261776e20627920746869732073656e646572000000000000602082015250565b6000616026603a83614855565b915061603182615fca565b604082019050919050565b6000602082019050818103600083015261605581616019565b9050919050565b7f4272616e6452656769737472793a206561726e696e677320616d6f756e74206d60008201527f757374206e6f7420626520300000000000000000000000000000000000000000602082015250565b60006160b8602c83614855565b91506160c38261605c565b604082019050919050565b600060208201905081810360008301526160e7816160ab565b9050919050565b7f4272616e6452656769737472793a206561726e696e677320616d6f756e74206960008201527f73206c657373207468616e207468652072657175657374656420616d6f756e74602082015250565b600061614a604083614855565b9150616155826160ee565b604082019050919050565b600060208201905081810360008301526161798161613d565b9050919050565b600061618b826146c2565b9150616196836146c2565b9250828210156161a9576161a86158cb565b5b828203905092915050565b7f4d6574617665727365436f72653a20756e6b6e6f776e202f206e6f6e2d6d696e60008201527f7461626c6520746f6b656e207479706520696400000000000000000000000000602082015250565b6000616210603383614855565b915061621b826161b4565b604082019050919050565b6000602082019050818103600083015261623f81616203565b9050919050565b7f4d6574617665727365436f72653a20746865207370656369666965642076616c60008201527f7565206973206e6f7420696e207468652066756e6769626c6520746f6b656e7360208201527f2072616e67650000000000000000000000000000000000000000000000000000604082015250565b60006162c8604683614855565b91506162d382616246565b606082019050919050565b600060208201905081810360008301526162f7816162bb565b9050919050565b7f4d6574617665727365436f72653a207468652073706563696669656420746f6b60008201527f656e20696420697320726573657276656420666f72206272616e647300000000602082015250565b600061635a603c83614855565b9150616365826162fe565b604082019050919050565b600060208201905081810360008301526163898161634d565b9050919050565b7f4d6574617665727365436f72653a2074686520737065636966696564206e667460008201527f206964206973206e6f7420617661696c61626c65000000000000000000000000602082015250565b60006163ec603483614855565b91506163f782616390565b604082019050919050565b6000602082019050818103600083015261641b816163df565b9050919050565b7f4d6574617665727365436f72653a207468652073656e646572206973206e6f7460008201527f20616c6c6f77656420746f20616464206120706c75672d696e00000000000000602082015250565b600061647e603983614855565b915061648982616422565b604082019050919050565b600060208201905081810360008301526164ad81616471565b9050919050565b7f4d6574617665727365436f72653a20746865206164647265737320646f65732060008201527f6e6f742062656c6f6e6720746f20612076616c696420706c75672d696e20636f60208201527f6e747261637420666f722074686973206d657461766572736500000000000000604082015250565b6000616536605983614855565b9150616541826164b4565b606082019050919050565b6000602082019050818103600083015261656581616529565b9050919050565b7f4d6574617665727365436f72653a2074686520706c75672d696e20697320616c60008201527f726561647920616464656420746f2074686973206d6574617665727365000000602082015250565b60006165c8603d83614855565b91506165d38261656c565b604082019050919050565b600060208201905081810360008301526165f7816165bb565b9050919050565b7f4272616e6452656769737472793a206e6f6e2d6578697374696e67206272616e60008201527f6400000000000000000000000000000000000000000000000000000000000000602082015250565b600061665a602183614855565b9150616665826165fe565b604082019050919050565b600060208201905081810360008301526166898161664d565b9050919050565b7f4272616e6452656769737472793a206e6f7420616c6c6f77656420746f20736560008201527f74206272616e64732720736f6369616c20636f6d6d69746d656e740000000000602082015250565b60006166ec603b83614855565b91506166f782616690565b604082019050919050565b6000602082019050818103600083015261671b816166df565b9050919050565b7f4e487b7100000000000000000000000000000000000000000000000000000000600052601260045260246000fd5b600061675c826146c2565b9150616767836146c2565b92508261677757616776616722565b5b828204905092915050565b600061678d826146c2565b9150616798836146c2565b9250826167a8576167a7616722565b5b828206905092915050565b60006167be826146c2565b91506167c9836146c2565b9250827fffffffffffffffffffffffffffffffffffffffffffffffffffffffffffffffff038211156167fe576167fd6158cb565b5b828201905092915050565b7f4272616e6452656769737472793a207573652061206e6f6e2d656d707479206e60008201527f616d650000000000000000000000000000000000000000000000000000000000602082015250565b6000616865602383614855565b915061687082616809565b604082019050919050565b6000602082019050818103600083015261689481616858565b9050919050565b7f4272616e6452656769737472793a207573652061206e6f6e2d656d707479206460008201527f65736372697074696f6e00000000000000000000000000000000000000000000602082015250565b60006168f7602a83614855565b91506169028261689b565b604082019050919050565b60006020820190508181036000830152616926816168ea565b9050919050565b60007fff0000000000000000000000000000000000000000000000000000000000000082169050919050565b6000819050919050565b61697461696f8261692d565b616959565b82525050565b60008160601b9050919050565b60006169928261697a565b9050919050565b60006169a482616987565b9050919050565b6169bc6169b782614684565b616999565b82525050565b6000819050919050565b6000819050919050565b6169e76169e2826169c2565b6169cc565b82525050565b60006169f98288616963565b600182019150616a098287616963565b600182019150616a1982866169ab565b601482019150616a2982856169ab565b601482019150616a3982846169d6565b6020820191508190509695505050505050565b60006060820190508181036000830152616a6681866148aa565b90508181036020830152616a7a81856148aa565b9050616a896040830184614738565b949350505050565b6000616a9c826146c2565b9150616aa7836146c2565b9250817fffffffffffffffffffffffffffffffffffffffffffffffffffffffffffffffff0483118215151615616ae057616adf6158cb565b5b828202905092915050565b7f455243313135353a2073657474696e6720617070726f76616c2073746174757360008201527f20666f722073656c660000000000000000000000000000000000000000000000602082015250565b6000616b47602983614855565b9150616b5282616aeb565b604082019050919050565b60006020820190508181036000830152616b7681616b3a565b9050919050565b6000616b90616b8b846149b7565b61499c565b905082815260208101848484011115616bac57616bab614937565b5b616bb7848285614866565b509392505050565b600082601f830112616bd457616bd3614932565b5b8151616be4848260208601616b7d565b91505092915050565b600060208284031215616c0357616c0261465a565b5b600082015167ffffffffffffffff811115616c2157616c2061465f565b5b616c2d84828501616bbf565b91505092915050565b600081519050616c4581614696565b92915050565b600060208284031215616c6157616c6061465a565b5b6000616c6f84828501616c36565b91505092915050565b7f455243313135353a2069647320616e6420616d6f756e7473206c656e6774682060008201527f6d69736d61746368000000000000000000000000000000000000000000000000602082015250565b6000616cd4602883614855565b9150616cdf82616c78565b604082019050919050565b60006020820190508181036000830152616d0381616cc7565b9050919050565b7f455243313135353a207472616e7366657220746f20746865207a65726f20616460008201527f6472657373000000000000000000000000000000000000000000000000000000602082015250565b6000616d66602583614855565b9150616d7182616d0a565b604082019050919050565b60006020820190508181036000830152616d9581616d59565b9050919050565b7f455243313135353a20696e73756666696369656e742062616c616e636520666f60008201527f72207472616e7366657200000000000000000000000000000000000000000000602082015250565b6000616df8602a83614855565b9150616e0382616d9c565b604082019050919050565b60006020820190508181036000830152616e2781616deb565b9050919050565b60006040820190508181036000830152616e488185614e96565b90508181036020830152616e5c8184614e96565b90509392505050565b7f455243313135353a206d696e7420746f20746865207a65726f2061646472657360008201527f7300000000000000000000000000000000000000000000000000000000000000602082015250565b6000616ec1602183614855565b9150616ecc82616e65565b604082019050919050565b60006020820190508181036000830152616ef081616eb4565b9050919050565b6000604082019050616f0c6000830185614738565b616f196020830184614738565b9392505050565b600081519050919050565b600082825260208201905092915050565b6000616f4782616f20565b616f518185616f2b565b9350616f61818560208601614866565b616f6a81614899565b840191505092915050565b600060a082019050616f8a600083018861504b565b616f97602083018761504b565b8181036040830152616fa98186614e96565b90508181036060830152616fbd8185614e96565b90508181036080830152616fd18184616f3c565b90509695505050505050565b600081519050616fec8161478e565b92915050565b6000602082840312156170085761700761465a565b5b600061701684828501616fdd565b91505092915050565b60008160e01c9050919050565b600060033d111561704b5760046000803e61704860005161701f565b90505b90565b600060443d101561705e576170e1565b617066614650565b60043d036004823e80513d602482011167ffffffffffffffff8211171561708e5750506170e1565b808201805167ffffffffffffffff8111156170ac57505050506170e1565b80602083010160043d0385018111156170c95750505050506170e1565b6170d88260200185018661496b565b82955050505050505b90565b7f455243313135353a207472616e7366657220746f206e6f6e204552433131353560008201527f526563656976657220696d706c656d656e746572000000000000000000000000602082015250565b6000617140603483614855565b915061714b826170e4565b604082019050919050565b6000602082019050818103600083015261716f81617133565b9050919050565b7f455243313135353a204552433131353552656365697665722072656a6563746560008201527f6420746f6b656e73000000000000000000000000000000000000000000000000602082015250565b60006171d2602883614855565b91506171dd82617176565b604082019050919050565b60006020820190508181036000830152617201816171c5565b9050919050565b600060a08201905061721d600083018861504b565b61722a602083018761504b565b6172376040830186614738565b6172446060830185614738565b81810360808301526172568184616f3c565b90509695505050505050565b61726b81614762565b82525050565b60006020820190506172866000830184617262565b92915050565b600081905092915050565b60006172a282616f20565b6172ac818561728c565b93506172bc818560208601614866565b80840191505092915050565b60006172d48284617297565b915081905092915050565b6000815190506172ee816150f8565b92915050565b60006020828403121561730a5761730961465a565b5b6000617318848285016172df565b9150509291505056fe53616d706c6545524331313535576974684272616e6452656769737472793a2074657374205f6d696e744272616e64466f724142434445464748494a4b4c4d4e4f505152535455565758595a6162636465666768696a6b6c6d6e6f707172737475767778797a303132333435363738392b2f4272616e6452656769737472793a206272616e6420726567697374726174696f6ea264697066735822122041569ff2e8730b36d8f4a91f2be2819a5e61fbb25ff58ef59ed6a59b180300fc64736f6c634300080a0033",
  "immutableReferences": {},
  "source": "// SPDX-License-Identifier: MIT\npragma solidity >=0.8 <0.9.0;\n\nimport \"./SampleERC1155WithBrandRegistry.sol\";\nimport \"../MetaverseCore.sol\";\n\n/**\n * This is a sample metaverse. It has brand registry and the\n * metaverse core.\n */\ncontract SampleMetaverseCore is SampleERC1155WithBrandRegistry, MetaverseCore {\n    constructor() SampleERC1155WithBrandRegistry() {}\n\n    function _canAddPlugin(address _sender) internal view override returns (bool) {\n        return owner == _sender;\n    }\n\n    function _mintFor(address _to, uint256 _tokenId, uint256 _amount, bytes memory _data) internal override {\n        _mint(_to, _tokenId, _amount, _data);\n    }\n\n    function _burn(address _from, uint256 _tokenId, uint256 _amount) internal override {\n        super._burn(_from, _tokenId, _amount);\n        _tokenBurned(_from, _tokenId, _amount);\n    }\n\n    function _burnBatch(address _from, uint256[] memory _tokenIds, uint256[] memory _amounts) internal override {\n        super._burnBatch(_from, _tokenIds, _amounts);\n        _tokensBurned(_from, _tokenIds, _amounts);\n    }\n\n    function _brandURI(address _brandId) public override view returns (string memory) {\n        return brandMetadataURI(_brandId);\n    }\n}",
  "sourcePath": "/home/luismasuelli/Projects/OuterMaze/lingr-contracts/contracts/lingr/samples/SampleMetaverseCore.sol",
  "compiler": {
    "name": "solc",
    "version": "0.8.10+commit.fc410830.Emscripten.clang"
  },
  "schemaVersion": "3.4.3",
  "updatedAt": "2022-08-06T15:55:09.316Z",
  "devdoc": {
    "kind": "dev",
    "methods": {
      "balanceOf(address,uint256)": {
        "details": "See {IERC1155-balanceOf}. Requirements: - `account` cannot be the zero address."
      },
      "balanceOfBatch(address[],uint256[])": {
        "details": "See {IERC1155-balanceOfBatch}. Requirements: - `accounts` and `ids` must have the same length."
      },
      "isApprovedForAll(address,address)": {
        "details": "See {IERC1155-isApprovedForAll}."
      },
      "safeBatchTransferFrom(address,address,uint256[],uint256[],bytes)": {
        "details": "See {IERC1155-safeBatchTransferFrom}."
      },
      "safeTransferFrom(address,address,uint256,uint256,bytes)": {
        "details": "See {IERC1155-safeTransferFrom}."
      },
      "setApprovalForAll(address,bool)": {
        "details": "See {IERC1155-setApprovalForAll}."
      },
      "supportsInterface(bytes4)": {
        "details": "See {IERC165-supportsInterface}."
      },
      "uri(uint256)": {
        "details": "See {IERC1155MetadataURI-uri}. This implementation returns the same URI for *all* token types. It relies on the token type ID substitution mechanism https://eips.ethereum.org/EIPS/eip-1155#metadata[defined in the EIP]. Clients calling this function must replace the `\\{id\\}` substring with the actual token type ID."
      }
    },
    "version": 1
  },
  "userdoc": {
    "events": {
      "BrandEarningsWithdrawn(address,uint256)": {
        "notice": "This event is triggered when brand earnings were withdrawn successfully."
      },
      "BrandRegistered(address,address,string,string,uint256)": {
        "notice": "This event is triggered when a brand is registered. The new address is also included, along some reference data."
      },
      "BrandRegistrationCostUpdated(uint256)": {
        "notice": "An event for when the brand registration cost is updated."
      },
      "BrandSocialCommitmentUpdated(address,address,bool)": {
        "notice": "This event is triggered when a brand is updated with respect to its social commitment (this is: to tell a brand is socially committed according to the metaverse's views or not). Special benefits (in particular, with respect to assets loading on customers) are given in clients to socially committed brands."
      },
      "BrandUpdated(address,address)": {
        "notice": "This event is triggered when a brand is registered. The new address is also included, along some reference data."
      }
    },
    "kind": "user",
    "methods": {
      "_brandURI(address)": {
        "notice": "This method must be implemented to define how the metadata for a brand id will be retrieved (typically, this occurs in terms of BrandRegistry's brandMetadataURI)."
      },
      "addPlugin(address)": {
        "notice": "Adds a plug-in contract to this metaverse."
      },
      "brandExists(address)": {
        "notice": "Tells whether an address corresponds to a registered brand or not."
      },
      "brandMetadataURI(address)": {
        "notice": "Assembles the whole metadata for a brand. WARNING: This method will consume a lot of gas if invoked inside a transaction, so it is recommended to invoke this method in the context of a CALL, and never in the context of a SEND (even as part of other contract's code)."
      },
      "brandRegistrationCost()": {
        "notice": "The cost to register a new brand. This can be changed in the future and must be able to be known in the ABI for the users to be aware of the statistic."
      },
      "brandRegistrationCurrentEarnings()": {
        "notice": "Tells the current earnings, not yet withdrawn, from brand registrations."
      },
      "defineFTType(uint256)": {
        "notice": "Defines the resolution of a fungible token type. The token id must be in the range of the fungible token ids."
      },
      "defineNFTType(uint256)": {
        "notice": "Defines the resolution of a non-fungible token type. The token id must be in the range of the fungible token (type) ids (strictly > 0, strictly < (1 << 255))."
      },
      "mintFTFor(address,uint256,uint256,bytes)": {
        "notice": "Mints a specific fungible token type, in a certain amount."
      },
      "mintNFTFor(address,uint256,uint256,bytes)": {
        "notice": "Mints a specific non-fungible token type, using a specific id (and always using an amount of 1). It is an error if the token id is already minted, or the chosen id is < (1 << 160) since those ids are reserved for brands."
      },
      "nftTypes(uint256)": {
        "notice": "Now, each NFT id will be registered here along its token type. The difference with the fungible tokens (they're already registered in the `tokenTypes` mapping) is that they need to be registered with a particular token type. Also, both the NFT id and its associated token type will be lower than (1<<255) since, otherwise, they would be using values corresponding to the FT side (both for IDs and type indices). Brand NFTs are not included in this mapping (they are only characterized by being < (1 << 160))."
      },
      "plugins(address)": {
        "notice": "This is the list of plug-ins that are being added to the hub. Each contract has its separate logic but they have access to the same set of features. Once a contract is added, it will never be removed from this list. This mapping tells whether a contract in particular has permission(s) to define a type and mint tokens for an address."
      },
      "registerBrand(string,string,string,string,string,string)": {
        "notice": "Registers a new brand, when the appropriate price is paid for it. For more details on how this method works, check _registerBrand's inline documentation."
      },
      "setBrandRegistrationCost(uint256)": {
        "notice": "Sets the new brand registration cost."
      },
      "tokenTypeResolvers(uint256)": {
        "notice": "Types are identified as integer values, and each registered type will have a non-zero responsible address (serving to metadata resolution and also to account for the existence of a given type). The type 1 (0x1) will be the first type, and actually it will be the brand type. Other NFT types will be registered using indices lower to (1<<255), while FT types will be registered using indices greater than or equal to that value (i.e. starting with binary {1}). In the case of the FTs, the index in this mapping is also their token id. This is not the same for NFTs (they have one extra level of indirection since multiple ids might share the same type). A special type id will be regarded as invalid type (i.e. it will not count as NFT nor FT type, but as a non-existent type): 0 (0x0). The responsible serves two purposes: The first one, is to resolve the metadata of a given token id (be it FT or NFT). The second one is to account for one of such tokens being burned. The responsible will actually be one of the registered plug-ins, on each case (save for the brands case, which is resolved by this contract, and the invalid case, which has no resolver)."
      },
      "tokenURI(uint256)": {
        "notice": "Retrieves the metadata uri of a given token. WARNING: This method will consume a lot of gas if invoked inside a transaction, so it is recommended to invoke this method in the context of a CALL, and never in the context of a SEND (even as part of other contract's code)."
      },
      "updateBrandChallengeUrl(address,string)": {
        "notice": "Updates the brand's challenge url. Only the owner of the brand or an approved account can invoke this method. Ensure the url is empty or a valid URL, or metadata might fail to be assembled into valid JSON."
      },
      "updateBrandIcon16x16Url(address,string)": {
        "notice": "Updates the brand's 16x16 icon url. Only the owner of the brand or an approved account can invoke this method. Ensure the _icon is empty or a valid URL, or metadata might fail to be assembled into valid JSON."
      },
      "updateBrandIcon32x32Url(address,string)": {
        "notice": "Updates the brand's 32x32 icon url. Only the owner of the brand or an approved account can invoke this method. Ensure the _icon is empty or a valid URL, or metadata might fail to be assembled into valid JSON."
      },
      "updateBrandIcon64x64Url(address,string)": {
        "notice": "Updates the brand's 64x64 icon url. Only the owner of the brand or an approved account can invoke this method. Ensure the _icon is empty or a valid URL, or metadata might fail to be assembled into valid JSON."
      },
      "updateBrandImage(address,string)": {
        "notice": "Updates the brand image. Only the owner of the brand or an approved account can invoke this method. Ensure the _image is empty or a valid URL, or metadata might fail to be assembled into valid JSON."
      },
      "updateBrandSocialCommitment(address,bool)": {
        "notice": "Updates whether a brand is socially committed or not."
      },
      "withdrawBrandRegistrationEarnings(uint256)": {
        "notice": "Allows the sender to withdraw brand registration earnings."
      }
    },
    "notice": "This is a sample metaverse. It has brand registry and the metaverse core.",
    "version": 1
  }
}