{
  "contractName": "SampleMetaverse",
  "abi": [
    {
      "inputs": [],
      "stateMutability": "nonpayable",
      "type": "constructor"
    },
    {
      "inputs": [
        {
          "internalType": "address",
          "name": "_contract",
          "type": "address"
        }
      ],
      "name": "addPlugin",
      "outputs": [],
      "stateMutability": "nonpayable",
      "type": "function"
    },
    {
      "inputs": [],
      "name": "brandRegistry",
      "outputs": [
        {
          "internalType": "address",
          "name": "",
          "type": "address"
        }
      ],
      "stateMutability": "view",
      "type": "function"
    },
    {
      "inputs": [
        {
          "internalType": "address",
          "name": "_brandId",
          "type": "address"
        }
      ],
      "name": "defineNextFTType",
      "outputs": [
        {
          "internalType": "uint256",
          "name": "",
          "type": "uint256"
        }
      ],
      "stateMutability": "nonpayable",
      "type": "function"
    },
    {
      "inputs": [],
      "name": "defineNextNFTType",
      "outputs": [
        {
          "internalType": "uint256",
          "name": "",
          "type": "uint256"
        }
      ],
      "stateMutability": "nonpayable",
      "type": "function"
    },
    {
      "inputs": [],
      "name": "deployer",
      "outputs": [
        {
          "internalType": "address",
          "name": "",
          "type": "address"
        }
      ],
      "stateMutability": "view",
      "type": "function"
    },
    {
      "inputs": [],
      "name": "economy",
      "outputs": [
        {
          "internalType": "address",
          "name": "",
          "type": "address"
        }
      ],
      "stateMutability": "view",
      "type": "function"
    },
    {
      "inputs": [
        {
          "internalType": "address",
          "name": "_to",
          "type": "address"
        },
        {
          "internalType": "address",
          "name": "_brandId",
          "type": "address"
        }
      ],
      "name": "mintBrandFor",
      "outputs": [],
      "stateMutability": "nonpayable",
      "type": "function"
    },
    {
      "inputs": [
        {
          "internalType": "address",
          "name": "_to",
          "type": "address"
        },
        {
          "internalType": "uint256",
          "name": "_tokenId",
          "type": "uint256"
        },
        {
          "internalType": "uint256",
          "name": "_amount",
          "type": "uint256"
        },
        {
          "internalType": "bytes",
          "name": "_data",
          "type": "bytes"
        }
      ],
      "name": "mintFTFor",
      "outputs": [],
      "stateMutability": "nonpayable",
      "type": "function"
    },
    {
      "inputs": [
        {
          "internalType": "address",
          "name": "_to",
          "type": "address"
        },
        {
          "internalType": "uint256",
          "name": "_tokenType",
          "type": "uint256"
        },
        {
          "internalType": "bytes",
          "name": "_data",
          "type": "bytes"
        }
      ],
      "name": "mintNFTFor",
      "outputs": [
        {
          "internalType": "uint256",
          "name": "",
          "type": "uint256"
        }
      ],
      "stateMutability": "nonpayable",
      "type": "function"
    },
    {
      "inputs": [
        {
          "internalType": "uint256",
          "name": "",
          "type": "uint256"
        }
      ],
      "name": "nftTypes",
      "outputs": [
        {
          "internalType": "uint256",
          "name": "",
          "type": "uint256"
        }
      ],
      "stateMutability": "view",
      "type": "function"
    },
    {
      "inputs": [
        {
          "internalType": "address",
          "name": "_brandId",
          "type": "address"
        },
        {
          "internalType": "address",
          "name": "_newOwner",
          "type": "address"
        }
      ],
      "name": "onBrandOwnerChanged",
      "outputs": [],
      "stateMutability": "nonpayable",
      "type": "function"
    },
    {
      "inputs": [
        {
          "internalType": "address",
          "name": "_operator",
          "type": "address"
        },
        {
          "internalType": "address",
          "name": "_owner",
          "type": "address"
        },
        {
          "internalType": "uint256",
          "name": "_tokenId",
          "type": "uint256"
        },
        {
          "internalType": "uint256",
          "name": "_amount",
          "type": "uint256"
        }
      ],
      "name": "onTokenBurned",
      "outputs": [],
      "stateMutability": "nonpayable",
      "type": "function"
    },
    {
      "inputs": [
        {
          "internalType": "address",
          "name": "_operator",
          "type": "address"
        },
        {
          "internalType": "address",
          "name": "_owner",
          "type": "address"
        },
        {
          "internalType": "uint256[]",
          "name": "_tokenIds",
          "type": "uint256[]"
        },
        {
          "internalType": "uint256[]",
          "name": "_amounts",
          "type": "uint256[]"
        }
      ],
      "name": "onTokensBurned",
      "outputs": [],
      "stateMutability": "nonpayable",
      "type": "function"
    },
    {
      "inputs": [
        {
          "internalType": "address",
          "name": "",
          "type": "address"
        }
      ],
      "name": "plugins",
      "outputs": [
        {
          "internalType": "bool",
          "name": "",
          "type": "bool"
        }
      ],
      "stateMutability": "view",
      "type": "function"
    },
    {
      "inputs": [
        {
          "internalType": "address",
          "name": "_contract",
          "type": "address"
        }
      ],
      "name": "setBrandRegistry",
      "outputs": [],
      "stateMutability": "nonpayable",
      "type": "function"
    },
    {
      "inputs": [
        {
          "internalType": "address",
          "name": "_contract",
          "type": "address"
        }
      ],
      "name": "setEconomy",
      "outputs": [],
      "stateMutability": "nonpayable",
      "type": "function"
    },
    {
      "inputs": [
        {
          "internalType": "bytes4",
          "name": "interfaceId",
          "type": "bytes4"
        }
      ],
      "name": "supportsInterface",
      "outputs": [
        {
          "internalType": "bool",
          "name": "",
          "type": "bool"
        }
      ],
      "stateMutability": "view",
      "type": "function"
    },
    {
      "inputs": [
        {
          "internalType": "uint256",
          "name": "",
          "type": "uint256"
        }
      ],
      "name": "tokenTypeResolvers",
      "outputs": [
        {
          "internalType": "address",
          "name": "",
          "type": "address"
        }
      ],
      "stateMutability": "view",
      "type": "function"
    },
    {
      "inputs": [
        {
          "internalType": "uint256",
          "name": "_tokenId",
          "type": "uint256"
        }
      ],
      "name": "tokenURI",
      "outputs": [
        {
          "internalType": "string",
          "name": "",
          "type": "string"
        }
      ],
      "stateMutability": "view",
      "type": "function"
    }
  ],
  "bytecode": "0x60806040526002600655740100000000000000000000000000000000000000006007553480156200002f57600080fd5b50620000406200008660201b60201c565b600860006101000a81548173ffffffffffffffffffffffffffffffffffffffff021916908373ffffffffffffffffffffffffffffffffffffffff1602179055506200008e565b600033905090565b613b89806200009e6000396000f3fe608060405234801561001057600080fd5b50600436106101215760003560e01c80638820f6bd116100ad578063b842aa9211610071578063b842aa9214610304578063c87b56dd14610334578063d053bfa114610364578063d5f3948814610394578063d8867fc8146103b257610121565b80638820f6bd146102765780638cd6e9a914610294578063a16bc2ae146102b0578063acb8a060146102cc578063ad8509b0146102e857610121565b80634b12e643116100f45780634b12e643146101be578063556112d4146101ee5780635b1798e41461020c5780636b42d6131461022a57806379b2ab231461024657610121565b806301ffc9a71461012657806304a6fdc0146101565780631364c6f7146101865780631b5dc598146101a2575b600080fd5b610140600480360381019061013b91906122cb565b6103ce565b60405161014d9190612313565b60405180910390f35b610170600480360381019061016b9190612508565b6104a0565b60405161017d9190612586565b60405180910390f35b6101a0600480360381019061019b91906125a1565b610800565b005b6101bc60048036038101906101b79190612608565b6108a9565b005b6101d860048036038101906101d39190612648565b6109ec565b6040516101e59190612313565b60405180910390f35b6101f6610a0c565b6040516102039190612586565b60405180910390f35b610214610c0f565b6040516102219190612684565b60405180910390f35b610244600480360381019061023f9190612767565b610c35565b005b610260600480360381019061025b9190612806565b610d38565b60405161026d9190612586565b60405180910390f35b61027e610d50565b60405161028b9190612684565b60405180910390f35b6102ae60048036038101906102a99190612608565b610d76565b005b6102ca60048036038101906102c59190612833565b610ea0565b005b6102e660048036038101906102e19190612648565b6110d5565b005b61030260048036038101906102fd9190612648565b611241565b005b61031e60048036038101906103199190612648565b6113ad565b60405161032b9190612586565b60405180910390f35b61034e60048036038101906103499190612806565b6116ab565b60405161035b919061293e565b60405180910390f35b61037e60048036038101906103799190612806565b6117ce565b60405161038b9190612684565b60405180910390f35b61039c611801565b6040516103a99190612684565b60405180910390f35b6103cc60048036038101906103c79190612648565b611827565b005b60007f01ffc9a7000000000000000000000000000000000000000000000000000000007bffffffffffffffffffffffffffffffffffffffffffffffffffffffff1916827bffffffffffffffffffffffffffffffffffffffffffffffffffffffff1916148061049957507ff71d653a000000000000000000000000000000000000000000000000000000007bffffffffffffffffffffffffffffffffffffffffffffffffffffffff1916827bffffffffffffffffffffffffffffffffffffffffffffffffffffffff1916145b9050919050565b60008060006104ad611a04565b73ffffffffffffffffffffffffffffffffffffffff1673ffffffffffffffffffffffffffffffffffffffff16815260200190815260200160002060009054906101000a900460ff16610534576040517f08c379a000000000000000000000000000000000000000000000000000000000815260040161052b906129d2565b60405180910390fd5b8261053d611a04565b73ffffffffffffffffffffffffffffffffffffffff166003600083815260200190815260200160002060009054906101000a900473ffffffffffffffffffffffffffffffffffffffff1673ffffffffffffffffffffffffffffffffffffffff16146105dd576040517f08c379a00000000000000000000000000000000000000000000000000000000081526004016105d490612a64565b60405180910390fd5b837f80000000000000000000000000000000000000000000000000000000000000008110610640576040517f08c379a000000000000000000000000000000000000000000000000000000000815260040161063790612af6565b60405180910390fd5b6002851015610684576040517f08c379a000000000000000000000000000000000000000000000000000000000815260040161067b90612b88565b60405180910390fd5b6000600754905060007f7fffffffffffffffffffffffffffffffffffffffffffffffffffffffffffffff90505b600115610733578082106106fa576040517f08c379a00000000000000000000000000000000000000000000000000000000081526004016106f190612bf4565b60405180910390fd5b6000600460008481526020019081526020016000205414610729576001826107229190612c43565b915061072e565b610733565b6106b1565b6001826107409190612c43565b600781905550600260009054906101000a900473ffffffffffffffffffffffffffffffffffffffff1673ffffffffffffffffffffffffffffffffffffffff16635b0034fd898460018a6040518563ffffffff1660e01b81526004016107a89493929190612d33565b600060405180830381600087803b1580156107c257600080fd5b505af11580156107d6573d6000803e3d6000fd5b50505050866004600084815260200190815260200160002081905550819450505050509392505050565b600260009054906101000a900473ffffffffffffffffffffffffffffffffffffffff1673ffffffffffffffffffffffffffffffffffffffff16610841611a04565b73ffffffffffffffffffffffffffffffffffffffff1614610897576040517f08c379a000000000000000000000000000000000000000000000000000000000815260040161088e90612df1565b60405180910390fd5b6108a384848484611a0c565b50505050565b600160009054906101000a900473ffffffffffffffffffffffffffffffffffffffff1673ffffffffffffffffffffffffffffffffffffffff166108ea611a04565b73ffffffffffffffffffffffffffffffffffffffff1614610940576040517f08c379a000000000000000000000000000000000000000000000000000000000815260040161093790612e83565b60405180910390fd5b600260009054906101000a900473ffffffffffffffffffffffffffffffffffffffff1673ffffffffffffffffffffffffffffffffffffffff16635b0034fd838373ffffffffffffffffffffffffffffffffffffffff1660016040518463ffffffff1660e01b81526004016109b693929190612eef565b600060405180830381600087803b1580156109d057600080fd5b505af11580156109e4573d6000803e3d6000fd5b505050505050565b60006020528060005260406000206000915054906101000a900460ff1681565b6000806000610a19611a04565b73ffffffffffffffffffffffffffffffffffffffff1673ffffffffffffffffffffffffffffffffffffffff16815260200190815260200160002060009054906101000a900460ff16610aa0576040517f08c379a0000000000000000000000000000000000000000000000000000000008152600401610a97906129d2565b60405180910390fd5b6000600654905060007f7fffffffffffffffffffffffffffffffffffffffffffffffffffffffffffffff90505b600115610b9b57808210610b16576040517f08c379a0000000000000000000000000000000000000000000000000000000008152600401610b0d90612fab565b60405180910390fd5b600073ffffffffffffffffffffffffffffffffffffffff166003600084815260200190815260200160002060009054906101000a900473ffffffffffffffffffffffffffffffffffffffff1673ffffffffffffffffffffffffffffffffffffffff1614610b9157600182610b8a9190612c43565b9150610b96565b610b9b565b610acd565b600182610ba89190612c43565b600681905550610bb6611a04565b6003600084815260200190815260200160002060006101000a81548173ffffffffffffffffffffffffffffffffffffffff021916908373ffffffffffffffffffffffffffffffffffffffff160217905550819250505090565b600160009054906101000a900473ffffffffffffffffffffffffffffffffffffffff1681565b600260009054906101000a900473ffffffffffffffffffffffffffffffffffffffff1673ffffffffffffffffffffffffffffffffffffffff16610c76611a04565b73ffffffffffffffffffffffffffffffffffffffff1614610ccc576040517f08c379a0000000000000000000000000000000000000000000000000000000008152600401610cc390612df1565b60405180910390fd5b60008251905060005b81811015610d3057610d1d8686868481518110610cf557610cf4612fcb565b5b6020026020010151868581518110610d1057610d0f612fcb565b5b6020026020010151611a0c565b8080610d2890612ffa565b915050610cd5565b505050505050565b60046020528060005260406000206000915090505481565b600260009054906101000a900473ffffffffffffffffffffffffffffffffffffffff1681565b600260009054906101000a900473ffffffffffffffffffffffffffffffffffffffff1673ffffffffffffffffffffffffffffffffffffffff16610db7611a04565b73ffffffffffffffffffffffffffffffffffffffff1614610e0d576040517f08c379a0000000000000000000000000000000000000000000000000000000008152600401610e0490612df1565b60405180910390fd5b600160009054906101000a900473ffffffffffffffffffffffffffffffffffffffff1673ffffffffffffffffffffffffffffffffffffffff16638cd6e9a983836040518363ffffffff1660e01b8152600401610e6a929190613043565b600060405180830381600087803b158015610e8457600080fd5b505af1158015610e98573d6000803e3d6000fd5b505050505050565b600080610eab611a04565b73ffffffffffffffffffffffffffffffffffffffff1673ffffffffffffffffffffffffffffffffffffffff16815260200190815260200160002060009054906101000a900460ff16610f32576040517f08c379a0000000000000000000000000000000000000000000000000000000008152600401610f29906129d2565b60405180910390fd5b82600073ffffffffffffffffffffffffffffffffffffffff166003600083815260200190815260200160002060009054906101000a900473ffffffffffffffffffffffffffffffffffffffff1673ffffffffffffffffffffffffffffffffffffffff161415610fd6576040517f08c379a0000000000000000000000000000000000000000000000000000000008152600401610fcd906130de565b60405180910390fd5b837f800000000000000000000000000000000000000000000000000000000000000081101561103a576040517f08c379a000000000000000000000000000000000000000000000000000000000815260040161103190613196565b60405180910390fd5b600260009054906101000a900473ffffffffffffffffffffffffffffffffffffffff1673ffffffffffffffffffffffffffffffffffffffff16635b0034fd878787876040518563ffffffff1660e01b815260040161109b94939291906131b6565b600060405180830381600087803b1580156110b557600080fd5b505af11580156110c9573d6000803e3d6000fd5b50505050505050505050565b6110e56110e0611a04565b611bc0565b611124576040517f08c379a000000000000000000000000000000000000000000000000000000000815260040161111b90613274565b60405180910390fd5b61112d81611c1a565b61116c576040517f08c379a00000000000000000000000000000000000000000000000000000000081526004016111639061332c565b60405180910390fd5b600073ffffffffffffffffffffffffffffffffffffffff16600160009054906101000a900473ffffffffffffffffffffffffffffffffffffffff1673ffffffffffffffffffffffffffffffffffffffff16146111fd576040517f08c379a00000000000000000000000000000000000000000000000000000000081526004016111f4906133be565b60405180910390fd5b80600160006101000a81548173ffffffffffffffffffffffffffffffffffffffff021916908373ffffffffffffffffffffffffffffffffffffffff16021790555050565b61125161124c611a04565b611d11565b611290576040517f08c379a000000000000000000000000000000000000000000000000000000000815260040161128790613450565b60405180910390fd5b61129981611d6b565b6112d8576040517f08c379a00000000000000000000000000000000000000000000000000000000081526004016112cf90613508565b60405180910390fd5b600073ffffffffffffffffffffffffffffffffffffffff16600260009054906101000a900473ffffffffffffffffffffffffffffffffffffffff1673ffffffffffffffffffffffffffffffffffffffff1614611369576040517f08c379a00000000000000000000000000000000000000000000000000000000081526004016113609061359a565b60405180910390fd5b80600260006101000a81548173ffffffffffffffffffffffffffffffffffffffff021916908373ffffffffffffffffffffffffffffffffffffffff16021790555050565b60008060006113ba611a04565b73ffffffffffffffffffffffffffffffffffffffff1673ffffffffffffffffffffffffffffffffffffffff16815260200190815260200160002060009054906101000a900460ff16611441576040517f08c379a0000000000000000000000000000000000000000000000000000000008152600401611438906129d2565b60405180910390fd5b6000600560008473ffffffffffffffffffffffffffffffffffffffff1673ffffffffffffffffffffffffffffffffffffffff16815260200190815260200160002060009054906101000a900467ffffffffffffffff16905060008167ffffffffffffffff1660408573ffffffffffffffffffffffffffffffffffffffff16901b7f8000000000000000000000000000000000000000000000000000000000000000171790505b6001156115d65767ffffffffffffffff8267ffffffffffffffff1610611542576040517f08c379a00000000000000000000000000000000000000000000000000000000081526004016115399061362c565b60405180910390fd5b600073ffffffffffffffffffffffffffffffffffffffff166003600083815260200190815260200160002060009054906101000a900473ffffffffffffffffffffffffffffffffffffffff1673ffffffffffffffffffffffffffffffffffffffff16146115cc576001826115b69190613660565b91506001816115c59190612c43565b90506115d1565b6115d6565b6114e7565b6001826115e39190613660565b600560008673ffffffffffffffffffffffffffffffffffffffff1673ffffffffffffffffffffffffffffffffffffffff16815260200190815260200160002060006101000a81548167ffffffffffffffff021916908367ffffffffffffffff160217905550611650611a04565b6003600083815260200190815260200160002060006101000a81548173ffffffffffffffffffffffffffffffffffffffff021916908373ffffffffffffffffffffffffffffffffffffffff1602179055508092505050919050565b60607401000000000000000000000000000000000000000082101561177257600160009054906101000a900473ffffffffffffffffffffffffffffffffffffffff1673ffffffffffffffffffffffffffffffffffffffff16639896c31d836040518263ffffffff1660e01b81526004016117259190612684565b600060405180830381865afa158015611742573d6000803e3d6000fd5b505050506040513d6000823e3d601f19601f8201168201806040525081019061176b919061373f565b90506117c9565b7f80000000000000000000000000000000000000000000000000000000000000008210156117bd576117b66004600084815260200190815260200160002054611e62565b90506117c9565b6117c682611e62565b90505b919050565b60036020528060005260406000206000915054906101000a900473ffffffffffffffffffffffffffffffffffffffff1681565b600860009054906101000a900473ffffffffffffffffffffffffffffffffffffffff1681565b611837611832611a04565b611f71565b611876576040517f08c379a000000000000000000000000000000000000000000000000000000000815260040161186d906137fa565b60405180910390fd5b61187f81611fcb565b6118be576040517f08c379a00000000000000000000000000000000000000000000000000000000081526004016118b5906138b2565b60405180910390fd5b6000808273ffffffffffffffffffffffffffffffffffffffff1673ffffffffffffffffffffffffffffffffffffffff16815260200190815260200160002060009054906101000a900460ff161561194a576040517f08c379a000000000000000000000000000000000000000000000000000000000815260040161194190613944565b60405180910390fd5b60016000808373ffffffffffffffffffffffffffffffffffffffff1673ffffffffffffffffffffffffffffffffffffffff16815260200190815260200160002060006101000a81548160ff0219169083151502179055508073ffffffffffffffffffffffffffffffffffffffff16638129fc1c6040518163ffffffff1660e01b8152600401600060405180830381600087803b1580156119e957600080fd5b505af11580156119fd573d6000803e3d6000fd5b5050505050565b600033905090565b74010000000000000000000000000000000000000000821015611a64576040517f08c379a0000000000000000000000000000000000000000000000000000000008152600401611a5b906139d6565b60405180910390fd5b60007f8000000000000000000000000000000000000000000000000000000000000000831015611adc57600360006004600086815260200190815260200160002054815260200190815260200160002060009054906101000a900473ffffffffffffffffffffffffffffffffffffffff169050611b13565b6003600084815260200190815260200160002060009054906101000a900473ffffffffffffffffffffffffffffffffffffffff1690505b600073ffffffffffffffffffffffffffffffffffffffff168173ffffffffffffffffffffffffffffffffffffffff1614611bb9578073ffffffffffffffffffffffffffffffffffffffff16633fff0d18868686866040518563ffffffff1660e01b8152600401611b8694939291906139f6565b600060405180830381600087803b158015611ba057600080fd5b505af1158015611bb4573d6000803e3d6000fd5b505050505b5050505050565b6000600860009054906101000a900473ffffffffffffffffffffffffffffffffffffffff1673ffffffffffffffffffffffffffffffffffffffff168273ffffffffffffffffffffffffffffffffffffffff16149050919050565b6000611c657f9b151866000000000000000000000000000000000000000000000000000000008373ffffffffffffffffffffffffffffffffffffffff166120c290919063ffffffff16565b8015611d0a57503073ffffffffffffffffffffffffffffffffffffffff168273ffffffffffffffffffffffffffffffffffffffff1663f200670d6040518163ffffffff1660e01b8152600401602060405180830381865afa158015611cce573d6000803e3d6000fd5b505050506040513d601f19601f82011682018060405250810190611cf29190613a50565b73ffffffffffffffffffffffffffffffffffffffff16145b9050919050565b6000600860009054906101000a900473ffffffffffffffffffffffffffffffffffffffff1673ffffffffffffffffffffffffffffffffffffffff168273ffffffffffffffffffffffffffffffffffffffff16149050919050565b6000611db67fa90053f0000000000000000000000000000000000000000000000000000000008373ffffffffffffffffffffffffffffffffffffffff166120c290919063ffffffff16565b8015611e5b57503073ffffffffffffffffffffffffffffffffffffffff168273ffffffffffffffffffffffffffffffffffffffff1663f200670d6040518163ffffffff1660e01b8152600401602060405180830381865afa158015611e1f573d6000803e3d6000fd5b505050506040513d601f19601f82011682018060405250810190611e439190613a50565b73ffffffffffffffffffffffffffffffffffffffff16145b9050919050565b606060006003600084815260200190815260200160002060009054906101000a900473ffffffffffffffffffffffffffffffffffffffff169050600073ffffffffffffffffffffffffffffffffffffffff168173ffffffffffffffffffffffffffffffffffffffff161415611ee95760405180602001604052806000815250915050611f6c565b8073ffffffffffffffffffffffffffffffffffffffff16630e89341c846040518263ffffffff1660e01b8152600401611f229190612586565b600060405180830381865afa158015611f3f573d6000803e3d6000fd5b505050506040513d6000823e3d601f19601f82011682018060405250810190611f68919061373f565b9150505b919050565b6000600860009054906101000a900473ffffffffffffffffffffffffffffffffffffffff1673ffffffffffffffffffffffffffffffffffffffff168273ffffffffffffffffffffffffffffffffffffffff16149050919050565b60006120167f08267719000000000000000000000000000000000000000000000000000000008373ffffffffffffffffffffffffffffffffffffffff166120c290919063ffffffff16565b80156120bb57503073ffffffffffffffffffffffffffffffffffffffff168273ffffffffffffffffffffffffffffffffffffffff1663f200670d6040518163ffffffff1660e01b8152600401602060405180830381865afa15801561207f573d6000803e3d6000fd5b505050506040513d601f19601f820116820180604052508101906120a39190613a50565b73ffffffffffffffffffffffffffffffffffffffff16145b9050919050565b60006120cd836120e7565b80156120df57506120de8383612134565b5b905092915050565b6000612113827f01ffc9a700000000000000000000000000000000000000000000000000000000612134565b801561212d575061212b8263ffffffff60e01b612134565b155b9050919050565b6000806301ffc9a760e01b836040516024016121509190613a8c565b604051602081830303815290604052907bffffffffffffffffffffffffffffffffffffffffffffffffffffffff19166020820180517bffffffffffffffffffffffffffffffffffffffffffffffffffffffff838183161783525050505090506000808573ffffffffffffffffffffffffffffffffffffffff16617530846040516121da9190613ae3565b6000604051808303818686fa925050503d8060008114612216576040519150601f19603f3d011682016040523d82523d6000602084013e61221b565b606091505b50915091506020815110156122365760009350505050612259565b8180156122535750808060200190518101906122529190613b26565b5b93505050505b92915050565b6000604051905090565b600080fd5b600080fd5b60007fffffffff0000000000000000000000000000000000000000000000000000000082169050919050565b6122a881612273565b81146122b357600080fd5b50565b6000813590506122c58161229f565b92915050565b6000602082840312156122e1576122e0612269565b5b60006122ef848285016122b6565b91505092915050565b60008115159050919050565b61230d816122f8565b82525050565b60006020820190506123286000830184612304565b92915050565b600073ffffffffffffffffffffffffffffffffffffffff82169050919050565b60006123598261232e565b9050919050565b6123698161234e565b811461237457600080fd5b50565b60008135905061238681612360565b92915050565b6000819050919050565b61239f8161238c565b81146123aa57600080fd5b50565b6000813590506123bc81612396565b92915050565b600080fd5b600080fd5b6000601f19601f8301169050919050565b7f4e487b7100000000000000000000000000000000000000000000000000000000600052604160045260246000fd5b612415826123cc565b810181811067ffffffffffffffff82111715612434576124336123dd565b5b80604052505050565b600061244761225f565b9050612453828261240c565b919050565b600067ffffffffffffffff821115612473576124726123dd565b5b61247c826123cc565b9050602081019050919050565b82818337600083830152505050565b60006124ab6124a684612458565b61243d565b9050828152602081018484840111156124c7576124c66123c7565b5b6124d2848285612489565b509392505050565b600082601f8301126124ef576124ee6123c2565b5b81356124ff848260208601612498565b91505092915050565b60008060006060848603121561252157612520612269565b5b600061252f86828701612377565b9350506020612540868287016123ad565b925050604084013567ffffffffffffffff8111156125615761256061226e565b5b61256d868287016124da565b9150509250925092565b6125808161238c565b82525050565b600060208201905061259b6000830184612577565b92915050565b600080600080608085870312156125bb576125ba612269565b5b60006125c987828801612377565b94505060206125da87828801612377565b93505060406125eb878288016123ad565b92505060606125fc878288016123ad565b91505092959194509250565b6000806040838503121561261f5761261e612269565b5b600061262d85828601612377565b925050602061263e85828601612377565b9150509250929050565b60006020828403121561265e5761265d612269565b5b600061266c84828501612377565b91505092915050565b61267e8161234e565b82525050565b60006020820190506126996000830184612675565b92915050565b600067ffffffffffffffff8211156126ba576126b96123dd565b5b602082029050602081019050919050565b600080fd5b60006126e36126de8461269f565b61243d565b90508083825260208201905060208402830185811115612706576127056126cb565b5b835b8181101561272f578061271b88826123ad565b845260208401935050602081019050612708565b5050509392505050565b600082601f83011261274e5761274d6123c2565b5b813561275e8482602086016126d0565b91505092915050565b6000806000806080858703121561278157612780612269565b5b600061278f87828801612377565b94505060206127a087828801612377565b935050604085013567ffffffffffffffff8111156127c1576127c061226e565b5b6127cd87828801612739565b925050606085013567ffffffffffffffff8111156127ee576127ed61226e565b5b6127fa87828801612739565b91505092959194509250565b60006020828403121561281c5761281b612269565b5b600061282a848285016123ad565b91505092915050565b6000806000806080858703121561284d5761284c612269565b5b600061285b87828801612377565b945050602061286c878288016123ad565b935050604061287d878288016123ad565b925050606085013567ffffffffffffffff81111561289e5761289d61226e565b5b6128aa878288016124da565b91505092959194509250565b600081519050919050565b600082825260208201905092915050565b60005b838110156128f05780820151818401526020810190506128d5565b838111156128ff576000848401525b50505050565b6000612910826128b6565b61291a81856128c1565b935061292a8185602086016128d2565b612933816123cc565b840191505092915050565b600060208201905081810360008301526129588184612905565b905092915050565b7f4d65746176657273653a207468652073656e646572206d75737420626520612060008201527f706c75672d696e00000000000000000000000000000000000000000000000000602082015250565b60006129bc6027836128c1565b91506129c782612960565b604082019050919050565b600060208201905081810360008301526129eb816129af565b9050919050565b7f4d65746176657273653a206e6f7420612074797065207265676973746572656460008201527f206279207468697320706c75672d696e00000000000000000000000000000000602082015250565b6000612a4e6030836128c1565b9150612a59826129f2565b604082019050919050565b60006020820190508181036000830152612a7d81612a41565b9050919050565b7f4d65746176657273653a20746865207370656369666965642076616c7565206960008201527f73206e6f7420696e20746865206e66742072616e676500000000000000000000602082015250565b6000612ae06036836128c1565b9150612aeb82612a84565b604082019050919050565b60006020820190508181036000830152612b0f81612ad3565b9050919050565b7f4d65746176657273653a204e465420747970657320302028696e76616c69642960008201527f20616e64203120286272616e64292063616e6e6f74206265206d696e74656400602082015250565b6000612b72603f836128c1565b9150612b7d82612b16565b604082019050919050565b60006020820190508181036000830152612ba181612b65565b9050919050565b7f4d65746176657273653a2063616e6e6f74206d696e74206d6f7265204e465473600082015250565b6000612bde6020836128c1565b9150612be982612ba8565b602082019050919050565b60006020820190508181036000830152612c0d81612bd1565b9050919050565b7f4e487b7100000000000000000000000000000000000000000000000000000000600052601160045260246000fd5b6000612c4e8261238c565b9150612c598361238c565b9250827fffffffffffffffffffffffffffffffffffffffffffffffffffffffffffffffff03821115612c8e57612c8d612c14565b5b828201905092915050565b6000819050919050565b6000819050919050565b6000612cc8612cc3612cbe84612c99565b612ca3565b61238c565b9050919050565b612cd881612cad565b82525050565b600081519050919050565b600082825260208201905092915050565b6000612d0582612cde565b612d0f8185612ce9565b9350612d1f8185602086016128d2565b612d28816123cc565b840191505092915050565b6000608082019050612d486000830187612675565b612d556020830186612577565b612d626040830185612ccf565b8181036060830152612d748184612cfa565b905095945050505050565b7f4d65746176657273653a20746865206f6e6c7920616c6c6f7765642073656e6460008201527f6572206973207468652065636f6e6f6d792073797374656d0000000000000000602082015250565b6000612ddb6038836128c1565b9150612de682612d7f565b604082019050919050565b60006020820190508181036000830152612e0a81612dce565b9050919050565b7f4d65746176657273653a20746865206f6e6c7920616c6c6f7765642073656e6460008201527f657220697320746865206272616e642072656769737472790000000000000000602082015250565b6000612e6d6038836128c1565b9150612e7882612e11565b604082019050919050565b60006020820190508181036000830152612e9c81612e60565b9050919050565b7f4d65746176657273653a204d696e74696e672061206272616e64000000000000600082015250565b6000612ed9601a83612ce9565b9150612ee482612ea3565b602082019050919050565b6000608082019050612f046000830186612675565b612f116020830185612577565b612f1e6040830184612ccf565b8181036060830152612f2f81612ecc565b9050949350505050565b7f4d65746176657273653a2063616e6e6f7420646566696e65206d6f7265204e4660008201527f5420747970657300000000000000000000000000000000000000000000000000602082015250565b6000612f956027836128c1565b9150612fa082612f39565b604082019050919050565b60006020820190508181036000830152612fc481612f88565b9050919050565b7f4e487b7100000000000000000000000000000000000000000000000000000000600052603260045260246000fd5b60006130058261238c565b91507fffffffffffffffffffffffffffffffffffffffffffffffffffffffffffffffff82141561303857613037612c14565b5b600182019050919050565b60006040820190506130586000830185612675565b6130656020830184612675565b9392505050565b7f4d65746176657273653a20756e6b6e6f776e202f206e6f6e2d6d696e7461626c60008201527f6520746f6b656e20747970652069640000000000000000000000000000000000602082015250565b60006130c8602f836128c1565b91506130d38261306c565b604082019050919050565b600060208201905081810360008301526130f7816130bb565b9050919050565b7f4d65746176657273653a20746865207370656369666965642076616c7565206960008201527f73206e6f7420696e207468652066756e6769626c6520746f6b656e732072616e60208201527f6765000000000000000000000000000000000000000000000000000000000000604082015250565b60006131806042836128c1565b915061318b826130fe565b606082019050919050565b600060208201905081810360008301526131af81613173565b9050919050565b60006080820190506131cb6000830187612675565b6131d86020830186612577565b6131e56040830185612577565b81810360608301526131f78184612cfa565b905095945050505050565b7f4d65746176657273653a207468652073656e646572206973206e6f7420616c6c60008201527f6f77656420746f207365742074686520706c75672d696e000000000000000000602082015250565b600061325e6037836128c1565b915061326982613202565b604082019050919050565b6000602082019050818103600083015261328d81613251565b9050919050565b7f4d65746176657273653a20746865206164647265737320646f6573206e6f742060008201527f62656c6f6e6720746f20612076616c6964206272616e6420726567697374727960208201527f20636f6e747261637420666f722074686973206d657461766572736500000000604082015250565b6000613316605c836128c1565b915061332182613294565b606082019050919050565b6000602082019050818103600083015261334581613309565b9050919050565b7f4d65746176657273653a2061206272616e64207265676973747279206973206160008201527f6c72656164792073657420696e746f2074686973206d65746176657273650000602082015250565b60006133a8603e836128c1565b91506133b38261334c565b604082019050919050565b600060208201905081810360008301526133d78161339b565b9050919050565b7f4d65746176657273653a207468652073656e646572206973206e6f7420616c6c60008201527f6f77656420746f20736574207468652065636f6e6f6d79000000000000000000602082015250565b600061343a6037836128c1565b9150613445826133de565b604082019050919050565b600060208201905081810360008301526134698161342d565b9050919050565b7f4d65746176657273653a20746865206164647265737320646f6573206e6f742060008201527f62656c6f6e6720746f20612076616c69642065636f6e6f6d7920636f6e74726160208201527f637420666f722074686973206d65746176657273650000000000000000000000604082015250565b60006134f26055836128c1565b91506134fd82613470565b606082019050919050565b60006020820190508181036000830152613521816134e5565b9050919050565b7f4d65746176657273653a20616e2065636f6e6f6d7920697320616c726561647960008201527f2073657420696e746f2074686973206d65746176657273650000000000000000602082015250565b60006135846038836128c1565b915061358f82613528565b604082019050919050565b600060208201905081810360008301526135b381613577565b9050919050565b7f4d65746176657273653a2063616e6e6f7420646566696e65206d6f726520465460008201527f20747970657320666f7220746869732061646472657373000000000000000000602082015250565b60006136166037836128c1565b9150613621826135ba565b604082019050919050565b6000602082019050818103600083015261364581613609565b9050919050565b600067ffffffffffffffff82169050919050565b600061366b8261364c565b91506136768361364c565b92508267ffffffffffffffff0382111561369357613692612c14565b5b828201905092915050565b600067ffffffffffffffff8211156136b9576136b86123dd565b5b6136c2826123cc565b9050602081019050919050565b60006136e26136dd8461369e565b61243d565b9050828152602081018484840111156136fe576136fd6123c7565b5b6137098482856128d2565b509392505050565b600082601f830112613726576137256123c2565b5b81516137368482602086016136cf565b91505092915050565b60006020828403121561375557613754612269565b5b600082015167ffffffffffffffff8111156137735761377261226e565b5b61377f84828501613711565b91505092915050565b7f4d65746176657273653a207468652073656e646572206973206e6f7420616c6c60008201527f6f77656420746f20616464206120706c75672d696e0000000000000000000000602082015250565b60006137e46035836128c1565b91506137ef82613788565b604082019050919050565b60006020820190508181036000830152613813816137d7565b9050919050565b7f4d65746176657273653a20746865206164647265737320646f6573206e6f742060008201527f62656c6f6e6720746f20612076616c696420706c75672d696e20636f6e74726160208201527f637420666f722074686973206d65746176657273650000000000000000000000604082015250565b600061389c6055836128c1565b91506138a78261381a565b606082019050919050565b600060208201905081810360008301526138cb8161388f565b9050919050565b7f4d65746176657273653a2074686520706c75672d696e20697320616c7265616460008201527f7920616464656420746f2074686973206d657461766572736500000000000000602082015250565b600061392e6039836128c1565b9150613939826138d2565b604082019050919050565b6000602082019050818103600083015261395d81613921565b9050919050565b7f4d65746176657273653a206272616e64732063616e6e6f74206265206275726e60008201527f6564000000000000000000000000000000000000000000000000000000000000602082015250565b60006139c06022836128c1565b91506139cb82613964565b604082019050919050565b600060208201905081810360008301526139ef816139b3565b9050919050565b6000608082019050613a0b6000830187612675565b613a186020830186612675565b613a256040830185612577565b613a326060830184612577565b95945050505050565b600081519050613a4a81612360565b92915050565b600060208284031215613a6657613a65612269565b5b6000613a7484828501613a3b565b91505092915050565b613a8681612273565b82525050565b6000602082019050613aa16000830184613a7d565b92915050565b600081905092915050565b6000613abd82612cde565b613ac78185613aa7565b9350613ad78185602086016128d2565b80840191505092915050565b6000613aef8284613ab2565b915081905092915050565b613b03816122f8565b8114613b0e57600080fd5b50565b600081519050613b2081613afa565b92915050565b600060208284031215613b3c57613b3b612269565b5b6000613b4a84828501613b11565b9150509291505056fea26469706673582212203fb9e986b0ef18502002c810ce6ee8b9b2e452d44910c34ab5328ad888f8e9ff64736f6c634300080a0033",
  "immutableReferences": {},
  "source": "// SPDX-License-Identifier: MIT\npragma solidity >=0.8 <0.9.0;\n\nimport \"../Metaverse.sol\";\n\ncontract SampleMetaverse is Metaverse {\n    /**\n     * The deployer of this metaverse.\n     */\n    address public deployer;\n\n    constructor() {\n        deployer = _msgSender();\n    }\n\n    /**\n     * Adding the plug-ins is only allowed to the deployer.\n     */\n    function _canAddPlugin(address _sender) internal view override returns (bool) {\n        return _sender == deployer;\n    }\n\n    /**\n     * Setting the brand registry is only allowed to the deployer.\n     */\n    function _canSetBrandRegistry(address _sender) internal view override returns (bool) {\n        return _sender == deployer;\n    }\n\n    /**\n     * Setting the economy system is only allowed to the deployer.\n     */\n    function _canSetEconomy(address _sender) internal view override returns (bool) {\n        return _sender == deployer;\n    }\n}\n",
  "sourcePath": "/home/luismasuelli/Projects/OuterMaze/lingr-contracts/contracts/lingr/samples/SampleMetaverse.sol",
  "compiler": {
    "name": "solc",
    "version": "0.8.10+commit.fc410830.Emscripten.clang"
  },
  "schemaVersion": "3.4.3",
  "updatedAt": "2022-08-11T19:19:55.551Z",
  "devdoc": {
    "kind": "dev",
    "methods": {},
    "version": 1
  },
  "userdoc": {
    "kind": "user",
    "methods": {
      "addPlugin(address)": {
        "notice": "Adds a plug-in contract to this metaverse."
      },
      "brandRegistry()": {
        "notice": "The linked brand registry for this metaverse."
      },
      "defineNextFTType(address)": {
        "notice": "Defines the resolution of a fungible token type. The token id must be in the range of the fungible token ids."
      },
      "defineNextNFTType()": {
        "notice": "Defines the resolution of a non-fungible token type. The token id must be in the range of the fungible token (type) ids (strictly > 0, strictly < (1 << 255))."
      },
      "deployer()": {
        "notice": "The deployer of this metaverse."
      },
      "economy()": {
        "notice": "The linked economy for this metaverse."
      },
      "mintBrandFor(address,address)": {
        "notice": "Mints a specific brand token for a given user. The brand is stated as its address."
      },
      "mintFTFor(address,uint256,uint256,bytes)": {
        "notice": "Mints a specific fungible token type, in a certain amount."
      },
      "mintNFTFor(address,uint256,bytes)": {
        "notice": "Mints a specific non-fungible token type, using a specific type (and always using an amount of 1). It is an error if the chosen type is unknown or < 2, since those types are reserved for being invalid or brands. Also, it is an error if the chosen type is not for that plug-in."
      },
      "nftTypes(uint256)": {
        "notice": "Now, each NFT id will be registered here along its token type. The difference with the fungible tokens (they're already registered in the `tokenTypes` mapping) is that they need to be registered with a particular token type. Also, both the NFT id and its associated token type will be lower than (1<<255) since, otherwise, they would be using values corresponding to the FT side (both for IDs and type indices). Brand NFTs are not included in this mapping (they are only characterized by being < (1 << 160))."
      },
      "onBrandOwnerChanged(address,address)": {
        "notice": "Hook to be invoked as part of a transfer from ERC1155."
      },
      "onTokenBurned(address,address,uint256,uint256)": {
        "notice": "Hook to be invoked as part of a burn process when an address burns a particular token in some quantity (for NFTs, the quantity is 1 in every case). By this point, we should be guaranteed that the _tokenId will actually have a resolver (being it a fungible token type, or being it a non-fungible token id). Also, the operator will be specified (perhaps matching the owner)."
      },
      "onTokensBurned(address,address,uint256[],uint256[])": {
        "notice": "Hook to be invoked as part of a batch burn process when an address burns a particulars et of tokens in respective quantities (for NFTs, the quantity is 1 in every case; it is guaranteed that both arrays are always of the same length. Also, the operator will be specified (perhaps matching the owner)."
      },
      "plugins(address)": {
        "notice": "This is the list of plug-ins that are being added to the hub. Each contract has its separate logic but they have access to the same set of features. Once a contract is added, it will never be removed from this list. This mapping tells whether a contract in particular has permission(s) to define a type and mint tokens for an address."
      },
      "setBrandRegistry(address)": {
        "notice": "Adds a plug-in contract to this metaverse."
      },
      "setEconomy(address)": {
        "notice": "Set the economy contract to this metaverse."
      },
      "supportsInterface(bytes4)": {
        "notice": "A metaverse satisfies the IMetaverse and IERC165 interfaces."
      },
      "tokenTypeResolvers(uint256)": {
        "notice": "Types are identified as integer values, and each registered type will have a non-zero responsible address (serving to metadata resolution and also to account for the existence of a given type). The type 1 (0x1) will be the first type, and actually it will be the brand type. Other NFT types will be registered using indices lower to (1<<255), while FT types will be registered using indices greater than or equal to that value (i.e. starting with binary {1}). In the case of the FTs, the index in this mapping is also their token id. This is not the same for NFTs (they have one extra level of indirection since multiple ids might share the same type). A special type id will be regarded as invalid type (i.e. it will not count as NFT nor FT type, but as a non-existent type): 0 (0x0). The responsible serves two purposes: The first one, is to resolve the metadata of a given token id (be it FT or NFT). The second one is to account for one of such tokens being burned. The responsible will actually be one of the registered plug-ins, on each case (save for the brands case, which is resolved by this contract, and the invalid case, which has no resolver)."
      },
      "tokenURI(uint256)": {
        "notice": "Retrieves the metadata uri of a given token. WARNING: This method will consume a lot of gas if invoked inside a transaction, so it is recommended to invoke this method in the context of a CALL, and never in the context of a SEND (even as part of other contract's code)."
      }
    },
    "version": 1
  }
}