{
  "contractName": "SampleERC1155WithBrandRegistry",
  "abi": [
    {
      "inputs": [],
      "stateMutability": "nonpayable",
      "type": "constructor"
    },
    {
      "anonymous": false,
      "inputs": [
        {
          "indexed": true,
          "internalType": "address",
          "name": "account",
          "type": "address"
        },
        {
          "indexed": true,
          "internalType": "address",
          "name": "operator",
          "type": "address"
        },
        {
          "indexed": false,
          "internalType": "bool",
          "name": "approved",
          "type": "bool"
        }
      ],
      "name": "ApprovalForAll",
      "type": "event"
    },
    {
      "anonymous": false,
      "inputs": [
        {
          "indexed": true,
          "internalType": "address",
          "name": "withdrawnBy",
          "type": "address"
        },
        {
          "indexed": false,
          "internalType": "uint256",
          "name": "amount",
          "type": "uint256"
        }
      ],
      "name": "BrandEarningsWithdrawn",
      "type": "event"
    },
    {
      "anonymous": false,
      "inputs": [
        {
          "indexed": true,
          "internalType": "address",
          "name": "registeredBy",
          "type": "address"
        },
        {
          "indexed": true,
          "internalType": "address",
          "name": "brandId",
          "type": "address"
        },
        {
          "indexed": false,
          "internalType": "string",
          "name": "name",
          "type": "string"
        },
        {
          "indexed": false,
          "internalType": "string",
          "name": "description",
          "type": "string"
        },
        {
          "indexed": false,
          "internalType": "uint256",
          "name": "price",
          "type": "uint256"
        }
      ],
      "name": "BrandRegistered",
      "type": "event"
    },
    {
      "anonymous": false,
      "inputs": [
        {
          "indexed": false,
          "internalType": "uint256",
          "name": "newCost",
          "type": "uint256"
        }
      ],
      "name": "BrandRegistrationCostUpdated",
      "type": "event"
    },
    {
      "anonymous": false,
      "inputs": [
        {
          "indexed": true,
          "internalType": "address",
          "name": "updatedBy",
          "type": "address"
        },
        {
          "indexed": true,
          "internalType": "address",
          "name": "brandId",
          "type": "address"
        }
      ],
      "name": "BrandUpdated",
      "type": "event"
    },
    {
      "anonymous": false,
      "inputs": [
        {
          "indexed": true,
          "internalType": "address",
          "name": "operator",
          "type": "address"
        },
        {
          "indexed": true,
          "internalType": "address",
          "name": "from",
          "type": "address"
        },
        {
          "indexed": true,
          "internalType": "address",
          "name": "to",
          "type": "address"
        },
        {
          "indexed": false,
          "internalType": "uint256[]",
          "name": "ids",
          "type": "uint256[]"
        },
        {
          "indexed": false,
          "internalType": "uint256[]",
          "name": "values",
          "type": "uint256[]"
        }
      ],
      "name": "TransferBatch",
      "type": "event"
    },
    {
      "anonymous": false,
      "inputs": [
        {
          "indexed": true,
          "internalType": "address",
          "name": "operator",
          "type": "address"
        },
        {
          "indexed": true,
          "internalType": "address",
          "name": "from",
          "type": "address"
        },
        {
          "indexed": true,
          "internalType": "address",
          "name": "to",
          "type": "address"
        },
        {
          "indexed": false,
          "internalType": "uint256",
          "name": "id",
          "type": "uint256"
        },
        {
          "indexed": false,
          "internalType": "uint256",
          "name": "value",
          "type": "uint256"
        }
      ],
      "name": "TransferSingle",
      "type": "event"
    },
    {
      "anonymous": false,
      "inputs": [
        {
          "indexed": false,
          "internalType": "string",
          "name": "value",
          "type": "string"
        },
        {
          "indexed": true,
          "internalType": "uint256",
          "name": "id",
          "type": "uint256"
        }
      ],
      "name": "URI",
      "type": "event"
    },
    {
      "inputs": [
        {
          "internalType": "address",
          "name": "account",
          "type": "address"
        },
        {
          "internalType": "uint256",
          "name": "id",
          "type": "uint256"
        }
      ],
      "name": "balanceOf",
      "outputs": [
        {
          "internalType": "uint256",
          "name": "",
          "type": "uint256"
        }
      ],
      "stateMutability": "view",
      "type": "function"
    },
    {
      "inputs": [
        {
          "internalType": "address[]",
          "name": "accounts",
          "type": "address[]"
        },
        {
          "internalType": "uint256[]",
          "name": "ids",
          "type": "uint256[]"
        }
      ],
      "name": "balanceOfBatch",
      "outputs": [
        {
          "internalType": "uint256[]",
          "name": "",
          "type": "uint256[]"
        }
      ],
      "stateMutability": "view",
      "type": "function"
    },
    {
      "inputs": [
        {
          "internalType": "address",
          "name": "_brandId",
          "type": "address"
        }
      ],
      "name": "brandExists",
      "outputs": [
        {
          "internalType": "bool",
          "name": "",
          "type": "bool"
        }
      ],
      "stateMutability": "view",
      "type": "function"
    },
    {
      "inputs": [
        {
          "internalType": "address",
          "name": "_brandId",
          "type": "address"
        }
      ],
      "name": "brandMetadataURI",
      "outputs": [
        {
          "internalType": "string",
          "name": "",
          "type": "string"
        }
      ],
      "stateMutability": "view",
      "type": "function"
    },
    {
      "inputs": [],
      "name": "brandRegistrationCost",
      "outputs": [
        {
          "internalType": "uint256",
          "name": "",
          "type": "uint256"
        }
      ],
      "stateMutability": "view",
      "type": "function"
    },
    {
      "inputs": [],
      "name": "brandRegistrationCurrentEarnings",
      "outputs": [
        {
          "internalType": "uint256",
          "name": "",
          "type": "uint256"
        }
      ],
      "stateMutability": "view",
      "type": "function"
    },
    {
      "inputs": [
        {
          "internalType": "address",
          "name": "account",
          "type": "address"
        },
        {
          "internalType": "address",
          "name": "operator",
          "type": "address"
        }
      ],
      "name": "isApprovedForAll",
      "outputs": [
        {
          "internalType": "bool",
          "name": "",
          "type": "bool"
        }
      ],
      "stateMutability": "view",
      "type": "function"
    },
    {
      "inputs": [],
      "name": "owner",
      "outputs": [
        {
          "internalType": "address",
          "name": "",
          "type": "address"
        }
      ],
      "stateMutability": "view",
      "type": "function"
    },
    {
      "inputs": [
        {
          "internalType": "string",
          "name": "_name",
          "type": "string"
        },
        {
          "internalType": "string",
          "name": "_description",
          "type": "string"
        },
        {
          "internalType": "string",
          "name": "_image",
          "type": "string"
        },
        {
          "internalType": "string",
          "name": "_icon16x16",
          "type": "string"
        },
        {
          "internalType": "string",
          "name": "_icon32x32",
          "type": "string"
        },
        {
          "internalType": "string",
          "name": "_icon64x64",
          "type": "string"
        }
      ],
      "name": "registerBrand",
      "outputs": [],
      "stateMutability": "payable",
      "type": "function"
    },
    {
      "inputs": [
        {
          "internalType": "address",
          "name": "from",
          "type": "address"
        },
        {
          "internalType": "address",
          "name": "to",
          "type": "address"
        },
        {
          "internalType": "uint256[]",
          "name": "ids",
          "type": "uint256[]"
        },
        {
          "internalType": "uint256[]",
          "name": "amounts",
          "type": "uint256[]"
        },
        {
          "internalType": "bytes",
          "name": "data",
          "type": "bytes"
        }
      ],
      "name": "safeBatchTransferFrom",
      "outputs": [],
      "stateMutability": "nonpayable",
      "type": "function"
    },
    {
      "inputs": [
        {
          "internalType": "address",
          "name": "from",
          "type": "address"
        },
        {
          "internalType": "address",
          "name": "to",
          "type": "address"
        },
        {
          "internalType": "uint256",
          "name": "id",
          "type": "uint256"
        },
        {
          "internalType": "uint256",
          "name": "amount",
          "type": "uint256"
        },
        {
          "internalType": "bytes",
          "name": "data",
          "type": "bytes"
        }
      ],
      "name": "safeTransferFrom",
      "outputs": [],
      "stateMutability": "nonpayable",
      "type": "function"
    },
    {
      "inputs": [
        {
          "internalType": "address",
          "name": "operator",
          "type": "address"
        },
        {
          "internalType": "bool",
          "name": "approved",
          "type": "bool"
        }
      ],
      "name": "setApprovalForAll",
      "outputs": [],
      "stateMutability": "nonpayable",
      "type": "function"
    },
    {
      "inputs": [
        {
          "internalType": "uint256",
          "name": "_newCost",
          "type": "uint256"
        }
      ],
      "name": "setBrandRegistrationCost",
      "outputs": [],
      "stateMutability": "nonpayable",
      "type": "function"
    },
    {
      "inputs": [
        {
          "internalType": "bytes4",
          "name": "interfaceId",
          "type": "bytes4"
        }
      ],
      "name": "supportsInterface",
      "outputs": [
        {
          "internalType": "bool",
          "name": "",
          "type": "bool"
        }
      ],
      "stateMutability": "view",
      "type": "function"
    },
    {
      "inputs": [
        {
          "internalType": "address",
          "name": "_brandId",
          "type": "address"
        },
        {
          "internalType": "string",
          "name": "_challengeUrl",
          "type": "string"
        }
      ],
      "name": "updateBrandChallengeUrl",
      "outputs": [],
      "stateMutability": "nonpayable",
      "type": "function"
    },
    {
      "inputs": [
        {
          "internalType": "address",
          "name": "_brandId",
          "type": "address"
        },
        {
          "internalType": "string",
          "name": "_icon",
          "type": "string"
        }
      ],
      "name": "updateBrandIcon16x16Url",
      "outputs": [],
      "stateMutability": "nonpayable",
      "type": "function"
    },
    {
      "inputs": [
        {
          "internalType": "address",
          "name": "_brandId",
          "type": "address"
        },
        {
          "internalType": "string",
          "name": "_icon",
          "type": "string"
        }
      ],
      "name": "updateBrandIcon32x32Url",
      "outputs": [],
      "stateMutability": "nonpayable",
      "type": "function"
    },
    {
      "inputs": [
        {
          "internalType": "address",
          "name": "_brandId",
          "type": "address"
        },
        {
          "internalType": "string",
          "name": "_icon",
          "type": "string"
        }
      ],
      "name": "updateBrandIcon64x64Url",
      "outputs": [],
      "stateMutability": "nonpayable",
      "type": "function"
    },
    {
      "inputs": [
        {
          "internalType": "address",
          "name": "_brandId",
          "type": "address"
        },
        {
          "internalType": "string",
          "name": "_image",
          "type": "string"
        }
      ],
      "name": "updateBrandImage",
      "outputs": [],
      "stateMutability": "nonpayable",
      "type": "function"
    },
    {
      "inputs": [
        {
          "internalType": "uint256",
          "name": "",
          "type": "uint256"
        }
      ],
      "name": "uri",
      "outputs": [
        {
          "internalType": "string",
          "name": "",
          "type": "string"
        }
      ],
      "stateMutability": "view",
      "type": "function"
    },
    {
      "inputs": [
        {
          "internalType": "uint256",
          "name": "amount",
          "type": "uint256"
        }
      ],
      "name": "withdrawBrandRegistrationEarnings",
      "outputs": [],
      "stateMutability": "nonpayable",
      "type": "function"
    }
  ],
  "bytecode": "0x60806040523480156200001157600080fd5b506040518060400160405280600b81526020017f61626f75743a626c616e6b0000000000000000000000000000000000000000008152506200005981620000a160201b60201c565b5033600760006101000a81548173ffffffffffffffffffffffffffffffffffffffff021916908373ffffffffffffffffffffffffffffffffffffffff160217905550620001d2565b8060029080519060200190620000b9929190620000bd565b5050565b828054620000cb906200019c565b90600052602060002090601f016020900481019282620000ef57600085556200013b565b82601f106200010a57805160ff19168380011785556200013b565b828001600101855582156200013b579182015b828111156200013a5782518255916020019190600101906200011d565b5b5090506200014a91906200014e565b5090565b5b80821115620001695760008160009055506001016200014f565b5090565b7f4e487b7100000000000000000000000000000000000000000000000000000000600052602260045260246000fd5b60006002820490506001821680620001b557607f821691505b60208210811415620001cc57620001cb6200016d565b5b50919050565b6152c180620001e26000396000f3fe6080604052600436106101295760003560e01c806351a8de60116100ab5780638da5cb5b1161006f5780638da5cb5b146103f05780639896c31d1461041b57806399de09ff14610458578063a22cb46514610481578063e985e9c5146104aa578063f242432a146104e757610129565b806351a8de601461031c57806352ea8a361461034557806370e979fb1461036e57806378df8fb71461038a5780637d5555df146103b357610129565b80632eb2c2d6116100f25780632eb2c2d6146102395780633c1213fb146102625780633e49d9251461028b57806343779197146102b65780634e1273f4146102df57610129565b8062fdd58e1461012e57806301ffc9a71461016b5780630e89341c146101a85780630f73da86146101e557806320c6940b14610210575b600080fd5b34801561013a57600080fd5b506101556004803603810190610150919061304c565b610510565b604051610162919061309b565b60405180910390f35b34801561017757600080fd5b50610192600480360381019061018d919061310e565b6105d9565b60405161019f9190613156565b60405180910390f35b3480156101b457600080fd5b506101cf60048036038101906101ca9190613171565b6106bb565b6040516101dc9190613237565b60405180910390f35b3480156101f157600080fd5b506101fa61074f565b604051610207919061309b565b60405180910390f35b34801561021c57600080fd5b506102376004803603810190610232919061338e565b610755565b005b34801561024557600080fd5b50610260600480360381019061025b9190613553565b610907565b005b34801561026e57600080fd5b506102896004803603810190610284919061338e565b6109a8565b005b34801561029757600080fd5b506102a0610b5a565b6040516102ad919061309b565b60405180910390f35b3480156102c257600080fd5b506102dd60048036038101906102d89190613171565b610b60565b005b3480156102eb57600080fd5b50610306600480360381019061030191906136e5565b610c3a565b604051610313919061381b565b60405180910390f35b34801561032857600080fd5b50610343600480360381019061033e919061338e565b610d53565b005b34801561035157600080fd5b5061036c6004803603810190610367919061338e565b610f4a565b005b6103886004803603810190610383919061383d565b6110fc565b005b34801561039657600080fd5b506103b160048036038101906103ac919061338e565b6111af565b005b3480156103bf57600080fd5b506103da60048036038101906103d59190613972565b611361565b6040516103e79190613156565b60405180910390f35b3480156103fc57600080fd5b506104056113fc565b60405161041291906139ae565b60405180910390f35b34801561042757600080fd5b50610442600480360381019061043d9190613972565b611422565b60405161044f9190613237565b60405180910390f35b34801561046457600080fd5b5061047f600480360381019061047a9190613171565b611549565b005b34801561048d57600080fd5b506104a860048036038101906104a391906139f5565b611689565b005b3480156104b657600080fd5b506104d160048036038101906104cc9190613a35565b61169f565b6040516104de9190613156565b60405180910390f35b3480156104f357600080fd5b5061050e60048036038101906105099190613a75565b611733565b005b60008073ffffffffffffffffffffffffffffffffffffffff168373ffffffffffffffffffffffffffffffffffffffff161415610581576040517f08c379a000000000000000000000000000000000000000000000000000000000815260040161057890613b7e565b60405180910390fd5b60008083815260200190815260200160002060008473ffffffffffffffffffffffffffffffffffffffff1673ffffffffffffffffffffffffffffffffffffffff16815260200190815260200160002054905092915050565b60007fd9b67a26000000000000000000000000000000000000000000000000000000007bffffffffffffffffffffffffffffffffffffffffffffffffffffffff1916827bffffffffffffffffffffffffffffffffffffffffffffffffffffffff191614806106a457507f0e89341c000000000000000000000000000000000000000000000000000000007bffffffffffffffffffffffffffffffffffffffffffffffffffffffff1916827bffffffffffffffffffffffffffffffffffffffffffffffffffffffff1916145b806106b457506106b3826117d4565b5b9050919050565b6060600280546106ca90613bcd565b80601f01602080910402602001604051908101604052809291908181526020018280546106f690613bcd565b80156107435780601f1061071857610100808354040283529160200191610743565b820191906000526020600020905b81548152906001019060200180831161072657829003601f168201915b50505050509050919050565b60065481565b816000600460008373ffffffffffffffffffffffffffffffffffffffff1673ffffffffffffffffffffffffffffffffffffffff16815260200190815260200160002060000160009054906101000a900473ffffffffffffffffffffffffffffffffffffffff16905060006107c761183e565b90508173ffffffffffffffffffffffffffffffffffffffff168173ffffffffffffffffffffffffffffffffffffffff16148061080957506108088282611846565b5b610848576040517f08c379a000000000000000000000000000000000000000000000000000000000815260040161083f90613c71565b60405180910390fd5b83600460008773ffffffffffffffffffffffffffffffffffffffff1673ffffffffffffffffffffffffffffffffffffffff168152602001908152602001600020600501908051906020019061089e929190612f01565b508473ffffffffffffffffffffffffffffffffffffffff166108be61183e565b73ffffffffffffffffffffffffffffffffffffffff167f7fd1c43abb0471595dcd4d461fdb320d926cbf2b8ba6fa87a78f1b1b0bf3e59260405160405180910390a35050505050565b61090f61183e565b73ffffffffffffffffffffffffffffffffffffffff168573ffffffffffffffffffffffffffffffffffffffff16148061095557506109548561094f61183e565b61169f565b5b610994576040517f08c379a000000000000000000000000000000000000000000000000000000000815260040161098b90613d03565b60405180910390fd5b6109a1858585858561185a565b5050505050565b816000600460008373ffffffffffffffffffffffffffffffffffffffff1673ffffffffffffffffffffffffffffffffffffffff16815260200190815260200160002060000160009054906101000a900473ffffffffffffffffffffffffffffffffffffffff1690506000610a1a61183e565b90508173ffffffffffffffffffffffffffffffffffffffff168173ffffffffffffffffffffffffffffffffffffffff161480610a5c5750610a5b8282611846565b5b610a9b576040517f08c379a0000000000000000000000000000000000000000000000000000000008152600401610a9290613c71565b60405180910390fd5b83600460008773ffffffffffffffffffffffffffffffffffffffff1673ffffffffffffffffffffffffffffffffffffffff1681526020019081526020016000206007019080519060200190610af1929190612f01565b508473ffffffffffffffffffffffffffffffffffffffff16610b1161183e565b73ffffffffffffffffffffffffffffffffffffffff167f7fd1c43abb0471595dcd4d461fdb320d926cbf2b8ba6fa87a78f1b1b0bf3e59260405160405180910390a35050505050565b60035481565b610b70610b6b61183e565b611911565b610baf576040517f08c379a0000000000000000000000000000000000000000000000000000000008152600401610ba690613d95565b60405180910390fd5b662386f26fc10000811015610bf9576040517f08c379a0000000000000000000000000000000000000000000000000000000008152600401610bf090613e4d565b60405180910390fd5b806003819055507fc652b105063222eb8399f76ca13b5913144c1d8af3a94bc240248ecbc36ac80b81604051610c2f919061309b565b60405180910390a150565b60608151835114610c80576040517f08c379a0000000000000000000000000000000000000000000000000000000008152600401610c7790613edf565b60405180910390fd5b6000835167ffffffffffffffff811115610c9d57610c9c613263565b5b604051908082528060200260200182016040528015610ccb5781602001602082028036833780820191505090505b50905060005b8451811015610d4857610d18858281518110610cf057610cef613eff565b5b6020026020010151858381518110610d0b57610d0a613eff565b5b6020026020010151610510565b828281518110610d2b57610d2a613eff565b5b60200260200101818152505080610d4190613f5d565b9050610cd1565b508091505092915050565b816000600460008373ffffffffffffffffffffffffffffffffffffffff1673ffffffffffffffffffffffffffffffffffffffff16815260200190815260200160002060000160009054906101000a900473ffffffffffffffffffffffffffffffffffffffff1690506000610dc561183e565b90508173ffffffffffffffffffffffffffffffffffffffff168173ffffffffffffffffffffffffffffffffffffffff161480610e075750610e068282611846565b5b610e46576040517f08c379a0000000000000000000000000000000000000000000000000000000008152600401610e3d90613c71565b60405180910390fd5b600084511415610e8b576040517f08c379a0000000000000000000000000000000000000000000000000000000008152600401610e8290614018565b60405180910390fd5b83600460008773ffffffffffffffffffffffffffffffffffffffff1673ffffffffffffffffffffffffffffffffffffffff1681526020019081526020016000206004019080519060200190610ee1929190612f01565b508473ffffffffffffffffffffffffffffffffffffffff16610f0161183e565b73ffffffffffffffffffffffffffffffffffffffff167f7fd1c43abb0471595dcd4d461fdb320d926cbf2b8ba6fa87a78f1b1b0bf3e59260405160405180910390a35050505050565b816000600460008373ffffffffffffffffffffffffffffffffffffffff1673ffffffffffffffffffffffffffffffffffffffff16815260200190815260200160002060000160009054906101000a900473ffffffffffffffffffffffffffffffffffffffff1690506000610fbc61183e565b90508173ffffffffffffffffffffffffffffffffffffffff168173ffffffffffffffffffffffffffffffffffffffff161480610ffe5750610ffd8282611846565b5b61103d576040517f08c379a000000000000000000000000000000000000000000000000000000000815260040161103490613c71565b60405180910390fd5b83600460008773ffffffffffffffffffffffffffffffffffffffff1673ffffffffffffffffffffffffffffffffffffffff1681526020019081526020016000206006019080519060200190611093929190612f01565b508473ffffffffffffffffffffffffffffffffffffffff166110b361183e565b73ffffffffffffffffffffffffffffffffffffffff167f7fd1c43abb0471595dcd4d461fdb320d926cbf2b8ba6fa87a78f1b1b0bf3e59260405160405180910390a35050505050565b60405180606001604052806021815260200161526b6021913960035460003490508181148361112a8461196b565b6111338461196b565b60405160200161114593929190614158565b60405160208183030381529060405290611195576040517f08c379a000000000000000000000000000000000000000000000000000000000815260040161118c9190613237565b60405180910390fd5b506111a4898989898989611acc565b505050505050505050565b816000600460008373ffffffffffffffffffffffffffffffffffffffff1673ffffffffffffffffffffffffffffffffffffffff16815260200190815260200160002060000160009054906101000a900473ffffffffffffffffffffffffffffffffffffffff169050600061122161183e565b90508173ffffffffffffffffffffffffffffffffffffffff168173ffffffffffffffffffffffffffffffffffffffff16148061126357506112628282611846565b5b6112a2576040517f08c379a000000000000000000000000000000000000000000000000000000000815260040161129990613c71565b60405180910390fd5b83600460008773ffffffffffffffffffffffffffffffffffffffff1673ffffffffffffffffffffffffffffffffffffffff16815260200190815260200160002060030190805190602001906112f8929190612f01565b508473ffffffffffffffffffffffffffffffffffffffff1661131861183e565b73ffffffffffffffffffffffffffffffffffffffff167f7fd1c43abb0471595dcd4d461fdb320d926cbf2b8ba6fa87a78f1b1b0bf3e59260405160405180910390a35050505050565b60008073ffffffffffffffffffffffffffffffffffffffff16600460008473ffffffffffffffffffffffffffffffffffffffff1673ffffffffffffffffffffffffffffffffffffffff16815260200190815260200160002060000160009054906101000a900473ffffffffffffffffffffffffffffffffffffffff1673ffffffffffffffffffffffffffffffffffffffff1614159050919050565b600760009054906101000a900473ffffffffffffffffffffffffffffffffffffffff1681565b60606000600460008473ffffffffffffffffffffffffffffffffffffffff1673ffffffffffffffffffffffffffffffffffffffff1681526020019081526020016000209050600073ffffffffffffffffffffffffffffffffffffffff168160000160009054906101000a900473ffffffffffffffffffffffffffffffffffffffff1673ffffffffffffffffffffffffffffffffffffffff1614156114d85760405180602001604052806000815250915050611544565b6115218160010182600201836004018460030185600501866006018760070160405160200161150d979695949392919061449e565b604051602081830303815290604052611e73565b60405160200161153191906145a7565b6040516020818303038152906040529150505b919050565b600061155361183e565b905061155e81611fd7565b61159d576040517f08c379a00000000000000000000000000000000000000000000000000000000081526004016115949061463b565b60405180910390fd5b600082116115e0576040517f08c379a00000000000000000000000000000000000000000000000000000000081526004016115d7906146cd565b60405180910390fd5b816006541015611625576040517f08c379a000000000000000000000000000000000000000000000000000000000815260040161161c9061475f565b60405180910390fd5b8160066000828254611637919061477f565b925050819055508073ffffffffffffffffffffffffffffffffffffffff166108fc839081150290604051600060405180830381858888f19350505050158015611684573d6000803e3d6000fd5b505050565b61169b61169461183e565b8383612031565b5050565b6000600160008473ffffffffffffffffffffffffffffffffffffffff1673ffffffffffffffffffffffffffffffffffffffff16815260200190815260200160002060008373ffffffffffffffffffffffffffffffffffffffff1673ffffffffffffffffffffffffffffffffffffffff16815260200190815260200160002060009054906101000a900460ff16905092915050565b61173b61183e565b73ffffffffffffffffffffffffffffffffffffffff168573ffffffffffffffffffffffffffffffffffffffff16148061178157506117808561177b61183e565b61169f565b5b6117c0576040517f08c379a00000000000000000000000000000000000000000000000000000000081526004016117b790613d03565b60405180910390fd5b6117cd858585858561219e565b5050505050565b60007f01ffc9a7000000000000000000000000000000000000000000000000000000007bffffffffffffffffffffffffffffffffffffffffffffffffffffffff1916827bffffffffffffffffffffffffffffffffffffffffffffffffffffffff1916149050919050565b600033905090565b6000611852838361169f565b905092915050565b61186785858585856121da565b60005b8251811015611909577401000000000000000000000000000000000000000084828151811061189c5761189b613eff565b5b60200260200101511080156118cc575060008382815181106118c1576118c0613eff565b5b602002602001015114155b156118f6576118f58482815181106118e7576118e6613eff565b5b6020026020010151866124fc565b5b808061190190613f5d565b91505061186a565b505050505050565b60008173ffffffffffffffffffffffffffffffffffffffff16600760009054906101000a900473ffffffffffffffffffffffffffffffffffffffff1673ffffffffffffffffffffffffffffffffffffffff16149050919050565b606060008214156119b3576040518060400160405280600181526020017f30000000000000000000000000000000000000000000000000000000000000008152509050611ac7565b600082905060005b600082146119e55780806119ce90613f5d565b915050600a826119de91906147e2565b91506119bb565b60008167ffffffffffffffff811115611a0157611a00613263565b5b6040519080825280601f01601f191660200182016040528015611a335781602001600182028036833780820191505090505b5090505b60008514611ac057600182611a4c919061477f565b9150600a85611a5b9190614813565b6030611a679190614844565b60f81b818381518110611a7d57611a7c613eff565b5b60200101907effffffffffffffffffffffffffffffffffffffffffffffffffffffffffffff1916908160001a905350600a85611ab991906147e2565b9450611a37565b8093505050505b919050565b6000611ad661183e565b9050600087511415611b1d576040517f08c379a0000000000000000000000000000000000000000000000000000000008152600401611b149061490c565b60405180910390fd5b600086511415611b62576040517f08c379a0000000000000000000000000000000000000000000000000000000008152600401611b599061499e565b60405180910390fd5b600085511415611ba7576040517f08c379a0000000000000000000000000000000000000000000000000000000008152600401611b9e90614018565b60405180910390fd5b3460066000828254611bb99190614844565b92505081905550600160056000828254611bd39190614844565b92505081905550600060d660f81b609460f81b308460055460001b604051602001611c02959493929190614a7e565b6040516020818303038152906040528051906020012060001c90506040518061010001604052808373ffffffffffffffffffffffffffffffffffffffff1681526020018981526020018881526020016040518060400160405280600b81526020017f61626f75743a626c616e6b000000000000000000000000000000000000000000815250815260200187815260200186815260200185815260200184815250600460008373ffffffffffffffffffffffffffffffffffffffff1673ffffffffffffffffffffffffffffffffffffffff16815260200190815260200160002060008201518160000160006101000a81548173ffffffffffffffffffffffffffffffffffffffff021916908373ffffffffffffffffffffffffffffffffffffffff1602179055506020820151816001019080519060200190611d44929190612f01565b506040820151816002019080519060200190611d61929190612f01565b506060820151816003019080519060200190611d7e929190612f01565b506080820151816004019080519060200190611d9b929190612f01565b5060a0820151816005019080519060200190611db8929190612f01565b5060c0820151816006019080519060200190611dd5929190612f01565b5060e0820151816007019080519060200190611df2929190612f01565b50905050611e008183612618565b8073ffffffffffffffffffffffffffffffffffffffff168273ffffffffffffffffffffffffffffffffffffffff167fbaa80c9cbed3f9a5fcdc4e9dd7785f9cfc968a81b80b94363bea0e92c938c0d98a8a34604051611e6193929190614add565b60405180910390a35050505050505050565b6060600082511415611e9657604051806020016040528060008152509050611fd2565b600060405180606001604052806040815260200161522b6040913990506000600360028551611ec59190614844565b611ecf91906147e2565b6004611edb9190614b22565b67ffffffffffffffff811115611ef457611ef3613263565b5b6040519080825280601f01601f191660200182016040528015611f265781602001600182028036833780820191505090505b509050600182016020820185865187015b80821015611f92576003820191508151603f8160121c168501518453600184019350603f81600c1c168501518453600184019350603f8160061c168501518453600184019350603f8116850151845360018401935050611f37565b5050600386510660018114611fae5760028114611fc157611fc9565b603d6001830353603d6002830353611fc9565b603d60018303535b50505080925050505b919050565b60008173ffffffffffffffffffffffffffffffffffffffff16600760009054906101000a900473ffffffffffffffffffffffffffffffffffffffff1673ffffffffffffffffffffffffffffffffffffffff16149050919050565b8173ffffffffffffffffffffffffffffffffffffffff168373ffffffffffffffffffffffffffffffffffffffff1614156120a0576040517f08c379a000000000000000000000000000000000000000000000000000000000815260040161209790614bee565b60405180910390fd5b80600160008573ffffffffffffffffffffffffffffffffffffffff1673ffffffffffffffffffffffffffffffffffffffff16815260200190815260200160002060008473ffffffffffffffffffffffffffffffffffffffff1673ffffffffffffffffffffffffffffffffffffffff16815260200190815260200160002060006101000a81548160ff0219169083151502179055508173ffffffffffffffffffffffffffffffffffffffff168373ffffffffffffffffffffffffffffffffffffffff167f17307eab39ab6107e8899845ad3d59bd9653f200f220920489ca2b5937696c31836040516121919190613156565b60405180910390a3505050565b6121ab8585858585612657565b740100000000000000000000000000000000000000008310156121d3576121d283856124fc565b5b5050505050565b815183511461221e576040517f08c379a000000000000000000000000000000000000000000000000000000000815260040161221590614c80565b60405180910390fd5b600073ffffffffffffffffffffffffffffffffffffffff168473ffffffffffffffffffffffffffffffffffffffff16141561228e576040517f08c379a000000000000000000000000000000000000000000000000000000000815260040161228590614d12565b60405180910390fd5b600061229861183e565b90506122a88187878787876128f3565b60005b84518110156124595760008582815181106122c9576122c8613eff565b5b6020026020010151905060008583815181106122e8576122e7613eff565b5b60200260200101519050600080600084815260200190815260200160002060008b73ffffffffffffffffffffffffffffffffffffffff1673ffffffffffffffffffffffffffffffffffffffff16815260200190815260200160002054905081811015612389576040517f08c379a000000000000000000000000000000000000000000000000000000000815260040161238090614da4565b60405180910390fd5b81810360008085815260200190815260200160002060008c73ffffffffffffffffffffffffffffffffffffffff1673ffffffffffffffffffffffffffffffffffffffff168152602001908152602001600020819055508160008085815260200190815260200160002060008b73ffffffffffffffffffffffffffffffffffffffff1673ffffffffffffffffffffffffffffffffffffffff168152602001908152602001600020600082825461243e9190614844565b925050819055505050508061245290613f5d565b90506122ab565b508473ffffffffffffffffffffffffffffffffffffffff168673ffffffffffffffffffffffffffffffffffffffff168273ffffffffffffffffffffffffffffffffffffffff167f4a39dc06d4c0dbc64b70af90fd698a233a518aa5d07e595d983b8c0526c8f7fb87876040516124d0929190614dc4565b60405180910390a46124e68187878787876128fb565b6124f4818787878787612903565b505050505050565b600073ffffffffffffffffffffffffffffffffffffffff16600460008473ffffffffffffffffffffffffffffffffffffffff1673ffffffffffffffffffffffffffffffffffffffff16815260200190815260200160002060000160009054906101000a900473ffffffffffffffffffffffffffffffffffffffff1673ffffffffffffffffffffffffffffffffffffffff16146126145780600460008473ffffffffffffffffffffffffffffffffffffffff1673ffffffffffffffffffffffffffffffffffffffff16815260200190815260200160002060000160006101000a81548173ffffffffffffffffffffffffffffffffffffffff021916908373ffffffffffffffffffffffffffffffffffffffff1602179055505b5050565b612653818373ffffffffffffffffffffffffffffffffffffffff1660016040518060600160405280603281526020016151f960329139612adb565b5050565b600073ffffffffffffffffffffffffffffffffffffffff168473ffffffffffffffffffffffffffffffffffffffff1614156126c7576040517f08c379a00000000000000000000000000000000000000000000000000000000081526004016126be90614d12565b60405180910390fd5b60006126d161183e565b905060006126de85612c8c565b905060006126eb85612c8c565b90506126fb8389898585896128f3565b600080600088815260200190815260200160002060008a73ffffffffffffffffffffffffffffffffffffffff1673ffffffffffffffffffffffffffffffffffffffff16815260200190815260200160002054905085811015612792576040517f08c379a000000000000000000000000000000000000000000000000000000000815260040161278990614da4565b60405180910390fd5b85810360008089815260200190815260200160002060008b73ffffffffffffffffffffffffffffffffffffffff1673ffffffffffffffffffffffffffffffffffffffff168152602001908152602001600020819055508560008089815260200190815260200160002060008a73ffffffffffffffffffffffffffffffffffffffff1673ffffffffffffffffffffffffffffffffffffffff16815260200190815260200160002060008282546128479190614844565b925050819055508773ffffffffffffffffffffffffffffffffffffffff168973ffffffffffffffffffffffffffffffffffffffff168573ffffffffffffffffffffffffffffffffffffffff167fc3d58168c5ae7397731d063d5bbf3d657854427343f4c083240f7aacaa2d0f628a8a6040516128c4929190614dfb565b60405180910390a46128da848a8a86868a6128fb565b6128e8848a8a8a8a8a612d06565b505050505050505050565b505050505050565b505050505050565b6129228473ffffffffffffffffffffffffffffffffffffffff16612ede565b15612ad3578373ffffffffffffffffffffffffffffffffffffffff1663bc197c8187878686866040518663ffffffff1660e01b8152600401612968959493929190614e79565b6020604051808303816000875af19250505080156129a457506040513d601f19601f820116820180604052508101906129a19190614ef6565b60015b612a4a576129b0614f30565b806308c379a01415612a0d57506129c5614f52565b806129d05750612a0f565b806040517f08c379a0000000000000000000000000000000000000000000000000000000008152600401612a049190613237565b60405180910390fd5b505b6040517f08c379a0000000000000000000000000000000000000000000000000000000008152600401612a419061505a565b60405180910390fd5b63bc197c8160e01b7bffffffffffffffffffffffffffffffffffffffffffffffffffffffff1916817bffffffffffffffffffffffffffffffffffffffffffffffffffffffff191614612ad1576040517f08c379a0000000000000000000000000000000000000000000000000000000008152600401612ac8906150ec565b60405180910390fd5b505b505050505050565b600073ffffffffffffffffffffffffffffffffffffffff168473ffffffffffffffffffffffffffffffffffffffff161415612b4b576040517f08c379a0000000000000000000000000000000000000000000000000000000008152600401612b429061517e565b60405180910390fd5b6000612b5561183e565b90506000612b6285612c8c565b90506000612b6f85612c8c565b9050612b80836000898585896128f3565b8460008088815260200190815260200160002060008973ffffffffffffffffffffffffffffffffffffffff1673ffffffffffffffffffffffffffffffffffffffff1681526020019081526020016000206000828254612bdf9190614844565b925050819055508673ffffffffffffffffffffffffffffffffffffffff16600073ffffffffffffffffffffffffffffffffffffffff168473ffffffffffffffffffffffffffffffffffffffff167fc3d58168c5ae7397731d063d5bbf3d657854427343f4c083240f7aacaa2d0f628989604051612c5d929190614dfb565b60405180910390a4612c74836000898585896128fb565b612c8383600089898989612d06565b50505050505050565b60606000600167ffffffffffffffff811115612cab57612caa613263565b5b604051908082528060200260200182016040528015612cd95781602001602082028036833780820191505090505b5090508281600081518110612cf157612cf0613eff565b5b60200260200101818152505080915050919050565b612d258473ffffffffffffffffffffffffffffffffffffffff16612ede565b15612ed6578373ffffffffffffffffffffffffffffffffffffffff1663f23a6e6187878686866040518663ffffffff1660e01b8152600401612d6b95949392919061519e565b6020604051808303816000875af1925050508015612da757506040513d601f19601f82011682018060405250810190612da49190614ef6565b60015b612e4d57612db3614f30565b806308c379a01415612e105750612dc8614f52565b80612dd35750612e12565b806040517f08c379a0000000000000000000000000000000000000000000000000000000008152600401612e079190613237565b60405180910390fd5b505b6040517f08c379a0000000000000000000000000000000000000000000000000000000008152600401612e449061505a565b60405180910390fd5b63f23a6e6160e01b7bffffffffffffffffffffffffffffffffffffffffffffffffffffffff1916817bffffffffffffffffffffffffffffffffffffffffffffffffffffffff191614612ed4576040517f08c379a0000000000000000000000000000000000000000000000000000000008152600401612ecb906150ec565b60405180910390fd5b505b505050505050565b6000808273ffffffffffffffffffffffffffffffffffffffff163b119050919050565b828054612f0d90613bcd565b90600052602060002090601f016020900481019282612f2f5760008555612f76565b82601f10612f4857805160ff1916838001178555612f76565b82800160010185558215612f76579182015b82811115612f75578251825591602001919060010190612f5a565b5b509050612f839190612f87565b5090565b5b80821115612fa0576000816000905550600101612f88565b5090565b6000604051905090565b600080fd5b600080fd5b600073ffffffffffffffffffffffffffffffffffffffff82169050919050565b6000612fe382612fb8565b9050919050565b612ff381612fd8565b8114612ffe57600080fd5b50565b60008135905061301081612fea565b92915050565b6000819050919050565b61302981613016565b811461303457600080fd5b50565b60008135905061304681613020565b92915050565b6000806040838503121561306357613062612fae565b5b600061307185828601613001565b925050602061308285828601613037565b9150509250929050565b61309581613016565b82525050565b60006020820190506130b0600083018461308c565b92915050565b60007fffffffff0000000000000000000000000000000000000000000000000000000082169050919050565b6130eb816130b6565b81146130f657600080fd5b50565b600081359050613108816130e2565b92915050565b60006020828403121561312457613123612fae565b5b6000613132848285016130f9565b91505092915050565b60008115159050919050565b6131508161313b565b82525050565b600060208201905061316b6000830184613147565b92915050565b60006020828403121561318757613186612fae565b5b600061319584828501613037565b91505092915050565b600081519050919050565b600082825260208201905092915050565b60005b838110156131d85780820151818401526020810190506131bd565b838111156131e7576000848401525b50505050565b6000601f19601f8301169050919050565b60006132098261319e565b61321381856131a9565b93506132238185602086016131ba565b61322c816131ed565b840191505092915050565b6000602082019050818103600083015261325181846131fe565b905092915050565b600080fd5b600080fd5b7f4e487b7100000000000000000000000000000000000000000000000000000000600052604160045260246000fd5b61329b826131ed565b810181811067ffffffffffffffff821117156132ba576132b9613263565b5b80604052505050565b60006132cd612fa4565b90506132d98282613292565b919050565b600067ffffffffffffffff8211156132f9576132f8613263565b5b613302826131ed565b9050602081019050919050565b82818337600083830152505050565b600061333161332c846132de565b6132c3565b90508281526020810184848401111561334d5761334c61325e565b5b61335884828561330f565b509392505050565b600082601f83011261337557613374613259565b5b813561338584826020860161331e565b91505092915050565b600080604083850312156133a5576133a4612fae565b5b60006133b385828601613001565b925050602083013567ffffffffffffffff8111156133d4576133d3612fb3565b5b6133e085828601613360565b9150509250929050565b600067ffffffffffffffff82111561340557613404613263565b5b602082029050602081019050919050565b600080fd5b600061342e613429846133ea565b6132c3565b9050808382526020820190506020840283018581111561345157613450613416565b5b835b8181101561347a57806134668882613037565b845260208401935050602081019050613453565b5050509392505050565b600082601f83011261349957613498613259565b5b81356134a984826020860161341b565b91505092915050565b600067ffffffffffffffff8211156134cd576134cc613263565b5b6134d6826131ed565b9050602081019050919050565b60006134f66134f1846134b2565b6132c3565b9050828152602081018484840111156135125761351161325e565b5b61351d84828561330f565b509392505050565b600082601f83011261353a57613539613259565b5b813561354a8482602086016134e3565b91505092915050565b600080600080600060a0868803121561356f5761356e612fae565b5b600061357d88828901613001565b955050602061358e88828901613001565b945050604086013567ffffffffffffffff8111156135af576135ae612fb3565b5b6135bb88828901613484565b935050606086013567ffffffffffffffff8111156135dc576135db612fb3565b5b6135e888828901613484565b925050608086013567ffffffffffffffff81111561360957613608612fb3565b5b61361588828901613525565b9150509295509295909350565b600067ffffffffffffffff82111561363d5761363c613263565b5b602082029050602081019050919050565b600061366161365c84613622565b6132c3565b9050808382526020820190506020840283018581111561368457613683613416565b5b835b818110156136ad57806136998882613001565b845260208401935050602081019050613686565b5050509392505050565b600082601f8301126136cc576136cb613259565b5b81356136dc84826020860161364e565b91505092915050565b600080604083850312156136fc576136fb612fae565b5b600083013567ffffffffffffffff81111561371a57613719612fb3565b5b613726858286016136b7565b925050602083013567ffffffffffffffff81111561374757613746612fb3565b5b61375385828601613484565b9150509250929050565b600081519050919050565b600082825260208201905092915050565b6000819050602082019050919050565b61379281613016565b82525050565b60006137a48383613789565b60208301905092915050565b6000602082019050919050565b60006137c88261375d565b6137d28185613768565b93506137dd83613779565b8060005b8381101561380e5781516137f58882613798565b9750613800836137b0565b9250506001810190506137e1565b5085935050505092915050565b6000602082019050818103600083015261383581846137bd565b905092915050565b60008060008060008060c0878903121561385a57613859612fae565b5b600087013567ffffffffffffffff81111561387857613877612fb3565b5b61388489828a01613360565b965050602087013567ffffffffffffffff8111156138a5576138a4612fb3565b5b6138b189828a01613360565b955050604087013567ffffffffffffffff8111156138d2576138d1612fb3565b5b6138de89828a01613360565b945050606087013567ffffffffffffffff8111156138ff576138fe612fb3565b5b61390b89828a01613360565b935050608087013567ffffffffffffffff81111561392c5761392b612fb3565b5b61393889828a01613360565b92505060a087013567ffffffffffffffff81111561395957613958612fb3565b5b61396589828a01613360565b9150509295509295509295565b60006020828403121561398857613987612fae565b5b600061399684828501613001565b91505092915050565b6139a881612fd8565b82525050565b60006020820190506139c3600083018461399f565b92915050565b6139d28161313b565b81146139dd57600080fd5b50565b6000813590506139ef816139c9565b92915050565b60008060408385031215613a0c57613a0b612fae565b5b6000613a1a85828601613001565b9250506020613a2b858286016139e0565b9150509250929050565b60008060408385031215613a4c57613a4b612fae565b5b6000613a5a85828601613001565b9250506020613a6b85828601613001565b9150509250929050565b600080600080600060a08688031215613a9157613a90612fae565b5b6000613a9f88828901613001565b9550506020613ab088828901613001565b9450506040613ac188828901613037565b9350506060613ad288828901613037565b925050608086013567ffffffffffffffff811115613af357613af2612fb3565b5b613aff88828901613525565b9150509295509295909350565b7f455243313135353a2061646472657373207a65726f206973206e6f742061207660008201527f616c6964206f776e657200000000000000000000000000000000000000000000602082015250565b6000613b68602a836131a9565b9150613b7382613b0c565b604082019050919050565b60006020820190508181036000830152613b9781613b5b565b9050919050565b7f4e487b7100000000000000000000000000000000000000000000000000000000600052602260045260246000fd5b60006002820490506001821680613be557607f821691505b60208210811415613bf957613bf8613b9e565b5b50919050565b7f4272616e6452656769737472793a2063616c6c6572206973206e6f742062726160008201527f6e64206f776e6572206e6f7220617070726f7665640000000000000000000000602082015250565b6000613c5b6035836131a9565b9150613c6682613bff565b604082019050919050565b60006020820190508181036000830152613c8a81613c4e565b9050919050565b7f455243313135353a2063616c6c6572206973206e6f7420746f6b656e206f776e60008201527f6572206e6f7220617070726f7665640000000000000000000000000000000000602082015250565b6000613ced602f836131a9565b9150613cf882613c91565b604082019050919050565b60006020820190508181036000830152613d1c81613ce0565b9050919050565b7f4272616e6452656769737472793a206e6f7420616c6c6f77656420746f20736560008201527f7420746865206272616e6420726567697374726174696f6e20636f7374000000602082015250565b6000613d7f603d836131a9565b9150613d8a82613d23565b604082019050919050565b60006020820190508181036000830152613dae81613d72565b9050919050565b7f4272616e6452656769737472793a20746865206272616e64207265676973747260008201527f7920636f7374206d757374206e6f74206265206c657373207468616e20302e3060208201527f31206e617469766520746f6b656e730000000000000000000000000000000000604082015250565b6000613e37604f836131a9565b9150613e4282613db5565b606082019050919050565b60006020820190508181036000830152613e6681613e2a565b9050919050565b7f455243313135353a206163636f756e747320616e6420696473206c656e67746860008201527f206d69736d617463680000000000000000000000000000000000000000000000602082015250565b6000613ec96029836131a9565b9150613ed482613e6d565b604082019050919050565b60006020820190508181036000830152613ef881613ebc565b9050919050565b7f4e487b7100000000000000000000000000000000000000000000000000000000600052603260045260246000fd5b7f4e487b7100000000000000000000000000000000000000000000000000000000600052601160045260246000fd5b6000613f6882613016565b91507fffffffffffffffffffffffffffffffffffffffffffffffffffffffffffffffff821415613f9b57613f9a613f2e565b5b600182019050919050565b7f4272616e6452656769737472793a207573652061206e6f6e2d656d707479206960008201527f6d6167652075726c000000000000000000000000000000000000000000000000602082015250565b60006140026028836131a9565b915061400d82613fa6565b604082019050919050565b6000602082019050818103600083015261403181613ff5565b9050919050565b600081905092915050565b600061404e8261319e565b6140588185614038565b93506140688185602086016131ba565b80840191505092915050565b7f20726571756972657320616e206578616374207061796d656e74206f66200000600082015250565b60006140aa601e83614038565b91506140b582614074565b601e82019050919050565b7f2062757420000000000000000000000000000000000000000000000000000000600082015250565b60006140f6600583614038565b9150614101826140c0565b600582019050919050565b7f2077617320676976656e00000000000000000000000000000000000000000000600082015250565b6000614142600a83614038565b915061414d8261410c565b600a82019050919050565b60006141648286614043565b915061416f8261409d565b915061417b8285614043565b9150614186826140e9565b91506141928284614043565b915061419d82614135565b9150819050949350505050565b7f7b226e616d65223a220000000000000000000000000000000000000000000000600082015250565b60006141e0600983614038565b91506141eb826141aa565b600982019050919050565b60008190508160005260206000209050919050565b6000815461421881613bcd565b6142228186614038565b9450600182166000811461423d576001811461424e57614281565b60ff19831686528186019350614281565b614257856141f6565b60005b838110156142795781548189015260018201915060208101905061425a565b838801955050505b50505092915050565b7f222c226465736372697074696f6e223a22000000000000000000000000000000600082015250565b60006142c0601183614038565b91506142cb8261428a565b601182019050919050565b7f222c22696d616765223a22000000000000000000000000000000000000000000600082015250565b600061430c600b83614038565b9150614317826142d6565b600b82019050919050565b7f222c2270726f70657274696573223a7b226368616c6c656e676555726c223a22600082015250565b6000614358602083614038565b915061436382614322565b602082019050919050565b7f222c2269636f6e3136783136223a220000000000000000000000000000000000600082015250565b60006143a4600f83614038565b91506143af8261436e565b600f82019050919050565b7f222c2269636f6e3332783332223a220000000000000000000000000000000000600082015250565b60006143f0600f83614038565b91506143fb826143ba565b600f82019050919050565b7f222c2269636f6e3634783634223a220000000000000000000000000000000000600082015250565b600061443c600f83614038565b915061444782614406565b600f82019050919050565b7f227d7d0000000000000000000000000000000000000000000000000000000000600082015250565b6000614488600383614038565b915061449382614452565b600382019050919050565b60006144a9826141d3565b91506144b5828a61420b565b91506144c0826142b3565b91506144cc828961420b565b91506144d7826142ff565b91506144e3828861420b565b91506144ee8261434b565b91506144fa828761420b565b915061450582614397565b9150614511828661420b565b915061451c826143e3565b9150614528828561420b565b91506145338261442f565b915061453f828461420b565b915061454a8261447b565b915081905098975050505050505050565b7f646174613a6170706c69636174696f6e2f6a736f6e3b6261736536342c000000600082015250565b6000614591601d83614038565b915061459c8261455b565b601d82019050919050565b60006145b282614584565b91506145be8284614043565b915081905092915050565b7f4272616e6452656769737472793a206561726e696e67732063616e6e6f74206260008201527f652077697468647261776e20627920746869732073656e646572000000000000602082015250565b6000614625603a836131a9565b9150614630826145c9565b604082019050919050565b6000602082019050818103600083015261465481614618565b9050919050565b7f4272616e6452656769737472793a206561726e696e677320616d6f756e74206d60008201527f757374206e6f7420626520300000000000000000000000000000000000000000602082015250565b60006146b7602c836131a9565b91506146c28261465b565b604082019050919050565b600060208201905081810360008301526146e6816146aa565b9050919050565b7f4272616e6452656769737472793a206561726e696e677320616d6f756e74206960008201527f73206c657373207468616e207468652072657175657374656420616d6f756e74602082015250565b60006147496040836131a9565b9150614754826146ed565b604082019050919050565b600060208201905081810360008301526147788161473c565b9050919050565b600061478a82613016565b915061479583613016565b9250828210156147a8576147a7613f2e565b5b828203905092915050565b7f4e487b7100000000000000000000000000000000000000000000000000000000600052601260045260246000fd5b60006147ed82613016565b91506147f883613016565b925082614808576148076147b3565b5b828204905092915050565b600061481e82613016565b915061482983613016565b925082614839576148386147b3565b5b828206905092915050565b600061484f82613016565b915061485a83613016565b9250827fffffffffffffffffffffffffffffffffffffffffffffffffffffffffffffffff0382111561488f5761488e613f2e565b5b828201905092915050565b7f4272616e6452656769737472793a207573652061206e6f6e2d656d707479206e60008201527f616d650000000000000000000000000000000000000000000000000000000000602082015250565b60006148f66023836131a9565b91506149018261489a565b604082019050919050565b60006020820190508181036000830152614925816148e9565b9050919050565b7f4272616e6452656769737472793a207573652061206e6f6e2d656d707479206460008201527f65736372697074696f6e00000000000000000000000000000000000000000000602082015250565b6000614988602a836131a9565b91506149938261492c565b604082019050919050565b600060208201905081810360008301526149b78161497b565b9050919050565b60007fff0000000000000000000000000000000000000000000000000000000000000082169050919050565b6000819050919050565b614a05614a00826149be565b6149ea565b82525050565b60008160601b9050919050565b6000614a2382614a0b565b9050919050565b6000614a3582614a18565b9050919050565b614a4d614a4882612fd8565b614a2a565b82525050565b6000819050919050565b6000819050919050565b614a78614a7382614a53565b614a5d565b82525050565b6000614a8a82886149f4565b600182019150614a9a82876149f4565b600182019150614aaa8286614a3c565b601482019150614aba8285614a3c565b601482019150614aca8284614a67565b6020820191508190509695505050505050565b60006060820190508181036000830152614af781866131fe565b90508181036020830152614b0b81856131fe565b9050614b1a604083018461308c565b949350505050565b6000614b2d82613016565b9150614b3883613016565b9250817fffffffffffffffffffffffffffffffffffffffffffffffffffffffffffffffff0483118215151615614b7157614b70613f2e565b5b828202905092915050565b7f455243313135353a2073657474696e6720617070726f76616c2073746174757360008201527f20666f722073656c660000000000000000000000000000000000000000000000602082015250565b6000614bd86029836131a9565b9150614be382614b7c565b604082019050919050565b60006020820190508181036000830152614c0781614bcb565b9050919050565b7f455243313135353a2069647320616e6420616d6f756e7473206c656e6774682060008201527f6d69736d61746368000000000000000000000000000000000000000000000000602082015250565b6000614c6a6028836131a9565b9150614c7582614c0e565b604082019050919050565b60006020820190508181036000830152614c9981614c5d565b9050919050565b7f455243313135353a207472616e7366657220746f20746865207a65726f20616460008201527f6472657373000000000000000000000000000000000000000000000000000000602082015250565b6000614cfc6025836131a9565b9150614d0782614ca0565b604082019050919050565b60006020820190508181036000830152614d2b81614cef565b9050919050565b7f455243313135353a20696e73756666696369656e742062616c616e636520666f60008201527f72207472616e7366657200000000000000000000000000000000000000000000602082015250565b6000614d8e602a836131a9565b9150614d9982614d32565b604082019050919050565b60006020820190508181036000830152614dbd81614d81565b9050919050565b60006040820190508181036000830152614dde81856137bd565b90508181036020830152614df281846137bd565b90509392505050565b6000604082019050614e10600083018561308c565b614e1d602083018461308c565b9392505050565b600081519050919050565b600082825260208201905092915050565b6000614e4b82614e24565b614e558185614e2f565b9350614e658185602086016131ba565b614e6e816131ed565b840191505092915050565b600060a082019050614e8e600083018861399f565b614e9b602083018761399f565b8181036040830152614ead81866137bd565b90508181036060830152614ec181856137bd565b90508181036080830152614ed58184614e40565b90509695505050505050565b600081519050614ef0816130e2565b92915050565b600060208284031215614f0c57614f0b612fae565b5b6000614f1a84828501614ee1565b91505092915050565b60008160e01c9050919050565b600060033d1115614f4f5760046000803e614f4c600051614f23565b90505b90565b600060443d1015614f6257614fe5565b614f6a612fa4565b60043d036004823e80513d602482011167ffffffffffffffff82111715614f92575050614fe5565b808201805167ffffffffffffffff811115614fb05750505050614fe5565b80602083010160043d038501811115614fcd575050505050614fe5565b614fdc82602001850186613292565b82955050505050505b90565b7f455243313135353a207472616e7366657220746f206e6f6e204552433131353560008201527f526563656976657220696d706c656d656e746572000000000000000000000000602082015250565b60006150446034836131a9565b915061504f82614fe8565b604082019050919050565b6000602082019050818103600083015261507381615037565b9050919050565b7f455243313135353a204552433131353552656365697665722072656a6563746560008201527f6420746f6b656e73000000000000000000000000000000000000000000000000602082015250565b60006150d66028836131a9565b91506150e18261507a565b604082019050919050565b60006020820190508181036000830152615105816150c9565b9050919050565b7f455243313135353a206d696e7420746f20746865207a65726f2061646472657360008201527f7300000000000000000000000000000000000000000000000000000000000000602082015250565b60006151686021836131a9565b91506151738261510c565b604082019050919050565b600060208201905081810360008301526151978161515b565b9050919050565b600060a0820190506151b3600083018861399f565b6151c0602083018761399f565b6151cd604083018661308c565b6151da606083018561308c565b81810360808301526151ec8184614e40565b9050969550505050505056fe53616d706c6545524331313535576974684272616e6452656769737472793a2074657374205f6d696e744272616e64466f724142434445464748494a4b4c4d4e4f505152535455565758595a6162636465666768696a6b6c6d6e6f707172737475767778797a303132333435363738392b2f4272616e6452656769737472793a206272616e6420726567697374726174696f6ea26469706673582212207d35d43ba90ff34eb58ce27b35e1bdda831b617c1b05c92fdea319f3ba4ef28c64736f6c634300080a0033",
  "immutableReferences": {},
  "source": "// SPDX-License-Identifier: MIT\npragma solidity >=0.8 <0.9.0;\n\nimport \"@openzeppelin/contracts/token/ERC1155/ERC1155.sol\";\nimport \"../BrandRegistry.sol\";\nimport \"../../IdUtils.sol\";\n\ncontract SampleERC1155WithBrandRegistry is ERC1155, BrandRegistry {\n    address public owner;\n\n    constructor() ERC1155(\"about:blank\") {\n        owner = msg.sender;\n    }\n\n    function _canSetBrandRegistrationCost(address _sender) internal override view returns (bool) {\n        return owner == _sender;\n    }\n\n    function _mintBrandFor(address _brandId, address _owner) internal override {\n        _mint(_owner, uint256(uint160(_brandId)), 1, \"SampleERC1155WithBrandRegistry: test _mintBrandFor\");\n    }\n\n    function _isBrandOwnerApproved(address _brandOwner, address _sender) internal view override returns (bool) {\n        return isApprovedForAll(_brandOwner, _sender);\n    }\n\n    function _canWithdrawBrandRegistrationEarnings(address _sender) internal view override returns (bool) {\n        return owner == _sender;\n    }\n\n    function _safeTransferFrom(\n        address from,\n        address to,\n        uint256 id,\n        uint256 amount,\n        bytes memory data\n    ) internal override {\n        super._safeTransferFrom(from, to, id, amount, data);\n        if (id < (1 << 160)) {\n            _setBrandOwner(address(uint160(id)), to);\n        }\n    }\n\n    function _safeBatchTransferFrom(\n        address from,\n        address to,\n        uint256[] memory ids,\n        uint256[] memory amounts,\n        bytes memory data\n    ) internal override {\n        super._safeBatchTransferFrom(from, to, ids, amounts, data);\n        for(uint256 index = 0; index < amounts.length; index++) {\n            if (ids[index] < (1 << 160) && amounts[index] != 0) {\n                _setBrandOwner(address(uint160(ids[index])), to);\n            }\n        }\n    }\n}",
  "sourcePath": "/home/luismasuelli/Projects/OuterMaze/lingr-contracts/contracts/lingr/samples/SampleERC1155WithBrandRegistry.sol",
  "compiler": {
    "name": "solc",
    "version": "0.8.10+commit.fc410830.Emscripten.clang"
  },
  "schemaVersion": "3.4.3",
  "updatedAt": "2022-07-30T23:08:38.141Z",
  "devdoc": {
    "kind": "dev",
    "methods": {
      "balanceOf(address,uint256)": {
        "details": "See {IERC1155-balanceOf}. Requirements: - `account` cannot be the zero address."
      },
      "balanceOfBatch(address[],uint256[])": {
        "details": "See {IERC1155-balanceOfBatch}. Requirements: - `accounts` and `ids` must have the same length."
      },
      "isApprovedForAll(address,address)": {
        "details": "See {IERC1155-isApprovedForAll}."
      },
      "safeBatchTransferFrom(address,address,uint256[],uint256[],bytes)": {
        "details": "See {IERC1155-safeBatchTransferFrom}."
      },
      "safeTransferFrom(address,address,uint256,uint256,bytes)": {
        "details": "See {IERC1155-safeTransferFrom}."
      },
      "setApprovalForAll(address,bool)": {
        "details": "See {IERC1155-setApprovalForAll}."
      },
      "supportsInterface(bytes4)": {
        "details": "See {IERC165-supportsInterface}."
      },
      "uri(uint256)": {
        "details": "See {IERC1155MetadataURI-uri}. This implementation returns the same URI for *all* token types. It relies on the token type ID substitution mechanism https://eips.ethereum.org/EIPS/eip-1155#metadata[defined in the EIP]. Clients calling this function must replace the `\\{id\\}` substring with the actual token type ID."
      }
    },
    "version": 1
  },
  "userdoc": {
    "events": {
      "BrandEarningsWithdrawn(address,uint256)": {
        "notice": "This event is triggered when brand earnings were withdrawn successfully."
      },
      "BrandRegistered(address,address,string,string,uint256)": {
        "notice": "This event is triggered when a brand is registered. The new address is also included, along some reference data."
      },
      "BrandRegistrationCostUpdated(uint256)": {
        "notice": "An event for when the brand registration cost is updated."
      },
      "BrandUpdated(address,address)": {
        "notice": "This event is triggered when a brand is registered. The new address is also included, along some reference data."
      }
    },
    "kind": "user",
    "methods": {
      "brandExists(address)": {
        "notice": "Tells whether an address corresponds to a registered brand or not."
      },
      "brandMetadataURI(address)": {
        "notice": "Assembles the whole metadata for a brand. WARNING: This method will consume a lot of gas if invoked inside a transaction, so it is recommended to invoke this method in the context of a CALL, and never in the context of a SEND (even as part of other contract's code)."
      },
      "brandRegistrationCost()": {
        "notice": "The cost to register a new brand. This can be changed in the future and must be able to be known in the ABI for the users to be aware of the statistic."
      },
      "brandRegistrationCurrentEarnings()": {
        "notice": "Tells the current earnings, not yet withdrawn, from brand registrations."
      },
      "registerBrand(string,string,string,string,string,string)": {
        "notice": "Registers a new brand, when the appropriate price is paid for it. For more details on how this method works, check _registerBrand's inline documentation."
      },
      "setBrandRegistrationCost(uint256)": {
        "notice": "Sets the new brand registration cost."
      },
      "updateBrandChallengeUrl(address,string)": {
        "notice": "Updates the brand's challenge url. Only the owner of the brand or an approved account can invoke this method. Ensure the url is empty or a valid URL, or metadata might fail to be assembled into valid JSON."
      },
      "updateBrandIcon16x16Url(address,string)": {
        "notice": "Updates the brand's 16x16 icon url. Only the owner of the brand or an approved account can invoke this method. Ensure the _icon is empty or a valid URL, or metadata might fail to be assembled into valid JSON."
      },
      "updateBrandIcon32x32Url(address,string)": {
        "notice": "Updates the brand's 32x32 icon url. Only the owner of the brand or an approved account can invoke this method. Ensure the _icon is empty or a valid URL, or metadata might fail to be assembled into valid JSON."
      },
      "updateBrandIcon64x64Url(address,string)": {
        "notice": "Updates the brand's 64x64 icon url. Only the owner of the brand or an approved account can invoke this method. Ensure the _icon is empty or a valid URL, or metadata might fail to be assembled into valid JSON."
      },
      "updateBrandImage(address,string)": {
        "notice": "Updates the brand image. Only the owner of the brand or an approved account can invoke this method. Ensure the _image is empty or a valid URL, or metadata might fail to be assembled into valid JSON."
      },
      "withdrawBrandRegistrationEarnings(uint256)": {
        "notice": "Allows the sender to withdraw brand registration earnings."
      }
    },
    "version": 1
  }
}