{
  "contractName": "SampleBrandRegistry",
  "abi": [
    {
      "inputs": [
        {
          "internalType": "address",
          "name": "_metaverse",
          "type": "address"
        }
      ],
      "stateMutability": "nonpayable",
      "type": "constructor"
    },
    {
      "anonymous": false,
      "inputs": [
        {
          "indexed": true,
          "internalType": "address",
          "name": "withdrawnBy",
          "type": "address"
        },
        {
          "indexed": false,
          "internalType": "uint256",
          "name": "amount",
          "type": "uint256"
        }
      ],
      "name": "BrandEarningsWithdrawn",
      "type": "event"
    },
    {
      "anonymous": false,
      "inputs": [
        {
          "indexed": true,
          "internalType": "address",
          "name": "registeredBy",
          "type": "address"
        },
        {
          "indexed": true,
          "internalType": "address",
          "name": "brandId",
          "type": "address"
        },
        {
          "indexed": false,
          "internalType": "string",
          "name": "name",
          "type": "string"
        },
        {
          "indexed": false,
          "internalType": "string",
          "name": "description",
          "type": "string"
        },
        {
          "indexed": false,
          "internalType": "uint256",
          "name": "price",
          "type": "uint256"
        }
      ],
      "name": "BrandRegistered",
      "type": "event"
    },
    {
      "anonymous": false,
      "inputs": [
        {
          "indexed": false,
          "internalType": "uint256",
          "name": "newCost",
          "type": "uint256"
        }
      ],
      "name": "BrandRegistrationCostUpdated",
      "type": "event"
    },
    {
      "anonymous": false,
      "inputs": [
        {
          "indexed": true,
          "internalType": "address",
          "name": "updatedBy",
          "type": "address"
        },
        {
          "indexed": true,
          "internalType": "address",
          "name": "brand",
          "type": "address"
        },
        {
          "indexed": false,
          "internalType": "bool",
          "name": "committed",
          "type": "bool"
        }
      ],
      "name": "BrandSocialCommitmentUpdated",
      "type": "event"
    },
    {
      "anonymous": false,
      "inputs": [
        {
          "indexed": true,
          "internalType": "address",
          "name": "updatedBy",
          "type": "address"
        },
        {
          "indexed": true,
          "internalType": "address",
          "name": "brandId",
          "type": "address"
        }
      ],
      "name": "BrandUpdated",
      "type": "event"
    },
    {
      "inputs": [
        {
          "internalType": "address",
          "name": "_brandId",
          "type": "address"
        }
      ],
      "name": "brandExists",
      "outputs": [
        {
          "internalType": "bool",
          "name": "",
          "type": "bool"
        }
      ],
      "stateMutability": "view",
      "type": "function"
    },
    {
      "inputs": [
        {
          "internalType": "address",
          "name": "_brandId",
          "type": "address"
        }
      ],
      "name": "brandMetadataURI",
      "outputs": [
        {
          "internalType": "string",
          "name": "",
          "type": "string"
        }
      ],
      "stateMutability": "view",
      "type": "function"
    },
    {
      "inputs": [],
      "name": "brandRegistrationCost",
      "outputs": [
        {
          "internalType": "uint256",
          "name": "",
          "type": "uint256"
        }
      ],
      "stateMutability": "view",
      "type": "function"
    },
    {
      "inputs": [],
      "name": "brandRegistrationCurrentEarnings",
      "outputs": [
        {
          "internalType": "uint256",
          "name": "",
          "type": "uint256"
        }
      ],
      "stateMutability": "view",
      "type": "function"
    },
    {
      "inputs": [
        {
          "internalType": "address",
          "name": "_brandId",
          "type": "address"
        },
        {
          "internalType": "bytes32",
          "name": "_permission",
          "type": "bytes32"
        },
        {
          "internalType": "address",
          "name": "_user",
          "type": "address"
        },
        {
          "internalType": "bool",
          "name": "_allowed",
          "type": "bool"
        }
      ],
      "name": "brandSetPermission",
      "outputs": [],
      "stateMutability": "nonpayable",
      "type": "function"
    },
    {
      "inputs": [],
      "name": "deployer",
      "outputs": [
        {
          "internalType": "address",
          "name": "",
          "type": "address"
        }
      ],
      "stateMutability": "view",
      "type": "function"
    },
    {
      "inputs": [
        {
          "internalType": "address",
          "name": "_brandId",
          "type": "address"
        },
        {
          "internalType": "bytes32",
          "name": "_permission",
          "type": "bytes32"
        },
        {
          "internalType": "address",
          "name": "_sender",
          "type": "address"
        }
      ],
      "name": "isBrandAllowed",
      "outputs": [
        {
          "internalType": "bool",
          "name": "",
          "type": "bool"
        }
      ],
      "stateMutability": "view",
      "type": "function"
    },
    {
      "inputs": [],
      "name": "metaverse",
      "outputs": [
        {
          "internalType": "address",
          "name": "",
          "type": "address"
        }
      ],
      "stateMutability": "view",
      "type": "function"
    },
    {
      "inputs": [
        {
          "internalType": "address",
          "name": "_brandId",
          "type": "address"
        },
        {
          "internalType": "address",
          "name": "_newOwner",
          "type": "address"
        }
      ],
      "name": "onBrandOwnerChanged",
      "outputs": [],
      "stateMutability": "nonpayable",
      "type": "function"
    },
    {
      "inputs": [
        {
          "internalType": "string",
          "name": "_name",
          "type": "string"
        },
        {
          "internalType": "string",
          "name": "_description",
          "type": "string"
        },
        {
          "internalType": "string",
          "name": "_image",
          "type": "string"
        },
        {
          "internalType": "string",
          "name": "_icon16x16",
          "type": "string"
        },
        {
          "internalType": "string",
          "name": "_icon32x32",
          "type": "string"
        },
        {
          "internalType": "string",
          "name": "_icon64x64",
          "type": "string"
        }
      ],
      "name": "registerBrand",
      "outputs": [],
      "stateMutability": "payable",
      "type": "function"
    },
    {
      "inputs": [
        {
          "internalType": "uint256",
          "name": "_newCost",
          "type": "uint256"
        }
      ],
      "name": "setBrandRegistrationCost",
      "outputs": [],
      "stateMutability": "nonpayable",
      "type": "function"
    },
    {
      "inputs": [
        {
          "internalType": "bytes4",
          "name": "interfaceId",
          "type": "bytes4"
        }
      ],
      "name": "supportsInterface",
      "outputs": [
        {
          "internalType": "bool",
          "name": "",
          "type": "bool"
        }
      ],
      "stateMutability": "view",
      "type": "function"
    },
    {
      "inputs": [
        {
          "internalType": "address",
          "name": "_brandId",
          "type": "address"
        },
        {
          "internalType": "string",
          "name": "_challengeUrl",
          "type": "string"
        }
      ],
      "name": "updateBrandChallengeUrl",
      "outputs": [],
      "stateMutability": "nonpayable",
      "type": "function"
    },
    {
      "inputs": [
        {
          "internalType": "address",
          "name": "_brandId",
          "type": "address"
        },
        {
          "internalType": "string",
          "name": "_icon",
          "type": "string"
        }
      ],
      "name": "updateBrandIcon16x16Url",
      "outputs": [],
      "stateMutability": "nonpayable",
      "type": "function"
    },
    {
      "inputs": [
        {
          "internalType": "address",
          "name": "_brandId",
          "type": "address"
        },
        {
          "internalType": "string",
          "name": "_icon",
          "type": "string"
        }
      ],
      "name": "updateBrandIcon32x32Url",
      "outputs": [],
      "stateMutability": "nonpayable",
      "type": "function"
    },
    {
      "inputs": [
        {
          "internalType": "address",
          "name": "_brandId",
          "type": "address"
        },
        {
          "internalType": "string",
          "name": "_icon",
          "type": "string"
        }
      ],
      "name": "updateBrandIcon64x64Url",
      "outputs": [],
      "stateMutability": "nonpayable",
      "type": "function"
    },
    {
      "inputs": [
        {
          "internalType": "address",
          "name": "_brandId",
          "type": "address"
        },
        {
          "internalType": "string",
          "name": "_image",
          "type": "string"
        }
      ],
      "name": "updateBrandImage",
      "outputs": [],
      "stateMutability": "nonpayable",
      "type": "function"
    },
    {
      "inputs": [
        {
          "internalType": "address",
          "name": "_brandId",
          "type": "address"
        },
        {
          "internalType": "bool",
          "name": "_committed",
          "type": "bool"
        }
      ],
      "name": "updateBrandSocialCommitment",
      "outputs": [],
      "stateMutability": "nonpayable",
      "type": "function"
    },
    {
      "inputs": [
        {
          "internalType": "uint256",
          "name": "amount",
          "type": "uint256"
        }
      ],
      "name": "withdrawBrandRegistrationEarnings",
      "outputs": [],
      "stateMutability": "nonpayable",
      "type": "function"
    }
  ],
  "bytecode": "0x60806040523480156200001157600080fd5b506040516200482638038062004826833981810160405281019062000037919062000411565b80600073ffffffffffffffffffffffffffffffffffffffff168173ffffffffffffffffffffffffffffffffffffffff161415620000ab576040517f08c379a0000000000000000000000000000000000000000000000000000000008152600401620000a290620004ca565b60405180910390fd5b620000fb7f943ebb4a000000000000000000000000000000000000000000000000000000008273ffffffffffffffffffffffffffffffffffffffff16620001d560201b620019991790919060201c565b6200013d576040517f08c379a0000000000000000000000000000000000000000000000000000000008152600401620001349062000562565b60405180910390fd5b806000806101000a81548173ffffffffffffffffffffffffffffffffffffffff021916908373ffffffffffffffffffffffffffffffffffffffff160217905550506200018e6200020b60201b60201c565b600660006101000a81548173ffffffffffffffffffffffffffffffffffffffff021916908373ffffffffffffffffffffffffffffffffffffffff16021790555050620006e9565b6000620001e8836200021360201b60201c565b80156200020357506200020283836200027160201b60201c565b5b905092915050565b600033905090565b600062000247827f01ffc9a7000000000000000000000000000000000000000000000000000000006200027160201b60201c565b80156200026a5750620002688263ffffffff60e01b6200027160201b60201c565b155b9050919050565b6000806301ffc9a760e01b836040516024016200028f9190620005c1565b604051602081830303815290604052907bffffffffffffffffffffffffffffffffffffffffffffffffffffffff19166020820180517bffffffffffffffffffffffffffffffffffffffffffffffffffffffff838183161783525050505090506000808573ffffffffffffffffffffffffffffffffffffffff16617530846040516200031b919062000661565b6000604051808303818686fa925050503d806000811462000359576040519150601f19603f3d011682016040523d82523d6000602084013e6200035e565b606091505b50915091506020815110156200037b5760009350505050620003a1565b8180156200039b5750808060200190518101906200039a9190620006b7565b5b93505050505b92915050565b600080fd5b600073ffffffffffffffffffffffffffffffffffffffff82169050919050565b6000620003d982620003ac565b9050919050565b620003eb81620003cc565b8114620003f757600080fd5b50565b6000815190506200040b81620003e0565b92915050565b6000602082840312156200042a5762000429620003a7565b5b60006200043a84828501620003fa565b91505092915050565b600082825260208201905092915050565b7f4272616e6452656769737472793a20746865206f776e657220636f6e7472616360008201527f74206d757374206e6f7420626520300000000000000000000000000000000000602082015250565b6000620004b2602f8362000443565b9150620004bf8262000454565b604082019050919050565b60006020820190508181036000830152620004e581620004a3565b9050919050565b7f4272616e6452656769737472793a20746865206f776e657220636f6e7472616360008201527f74206d75737420696d706c656d656e7420494d65746176657273650000000000602082015250565b60006200054a603b8362000443565b91506200055782620004ec565b604082019050919050565b600060208201905081810360008301526200057d816200053b565b9050919050565b60007fffffffff0000000000000000000000000000000000000000000000000000000082169050919050565b620005bb8162000584565b82525050565b6000602082019050620005d86000830184620005b0565b92915050565b600081519050919050565b600081905092915050565b60005b8381101562000614578082015181840152602081019050620005f7565b8381111562000624576000848401525b50505050565b60006200063782620005de565b620006438185620005e9565b935062000655818560208601620005f4565b80840191505092915050565b60006200066f82846200062a565b915081905092915050565b60008115159050919050565b62000691816200067a565b81146200069d57600080fd5b50565b600081519050620006b18162000686565b92915050565b600060208284031215620006d057620006cf620003a7565b5b6000620006e084828501620006a0565b91505092915050565b61412d80620006f96000396000f3fe6080604052600436106101145760003560e01c806370e979fb116100a057806399de09ff1161006457806399de09ff1461039e578063d5f39488146103c7578063f200670d146103f2578063fc78302f1461041d578063feb532fd1461044657610114565b806370e979fb146102b657806378df8fb7146102d25780637d5555df146102fb5780638cd6e9a9146103385780639896c31d1461036157610114565b80633e49d925116100e75780633e49d925146101d357806340cde613146101fe578063437791971461023b57806351a8de601461026457806352ea8a361461028d57610114565b806301ffc9a7146101195780630f73da861461015657806320c6940b146101815780633c1213fb146101aa575b600080fd5b34801561012557600080fd5b50610140600480360381019061013b91906125f9565b61046f565b60405161014d9190612641565b60405180910390f35b34801561016257600080fd5b5061016b610541565b6040516101789190612675565b60405180910390f35b34801561018d57600080fd5b506101a860048036038101906101a39190612834565b610547565b005b3480156101b657600080fd5b506101d160048036038101906101cc9190612834565b610678565b005b3480156101df57600080fd5b506101e86107a9565b6040516101f59190612675565b60405180910390f35b34801561020a57600080fd5b50610225600480360381019061022091906128c6565b6107af565b6040516102329190612641565b60405180910390f35b34801561024757600080fd5b50610262600480360381019061025d9190612945565b610a0e565b005b34801561027057600080fd5b5061028b60048036038101906102869190612834565b610ae8565b005b34801561029957600080fd5b506102b460048036038101906102af9190612834565b610c5e565b005b6102d060048036038101906102cb9190612972565b610d8f565b005b3480156102de57600080fd5b506102f960048036038101906102f49190612834565b610e44565b005b34801561030757600080fd5b50610322600480360381019061031d9190612aa7565b610f75565b60405161032f9190612641565b60405180910390f35b34801561034457600080fd5b5061035f600480360381019061035a9190612ad4565b611010565b005b34801561036d57600080fd5b5061038860048036038101906103839190612aa7565b6111ba565b6040516103959190612b9c565b60405180910390f35b3480156103aa57600080fd5b506103c560048036038101906103c09190612945565b61136a565b005b3480156103d357600080fd5b506103dc6114aa565b6040516103e99190612bcd565b60405180910390f35b3480156103fe57600080fd5b506104076114d0565b6040516104149190612bcd565b60405180910390f35b34801561042957600080fd5b50610444600480360381019061043f9190612c14565b6114f4565b005b34801561045257600080fd5b5061046d60048036038101906104689190612c7b565b6117a9565b005b60007f01ffc9a7000000000000000000000000000000000000000000000000000000007bffffffffffffffffffffffffffffffffffffffffffffffffffffffff1916827bffffffffffffffffffffffffffffffffffffffffffffffffffffffff1916148061053a57507fdbd8fe75000000000000000000000000000000000000000000000000000000007bffffffffffffffffffffffffffffffffffffffffffffffffffffffff1916827bffffffffffffffffffffffffffffffffffffffffffffffffffffffff1916145b9050919050565b60055481565b817f3124b80af1484423bc5936dfc5a705268a8d30bd03b155d2273007564e44500861057b82826105766119be565b6107af565b6105ba576040517f08c379a00000000000000000000000000000000000000000000000000000000081526004016105b190612d53565b60405180910390fd5b82600260008673ffffffffffffffffffffffffffffffffffffffff1673ffffffffffffffffffffffffffffffffffffffff16815260200190815260200160002060050190805190602001906106109291906124ea565b508373ffffffffffffffffffffffffffffffffffffffff166106306119be565b73ffffffffffffffffffffffffffffffffffffffff167f7fd1c43abb0471595dcd4d461fdb320d926cbf2b8ba6fa87a78f1b1b0bf3e59260405160405180910390a350505050565b817f3124b80af1484423bc5936dfc5a705268a8d30bd03b155d2273007564e4450086106ac82826106a76119be565b6107af565b6106eb576040517f08c379a00000000000000000000000000000000000000000000000000000000081526004016106e290612d53565b60405180910390fd5b82600260008673ffffffffffffffffffffffffffffffffffffffff1673ffffffffffffffffffffffffffffffffffffffff16815260200190815260200160002060070190805190602001906107419291906124ea565b508373ffffffffffffffffffffffffffffffffffffffff166107616119be565b73ffffffffffffffffffffffffffffffffffffffff167f7fd1c43abb0471595dcd4d461fdb320d926cbf2b8ba6fa87a78f1b1b0bf3e59260405160405180910390a350505050565b60015481565b600080600260008673ffffffffffffffffffffffffffffffffffffffff1673ffffffffffffffffffffffffffffffffffffffff16815260200190815260200160002060000160009054906101000a900473ffffffffffffffffffffffffffffffffffffffff16905060006108216119be565b9050600073ffffffffffffffffffffffffffffffffffffffff168273ffffffffffffffffffffffffffffffffffffffff1614158015610a0357508173ffffffffffffffffffffffffffffffffffffffff168173ffffffffffffffffffffffffffffffffffffffff16148061089b575061089a82826119c6565b5b806109605750600360008773ffffffffffffffffffffffffffffffffffffffff1673ffffffffffffffffffffffffffffffffffffffff16815260200190815260200160002060007fffffffffffffffffffffffffffffffffffffffffffffffffffffffffffffffff60001b815260200190815260200160002060008573ffffffffffffffffffffffffffffffffffffffff1673ffffffffffffffffffffffffffffffffffffffff16815260200190815260200160002060009054906101000a900460ff165b80610a025750600360008773ffffffffffffffffffffffffffffffffffffffff1673ffffffffffffffffffffffffffffffffffffffff168152602001908152602001600020600086815260200190815260200160002060008573ffffffffffffffffffffffffffffffffffffffff1673ffffffffffffffffffffffffffffffffffffffff16815260200190815260200160002060009054906101000a900460ff165b5b925050509392505050565b610a1e610a196119be565b611adb565b610a5d576040517f08c379a0000000000000000000000000000000000000000000000000000000008152600401610a5490612de5565b60405180910390fd5b662386f26fc10000811015610aa7576040517f08c379a0000000000000000000000000000000000000000000000000000000008152600401610a9e90612e9d565b60405180910390fd5b806001819055507fc652b105063222eb8399f76ca13b5913144c1d8af3a94bc240248ecbc36ac80b81604051610add9190612675565b60405180910390a150565b817f3124b80af1484423bc5936dfc5a705268a8d30bd03b155d2273007564e445008610b1c8282610b176119be565b6107af565b610b5b576040517f08c379a0000000000000000000000000000000000000000000000000000000008152600401610b5290612d53565b60405180910390fd5b600083511415610ba0576040517f08c379a0000000000000000000000000000000000000000000000000000000008152600401610b9790612f2f565b60405180910390fd5b82600260008673ffffffffffffffffffffffffffffffffffffffff1673ffffffffffffffffffffffffffffffffffffffff1681526020019081526020016000206004019080519060200190610bf69291906124ea565b508373ffffffffffffffffffffffffffffffffffffffff16610c166119be565b73ffffffffffffffffffffffffffffffffffffffff167f7fd1c43abb0471595dcd4d461fdb320d926cbf2b8ba6fa87a78f1b1b0bf3e59260405160405180910390a350505050565b817f3124b80af1484423bc5936dfc5a705268a8d30bd03b155d2273007564e445008610c928282610c8d6119be565b6107af565b610cd1576040517f08c379a0000000000000000000000000000000000000000000000000000000008152600401610cc890612d53565b60405180910390fd5b82600260008673ffffffffffffffffffffffffffffffffffffffff1673ffffffffffffffffffffffffffffffffffffffff1681526020019081526020016000206006019080519060200190610d279291906124ea565b508373ffffffffffffffffffffffffffffffffffffffff16610d476119be565b73ffffffffffffffffffffffffffffffffffffffff167f7fd1c43abb0471595dcd4d461fdb320d926cbf2b8ba6fa87a78f1b1b0bf3e59260405160405180910390a350505050565b6040518060600160405280602181526020016140d760219139600154600034905081811483610dbd84611b35565b610dc684611b35565b604051602001610dd89392919061306f565b60405160208183030381529060405290610e28576040517f08c379a0000000000000000000000000000000000000000000000000000000008152600401610e1f9190612b9c565b60405180910390fd5b50610e398989898989896000611c96565b505050505050505050565b817f3124b80af1484423bc5936dfc5a705268a8d30bd03b155d2273007564e445008610e788282610e736119be565b6107af565b610eb7576040517f08c379a0000000000000000000000000000000000000000000000000000000008152600401610eae90612d53565b60405180910390fd5b82600260008673ffffffffffffffffffffffffffffffffffffffff1673ffffffffffffffffffffffffffffffffffffffff1681526020019081526020016000206003019080519060200190610f0d9291906124ea565b508373ffffffffffffffffffffffffffffffffffffffff16610f2d6119be565b73ffffffffffffffffffffffffffffffffffffffff167f7fd1c43abb0471595dcd4d461fdb320d926cbf2b8ba6fa87a78f1b1b0bf3e59260405160405180910390a350505050565b60008073ffffffffffffffffffffffffffffffffffffffff16600260008473ffffffffffffffffffffffffffffffffffffffff1673ffffffffffffffffffffffffffffffffffffffff16815260200190815260200160002060000160009054906101000a900473ffffffffffffffffffffffffffffffffffffffff1673ffffffffffffffffffffffffffffffffffffffff1614159050919050565b60008054906101000a900473ffffffffffffffffffffffffffffffffffffffff1673ffffffffffffffffffffffffffffffffffffffff163373ffffffffffffffffffffffffffffffffffffffff161461109e576040517f08c379a000000000000000000000000000000000000000000000000000000000815260040161109590613133565b60405180910390fd5b600073ffffffffffffffffffffffffffffffffffffffff16600260008473ffffffffffffffffffffffffffffffffffffffff1673ffffffffffffffffffffffffffffffffffffffff16815260200190815260200160002060000160009054906101000a900473ffffffffffffffffffffffffffffffffffffffff1673ffffffffffffffffffffffffffffffffffffffff16146111b65780600260008473ffffffffffffffffffffffffffffffffffffffff1673ffffffffffffffffffffffffffffffffffffffff16815260200190815260200160002060000160006101000a81548173ffffffffffffffffffffffffffffffffffffffff021916908373ffffffffffffffffffffffffffffffffffffffff1602179055505b5050565b60606000600260008473ffffffffffffffffffffffffffffffffffffffff1673ffffffffffffffffffffffffffffffffffffffff1681526020019081526020016000209050600073ffffffffffffffffffffffffffffffffffffffff168160000160009054906101000a900473ffffffffffffffffffffffffffffffffffffffff1673ffffffffffffffffffffffffffffffffffffffff1614156112705760405180602001604052806000815250915050611365565b611342816001018260020183600401846003018560050186600601876007018860080160009054906101000a900460ff166112e0576040518060400160405280600581526020017f66616c7365000000000000000000000000000000000000000000000000000000815250611317565b6040518060400160405280600481526020017f74727565000000000000000000000000000000000000000000000000000000008152505b60405160200161132e9897969594939291906134f4565b60405160208183030381529060405261215a565b6040516020016113529190613615565b6040516020818303038152906040529150505b919050565b60006113746119be565b905061137f816122be565b6113be576040517f08c379a00000000000000000000000000000000000000000000000000000000081526004016113b5906136a9565b60405180910390fd5b60008211611401576040517f08c379a00000000000000000000000000000000000000000000000000000000081526004016113f89061373b565b60405180910390fd5b816005541015611446576040517f08c379a000000000000000000000000000000000000000000000000000000000815260040161143d906137cd565b60405180910390fd5b8160056000828254611458919061381c565b925050819055508073ffffffffffffffffffffffffffffffffffffffff166108fc839081150290604051600060405180830381858888f193505050501580156114a5573d6000803e3d6000fd5b505050565b600660009054906101000a900473ffffffffffffffffffffffffffffffffffffffff1681565b60008054906101000a900473ffffffffffffffffffffffffffffffffffffffff1681565b837fffffffffffffffffffffffffffffffffffffffffffffffffffffffffffffffff60001b61152b82826115266119be565b6107af565b61156a576040517f08c379a000000000000000000000000000000000000000000000000000000000815260040161156190612d53565b60405180910390fd5b6000600260008873ffffffffffffffffffffffffffffffffffffffff1673ffffffffffffffffffffffffffffffffffffffff16815260200190815260200160002060000160009054906101000a900473ffffffffffffffffffffffffffffffffffffffff16905060006115db6119be565b9050600073ffffffffffffffffffffffffffffffffffffffff168673ffffffffffffffffffffffffffffffffffffffff16141561164d576040517f08c379a0000000000000000000000000000000000000000000000000000000008152600401611644906138c2565b60405180910390fd5b8173ffffffffffffffffffffffffffffffffffffffff168173ffffffffffffffffffffffffffffffffffffffff16148061168d575061168c82826119c6565b5b806116bb57507fffffffffffffffffffffffffffffffffffffffffffffffffffffffffffffffff60001b8714155b6116fa576040517f08c379a00000000000000000000000000000000000000000000000000000000081526004016116f190613954565b60405180910390fd5b84600360008a73ffffffffffffffffffffffffffffffffffffffff1673ffffffffffffffffffffffffffffffffffffffff168152602001908152602001600020600089815260200190815260200160002060008873ffffffffffffffffffffffffffffffffffffffff1673ffffffffffffffffffffffffffffffffffffffff16815260200190815260200160002060006101000a81548160ff0219169083151502179055505050505050505050565b6000600260008473ffffffffffffffffffffffffffffffffffffffff1673ffffffffffffffffffffffffffffffffffffffff16815260200190815260200160002060000160009054906101000a900473ffffffffffffffffffffffffffffffffffffffff169050600073ffffffffffffffffffffffffffffffffffffffff168173ffffffffffffffffffffffffffffffffffffffff161415611880576040517f08c379a0000000000000000000000000000000000000000000000000000000008152600401611877906139e6565b60405180910390fd5b600061188a6119be565b905061189581612318565b6118d4576040517f08c379a00000000000000000000000000000000000000000000000000000000081526004016118cb90613a78565b60405180910390fd5b82600260008673ffffffffffffffffffffffffffffffffffffffff1673ffffffffffffffffffffffffffffffffffffffff16815260200190815260200160002060080160006101000a81548160ff0219169083151502179055508373ffffffffffffffffffffffffffffffffffffffff168173ffffffffffffffffffffffffffffffffffffffff167f1a9425b12b0cb193f4db2ac1b9bc0712393521978231a7fcf5f0262b847cd5498560405161198b9190612641565b60405180910390a350505050565b60006119a483612372565b80156119b657506119b583836123bf565b5b905092915050565b600033905090565b60008060009054906101000a900473ffffffffffffffffffffffffffffffffffffffff1673ffffffffffffffffffffffffffffffffffffffff16638820f6bd6040518163ffffffff1660e01b8152600401602060405180830381865afa158015611a34573d6000803e3d6000fd5b505050506040513d601f19601f82011682018060405250810190611a589190613aad565b73ffffffffffffffffffffffffffffffffffffffff1663e985e9c584846040518363ffffffff1660e01b8152600401611a92929190613ada565b602060405180830381865afa158015611aaf573d6000803e3d6000fd5b505050506040513d601f19601f82011682018060405250810190611ad39190613b18565b905092915050565b6000600660009054906101000a900473ffffffffffffffffffffffffffffffffffffffff1673ffffffffffffffffffffffffffffffffffffffff168273ffffffffffffffffffffffffffffffffffffffff16149050919050565b60606000821415611b7d576040518060400160405280600181526020017f30000000000000000000000000000000000000000000000000000000000000008152509050611c91565b600082905060005b60008214611baf578080611b9890613b45565b915050600a82611ba89190613bbd565b9150611b85565b60008167ffffffffffffffff811115611bcb57611bca612709565b5b6040519080825280601f01601f191660200182016040528015611bfd5781602001600182028036833780820191505090505b5090505b60008514611c8a57600182611c16919061381c565b9150600a85611c259190613bee565b6030611c319190613c1f565b60f81b818381518110611c4757611c46613c75565b5b60200101907effffffffffffffffffffffffffffffffffffffffffffffffffffffffffffff1916908160001a905350600a85611c839190613bbd565b9450611c01565b8093505050505b919050565b6000611ca06119be565b9050600088511415611ce7576040517f08c379a0000000000000000000000000000000000000000000000000000000008152600401611cde90613d16565b60405180910390fd5b600087511415611d2c576040517f08c379a0000000000000000000000000000000000000000000000000000000008152600401611d2390613da8565b60405180910390fd5b600086511415611d71576040517f08c379a0000000000000000000000000000000000000000000000000000000008152600401611d6890612f2f565b60405180910390fd5b3460056000828254611d839190613c1f565b92505081905550600160046000828254611d9d9190613c1f565b92505081905550600060d660f81b609460f81b308460045460001b604051602001611dcc959493929190613e7e565b6040516020818303038152906040528051906020012060001c9050600073ffffffffffffffffffffffffffffffffffffffff168173ffffffffffffffffffffffffffffffffffffffff161415611e57576040517f08c379a0000000000000000000000000000000000000000000000000000000008152600401611e4e90613f4f565b60405180910390fd5b6040518061012001604052808373ffffffffffffffffffffffffffffffffffffffff1681526020018a81526020018981526020016040518060400160405280600b81526020017f61626f75743a626c616e6b0000000000000000000000000000000000000000008152508152602001888152602001878152602001868152602001858152602001841515815250600260008373ffffffffffffffffffffffffffffffffffffffff1673ffffffffffffffffffffffffffffffffffffffff16815260200190815260200160002060008201518160000160006101000a81548173ffffffffffffffffffffffffffffffffffffffff021916908373ffffffffffffffffffffffffffffffffffffffff1602179055506020820151816001019080519060200190611f869291906124ea565b506040820151816002019080519060200190611fa39291906124ea565b506060820151816003019080519060200190611fc09291906124ea565b506080820151816004019080519060200190611fdd9291906124ea565b5060a0820151816005019080519060200190611ffa9291906124ea565b5060c08201518160060190805190602001906120179291906124ea565b5060e08201518160070190805190602001906120349291906124ea565b506101008201518160080160006101000a81548160ff02191690831515021790555090505060008054906101000a900473ffffffffffffffffffffffffffffffffffffffff1673ffffffffffffffffffffffffffffffffffffffff16631b5dc59883836040518363ffffffff1660e01b81526004016120b4929190613ada565b600060405180830381600087803b1580156120ce57600080fd5b505af11580156120e2573d6000803e3d6000fd5b505050508073ffffffffffffffffffffffffffffffffffffffff168273ffffffffffffffffffffffffffffffffffffffff167fbaa80c9cbed3f9a5fcdc4e9dd7785f9cfc968a81b80b94363bea0e92c938c0d98b8b3460405161214793929190613f6f565b60405180910390a3505050505050505050565b606060008251141561217d576040518060200160405280600081525090506122b9565b600060405180606001604052806040815260200161409760409139905060006003600285516121ac9190613c1f565b6121b69190613bbd565b60046121c29190613fb4565b67ffffffffffffffff8111156121db576121da612709565b5b6040519080825280601f01601f19166020018201604052801561220d5781602001600182028036833780820191505090505b509050600182016020820185865187015b80821015612279576003820191508151603f8160121c168501518453600184019350603f81600c1c168501518453600184019350603f8160061c168501518453600184019350603f811685015184536001840193505061221e565b505060038651066001811461229557600281146122a8576122b0565b603d6001830353603d60028303536122b0565b603d60018303535b50505080925050505b919050565b6000600660009054906101000a900473ffffffffffffffffffffffffffffffffffffffff1673ffffffffffffffffffffffffffffffffffffffff168273ffffffffffffffffffffffffffffffffffffffff16149050919050565b6000600660009054906101000a900473ffffffffffffffffffffffffffffffffffffffff1673ffffffffffffffffffffffffffffffffffffffff168273ffffffffffffffffffffffffffffffffffffffff16149050919050565b600061239e827f01ffc9a7000000000000000000000000000000000000000000000000000000006123bf565b80156123b857506123b68263ffffffff60e01b6123bf565b155b9050919050565b6000806301ffc9a760e01b836040516024016123db919061401d565b604051602081830303815290604052907bffffffffffffffffffffffffffffffffffffffffffffffffffffffff19166020820180517bffffffffffffffffffffffffffffffffffffffffffffffffffffffff838183161783525050505090506000808573ffffffffffffffffffffffffffffffffffffffff1661753084604051612465919061407f565b6000604051808303818686fa925050503d80600081146124a1576040519150601f19603f3d011682016040523d82523d6000602084013e6124a6565b606091505b50915091506020815110156124c157600093505050506124e4565b8180156124de5750808060200190518101906124dd9190613b18565b5b93505050505b92915050565b8280546124f6906131ce565b90600052602060002090601f016020900481019282612518576000855561255f565b82601f1061253157805160ff191683800117855561255f565b8280016001018555821561255f579182015b8281111561255e578251825591602001919060010190612543565b5b50905061256c9190612570565b5090565b5b80821115612589576000816000905550600101612571565b5090565b6000604051905090565b600080fd5b600080fd5b60007fffffffff0000000000000000000000000000000000000000000000000000000082169050919050565b6125d6816125a1565b81146125e157600080fd5b50565b6000813590506125f3816125cd565b92915050565b60006020828403121561260f5761260e612597565b5b600061261d848285016125e4565b91505092915050565b60008115159050919050565b61263b81612626565b82525050565b60006020820190506126566000830184612632565b92915050565b6000819050919050565b61266f8161265c565b82525050565b600060208201905061268a6000830184612666565b92915050565b600073ffffffffffffffffffffffffffffffffffffffff82169050919050565b60006126bb82612690565b9050919050565b6126cb816126b0565b81146126d657600080fd5b50565b6000813590506126e8816126c2565b92915050565b600080fd5b600080fd5b6000601f19601f8301169050919050565b7f4e487b7100000000000000000000000000000000000000000000000000000000600052604160045260246000fd5b612741826126f8565b810181811067ffffffffffffffff821117156127605761275f612709565b5b80604052505050565b600061277361258d565b905061277f8282612738565b919050565b600067ffffffffffffffff82111561279f5761279e612709565b5b6127a8826126f8565b9050602081019050919050565b82818337600083830152505050565b60006127d76127d284612784565b612769565b9050828152602081018484840111156127f3576127f26126f3565b5b6127fe8482856127b5565b509392505050565b600082601f83011261281b5761281a6126ee565b5b813561282b8482602086016127c4565b91505092915050565b6000806040838503121561284b5761284a612597565b5b6000612859858286016126d9565b925050602083013567ffffffffffffffff81111561287a5761287961259c565b5b61288685828601612806565b9150509250929050565b6000819050919050565b6128a381612890565b81146128ae57600080fd5b50565b6000813590506128c08161289a565b92915050565b6000806000606084860312156128df576128de612597565b5b60006128ed868287016126d9565b93505060206128fe868287016128b1565b925050604061290f868287016126d9565b9150509250925092565b6129228161265c565b811461292d57600080fd5b50565b60008135905061293f81612919565b92915050565b60006020828403121561295b5761295a612597565b5b600061296984828501612930565b91505092915050565b60008060008060008060c0878903121561298f5761298e612597565b5b600087013567ffffffffffffffff8111156129ad576129ac61259c565b5b6129b989828a01612806565b965050602087013567ffffffffffffffff8111156129da576129d961259c565b5b6129e689828a01612806565b955050604087013567ffffffffffffffff811115612a0757612a0661259c565b5b612a1389828a01612806565b945050606087013567ffffffffffffffff811115612a3457612a3361259c565b5b612a4089828a01612806565b935050608087013567ffffffffffffffff811115612a6157612a6061259c565b5b612a6d89828a01612806565b92505060a087013567ffffffffffffffff811115612a8e57612a8d61259c565b5b612a9a89828a01612806565b9150509295509295509295565b600060208284031215612abd57612abc612597565b5b6000612acb848285016126d9565b91505092915050565b60008060408385031215612aeb57612aea612597565b5b6000612af9858286016126d9565b9250506020612b0a858286016126d9565b9150509250929050565b600081519050919050565b600082825260208201905092915050565b60005b83811015612b4e578082015181840152602081019050612b33565b83811115612b5d576000848401525b50505050565b6000612b6e82612b14565b612b788185612b1f565b9350612b88818560208601612b30565b612b91816126f8565b840191505092915050565b60006020820190508181036000830152612bb68184612b63565b905092915050565b612bc7816126b0565b82525050565b6000602082019050612be26000830184612bbe565b92915050565b612bf181612626565b8114612bfc57600080fd5b50565b600081359050612c0e81612be8565b92915050565b60008060008060808587031215612c2e57612c2d612597565b5b6000612c3c878288016126d9565b9450506020612c4d878288016128b1565b9350506040612c5e878288016126d9565b9250506060612c6f87828801612bff565b91505092959194509250565b60008060408385031215612c9257612c91612597565b5b6000612ca0858286016126d9565b9250506020612cb185828601612bff565b9150509250929050565b7f4272616e6452656769737472793a2063616c6c6572206973206e6f742062726160008201527f6e64206f776e6572206e6f7220617070726f7665642c20616e6420646f65732060208201527f6e6f74206861766520746865207265717569726564207065726d697373696f6e604082015250565b6000612d3d606083612b1f565b9150612d4882612cbb565b606082019050919050565b60006020820190508181036000830152612d6c81612d30565b9050919050565b7f4272616e6452656769737472793a206e6f7420616c6c6f77656420746f20736560008201527f7420746865206272616e6420726567697374726174696f6e20636f7374000000602082015250565b6000612dcf603d83612b1f565b9150612dda82612d73565b604082019050919050565b60006020820190508181036000830152612dfe81612dc2565b9050919050565b7f4272616e6452656769737472793a20746865206272616e64207265676973747260008201527f7920636f7374206d757374206e6f74206265206c657373207468616e20302e3060208201527f31206e617469766520746f6b656e730000000000000000000000000000000000604082015250565b6000612e87604f83612b1f565b9150612e9282612e05565b606082019050919050565b60006020820190508181036000830152612eb681612e7a565b9050919050565b7f4272616e6452656769737472793a207573652061206e6f6e2d656d707479206960008201527f6d6167652075726c000000000000000000000000000000000000000000000000602082015250565b6000612f19602883612b1f565b9150612f2482612ebd565b604082019050919050565b60006020820190508181036000830152612f4881612f0c565b9050919050565b600081905092915050565b6000612f6582612b14565b612f6f8185612f4f565b9350612f7f818560208601612b30565b80840191505092915050565b7f20726571756972657320616e206578616374207061796d656e74206f66200000600082015250565b6000612fc1601e83612f4f565b9150612fcc82612f8b565b601e82019050919050565b7f2062757420000000000000000000000000000000000000000000000000000000600082015250565b600061300d600583612f4f565b915061301882612fd7565b600582019050919050565b7f2077617320676976656e00000000000000000000000000000000000000000000600082015250565b6000613059600a83612f4f565b915061306482613023565b600a82019050919050565b600061307b8286612f5a565b915061308682612fb4565b91506130928285612f5a565b915061309d82613000565b91506130a98284612f5a565b91506130b48261304c565b9150819050949350505050565b7f4272616e6452656769737472793a206f6e6c7920746865206f776e696e67206d60008201527f65746176657273652063616e20696e766f6b652074686973206d6574686f6400602082015250565b600061311d603f83612b1f565b9150613128826130c1565b604082019050919050565b6000602082019050818103600083015261314c81613110565b9050919050565b7f7b226e616d65223a220000000000000000000000000000000000000000000000600082015250565b6000613189600983612f4f565b915061319482613153565b600982019050919050565b7f4e487b7100000000000000000000000000000000000000000000000000000000600052602260045260246000fd5b600060028204905060018216806131e657607f821691505b602082108114156131fa576131f961319f565b5b50919050565b60008190508160005260206000209050919050565b60008154613222816131ce565b61322c8186612f4f565b9450600182166000811461324757600181146132585761328b565b60ff1983168652818601935061328b565b61326185613200565b60005b8381101561328357815481890152600182019150602081019050613264565b838801955050505b50505092915050565b7f222c226465736372697074696f6e223a22000000000000000000000000000000600082015250565b60006132ca601183612f4f565b91506132d582613294565b601182019050919050565b7f222c22696d616765223a22000000000000000000000000000000000000000000600082015250565b6000613316600b83612f4f565b9150613321826132e0565b600b82019050919050565b7f222c2270726f70657274696573223a7b226368616c6c656e676555726c223a22600082015250565b6000613362602083612f4f565b915061336d8261332c565b602082019050919050565b7f222c2269636f6e3136783136223a220000000000000000000000000000000000600082015250565b60006133ae600f83612f4f565b91506133b982613378565b600f82019050919050565b7f222c2269636f6e3332783332223a220000000000000000000000000000000000600082015250565b60006133fa600f83612f4f565b9150613405826133c4565b600f82019050919050565b7f222c2269636f6e3634783634223a220000000000000000000000000000000000600082015250565b6000613446600f83612f4f565b915061345182613410565b600f82019050919050565b7f222c22636f6d6d6974746564223a000000000000000000000000000000000000600082015250565b6000613492600e83612f4f565b915061349d8261345c565b600e82019050919050565b7f7d7d000000000000000000000000000000000000000000000000000000000000600082015250565b60006134de600283612f4f565b91506134e9826134a8565b600282019050919050565b60006134ff8261317c565b915061350b828b613215565b9150613516826132bd565b9150613522828a613215565b915061352d82613309565b91506135398289613215565b915061354482613355565b91506135508288613215565b915061355b826133a1565b91506135678287613215565b9150613572826133ed565b915061357e8286613215565b915061358982613439565b91506135958285613215565b91506135a082613485565b91506135ac8284612f5a565b91506135b7826134d1565b91508190509998505050505050505050565b7f646174613a6170706c69636174696f6e2f6a736f6e3b6261736536342c000000600082015250565b60006135ff601d83612f4f565b915061360a826135c9565b601d82019050919050565b6000613620826135f2565b915061362c8284612f5a565b915081905092915050565b7f4272616e6452656769737472793a206561726e696e67732063616e6e6f74206260008201527f652077697468647261776e20627920746869732073656e646572000000000000602082015250565b6000613693603a83612b1f565b915061369e82613637565b604082019050919050565b600060208201905081810360008301526136c281613686565b9050919050565b7f4272616e6452656769737472793a206561726e696e677320616d6f756e74206d60008201527f757374206e6f7420626520300000000000000000000000000000000000000000602082015250565b6000613725602c83612b1f565b9150613730826136c9565b604082019050919050565b6000602082019050818103600083015261375481613718565b9050919050565b7f4272616e6452656769737472793a206561726e696e677320616d6f756e74206960008201527f73206c657373207468616e207468652072657175657374656420616d6f756e74602082015250565b60006137b7604083612b1f565b91506137c28261375b565b604082019050919050565b600060208201905081810360008301526137e6816137aa565b9050919050565b7f4e487b7100000000000000000000000000000000000000000000000000000000600052601160045260246000fd5b60006138278261265c565b91506138328361265c565b925082821015613845576138446137ed565b5b828203905092915050565b7f4272616e6452656769737472793a2043616e6e6f74206772616e74206120706560008201527f726d697373696f6e20746f206164647265737320300000000000000000000000602082015250565b60006138ac603583612b1f565b91506138b782613850565b604082019050919050565b600060208201905081810360008301526138db8161389f565b9050919050565b7f4272616e6452656769737472793a20535550455255534552207065726d69737360008201527f696f6e2063616e6e6f742062652061646465642062792074686973206d65616e602082015250565b600061393e604083612b1f565b9150613949826138e2565b604082019050919050565b6000602082019050818103600083015261396d81613931565b9050919050565b7f4272616e6452656769737472793a206e6f6e2d6578697374696e67206272616e60008201527f6400000000000000000000000000000000000000000000000000000000000000602082015250565b60006139d0602183612b1f565b91506139db82613974565b604082019050919050565b600060208201905081810360008301526139ff816139c3565b9050919050565b7f4272616e6452656769737472793a206e6f7420616c6c6f77656420746f20736560008201527f74206272616e64732720736f6369616c20636f6d6d69746d656e740000000000602082015250565b6000613a62603b83612b1f565b9150613a6d82613a06565b604082019050919050565b60006020820190508181036000830152613a9181613a55565b9050919050565b600081519050613aa7816126c2565b92915050565b600060208284031215613ac357613ac2612597565b5b6000613ad184828501613a98565b91505092915050565b6000604082019050613aef6000830185612bbe565b613afc6020830184612bbe565b9392505050565b600081519050613b1281612be8565b92915050565b600060208284031215613b2e57613b2d612597565b5b6000613b3c84828501613b03565b91505092915050565b6000613b508261265c565b91507fffffffffffffffffffffffffffffffffffffffffffffffffffffffffffffffff821415613b8357613b826137ed565b5b600182019050919050565b7f4e487b7100000000000000000000000000000000000000000000000000000000600052601260045260246000fd5b6000613bc88261265c565b9150613bd38361265c565b925082613be357613be2613b8e565b5b828204905092915050565b6000613bf98261265c565b9150613c048361265c565b925082613c1457613c13613b8e565b5b828206905092915050565b6000613c2a8261265c565b9150613c358361265c565b9250827fffffffffffffffffffffffffffffffffffffffffffffffffffffffffffffffff03821115613c6a57613c696137ed565b5b828201905092915050565b7f4e487b7100000000000000000000000000000000000000000000000000000000600052603260045260246000fd5b7f4272616e6452656769737472793a207573652061206e6f6e2d656d707479206e60008201527f616d650000000000000000000000000000000000000000000000000000000000602082015250565b6000613d00602383612b1f565b9150613d0b82613ca4565b604082019050919050565b60006020820190508181036000830152613d2f81613cf3565b9050919050565b7f4272616e6452656769737472793a207573652061206e6f6e2d656d707479206460008201527f65736372697074696f6e00000000000000000000000000000000000000000000602082015250565b6000613d92602a83612b1f565b9150613d9d82613d36565b604082019050919050565b60006020820190508181036000830152613dc181613d85565b9050919050565b60007fff0000000000000000000000000000000000000000000000000000000000000082169050919050565b6000819050919050565b613e0f613e0a82613dc8565b613df4565b82525050565b60008160601b9050919050565b6000613e2d82613e15565b9050919050565b6000613e3f82613e22565b9050919050565b613e57613e52826126b0565b613e34565b82525050565b6000819050919050565b613e78613e7382612890565b613e5d565b82525050565b6000613e8a8288613dfe565b600182019150613e9a8287613dfe565b600182019150613eaa8286613e46565b601482019150613eba8285613e46565b601482019150613eca8284613e67565b6020820191508190509695505050505050565b7f4272616e6452656769737472793a2074686973206272616e642063616e6e6f7460008201527f206265206d696e746564206e6f77202d2074727920616761696e206c61746572602082015250565b6000613f39604083612b1f565b9150613f4482613edd565b604082019050919050565b60006020820190508181036000830152613f6881613f2c565b9050919050565b60006060820190508181036000830152613f898186612b63565b90508181036020830152613f9d8185612b63565b9050613fac6040830184612666565b949350505050565b6000613fbf8261265c565b9150613fca8361265c565b9250817fffffffffffffffffffffffffffffffffffffffffffffffffffffffffffffffff0483118215151615614003576140026137ed565b5b828202905092915050565b614017816125a1565b82525050565b6000602082019050614032600083018461400e565b92915050565b600081519050919050565b600081905092915050565b600061405982614038565b6140638185614043565b9350614073818560208601612b30565b80840191505092915050565b600061408b828461404e565b91508190509291505056fe4142434445464748494a4b4c4d4e4f505152535455565758595a6162636465666768696a6b6c6d6e6f707172737475767778797a303132333435363738392b2f4272616e6452656769737472793a206272616e6420726567697374726174696f6ea2646970667358221220c7f23bc0794612a36ebbf43e553361eba186889112071b4761ff0609e83a2cf964736f6c634300080a0033",
  "immutableReferences": {},
  "source": "// SPDX-License-Identifier: MIT\npragma solidity >=0.8 <0.9.0;\n\nimport \"../BrandRegistry.sol\";\n\ncontract SampleBrandRegistry is BrandRegistry {\n    /**\n     * The deployer of this metaverse.\n     */\n    address public deployer;\n\n    constructor(address _metaverse) BrandRegistry(_metaverse) {\n        deployer = _msgSender();\n    }\n\n    /**\n     * Setting the brand registration fee is only allowed to the deployer.\n     */\n    function _canSetBrandRegistrationCost(address _sender) internal override view returns (bool) {\n        return _sender == deployer;\n    }\n\n    /**\n     * Setting a brand's social commitment is only allowed to the deployer.\n     */\n    function _canSetBrandCommitment(address _sender) internal override view returns (bool) {\n        return _sender == deployer;\n    }\n\n    /**\n     * Withdrawing funds from brand registrations is only allowed to the deployer.\n     */\n    function _canWithdrawBrandRegistrationEarnings(address _sender) internal view override returns (bool) {\n        return _sender == deployer;\n    }\n}\n",
  "sourcePath": "/home/luismasuelli/Projects/OuterMaze/semperland-contracts/contracts/semperland/brands/samples/SampleBrandRegistry.sol",
  "compiler": {
    "name": "solc",
    "version": "0.8.10+commit.fc410830.Emscripten.clang"
  },
  "schemaVersion": "3.4.3",
  "updatedAt": "2022-08-12T18:06:11.421Z",
  "devdoc": {
    "kind": "dev",
    "methods": {},
    "version": 1
  },
  "userdoc": {
    "events": {
      "BrandEarningsWithdrawn(address,uint256)": {
        "notice": "This event is triggered when brand earnings were withdrawn successfully."
      },
      "BrandRegistered(address,address,string,string,uint256)": {
        "notice": "This event is triggered when a brand is registered. The new address is also included, along some reference data."
      },
      "BrandRegistrationCostUpdated(uint256)": {
        "notice": "An event for when the brand registration cost is updated."
      },
      "BrandSocialCommitmentUpdated(address,address,bool)": {
        "notice": "This event is triggered when a brand is updated with respect to its social commitment (this is: to tell a brand is socially committed according to the metaverse's views or not). Special benefits (in particular, with respect to assets loading on customers) are given in clients to socially committed brands."
      },
      "BrandUpdated(address,address)": {
        "notice": "This event is triggered when a brand is registered. The new address is also included, along some reference data."
      }
    },
    "kind": "user",
    "methods": {
      "brandExists(address)": {
        "notice": "Tells whether an address corresponds to a registered brand or not."
      },
      "brandMetadataURI(address)": {
        "notice": "Assembles the whole metadata for a brand. WARNING: This method will consume a lot of gas if invoked inside a transaction, so it is recommended to invoke this method in the context of a CALL, and never in the context of a SEND (even as part of other contract's code)."
      },
      "brandRegistrationCost()": {
        "notice": "The cost to register a new brand. This can be changed in the future and must be able to be known in the ABI for the users to be aware of the statistic."
      },
      "brandRegistrationCurrentEarnings()": {
        "notice": "Tells the current earnings, not yet withdrawn, from brand registrations."
      },
      "brandSetPermission(address,bytes32,address,bool)": {
        "notice": "Grants a permission to a user. This action is reserved to owners, approved operators, or allowed superusers. However, superuser cannot set, in particular, the SUPERUSER permission itself."
      },
      "deployer()": {
        "notice": "The deployer of this metaverse."
      },
      "isBrandAllowed(address,bytes32,address)": {
        "notice": "Tells whether a given sender is considered to have certain permission in the (non-zero) brand."
      },
      "metaverse()": {
        "notice": "The metaverse that will own this brand registry."
      },
      "onBrandOwnerChanged(address,address)": {
        "notice": "Sets the owner of a brand. This method is meant to be called internally, when the actual brand transfer is done (brands can only be transferred, but never burnt)."
      },
      "registerBrand(string,string,string,string,string,string)": {
        "notice": "Registers a new brand, when the appropriate price is paid for it. For more details on how this method works, check _registerBrand's inline documentation."
      },
      "setBrandRegistrationCost(uint256)": {
        "notice": "Sets the new brand registration cost."
      },
      "supportsInterface(bytes4)": {
        "notice": "A brand registry satisfies the IBrandRegistry and IERC165."
      },
      "updateBrandChallengeUrl(address,string)": {
        "notice": "Updates the brand's challenge url. Only the owner of the brand or an approved account can invoke this method. Ensure the url is empty or a valid URL, or metadata might fail to be assembled into valid JSON."
      },
      "updateBrandIcon16x16Url(address,string)": {
        "notice": "Updates the brand's 16x16 icon url. Only the owner of the brand or an approved account can invoke this method. Ensure the _icon is empty or a valid URL, or metadata might fail to be assembled into valid JSON."
      },
      "updateBrandIcon32x32Url(address,string)": {
        "notice": "Updates the brand's 32x32 icon url. Only the owner of the brand or an approved account can invoke this method. Ensure the _icon is empty or a valid URL, or metadata might fail to be assembled into valid JSON."
      },
      "updateBrandIcon64x64Url(address,string)": {
        "notice": "Updates the brand's 64x64 icon url. Only the owner of the brand or an approved account can invoke this method. Ensure the _icon is empty or a valid URL, or metadata might fail to be assembled into valid JSON."
      },
      "updateBrandImage(address,string)": {
        "notice": "Updates the brand image. Only the owner of the brand or an approved account can invoke this method. Ensure the _image is empty or a valid URL, or metadata might fail to be assembled into valid JSON."
      },
      "updateBrandSocialCommitment(address,bool)": {
        "notice": "Updates whether a brand is socially committed or not."
      },
      "withdrawBrandRegistrationEarnings(uint256)": {
        "notice": "Allows the sender to withdraw brand registration earnings."
      }
    },
    "version": 1
  }
}