{
  "contractName": "SampleMetaverse",
  "abi": [
    {
      "inputs": [],
      "stateMutability": "nonpayable",
      "type": "constructor"
    },
    {
      "inputs": [
        {
          "internalType": "address",
          "name": "_contract",
          "type": "address"
        }
      ],
      "name": "addPlugin",
      "outputs": [],
      "stateMutability": "nonpayable",
      "type": "function"
    },
    {
      "inputs": [],
      "name": "brandRegistry",
      "outputs": [
        {
          "internalType": "address",
          "name": "",
          "type": "address"
        }
      ],
      "stateMutability": "view",
      "type": "function"
    },
    {
      "inputs": [
        {
          "internalType": "uint256",
          "name": "_tokenId",
          "type": "uint256"
        },
        {
          "internalType": "uint256",
          "name": "_amount",
          "type": "uint256"
        }
      ],
      "name": "burnFT",
      "outputs": [],
      "stateMutability": "nonpayable",
      "type": "function"
    },
    {
      "inputs": [
        {
          "internalType": "uint256[]",
          "name": "_tokenIds",
          "type": "uint256[]"
        },
        {
          "internalType": "uint256[]",
          "name": "_amounts",
          "type": "uint256[]"
        }
      ],
      "name": "burnFTs",
      "outputs": [],
      "stateMutability": "nonpayable",
      "type": "function"
    },
    {
      "inputs": [
        {
          "internalType": "uint256",
          "name": "_tokenId",
          "type": "uint256"
        }
      ],
      "name": "burnNFT",
      "outputs": [],
      "stateMutability": "nonpayable",
      "type": "function"
    },
    {
      "inputs": [
        {
          "internalType": "uint256[]",
          "name": "_tokenIds",
          "type": "uint256[]"
        }
      ],
      "name": "burnNFTs",
      "outputs": [],
      "stateMutability": "nonpayable",
      "type": "function"
    },
    {
      "inputs": [
        {
          "internalType": "address",
          "name": "_brandId",
          "type": "address"
        }
      ],
      "name": "defineNextFTType",
      "outputs": [
        {
          "internalType": "uint256",
          "name": "",
          "type": "uint256"
        }
      ],
      "stateMutability": "nonpayable",
      "type": "function"
    },
    {
      "inputs": [],
      "name": "defineNextNFTType",
      "outputs": [
        {
          "internalType": "uint256",
          "name": "",
          "type": "uint256"
        }
      ],
      "stateMutability": "nonpayable",
      "type": "function"
    },
    {
      "inputs": [],
      "name": "deployer",
      "outputs": [
        {
          "internalType": "address",
          "name": "",
          "type": "address"
        }
      ],
      "stateMutability": "view",
      "type": "function"
    },
    {
      "inputs": [],
      "name": "economy",
      "outputs": [
        {
          "internalType": "address",
          "name": "",
          "type": "address"
        }
      ],
      "stateMutability": "view",
      "type": "function"
    },
    {
      "inputs": [
        {
          "internalType": "address",
          "name": "_to",
          "type": "address"
        },
        {
          "internalType": "address",
          "name": "_brandId",
          "type": "address"
        }
      ],
      "name": "mintBrandFor",
      "outputs": [],
      "stateMutability": "nonpayable",
      "type": "function"
    },
    {
      "inputs": [
        {
          "internalType": "address",
          "name": "_to",
          "type": "address"
        },
        {
          "internalType": "uint256",
          "name": "_tokenId",
          "type": "uint256"
        },
        {
          "internalType": "uint256",
          "name": "_amount",
          "type": "uint256"
        },
        {
          "internalType": "bytes",
          "name": "_data",
          "type": "bytes"
        }
      ],
      "name": "mintFTFor",
      "outputs": [],
      "stateMutability": "nonpayable",
      "type": "function"
    },
    {
      "inputs": [
        {
          "internalType": "address",
          "name": "_to",
          "type": "address"
        },
        {
          "internalType": "uint256",
          "name": "_tokenType",
          "type": "uint256"
        },
        {
          "internalType": "bytes",
          "name": "_data",
          "type": "bytes"
        }
      ],
      "name": "mintNFTFor",
      "outputs": [
        {
          "internalType": "uint256",
          "name": "",
          "type": "uint256"
        }
      ],
      "stateMutability": "nonpayable",
      "type": "function"
    },
    {
      "inputs": [
        {
          "internalType": "uint256",
          "name": "",
          "type": "uint256"
        }
      ],
      "name": "nftTypes",
      "outputs": [
        {
          "internalType": "uint256",
          "name": "",
          "type": "uint256"
        }
      ],
      "stateMutability": "view",
      "type": "function"
    },
    {
      "inputs": [
        {
          "internalType": "address",
          "name": "_brandId",
          "type": "address"
        },
        {
          "internalType": "address",
          "name": "_newOwner",
          "type": "address"
        }
      ],
      "name": "onBrandOwnerChanged",
      "outputs": [],
      "stateMutability": "nonpayable",
      "type": "function"
    },
    {
      "inputs": [
        {
          "internalType": "address",
          "name": "",
          "type": "address"
        }
      ],
      "name": "plugins",
      "outputs": [
        {
          "internalType": "bool",
          "name": "",
          "type": "bool"
        }
      ],
      "stateMutability": "view",
      "type": "function"
    },
    {
      "inputs": [],
      "name": "pluginsCount",
      "outputs": [
        {
          "internalType": "uint256",
          "name": "",
          "type": "uint256"
        }
      ],
      "stateMutability": "view",
      "type": "function"
    },
    {
      "inputs": [
        {
          "internalType": "uint256",
          "name": "",
          "type": "uint256"
        }
      ],
      "name": "pluginsList",
      "outputs": [
        {
          "internalType": "address",
          "name": "",
          "type": "address"
        }
      ],
      "stateMutability": "view",
      "type": "function"
    },
    {
      "inputs": [
        {
          "internalType": "address",
          "name": "_contract",
          "type": "address"
        }
      ],
      "name": "setBrandRegistry",
      "outputs": [],
      "stateMutability": "nonpayable",
      "type": "function"
    },
    {
      "inputs": [
        {
          "internalType": "address",
          "name": "_contract",
          "type": "address"
        }
      ],
      "name": "setEconomy",
      "outputs": [],
      "stateMutability": "nonpayable",
      "type": "function"
    },
    {
      "inputs": [
        {
          "internalType": "bytes4",
          "name": "interfaceId",
          "type": "bytes4"
        }
      ],
      "name": "supportsInterface",
      "outputs": [
        {
          "internalType": "bool",
          "name": "",
          "type": "bool"
        }
      ],
      "stateMutability": "view",
      "type": "function"
    },
    {
      "inputs": [
        {
          "internalType": "uint256",
          "name": "",
          "type": "uint256"
        }
      ],
      "name": "tokenTypeResolvers",
      "outputs": [
        {
          "internalType": "address",
          "name": "",
          "type": "address"
        }
      ],
      "stateMutability": "view",
      "type": "function"
    },
    {
      "inputs": [
        {
          "internalType": "uint256",
          "name": "_tokenId",
          "type": "uint256"
        }
      ],
      "name": "tokenURI",
      "outputs": [
        {
          "internalType": "string",
          "name": "",
          "type": "string"
        }
      ],
      "stateMutability": "view",
      "type": "function"
    }
  ],
  "bytecode": "0x60806040526002600755740100000000000000000000000000000000000000006008553480156200002f57600080fd5b50620000406200008660201b60201c565b600960006101000a81548173ffffffffffffffffffffffffffffffffffffffff021916908373ffffffffffffffffffffffffffffffffffffffff1602179055506200008e565b600033905090565b614220806200009e6000396000f3fe608060405234801561001057600080fd5b506004361061014d5760003560e01c8063a16bc2ae116100c3578063c05cb36f1161007c578063c05cb36f1461039a578063c87b56dd146103ca578063d053bfa1146103fa578063d5f394881461042a578063d8867fc814610448578063f981ce7f146104645761014d565b8063a16bc2ae146102de578063acb8a060146102fa578063ad8509b014610316578063b842aa9214610332578063b9225e8414610362578063ba9c5ba91461037e5761014d565b80634b12e643116101155780634b12e64314610208578063556112d4146102385780635b1798e41461025657806379b2ab23146102745780638820f6bd146102a45780638cd6e9a9146102c25761014d565b806301ffc9a71461015257806304a6fdc01461018257806309f6567e146101b25780631b5dc598146101d05780632890e0d7146101ec575b600080fd5b61016c6004803603810190610167919061295f565b610480565b60405161017991906129a7565b60405180910390f35b61019c60048036038101906101979190612b9c565b610552565b6040516101a99190612c1a565b60405180910390f35b6101ba6108b2565b6040516101c79190612c1a565b60405180910390f35b6101ea60048036038101906101e59190612c35565b6108bf565b005b61020660048036038101906102019190612c75565b610a02565b005b610222600480360381019061021d9190612ca2565b610bed565b60405161022f91906129a7565b60405180910390f35b610240610c0d565b60405161024d9190612c1a565b60405180910390f35b61025e610e10565b60405161026b9190612cde565b60405180910390f35b61028e60048036038101906102899190612c75565b610e36565b60405161029b9190612c1a565b60405180910390f35b6102ac610e4e565b6040516102b99190612cde565b60405180910390f35b6102dc60048036038101906102d79190612c35565b610e74565b005b6102f860048036038101906102f39190612cf9565b610f9e565b005b610314600480360381019061030f9190612ca2565b6111d8565b005b610330600480360381019061032b9190612ca2565b611344565b005b61034c60048036038101906103479190612ca2565b6114b0565b6040516103599190612c1a565b60405180910390f35b61037c60048036038101906103779190612e44565b6117ae565b005b61039860048036038101906103939190612e8d565b611a67565b005b6103b460048036038101906103af9190612c75565b611c3f565b6040516103c19190612cde565b60405180910390f35b6103e460048036038101906103df9190612c75565b611c7e565b6040516103f19190612f55565b60405180910390f35b610414600480360381019061040f9190612c75565b611da1565b6040516104219190612cde565b60405180910390f35b610432611dd4565b60405161043f9190612cde565b60405180910390f35b610462600480360381019061045d9190612ca2565b611dfa565b005b61047e60048036038101906104799190612f77565b61203a565b005b60007f01ffc9a7000000000000000000000000000000000000000000000000000000007bffffffffffffffffffffffffffffffffffffffffffffffffffffffff1916827bffffffffffffffffffffffffffffffffffffffffffffffffffffffff1916148061054b57507f943ebb4a000000000000000000000000000000000000000000000000000000007bffffffffffffffffffffffffffffffffffffffffffffffffffffffff1916827bffffffffffffffffffffffffffffffffffffffffffffffffffffffff1916145b9050919050565b600080600061055f61224c565b73ffffffffffffffffffffffffffffffffffffffff1673ffffffffffffffffffffffffffffffffffffffff16815260200190815260200160002060009054906101000a900460ff166105e6576040517f08c379a00000000000000000000000000000000000000000000000000000000081526004016105dd90613061565b60405180910390fd5b826105ef61224c565b73ffffffffffffffffffffffffffffffffffffffff166004600083815260200190815260200160002060009054906101000a900473ffffffffffffffffffffffffffffffffffffffff1673ffffffffffffffffffffffffffffffffffffffff161461068f576040517f08c379a0000000000000000000000000000000000000000000000000000000008152600401610686906130f3565b60405180910390fd5b837f800000000000000000000000000000000000000000000000000000000000000081106106f2576040517f08c379a00000000000000000000000000000000000000000000000000000000081526004016106e990613185565b60405180910390fd5b6002851015610736576040517f08c379a000000000000000000000000000000000000000000000000000000000815260040161072d90613217565b60405180910390fd5b6000600854905060007f7fffffffffffffffffffffffffffffffffffffffffffffffffffffffffffffff90505b6001156107e5578082106107ac576040517f08c379a00000000000000000000000000000000000000000000000000000000081526004016107a390613283565b60405180910390fd5b60006005600084815260200190815260200160002054146107db576001826107d491906132d2565b91506107e0565b6107e5565b610763565b6001826107f291906132d2565b600881905550600360009054906101000a900473ffffffffffffffffffffffffffffffffffffffff1673ffffffffffffffffffffffffffffffffffffffff16635b0034fd898460018a6040518563ffffffff1660e01b815260040161085a94939291906133c2565b600060405180830381600087803b15801561087457600080fd5b505af1158015610888573d6000803e3d6000fd5b50505050866005600084815260200190815260200160002081905550819450505050509392505050565b6000600180549050905090565b600260009054906101000a900473ffffffffffffffffffffffffffffffffffffffff1673ffffffffffffffffffffffffffffffffffffffff1661090061224c565b73ffffffffffffffffffffffffffffffffffffffff1614610956576040517f08c379a000000000000000000000000000000000000000000000000000000000815260040161094d90613480565b60405180910390fd5b600360009054906101000a900473ffffffffffffffffffffffffffffffffffffffff1673ffffffffffffffffffffffffffffffffffffffff16635b0034fd838373ffffffffffffffffffffffffffffffffffffffff1660016040518463ffffffff1660e01b81526004016109cc939291906134ec565b600060405180830381600087803b1580156109e657600080fd5b505af11580156109fa573d6000803e3d6000fd5b505050505050565b600080610a0d61224c565b73ffffffffffffffffffffffffffffffffffffffff1673ffffffffffffffffffffffffffffffffffffffff16815260200190815260200160002060009054906101000a900460ff16610a94576040517f08c379a0000000000000000000000000000000000000000000000000000000008152600401610a8b90613061565b60405180910390fd5b6005600082815260200190815260200160002054610ab061224c565b73ffffffffffffffffffffffffffffffffffffffff166004600083815260200190815260200160002060009054906101000a900473ffffffffffffffffffffffffffffffffffffffff1673ffffffffffffffffffffffffffffffffffffffff1614610b50576040517f08c379a0000000000000000000000000000000000000000000000000000000008152600401610b47906130f3565b60405180910390fd5b600360009054906101000a900473ffffffffffffffffffffffffffffffffffffffff1673ffffffffffffffffffffffffffffffffffffffff1663f5298aca610b9661224c565b8460016040518463ffffffff1660e01b8152600401610bb793929190613536565b600060405180830381600087803b158015610bd157600080fd5b505af1158015610be5573d6000803e3d6000fd5b505050505050565b60006020528060005260406000206000915054906101000a900460ff1681565b6000806000610c1a61224c565b73ffffffffffffffffffffffffffffffffffffffff1673ffffffffffffffffffffffffffffffffffffffff16815260200190815260200160002060009054906101000a900460ff16610ca1576040517f08c379a0000000000000000000000000000000000000000000000000000000008152600401610c9890613061565b60405180910390fd5b6000600754905060007f7fffffffffffffffffffffffffffffffffffffffffffffffffffffffffffffff90505b600115610d9c57808210610d17576040517f08c379a0000000000000000000000000000000000000000000000000000000008152600401610d0e906135df565b60405180910390fd5b600073ffffffffffffffffffffffffffffffffffffffff166004600084815260200190815260200160002060009054906101000a900473ffffffffffffffffffffffffffffffffffffffff1673ffffffffffffffffffffffffffffffffffffffff1614610d9257600182610d8b91906132d2565b9150610d97565b610d9c565b610cce565b600182610da991906132d2565b600781905550610db761224c565b6004600084815260200190815260200160002060006101000a81548173ffffffffffffffffffffffffffffffffffffffff021916908373ffffffffffffffffffffffffffffffffffffffff160217905550819250505090565b600260009054906101000a900473ffffffffffffffffffffffffffffffffffffffff1681565b60056020528060005260406000206000915090505481565b600360009054906101000a900473ffffffffffffffffffffffffffffffffffffffff1681565b600360009054906101000a900473ffffffffffffffffffffffffffffffffffffffff1673ffffffffffffffffffffffffffffffffffffffff16610eb561224c565b73ffffffffffffffffffffffffffffffffffffffff1614610f0b576040517f08c379a0000000000000000000000000000000000000000000000000000000008152600401610f0290613671565b60405180910390fd5b600260009054906101000a900473ffffffffffffffffffffffffffffffffffffffff1673ffffffffffffffffffffffffffffffffffffffff16638cd6e9a983836040518363ffffffff1660e01b8152600401610f68929190613691565b600060405180830381600087803b158015610f8257600080fd5b505af1158015610f96573d6000803e3d6000fd5b505050505050565b600080610fa961224c565b73ffffffffffffffffffffffffffffffffffffffff1673ffffffffffffffffffffffffffffffffffffffff16815260200190815260200160002060009054906101000a900460ff16611030576040517f08c379a000000000000000000000000000000000000000000000000000000000815260040161102790613061565b60405180910390fd5b8261103961224c565b73ffffffffffffffffffffffffffffffffffffffff166004600083815260200190815260200160002060009054906101000a900473ffffffffffffffffffffffffffffffffffffffff1673ffffffffffffffffffffffffffffffffffffffff16146110d9576040517f08c379a00000000000000000000000000000000000000000000000000000000081526004016110d0906130f3565b60405180910390fd5b837f800000000000000000000000000000000000000000000000000000000000000081101561113d576040517f08c379a000000000000000000000000000000000000000000000000000000000815260040161113490613752565b60405180910390fd5b600360009054906101000a900473ffffffffffffffffffffffffffffffffffffffff1673ffffffffffffffffffffffffffffffffffffffff16635b0034fd878787876040518563ffffffff1660e01b815260040161119e9493929190613772565b600060405180830381600087803b1580156111b857600080fd5b505af11580156111cc573d6000803e3d6000fd5b50505050505050505050565b6111e86111e361224c565b612254565b611227576040517f08c379a000000000000000000000000000000000000000000000000000000000815260040161121e90613830565b60405180910390fd5b611230816122ae565b61126f576040517f08c379a0000000000000000000000000000000000000000000000000000000008152600401611266906138e8565b60405180910390fd5b600073ffffffffffffffffffffffffffffffffffffffff16600260009054906101000a900473ffffffffffffffffffffffffffffffffffffffff1673ffffffffffffffffffffffffffffffffffffffff1614611300576040517f08c379a00000000000000000000000000000000000000000000000000000000081526004016112f79061397a565b60405180910390fd5b80600260006101000a81548173ffffffffffffffffffffffffffffffffffffffff021916908373ffffffffffffffffffffffffffffffffffffffff16021790555050565b61135461134f61224c565b6123a5565b611393576040517f08c379a000000000000000000000000000000000000000000000000000000000815260040161138a90613a0c565b60405180910390fd5b61139c816123ff565b6113db576040517f08c379a00000000000000000000000000000000000000000000000000000000081526004016113d290613ac4565b60405180910390fd5b600073ffffffffffffffffffffffffffffffffffffffff16600360009054906101000a900473ffffffffffffffffffffffffffffffffffffffff1673ffffffffffffffffffffffffffffffffffffffff161461146c576040517f08c379a000000000000000000000000000000000000000000000000000000000815260040161146390613b56565b60405180910390fd5b80600360006101000a81548173ffffffffffffffffffffffffffffffffffffffff021916908373ffffffffffffffffffffffffffffffffffffffff16021790555050565b60008060006114bd61224c565b73ffffffffffffffffffffffffffffffffffffffff1673ffffffffffffffffffffffffffffffffffffffff16815260200190815260200160002060009054906101000a900460ff16611544576040517f08c379a000000000000000000000000000000000000000000000000000000000815260040161153b90613061565b60405180910390fd5b6000600660008473ffffffffffffffffffffffffffffffffffffffff1673ffffffffffffffffffffffffffffffffffffffff16815260200190815260200160002060009054906101000a900467ffffffffffffffff16905060008167ffffffffffffffff1660408573ffffffffffffffffffffffffffffffffffffffff16901b7f8000000000000000000000000000000000000000000000000000000000000000171790505b6001156116d95767ffffffffffffffff8267ffffffffffffffff1610611645576040517f08c379a000000000000000000000000000000000000000000000000000000000815260040161163c90613be8565b60405180910390fd5b600073ffffffffffffffffffffffffffffffffffffffff166004600083815260200190815260200160002060009054906101000a900473ffffffffffffffffffffffffffffffffffffffff1673ffffffffffffffffffffffffffffffffffffffff16146116cf576001826116b99190613c1c565b91506001816116c891906132d2565b90506116d4565b6116d9565b6115ea565b6001826116e69190613c1c565b600660008673ffffffffffffffffffffffffffffffffffffffff1673ffffffffffffffffffffffffffffffffffffffff16815260200190815260200160002060006101000a81548167ffffffffffffffff021916908367ffffffffffffffff16021790555061175361224c565b6004600083815260200190815260200160002060006101000a81548173ffffffffffffffffffffffffffffffffffffffff021916908373ffffffffffffffffffffffffffffffffffffffff1602179055508092505050919050565b6000806117b961224c565b73ffffffffffffffffffffffffffffffffffffffff1673ffffffffffffffffffffffffffffffffffffffff16815260200190815260200160002060009054906101000a900460ff16611840576040517f08c379a000000000000000000000000000000000000000000000000000000000815260040161183790613061565b60405180910390fd5b8060005b81518110156119355761185561224c565b73ffffffffffffffffffffffffffffffffffffffff16600460006005600086868151811061188657611885613c5a565b5b6020026020010151815260200190815260200160002054815260200190815260200160002060009054906101000a900473ffffffffffffffffffffffffffffffffffffffff1673ffffffffffffffffffffffffffffffffffffffff1614611922576040517f08c379a0000000000000000000000000000000000000000000000000000000008152600401611919906130f3565b60405180910390fd5b808061192d90613c89565b915050611844565b5060008251905060008167ffffffffffffffff81111561195857611957612a71565b5b6040519080825280602002602001820160405280156119865781602001602082028036833780820191505090505b50905060005b828110156119c85760018282815181106119a9576119a8613c5a565b5b60200260200101818152505080806119c090613c89565b91505061198c565b50600360009054906101000a900473ffffffffffffffffffffffffffffffffffffffff1673ffffffffffffffffffffffffffffffffffffffff16636b20c454611a0f61224c565b86846040518463ffffffff1660e01b8152600401611a2f93929190613d90565b600060405180830381600087803b158015611a4957600080fd5b505af1158015611a5d573d6000803e3d6000fd5b5050505050505050565b600080611a7261224c565b73ffffffffffffffffffffffffffffffffffffffff1673ffffffffffffffffffffffffffffffffffffffff16815260200190815260200160002060009054906101000a900460ff16611af9576040517f08c379a0000000000000000000000000000000000000000000000000000000008152600401611af090613061565b60405180910390fd5b81611b0261224c565b73ffffffffffffffffffffffffffffffffffffffff166004600083815260200190815260200160002060009054906101000a900473ffffffffffffffffffffffffffffffffffffffff1673ffffffffffffffffffffffffffffffffffffffff1614611ba2576040517f08c379a0000000000000000000000000000000000000000000000000000000008152600401611b99906130f3565b60405180910390fd5b600360009054906101000a900473ffffffffffffffffffffffffffffffffffffffff1673ffffffffffffffffffffffffffffffffffffffff1663f5298aca611be861224c565b85856040518463ffffffff1660e01b8152600401611c0893929190613dd5565b600060405180830381600087803b158015611c2257600080fd5b505af1158015611c36573d6000803e3d6000fd5b50505050505050565b60018181548110611c4f57600080fd5b906000526020600020016000915054906101000a900473ffffffffffffffffffffffffffffffffffffffff1681565b606074010000000000000000000000000000000000000000821015611d4557600260009054906101000a900473ffffffffffffffffffffffffffffffffffffffff1673ffffffffffffffffffffffffffffffffffffffff16639896c31d836040518263ffffffff1660e01b8152600401611cf89190612cde565b600060405180830381865afa158015611d15573d6000803e3d6000fd5b505050506040513d6000823e3d601f19601f82011682018060405250810190611d3e9190613ead565b9050611d9c565b7f8000000000000000000000000000000000000000000000000000000000000000821015611d9057611d8960056000848152602001908152602001600020546124f6565b9050611d9c565b611d99826124f6565b90505b919050565b60046020528060005260406000206000915054906101000a900473ffffffffffffffffffffffffffffffffffffffff1681565b600960009054906101000a900473ffffffffffffffffffffffffffffffffffffffff1681565b611e0a611e0561224c565b612605565b611e49576040517f08c379a0000000000000000000000000000000000000000000000000000000008152600401611e4090613f68565b60405180910390fd5b611e528161265f565b611e91576040517f08c379a0000000000000000000000000000000000000000000000000000000008152600401611e8890614020565b60405180910390fd5b6000808273ffffffffffffffffffffffffffffffffffffffff1673ffffffffffffffffffffffffffffffffffffffff16815260200190815260200160002060009054906101000a900460ff1615611f1d576040517f08c379a0000000000000000000000000000000000000000000000000000000008152600401611f14906140b2565b60405180910390fd5b60016000808373ffffffffffffffffffffffffffffffffffffffff1673ffffffffffffffffffffffffffffffffffffffff16815260200190815260200160002060006101000a81548160ff0219169083151502179055506001819080600181540180825580915050600190039060005260206000200160009091909190916101000a81548173ffffffffffffffffffffffffffffffffffffffff021916908373ffffffffffffffffffffffffffffffffffffffff1602179055508073ffffffffffffffffffffffffffffffffffffffff16638129fc1c6040518163ffffffff1660e01b8152600401600060405180830381600087803b15801561201f57600080fd5b505af1158015612033573d6000803e3d6000fd5b5050505050565b60008061204561224c565b73ffffffffffffffffffffffffffffffffffffffff1673ffffffffffffffffffffffffffffffffffffffff16815260200190815260200160002060009054906101000a900460ff166120cc576040517f08c379a00000000000000000000000000000000000000000000000000000000081526004016120c390613061565b60405180910390fd5b8160005b81518110156121ae576120e161224c565b73ffffffffffffffffffffffffffffffffffffffff166004600084848151811061210e5761210d613c5a565b5b6020026020010151815260200190815260200160002060009054906101000a900473ffffffffffffffffffffffffffffffffffffffff1673ffffffffffffffffffffffffffffffffffffffff161461219b576040517f08c379a0000000000000000000000000000000000000000000000000000000008152600401612192906130f3565b60405180910390fd5b80806121a690613c89565b9150506120d0565b50600360009054906101000a900473ffffffffffffffffffffffffffffffffffffffff1673ffffffffffffffffffffffffffffffffffffffff16636b20c4546121f561224c565b85856040518463ffffffff1660e01b815260040161221593929190613d90565b600060405180830381600087803b15801561222f57600080fd5b505af1158015612243573d6000803e3d6000fd5b50505050505050565b600033905090565b6000600960009054906101000a900473ffffffffffffffffffffffffffffffffffffffff1673ffffffffffffffffffffffffffffffffffffffff168273ffffffffffffffffffffffffffffffffffffffff16149050919050565b60006122f97f9b151866000000000000000000000000000000000000000000000000000000008373ffffffffffffffffffffffffffffffffffffffff1661275690919063ffffffff16565b801561239e57503073ffffffffffffffffffffffffffffffffffffffff168273ffffffffffffffffffffffffffffffffffffffff1663f200670d6040518163ffffffff1660e01b8152600401602060405180830381865afa158015612362573d6000803e3d6000fd5b505050506040513d601f19601f8201168201806040525081019061238691906140e7565b73ffffffffffffffffffffffffffffffffffffffff16145b9050919050565b6000600960009054906101000a900473ffffffffffffffffffffffffffffffffffffffff1673ffffffffffffffffffffffffffffffffffffffff168273ffffffffffffffffffffffffffffffffffffffff16149050919050565b600061244a7f37091d6e000000000000000000000000000000000000000000000000000000008373ffffffffffffffffffffffffffffffffffffffff1661275690919063ffffffff16565b80156124ef57503073ffffffffffffffffffffffffffffffffffffffff168273ffffffffffffffffffffffffffffffffffffffff1663f200670d6040518163ffffffff1660e01b8152600401602060405180830381865afa1580156124b3573d6000803e3d6000fd5b505050506040513d601f19601f820116820180604052508101906124d791906140e7565b73ffffffffffffffffffffffffffffffffffffffff16145b9050919050565b606060006004600084815260200190815260200160002060009054906101000a900473ffffffffffffffffffffffffffffffffffffffff169050600073ffffffffffffffffffffffffffffffffffffffff168173ffffffffffffffffffffffffffffffffffffffff16141561257d5760405180602001604052806000815250915050612600565b8073ffffffffffffffffffffffffffffffffffffffff16630e89341c846040518263ffffffff1660e01b81526004016125b69190612c1a565b600060405180830381865afa1580156125d3573d6000803e3d6000fd5b505050506040513d6000823e3d601f19601f820116820180604052508101906125fc9190613ead565b9150505b919050565b6000600960009054906101000a900473ffffffffffffffffffffffffffffffffffffffff1673ffffffffffffffffffffffffffffffffffffffff168273ffffffffffffffffffffffffffffffffffffffff16149050919050565b60006126aa7f08267719000000000000000000000000000000000000000000000000000000008373ffffffffffffffffffffffffffffffffffffffff1661275690919063ffffffff16565b801561274f57503073ffffffffffffffffffffffffffffffffffffffff168273ffffffffffffffffffffffffffffffffffffffff1663f200670d6040518163ffffffff1660e01b8152600401602060405180830381865afa158015612713573d6000803e3d6000fd5b505050506040513d601f19601f8201168201806040525081019061273791906140e7565b73ffffffffffffffffffffffffffffffffffffffff16145b9050919050565b60006127618361277b565b8015612773575061277283836127c8565b5b905092915050565b60006127a7827f01ffc9a7000000000000000000000000000000000000000000000000000000006127c8565b80156127c157506127bf8263ffffffff60e01b6127c8565b155b9050919050565b6000806301ffc9a760e01b836040516024016127e49190614123565b604051602081830303815290604052907bffffffffffffffffffffffffffffffffffffffffffffffffffffffff19166020820180517bffffffffffffffffffffffffffffffffffffffffffffffffffffffff838183161783525050505090506000808573ffffffffffffffffffffffffffffffffffffffff166175308460405161286e919061417a565b6000604051808303818686fa925050503d80600081146128aa576040519150601f19603f3d011682016040523d82523d6000602084013e6128af565b606091505b50915091506020815110156128ca57600093505050506128ed565b8180156128e75750808060200190518101906128e691906141bd565b5b93505050505b92915050565b6000604051905090565b600080fd5b600080fd5b60007fffffffff0000000000000000000000000000000000000000000000000000000082169050919050565b61293c81612907565b811461294757600080fd5b50565b60008135905061295981612933565b92915050565b600060208284031215612975576129746128fd565b5b60006129838482850161294a565b91505092915050565b60008115159050919050565b6129a18161298c565b82525050565b60006020820190506129bc6000830184612998565b92915050565b600073ffffffffffffffffffffffffffffffffffffffff82169050919050565b60006129ed826129c2565b9050919050565b6129fd816129e2565b8114612a0857600080fd5b50565b600081359050612a1a816129f4565b92915050565b6000819050919050565b612a3381612a20565b8114612a3e57600080fd5b50565b600081359050612a5081612a2a565b92915050565b600080fd5b600080fd5b6000601f19601f8301169050919050565b7f4e487b7100000000000000000000000000000000000000000000000000000000600052604160045260246000fd5b612aa982612a60565b810181811067ffffffffffffffff82111715612ac857612ac7612a71565b5b80604052505050565b6000612adb6128f3565b9050612ae78282612aa0565b919050565b600067ffffffffffffffff821115612b0757612b06612a71565b5b612b1082612a60565b9050602081019050919050565b82818337600083830152505050565b6000612b3f612b3a84612aec565b612ad1565b905082815260208101848484011115612b5b57612b5a612a5b565b5b612b66848285612b1d565b509392505050565b600082601f830112612b8357612b82612a56565b5b8135612b93848260208601612b2c565b91505092915050565b600080600060608486031215612bb557612bb46128fd565b5b6000612bc386828701612a0b565b9350506020612bd486828701612a41565b925050604084013567ffffffffffffffff811115612bf557612bf4612902565b5b612c0186828701612b6e565b9150509250925092565b612c1481612a20565b82525050565b6000602082019050612c2f6000830184612c0b565b92915050565b60008060408385031215612c4c57612c4b6128fd565b5b6000612c5a85828601612a0b565b9250506020612c6b85828601612a0b565b9150509250929050565b600060208284031215612c8b57612c8a6128fd565b5b6000612c9984828501612a41565b91505092915050565b600060208284031215612cb857612cb76128fd565b5b6000612cc684828501612a0b565b91505092915050565b612cd8816129e2565b82525050565b6000602082019050612cf36000830184612ccf565b92915050565b60008060008060808587031215612d1357612d126128fd565b5b6000612d2187828801612a0b565b9450506020612d3287828801612a41565b9350506040612d4387828801612a41565b925050606085013567ffffffffffffffff811115612d6457612d63612902565b5b612d7087828801612b6e565b91505092959194509250565b600067ffffffffffffffff821115612d9757612d96612a71565b5b602082029050602081019050919050565b600080fd5b6000612dc0612dbb84612d7c565b612ad1565b90508083825260208201905060208402830185811115612de357612de2612da8565b5b835b81811015612e0c5780612df88882612a41565b845260208401935050602081019050612de5565b5050509392505050565b600082601f830112612e2b57612e2a612a56565b5b8135612e3b848260208601612dad565b91505092915050565b600060208284031215612e5a57612e596128fd565b5b600082013567ffffffffffffffff811115612e7857612e77612902565b5b612e8484828501612e16565b91505092915050565b60008060408385031215612ea457612ea36128fd565b5b6000612eb285828601612a41565b9250506020612ec385828601612a41565b9150509250929050565b600081519050919050565b600082825260208201905092915050565b60005b83811015612f07578082015181840152602081019050612eec565b83811115612f16576000848401525b50505050565b6000612f2782612ecd565b612f318185612ed8565b9350612f41818560208601612ee9565b612f4a81612a60565b840191505092915050565b60006020820190508181036000830152612f6f8184612f1c565b905092915050565b60008060408385031215612f8e57612f8d6128fd565b5b600083013567ffffffffffffffff811115612fac57612fab612902565b5b612fb885828601612e16565b925050602083013567ffffffffffffffff811115612fd957612fd8612902565b5b612fe585828601612e16565b9150509250929050565b7f4d65746176657273653a207468652073656e646572206d75737420626520612060008201527f706c75672d696e00000000000000000000000000000000000000000000000000602082015250565b600061304b602783612ed8565b915061305682612fef565b604082019050919050565b6000602082019050818103600083015261307a8161303e565b9050919050565b7f4d65746176657273653a206e6f7420612074797065207265676973746572656460008201527f206279207468697320706c75672d696e00000000000000000000000000000000602082015250565b60006130dd603083612ed8565b91506130e882613081565b604082019050919050565b6000602082019050818103600083015261310c816130d0565b9050919050565b7f4d65746176657273653a20746865207370656369666965642076616c7565206960008201527f73206e6f7420696e20746865206e66742072616e676500000000000000000000602082015250565b600061316f603683612ed8565b915061317a82613113565b604082019050919050565b6000602082019050818103600083015261319e81613162565b9050919050565b7f4d65746176657273653a204e465420747970657320302028696e76616c69642960008201527f20616e64203120286272616e64292063616e6e6f74206265206d696e74656400602082015250565b6000613201603f83612ed8565b915061320c826131a5565b604082019050919050565b60006020820190508181036000830152613230816131f4565b9050919050565b7f4d65746176657273653a2063616e6e6f74206d696e74206d6f7265204e465473600082015250565b600061326d602083612ed8565b915061327882613237565b602082019050919050565b6000602082019050818103600083015261329c81613260565b9050919050565b7f4e487b7100000000000000000000000000000000000000000000000000000000600052601160045260246000fd5b60006132dd82612a20565b91506132e883612a20565b9250827fffffffffffffffffffffffffffffffffffffffffffffffffffffffffffffffff0382111561331d5761331c6132a3565b5b828201905092915050565b6000819050919050565b6000819050919050565b600061335761335261334d84613328565b613332565b612a20565b9050919050565b6133678161333c565b82525050565b600081519050919050565b600082825260208201905092915050565b60006133948261336d565b61339e8185613378565b93506133ae818560208601612ee9565b6133b781612a60565b840191505092915050565b60006080820190506133d76000830187612ccf565b6133e46020830186612c0b565b6133f1604083018561335e565b81810360608301526134038184613389565b905095945050505050565b7f4d65746176657273653a20746865206f6e6c7920616c6c6f7765642073656e6460008201527f657220697320746865206272616e642072656769737472790000000000000000602082015250565b600061346a603883612ed8565b91506134758261340e565b604082019050919050565b600060208201905081810360008301526134998161345d565b9050919050565b7f4d65746176657273653a204d696e74696e672061206272616e64000000000000600082015250565b60006134d6601a83613378565b91506134e1826134a0565b602082019050919050565b60006080820190506135016000830186612ccf565b61350e6020830185612c0b565b61351b604083018461335e565b818103606083015261352c816134c9565b9050949350505050565b600060608201905061354b6000830186612ccf565b6135586020830185612c0b565b613565604083018461335e565b949350505050565b7f4d65746176657273653a2063616e6e6f7420646566696e65206d6f7265204e4660008201527f5420747970657300000000000000000000000000000000000000000000000000602082015250565b60006135c9602783612ed8565b91506135d48261356d565b604082019050919050565b600060208201905081810360008301526135f8816135bc565b9050919050565b7f4d65746176657273653a20746865206f6e6c7920616c6c6f7765642073656e6460008201527f6572206973207468652065636f6e6f6d792073797374656d0000000000000000602082015250565b600061365b603883612ed8565b9150613666826135ff565b604082019050919050565b6000602082019050818103600083015261368a8161364e565b9050919050565b60006040820190506136a66000830185612ccf565b6136b36020830184612ccf565b9392505050565b7f4d65746176657273653a20746865207370656369666965642076616c7565206960008201527f73206e6f7420696e207468652066756e6769626c6520746f6b656e732072616e60208201527f6765000000000000000000000000000000000000000000000000000000000000604082015250565b600061373c604283612ed8565b9150613747826136ba565b606082019050919050565b6000602082019050818103600083015261376b8161372f565b9050919050565b60006080820190506137876000830187612ccf565b6137946020830186612c0b565b6137a16040830185612c0b565b81810360608301526137b38184613389565b905095945050505050565b7f4d65746176657273653a207468652073656e646572206973206e6f7420616c6c60008201527f6f77656420746f207365742074686520706c75672d696e000000000000000000602082015250565b600061381a603783612ed8565b9150613825826137be565b604082019050919050565b600060208201905081810360008301526138498161380d565b9050919050565b7f4d65746176657273653a20746865206164647265737320646f6573206e6f742060008201527f62656c6f6e6720746f20612076616c6964206272616e6420726567697374727960208201527f20636f6e747261637420666f722074686973206d657461766572736500000000604082015250565b60006138d2605c83612ed8565b91506138dd82613850565b606082019050919050565b60006020820190508181036000830152613901816138c5565b9050919050565b7f4d65746176657273653a2061206272616e64207265676973747279206973206160008201527f6c72656164792073657420696e746f2074686973206d65746176657273650000602082015250565b6000613964603e83612ed8565b915061396f82613908565b604082019050919050565b6000602082019050818103600083015261399381613957565b9050919050565b7f4d65746176657273653a207468652073656e646572206973206e6f7420616c6c60008201527f6f77656420746f20736574207468652065636f6e6f6d79000000000000000000602082015250565b60006139f6603783612ed8565b9150613a018261399a565b604082019050919050565b60006020820190508181036000830152613a25816139e9565b9050919050565b7f4d65746176657273653a20746865206164647265737320646f6573206e6f742060008201527f62656c6f6e6720746f20612076616c69642065636f6e6f6d7920636f6e74726160208201527f637420666f722074686973206d65746176657273650000000000000000000000604082015250565b6000613aae605583612ed8565b9150613ab982613a2c565b606082019050919050565b60006020820190508181036000830152613add81613aa1565b9050919050565b7f4d65746176657273653a20616e2065636f6e6f6d7920697320616c726561647960008201527f2073657420696e746f2074686973206d65746176657273650000000000000000602082015250565b6000613b40603883612ed8565b9150613b4b82613ae4565b604082019050919050565b60006020820190508181036000830152613b6f81613b33565b9050919050565b7f4d65746176657273653a2063616e6e6f7420646566696e65206d6f726520465460008201527f20747970657320666f7220746869732061646472657373000000000000000000602082015250565b6000613bd2603783612ed8565b9150613bdd82613b76565b604082019050919050565b60006020820190508181036000830152613c0181613bc5565b9050919050565b600067ffffffffffffffff82169050919050565b6000613c2782613c08565b9150613c3283613c08565b92508267ffffffffffffffff03821115613c4f57613c4e6132a3565b5b828201905092915050565b7f4e487b7100000000000000000000000000000000000000000000000000000000600052603260045260246000fd5b6000613c9482612a20565b91507fffffffffffffffffffffffffffffffffffffffffffffffffffffffffffffffff821415613cc757613cc66132a3565b5b600182019050919050565b600081519050919050565b600082825260208201905092915050565b6000819050602082019050919050565b613d0781612a20565b82525050565b6000613d198383613cfe565b60208301905092915050565b6000602082019050919050565b6000613d3d82613cd2565b613d478185613cdd565b9350613d5283613cee565b8060005b83811015613d83578151613d6a8882613d0d565b9750613d7583613d25565b925050600181019050613d56565b5085935050505092915050565b6000606082019050613da56000830186612ccf565b8181036020830152613db78185613d32565b90508181036040830152613dcb8184613d32565b9050949350505050565b6000606082019050613dea6000830186612ccf565b613df76020830185612c0b565b613e046040830184612c0b565b949350505050565b600067ffffffffffffffff821115613e2757613e26612a71565b5b613e3082612a60565b9050602081019050919050565b6000613e50613e4b84613e0c565b612ad1565b905082815260208101848484011115613e6c57613e6b612a5b565b5b613e77848285612ee9565b509392505050565b600082601f830112613e9457613e93612a56565b5b8151613ea4848260208601613e3d565b91505092915050565b600060208284031215613ec357613ec26128fd565b5b600082015167ffffffffffffffff811115613ee157613ee0612902565b5b613eed84828501613e7f565b91505092915050565b7f4d65746176657273653a207468652073656e646572206973206e6f7420616c6c60008201527f6f77656420746f20616464206120706c75672d696e0000000000000000000000602082015250565b6000613f52603583612ed8565b9150613f5d82613ef6565b604082019050919050565b60006020820190508181036000830152613f8181613f45565b9050919050565b7f4d65746176657273653a20746865206164647265737320646f6573206e6f742060008201527f62656c6f6e6720746f20612076616c696420706c75672d696e20636f6e74726160208201527f637420666f722074686973206d65746176657273650000000000000000000000604082015250565b600061400a605583612ed8565b915061401582613f88565b606082019050919050565b6000602082019050818103600083015261403981613ffd565b9050919050565b7f4d65746176657273653a2074686520706c75672d696e20697320616c7265616460008201527f7920616464656420746f2074686973206d657461766572736500000000000000602082015250565b600061409c603983612ed8565b91506140a782614040565b604082019050919050565b600060208201905081810360008301526140cb8161408f565b9050919050565b6000815190506140e1816129f4565b92915050565b6000602082840312156140fd576140fc6128fd565b5b600061410b848285016140d2565b91505092915050565b61411d81612907565b82525050565b60006020820190506141386000830184614114565b92915050565b600081905092915050565b60006141548261336d565b61415e818561413e565b935061416e818560208601612ee9565b80840191505092915050565b60006141868284614149565b915081905092915050565b61419a8161298c565b81146141a557600080fd5b50565b6000815190506141b781614191565b92915050565b6000602082840312156141d3576141d26128fd565b5b60006141e1848285016141a8565b9150509291505056fea26469706673582212205f2cd2ade0b0cf47075f7250cfdc93f6b47590f6359eaf54a17ee06c784c484664736f6c634300080a0033",
  "immutableReferences": {},
  "source": "// SPDX-License-Identifier: MIT\npragma solidity >=0.8 <0.9.0;\n\nimport \"../Metaverse.sol\";\n\ncontract SampleMetaverse is Metaverse {\n    /**\n     * The deployer of this metaverse.\n     */\n    address public deployer;\n\n    constructor() {\n        deployer = _msgSender();\n    }\n\n    /**\n     * Adding the plug-ins is only allowed to the deployer.\n     */\n    function _canAddPlugin(address _sender) internal view override returns (bool) {\n        return _sender == deployer;\n    }\n\n    /**\n     * Setting the brand registry is only allowed to the deployer.\n     */\n    function _canSetBrandRegistry(address _sender) internal view override returns (bool) {\n        return _sender == deployer;\n    }\n\n    /**\n     * Setting the economy system is only allowed to the deployer.\n     */\n    function _canSetEconomy(address _sender) internal view override returns (bool) {\n        return _sender == deployer;\n    }\n}\n",
  "sourcePath": "/home/luismasuelli/Projects/OuterMaze/lingr-contracts/contracts/lingr/samples/SampleMetaverse.sol",
  "compiler": {
    "name": "solc",
    "version": "0.8.10+commit.fc410830.Emscripten.clang"
  },
  "schemaVersion": "3.4.3",
  "updatedAt": "2022-08-11T21:36:32.042Z",
  "devdoc": {
    "kind": "dev",
    "methods": {},
    "version": 1
  },
  "userdoc": {
    "kind": "user",
    "methods": {
      "addPlugin(address)": {
        "notice": "Adds a plug-in contract to this metaverse."
      },
      "brandRegistry()": {
        "notice": "The linked brand registry for this metaverse."
      },
      "burnFT(uint256,uint256)": {
        "notice": "Burns any FT the sender has, provided the sender is a plugin and also defines the type of the token being burned."
      },
      "burnFTs(uint256[],uint256[])": {
        "notice": "Burns many FT the sender has, provided the sender is a plugin and also defines the type of the token being burned."
      },
      "burnNFT(uint256)": {
        "notice": "Burns any NFT the sender has, provided the sender is a plugin and also defines the type of the tokens being burned."
      },
      "burnNFTs(uint256[])": {
        "notice": "Burns many NFT the sender has, provided the sender is a plugin and also defines the type of the tokens being burned."
      },
      "defineNextFTType(address)": {
        "notice": "Defines the resolution of a fungible token type. The token id must be in the range of the fungible token ids."
      },
      "defineNextNFTType()": {
        "notice": "Defines the resolution of a non-fungible token type. The token id must be in the range of the fungible token (type) ids (strictly > 0, strictly < (1 << 255))."
      },
      "deployer()": {
        "notice": "The deployer of this metaverse."
      },
      "economy()": {
        "notice": "The linked economy for this metaverse."
      },
      "mintBrandFor(address,address)": {
        "notice": "Mints a specific brand token for a given user. The brand is stated as its address."
      },
      "mintFTFor(address,uint256,uint256,bytes)": {
        "notice": "Mints a specific fungible token type, in a certain amount."
      },
      "mintNFTFor(address,uint256,bytes)": {
        "notice": "Mints a specific non-fungible token type, using a specific type (and always using an amount of 1). It is an error if the chosen type is unknown or < 2, since those types are reserved for being invalid or brands. Also, it is an error if the chosen type is not for that plug-in."
      },
      "nftTypes(uint256)": {
        "notice": "Now, each NFT id will be registered here along its token type. The difference with the fungible tokens (they're already registered in the `tokenTypes` mapping) is that they need to be registered with a particular token type. Also, both the NFT id and its associated token type will be lower than (1<<255) since, otherwise, they would be using values corresponding to the FT side (both for IDs and type indices). Brand NFTs are not included in this mapping (they are only characterized by being < (1 << 160))."
      },
      "onBrandOwnerChanged(address,address)": {
        "notice": "Hook to be invoked as part of a transfer from ERC1155."
      },
      "plugins(address)": {
        "notice": "This is the list of plug-ins that are being added to the hub. Each contract has its separate logic but they have access to the same set of features. Once a contract is added, it will never be removed from this list. This mapping tells whether a contract in particular has permission(s) to define a type and mint tokens for an address."
      },
      "pluginsCount()": {
        "notice": "This is the count of registered plug-ins."
      },
      "pluginsList(uint256)": {
        "notice": "This is the enumerable list of plug-ins added to this hub."
      },
      "setBrandRegistry(address)": {
        "notice": "Adds a plug-in contract to this metaverse."
      },
      "setEconomy(address)": {
        "notice": "Set the economy contract to this metaverse."
      },
      "supportsInterface(bytes4)": {
        "notice": "A metaverse satisfies the IMetaverse and IERC165 interfaces."
      },
      "tokenTypeResolvers(uint256)": {
        "notice": "Types are identified as integer values, and each registered type will have a non-zero responsible address (serving to metadata resolution and also to account for the existence of a given type). The type 1 (0x1) will be the first type, and actually it will be the brand type. Other NFT types will be registered using indices lower to (1<<255), while FT types will be registered using indices greater than or equal to that value (i.e. starting with binary {1}). In the case of the FTs, the index in this mapping is also their token id. This is not the same for NFTs (they have one extra level of indirection since multiple ids might share the same type). A special type id will be regarded as invalid type (i.e. it will not count as NFT nor FT type, but as a non-existent type): 0 (0x0). The responsible serves two purposes: The first one, is to resolve the metadata of a given token id (be it FT or NFT). The second one is to account for one of such tokens being burned. The responsible will actually be one of the registered plug-ins, on each case (save for the brands case, which is resolved by this contract, and the invalid case, which has no resolver)."
      },
      "tokenURI(uint256)": {
        "notice": "Retrieves the metadata uri of a given token. WARNING: This method will consume a lot of gas if invoked inside a transaction, so it is recommended to invoke this method in the context of a CALL, and never in the context of a SEND (even as part of other contract's code)."
      }
    },
    "version": 1
  }
}