{
  "contractName": "SampleMetaverse",
  "abi": [
    {
      "inputs": [],
      "stateMutability": "nonpayable",
      "type": "constructor"
    },
    {
      "inputs": [
        {
          "internalType": "address",
          "name": "_contract",
          "type": "address"
        }
      ],
      "name": "addPlugin",
      "outputs": [],
      "stateMutability": "nonpayable",
      "type": "function"
    },
    {
      "inputs": [],
      "name": "brandRegistry",
      "outputs": [
        {
          "internalType": "address",
          "name": "",
          "type": "address"
        }
      ],
      "stateMutability": "view",
      "type": "function"
    },
    {
      "inputs": [
        {
          "internalType": "address",
          "name": "_brandId",
          "type": "address"
        }
      ],
      "name": "defineNextFTType",
      "outputs": [
        {
          "internalType": "uint256",
          "name": "",
          "type": "uint256"
        }
      ],
      "stateMutability": "nonpayable",
      "type": "function"
    },
    {
      "inputs": [],
      "name": "defineNextNFTType",
      "outputs": [
        {
          "internalType": "uint256",
          "name": "",
          "type": "uint256"
        }
      ],
      "stateMutability": "nonpayable",
      "type": "function"
    },
    {
      "inputs": [],
      "name": "deployer",
      "outputs": [
        {
          "internalType": "address",
          "name": "",
          "type": "address"
        }
      ],
      "stateMutability": "view",
      "type": "function"
    },
    {
      "inputs": [],
      "name": "economy",
      "outputs": [
        {
          "internalType": "address",
          "name": "",
          "type": "address"
        }
      ],
      "stateMutability": "view",
      "type": "function"
    },
    {
      "inputs": [
        {
          "internalType": "address",
          "name": "_to",
          "type": "address"
        },
        {
          "internalType": "address",
          "name": "_brandId",
          "type": "address"
        }
      ],
      "name": "mintBrandFor",
      "outputs": [],
      "stateMutability": "nonpayable",
      "type": "function"
    },
    {
      "inputs": [
        {
          "internalType": "address",
          "name": "_to",
          "type": "address"
        },
        {
          "internalType": "uint256",
          "name": "_tokenId",
          "type": "uint256"
        },
        {
          "internalType": "uint256",
          "name": "_amount",
          "type": "uint256"
        },
        {
          "internalType": "bytes",
          "name": "_data",
          "type": "bytes"
        }
      ],
      "name": "mintFTFor",
      "outputs": [],
      "stateMutability": "nonpayable",
      "type": "function"
    },
    {
      "inputs": [
        {
          "internalType": "address",
          "name": "_to",
          "type": "address"
        },
        {
          "internalType": "uint256",
          "name": "_tokenId",
          "type": "uint256"
        },
        {
          "internalType": "uint256",
          "name": "_tokenType",
          "type": "uint256"
        },
        {
          "internalType": "bytes",
          "name": "_data",
          "type": "bytes"
        }
      ],
      "name": "mintNFTFor",
      "outputs": [],
      "stateMutability": "nonpayable",
      "type": "function"
    },
    {
      "inputs": [
        {
          "internalType": "uint256",
          "name": "",
          "type": "uint256"
        }
      ],
      "name": "nftTypes",
      "outputs": [
        {
          "internalType": "uint256",
          "name": "",
          "type": "uint256"
        }
      ],
      "stateMutability": "view",
      "type": "function"
    },
    {
      "inputs": [
        {
          "internalType": "address",
          "name": "_brandId",
          "type": "address"
        },
        {
          "internalType": "address",
          "name": "_newOwner",
          "type": "address"
        }
      ],
      "name": "onBrandOwnerChanged",
      "outputs": [],
      "stateMutability": "nonpayable",
      "type": "function"
    },
    {
      "inputs": [
        {
          "internalType": "address",
          "name": "_from",
          "type": "address"
        },
        {
          "internalType": "uint256",
          "name": "_tokenId",
          "type": "uint256"
        },
        {
          "internalType": "uint256",
          "name": "_amount",
          "type": "uint256"
        }
      ],
      "name": "onTokenBurned",
      "outputs": [],
      "stateMutability": "nonpayable",
      "type": "function"
    },
    {
      "inputs": [
        {
          "internalType": "address",
          "name": "_from",
          "type": "address"
        },
        {
          "internalType": "uint256[]",
          "name": "_tokenIds",
          "type": "uint256[]"
        },
        {
          "internalType": "uint256[]",
          "name": "_amounts",
          "type": "uint256[]"
        }
      ],
      "name": "onTokensBurned",
      "outputs": [],
      "stateMutability": "nonpayable",
      "type": "function"
    },
    {
      "inputs": [
        {
          "internalType": "address",
          "name": "",
          "type": "address"
        }
      ],
      "name": "plugins",
      "outputs": [
        {
          "internalType": "bool",
          "name": "",
          "type": "bool"
        }
      ],
      "stateMutability": "view",
      "type": "function"
    },
    {
      "inputs": [
        {
          "internalType": "address",
          "name": "_contract",
          "type": "address"
        }
      ],
      "name": "setBrandRegistry",
      "outputs": [],
      "stateMutability": "nonpayable",
      "type": "function"
    },
    {
      "inputs": [
        {
          "internalType": "address",
          "name": "_contract",
          "type": "address"
        }
      ],
      "name": "setEconomy",
      "outputs": [],
      "stateMutability": "nonpayable",
      "type": "function"
    },
    {
      "inputs": [
        {
          "internalType": "bytes4",
          "name": "interfaceId",
          "type": "bytes4"
        }
      ],
      "name": "supportsInterface",
      "outputs": [
        {
          "internalType": "bool",
          "name": "",
          "type": "bool"
        }
      ],
      "stateMutability": "view",
      "type": "function"
    },
    {
      "inputs": [
        {
          "internalType": "uint256",
          "name": "",
          "type": "uint256"
        }
      ],
      "name": "tokenTypeResolvers",
      "outputs": [
        {
          "internalType": "address",
          "name": "",
          "type": "address"
        }
      ],
      "stateMutability": "view",
      "type": "function"
    },
    {
      "inputs": [
        {
          "internalType": "uint256",
          "name": "_tokenId",
          "type": "uint256"
        }
      ],
      "name": "tokenURI",
      "outputs": [
        {
          "internalType": "string",
          "name": "",
          "type": "string"
        }
      ],
      "stateMutability": "view",
      "type": "function"
    }
  ],
  "bytecode": "0x6080604052740100000000000000000000000000000000000000006006553480156200002a57600080fd5b506200003b6200008160201b60201c565b600760006101000a81548173ffffffffffffffffffffffffffffffffffffffff021916908373ffffffffffffffffffffffffffffffffffffffff16021790555062000089565b600033905090565b613a5c80620000996000396000f3fe608060405234801561001057600080fd5b50600436106101215760003560e01c80638cd6e9a9116100ad578063b842aa9211610071578063b842aa92146102f0578063c87b56dd14610320578063d053bfa114610350578063d5f3948814610380578063d8867fc81461039e57610121565b80638cd6e9a914610264578063a16bc2ae14610280578063acb8a0601461029c578063ad8509b0146102b8578063b2863cc1146102d457610121565b80634b12e643116100f45780634b12e643146101aa578063556112d4146101da5780635b1798e4146101f857806379b2ab23146102165780638820f6bd1461024657610121565b806301ffc9a71461012657806306716519146101565780631b5dc598146101725780632320a8b71461018e575b600080fd5b610140600480360381019061013b91906122af565b6103ba565b60405161014d91906122f7565b60405180910390f35b610170600480360381019061016b91906123a6565b61048c565b005b61018c600480360381019061018791906123f9565b610533565b005b6101a860048036038101906101a39190612592565b610676565b005b6101c460048036038101906101bf919061261d565b610777565b6040516101d191906122f7565b60405180910390f35b6101e2610797565b6040516101ef9190612659565b60405180910390f35b61020061099a565b60405161020d9190612683565b60405180910390f35b610230600480360381019061022b919061269e565b6109c0565b60405161023d9190612659565b60405180910390f35b61024e6109d8565b60405161025b9190612683565b60405180910390f35b61027e600480360381019061027991906123f9565b6109fe565b005b61029a60048036038101906102959190612780565b610b28565b005b6102b660048036038101906102b1919061261d565b610d5d565b005b6102d260048036038101906102cd919061261d565b610ec9565b005b6102ee60048036038101906102e99190612780565b611035565b005b61030a6004803603810190610305919061261d565b611394565b6040516103179190612659565b60405180910390f35b61033a6004803603810190610335919061269e565b611692565b604051610347919061288b565b60405180910390f35b61036a6004803603810190610365919061269e565b6117b5565b6040516103779190612683565b60405180910390f35b6103886117e8565b6040516103959190612683565b60405180910390f35b6103b860048036038101906103b3919061261d565b61180e565b005b60007f01ffc9a7000000000000000000000000000000000000000000000000000000007bffffffffffffffffffffffffffffffffffffffffffffffffffffffff1916827bffffffffffffffffffffffffffffffffffffffffffffffffffffffff1916148061048557507f1c4a7971000000000000000000000000000000000000000000000000000000007bffffffffffffffffffffffffffffffffffffffffffffffffffffffff1916827bffffffffffffffffffffffffffffffffffffffffffffffffffffffff1916145b9050919050565b600260009054906101000a900473ffffffffffffffffffffffffffffffffffffffff1673ffffffffffffffffffffffffffffffffffffffff166104cd6119eb565b73ffffffffffffffffffffffffffffffffffffffff1614610523576040517f08c379a000000000000000000000000000000000000000000000000000000000815260040161051a9061291f565b60405180910390fd5b61052e8383836119f3565b505050565b600160009054906101000a900473ffffffffffffffffffffffffffffffffffffffff1673ffffffffffffffffffffffffffffffffffffffff166105746119eb565b73ffffffffffffffffffffffffffffffffffffffff16146105ca576040517f08c379a00000000000000000000000000000000000000000000000000000000081526004016105c1906129b1565b60405180910390fd5b600260009054906101000a900473ffffffffffffffffffffffffffffffffffffffff1673ffffffffffffffffffffffffffffffffffffffff16635b0034fd838373ffffffffffffffffffffffffffffffffffffffff1660016040518463ffffffff1660e01b815260040161064093929190612a73565b600060405180830381600087803b15801561065a57600080fd5b505af115801561066e573d6000803e3d6000fd5b505050505050565b600260009054906101000a900473ffffffffffffffffffffffffffffffffffffffff1673ffffffffffffffffffffffffffffffffffffffff166106b76119eb565b73ffffffffffffffffffffffffffffffffffffffff161461070d576040517f08c379a00000000000000000000000000000000000000000000000000000000081526004016107049061291f565b60405180910390fd5b60008251905060005b818110156107705761075d8585838151811061073557610734612abd565b5b60200260200101518584815181106107505761074f612abd565b5b60200260200101516119f3565b808061076890612b1b565b915050610716565b5050505050565b60006020528060005260406000206000915054906101000a900460ff1681565b60008060006107a46119eb565b73ffffffffffffffffffffffffffffffffffffffff1673ffffffffffffffffffffffffffffffffffffffff16815260200190815260200160002060009054906101000a900460ff1661082b576040517f08c379a000000000000000000000000000000000000000000000000000000000815260040161082290612bd6565b60405180910390fd5b6000600654905060007f7fffffffffffffffffffffffffffffffffffffffffffffffffffffffffffffff90505b600115610926578082106108a1576040517f08c379a000000000000000000000000000000000000000000000000000000000815260040161089890612c68565b60405180910390fd5b600073ffffffffffffffffffffffffffffffffffffffff166003600084815260200190815260200160002060009054906101000a900473ffffffffffffffffffffffffffffffffffffffff1673ffffffffffffffffffffffffffffffffffffffff161461091c576001826109159190612c88565b9150610921565b610926565b610858565b6001826109339190612c88565b6006819055506109416119eb565b6003600084815260200190815260200160002060006101000a81548173ffffffffffffffffffffffffffffffffffffffff021916908373ffffffffffffffffffffffffffffffffffffffff160217905550819250505090565b600160009054906101000a900473ffffffffffffffffffffffffffffffffffffffff1681565b60046020528060005260406000206000915090505481565b600260009054906101000a900473ffffffffffffffffffffffffffffffffffffffff1681565b600260009054906101000a900473ffffffffffffffffffffffffffffffffffffffff1673ffffffffffffffffffffffffffffffffffffffff16610a3f6119eb565b73ffffffffffffffffffffffffffffffffffffffff1614610a95576040517f08c379a0000000000000000000000000000000000000000000000000000000008152600401610a8c9061291f565b60405180910390fd5b600160009054906101000a900473ffffffffffffffffffffffffffffffffffffffff1673ffffffffffffffffffffffffffffffffffffffff16638cd6e9a983836040518363ffffffff1660e01b8152600401610af2929190612cde565b600060405180830381600087803b158015610b0c57600080fd5b505af1158015610b20573d6000803e3d6000fd5b505050505050565b600080610b336119eb565b73ffffffffffffffffffffffffffffffffffffffff1673ffffffffffffffffffffffffffffffffffffffff16815260200190815260200160002060009054906101000a900460ff16610bba576040517f08c379a0000000000000000000000000000000000000000000000000000000008152600401610bb190612bd6565b60405180910390fd5b82600073ffffffffffffffffffffffffffffffffffffffff166003600083815260200190815260200160002060009054906101000a900473ffffffffffffffffffffffffffffffffffffffff1673ffffffffffffffffffffffffffffffffffffffff161415610c5e576040517f08c379a0000000000000000000000000000000000000000000000000000000008152600401610c5590612d79565b60405180910390fd5b837f8000000000000000000000000000000000000000000000000000000000000000811015610cc2576040517f08c379a0000000000000000000000000000000000000000000000000000000008152600401610cb990612e31565b60405180910390fd5b600260009054906101000a900473ffffffffffffffffffffffffffffffffffffffff1673ffffffffffffffffffffffffffffffffffffffff16635b0034fd878787876040518563ffffffff1660e01b8152600401610d239493929190612e95565b600060405180830381600087803b158015610d3d57600080fd5b505af1158015610d51573d6000803e3d6000fd5b50505050505050505050565b610d6d610d686119eb565b611ba4565b610dac576040517f08c379a0000000000000000000000000000000000000000000000000000000008152600401610da390612f53565b60405180910390fd5b610db581611bfe565b610df4576040517f08c379a0000000000000000000000000000000000000000000000000000000008152600401610deb9061300b565b60405180910390fd5b600073ffffffffffffffffffffffffffffffffffffffff16600160009054906101000a900473ffffffffffffffffffffffffffffffffffffffff1673ffffffffffffffffffffffffffffffffffffffff1614610e85576040517f08c379a0000000000000000000000000000000000000000000000000000000008152600401610e7c9061309d565b60405180910390fd5b80600160006101000a81548173ffffffffffffffffffffffffffffffffffffffff021916908373ffffffffffffffffffffffffffffffffffffffff16021790555050565b610ed9610ed46119eb565b611cf5565b610f18576040517f08c379a0000000000000000000000000000000000000000000000000000000008152600401610f0f9061312f565b60405180910390fd5b610f2181611d4f565b610f60576040517f08c379a0000000000000000000000000000000000000000000000000000000008152600401610f57906131e7565b60405180910390fd5b600073ffffffffffffffffffffffffffffffffffffffff16600260009054906101000a900473ffffffffffffffffffffffffffffffffffffffff1673ffffffffffffffffffffffffffffffffffffffff1614610ff1576040517f08c379a0000000000000000000000000000000000000000000000000000000008152600401610fe890613279565b60405180910390fd5b80600260006101000a81548173ffffffffffffffffffffffffffffffffffffffff021916908373ffffffffffffffffffffffffffffffffffffffff16021790555050565b6000806110406119eb565b73ffffffffffffffffffffffffffffffffffffffff1673ffffffffffffffffffffffffffffffffffffffff16815260200190815260200160002060009054906101000a900460ff166110c7576040517f08c379a00000000000000000000000000000000000000000000000000000000081526004016110be90612bd6565b60405180910390fd5b81600073ffffffffffffffffffffffffffffffffffffffff166003600083815260200190815260200160002060009054906101000a900473ffffffffffffffffffffffffffffffffffffffff1673ffffffffffffffffffffffffffffffffffffffff16141561116b576040517f08c379a000000000000000000000000000000000000000000000000000000000815260040161116290612d79565b60405180910390fd5b827f800000000000000000000000000000000000000000000000000000000000000081106111ce576040517f08c379a00000000000000000000000000000000000000000000000000000000081526004016111c59061330b565b60405180910390fd5b847f80000000000000000000000000000000000000000000000000000000000000008110611231576040517f08c379a00000000000000000000000000000000000000000000000000000000081526004016112289061330b565b60405180910390fd5b74010000000000000000000000000000000000000000851015611289576040517f08c379a00000000000000000000000000000000000000000000000000000000081526004016112809061339d565b60405180910390fd5b60006004600088815260200190815260200160002054146112df576040517f08c379a00000000000000000000000000000000000000000000000000000000081526004016112d69061342f565b60405180910390fd5b600260009054906101000a900473ffffffffffffffffffffffffffffffffffffffff1673ffffffffffffffffffffffffffffffffffffffff16635b0034fd88886001886040518563ffffffff1660e01b8152600401611341949392919061344f565b600060405180830381600087803b15801561135b57600080fd5b505af115801561136f573d6000803e3d6000fd5b5050505084600460008881526020019081526020016000208190555050505050505050565b60008060006113a16119eb565b73ffffffffffffffffffffffffffffffffffffffff1673ffffffffffffffffffffffffffffffffffffffff16815260200190815260200160002060009054906101000a900460ff16611428576040517f08c379a000000000000000000000000000000000000000000000000000000000815260040161141f90612bd6565b60405180910390fd5b6000600560008473ffffffffffffffffffffffffffffffffffffffff1673ffffffffffffffffffffffffffffffffffffffff16815260200190815260200160002060009054906101000a900467ffffffffffffffff16905060008167ffffffffffffffff1660408573ffffffffffffffffffffffffffffffffffffffff16901b7f8000000000000000000000000000000000000000000000000000000000000000171790505b6001156115bd5767ffffffffffffffff8267ffffffffffffffff1610611529576040517f08c379a00000000000000000000000000000000000000000000000000000000081526004016115209061350d565b60405180910390fd5b600073ffffffffffffffffffffffffffffffffffffffff166003600083815260200190815260200160002060009054906101000a900473ffffffffffffffffffffffffffffffffffffffff1673ffffffffffffffffffffffffffffffffffffffff16146115b35760018261159d9190613541565b91506001816115ac9190612c88565b90506115b8565b6115bd565b6114ce565b6001826115ca9190613541565b600560008673ffffffffffffffffffffffffffffffffffffffff1673ffffffffffffffffffffffffffffffffffffffff16815260200190815260200160002060006101000a81548167ffffffffffffffff021916908367ffffffffffffffff1602179055506116376119eb565b6003600083815260200190815260200160002060006101000a81548173ffffffffffffffffffffffffffffffffffffffff021916908373ffffffffffffffffffffffffffffffffffffffff1602179055508092505050919050565b60607401000000000000000000000000000000000000000082101561175957600160009054906101000a900473ffffffffffffffffffffffffffffffffffffffff1673ffffffffffffffffffffffffffffffffffffffff16639896c31d836040518263ffffffff1660e01b815260040161170c9190612683565b600060405180830381865afa158015611729573d6000803e3d6000fd5b505050506040513d6000823e3d601f19601f820116820180604052508101906117529190613620565b90506117b0565b7f80000000000000000000000000000000000000000000000000000000000000008210156117a45761179d6004600084815260200190815260200160002054611e46565b90506117b0565b6117ad82611e46565b90505b919050565b60036020528060005260406000206000915054906101000a900473ffffffffffffffffffffffffffffffffffffffff1681565b600760009054906101000a900473ffffffffffffffffffffffffffffffffffffffff1681565b61181e6118196119eb565b611f55565b61185d576040517f08c379a0000000000000000000000000000000000000000000000000000000008152600401611854906136db565b60405180910390fd5b61186681611faf565b6118a5576040517f08c379a000000000000000000000000000000000000000000000000000000000815260040161189c90613793565b60405180910390fd5b6000808273ffffffffffffffffffffffffffffffffffffffff1673ffffffffffffffffffffffffffffffffffffffff16815260200190815260200160002060009054906101000a900460ff1615611931576040517f08c379a000000000000000000000000000000000000000000000000000000000815260040161192890613825565b60405180910390fd5b60016000808373ffffffffffffffffffffffffffffffffffffffff1673ffffffffffffffffffffffffffffffffffffffff16815260200190815260200160002060006101000a81548160ff0219169083151502179055508073ffffffffffffffffffffffffffffffffffffffff16638129fc1c6040518163ffffffff1660e01b8152600401600060405180830381600087803b1580156119d057600080fd5b505af11580156119e4573d6000803e3d6000fd5b5050505050565b600033905090565b74010000000000000000000000000000000000000000821015611a4b576040517f08c379a0000000000000000000000000000000000000000000000000000000008152600401611a42906138b7565b60405180910390fd5b60007f8000000000000000000000000000000000000000000000000000000000000000831015611ac357600360006004600086815260200190815260200160002054815260200190815260200160002060009054906101000a900473ffffffffffffffffffffffffffffffffffffffff169050611afa565b6003600084815260200190815260200160002060009054906101000a900473ffffffffffffffffffffffffffffffffffffffff1690505b600073ffffffffffffffffffffffffffffffffffffffff168173ffffffffffffffffffffffffffffffffffffffff1614611b9e578073ffffffffffffffffffffffffffffffffffffffff1663c5f980af8585856040518463ffffffff1660e01b8152600401611b6b939291906138d7565b600060405180830381600087803b158015611b8557600080fd5b505af1158015611b99573d6000803e3d6000fd5b505050505b50505050565b6000600760009054906101000a900473ffffffffffffffffffffffffffffffffffffffff1673ffffffffffffffffffffffffffffffffffffffff168273ffffffffffffffffffffffffffffffffffffffff16149050919050565b6000611c497f9b151866000000000000000000000000000000000000000000000000000000008373ffffffffffffffffffffffffffffffffffffffff166120a690919063ffffffff16565b8015611cee57503073ffffffffffffffffffffffffffffffffffffffff168273ffffffffffffffffffffffffffffffffffffffff1663f200670d6040518163ffffffff1660e01b8152600401602060405180830381865afa158015611cb2573d6000803e3d6000fd5b505050506040513d601f19601f82011682018060405250810190611cd69190613923565b73ffffffffffffffffffffffffffffffffffffffff16145b9050919050565b6000600760009054906101000a900473ffffffffffffffffffffffffffffffffffffffff1673ffffffffffffffffffffffffffffffffffffffff168273ffffffffffffffffffffffffffffffffffffffff16149050919050565b6000611d9a7fa90053f0000000000000000000000000000000000000000000000000000000008373ffffffffffffffffffffffffffffffffffffffff166120a690919063ffffffff16565b8015611e3f57503073ffffffffffffffffffffffffffffffffffffffff168273ffffffffffffffffffffffffffffffffffffffff1663f200670d6040518163ffffffff1660e01b8152600401602060405180830381865afa158015611e03573d6000803e3d6000fd5b505050506040513d601f19601f82011682018060405250810190611e279190613923565b73ffffffffffffffffffffffffffffffffffffffff16145b9050919050565b606060006003600084815260200190815260200160002060009054906101000a900473ffffffffffffffffffffffffffffffffffffffff169050600073ffffffffffffffffffffffffffffffffffffffff168173ffffffffffffffffffffffffffffffffffffffff161415611ecd5760405180602001604052806000815250915050611f50565b8073ffffffffffffffffffffffffffffffffffffffff16630e89341c846040518263ffffffff1660e01b8152600401611f069190612659565b600060405180830381865afa158015611f23573d6000803e3d6000fd5b505050506040513d6000823e3d601f19601f82011682018060405250810190611f4c9190613620565b9150505b919050565b6000600760009054906101000a900473ffffffffffffffffffffffffffffffffffffffff1673ffffffffffffffffffffffffffffffffffffffff168273ffffffffffffffffffffffffffffffffffffffff16149050919050565b6000611ffa7ff220faae000000000000000000000000000000000000000000000000000000008373ffffffffffffffffffffffffffffffffffffffff166120a690919063ffffffff16565b801561209f57503073ffffffffffffffffffffffffffffffffffffffff168273ffffffffffffffffffffffffffffffffffffffff1663f200670d6040518163ffffffff1660e01b8152600401602060405180830381865afa158015612063573d6000803e3d6000fd5b505050506040513d601f19601f820116820180604052508101906120879190613923565b73ffffffffffffffffffffffffffffffffffffffff16145b9050919050565b60006120b1836120cb565b80156120c357506120c28383612118565b5b905092915050565b60006120f7827f01ffc9a700000000000000000000000000000000000000000000000000000000612118565b8015612111575061210f8263ffffffff60e01b612118565b155b9050919050565b6000806301ffc9a760e01b83604051602401612134919061395f565b604051602081830303815290604052907bffffffffffffffffffffffffffffffffffffffffffffffffffffffff19166020820180517bffffffffffffffffffffffffffffffffffffffffffffffffffffffff838183161783525050505090506000808573ffffffffffffffffffffffffffffffffffffffff16617530846040516121be91906139b6565b6000604051808303818686fa925050503d80600081146121fa576040519150601f19603f3d011682016040523d82523d6000602084013e6121ff565b606091505b509150915060208151101561221a576000935050505061223d565b81801561223757508080602001905181019061223691906139f9565b5b93505050505b92915050565b6000604051905090565b600080fd5b600080fd5b60007fffffffff0000000000000000000000000000000000000000000000000000000082169050919050565b61228c81612257565b811461229757600080fd5b50565b6000813590506122a981612283565b92915050565b6000602082840312156122c5576122c461224d565b5b60006122d38482850161229a565b91505092915050565b60008115159050919050565b6122f1816122dc565b82525050565b600060208201905061230c60008301846122e8565b92915050565b600073ffffffffffffffffffffffffffffffffffffffff82169050919050565b600061233d82612312565b9050919050565b61234d81612332565b811461235857600080fd5b50565b60008135905061236a81612344565b92915050565b6000819050919050565b61238381612370565b811461238e57600080fd5b50565b6000813590506123a08161237a565b92915050565b6000806000606084860312156123bf576123be61224d565b5b60006123cd8682870161235b565b93505060206123de86828701612391565b92505060406123ef86828701612391565b9150509250925092565b600080604083850312156124105761240f61224d565b5b600061241e8582860161235b565b925050602061242f8582860161235b565b9150509250929050565b600080fd5b6000601f19601f8301169050919050565b7f4e487b7100000000000000000000000000000000000000000000000000000000600052604160045260246000fd5b6124878261243e565b810181811067ffffffffffffffff821117156124a6576124a561244f565b5b80604052505050565b60006124b9612243565b90506124c5828261247e565b919050565b600067ffffffffffffffff8211156124e5576124e461244f565b5b602082029050602081019050919050565b600080fd5b600061250e612509846124ca565b6124af565b90508083825260208201905060208402830185811115612531576125306124f6565b5b835b8181101561255a57806125468882612391565b845260208401935050602081019050612533565b5050509392505050565b600082601f83011261257957612578612439565b5b81356125898482602086016124fb565b91505092915050565b6000806000606084860312156125ab576125aa61224d565b5b60006125b98682870161235b565b935050602084013567ffffffffffffffff8111156125da576125d9612252565b5b6125e686828701612564565b925050604084013567ffffffffffffffff81111561260757612606612252565b5b61261386828701612564565b9150509250925092565b6000602082840312156126335761263261224d565b5b60006126418482850161235b565b91505092915050565b61265381612370565b82525050565b600060208201905061266e600083018461264a565b92915050565b61267d81612332565b82525050565b60006020820190506126986000830184612674565b92915050565b6000602082840312156126b4576126b361224d565b5b60006126c284828501612391565b91505092915050565b600080fd5b600067ffffffffffffffff8211156126eb576126ea61244f565b5b6126f48261243e565b9050602081019050919050565b82818337600083830152505050565b600061272361271e846126d0565b6124af565b90508281526020810184848401111561273f5761273e6126cb565b5b61274a848285612701565b509392505050565b600082601f83011261276757612766612439565b5b8135612777848260208601612710565b91505092915050565b6000806000806080858703121561279a5761279961224d565b5b60006127a88782880161235b565b94505060206127b987828801612391565b93505060406127ca87828801612391565b925050606085013567ffffffffffffffff8111156127eb576127ea612252565b5b6127f787828801612752565b91505092959194509250565b600081519050919050565b600082825260208201905092915050565b60005b8381101561283d578082015181840152602081019050612822565b8381111561284c576000848401525b50505050565b600061285d82612803565b612867818561280e565b935061287781856020860161281f565b6128808161243e565b840191505092915050565b600060208201905081810360008301526128a58184612852565b905092915050565b7f4d65746176657273653a20746865206f6e6c7920616c6c6f7765642073656e6460008201527f6572206973207468652065636f6e6f6d792073797374656d0000000000000000602082015250565b600061290960388361280e565b9150612914826128ad565b604082019050919050565b60006020820190508181036000830152612938816128fc565b9050919050565b7f4d65746176657273653a20746865206f6e6c7920616c6c6f7765642073656e6460008201527f657220697320746865206272616e642072656769737472790000000000000000602082015250565b600061299b60388361280e565b91506129a68261293f565b604082019050919050565b600060208201905081810360008301526129ca8161298e565b9050919050565b6000819050919050565b6000819050919050565b6000612a006129fb6129f6846129d1565b6129db565b612370565b9050919050565b612a10816129e5565b82525050565b600082825260208201905092915050565b7f4d65746176657273653a204d696e74696e672061206272616e64000000000000600082015250565b6000612a5d601a83612a16565b9150612a6882612a27565b602082019050919050565b6000608082019050612a886000830186612674565b612a95602083018561264a565b612aa26040830184612a07565b8181036060830152612ab381612a50565b9050949350505050565b7f4e487b7100000000000000000000000000000000000000000000000000000000600052603260045260246000fd5b7f4e487b7100000000000000000000000000000000000000000000000000000000600052601160045260246000fd5b6000612b2682612370565b91507fffffffffffffffffffffffffffffffffffffffffffffffffffffffffffffffff821415612b5957612b58612aec565b5b600182019050919050565b7f4d65746176657273653a207468652073656e646572206d75737420626520612060008201527f706c75672d696e00000000000000000000000000000000000000000000000000602082015250565b6000612bc060278361280e565b9150612bcb82612b64565b604082019050919050565b60006020820190508181036000830152612bef81612bb3565b9050919050565b7f4d65746176657273653a2063616e6e6f7420646566696e65206d6f7265204e4660008201527f5420747970657300000000000000000000000000000000000000000000000000602082015250565b6000612c5260278361280e565b9150612c5d82612bf6565b604082019050919050565b60006020820190508181036000830152612c8181612c45565b9050919050565b6000612c9382612370565b9150612c9e83612370565b9250827fffffffffffffffffffffffffffffffffffffffffffffffffffffffffffffffff03821115612cd357612cd2612aec565b5b828201905092915050565b6000604082019050612cf36000830185612674565b612d006020830184612674565b9392505050565b7f4d65746176657273653a20756e6b6e6f776e202f206e6f6e2d6d696e7461626c60008201527f6520746f6b656e20747970652069640000000000000000000000000000000000602082015250565b6000612d63602f8361280e565b9150612d6e82612d07565b604082019050919050565b60006020820190508181036000830152612d9281612d56565b9050919050565b7f4d65746176657273653a20746865207370656369666965642076616c7565206960008201527f73206e6f7420696e207468652066756e6769626c6520746f6b656e732072616e60208201527f6765000000000000000000000000000000000000000000000000000000000000604082015250565b6000612e1b60428361280e565b9150612e2682612d99565b606082019050919050565b60006020820190508181036000830152612e4a81612e0e565b9050919050565b600081519050919050565b6000612e6782612e51565b612e718185612a16565b9350612e8181856020860161281f565b612e8a8161243e565b840191505092915050565b6000608082019050612eaa6000830187612674565b612eb7602083018661264a565b612ec4604083018561264a565b8181036060830152612ed68184612e5c565b905095945050505050565b7f4d65746176657273653a207468652073656e646572206973206e6f7420616c6c60008201527f6f77656420746f207365742074686520706c75672d696e000000000000000000602082015250565b6000612f3d60378361280e565b9150612f4882612ee1565b604082019050919050565b60006020820190508181036000830152612f6c81612f30565b9050919050565b7f4d65746176657273653a20746865206164647265737320646f6573206e6f742060008201527f62656c6f6e6720746f20612076616c6964206272616e6420726567697374727960208201527f20636f6e747261637420666f722074686973206d657461766572736500000000604082015250565b6000612ff5605c8361280e565b915061300082612f73565b606082019050919050565b6000602082019050818103600083015261302481612fe8565b9050919050565b7f4d65746176657273653a2061206272616e64207265676973747279206973206160008201527f6c72656164792073657420696e746f2074686973206d65746176657273650000602082015250565b6000613087603e8361280e565b91506130928261302b565b604082019050919050565b600060208201905081810360008301526130b68161307a565b9050919050565b7f4d65746176657273653a207468652073656e646572206973206e6f7420616c6c60008201527f6f77656420746f20736574207468652065636f6e6f6d79000000000000000000602082015250565b600061311960378361280e565b9150613124826130bd565b604082019050919050565b600060208201905081810360008301526131488161310c565b9050919050565b7f4d65746176657273653a20746865206164647265737320646f6573206e6f742060008201527f62656c6f6e6720746f20612076616c69642065636f6e6f6d7920636f6e74726160208201527f637420666f722074686973206d65746176657273650000000000000000000000604082015250565b60006131d160558361280e565b91506131dc8261314f565b606082019050919050565b60006020820190508181036000830152613200816131c4565b9050919050565b7f4d65746176657273653a20616e2065636f6e6f6d7920697320616c726561647960008201527f2073657420696e746f2074686973206d65746176657273650000000000000000602082015250565b600061326360388361280e565b915061326e82613207565b604082019050919050565b6000602082019050818103600083015261329281613256565b9050919050565b7f4d65746176657273653a20746865207370656369666965642076616c7565206960008201527f73206e6f7420696e20746865206e66742072616e676500000000000000000000602082015250565b60006132f560368361280e565b915061330082613299565b604082019050919050565b60006020820190508181036000830152613324816132e8565b9050919050565b7f4d65746176657273653a207468652073706563696669656420746f6b656e206960008201527f6420697320726573657276656420666f72206272616e64730000000000000000602082015250565b600061338760388361280e565b91506133928261332b565b604082019050919050565b600060208201905081810360008301526133b68161337a565b9050919050565b7f4d65746176657273653a2074686520737065636966696564206e66742069642060008201527f6973206e6f7420617661696c61626c6500000000000000000000000000000000602082015250565b600061341960308361280e565b9150613424826133bd565b604082019050919050565b600060208201905081810360008301526134488161340c565b9050919050565b60006080820190506134646000830187612674565b613471602083018661264a565b61347e6040830185612a07565b81810360608301526134908184612e5c565b905095945050505050565b7f4d65746176657273653a2063616e6e6f7420646566696e65206d6f726520465460008201527f20747970657320666f7220746869732061646472657373000000000000000000602082015250565b60006134f760378361280e565b91506135028261349b565b604082019050919050565b60006020820190508181036000830152613526816134ea565b9050919050565b600067ffffffffffffffff82169050919050565b600061354c8261352d565b91506135578361352d565b92508267ffffffffffffffff0382111561357457613573612aec565b5b828201905092915050565b600067ffffffffffffffff82111561359a5761359961244f565b5b6135a38261243e565b9050602081019050919050565b60006135c36135be8461357f565b6124af565b9050828152602081018484840111156135df576135de6126cb565b5b6135ea84828561281f565b509392505050565b600082601f83011261360757613606612439565b5b81516136178482602086016135b0565b91505092915050565b6000602082840312156136365761363561224d565b5b600082015167ffffffffffffffff81111561365457613653612252565b5b613660848285016135f2565b91505092915050565b7f4d65746176657273653a207468652073656e646572206973206e6f7420616c6c60008201527f6f77656420746f20616464206120706c75672d696e0000000000000000000000602082015250565b60006136c560358361280e565b91506136d082613669565b604082019050919050565b600060208201905081810360008301526136f4816136b8565b9050919050565b7f4d65746176657273653a20746865206164647265737320646f6573206e6f742060008201527f62656c6f6e6720746f20612076616c696420706c75672d696e20636f6e74726160208201527f637420666f722074686973206d65746176657273650000000000000000000000604082015250565b600061377d60558361280e565b9150613788826136fb565b606082019050919050565b600060208201905081810360008301526137ac81613770565b9050919050565b7f4d65746176657273653a2074686520706c75672d696e20697320616c7265616460008201527f7920616464656420746f2074686973206d657461766572736500000000000000602082015250565b600061380f60398361280e565b915061381a826137b3565b604082019050919050565b6000602082019050818103600083015261383e81613802565b9050919050565b7f4d65746176657273653a206272616e64732063616e6e6f74206265206275726e60008201527f6564000000000000000000000000000000000000000000000000000000000000602082015250565b60006138a160228361280e565b91506138ac82613845565b604082019050919050565b600060208201905081810360008301526138d081613894565b9050919050565b60006060820190506138ec6000830186612674565b6138f9602083018561264a565b613906604083018461264a565b949350505050565b60008151905061391d81612344565b92915050565b6000602082840312156139395761393861224d565b5b60006139478482850161390e565b91505092915050565b61395981612257565b82525050565b60006020820190506139746000830184613950565b92915050565b600081905092915050565b600061399082612e51565b61399a818561397a565b93506139aa81856020860161281f565b80840191505092915050565b60006139c28284613985565b915081905092915050565b6139d6816122dc565b81146139e157600080fd5b50565b6000815190506139f3816139cd565b92915050565b600060208284031215613a0f57613a0e61224d565b5b6000613a1d848285016139e4565b9150509291505056fea2646970667358221220c76f9691a7aeb343e17b70d63af1fbfd9fceb4f8c3579ab8c75cca1966ef3de164736f6c634300080a0033",
  "immutableReferences": {},
  "source": "// SPDX-License-Identifier: MIT\npragma solidity >=0.8 <0.9.0;\n\nimport \"../Metaverse.sol\";\n\ncontract SampleMetaverse is Metaverse {\n    /**\n     * The deployer of this metaverse.\n     */\n    address public deployer;\n\n    constructor() {\n        deployer = _msgSender();\n    }\n\n    /**\n     * Adding the plug-ins is only allowed to the deployer.\n     */\n    function _canAddPlugin(address _sender) internal view override returns (bool) {\n        return _sender == deployer;\n    }\n\n    /**\n     * Setting the brand registry is only allowed to the deployer.\n     */\n    function _canSetBrandRegistry(address _sender) internal view override returns (bool) {\n        return _sender == deployer;\n    }\n\n    /**\n     * Setting the economy system is only allowed to the deployer.\n     */\n    function _canSetEconomy(address _sender) internal view override returns (bool) {\n        return _sender == deployer;\n    }\n}\n",
  "sourcePath": "/home/luismasuelli/Projects/OuterMaze/lingr-contracts/contracts/lingr/samples/SampleMetaverse.sol",
  "compiler": {
    "name": "solc",
    "version": "0.8.10+commit.fc410830.Emscripten.clang"
  },
  "schemaVersion": "3.4.3",
  "updatedAt": "2022-08-10T03:55:12.073Z",
  "devdoc": {
    "kind": "dev",
    "methods": {},
    "version": 1
  },
  "userdoc": {
    "kind": "user",
    "methods": {
      "addPlugin(address)": {
        "notice": "Adds a plug-in contract to this metaverse."
      },
      "brandRegistry()": {
        "notice": "The linked brand registry for this metaverse."
      },
      "defineNextFTType(address)": {
        "notice": "Defines the resolution of a fungible token type. The token id must be in the range of the fungible token ids."
      },
      "defineNextNFTType()": {
        "notice": "Defines the resolution of a non-fungible token type. The token id must be in the range of the fungible token (type) ids (strictly > 0, strictly < (1 << 255))."
      },
      "deployer()": {
        "notice": "The deployer of this metaverse."
      },
      "economy()": {
        "notice": "The linked economy for this metaverse."
      },
      "mintBrandFor(address,address)": {
        "notice": "Mints a specific brand token for a given user. The brand is stated as its address."
      },
      "mintFTFor(address,uint256,uint256,bytes)": {
        "notice": "Mints a specific fungible token type, in a certain amount."
      },
      "mintNFTFor(address,uint256,uint256,bytes)": {
        "notice": "Mints a specific non-fungible token type, using a specific id (and always using an amount of 1). It is an error if the token id is already minted, or the chosen id is < (1 << 160) since those ids are reserved for brands."
      },
      "nftTypes(uint256)": {
        "notice": "Now, each NFT id will be registered here along its token type. The difference with the fungible tokens (they're already registered in the `tokenTypes` mapping) is that they need to be registered with a particular token type. Also, both the NFT id and its associated token type will be lower than (1<<255) since, otherwise, they would be using values corresponding to the FT side (both for IDs and type indices). Brand NFTs are not included in this mapping (they are only characterized by being < (1 << 160))."
      },
      "onBrandOwnerChanged(address,address)": {
        "notice": "Hook to be invoked as part of a transfer from ERC1155."
      },
      "onTokenBurned(address,uint256,uint256)": {
        "notice": "Hook to be invoked as part of a burn process when an address burns a particular token in some quantity (for NFTs, the quantity is 1 in every case). By this point, we should be guaranteed that the _tokenId will actually have a resolver (being it a fungible token type, or being it a non-fungible token id)."
      },
      "onTokensBurned(address,uint256[],uint256[])": {
        "notice": "Hook to be invoked as part of a batch burn process when an address burns a particulars et of tokens in respective quantities (for NFTs, the quantity is 1 in every case; it is guaranteed that both arrays are always of the same length."
      },
      "plugins(address)": {
        "notice": "This is the list of plug-ins that are being added to the hub. Each contract has its separate logic but they have access to the same set of features. Once a contract is added, it will never be removed from this list. This mapping tells whether a contract in particular has permission(s) to define a type and mint tokens for an address."
      },
      "setBrandRegistry(address)": {
        "notice": "Adds a plug-in contract to this metaverse."
      },
      "setEconomy(address)": {
        "notice": "Set the economy contract to this metaverse."
      },
      "supportsInterface(bytes4)": {
        "notice": "A metaverse satisfies the IMetaverse and IERC165 interfaces."
      },
      "tokenTypeResolvers(uint256)": {
        "notice": "Types are identified as integer values, and each registered type will have a non-zero responsible address (serving to metadata resolution and also to account for the existence of a given type). The type 1 (0x1) will be the first type, and actually it will be the brand type. Other NFT types will be registered using indices lower to (1<<255), while FT types will be registered using indices greater than or equal to that value (i.e. starting with binary {1}). In the case of the FTs, the index in this mapping is also their token id. This is not the same for NFTs (they have one extra level of indirection since multiple ids might share the same type). A special type id will be regarded as invalid type (i.e. it will not count as NFT nor FT type, but as a non-existent type): 0 (0x0). The responsible serves two purposes: The first one, is to resolve the metadata of a given token id (be it FT or NFT). The second one is to account for one of such tokens being burned. The responsible will actually be one of the registered plug-ins, on each case (save for the brands case, which is resolved by this contract, and the invalid case, which has no resolver)."
      },
      "tokenURI(uint256)": {
        "notice": "Retrieves the metadata uri of a given token. WARNING: This method will consume a lot of gas if invoked inside a transaction, so it is recommended to invoke this method in the context of a CALL, and never in the context of a SEND (even as part of other contract's code)."
      }
    },
    "version": 1
  }
}