{
  "contractName": "SampleMetaverse",
  "abi": [
    {
      "inputs": [],
      "stateMutability": "nonpayable",
      "type": "constructor"
    },
    {
      "inputs": [
        {
          "internalType": "address",
          "name": "_contract",
          "type": "address"
        }
      ],
      "name": "addPlugin",
      "outputs": [],
      "stateMutability": "nonpayable",
      "type": "function"
    },
    {
      "inputs": [],
      "name": "brandRegistry",
      "outputs": [
        {
          "internalType": "address",
          "name": "",
          "type": "address"
        }
      ],
      "stateMutability": "view",
      "type": "function"
    },
    {
      "inputs": [
        {
          "internalType": "address",
          "name": "_brandId",
          "type": "address"
        }
      ],
      "name": "defineNextFTType",
      "outputs": [
        {
          "internalType": "uint256",
          "name": "",
          "type": "uint256"
        }
      ],
      "stateMutability": "nonpayable",
      "type": "function"
    },
    {
      "inputs": [],
      "name": "defineNextNFTType",
      "outputs": [
        {
          "internalType": "uint256",
          "name": "",
          "type": "uint256"
        }
      ],
      "stateMutability": "nonpayable",
      "type": "function"
    },
    {
      "inputs": [],
      "name": "deployer",
      "outputs": [
        {
          "internalType": "address",
          "name": "",
          "type": "address"
        }
      ],
      "stateMutability": "view",
      "type": "function"
    },
    {
      "inputs": [],
      "name": "economy",
      "outputs": [
        {
          "internalType": "address",
          "name": "",
          "type": "address"
        }
      ],
      "stateMutability": "view",
      "type": "function"
    },
    {
      "inputs": [
        {
          "internalType": "address",
          "name": "_to",
          "type": "address"
        },
        {
          "internalType": "address",
          "name": "_brandId",
          "type": "address"
        }
      ],
      "name": "mintBrandFor",
      "outputs": [],
      "stateMutability": "nonpayable",
      "type": "function"
    },
    {
      "inputs": [
        {
          "internalType": "address",
          "name": "_to",
          "type": "address"
        },
        {
          "internalType": "uint256",
          "name": "_tokenId",
          "type": "uint256"
        },
        {
          "internalType": "uint256",
          "name": "_amount",
          "type": "uint256"
        },
        {
          "internalType": "bytes",
          "name": "_data",
          "type": "bytes"
        }
      ],
      "name": "mintFTFor",
      "outputs": [],
      "stateMutability": "nonpayable",
      "type": "function"
    },
    {
      "inputs": [
        {
          "internalType": "address",
          "name": "_to",
          "type": "address"
        },
        {
          "internalType": "uint256",
          "name": "_tokenType",
          "type": "uint256"
        },
        {
          "internalType": "bytes",
          "name": "_data",
          "type": "bytes"
        }
      ],
      "name": "mintNFTFor",
      "outputs": [
        {
          "internalType": "uint256",
          "name": "",
          "type": "uint256"
        }
      ],
      "stateMutability": "nonpayable",
      "type": "function"
    },
    {
      "inputs": [
        {
          "internalType": "uint256",
          "name": "",
          "type": "uint256"
        }
      ],
      "name": "nftTypes",
      "outputs": [
        {
          "internalType": "uint256",
          "name": "",
          "type": "uint256"
        }
      ],
      "stateMutability": "view",
      "type": "function"
    },
    {
      "inputs": [
        {
          "internalType": "address",
          "name": "_brandId",
          "type": "address"
        },
        {
          "internalType": "address",
          "name": "_newOwner",
          "type": "address"
        }
      ],
      "name": "onBrandOwnerChanged",
      "outputs": [],
      "stateMutability": "nonpayable",
      "type": "function"
    },
    {
      "inputs": [
        {
          "internalType": "address",
          "name": "_operator",
          "type": "address"
        },
        {
          "internalType": "address",
          "name": "_owner",
          "type": "address"
        },
        {
          "internalType": "uint256",
          "name": "_tokenId",
          "type": "uint256"
        },
        {
          "internalType": "uint256",
          "name": "_amount",
          "type": "uint256"
        }
      ],
      "name": "onTokenBurned",
      "outputs": [],
      "stateMutability": "nonpayable",
      "type": "function"
    },
    {
      "inputs": [
        {
          "internalType": "address",
          "name": "_operator",
          "type": "address"
        },
        {
          "internalType": "address",
          "name": "_owner",
          "type": "address"
        },
        {
          "internalType": "uint256[]",
          "name": "_tokenIds",
          "type": "uint256[]"
        },
        {
          "internalType": "uint256[]",
          "name": "_amounts",
          "type": "uint256[]"
        }
      ],
      "name": "onTokensBurned",
      "outputs": [],
      "stateMutability": "nonpayable",
      "type": "function"
    },
    {
      "inputs": [
        {
          "internalType": "address",
          "name": "",
          "type": "address"
        }
      ],
      "name": "plugins",
      "outputs": [
        {
          "internalType": "bool",
          "name": "",
          "type": "bool"
        }
      ],
      "stateMutability": "view",
      "type": "function"
    },
    {
      "inputs": [
        {
          "internalType": "address",
          "name": "_contract",
          "type": "address"
        }
      ],
      "name": "setBrandRegistry",
      "outputs": [],
      "stateMutability": "nonpayable",
      "type": "function"
    },
    {
      "inputs": [
        {
          "internalType": "address",
          "name": "_contract",
          "type": "address"
        }
      ],
      "name": "setEconomy",
      "outputs": [],
      "stateMutability": "nonpayable",
      "type": "function"
    },
    {
      "inputs": [
        {
          "internalType": "bytes4",
          "name": "interfaceId",
          "type": "bytes4"
        }
      ],
      "name": "supportsInterface",
      "outputs": [
        {
          "internalType": "bool",
          "name": "",
          "type": "bool"
        }
      ],
      "stateMutability": "view",
      "type": "function"
    },
    {
      "inputs": [
        {
          "internalType": "uint256",
          "name": "",
          "type": "uint256"
        }
      ],
      "name": "tokenTypeResolvers",
      "outputs": [
        {
          "internalType": "address",
          "name": "",
          "type": "address"
        }
      ],
      "stateMutability": "view",
      "type": "function"
    },
    {
      "inputs": [
        {
          "internalType": "uint256",
          "name": "_tokenId",
          "type": "uint256"
        }
      ],
      "name": "tokenURI",
      "outputs": [
        {
          "internalType": "string",
          "name": "",
          "type": "string"
        }
      ],
      "stateMutability": "view",
      "type": "function"
    }
  ],
  "bytecode": "0x60806040526002600655740100000000000000000000000000000000000000006007553480156200002f57600080fd5b50620000406200008660201b60201c565b600860006101000a81548173ffffffffffffffffffffffffffffffffffffffff021916908373ffffffffffffffffffffffffffffffffffffffff1602179055506200008e565b600033905090565b613afc806200009e6000396000f3fe608060405234801561001057600080fd5b50600436106101215760003560e01c80638820f6bd116100ad578063b842aa9211610071578063b842aa9214610304578063c87b56dd14610334578063d053bfa114610364578063d5f3948814610394578063d8867fc8146103b257610121565b80638820f6bd146102765780638cd6e9a914610294578063a16bc2ae146102b0578063acb8a060146102cc578063ad8509b0146102e857610121565b80634b12e643116100f45780634b12e643146101be578063556112d4146101ee5780635b1798e41461020c5780636b42d6131461022a57806379b2ab231461024657610121565b806301ffc9a71461012657806304a6fdc0146101565780631364c6f7146101865780631b5dc598146101a2575b600080fd5b610140600480360381019061013b91906122d0565b6103ce565b60405161014d9190612318565b60405180910390f35b610170600480360381019061016b919061250d565b6104a0565b60405161017d919061258b565b60405180910390f35b6101a0600480360381019061019b91906125a6565b610800565b005b6101bc60048036038101906101b7919061260d565b6108a9565b005b6101d860048036038101906101d3919061264d565b6109ec565b6040516101e59190612318565b60405180910390f35b6101f6610a0c565b604051610203919061258b565b60405180910390f35b610214610c0f565b6040516102219190612689565b60405180910390f35b610244600480360381019061023f919061276c565b610c35565b005b610260600480360381019061025b919061280b565b610d38565b60405161026d919061258b565b60405180910390f35b61027e610d50565b60405161028b9190612689565b60405180910390f35b6102ae60048036038101906102a9919061260d565b610d76565b005b6102ca60048036038101906102c59190612838565b610ea0565b005b6102e660048036038101906102e1919061264d565b6110da565b005b61030260048036038101906102fd919061264d565b611246565b005b61031e6004803603810190610319919061264d565b6113b2565b60405161032b919061258b565b60405180910390f35b61034e6004803603810190610349919061280b565b6116b0565b60405161035b9190612943565b60405180910390f35b61037e6004803603810190610379919061280b565b6117d3565b60405161038b9190612689565b60405180910390f35b61039c611806565b6040516103a99190612689565b60405180910390f35b6103cc60048036038101906103c7919061264d565b61182c565b005b60007f01ffc9a7000000000000000000000000000000000000000000000000000000007bffffffffffffffffffffffffffffffffffffffffffffffffffffffff1916827bffffffffffffffffffffffffffffffffffffffffffffffffffffffff1916148061049957507ff71d653a000000000000000000000000000000000000000000000000000000007bffffffffffffffffffffffffffffffffffffffffffffffffffffffff1916827bffffffffffffffffffffffffffffffffffffffffffffffffffffffff1916145b9050919050565b60008060006104ad611a09565b73ffffffffffffffffffffffffffffffffffffffff1673ffffffffffffffffffffffffffffffffffffffff16815260200190815260200160002060009054906101000a900460ff16610534576040517f08c379a000000000000000000000000000000000000000000000000000000000815260040161052b906129d7565b60405180910390fd5b8261053d611a09565b73ffffffffffffffffffffffffffffffffffffffff166003600083815260200190815260200160002060009054906101000a900473ffffffffffffffffffffffffffffffffffffffff1673ffffffffffffffffffffffffffffffffffffffff16146105dd576040517f08c379a00000000000000000000000000000000000000000000000000000000081526004016105d490612a69565b60405180910390fd5b837f80000000000000000000000000000000000000000000000000000000000000008110610640576040517f08c379a000000000000000000000000000000000000000000000000000000000815260040161063790612afb565b60405180910390fd5b6002851015610684576040517f08c379a000000000000000000000000000000000000000000000000000000000815260040161067b90612b8d565b60405180910390fd5b6000600754905060007f7fffffffffffffffffffffffffffffffffffffffffffffffffffffffffffffff90505b600115610733578082106106fa576040517f08c379a00000000000000000000000000000000000000000000000000000000081526004016106f190612bf9565b60405180910390fd5b6000600460008481526020019081526020016000205414610729576001826107229190612c48565b915061072e565b610733565b6106b1565b6001826107409190612c48565b600781905550600260009054906101000a900473ffffffffffffffffffffffffffffffffffffffff1673ffffffffffffffffffffffffffffffffffffffff16635b0034fd898460018a6040518563ffffffff1660e01b81526004016107a89493929190612d38565b600060405180830381600087803b1580156107c257600080fd5b505af11580156107d6573d6000803e3d6000fd5b50505050866004600084815260200190815260200160002081905550819450505050509392505050565b600260009054906101000a900473ffffffffffffffffffffffffffffffffffffffff1673ffffffffffffffffffffffffffffffffffffffff16610841611a09565b73ffffffffffffffffffffffffffffffffffffffff1614610897576040517f08c379a000000000000000000000000000000000000000000000000000000000815260040161088e90612df6565b60405180910390fd5b6108a384848484611a11565b50505050565b600160009054906101000a900473ffffffffffffffffffffffffffffffffffffffff1673ffffffffffffffffffffffffffffffffffffffff166108ea611a09565b73ffffffffffffffffffffffffffffffffffffffff1614610940576040517f08c379a000000000000000000000000000000000000000000000000000000000815260040161093790612e88565b60405180910390fd5b600260009054906101000a900473ffffffffffffffffffffffffffffffffffffffff1673ffffffffffffffffffffffffffffffffffffffff16635b0034fd838373ffffffffffffffffffffffffffffffffffffffff1660016040518463ffffffff1660e01b81526004016109b693929190612ef4565b600060405180830381600087803b1580156109d057600080fd5b505af11580156109e4573d6000803e3d6000fd5b505050505050565b60006020528060005260406000206000915054906101000a900460ff1681565b6000806000610a19611a09565b73ffffffffffffffffffffffffffffffffffffffff1673ffffffffffffffffffffffffffffffffffffffff16815260200190815260200160002060009054906101000a900460ff16610aa0576040517f08c379a0000000000000000000000000000000000000000000000000000000008152600401610a97906129d7565b60405180910390fd5b6000600654905060007f7fffffffffffffffffffffffffffffffffffffffffffffffffffffffffffffff90505b600115610b9b57808210610b16576040517f08c379a0000000000000000000000000000000000000000000000000000000008152600401610b0d90612fb0565b60405180910390fd5b600073ffffffffffffffffffffffffffffffffffffffff166003600084815260200190815260200160002060009054906101000a900473ffffffffffffffffffffffffffffffffffffffff1673ffffffffffffffffffffffffffffffffffffffff1614610b9157600182610b8a9190612c48565b9150610b96565b610b9b565b610acd565b600182610ba89190612c48565b600681905550610bb6611a09565b6003600084815260200190815260200160002060006101000a81548173ffffffffffffffffffffffffffffffffffffffff021916908373ffffffffffffffffffffffffffffffffffffffff160217905550819250505090565b600160009054906101000a900473ffffffffffffffffffffffffffffffffffffffff1681565b600260009054906101000a900473ffffffffffffffffffffffffffffffffffffffff1673ffffffffffffffffffffffffffffffffffffffff16610c76611a09565b73ffffffffffffffffffffffffffffffffffffffff1614610ccc576040517f08c379a0000000000000000000000000000000000000000000000000000000008152600401610cc390612df6565b60405180910390fd5b60008251905060005b81811015610d3057610d1d8686868481518110610cf557610cf4612fd0565b5b6020026020010151868581518110610d1057610d0f612fd0565b5b6020026020010151611a11565b8080610d2890612fff565b915050610cd5565b505050505050565b60046020528060005260406000206000915090505481565b600260009054906101000a900473ffffffffffffffffffffffffffffffffffffffff1681565b600260009054906101000a900473ffffffffffffffffffffffffffffffffffffffff1673ffffffffffffffffffffffffffffffffffffffff16610db7611a09565b73ffffffffffffffffffffffffffffffffffffffff1614610e0d576040517f08c379a0000000000000000000000000000000000000000000000000000000008152600401610e0490612df6565b60405180910390fd5b600160009054906101000a900473ffffffffffffffffffffffffffffffffffffffff1673ffffffffffffffffffffffffffffffffffffffff16638cd6e9a983836040518363ffffffff1660e01b8152600401610e6a929190613048565b600060405180830381600087803b158015610e8457600080fd5b505af1158015610e98573d6000803e3d6000fd5b505050505050565b600080610eab611a09565b73ffffffffffffffffffffffffffffffffffffffff1673ffffffffffffffffffffffffffffffffffffffff16815260200190815260200160002060009054906101000a900460ff16610f32576040517f08c379a0000000000000000000000000000000000000000000000000000000008152600401610f29906129d7565b60405180910390fd5b82610f3b611a09565b73ffffffffffffffffffffffffffffffffffffffff166003600083815260200190815260200160002060009054906101000a900473ffffffffffffffffffffffffffffffffffffffff1673ffffffffffffffffffffffffffffffffffffffff1614610fdb576040517f08c379a0000000000000000000000000000000000000000000000000000000008152600401610fd290612a69565b60405180910390fd5b837f800000000000000000000000000000000000000000000000000000000000000081101561103f576040517f08c379a000000000000000000000000000000000000000000000000000000000815260040161103690613109565b60405180910390fd5b600260009054906101000a900473ffffffffffffffffffffffffffffffffffffffff1673ffffffffffffffffffffffffffffffffffffffff16635b0034fd878787876040518563ffffffff1660e01b81526004016110a09493929190613129565b600060405180830381600087803b1580156110ba57600080fd5b505af11580156110ce573d6000803e3d6000fd5b50505050505050505050565b6110ea6110e5611a09565b611bc5565b611129576040517f08c379a0000000000000000000000000000000000000000000000000000000008152600401611120906131e7565b60405180910390fd5b61113281611c1f565b611171576040517f08c379a00000000000000000000000000000000000000000000000000000000081526004016111689061329f565b60405180910390fd5b600073ffffffffffffffffffffffffffffffffffffffff16600160009054906101000a900473ffffffffffffffffffffffffffffffffffffffff1673ffffffffffffffffffffffffffffffffffffffff1614611202576040517f08c379a00000000000000000000000000000000000000000000000000000000081526004016111f990613331565b60405180910390fd5b80600160006101000a81548173ffffffffffffffffffffffffffffffffffffffff021916908373ffffffffffffffffffffffffffffffffffffffff16021790555050565b611256611251611a09565b611d16565b611295576040517f08c379a000000000000000000000000000000000000000000000000000000000815260040161128c906133c3565b60405180910390fd5b61129e81611d70565b6112dd576040517f08c379a00000000000000000000000000000000000000000000000000000000081526004016112d49061347b565b60405180910390fd5b600073ffffffffffffffffffffffffffffffffffffffff16600260009054906101000a900473ffffffffffffffffffffffffffffffffffffffff1673ffffffffffffffffffffffffffffffffffffffff161461136e576040517f08c379a00000000000000000000000000000000000000000000000000000000081526004016113659061350d565b60405180910390fd5b80600260006101000a81548173ffffffffffffffffffffffffffffffffffffffff021916908373ffffffffffffffffffffffffffffffffffffffff16021790555050565b60008060006113bf611a09565b73ffffffffffffffffffffffffffffffffffffffff1673ffffffffffffffffffffffffffffffffffffffff16815260200190815260200160002060009054906101000a900460ff16611446576040517f08c379a000000000000000000000000000000000000000000000000000000000815260040161143d906129d7565b60405180910390fd5b6000600560008473ffffffffffffffffffffffffffffffffffffffff1673ffffffffffffffffffffffffffffffffffffffff16815260200190815260200160002060009054906101000a900467ffffffffffffffff16905060008167ffffffffffffffff1660408573ffffffffffffffffffffffffffffffffffffffff16901b7f8000000000000000000000000000000000000000000000000000000000000000171790505b6001156115db5767ffffffffffffffff8267ffffffffffffffff1610611547576040517f08c379a000000000000000000000000000000000000000000000000000000000815260040161153e9061359f565b60405180910390fd5b600073ffffffffffffffffffffffffffffffffffffffff166003600083815260200190815260200160002060009054906101000a900473ffffffffffffffffffffffffffffffffffffffff1673ffffffffffffffffffffffffffffffffffffffff16146115d1576001826115bb91906135d3565b91506001816115ca9190612c48565b90506115d6565b6115db565b6114ec565b6001826115e891906135d3565b600560008673ffffffffffffffffffffffffffffffffffffffff1673ffffffffffffffffffffffffffffffffffffffff16815260200190815260200160002060006101000a81548167ffffffffffffffff021916908367ffffffffffffffff160217905550611655611a09565b6003600083815260200190815260200160002060006101000a81548173ffffffffffffffffffffffffffffffffffffffff021916908373ffffffffffffffffffffffffffffffffffffffff1602179055508092505050919050565b60607401000000000000000000000000000000000000000082101561177757600160009054906101000a900473ffffffffffffffffffffffffffffffffffffffff1673ffffffffffffffffffffffffffffffffffffffff16639896c31d836040518263ffffffff1660e01b815260040161172a9190612689565b600060405180830381865afa158015611747573d6000803e3d6000fd5b505050506040513d6000823e3d601f19601f8201168201806040525081019061177091906136b2565b90506117ce565b7f80000000000000000000000000000000000000000000000000000000000000008210156117c2576117bb6004600084815260200190815260200160002054611e67565b90506117ce565b6117cb82611e67565b90505b919050565b60036020528060005260406000206000915054906101000a900473ffffffffffffffffffffffffffffffffffffffff1681565b600860009054906101000a900473ffffffffffffffffffffffffffffffffffffffff1681565b61183c611837611a09565b611f76565b61187b576040517f08c379a00000000000000000000000000000000000000000000000000000000081526004016118729061376d565b60405180910390fd5b61188481611fd0565b6118c3576040517f08c379a00000000000000000000000000000000000000000000000000000000081526004016118ba90613825565b60405180910390fd5b6000808273ffffffffffffffffffffffffffffffffffffffff1673ffffffffffffffffffffffffffffffffffffffff16815260200190815260200160002060009054906101000a900460ff161561194f576040517f08c379a0000000000000000000000000000000000000000000000000000000008152600401611946906138b7565b60405180910390fd5b60016000808373ffffffffffffffffffffffffffffffffffffffff1673ffffffffffffffffffffffffffffffffffffffff16815260200190815260200160002060006101000a81548160ff0219169083151502179055508073ffffffffffffffffffffffffffffffffffffffff16638129fc1c6040518163ffffffff1660e01b8152600401600060405180830381600087803b1580156119ee57600080fd5b505af1158015611a02573d6000803e3d6000fd5b5050505050565b600033905090565b74010000000000000000000000000000000000000000821015611a69576040517f08c379a0000000000000000000000000000000000000000000000000000000008152600401611a6090613949565b60405180910390fd5b60007f8000000000000000000000000000000000000000000000000000000000000000831015611ae157600360006004600086815260200190815260200160002054815260200190815260200160002060009054906101000a900473ffffffffffffffffffffffffffffffffffffffff169050611b18565b6003600084815260200190815260200160002060009054906101000a900473ffffffffffffffffffffffffffffffffffffffff1690505b600073ffffffffffffffffffffffffffffffffffffffff168173ffffffffffffffffffffffffffffffffffffffff1614611bbe578073ffffffffffffffffffffffffffffffffffffffff16633fff0d18868686866040518563ffffffff1660e01b8152600401611b8b9493929190613969565b600060405180830381600087803b158015611ba557600080fd5b505af1158015611bb9573d6000803e3d6000fd5b505050505b5050505050565b6000600860009054906101000a900473ffffffffffffffffffffffffffffffffffffffff1673ffffffffffffffffffffffffffffffffffffffff168273ffffffffffffffffffffffffffffffffffffffff16149050919050565b6000611c6a7f9b151866000000000000000000000000000000000000000000000000000000008373ffffffffffffffffffffffffffffffffffffffff166120c790919063ffffffff16565b8015611d0f57503073ffffffffffffffffffffffffffffffffffffffff168273ffffffffffffffffffffffffffffffffffffffff1663f200670d6040518163ffffffff1660e01b8152600401602060405180830381865afa158015611cd3573d6000803e3d6000fd5b505050506040513d601f19601f82011682018060405250810190611cf791906139c3565b73ffffffffffffffffffffffffffffffffffffffff16145b9050919050565b6000600860009054906101000a900473ffffffffffffffffffffffffffffffffffffffff1673ffffffffffffffffffffffffffffffffffffffff168273ffffffffffffffffffffffffffffffffffffffff16149050919050565b6000611dbb7fa90053f0000000000000000000000000000000000000000000000000000000008373ffffffffffffffffffffffffffffffffffffffff166120c790919063ffffffff16565b8015611e6057503073ffffffffffffffffffffffffffffffffffffffff168273ffffffffffffffffffffffffffffffffffffffff1663f200670d6040518163ffffffff1660e01b8152600401602060405180830381865afa158015611e24573d6000803e3d6000fd5b505050506040513d601f19601f82011682018060405250810190611e4891906139c3565b73ffffffffffffffffffffffffffffffffffffffff16145b9050919050565b606060006003600084815260200190815260200160002060009054906101000a900473ffffffffffffffffffffffffffffffffffffffff169050600073ffffffffffffffffffffffffffffffffffffffff168173ffffffffffffffffffffffffffffffffffffffff161415611eee5760405180602001604052806000815250915050611f71565b8073ffffffffffffffffffffffffffffffffffffffff16630e89341c846040518263ffffffff1660e01b8152600401611f27919061258b565b600060405180830381865afa158015611f44573d6000803e3d6000fd5b505050506040513d6000823e3d601f19601f82011682018060405250810190611f6d91906136b2565b9150505b919050565b6000600860009054906101000a900473ffffffffffffffffffffffffffffffffffffffff1673ffffffffffffffffffffffffffffffffffffffff168273ffffffffffffffffffffffffffffffffffffffff16149050919050565b600061201b7f08267719000000000000000000000000000000000000000000000000000000008373ffffffffffffffffffffffffffffffffffffffff166120c790919063ffffffff16565b80156120c057503073ffffffffffffffffffffffffffffffffffffffff168273ffffffffffffffffffffffffffffffffffffffff1663f200670d6040518163ffffffff1660e01b8152600401602060405180830381865afa158015612084573d6000803e3d6000fd5b505050506040513d601f19601f820116820180604052508101906120a891906139c3565b73ffffffffffffffffffffffffffffffffffffffff16145b9050919050565b60006120d2836120ec565b80156120e457506120e38383612139565b5b905092915050565b6000612118827f01ffc9a700000000000000000000000000000000000000000000000000000000612139565b801561213257506121308263ffffffff60e01b612139565b155b9050919050565b6000806301ffc9a760e01b8360405160240161215591906139ff565b604051602081830303815290604052907bffffffffffffffffffffffffffffffffffffffffffffffffffffffff19166020820180517bffffffffffffffffffffffffffffffffffffffffffffffffffffffff838183161783525050505090506000808573ffffffffffffffffffffffffffffffffffffffff16617530846040516121df9190613a56565b6000604051808303818686fa925050503d806000811461221b576040519150601f19603f3d011682016040523d82523d6000602084013e612220565b606091505b509150915060208151101561223b576000935050505061225e565b8180156122585750808060200190518101906122579190613a99565b5b93505050505b92915050565b6000604051905090565b600080fd5b600080fd5b60007fffffffff0000000000000000000000000000000000000000000000000000000082169050919050565b6122ad81612278565b81146122b857600080fd5b50565b6000813590506122ca816122a4565b92915050565b6000602082840312156122e6576122e561226e565b5b60006122f4848285016122bb565b91505092915050565b60008115159050919050565b612312816122fd565b82525050565b600060208201905061232d6000830184612309565b92915050565b600073ffffffffffffffffffffffffffffffffffffffff82169050919050565b600061235e82612333565b9050919050565b61236e81612353565b811461237957600080fd5b50565b60008135905061238b81612365565b92915050565b6000819050919050565b6123a481612391565b81146123af57600080fd5b50565b6000813590506123c18161239b565b92915050565b600080fd5b600080fd5b6000601f19601f8301169050919050565b7f4e487b7100000000000000000000000000000000000000000000000000000000600052604160045260246000fd5b61241a826123d1565b810181811067ffffffffffffffff82111715612439576124386123e2565b5b80604052505050565b600061244c612264565b90506124588282612411565b919050565b600067ffffffffffffffff821115612478576124776123e2565b5b612481826123d1565b9050602081019050919050565b82818337600083830152505050565b60006124b06124ab8461245d565b612442565b9050828152602081018484840111156124cc576124cb6123cc565b5b6124d784828561248e565b509392505050565b600082601f8301126124f4576124f36123c7565b5b813561250484826020860161249d565b91505092915050565b6000806000606084860312156125265761252561226e565b5b60006125348682870161237c565b9350506020612545868287016123b2565b925050604084013567ffffffffffffffff81111561256657612565612273565b5b612572868287016124df565b9150509250925092565b61258581612391565b82525050565b60006020820190506125a0600083018461257c565b92915050565b600080600080608085870312156125c0576125bf61226e565b5b60006125ce8782880161237c565b94505060206125df8782880161237c565b93505060406125f0878288016123b2565b9250506060612601878288016123b2565b91505092959194509250565b600080604083850312156126245761262361226e565b5b60006126328582860161237c565b92505060206126438582860161237c565b9150509250929050565b6000602082840312156126635761266261226e565b5b60006126718482850161237c565b91505092915050565b61268381612353565b82525050565b600060208201905061269e600083018461267a565b92915050565b600067ffffffffffffffff8211156126bf576126be6123e2565b5b602082029050602081019050919050565b600080fd5b60006126e86126e3846126a4565b612442565b9050808382526020820190506020840283018581111561270b5761270a6126d0565b5b835b81811015612734578061272088826123b2565b84526020840193505060208101905061270d565b5050509392505050565b600082601f830112612753576127526123c7565b5b81356127638482602086016126d5565b91505092915050565b600080600080608085870312156127865761278561226e565b5b60006127948782880161237c565b94505060206127a58782880161237c565b935050604085013567ffffffffffffffff8111156127c6576127c5612273565b5b6127d28782880161273e565b925050606085013567ffffffffffffffff8111156127f3576127f2612273565b5b6127ff8782880161273e565b91505092959194509250565b6000602082840312156128215761282061226e565b5b600061282f848285016123b2565b91505092915050565b600080600080608085870312156128525761285161226e565b5b60006128608782880161237c565b9450506020612871878288016123b2565b9350506040612882878288016123b2565b925050606085013567ffffffffffffffff8111156128a3576128a2612273565b5b6128af878288016124df565b91505092959194509250565b600081519050919050565b600082825260208201905092915050565b60005b838110156128f55780820151818401526020810190506128da565b83811115612904576000848401525b50505050565b6000612915826128bb565b61291f81856128c6565b935061292f8185602086016128d7565b612938816123d1565b840191505092915050565b6000602082019050818103600083015261295d818461290a565b905092915050565b7f4d65746176657273653a207468652073656e646572206d75737420626520612060008201527f706c75672d696e00000000000000000000000000000000000000000000000000602082015250565b60006129c16027836128c6565b91506129cc82612965565b604082019050919050565b600060208201905081810360008301526129f0816129b4565b9050919050565b7f4d65746176657273653a206e6f7420612074797065207265676973746572656460008201527f206279207468697320706c75672d696e00000000000000000000000000000000602082015250565b6000612a536030836128c6565b9150612a5e826129f7565b604082019050919050565b60006020820190508181036000830152612a8281612a46565b9050919050565b7f4d65746176657273653a20746865207370656369666965642076616c7565206960008201527f73206e6f7420696e20746865206e66742072616e676500000000000000000000602082015250565b6000612ae56036836128c6565b9150612af082612a89565b604082019050919050565b60006020820190508181036000830152612b1481612ad8565b9050919050565b7f4d65746176657273653a204e465420747970657320302028696e76616c69642960008201527f20616e64203120286272616e64292063616e6e6f74206265206d696e74656400602082015250565b6000612b77603f836128c6565b9150612b8282612b1b565b604082019050919050565b60006020820190508181036000830152612ba681612b6a565b9050919050565b7f4d65746176657273653a2063616e6e6f74206d696e74206d6f7265204e465473600082015250565b6000612be36020836128c6565b9150612bee82612bad565b602082019050919050565b60006020820190508181036000830152612c1281612bd6565b9050919050565b7f4e487b7100000000000000000000000000000000000000000000000000000000600052601160045260246000fd5b6000612c5382612391565b9150612c5e83612391565b9250827fffffffffffffffffffffffffffffffffffffffffffffffffffffffffffffffff03821115612c9357612c92612c19565b5b828201905092915050565b6000819050919050565b6000819050919050565b6000612ccd612cc8612cc384612c9e565b612ca8565b612391565b9050919050565b612cdd81612cb2565b82525050565b600081519050919050565b600082825260208201905092915050565b6000612d0a82612ce3565b612d148185612cee565b9350612d248185602086016128d7565b612d2d816123d1565b840191505092915050565b6000608082019050612d4d600083018761267a565b612d5a602083018661257c565b612d676040830185612cd4565b8181036060830152612d798184612cff565b905095945050505050565b7f4d65746176657273653a20746865206f6e6c7920616c6c6f7765642073656e6460008201527f6572206973207468652065636f6e6f6d792073797374656d0000000000000000602082015250565b6000612de06038836128c6565b9150612deb82612d84565b604082019050919050565b60006020820190508181036000830152612e0f81612dd3565b9050919050565b7f4d65746176657273653a20746865206f6e6c7920616c6c6f7765642073656e6460008201527f657220697320746865206272616e642072656769737472790000000000000000602082015250565b6000612e726038836128c6565b9150612e7d82612e16565b604082019050919050565b60006020820190508181036000830152612ea181612e65565b9050919050565b7f4d65746176657273653a204d696e74696e672061206272616e64000000000000600082015250565b6000612ede601a83612cee565b9150612ee982612ea8565b602082019050919050565b6000608082019050612f09600083018661267a565b612f16602083018561257c565b612f236040830184612cd4565b8181036060830152612f3481612ed1565b9050949350505050565b7f4d65746176657273653a2063616e6e6f7420646566696e65206d6f7265204e4660008201527f5420747970657300000000000000000000000000000000000000000000000000602082015250565b6000612f9a6027836128c6565b9150612fa582612f3e565b604082019050919050565b60006020820190508181036000830152612fc981612f8d565b9050919050565b7f4e487b7100000000000000000000000000000000000000000000000000000000600052603260045260246000fd5b600061300a82612391565b91507fffffffffffffffffffffffffffffffffffffffffffffffffffffffffffffffff82141561303d5761303c612c19565b5b600182019050919050565b600060408201905061305d600083018561267a565b61306a602083018461267a565b9392505050565b7f4d65746176657273653a20746865207370656369666965642076616c7565206960008201527f73206e6f7420696e207468652066756e6769626c6520746f6b656e732072616e60208201527f6765000000000000000000000000000000000000000000000000000000000000604082015250565b60006130f36042836128c6565b91506130fe82613071565b606082019050919050565b60006020820190508181036000830152613122816130e6565b9050919050565b600060808201905061313e600083018761267a565b61314b602083018661257c565b613158604083018561257c565b818103606083015261316a8184612cff565b905095945050505050565b7f4d65746176657273653a207468652073656e646572206973206e6f7420616c6c60008201527f6f77656420746f207365742074686520706c75672d696e000000000000000000602082015250565b60006131d16037836128c6565b91506131dc82613175565b604082019050919050565b60006020820190508181036000830152613200816131c4565b9050919050565b7f4d65746176657273653a20746865206164647265737320646f6573206e6f742060008201527f62656c6f6e6720746f20612076616c6964206272616e6420726567697374727960208201527f20636f6e747261637420666f722074686973206d657461766572736500000000604082015250565b6000613289605c836128c6565b915061329482613207565b606082019050919050565b600060208201905081810360008301526132b88161327c565b9050919050565b7f4d65746176657273653a2061206272616e64207265676973747279206973206160008201527f6c72656164792073657420696e746f2074686973206d65746176657273650000602082015250565b600061331b603e836128c6565b9150613326826132bf565b604082019050919050565b6000602082019050818103600083015261334a8161330e565b9050919050565b7f4d65746176657273653a207468652073656e646572206973206e6f7420616c6c60008201527f6f77656420746f20736574207468652065636f6e6f6d79000000000000000000602082015250565b60006133ad6037836128c6565b91506133b882613351565b604082019050919050565b600060208201905081810360008301526133dc816133a0565b9050919050565b7f4d65746176657273653a20746865206164647265737320646f6573206e6f742060008201527f62656c6f6e6720746f20612076616c69642065636f6e6f6d7920636f6e74726160208201527f637420666f722074686973206d65746176657273650000000000000000000000604082015250565b60006134656055836128c6565b9150613470826133e3565b606082019050919050565b6000602082019050818103600083015261349481613458565b9050919050565b7f4d65746176657273653a20616e2065636f6e6f6d7920697320616c726561647960008201527f2073657420696e746f2074686973206d65746176657273650000000000000000602082015250565b60006134f76038836128c6565b91506135028261349b565b604082019050919050565b60006020820190508181036000830152613526816134ea565b9050919050565b7f4d65746176657273653a2063616e6e6f7420646566696e65206d6f726520465460008201527f20747970657320666f7220746869732061646472657373000000000000000000602082015250565b60006135896037836128c6565b91506135948261352d565b604082019050919050565b600060208201905081810360008301526135b88161357c565b9050919050565b600067ffffffffffffffff82169050919050565b60006135de826135bf565b91506135e9836135bf565b92508267ffffffffffffffff0382111561360657613605612c19565b5b828201905092915050565b600067ffffffffffffffff82111561362c5761362b6123e2565b5b613635826123d1565b9050602081019050919050565b600061365561365084613611565b612442565b905082815260208101848484011115613671576136706123cc565b5b61367c8482856128d7565b509392505050565b600082601f830112613699576136986123c7565b5b81516136a9848260208601613642565b91505092915050565b6000602082840312156136c8576136c761226e565b5b600082015167ffffffffffffffff8111156136e6576136e5612273565b5b6136f284828501613684565b91505092915050565b7f4d65746176657273653a207468652073656e646572206973206e6f7420616c6c60008201527f6f77656420746f20616464206120706c75672d696e0000000000000000000000602082015250565b60006137576035836128c6565b9150613762826136fb565b604082019050919050565b600060208201905081810360008301526137868161374a565b9050919050565b7f4d65746176657273653a20746865206164647265737320646f6573206e6f742060008201527f62656c6f6e6720746f20612076616c696420706c75672d696e20636f6e74726160208201527f637420666f722074686973206d65746176657273650000000000000000000000604082015250565b600061380f6055836128c6565b915061381a8261378d565b606082019050919050565b6000602082019050818103600083015261383e81613802565b9050919050565b7f4d65746176657273653a2074686520706c75672d696e20697320616c7265616460008201527f7920616464656420746f2074686973206d657461766572736500000000000000602082015250565b60006138a16039836128c6565b91506138ac82613845565b604082019050919050565b600060208201905081810360008301526138d081613894565b9050919050565b7f4d65746176657273653a206272616e64732063616e6e6f74206265206275726e60008201527f6564000000000000000000000000000000000000000000000000000000000000602082015250565b60006139336022836128c6565b915061393e826138d7565b604082019050919050565b6000602082019050818103600083015261396281613926565b9050919050565b600060808201905061397e600083018761267a565b61398b602083018661267a565b613998604083018561257c565b6139a5606083018461257c565b95945050505050565b6000815190506139bd81612365565b92915050565b6000602082840312156139d9576139d861226e565b5b60006139e7848285016139ae565b91505092915050565b6139f981612278565b82525050565b6000602082019050613a1460008301846139f0565b92915050565b600081905092915050565b6000613a3082612ce3565b613a3a8185613a1a565b9350613a4a8185602086016128d7565b80840191505092915050565b6000613a628284613a25565b915081905092915050565b613a76816122fd565b8114613a8157600080fd5b50565b600081519050613a9381613a6d565b92915050565b600060208284031215613aaf57613aae61226e565b5b6000613abd84828501613a84565b9150509291505056fea2646970667358221220ec087a4219fa0706cec5f3a462358133ea2c56bc39344f5a5e1d31a57727d0cf64736f6c634300080a0033",
  "immutableReferences": {},
  "source": "// SPDX-License-Identifier: MIT\npragma solidity >=0.8 <0.9.0;\n\nimport \"../Metaverse.sol\";\n\ncontract SampleMetaverse is Metaverse {\n    /**\n     * The deployer of this metaverse.\n     */\n    address public deployer;\n\n    constructor() {\n        deployer = _msgSender();\n    }\n\n    /**\n     * Adding the plug-ins is only allowed to the deployer.\n     */\n    function _canAddPlugin(address _sender) internal view override returns (bool) {\n        return _sender == deployer;\n    }\n\n    /**\n     * Setting the brand registry is only allowed to the deployer.\n     */\n    function _canSetBrandRegistry(address _sender) internal view override returns (bool) {\n        return _sender == deployer;\n    }\n\n    /**\n     * Setting the economy system is only allowed to the deployer.\n     */\n    function _canSetEconomy(address _sender) internal view override returns (bool) {\n        return _sender == deployer;\n    }\n}\n",
  "sourcePath": "/home/luismasuelli/Projects/OuterMaze/lingr-contracts/contracts/lingr/samples/SampleMetaverse.sol",
  "compiler": {
    "name": "solc",
    "version": "0.8.10+commit.fc410830.Emscripten.clang"
  },
  "schemaVersion": "3.4.3",
  "updatedAt": "2022-08-11T19:24:44.069Z",
  "devdoc": {
    "kind": "dev",
    "methods": {},
    "version": 1
  },
  "userdoc": {
    "kind": "user",
    "methods": {
      "addPlugin(address)": {
        "notice": "Adds a plug-in contract to this metaverse."
      },
      "brandRegistry()": {
        "notice": "The linked brand registry for this metaverse."
      },
      "defineNextFTType(address)": {
        "notice": "Defines the resolution of a fungible token type. The token id must be in the range of the fungible token ids."
      },
      "defineNextNFTType()": {
        "notice": "Defines the resolution of a non-fungible token type. The token id must be in the range of the fungible token (type) ids (strictly > 0, strictly < (1 << 255))."
      },
      "deployer()": {
        "notice": "The deployer of this metaverse."
      },
      "economy()": {
        "notice": "The linked economy for this metaverse."
      },
      "mintBrandFor(address,address)": {
        "notice": "Mints a specific brand token for a given user. The brand is stated as its address."
      },
      "mintFTFor(address,uint256,uint256,bytes)": {
        "notice": "Mints a specific fungible token type, in a certain amount."
      },
      "mintNFTFor(address,uint256,bytes)": {
        "notice": "Mints a specific non-fungible token type, using a specific type (and always using an amount of 1). It is an error if the chosen type is unknown or < 2, since those types are reserved for being invalid or brands. Also, it is an error if the chosen type is not for that plug-in."
      },
      "nftTypes(uint256)": {
        "notice": "Now, each NFT id will be registered here along its token type. The difference with the fungible tokens (they're already registered in the `tokenTypes` mapping) is that they need to be registered with a particular token type. Also, both the NFT id and its associated token type will be lower than (1<<255) since, otherwise, they would be using values corresponding to the FT side (both for IDs and type indices). Brand NFTs are not included in this mapping (they are only characterized by being < (1 << 160))."
      },
      "onBrandOwnerChanged(address,address)": {
        "notice": "Hook to be invoked as part of a transfer from ERC1155."
      },
      "onTokenBurned(address,address,uint256,uint256)": {
        "notice": "Hook to be invoked as part of a burn process when an address burns a particular token in some quantity (for NFTs, the quantity is 1 in every case). By this point, we should be guaranteed that the _tokenId will actually have a resolver (being it a fungible token type, or being it a non-fungible token id). Also, the operator will be specified (perhaps matching the owner)."
      },
      "onTokensBurned(address,address,uint256[],uint256[])": {
        "notice": "Hook to be invoked as part of a batch burn process when an address burns a particulars et of tokens in respective quantities (for NFTs, the quantity is 1 in every case; it is guaranteed that both arrays are always of the same length. Also, the operator will be specified (perhaps matching the owner)."
      },
      "plugins(address)": {
        "notice": "This is the list of plug-ins that are being added to the hub. Each contract has its separate logic but they have access to the same set of features. Once a contract is added, it will never be removed from this list. This mapping tells whether a contract in particular has permission(s) to define a type and mint tokens for an address."
      },
      "setBrandRegistry(address)": {
        "notice": "Adds a plug-in contract to this metaverse."
      },
      "setEconomy(address)": {
        "notice": "Set the economy contract to this metaverse."
      },
      "supportsInterface(bytes4)": {
        "notice": "A metaverse satisfies the IMetaverse and IERC165 interfaces."
      },
      "tokenTypeResolvers(uint256)": {
        "notice": "Types are identified as integer values, and each registered type will have a non-zero responsible address (serving to metadata resolution and also to account for the existence of a given type). The type 1 (0x1) will be the first type, and actually it will be the brand type. Other NFT types will be registered using indices lower to (1<<255), while FT types will be registered using indices greater than or equal to that value (i.e. starting with binary {1}). In the case of the FTs, the index in this mapping is also their token id. This is not the same for NFTs (they have one extra level of indirection since multiple ids might share the same type). A special type id will be regarded as invalid type (i.e. it will not count as NFT nor FT type, but as a non-existent type): 0 (0x0). The responsible serves two purposes: The first one, is to resolve the metadata of a given token id (be it FT or NFT). The second one is to account for one of such tokens being burned. The responsible will actually be one of the registered plug-ins, on each case (save for the brands case, which is resolved by this contract, and the invalid case, which has no resolver)."
      },
      "tokenURI(uint256)": {
        "notice": "Retrieves the metadata uri of a given token. WARNING: This method will consume a lot of gas if invoked inside a transaction, so it is recommended to invoke this method in the context of a CALL, and never in the context of a SEND (even as part of other contract's code)."
      }
    },
    "version": 1
  }
}