{
  "contractName": "SampleMetaverse",
  "abi": [
    {
      "inputs": [],
      "stateMutability": "nonpayable",
      "type": "constructor"
    },
    {
      "inputs": [
        {
          "internalType": "address",
          "name": "_contract",
          "type": "address"
        }
      ],
      "name": "addPlugin",
      "outputs": [],
      "stateMutability": "nonpayable",
      "type": "function"
    },
    {
      "inputs": [],
      "name": "brandRegistry",
      "outputs": [
        {
          "internalType": "address",
          "name": "",
          "type": "address"
        }
      ],
      "stateMutability": "view",
      "type": "function"
    },
    {
      "inputs": [
        {
          "internalType": "uint256",
          "name": "_tokenId",
          "type": "uint256"
        },
        {
          "internalType": "uint256",
          "name": "_amount",
          "type": "uint256"
        }
      ],
      "name": "burnFT",
      "outputs": [],
      "stateMutability": "nonpayable",
      "type": "function"
    },
    {
      "inputs": [
        {
          "internalType": "uint256[]",
          "name": "_tokenIds",
          "type": "uint256[]"
        },
        {
          "internalType": "uint256[]",
          "name": "_amounts",
          "type": "uint256[]"
        }
      ],
      "name": "burnFTs",
      "outputs": [],
      "stateMutability": "nonpayable",
      "type": "function"
    },
    {
      "inputs": [
        {
          "internalType": "uint256",
          "name": "_tokenId",
          "type": "uint256"
        }
      ],
      "name": "burnNFT",
      "outputs": [],
      "stateMutability": "nonpayable",
      "type": "function"
    },
    {
      "inputs": [
        {
          "internalType": "uint256[]",
          "name": "_tokenIds",
          "type": "uint256[]"
        }
      ],
      "name": "burnNFTs",
      "outputs": [],
      "stateMutability": "nonpayable",
      "type": "function"
    },
    {
      "inputs": [
        {
          "internalType": "address",
          "name": "_brandId",
          "type": "address"
        }
      ],
      "name": "defineNextFTType",
      "outputs": [
        {
          "internalType": "uint256",
          "name": "",
          "type": "uint256"
        }
      ],
      "stateMutability": "nonpayable",
      "type": "function"
    },
    {
      "inputs": [],
      "name": "defineNextNFTType",
      "outputs": [
        {
          "internalType": "uint256",
          "name": "",
          "type": "uint256"
        }
      ],
      "stateMutability": "nonpayable",
      "type": "function"
    },
    {
      "inputs": [],
      "name": "deployer",
      "outputs": [
        {
          "internalType": "address",
          "name": "",
          "type": "address"
        }
      ],
      "stateMutability": "view",
      "type": "function"
    },
    {
      "inputs": [],
      "name": "economy",
      "outputs": [
        {
          "internalType": "address",
          "name": "",
          "type": "address"
        }
      ],
      "stateMutability": "view",
      "type": "function"
    },
    {
      "inputs": [
        {
          "internalType": "address",
          "name": "_to",
          "type": "address"
        },
        {
          "internalType": "address",
          "name": "_brandId",
          "type": "address"
        }
      ],
      "name": "mintBrandFor",
      "outputs": [],
      "stateMutability": "nonpayable",
      "type": "function"
    },
    {
      "inputs": [
        {
          "internalType": "address",
          "name": "_to",
          "type": "address"
        },
        {
          "internalType": "uint256",
          "name": "_tokenId",
          "type": "uint256"
        },
        {
          "internalType": "uint256",
          "name": "_amount",
          "type": "uint256"
        },
        {
          "internalType": "bytes",
          "name": "_data",
          "type": "bytes"
        }
      ],
      "name": "mintFTFor",
      "outputs": [],
      "stateMutability": "nonpayable",
      "type": "function"
    },
    {
      "inputs": [
        {
          "internalType": "address",
          "name": "_to",
          "type": "address"
        },
        {
          "internalType": "uint256",
          "name": "_tokenType",
          "type": "uint256"
        },
        {
          "internalType": "bytes",
          "name": "_data",
          "type": "bytes"
        }
      ],
      "name": "mintNFTFor",
      "outputs": [
        {
          "internalType": "uint256",
          "name": "",
          "type": "uint256"
        }
      ],
      "stateMutability": "nonpayable",
      "type": "function"
    },
    {
      "inputs": [
        {
          "internalType": "uint256",
          "name": "",
          "type": "uint256"
        }
      ],
      "name": "nftTypes",
      "outputs": [
        {
          "internalType": "uint256",
          "name": "",
          "type": "uint256"
        }
      ],
      "stateMutability": "view",
      "type": "function"
    },
    {
      "inputs": [
        {
          "internalType": "address",
          "name": "_brandId",
          "type": "address"
        },
        {
          "internalType": "address",
          "name": "_newOwner",
          "type": "address"
        }
      ],
      "name": "onBrandOwnerChanged",
      "outputs": [],
      "stateMutability": "nonpayable",
      "type": "function"
    },
    {
      "inputs": [
        {
          "internalType": "address",
          "name": "_operator",
          "type": "address"
        },
        {
          "internalType": "address",
          "name": "_owner",
          "type": "address"
        },
        {
          "internalType": "uint256",
          "name": "_tokenId",
          "type": "uint256"
        },
        {
          "internalType": "uint256",
          "name": "_amount",
          "type": "uint256"
        }
      ],
      "name": "onTokenBurned",
      "outputs": [],
      "stateMutability": "nonpayable",
      "type": "function"
    },
    {
      "inputs": [
        {
          "internalType": "address",
          "name": "_operator",
          "type": "address"
        },
        {
          "internalType": "address",
          "name": "_owner",
          "type": "address"
        },
        {
          "internalType": "uint256[]",
          "name": "_tokenIds",
          "type": "uint256[]"
        },
        {
          "internalType": "uint256[]",
          "name": "_amounts",
          "type": "uint256[]"
        }
      ],
      "name": "onTokensBurned",
      "outputs": [],
      "stateMutability": "nonpayable",
      "type": "function"
    },
    {
      "inputs": [
        {
          "internalType": "address",
          "name": "",
          "type": "address"
        }
      ],
      "name": "plugins",
      "outputs": [
        {
          "internalType": "bool",
          "name": "",
          "type": "bool"
        }
      ],
      "stateMutability": "view",
      "type": "function"
    },
    {
      "inputs": [
        {
          "internalType": "address",
          "name": "_contract",
          "type": "address"
        }
      ],
      "name": "setBrandRegistry",
      "outputs": [],
      "stateMutability": "nonpayable",
      "type": "function"
    },
    {
      "inputs": [
        {
          "internalType": "address",
          "name": "_contract",
          "type": "address"
        }
      ],
      "name": "setEconomy",
      "outputs": [],
      "stateMutability": "nonpayable",
      "type": "function"
    },
    {
      "inputs": [
        {
          "internalType": "bytes4",
          "name": "interfaceId",
          "type": "bytes4"
        }
      ],
      "name": "supportsInterface",
      "outputs": [
        {
          "internalType": "bool",
          "name": "",
          "type": "bool"
        }
      ],
      "stateMutability": "view",
      "type": "function"
    },
    {
      "inputs": [
        {
          "internalType": "uint256",
          "name": "",
          "type": "uint256"
        }
      ],
      "name": "tokenTypeResolvers",
      "outputs": [
        {
          "internalType": "address",
          "name": "",
          "type": "address"
        }
      ],
      "stateMutability": "view",
      "type": "function"
    },
    {
      "inputs": [
        {
          "internalType": "uint256",
          "name": "_tokenId",
          "type": "uint256"
        }
      ],
      "name": "tokenURI",
      "outputs": [
        {
          "internalType": "string",
          "name": "",
          "type": "string"
        }
      ],
      "stateMutability": "view",
      "type": "function"
    }
  ],
  "bytecode": "0x60806040526002600655740100000000000000000000000000000000000000006007553480156200002f57600080fd5b50620000406200008660201b60201c565b600860006101000a81548173ffffffffffffffffffffffffffffffffffffffff021916908373ffffffffffffffffffffffffffffffffffffffff1602179055506200008e565b600033905090565b614698806200009e6000396000f3fe608060405234801561001057600080fd5b506004361061014d5760003560e01c80638cd6e9a9116100c3578063ba9c5ba91161007c578063ba9c5ba914610398578063c87b56dd146103b4578063d053bfa1146103e4578063d5f3948814610414578063d8867fc814610432578063f981ce7f1461044e5761014d565b80638cd6e9a9146102dc578063a16bc2ae146102f8578063acb8a06014610314578063ad8509b014610330578063b842aa921461034c578063b9225e841461037c5761014d565b80634b12e643116101155780634b12e64314610206578063556112d4146102365780635b1798e4146102545780636b42d6131461027257806379b2ab231461028e5780638820f6bd146102be5761014d565b806301ffc9a71461015257806304a6fdc0146101825780631364c6f7146101b25780631b5dc598146101ce5780632890e0d7146101ea575b600080fd5b61016c60048036038101906101679190612bfa565b61046a565b6040516101799190612c42565b60405180910390f35b61019c60048036038101906101979190612e37565b61053c565b6040516101a99190612eb5565b60405180910390f35b6101cc60048036038101906101c79190612ed0565b61089c565b005b6101e860048036038101906101e39190612f37565b610945565b005b61020460048036038101906101ff9190612f77565b610a88565b005b610220600480360381019061021b9190612fa4565b610c73565b60405161022d9190612c42565b60405180910390f35b61023e610c93565b60405161024b9190612eb5565b60405180910390f35b61025c610e96565b6040516102699190612fe0565b60405180910390f35b61028c600480360381019061028791906130c3565b610ebc565b005b6102a860048036038101906102a39190612f77565b610fbf565b6040516102b59190612eb5565b60405180910390f35b6102c6610fd7565b6040516102d39190612fe0565b60405180910390f35b6102f660048036038101906102f19190612f37565b610ffd565b005b610312600480360381019061030d9190613162565b611127565b005b61032e60048036038101906103299190612fa4565b611361565b005b61034a60048036038101906103459190612fa4565b6114cd565b005b61036660048036038101906103619190612fa4565b611639565b6040516103739190612eb5565b60405180910390f35b610396600480360381019061039191906131e5565b611937565b005b6103b260048036038101906103ad919061322e565b611bf0565b005b6103ce60048036038101906103c99190612f77565b611dc8565b6040516103db91906132f6565b60405180910390f35b6103fe60048036038101906103f99190612f77565b611eeb565b60405161040b9190612fe0565b60405180910390f35b61041c611f1e565b6040516104299190612fe0565b60405180910390f35b61044c60048036038101906104479190612fa4565b611f44565b005b61046860048036038101906104639190613318565b612121565b005b60007f01ffc9a7000000000000000000000000000000000000000000000000000000007bffffffffffffffffffffffffffffffffffffffffffffffffffffffff1916827bffffffffffffffffffffffffffffffffffffffffffffffffffffffff1916148061053557507f25b24ebf000000000000000000000000000000000000000000000000000000007bffffffffffffffffffffffffffffffffffffffffffffffffffffffff1916827bffffffffffffffffffffffffffffffffffffffffffffffffffffffff1916145b9050919050565b6000806000610549612333565b73ffffffffffffffffffffffffffffffffffffffff1673ffffffffffffffffffffffffffffffffffffffff16815260200190815260200160002060009054906101000a900460ff166105d0576040517f08c379a00000000000000000000000000000000000000000000000000000000081526004016105c790613402565b60405180910390fd5b826105d9612333565b73ffffffffffffffffffffffffffffffffffffffff166003600083815260200190815260200160002060009054906101000a900473ffffffffffffffffffffffffffffffffffffffff1673ffffffffffffffffffffffffffffffffffffffff1614610679576040517f08c379a000000000000000000000000000000000000000000000000000000000815260040161067090613494565b60405180910390fd5b837f800000000000000000000000000000000000000000000000000000000000000081106106dc576040517f08c379a00000000000000000000000000000000000000000000000000000000081526004016106d390613526565b60405180910390fd5b6002851015610720576040517f08c379a0000000000000000000000000000000000000000000000000000000008152600401610717906135b8565b60405180910390fd5b6000600754905060007f7fffffffffffffffffffffffffffffffffffffffffffffffffffffffffffffff90505b6001156107cf57808210610796576040517f08c379a000000000000000000000000000000000000000000000000000000000815260040161078d90613624565b60405180910390fd5b60006004600084815260200190815260200160002054146107c5576001826107be9190613673565b91506107ca565b6107cf565b61074d565b6001826107dc9190613673565b600781905550600260009054906101000a900473ffffffffffffffffffffffffffffffffffffffff1673ffffffffffffffffffffffffffffffffffffffff16635b0034fd898460018a6040518563ffffffff1660e01b81526004016108449493929190613763565b600060405180830381600087803b15801561085e57600080fd5b505af1158015610872573d6000803e3d6000fd5b50505050866004600084815260200190815260200160002081905550819450505050509392505050565b600260009054906101000a900473ffffffffffffffffffffffffffffffffffffffff1673ffffffffffffffffffffffffffffffffffffffff166108dd612333565b73ffffffffffffffffffffffffffffffffffffffff1614610933576040517f08c379a000000000000000000000000000000000000000000000000000000000815260040161092a90613821565b60405180910390fd5b61093f8484848461233b565b50505050565b600160009054906101000a900473ffffffffffffffffffffffffffffffffffffffff1673ffffffffffffffffffffffffffffffffffffffff16610986612333565b73ffffffffffffffffffffffffffffffffffffffff16146109dc576040517f08c379a00000000000000000000000000000000000000000000000000000000081526004016109d3906138b3565b60405180910390fd5b600260009054906101000a900473ffffffffffffffffffffffffffffffffffffffff1673ffffffffffffffffffffffffffffffffffffffff16635b0034fd838373ffffffffffffffffffffffffffffffffffffffff1660016040518463ffffffff1660e01b8152600401610a529392919061391f565b600060405180830381600087803b158015610a6c57600080fd5b505af1158015610a80573d6000803e3d6000fd5b505050505050565b600080610a93612333565b73ffffffffffffffffffffffffffffffffffffffff1673ffffffffffffffffffffffffffffffffffffffff16815260200190815260200160002060009054906101000a900460ff16610b1a576040517f08c379a0000000000000000000000000000000000000000000000000000000008152600401610b1190613402565b60405180910390fd5b6004600082815260200190815260200160002054610b36612333565b73ffffffffffffffffffffffffffffffffffffffff166003600083815260200190815260200160002060009054906101000a900473ffffffffffffffffffffffffffffffffffffffff1673ffffffffffffffffffffffffffffffffffffffff1614610bd6576040517f08c379a0000000000000000000000000000000000000000000000000000000008152600401610bcd90613494565b60405180910390fd5b600260009054906101000a900473ffffffffffffffffffffffffffffffffffffffff1673ffffffffffffffffffffffffffffffffffffffff1663f5298aca610c1c612333565b8460016040518463ffffffff1660e01b8152600401610c3d93929190613969565b600060405180830381600087803b158015610c5757600080fd5b505af1158015610c6b573d6000803e3d6000fd5b505050505050565b60006020528060005260406000206000915054906101000a900460ff1681565b6000806000610ca0612333565b73ffffffffffffffffffffffffffffffffffffffff1673ffffffffffffffffffffffffffffffffffffffff16815260200190815260200160002060009054906101000a900460ff16610d27576040517f08c379a0000000000000000000000000000000000000000000000000000000008152600401610d1e90613402565b60405180910390fd5b6000600654905060007f7fffffffffffffffffffffffffffffffffffffffffffffffffffffffffffffff90505b600115610e2257808210610d9d576040517f08c379a0000000000000000000000000000000000000000000000000000000008152600401610d9490613a12565b60405180910390fd5b600073ffffffffffffffffffffffffffffffffffffffff166003600084815260200190815260200160002060009054906101000a900473ffffffffffffffffffffffffffffffffffffffff1673ffffffffffffffffffffffffffffffffffffffff1614610e1857600182610e119190613673565b9150610e1d565b610e22565b610d54565b600182610e2f9190613673565b600681905550610e3d612333565b6003600084815260200190815260200160002060006101000a81548173ffffffffffffffffffffffffffffffffffffffff021916908373ffffffffffffffffffffffffffffffffffffffff160217905550819250505090565b600160009054906101000a900473ffffffffffffffffffffffffffffffffffffffff1681565b600260009054906101000a900473ffffffffffffffffffffffffffffffffffffffff1673ffffffffffffffffffffffffffffffffffffffff16610efd612333565b73ffffffffffffffffffffffffffffffffffffffff1614610f53576040517f08c379a0000000000000000000000000000000000000000000000000000000008152600401610f4a90613821565b60405180910390fd5b60008251905060005b81811015610fb757610fa48686868481518110610f7c57610f7b613a32565b5b6020026020010151868581518110610f9757610f96613a32565b5b602002602001015161233b565b8080610faf90613a61565b915050610f5c565b505050505050565b60046020528060005260406000206000915090505481565b600260009054906101000a900473ffffffffffffffffffffffffffffffffffffffff1681565b600260009054906101000a900473ffffffffffffffffffffffffffffffffffffffff1673ffffffffffffffffffffffffffffffffffffffff1661103e612333565b73ffffffffffffffffffffffffffffffffffffffff1614611094576040517f08c379a000000000000000000000000000000000000000000000000000000000815260040161108b90613821565b60405180910390fd5b600160009054906101000a900473ffffffffffffffffffffffffffffffffffffffff1673ffffffffffffffffffffffffffffffffffffffff16638cd6e9a983836040518363ffffffff1660e01b81526004016110f1929190613aaa565b600060405180830381600087803b15801561110b57600080fd5b505af115801561111f573d6000803e3d6000fd5b505050505050565b600080611132612333565b73ffffffffffffffffffffffffffffffffffffffff1673ffffffffffffffffffffffffffffffffffffffff16815260200190815260200160002060009054906101000a900460ff166111b9576040517f08c379a00000000000000000000000000000000000000000000000000000000081526004016111b090613402565b60405180910390fd5b826111c2612333565b73ffffffffffffffffffffffffffffffffffffffff166003600083815260200190815260200160002060009054906101000a900473ffffffffffffffffffffffffffffffffffffffff1673ffffffffffffffffffffffffffffffffffffffff1614611262576040517f08c379a000000000000000000000000000000000000000000000000000000000815260040161125990613494565b60405180910390fd5b837f80000000000000000000000000000000000000000000000000000000000000008110156112c6576040517f08c379a00000000000000000000000000000000000000000000000000000000081526004016112bd90613b6b565b60405180910390fd5b600260009054906101000a900473ffffffffffffffffffffffffffffffffffffffff1673ffffffffffffffffffffffffffffffffffffffff16635b0034fd878787876040518563ffffffff1660e01b81526004016113279493929190613b8b565b600060405180830381600087803b15801561134157600080fd5b505af1158015611355573d6000803e3d6000fd5b50505050505050505050565b61137161136c612333565b6124ef565b6113b0576040517f08c379a00000000000000000000000000000000000000000000000000000000081526004016113a790613c49565b60405180910390fd5b6113b981612549565b6113f8576040517f08c379a00000000000000000000000000000000000000000000000000000000081526004016113ef90613d01565b60405180910390fd5b600073ffffffffffffffffffffffffffffffffffffffff16600160009054906101000a900473ffffffffffffffffffffffffffffffffffffffff1673ffffffffffffffffffffffffffffffffffffffff1614611489576040517f08c379a000000000000000000000000000000000000000000000000000000000815260040161148090613d93565b60405180910390fd5b80600160006101000a81548173ffffffffffffffffffffffffffffffffffffffff021916908373ffffffffffffffffffffffffffffffffffffffff16021790555050565b6114dd6114d8612333565b612640565b61151c576040517f08c379a000000000000000000000000000000000000000000000000000000000815260040161151390613e25565b60405180910390fd5b6115258161269a565b611564576040517f08c379a000000000000000000000000000000000000000000000000000000000815260040161155b90613edd565b60405180910390fd5b600073ffffffffffffffffffffffffffffffffffffffff16600260009054906101000a900473ffffffffffffffffffffffffffffffffffffffff1673ffffffffffffffffffffffffffffffffffffffff16146115f5576040517f08c379a00000000000000000000000000000000000000000000000000000000081526004016115ec90613f6f565b60405180910390fd5b80600260006101000a81548173ffffffffffffffffffffffffffffffffffffffff021916908373ffffffffffffffffffffffffffffffffffffffff16021790555050565b6000806000611646612333565b73ffffffffffffffffffffffffffffffffffffffff1673ffffffffffffffffffffffffffffffffffffffff16815260200190815260200160002060009054906101000a900460ff166116cd576040517f08c379a00000000000000000000000000000000000000000000000000000000081526004016116c490613402565b60405180910390fd5b6000600560008473ffffffffffffffffffffffffffffffffffffffff1673ffffffffffffffffffffffffffffffffffffffff16815260200190815260200160002060009054906101000a900467ffffffffffffffff16905060008167ffffffffffffffff1660408573ffffffffffffffffffffffffffffffffffffffff16901b7f8000000000000000000000000000000000000000000000000000000000000000171790505b6001156118625767ffffffffffffffff8267ffffffffffffffff16106117ce576040517f08c379a00000000000000000000000000000000000000000000000000000000081526004016117c590614001565b60405180910390fd5b600073ffffffffffffffffffffffffffffffffffffffff166003600083815260200190815260200160002060009054906101000a900473ffffffffffffffffffffffffffffffffffffffff1673ffffffffffffffffffffffffffffffffffffffff1614611858576001826118429190614035565b91506001816118519190613673565b905061185d565b611862565b611773565b60018261186f9190614035565b600560008673ffffffffffffffffffffffffffffffffffffffff1673ffffffffffffffffffffffffffffffffffffffff16815260200190815260200160002060006101000a81548167ffffffffffffffff021916908367ffffffffffffffff1602179055506118dc612333565b6003600083815260200190815260200160002060006101000a81548173ffffffffffffffffffffffffffffffffffffffff021916908373ffffffffffffffffffffffffffffffffffffffff1602179055508092505050919050565b600080611942612333565b73ffffffffffffffffffffffffffffffffffffffff1673ffffffffffffffffffffffffffffffffffffffff16815260200190815260200160002060009054906101000a900460ff166119c9576040517f08c379a00000000000000000000000000000000000000000000000000000000081526004016119c090613402565b60405180910390fd5b8060005b8151811015611abe576119de612333565b73ffffffffffffffffffffffffffffffffffffffff166003600060046000868681518110611a0f57611a0e613a32565b5b6020026020010151815260200190815260200160002054815260200190815260200160002060009054906101000a900473ffffffffffffffffffffffffffffffffffffffff1673ffffffffffffffffffffffffffffffffffffffff1614611aab576040517f08c379a0000000000000000000000000000000000000000000000000000000008152600401611aa290613494565b60405180910390fd5b8080611ab690613a61565b9150506119cd565b5060008251905060008167ffffffffffffffff811115611ae157611ae0612d0c565b5b604051908082528060200260200182016040528015611b0f5781602001602082028036833780820191505090505b50905060005b82811015611b51576001828281518110611b3257611b31613a32565b5b6020026020010181815250508080611b4990613a61565b915050611b15565b50600260009054906101000a900473ffffffffffffffffffffffffffffffffffffffff1673ffffffffffffffffffffffffffffffffffffffff16636b20c454611b98612333565b86846040518463ffffffff1660e01b8152600401611bb893929190614131565b600060405180830381600087803b158015611bd257600080fd5b505af1158015611be6573d6000803e3d6000fd5b5050505050505050565b600080611bfb612333565b73ffffffffffffffffffffffffffffffffffffffff1673ffffffffffffffffffffffffffffffffffffffff16815260200190815260200160002060009054906101000a900460ff16611c82576040517f08c379a0000000000000000000000000000000000000000000000000000000008152600401611c7990613402565b60405180910390fd5b81611c8b612333565b73ffffffffffffffffffffffffffffffffffffffff166003600083815260200190815260200160002060009054906101000a900473ffffffffffffffffffffffffffffffffffffffff1673ffffffffffffffffffffffffffffffffffffffff1614611d2b576040517f08c379a0000000000000000000000000000000000000000000000000000000008152600401611d2290613494565b60405180910390fd5b600260009054906101000a900473ffffffffffffffffffffffffffffffffffffffff1673ffffffffffffffffffffffffffffffffffffffff1663f5298aca611d71612333565b85856040518463ffffffff1660e01b8152600401611d9193929190614176565b600060405180830381600087803b158015611dab57600080fd5b505af1158015611dbf573d6000803e3d6000fd5b50505050505050565b606074010000000000000000000000000000000000000000821015611e8f57600160009054906101000a900473ffffffffffffffffffffffffffffffffffffffff1673ffffffffffffffffffffffffffffffffffffffff16639896c31d836040518263ffffffff1660e01b8152600401611e429190612fe0565b600060405180830381865afa158015611e5f573d6000803e3d6000fd5b505050506040513d6000823e3d601f19601f82011682018060405250810190611e88919061424e565b9050611ee6565b7f8000000000000000000000000000000000000000000000000000000000000000821015611eda57611ed36004600084815260200190815260200160002054612791565b9050611ee6565b611ee382612791565b90505b919050565b60036020528060005260406000206000915054906101000a900473ffffffffffffffffffffffffffffffffffffffff1681565b600860009054906101000a900473ffffffffffffffffffffffffffffffffffffffff1681565b611f54611f4f612333565b6128a0565b611f93576040517f08c379a0000000000000000000000000000000000000000000000000000000008152600401611f8a90614309565b60405180910390fd5b611f9c816128fa565b611fdb576040517f08c379a0000000000000000000000000000000000000000000000000000000008152600401611fd2906143c1565b60405180910390fd5b6000808273ffffffffffffffffffffffffffffffffffffffff1673ffffffffffffffffffffffffffffffffffffffff16815260200190815260200160002060009054906101000a900460ff1615612067576040517f08c379a000000000000000000000000000000000000000000000000000000000815260040161205e90614453565b60405180910390fd5b60016000808373ffffffffffffffffffffffffffffffffffffffff1673ffffffffffffffffffffffffffffffffffffffff16815260200190815260200160002060006101000a81548160ff0219169083151502179055508073ffffffffffffffffffffffffffffffffffffffff16638129fc1c6040518163ffffffff1660e01b8152600401600060405180830381600087803b15801561210657600080fd5b505af115801561211a573d6000803e3d6000fd5b5050505050565b60008061212c612333565b73ffffffffffffffffffffffffffffffffffffffff1673ffffffffffffffffffffffffffffffffffffffff16815260200190815260200160002060009054906101000a900460ff166121b3576040517f08c379a00000000000000000000000000000000000000000000000000000000081526004016121aa90613402565b60405180910390fd5b8160005b8151811015612295576121c8612333565b73ffffffffffffffffffffffffffffffffffffffff16600360008484815181106121f5576121f4613a32565b5b6020026020010151815260200190815260200160002060009054906101000a900473ffffffffffffffffffffffffffffffffffffffff1673ffffffffffffffffffffffffffffffffffffffff1614612282576040517f08c379a000000000000000000000000000000000000000000000000000000000815260040161227990613494565b60405180910390fd5b808061228d90613a61565b9150506121b7565b50600260009054906101000a900473ffffffffffffffffffffffffffffffffffffffff1673ffffffffffffffffffffffffffffffffffffffff16636b20c4546122dc612333565b85856040518463ffffffff1660e01b81526004016122fc93929190614131565b600060405180830381600087803b15801561231657600080fd5b505af115801561232a573d6000803e3d6000fd5b50505050505050565b600033905090565b74010000000000000000000000000000000000000000821015612393576040517f08c379a000000000000000000000000000000000000000000000000000000000815260040161238a906144e5565b60405180910390fd5b60007f800000000000000000000000000000000000000000000000000000000000000083101561240b57600360006004600086815260200190815260200160002054815260200190815260200160002060009054906101000a900473ffffffffffffffffffffffffffffffffffffffff169050612442565b6003600084815260200190815260200160002060009054906101000a900473ffffffffffffffffffffffffffffffffffffffff1690505b600073ffffffffffffffffffffffffffffffffffffffff168173ffffffffffffffffffffffffffffffffffffffff16146124e8578073ffffffffffffffffffffffffffffffffffffffff16633fff0d18868686866040518563ffffffff1660e01b81526004016124b59493929190614505565b600060405180830381600087803b1580156124cf57600080fd5b505af11580156124e3573d6000803e3d6000fd5b505050505b5050505050565b6000600860009054906101000a900473ffffffffffffffffffffffffffffffffffffffff1673ffffffffffffffffffffffffffffffffffffffff168273ffffffffffffffffffffffffffffffffffffffff16149050919050565b60006125947f9b151866000000000000000000000000000000000000000000000000000000008373ffffffffffffffffffffffffffffffffffffffff166129f190919063ffffffff16565b801561263957503073ffffffffffffffffffffffffffffffffffffffff168273ffffffffffffffffffffffffffffffffffffffff1663f200670d6040518163ffffffff1660e01b8152600401602060405180830381865afa1580156125fd573d6000803e3d6000fd5b505050506040513d601f19601f82011682018060405250810190612621919061455f565b73ffffffffffffffffffffffffffffffffffffffff16145b9050919050565b6000600860009054906101000a900473ffffffffffffffffffffffffffffffffffffffff1673ffffffffffffffffffffffffffffffffffffffff168273ffffffffffffffffffffffffffffffffffffffff16149050919050565b60006126e57f37091d6e000000000000000000000000000000000000000000000000000000008373ffffffffffffffffffffffffffffffffffffffff166129f190919063ffffffff16565b801561278a57503073ffffffffffffffffffffffffffffffffffffffff168273ffffffffffffffffffffffffffffffffffffffff1663f200670d6040518163ffffffff1660e01b8152600401602060405180830381865afa15801561274e573d6000803e3d6000fd5b505050506040513d601f19601f82011682018060405250810190612772919061455f565b73ffffffffffffffffffffffffffffffffffffffff16145b9050919050565b606060006003600084815260200190815260200160002060009054906101000a900473ffffffffffffffffffffffffffffffffffffffff169050600073ffffffffffffffffffffffffffffffffffffffff168173ffffffffffffffffffffffffffffffffffffffff161415612818576040518060200160405280600081525091505061289b565b8073ffffffffffffffffffffffffffffffffffffffff16630e89341c846040518263ffffffff1660e01b81526004016128519190612eb5565b600060405180830381865afa15801561286e573d6000803e3d6000fd5b505050506040513d6000823e3d601f19601f82011682018060405250810190612897919061424e565b9150505b919050565b6000600860009054906101000a900473ffffffffffffffffffffffffffffffffffffffff1673ffffffffffffffffffffffffffffffffffffffff168273ffffffffffffffffffffffffffffffffffffffff16149050919050565b60006129457f08267719000000000000000000000000000000000000000000000000000000008373ffffffffffffffffffffffffffffffffffffffff166129f190919063ffffffff16565b80156129ea57503073ffffffffffffffffffffffffffffffffffffffff168273ffffffffffffffffffffffffffffffffffffffff1663f200670d6040518163ffffffff1660e01b8152600401602060405180830381865afa1580156129ae573d6000803e3d6000fd5b505050506040513d601f19601f820116820180604052508101906129d2919061455f565b73ffffffffffffffffffffffffffffffffffffffff16145b9050919050565b60006129fc83612a16565b8015612a0e5750612a0d8383612a63565b5b905092915050565b6000612a42827f01ffc9a700000000000000000000000000000000000000000000000000000000612a63565b8015612a5c5750612a5a8263ffffffff60e01b612a63565b155b9050919050565b6000806301ffc9a760e01b83604051602401612a7f919061459b565b604051602081830303815290604052907bffffffffffffffffffffffffffffffffffffffffffffffffffffffff19166020820180517bffffffffffffffffffffffffffffffffffffffffffffffffffffffff838183161783525050505090506000808573ffffffffffffffffffffffffffffffffffffffff1661753084604051612b0991906145f2565b6000604051808303818686fa925050503d8060008114612b45576040519150601f19603f3d011682016040523d82523d6000602084013e612b4a565b606091505b5091509150602081511015612b655760009350505050612b88565b818015612b82575080806020019051810190612b819190614635565b5b93505050505b92915050565b6000604051905090565b600080fd5b600080fd5b60007fffffffff0000000000000000000000000000000000000000000000000000000082169050919050565b612bd781612ba2565b8114612be257600080fd5b50565b600081359050612bf481612bce565b92915050565b600060208284031215612c1057612c0f612b98565b5b6000612c1e84828501612be5565b91505092915050565b60008115159050919050565b612c3c81612c27565b82525050565b6000602082019050612c576000830184612c33565b92915050565b600073ffffffffffffffffffffffffffffffffffffffff82169050919050565b6000612c8882612c5d565b9050919050565b612c9881612c7d565b8114612ca357600080fd5b50565b600081359050612cb581612c8f565b92915050565b6000819050919050565b612cce81612cbb565b8114612cd957600080fd5b50565b600081359050612ceb81612cc5565b92915050565b600080fd5b600080fd5b6000601f19601f8301169050919050565b7f4e487b7100000000000000000000000000000000000000000000000000000000600052604160045260246000fd5b612d4482612cfb565b810181811067ffffffffffffffff82111715612d6357612d62612d0c565b5b80604052505050565b6000612d76612b8e565b9050612d828282612d3b565b919050565b600067ffffffffffffffff821115612da257612da1612d0c565b5b612dab82612cfb565b9050602081019050919050565b82818337600083830152505050565b6000612dda612dd584612d87565b612d6c565b905082815260208101848484011115612df657612df5612cf6565b5b612e01848285612db8565b509392505050565b600082601f830112612e1e57612e1d612cf1565b5b8135612e2e848260208601612dc7565b91505092915050565b600080600060608486031215612e5057612e4f612b98565b5b6000612e5e86828701612ca6565b9350506020612e6f86828701612cdc565b925050604084013567ffffffffffffffff811115612e9057612e8f612b9d565b5b612e9c86828701612e09565b9150509250925092565b612eaf81612cbb565b82525050565b6000602082019050612eca6000830184612ea6565b92915050565b60008060008060808587031215612eea57612ee9612b98565b5b6000612ef887828801612ca6565b9450506020612f0987828801612ca6565b9350506040612f1a87828801612cdc565b9250506060612f2b87828801612cdc565b91505092959194509250565b60008060408385031215612f4e57612f4d612b98565b5b6000612f5c85828601612ca6565b9250506020612f6d85828601612ca6565b9150509250929050565b600060208284031215612f8d57612f8c612b98565b5b6000612f9b84828501612cdc565b91505092915050565b600060208284031215612fba57612fb9612b98565b5b6000612fc884828501612ca6565b91505092915050565b612fda81612c7d565b82525050565b6000602082019050612ff56000830184612fd1565b92915050565b600067ffffffffffffffff82111561301657613015612d0c565b5b602082029050602081019050919050565b600080fd5b600061303f61303a84612ffb565b612d6c565b9050808382526020820190506020840283018581111561306257613061613027565b5b835b8181101561308b57806130778882612cdc565b845260208401935050602081019050613064565b5050509392505050565b600082601f8301126130aa576130a9612cf1565b5b81356130ba84826020860161302c565b91505092915050565b600080600080608085870312156130dd576130dc612b98565b5b60006130eb87828801612ca6565b94505060206130fc87828801612ca6565b935050604085013567ffffffffffffffff81111561311d5761311c612b9d565b5b61312987828801613095565b925050606085013567ffffffffffffffff81111561314a57613149612b9d565b5b61315687828801613095565b91505092959194509250565b6000806000806080858703121561317c5761317b612b98565b5b600061318a87828801612ca6565b945050602061319b87828801612cdc565b93505060406131ac87828801612cdc565b925050606085013567ffffffffffffffff8111156131cd576131cc612b9d565b5b6131d987828801612e09565b91505092959194509250565b6000602082840312156131fb576131fa612b98565b5b600082013567ffffffffffffffff81111561321957613218612b9d565b5b61322584828501613095565b91505092915050565b6000806040838503121561324557613244612b98565b5b600061325385828601612cdc565b925050602061326485828601612cdc565b9150509250929050565b600081519050919050565b600082825260208201905092915050565b60005b838110156132a857808201518184015260208101905061328d565b838111156132b7576000848401525b50505050565b60006132c88261326e565b6132d28185613279565b93506132e281856020860161328a565b6132eb81612cfb565b840191505092915050565b6000602082019050818103600083015261331081846132bd565b905092915050565b6000806040838503121561332f5761332e612b98565b5b600083013567ffffffffffffffff81111561334d5761334c612b9d565b5b61335985828601613095565b925050602083013567ffffffffffffffff81111561337a57613379612b9d565b5b61338685828601613095565b9150509250929050565b7f4d65746176657273653a207468652073656e646572206d75737420626520612060008201527f706c75672d696e00000000000000000000000000000000000000000000000000602082015250565b60006133ec602783613279565b91506133f782613390565b604082019050919050565b6000602082019050818103600083015261341b816133df565b9050919050565b7f4d65746176657273653a206e6f7420612074797065207265676973746572656460008201527f206279207468697320706c75672d696e00000000000000000000000000000000602082015250565b600061347e603083613279565b915061348982613422565b604082019050919050565b600060208201905081810360008301526134ad81613471565b9050919050565b7f4d65746176657273653a20746865207370656369666965642076616c7565206960008201527f73206e6f7420696e20746865206e66742072616e676500000000000000000000602082015250565b6000613510603683613279565b915061351b826134b4565b604082019050919050565b6000602082019050818103600083015261353f81613503565b9050919050565b7f4d65746176657273653a204e465420747970657320302028696e76616c69642960008201527f20616e64203120286272616e64292063616e6e6f74206265206d696e74656400602082015250565b60006135a2603f83613279565b91506135ad82613546565b604082019050919050565b600060208201905081810360008301526135d181613595565b9050919050565b7f4d65746176657273653a2063616e6e6f74206d696e74206d6f7265204e465473600082015250565b600061360e602083613279565b9150613619826135d8565b602082019050919050565b6000602082019050818103600083015261363d81613601565b9050919050565b7f4e487b7100000000000000000000000000000000000000000000000000000000600052601160045260246000fd5b600061367e82612cbb565b915061368983612cbb565b9250827fffffffffffffffffffffffffffffffffffffffffffffffffffffffffffffffff038211156136be576136bd613644565b5b828201905092915050565b6000819050919050565b6000819050919050565b60006136f86136f36136ee846136c9565b6136d3565b612cbb565b9050919050565b613708816136dd565b82525050565b600081519050919050565b600082825260208201905092915050565b60006137358261370e565b61373f8185613719565b935061374f81856020860161328a565b61375881612cfb565b840191505092915050565b60006080820190506137786000830187612fd1565b6137856020830186612ea6565b61379260408301856136ff565b81810360608301526137a4818461372a565b905095945050505050565b7f4d65746176657273653a20746865206f6e6c7920616c6c6f7765642073656e6460008201527f6572206973207468652065636f6e6f6d792073797374656d0000000000000000602082015250565b600061380b603883613279565b9150613816826137af565b604082019050919050565b6000602082019050818103600083015261383a816137fe565b9050919050565b7f4d65746176657273653a20746865206f6e6c7920616c6c6f7765642073656e6460008201527f657220697320746865206272616e642072656769737472790000000000000000602082015250565b600061389d603883613279565b91506138a882613841565b604082019050919050565b600060208201905081810360008301526138cc81613890565b9050919050565b7f4d65746176657273653a204d696e74696e672061206272616e64000000000000600082015250565b6000613909601a83613719565b9150613914826138d3565b602082019050919050565b60006080820190506139346000830186612fd1565b6139416020830185612ea6565b61394e60408301846136ff565b818103606083015261395f816138fc565b9050949350505050565b600060608201905061397e6000830186612fd1565b61398b6020830185612ea6565b61399860408301846136ff565b949350505050565b7f4d65746176657273653a2063616e6e6f7420646566696e65206d6f7265204e4660008201527f5420747970657300000000000000000000000000000000000000000000000000602082015250565b60006139fc602783613279565b9150613a07826139a0565b604082019050919050565b60006020820190508181036000830152613a2b816139ef565b9050919050565b7f4e487b7100000000000000000000000000000000000000000000000000000000600052603260045260246000fd5b6000613a6c82612cbb565b91507fffffffffffffffffffffffffffffffffffffffffffffffffffffffffffffffff821415613a9f57613a9e613644565b5b600182019050919050565b6000604082019050613abf6000830185612fd1565b613acc6020830184612fd1565b9392505050565b7f4d65746176657273653a20746865207370656369666965642076616c7565206960008201527f73206e6f7420696e207468652066756e6769626c6520746f6b656e732072616e60208201527f6765000000000000000000000000000000000000000000000000000000000000604082015250565b6000613b55604283613279565b9150613b6082613ad3565b606082019050919050565b60006020820190508181036000830152613b8481613b48565b9050919050565b6000608082019050613ba06000830187612fd1565b613bad6020830186612ea6565b613bba6040830185612ea6565b8181036060830152613bcc818461372a565b905095945050505050565b7f4d65746176657273653a207468652073656e646572206973206e6f7420616c6c60008201527f6f77656420746f207365742074686520706c75672d696e000000000000000000602082015250565b6000613c33603783613279565b9150613c3e82613bd7565b604082019050919050565b60006020820190508181036000830152613c6281613c26565b9050919050565b7f4d65746176657273653a20746865206164647265737320646f6573206e6f742060008201527f62656c6f6e6720746f20612076616c6964206272616e6420726567697374727960208201527f20636f6e747261637420666f722074686973206d657461766572736500000000604082015250565b6000613ceb605c83613279565b9150613cf682613c69565b606082019050919050565b60006020820190508181036000830152613d1a81613cde565b9050919050565b7f4d65746176657273653a2061206272616e64207265676973747279206973206160008201527f6c72656164792073657420696e746f2074686973206d65746176657273650000602082015250565b6000613d7d603e83613279565b9150613d8882613d21565b604082019050919050565b60006020820190508181036000830152613dac81613d70565b9050919050565b7f4d65746176657273653a207468652073656e646572206973206e6f7420616c6c60008201527f6f77656420746f20736574207468652065636f6e6f6d79000000000000000000602082015250565b6000613e0f603783613279565b9150613e1a82613db3565b604082019050919050565b60006020820190508181036000830152613e3e81613e02565b9050919050565b7f4d65746176657273653a20746865206164647265737320646f6573206e6f742060008201527f62656c6f6e6720746f20612076616c69642065636f6e6f6d7920636f6e74726160208201527f637420666f722074686973206d65746176657273650000000000000000000000604082015250565b6000613ec7605583613279565b9150613ed282613e45565b606082019050919050565b60006020820190508181036000830152613ef681613eba565b9050919050565b7f4d65746176657273653a20616e2065636f6e6f6d7920697320616c726561647960008201527f2073657420696e746f2074686973206d65746176657273650000000000000000602082015250565b6000613f59603883613279565b9150613f6482613efd565b604082019050919050565b60006020820190508181036000830152613f8881613f4c565b9050919050565b7f4d65746176657273653a2063616e6e6f7420646566696e65206d6f726520465460008201527f20747970657320666f7220746869732061646472657373000000000000000000602082015250565b6000613feb603783613279565b9150613ff682613f8f565b604082019050919050565b6000602082019050818103600083015261401a81613fde565b9050919050565b600067ffffffffffffffff82169050919050565b600061404082614021565b915061404b83614021565b92508267ffffffffffffffff0382111561406857614067613644565b5b828201905092915050565b600081519050919050565b600082825260208201905092915050565b6000819050602082019050919050565b6140a881612cbb565b82525050565b60006140ba838361409f565b60208301905092915050565b6000602082019050919050565b60006140de82614073565b6140e8818561407e565b93506140f38361408f565b8060005b8381101561412457815161410b88826140ae565b9750614116836140c6565b9250506001810190506140f7565b5085935050505092915050565b60006060820190506141466000830186612fd1565b818103602083015261415881856140d3565b9050818103604083015261416c81846140d3565b9050949350505050565b600060608201905061418b6000830186612fd1565b6141986020830185612ea6565b6141a56040830184612ea6565b949350505050565b600067ffffffffffffffff8211156141c8576141c7612d0c565b5b6141d182612cfb565b9050602081019050919050565b60006141f16141ec846141ad565b612d6c565b90508281526020810184848401111561420d5761420c612cf6565b5b61421884828561328a565b509392505050565b600082601f83011261423557614234612cf1565b5b81516142458482602086016141de565b91505092915050565b60006020828403121561426457614263612b98565b5b600082015167ffffffffffffffff81111561428257614281612b9d565b5b61428e84828501614220565b91505092915050565b7f4d65746176657273653a207468652073656e646572206973206e6f7420616c6c60008201527f6f77656420746f20616464206120706c75672d696e0000000000000000000000602082015250565b60006142f3603583613279565b91506142fe82614297565b604082019050919050565b60006020820190508181036000830152614322816142e6565b9050919050565b7f4d65746176657273653a20746865206164647265737320646f6573206e6f742060008201527f62656c6f6e6720746f20612076616c696420706c75672d696e20636f6e74726160208201527f637420666f722074686973206d65746176657273650000000000000000000000604082015250565b60006143ab605583613279565b91506143b682614329565b606082019050919050565b600060208201905081810360008301526143da8161439e565b9050919050565b7f4d65746176657273653a2074686520706c75672d696e20697320616c7265616460008201527f7920616464656420746f2074686973206d657461766572736500000000000000602082015250565b600061443d603983613279565b9150614448826143e1565b604082019050919050565b6000602082019050818103600083015261446c81614430565b9050919050565b7f4d65746176657273653a206272616e64732063616e6e6f74206265206275726e60008201527f6564000000000000000000000000000000000000000000000000000000000000602082015250565b60006144cf602283613279565b91506144da82614473565b604082019050919050565b600060208201905081810360008301526144fe816144c2565b9050919050565b600060808201905061451a6000830187612fd1565b6145276020830186612fd1565b6145346040830185612ea6565b6145416060830184612ea6565b95945050505050565b60008151905061455981612c8f565b92915050565b60006020828403121561457557614574612b98565b5b60006145838482850161454a565b91505092915050565b61459581612ba2565b82525050565b60006020820190506145b0600083018461458c565b92915050565b600081905092915050565b60006145cc8261370e565b6145d681856145b6565b93506145e681856020860161328a565b80840191505092915050565b60006145fe82846145c1565b915081905092915050565b61461281612c27565b811461461d57600080fd5b50565b60008151905061462f81614609565b92915050565b60006020828403121561464b5761464a612b98565b5b600061465984828501614620565b9150509291505056fea26469706673582212203b279499ccfeee46d670eff1d7e591cc848d45266516e10af29f30ef07c7b01e64736f6c634300080a0033",
  "immutableReferences": {},
  "source": "// SPDX-License-Identifier: MIT\npragma solidity >=0.8 <0.9.0;\n\nimport \"../Metaverse.sol\";\n\ncontract SampleMetaverse is Metaverse {\n    /**\n     * The deployer of this metaverse.\n     */\n    address public deployer;\n\n    constructor() {\n        deployer = _msgSender();\n    }\n\n    /**\n     * Adding the plug-ins is only allowed to the deployer.\n     */\n    function _canAddPlugin(address _sender) internal view override returns (bool) {\n        return _sender == deployer;\n    }\n\n    /**\n     * Setting the brand registry is only allowed to the deployer.\n     */\n    function _canSetBrandRegistry(address _sender) internal view override returns (bool) {\n        return _sender == deployer;\n    }\n\n    /**\n     * Setting the economy system is only allowed to the deployer.\n     */\n    function _canSetEconomy(address _sender) internal view override returns (bool) {\n        return _sender == deployer;\n    }\n}\n",
  "sourcePath": "/home/luismasuelli/Projects/OuterMaze/lingr-contracts/contracts/lingr/samples/SampleMetaverse.sol",
  "compiler": {
    "name": "solc",
    "version": "0.8.10+commit.fc410830.Emscripten.clang"
  },
  "schemaVersion": "3.4.3",
  "updatedAt": "2022-08-11T20:31:42.849Z",
  "devdoc": {
    "kind": "dev",
    "methods": {},
    "version": 1
  },
  "userdoc": {
    "kind": "user",
    "methods": {
      "addPlugin(address)": {
        "notice": "Adds a plug-in contract to this metaverse."
      },
      "brandRegistry()": {
        "notice": "The linked brand registry for this metaverse."
      },
      "burnFT(uint256,uint256)": {
        "notice": "Burns any FT the sender has, provided the sender is a plugin and also defines the type of the token being burned."
      },
      "burnFTs(uint256[],uint256[])": {
        "notice": "Burns many FT the sender has, provided the sender is a plugin and also defines the type of the token being burned."
      },
      "burnNFT(uint256)": {
        "notice": "Burns any NFT the sender has, provided the sender is a plugin and also defines the type of the tokens being burned."
      },
      "burnNFTs(uint256[])": {
        "notice": "Burns many NFT the sender has, provided the sender is a plugin and also defines the type of the tokens being burned."
      },
      "defineNextFTType(address)": {
        "notice": "Defines the resolution of a fungible token type. The token id must be in the range of the fungible token ids."
      },
      "defineNextNFTType()": {
        "notice": "Defines the resolution of a non-fungible token type. The token id must be in the range of the fungible token (type) ids (strictly > 0, strictly < (1 << 255))."
      },
      "deployer()": {
        "notice": "The deployer of this metaverse."
      },
      "economy()": {
        "notice": "The linked economy for this metaverse."
      },
      "mintBrandFor(address,address)": {
        "notice": "Mints a specific brand token for a given user. The brand is stated as its address."
      },
      "mintFTFor(address,uint256,uint256,bytes)": {
        "notice": "Mints a specific fungible token type, in a certain amount."
      },
      "mintNFTFor(address,uint256,bytes)": {
        "notice": "Mints a specific non-fungible token type, using a specific type (and always using an amount of 1). It is an error if the chosen type is unknown or < 2, since those types are reserved for being invalid or brands. Also, it is an error if the chosen type is not for that plug-in."
      },
      "nftTypes(uint256)": {
        "notice": "Now, each NFT id will be registered here along its token type. The difference with the fungible tokens (they're already registered in the `tokenTypes` mapping) is that they need to be registered with a particular token type. Also, both the NFT id and its associated token type will be lower than (1<<255) since, otherwise, they would be using values corresponding to the FT side (both for IDs and type indices). Brand NFTs are not included in this mapping (they are only characterized by being < (1 << 160))."
      },
      "onBrandOwnerChanged(address,address)": {
        "notice": "Hook to be invoked as part of a transfer from ERC1155."
      },
      "onTokenBurned(address,address,uint256,uint256)": {
        "notice": "Hook to be invoked as part of a burn process when an address burns a particular token in some quantity (for NFTs, the quantity is 1 in every case). By this point, we should be guaranteed that the _tokenId will actually have a resolver (being it a fungible token type, or being it a non-fungible token id). Also, the operator will be specified (perhaps matching the owner)."
      },
      "onTokensBurned(address,address,uint256[],uint256[])": {
        "notice": "Hook to be invoked as part of a batch burn process when an address burns a particulars et of tokens in respective quantities (for NFTs, the quantity is 1 in every case; it is guaranteed that both arrays are always of the same length. Also, the operator will be specified (perhaps matching the owner)."
      },
      "plugins(address)": {
        "notice": "This is the list of plug-ins that are being added to the hub. Each contract has its separate logic but they have access to the same set of features. Once a contract is added, it will never be removed from this list. This mapping tells whether a contract in particular has permission(s) to define a type and mint tokens for an address."
      },
      "setBrandRegistry(address)": {
        "notice": "Adds a plug-in contract to this metaverse."
      },
      "setEconomy(address)": {
        "notice": "Set the economy contract to this metaverse."
      },
      "supportsInterface(bytes4)": {
        "notice": "A metaverse satisfies the IMetaverse and IERC165 interfaces."
      },
      "tokenTypeResolvers(uint256)": {
        "notice": "Types are identified as integer values, and each registered type will have a non-zero responsible address (serving to metadata resolution and also to account for the existence of a given type). The type 1 (0x1) will be the first type, and actually it will be the brand type. Other NFT types will be registered using indices lower to (1<<255), while FT types will be registered using indices greater than or equal to that value (i.e. starting with binary {1}). In the case of the FTs, the index in this mapping is also their token id. This is not the same for NFTs (they have one extra level of indirection since multiple ids might share the same type). A special type id will be regarded as invalid type (i.e. it will not count as NFT nor FT type, but as a non-existent type): 0 (0x0). The responsible serves two purposes: The first one, is to resolve the metadata of a given token id (be it FT or NFT). The second one is to account for one of such tokens being burned. The responsible will actually be one of the registered plug-ins, on each case (save for the brands case, which is resolved by this contract, and the invalid case, which has no resolver)."
      },
      "tokenURI(uint256)": {
        "notice": "Retrieves the metadata uri of a given token. WARNING: This method will consume a lot of gas if invoked inside a transaction, so it is recommended to invoke this method in the context of a CALL, and never in the context of a SEND (even as part of other contract's code)."
      }
    },
    "version": 1
  }
}