{
  "contractName": "SampleMetaverse",
  "abi": [
    {
      "inputs": [],
      "stateMutability": "nonpayable",
      "type": "constructor"
    },
    {
      "inputs": [
        {
          "internalType": "address",
          "name": "_contract",
          "type": "address"
        }
      ],
      "name": "addPlugin",
      "outputs": [],
      "stateMutability": "nonpayable",
      "type": "function"
    },
    {
      "inputs": [],
      "name": "brandRegistry",
      "outputs": [
        {
          "internalType": "address",
          "name": "",
          "type": "address"
        }
      ],
      "stateMutability": "view",
      "type": "function"
    },
    {
      "inputs": [
        {
          "internalType": "uint256",
          "name": "_tokenId",
          "type": "uint256"
        }
      ],
      "name": "defineFTType",
      "outputs": [],
      "stateMutability": "nonpayable",
      "type": "function"
    },
    {
      "inputs": [
        {
          "internalType": "uint256",
          "name": "_tokenId",
          "type": "uint256"
        }
      ],
      "name": "defineNFTType",
      "outputs": [],
      "stateMutability": "nonpayable",
      "type": "function"
    },
    {
      "inputs": [],
      "name": "deployer",
      "outputs": [
        {
          "internalType": "address",
          "name": "",
          "type": "address"
        }
      ],
      "stateMutability": "view",
      "type": "function"
    },
    {
      "inputs": [],
      "name": "economy",
      "outputs": [
        {
          "internalType": "address",
          "name": "",
          "type": "address"
        }
      ],
      "stateMutability": "view",
      "type": "function"
    },
    {
      "inputs": [
        {
          "internalType": "address",
          "name": "_to",
          "type": "address"
        },
        {
          "internalType": "address",
          "name": "_brandId",
          "type": "address"
        }
      ],
      "name": "mintBrandFor",
      "outputs": [],
      "stateMutability": "nonpayable",
      "type": "function"
    },
    {
      "inputs": [
        {
          "internalType": "address",
          "name": "_to",
          "type": "address"
        },
        {
          "internalType": "uint256",
          "name": "_tokenId",
          "type": "uint256"
        },
        {
          "internalType": "uint256",
          "name": "_amount",
          "type": "uint256"
        },
        {
          "internalType": "bytes",
          "name": "_data",
          "type": "bytes"
        }
      ],
      "name": "mintFTFor",
      "outputs": [],
      "stateMutability": "nonpayable",
      "type": "function"
    },
    {
      "inputs": [
        {
          "internalType": "address",
          "name": "_to",
          "type": "address"
        },
        {
          "internalType": "uint256",
          "name": "_tokenId",
          "type": "uint256"
        },
        {
          "internalType": "uint256",
          "name": "_tokenType",
          "type": "uint256"
        },
        {
          "internalType": "bytes",
          "name": "_data",
          "type": "bytes"
        }
      ],
      "name": "mintNFTFor",
      "outputs": [],
      "stateMutability": "nonpayable",
      "type": "function"
    },
    {
      "inputs": [
        {
          "internalType": "uint256",
          "name": "",
          "type": "uint256"
        }
      ],
      "name": "nftTypes",
      "outputs": [
        {
          "internalType": "uint256",
          "name": "",
          "type": "uint256"
        }
      ],
      "stateMutability": "view",
      "type": "function"
    },
    {
      "inputs": [
        {
          "internalType": "address",
          "name": "_brandId",
          "type": "address"
        },
        {
          "internalType": "address",
          "name": "_newOwner",
          "type": "address"
        }
      ],
      "name": "onBrandOwnerChanged",
      "outputs": [],
      "stateMutability": "nonpayable",
      "type": "function"
    },
    {
      "inputs": [
        {
          "internalType": "address",
          "name": "_from",
          "type": "address"
        },
        {
          "internalType": "uint256",
          "name": "_tokenId",
          "type": "uint256"
        },
        {
          "internalType": "uint256",
          "name": "_amount",
          "type": "uint256"
        }
      ],
      "name": "onTokenBurned",
      "outputs": [],
      "stateMutability": "nonpayable",
      "type": "function"
    },
    {
      "inputs": [
        {
          "internalType": "address",
          "name": "_from",
          "type": "address"
        },
        {
          "internalType": "uint256[]",
          "name": "_tokenIds",
          "type": "uint256[]"
        },
        {
          "internalType": "uint256[]",
          "name": "_amounts",
          "type": "uint256[]"
        }
      ],
      "name": "onTokensBurned",
      "outputs": [],
      "stateMutability": "nonpayable",
      "type": "function"
    },
    {
      "inputs": [
        {
          "internalType": "address",
          "name": "",
          "type": "address"
        }
      ],
      "name": "plugins",
      "outputs": [
        {
          "internalType": "bool",
          "name": "",
          "type": "bool"
        }
      ],
      "stateMutability": "view",
      "type": "function"
    },
    {
      "inputs": [
        {
          "internalType": "address",
          "name": "_contract",
          "type": "address"
        }
      ],
      "name": "setBrandRegistry",
      "outputs": [],
      "stateMutability": "nonpayable",
      "type": "function"
    },
    {
      "inputs": [
        {
          "internalType": "address",
          "name": "_contract",
          "type": "address"
        }
      ],
      "name": "setEconomy",
      "outputs": [],
      "stateMutability": "nonpayable",
      "type": "function"
    },
    {
      "inputs": [
        {
          "internalType": "bytes4",
          "name": "interfaceId",
          "type": "bytes4"
        }
      ],
      "name": "supportsInterface",
      "outputs": [
        {
          "internalType": "bool",
          "name": "",
          "type": "bool"
        }
      ],
      "stateMutability": "view",
      "type": "function"
    },
    {
      "inputs": [
        {
          "internalType": "uint256",
          "name": "",
          "type": "uint256"
        }
      ],
      "name": "tokenTypeResolvers",
      "outputs": [
        {
          "internalType": "address",
          "name": "",
          "type": "address"
        }
      ],
      "stateMutability": "view",
      "type": "function"
    },
    {
      "inputs": [
        {
          "internalType": "uint256",
          "name": "_tokenId",
          "type": "uint256"
        }
      ],
      "name": "tokenURI",
      "outputs": [
        {
          "internalType": "string",
          "name": "",
          "type": "string"
        }
      ],
      "stateMutability": "view",
      "type": "function"
    }
  ],
  "bytecode": "0x60806040523480156200001157600080fd5b50620000226200006860201b60201c565b600560006101000a81548173ffffffffffffffffffffffffffffffffffffffff021916908373ffffffffffffffffffffffffffffffffffffffff16021790555062000070565b600033905090565b6138f380620000806000396000f3fe608060405234801561001057600080fd5b50600436106101215760003560e01c80638cd6e9a9116100ad578063b2863cc111610071578063b2863cc1146102ee578063c87b56dd1461030a578063d053bfa11461033a578063d5f394881461036a578063d8867fc81461038857610121565b80638cd6e9a914610262578063a16bc2ae1461027e578063ab21afb51461029a578063acb8a060146102b6578063ad8509b0146102d257610121565b806328c90cd9116100f457806328c90cd9146101aa5780634b12e643146101c65780635b1798e4146101f657806379b2ab23146102145780638820f6bd1461024457610121565b806301ffc9a71461012657806306716519146101565780631b5dc598146101725780632320a8b71461018e575b600080fd5b610140600480360381019061013b91906121c8565b6103a4565b60405161014d9190612210565b60405180910390f35b610170600480360381019061016b91906122bf565b610476565b005b61018c60048036038101906101879190612312565b61051d565b005b6101a860048036038101906101a391906124ab565b610660565b005b6101c460048036038101906101bf9190612536565b610761565b005b6101e060048036038101906101db9190612563565b61099a565b6040516101ed9190612210565b60405180910390f35b6101fe6109ba565b60405161020b919061259f565b60405180910390f35b61022e60048036038101906102299190612536565b6109e0565b60405161023b91906125c9565b60405180910390f35b61024c6109f8565b604051610259919061259f565b60405180910390f35b61027c60048036038101906102779190612312565b610a1e565b005b61029860048036038101906102939190612699565b610b48565b005b6102b460048036038101906102af9190612536565b610d7d565b005b6102d060048036038101906102cb9190612563565b610f74565b005b6102ec60048036038101906102e79190612563565b6110e0565b005b61030860048036038101906103039190612699565b61124c565b005b610324600480360381019061031f9190612536565b6115ab565b60405161033191906127a4565b60405180910390f35b610354600480360381019061034f9190612536565b6116ce565b604051610361919061259f565b60405180910390f35b610372611701565b60405161037f919061259f565b60405180910390f35b6103a2600480360381019061039d9190612563565b611727565b005b60007f01ffc9a7000000000000000000000000000000000000000000000000000000007bffffffffffffffffffffffffffffffffffffffffffffffffffffffff1916827bffffffffffffffffffffffffffffffffffffffffffffffffffffffff1916148061046f57507f7281625b000000000000000000000000000000000000000000000000000000007bffffffffffffffffffffffffffffffffffffffffffffffffffffffff1916827bffffffffffffffffffffffffffffffffffffffffffffffffffffffff1916145b9050919050565b600260009054906101000a900473ffffffffffffffffffffffffffffffffffffffff1673ffffffffffffffffffffffffffffffffffffffff166104b7611904565b73ffffffffffffffffffffffffffffffffffffffff161461050d576040517f08c379a000000000000000000000000000000000000000000000000000000000815260040161050490612838565b60405180910390fd5b61051883838361190c565b505050565b600160009054906101000a900473ffffffffffffffffffffffffffffffffffffffff1673ffffffffffffffffffffffffffffffffffffffff1661055e611904565b73ffffffffffffffffffffffffffffffffffffffff16146105b4576040517f08c379a00000000000000000000000000000000000000000000000000000000081526004016105ab906128ca565b60405180910390fd5b600260009054906101000a900473ffffffffffffffffffffffffffffffffffffffff1673ffffffffffffffffffffffffffffffffffffffff16635b0034fd838373ffffffffffffffffffffffffffffffffffffffff1660016040518463ffffffff1660e01b815260040161062a9392919061298c565b600060405180830381600087803b15801561064457600080fd5b505af1158015610658573d6000803e3d6000fd5b505050505050565b600260009054906101000a900473ffffffffffffffffffffffffffffffffffffffff1673ffffffffffffffffffffffffffffffffffffffff166106a1611904565b73ffffffffffffffffffffffffffffffffffffffff16146106f7576040517f08c379a00000000000000000000000000000000000000000000000000000000081526004016106ee90612838565b60405180910390fd5b60008251905060005b8181101561075a576107478585838151811061071f5761071e6129d6565b5b602002602001015185848151811061073a576107396129d6565b5b602002602001015161190c565b808061075290612a34565b915050610700565b5050505050565b60008061076c611904565b73ffffffffffffffffffffffffffffffffffffffff1673ffffffffffffffffffffffffffffffffffffffff16815260200190815260200160002060009054906101000a900460ff166107f3576040517f08c379a00000000000000000000000000000000000000000000000000000000081526004016107ea90612aef565b60405180910390fd5b80600073ffffffffffffffffffffffffffffffffffffffff166003600083815260200190815260200160002060009054906101000a900473ffffffffffffffffffffffffffffffffffffffff1673ffffffffffffffffffffffffffffffffffffffff1614610896576040517f08c379a000000000000000000000000000000000000000000000000000000000815260040161088d90612b81565b60405180910390fd5b817f800000000000000000000000000000000000000000000000000000000000000081106108f9576040517f08c379a00000000000000000000000000000000000000000000000000000000081526004016108f090612c13565b60405180910390fd5b6001831161093c576040517f08c379a000000000000000000000000000000000000000000000000000000000815260040161093390612ccb565b60405180910390fd5b610944611904565b6003600085815260200190815260200160002060006101000a81548173ffffffffffffffffffffffffffffffffffffffff021916908373ffffffffffffffffffffffffffffffffffffffff160217905550505050565b60006020528060005260406000206000915054906101000a900460ff1681565b600160009054906101000a900473ffffffffffffffffffffffffffffffffffffffff1681565b60046020528060005260406000206000915090505481565b600260009054906101000a900473ffffffffffffffffffffffffffffffffffffffff1681565b600260009054906101000a900473ffffffffffffffffffffffffffffffffffffffff1673ffffffffffffffffffffffffffffffffffffffff16610a5f611904565b73ffffffffffffffffffffffffffffffffffffffff1614610ab5576040517f08c379a0000000000000000000000000000000000000000000000000000000008152600401610aac90612838565b60405180910390fd5b600160009054906101000a900473ffffffffffffffffffffffffffffffffffffffff1673ffffffffffffffffffffffffffffffffffffffff16638cd6e9a983836040518363ffffffff1660e01b8152600401610b12929190612ceb565b600060405180830381600087803b158015610b2c57600080fd5b505af1158015610b40573d6000803e3d6000fd5b505050505050565b600080610b53611904565b73ffffffffffffffffffffffffffffffffffffffff1673ffffffffffffffffffffffffffffffffffffffff16815260200190815260200160002060009054906101000a900460ff16610bda576040517f08c379a0000000000000000000000000000000000000000000000000000000008152600401610bd190612aef565b60405180910390fd5b82600073ffffffffffffffffffffffffffffffffffffffff166003600083815260200190815260200160002060009054906101000a900473ffffffffffffffffffffffffffffffffffffffff1673ffffffffffffffffffffffffffffffffffffffff161415610c7e576040517f08c379a0000000000000000000000000000000000000000000000000000000008152600401610c7590612d86565b60405180910390fd5b837f8000000000000000000000000000000000000000000000000000000000000000811015610ce2576040517f08c379a0000000000000000000000000000000000000000000000000000000008152600401610cd990612e3e565b60405180910390fd5b600260009054906101000a900473ffffffffffffffffffffffffffffffffffffffff1673ffffffffffffffffffffffffffffffffffffffff16635b0034fd878787876040518563ffffffff1660e01b8152600401610d439493929190612ea2565b600060405180830381600087803b158015610d5d57600080fd5b505af1158015610d71573d6000803e3d6000fd5b50505050505050505050565b600080610d88611904565b73ffffffffffffffffffffffffffffffffffffffff1673ffffffffffffffffffffffffffffffffffffffff16815260200190815260200160002060009054906101000a900460ff16610e0f576040517f08c379a0000000000000000000000000000000000000000000000000000000008152600401610e0690612aef565b60405180910390fd5b80600073ffffffffffffffffffffffffffffffffffffffff166003600083815260200190815260200160002060009054906101000a900473ffffffffffffffffffffffffffffffffffffffff1673ffffffffffffffffffffffffffffffffffffffff1614610eb2576040517f08c379a0000000000000000000000000000000000000000000000000000000008152600401610ea990612b81565b60405180910390fd5b817f8000000000000000000000000000000000000000000000000000000000000000811015610f16576040517f08c379a0000000000000000000000000000000000000000000000000000000008152600401610f0d90612e3e565b60405180910390fd5b610f1e611904565b6003600085815260200190815260200160002060006101000a81548173ffffffffffffffffffffffffffffffffffffffff021916908373ffffffffffffffffffffffffffffffffffffffff160217905550505050565b610f84610f7f611904565b611abd565b610fc3576040517f08c379a0000000000000000000000000000000000000000000000000000000008152600401610fba90612f60565b60405180910390fd5b610fcc81611b17565b61100b576040517f08c379a000000000000000000000000000000000000000000000000000000000815260040161100290613018565b60405180910390fd5b600073ffffffffffffffffffffffffffffffffffffffff16600160009054906101000a900473ffffffffffffffffffffffffffffffffffffffff1673ffffffffffffffffffffffffffffffffffffffff161461109c576040517f08c379a0000000000000000000000000000000000000000000000000000000008152600401611093906130aa565b60405180910390fd5b80600160006101000a81548173ffffffffffffffffffffffffffffffffffffffff021916908373ffffffffffffffffffffffffffffffffffffffff16021790555050565b6110f06110eb611904565b611c0e565b61112f576040517f08c379a00000000000000000000000000000000000000000000000000000000081526004016111269061313c565b60405180910390fd5b61113881611c68565b611177576040517f08c379a000000000000000000000000000000000000000000000000000000000815260040161116e906131f4565b60405180910390fd5b600073ffffffffffffffffffffffffffffffffffffffff16600260009054906101000a900473ffffffffffffffffffffffffffffffffffffffff1673ffffffffffffffffffffffffffffffffffffffff1614611208576040517f08c379a00000000000000000000000000000000000000000000000000000000081526004016111ff90613286565b60405180910390fd5b80600260006101000a81548173ffffffffffffffffffffffffffffffffffffffff021916908373ffffffffffffffffffffffffffffffffffffffff16021790555050565b600080611257611904565b73ffffffffffffffffffffffffffffffffffffffff1673ffffffffffffffffffffffffffffffffffffffff16815260200190815260200160002060009054906101000a900460ff166112de576040517f08c379a00000000000000000000000000000000000000000000000000000000081526004016112d590612aef565b60405180910390fd5b81600073ffffffffffffffffffffffffffffffffffffffff166003600083815260200190815260200160002060009054906101000a900473ffffffffffffffffffffffffffffffffffffffff1673ffffffffffffffffffffffffffffffffffffffff161415611382576040517f08c379a000000000000000000000000000000000000000000000000000000000815260040161137990612d86565b60405180910390fd5b827f800000000000000000000000000000000000000000000000000000000000000081106113e5576040517f08c379a00000000000000000000000000000000000000000000000000000000081526004016113dc90612c13565b60405180910390fd5b847f80000000000000000000000000000000000000000000000000000000000000008110611448576040517f08c379a000000000000000000000000000000000000000000000000000000000815260040161143f90612c13565b60405180910390fd5b740100000000000000000000000000000000000000008510156114a0576040517f08c379a000000000000000000000000000000000000000000000000000000000815260040161149790613318565b60405180910390fd5b60006004600088815260200190815260200160002054146114f6576040517f08c379a00000000000000000000000000000000000000000000000000000000081526004016114ed906133aa565b60405180910390fd5b600260009054906101000a900473ffffffffffffffffffffffffffffffffffffffff1673ffffffffffffffffffffffffffffffffffffffff16635b0034fd88886001886040518563ffffffff1660e01b815260040161155894939291906133ca565b600060405180830381600087803b15801561157257600080fd5b505af1158015611586573d6000803e3d6000fd5b5050505084600460008881526020019081526020016000208190555050505050505050565b60607401000000000000000000000000000000000000000082101561167257600160009054906101000a900473ffffffffffffffffffffffffffffffffffffffff1673ffffffffffffffffffffffffffffffffffffffff16639896c31d836040518263ffffffff1660e01b8152600401611625919061259f565b600060405180830381865afa158015611642573d6000803e3d6000fd5b505050506040513d6000823e3d601f19601f8201168201806040525081019061166b91906134b7565b90506116c9565b7f80000000000000000000000000000000000000000000000000000000000000008210156116bd576116b66004600084815260200190815260200160002054611d5f565b90506116c9565b6116c682611d5f565b90505b919050565b60036020528060005260406000206000915054906101000a900473ffffffffffffffffffffffffffffffffffffffff1681565b600560009054906101000a900473ffffffffffffffffffffffffffffffffffffffff1681565b611737611732611904565b611e6e565b611776576040517f08c379a000000000000000000000000000000000000000000000000000000000815260040161176d90613572565b60405180910390fd5b61177f81611ec8565b6117be576040517f08c379a00000000000000000000000000000000000000000000000000000000081526004016117b59061362a565b60405180910390fd5b6000808273ffffffffffffffffffffffffffffffffffffffff1673ffffffffffffffffffffffffffffffffffffffff16815260200190815260200160002060009054906101000a900460ff161561184a576040517f08c379a0000000000000000000000000000000000000000000000000000000008152600401611841906136bc565b60405180910390fd5b60016000808373ffffffffffffffffffffffffffffffffffffffff1673ffffffffffffffffffffffffffffffffffffffff16815260200190815260200160002060006101000a81548160ff0219169083151502179055508073ffffffffffffffffffffffffffffffffffffffff16638129fc1c6040518163ffffffff1660e01b8152600401600060405180830381600087803b1580156118e957600080fd5b505af11580156118fd573d6000803e3d6000fd5b5050505050565b600033905090565b74010000000000000000000000000000000000000000821015611964576040517f08c379a000000000000000000000000000000000000000000000000000000000815260040161195b9061374e565b60405180910390fd5b60007f80000000000000000000000000000000000000000000000000000000000000008310156119dc57600360006004600086815260200190815260200160002054815260200190815260200160002060009054906101000a900473ffffffffffffffffffffffffffffffffffffffff169050611a13565b6003600084815260200190815260200160002060009054906101000a900473ffffffffffffffffffffffffffffffffffffffff1690505b600073ffffffffffffffffffffffffffffffffffffffff168173ffffffffffffffffffffffffffffffffffffffff1614611ab7578073ffffffffffffffffffffffffffffffffffffffff1663c5f980af8585856040518463ffffffff1660e01b8152600401611a849392919061376e565b600060405180830381600087803b158015611a9e57600080fd5b505af1158015611ab2573d6000803e3d6000fd5b505050505b50505050565b6000600560009054906101000a900473ffffffffffffffffffffffffffffffffffffffff1673ffffffffffffffffffffffffffffffffffffffff168273ffffffffffffffffffffffffffffffffffffffff16149050919050565b6000611b627f9b151866000000000000000000000000000000000000000000000000000000008373ffffffffffffffffffffffffffffffffffffffff16611fbf90919063ffffffff16565b8015611c0757503073ffffffffffffffffffffffffffffffffffffffff168273ffffffffffffffffffffffffffffffffffffffff1663f200670d6040518163ffffffff1660e01b8152600401602060405180830381865afa158015611bcb573d6000803e3d6000fd5b505050506040513d601f19601f82011682018060405250810190611bef91906137ba565b73ffffffffffffffffffffffffffffffffffffffff16145b9050919050565b6000600560009054906101000a900473ffffffffffffffffffffffffffffffffffffffff1673ffffffffffffffffffffffffffffffffffffffff168273ffffffffffffffffffffffffffffffffffffffff16149050919050565b6000611cb37fa90053f0000000000000000000000000000000000000000000000000000000008373ffffffffffffffffffffffffffffffffffffffff16611fbf90919063ffffffff16565b8015611d5857503073ffffffffffffffffffffffffffffffffffffffff168273ffffffffffffffffffffffffffffffffffffffff1663f200670d6040518163ffffffff1660e01b8152600401602060405180830381865afa158015611d1c573d6000803e3d6000fd5b505050506040513d601f19601f82011682018060405250810190611d4091906137ba565b73ffffffffffffffffffffffffffffffffffffffff16145b9050919050565b606060006003600084815260200190815260200160002060009054906101000a900473ffffffffffffffffffffffffffffffffffffffff169050600073ffffffffffffffffffffffffffffffffffffffff168173ffffffffffffffffffffffffffffffffffffffff161415611de65760405180602001604052806000815250915050611e69565b8073ffffffffffffffffffffffffffffffffffffffff16630e89341c846040518263ffffffff1660e01b8152600401611e1f91906125c9565b600060405180830381865afa158015611e3c573d6000803e3d6000fd5b505050506040513d6000823e3d601f19601f82011682018060405250810190611e6591906134b7565b9150505b919050565b6000600560009054906101000a900473ffffffffffffffffffffffffffffffffffffffff1673ffffffffffffffffffffffffffffffffffffffff168273ffffffffffffffffffffffffffffffffffffffff16149050919050565b6000611f137ff220faae000000000000000000000000000000000000000000000000000000008373ffffffffffffffffffffffffffffffffffffffff16611fbf90919063ffffffff16565b8015611fb857503073ffffffffffffffffffffffffffffffffffffffff168273ffffffffffffffffffffffffffffffffffffffff1663f200670d6040518163ffffffff1660e01b8152600401602060405180830381865afa158015611f7c573d6000803e3d6000fd5b505050506040513d601f19601f82011682018060405250810190611fa091906137ba565b73ffffffffffffffffffffffffffffffffffffffff16145b9050919050565b6000611fca83611fe4565b8015611fdc5750611fdb8383612031565b5b905092915050565b6000612010827f01ffc9a700000000000000000000000000000000000000000000000000000000612031565b801561202a57506120288263ffffffff60e01b612031565b155b9050919050565b6000806301ffc9a760e01b8360405160240161204d91906137f6565b604051602081830303815290604052907bffffffffffffffffffffffffffffffffffffffffffffffffffffffff19166020820180517bffffffffffffffffffffffffffffffffffffffffffffffffffffffff838183161783525050505090506000808573ffffffffffffffffffffffffffffffffffffffff16617530846040516120d7919061384d565b6000604051808303818686fa925050503d8060008114612113576040519150601f19603f3d011682016040523d82523d6000602084013e612118565b606091505b50915091506020815110156121335760009350505050612156565b81801561215057508080602001905181019061214f9190613890565b5b93505050505b92915050565b6000604051905090565b600080fd5b600080fd5b60007fffffffff0000000000000000000000000000000000000000000000000000000082169050919050565b6121a581612170565b81146121b057600080fd5b50565b6000813590506121c28161219c565b92915050565b6000602082840312156121de576121dd612166565b5b60006121ec848285016121b3565b91505092915050565b60008115159050919050565b61220a816121f5565b82525050565b60006020820190506122256000830184612201565b92915050565b600073ffffffffffffffffffffffffffffffffffffffff82169050919050565b60006122568261222b565b9050919050565b6122668161224b565b811461227157600080fd5b50565b6000813590506122838161225d565b92915050565b6000819050919050565b61229c81612289565b81146122a757600080fd5b50565b6000813590506122b981612293565b92915050565b6000806000606084860312156122d8576122d7612166565b5b60006122e686828701612274565b93505060206122f7868287016122aa565b9250506040612308868287016122aa565b9150509250925092565b6000806040838503121561232957612328612166565b5b600061233785828601612274565b925050602061234885828601612274565b9150509250929050565b600080fd5b6000601f19601f8301169050919050565b7f4e487b7100000000000000000000000000000000000000000000000000000000600052604160045260246000fd5b6123a082612357565b810181811067ffffffffffffffff821117156123bf576123be612368565b5b80604052505050565b60006123d261215c565b90506123de8282612397565b919050565b600067ffffffffffffffff8211156123fe576123fd612368565b5b602082029050602081019050919050565b600080fd5b6000612427612422846123e3565b6123c8565b9050808382526020820190506020840283018581111561244a5761244961240f565b5b835b81811015612473578061245f88826122aa565b84526020840193505060208101905061244c565b5050509392505050565b600082601f83011261249257612491612352565b5b81356124a2848260208601612414565b91505092915050565b6000806000606084860312156124c4576124c3612166565b5b60006124d286828701612274565b935050602084013567ffffffffffffffff8111156124f3576124f261216b565b5b6124ff8682870161247d565b925050604084013567ffffffffffffffff8111156125205761251f61216b565b5b61252c8682870161247d565b9150509250925092565b60006020828403121561254c5761254b612166565b5b600061255a848285016122aa565b91505092915050565b60006020828403121561257957612578612166565b5b600061258784828501612274565b91505092915050565b6125998161224b565b82525050565b60006020820190506125b46000830184612590565b92915050565b6125c381612289565b82525050565b60006020820190506125de60008301846125ba565b92915050565b600080fd5b600067ffffffffffffffff82111561260457612603612368565b5b61260d82612357565b9050602081019050919050565b82818337600083830152505050565b600061263c612637846125e9565b6123c8565b905082815260208101848484011115612658576126576125e4565b5b61266384828561261a565b509392505050565b600082601f8301126126805761267f612352565b5b8135612690848260208601612629565b91505092915050565b600080600080608085870312156126b3576126b2612166565b5b60006126c187828801612274565b94505060206126d2878288016122aa565b93505060406126e3878288016122aa565b925050606085013567ffffffffffffffff8111156127045761270361216b565b5b6127108782880161266b565b91505092959194509250565b600081519050919050565b600082825260208201905092915050565b60005b8381101561275657808201518184015260208101905061273b565b83811115612765576000848401525b50505050565b60006127768261271c565b6127808185612727565b9350612790818560208601612738565b61279981612357565b840191505092915050565b600060208201905081810360008301526127be818461276b565b905092915050565b7f4d65746176657273653a20746865206f6e6c7920616c6c6f7765642073656e6460008201527f6572206973207468652065636f6e6f6d792073797374656d0000000000000000602082015250565b6000612822603883612727565b915061282d826127c6565b604082019050919050565b6000602082019050818103600083015261285181612815565b9050919050565b7f4d65746176657273653a20746865206f6e6c7920616c6c6f7765642073656e6460008201527f657220697320746865206272616e642072656769737472790000000000000000602082015250565b60006128b4603883612727565b91506128bf82612858565b604082019050919050565b600060208201905081810360008301526128e3816128a7565b9050919050565b6000819050919050565b6000819050919050565b600061291961291461290f846128ea565b6128f4565b612289565b9050919050565b612929816128fe565b82525050565b600082825260208201905092915050565b7f4d65746176657273653a204d696e74696e672061206272616e64000000000000600082015250565b6000612976601a8361292f565b915061298182612940565b602082019050919050565b60006080820190506129a16000830186612590565b6129ae60208301856125ba565b6129bb6040830184612920565b81810360608301526129cc81612969565b9050949350505050565b7f4e487b7100000000000000000000000000000000000000000000000000000000600052603260045260246000fd5b7f4e487b7100000000000000000000000000000000000000000000000000000000600052601160045260246000fd5b6000612a3f82612289565b91507fffffffffffffffffffffffffffffffffffffffffffffffffffffffffffffffff821415612a7257612a71612a05565b5b600182019050919050565b7f4d65746176657273653a207468652073656e646572206d75737420626520612060008201527f706c75672d696e00000000000000000000000000000000000000000000000000602082015250565b6000612ad9602783612727565b9150612ae482612a7d565b604082019050919050565b60006020820190508181036000830152612b0881612acc565b9050919050565b7f4d65746176657273653a207468652073706563696669656420746f6b656e207460008201527f797065206973206e6f7420617661696c61626c65000000000000000000000000602082015250565b6000612b6b603483612727565b9150612b7682612b0f565b604082019050919050565b60006020820190508181036000830152612b9a81612b5e565b9050919050565b7f4d65746176657273653a20746865207370656369666965642076616c7565206960008201527f73206e6f7420696e20746865206e66742072616e676500000000000000000000602082015250565b6000612bfd603683612727565b9150612c0882612ba1565b604082019050919050565b60006020820190508181036000830152612c2c81612bf0565b9050919050565b7f4d65746176657273653a206e667420747970652030206973207265736572766560008201527f6420666f7220696e76616c6964202f206d697373696e67206e6674732c20616e60208201527f64203120666f72206272616e6473000000000000000000000000000000000000604082015250565b6000612cb5604e83612727565b9150612cc082612c33565b606082019050919050565b60006020820190508181036000830152612ce481612ca8565b9050919050565b6000604082019050612d006000830185612590565b612d0d6020830184612590565b9392505050565b7f4d65746176657273653a20756e6b6e6f776e202f206e6f6e2d6d696e7461626c60008201527f6520746f6b656e20747970652069640000000000000000000000000000000000602082015250565b6000612d70602f83612727565b9150612d7b82612d14565b604082019050919050565b60006020820190508181036000830152612d9f81612d63565b9050919050565b7f4d65746176657273653a20746865207370656369666965642076616c7565206960008201527f73206e6f7420696e207468652066756e6769626c6520746f6b656e732072616e60208201527f6765000000000000000000000000000000000000000000000000000000000000604082015250565b6000612e28604283612727565b9150612e3382612da6565b606082019050919050565b60006020820190508181036000830152612e5781612e1b565b9050919050565b600081519050919050565b6000612e7482612e5e565b612e7e818561292f565b9350612e8e818560208601612738565b612e9781612357565b840191505092915050565b6000608082019050612eb76000830187612590565b612ec460208301866125ba565b612ed160408301856125ba565b8181036060830152612ee38184612e69565b905095945050505050565b7f4d65746176657273653a207468652073656e646572206973206e6f7420616c6c60008201527f6f77656420746f207365742074686520706c75672d696e000000000000000000602082015250565b6000612f4a603783612727565b9150612f5582612eee565b604082019050919050565b60006020820190508181036000830152612f7981612f3d565b9050919050565b7f4d65746176657273653a20746865206164647265737320646f6573206e6f742060008201527f62656c6f6e6720746f20612076616c6964206272616e6420726567697374727960208201527f20636f6e747261637420666f722074686973206d657461766572736500000000604082015250565b6000613002605c83612727565b915061300d82612f80565b606082019050919050565b6000602082019050818103600083015261303181612ff5565b9050919050565b7f4d65746176657273653a2061206272616e64207265676973747279206973206160008201527f6c72656164792073657420696e746f2074686973206d65746176657273650000602082015250565b6000613094603e83612727565b915061309f82613038565b604082019050919050565b600060208201905081810360008301526130c381613087565b9050919050565b7f4d65746176657273653a207468652073656e646572206973206e6f7420616c6c60008201527f6f77656420746f20736574207468652065636f6e6f6d79000000000000000000602082015250565b6000613126603783612727565b9150613131826130ca565b604082019050919050565b6000602082019050818103600083015261315581613119565b9050919050565b7f4d65746176657273653a20746865206164647265737320646f6573206e6f742060008201527f62656c6f6e6720746f20612076616c69642065636f6e6f6d7920636f6e74726160208201527f637420666f722074686973206d65746176657273650000000000000000000000604082015250565b60006131de605583612727565b91506131e98261315c565b606082019050919050565b6000602082019050818103600083015261320d816131d1565b9050919050565b7f4d65746176657273653a20616e2065636f6e6f6d7920697320616c726561647960008201527f2073657420696e746f2074686973206d65746176657273650000000000000000602082015250565b6000613270603883612727565b915061327b82613214565b604082019050919050565b6000602082019050818103600083015261329f81613263565b9050919050565b7f4d65746176657273653a207468652073706563696669656420746f6b656e206960008201527f6420697320726573657276656420666f72206272616e64730000000000000000602082015250565b6000613302603883612727565b915061330d826132a6565b604082019050919050565b60006020820190508181036000830152613331816132f5565b9050919050565b7f4d65746176657273653a2074686520737065636966696564206e66742069642060008201527f6973206e6f7420617661696c61626c6500000000000000000000000000000000602082015250565b6000613394603083612727565b915061339f82613338565b604082019050919050565b600060208201905081810360008301526133c381613387565b9050919050565b60006080820190506133df6000830187612590565b6133ec60208301866125ba565b6133f96040830185612920565b818103606083015261340b8184612e69565b905095945050505050565b600067ffffffffffffffff82111561343157613430612368565b5b61343a82612357565b9050602081019050919050565b600061345a61345584613416565b6123c8565b905082815260208101848484011115613476576134756125e4565b5b613481848285612738565b509392505050565b600082601f83011261349e5761349d612352565b5b81516134ae848260208601613447565b91505092915050565b6000602082840312156134cd576134cc612166565b5b600082015167ffffffffffffffff8111156134eb576134ea61216b565b5b6134f784828501613489565b91505092915050565b7f4d65746176657273653a207468652073656e646572206973206e6f7420616c6c60008201527f6f77656420746f20616464206120706c75672d696e0000000000000000000000602082015250565b600061355c603583612727565b915061356782613500565b604082019050919050565b6000602082019050818103600083015261358b8161354f565b9050919050565b7f4d65746176657273653a20746865206164647265737320646f6573206e6f742060008201527f62656c6f6e6720746f20612076616c696420706c75672d696e20636f6e74726160208201527f637420666f722074686973206d65746176657273650000000000000000000000604082015250565b6000613614605583612727565b915061361f82613592565b606082019050919050565b6000602082019050818103600083015261364381613607565b9050919050565b7f4d65746176657273653a2074686520706c75672d696e20697320616c7265616460008201527f7920616464656420746f2074686973206d657461766572736500000000000000602082015250565b60006136a6603983612727565b91506136b18261364a565b604082019050919050565b600060208201905081810360008301526136d581613699565b9050919050565b7f4d65746176657273653a206272616e64732063616e6e6f74206265206275726e60008201527f6564000000000000000000000000000000000000000000000000000000000000602082015250565b6000613738602283612727565b9150613743826136dc565b604082019050919050565b600060208201905081810360008301526137678161372b565b9050919050565b60006060820190506137836000830186612590565b61379060208301856125ba565b61379d60408301846125ba565b949350505050565b6000815190506137b48161225d565b92915050565b6000602082840312156137d0576137cf612166565b5b60006137de848285016137a5565b91505092915050565b6137f081612170565b82525050565b600060208201905061380b60008301846137e7565b92915050565b600081905092915050565b600061382782612e5e565b6138318185613811565b9350613841818560208601612738565b80840191505092915050565b6000613859828461381c565b915081905092915050565b61386d816121f5565b811461387857600080fd5b50565b60008151905061388a81613864565b92915050565b6000602082840312156138a6576138a5612166565b5b60006138b48482850161387b565b9150509291505056fea264697066735822122016f443779885c30affe323f493112ea14294f4941b6dcb92c7cb50161d89184c64736f6c634300080a0033",
  "immutableReferences": {},
  "source": "// SPDX-License-Identifier: MIT\npragma solidity >=0.8 <0.9.0;\n\nimport \"../Metaverse.sol\";\n\ncontract SampleMetaverse is Metaverse {\n    /**\n     * The deployer of this metaverse.\n     */\n    address public deployer;\n\n    constructor() {\n        deployer = _msgSender();\n    }\n\n    /**\n     * Adding the plug-ins is only allowed to the deployer.\n     */\n    function _canAddPlugin(address _sender) internal view override returns (bool) {\n        return _sender == deployer;\n    }\n\n    /**\n     * Setting the brand registry is only allowed to the deployer.\n     */\n    function _canSetBrandRegistry(address _sender) internal view override returns (bool) {\n        return _sender == deployer;\n    }\n\n    /**\n     * Setting the economy system is only allowed to the deployer.\n     */\n    function _canSetEconomy(address _sender) internal view override returns (bool) {\n        return _sender == deployer;\n    }\n}\n",
  "sourcePath": "/home/luismasuelli/Projects/OuterMaze/lingr-contracts/contracts/lingr/samples/SampleMetaverse.sol",
  "compiler": {
    "name": "solc",
    "version": "0.8.10+commit.fc410830.Emscripten.clang"
  },
  "schemaVersion": "3.4.3",
  "updatedAt": "2022-08-08T03:50:28.544Z",
  "devdoc": {
    "kind": "dev",
    "methods": {},
    "version": 1
  },
  "userdoc": {
    "kind": "user",
    "methods": {
      "addPlugin(address)": {
        "notice": "Adds a plug-in contract to this metaverse."
      },
      "brandRegistry()": {
        "notice": "The linked brand registry for this metaverse."
      },
      "defineFTType(uint256)": {
        "notice": "Defines the resolution of a fungible token type. The token id must be in the range of the fungible token ids."
      },
      "defineNFTType(uint256)": {
        "notice": "Defines the resolution of a non-fungible token type. The token id must be in the range of the fungible token (type) ids (strictly > 0, strictly < (1 << 255))."
      },
      "deployer()": {
        "notice": "The deployer of this metaverse."
      },
      "economy()": {
        "notice": "The linked economy for this metaverse."
      },
      "mintBrandFor(address,address)": {
        "notice": "Mints a specific brand token for a given user. The brand is stated as its address."
      },
      "mintFTFor(address,uint256,uint256,bytes)": {
        "notice": "Mints a specific fungible token type, in a certain amount."
      },
      "mintNFTFor(address,uint256,uint256,bytes)": {
        "notice": "Mints a specific non-fungible token type, using a specific id (and always using an amount of 1). It is an error if the token id is already minted, or the chosen id is < (1 << 160) since those ids are reserved for brands."
      },
      "nftTypes(uint256)": {
        "notice": "Now, each NFT id will be registered here along its token type. The difference with the fungible tokens (they're already registered in the `tokenTypes` mapping) is that they need to be registered with a particular token type. Also, both the NFT id and its associated token type will be lower than (1<<255) since, otherwise, they would be using values corresponding to the FT side (both for IDs and type indices). Brand NFTs are not included in this mapping (they are only characterized by being < (1 << 160))."
      },
      "onBrandOwnerChanged(address,address)": {
        "notice": "Hook to be invoked as part of a transfer from ERC1155."
      },
      "onTokenBurned(address,uint256,uint256)": {
        "notice": "Hook to be invoked as part of a burn process when an address burns a particular token in some quantity (for NFTs, the quantity is 1 in every case). By this point, we should be guaranteed that the _tokenId will actually have a resolver (being it a fungible token type, or being it a non-fungible token id)."
      },
      "onTokensBurned(address,uint256[],uint256[])": {
        "notice": "Hook to be invoked as part of a batch burn process when an address burns a particulars et of tokens in respective quantities (for NFTs, the quantity is 1 in every case; it is guaranteed that both arrays are always of the same length."
      },
      "plugins(address)": {
        "notice": "This is the list of plug-ins that are being added to the hub. Each contract has its separate logic but they have access to the same set of features. Once a contract is added, it will never be removed from this list. This mapping tells whether a contract in particular has permission(s) to define a type and mint tokens for an address."
      },
      "setBrandRegistry(address)": {
        "notice": "Adds a plug-in contract to this metaverse."
      },
      "setEconomy(address)": {
        "notice": "Set the economy contract to this metaverse."
      },
      "supportsInterface(bytes4)": {
        "notice": "A metaverse satisfies the IMetaverse and IERC165 interfaces."
      },
      "tokenTypeResolvers(uint256)": {
        "notice": "Types are identified as integer values, and each registered type will have a non-zero responsible address (serving to metadata resolution and also to account for the existence of a given type). The type 1 (0x1) will be the first type, and actually it will be the brand type. Other NFT types will be registered using indices lower to (1<<255), while FT types will be registered using indices greater than or equal to that value (i.e. starting with binary {1}). In the case of the FTs, the index in this mapping is also their token id. This is not the same for NFTs (they have one extra level of indirection since multiple ids might share the same type). A special type id will be regarded as invalid type (i.e. it will not count as NFT nor FT type, but as a non-existent type): 0 (0x0). The responsible serves two purposes: The first one, is to resolve the metadata of a given token id (be it FT or NFT). The second one is to account for one of such tokens being burned. The responsible will actually be one of the registered plug-ins, on each case (save for the brands case, which is resolved by this contract, and the invalid case, which has no resolver)."
      },
      "tokenURI(uint256)": {
        "notice": "Retrieves the metadata uri of a given token. WARNING: This method will consume a lot of gas if invoked inside a transaction, so it is recommended to invoke this method in the context of a CALL, and never in the context of a SEND (even as part of other contract's code)."
      }
    },
    "version": 1
  }
}