{
  "contractName": "SampleERC1155WithBrandRegistry",
  "abi": [
    {
      "inputs": [],
      "stateMutability": "nonpayable",
      "type": "constructor"
    },
    {
      "anonymous": false,
      "inputs": [
        {
          "indexed": true,
          "internalType": "address",
          "name": "account",
          "type": "address"
        },
        {
          "indexed": true,
          "internalType": "address",
          "name": "operator",
          "type": "address"
        },
        {
          "indexed": false,
          "internalType": "bool",
          "name": "approved",
          "type": "bool"
        }
      ],
      "name": "ApprovalForAll",
      "type": "event"
    },
    {
      "anonymous": false,
      "inputs": [
        {
          "indexed": true,
          "internalType": "address",
          "name": "withdrawnBy",
          "type": "address"
        },
        {
          "indexed": false,
          "internalType": "uint256",
          "name": "amount",
          "type": "uint256"
        }
      ],
      "name": "BrandEarningsWithdrawn",
      "type": "event"
    },
    {
      "anonymous": false,
      "inputs": [
        {
          "indexed": true,
          "internalType": "address",
          "name": "registeredBy",
          "type": "address"
        },
        {
          "indexed": true,
          "internalType": "address",
          "name": "brandId",
          "type": "address"
        },
        {
          "indexed": false,
          "internalType": "string",
          "name": "name",
          "type": "string"
        },
        {
          "indexed": false,
          "internalType": "string",
          "name": "description",
          "type": "string"
        },
        {
          "indexed": false,
          "internalType": "uint256",
          "name": "price",
          "type": "uint256"
        }
      ],
      "name": "BrandRegistered",
      "type": "event"
    },
    {
      "anonymous": false,
      "inputs": [
        {
          "indexed": false,
          "internalType": "uint256",
          "name": "newCost",
          "type": "uint256"
        }
      ],
      "name": "BrandRegistrationCostUpdated",
      "type": "event"
    },
    {
      "anonymous": false,
      "inputs": [
        {
          "indexed": true,
          "internalType": "address",
          "name": "updatedBy",
          "type": "address"
        },
        {
          "indexed": true,
          "internalType": "address",
          "name": "brandId",
          "type": "address"
        }
      ],
      "name": "BrandUpdated",
      "type": "event"
    },
    {
      "anonymous": false,
      "inputs": [
        {
          "indexed": true,
          "internalType": "address",
          "name": "operator",
          "type": "address"
        },
        {
          "indexed": true,
          "internalType": "address",
          "name": "from",
          "type": "address"
        },
        {
          "indexed": true,
          "internalType": "address",
          "name": "to",
          "type": "address"
        },
        {
          "indexed": false,
          "internalType": "uint256[]",
          "name": "ids",
          "type": "uint256[]"
        },
        {
          "indexed": false,
          "internalType": "uint256[]",
          "name": "values",
          "type": "uint256[]"
        }
      ],
      "name": "TransferBatch",
      "type": "event"
    },
    {
      "anonymous": false,
      "inputs": [
        {
          "indexed": true,
          "internalType": "address",
          "name": "operator",
          "type": "address"
        },
        {
          "indexed": true,
          "internalType": "address",
          "name": "from",
          "type": "address"
        },
        {
          "indexed": true,
          "internalType": "address",
          "name": "to",
          "type": "address"
        },
        {
          "indexed": false,
          "internalType": "uint256",
          "name": "id",
          "type": "uint256"
        },
        {
          "indexed": false,
          "internalType": "uint256",
          "name": "value",
          "type": "uint256"
        }
      ],
      "name": "TransferSingle",
      "type": "event"
    },
    {
      "anonymous": false,
      "inputs": [
        {
          "indexed": false,
          "internalType": "string",
          "name": "value",
          "type": "string"
        },
        {
          "indexed": true,
          "internalType": "uint256",
          "name": "id",
          "type": "uint256"
        }
      ],
      "name": "URI",
      "type": "event"
    },
    {
      "inputs": [
        {
          "internalType": "address",
          "name": "account",
          "type": "address"
        },
        {
          "internalType": "uint256",
          "name": "id",
          "type": "uint256"
        }
      ],
      "name": "balanceOf",
      "outputs": [
        {
          "internalType": "uint256",
          "name": "",
          "type": "uint256"
        }
      ],
      "stateMutability": "view",
      "type": "function"
    },
    {
      "inputs": [
        {
          "internalType": "address[]",
          "name": "accounts",
          "type": "address[]"
        },
        {
          "internalType": "uint256[]",
          "name": "ids",
          "type": "uint256[]"
        }
      ],
      "name": "balanceOfBatch",
      "outputs": [
        {
          "internalType": "uint256[]",
          "name": "",
          "type": "uint256[]"
        }
      ],
      "stateMutability": "view",
      "type": "function"
    },
    {
      "inputs": [
        {
          "internalType": "address",
          "name": "_brandId",
          "type": "address"
        }
      ],
      "name": "brandMetadataURI",
      "outputs": [
        {
          "internalType": "string",
          "name": "",
          "type": "string"
        }
      ],
      "stateMutability": "view",
      "type": "function"
    },
    {
      "inputs": [],
      "name": "brandRegistrationCost",
      "outputs": [
        {
          "internalType": "uint256",
          "name": "",
          "type": "uint256"
        }
      ],
      "stateMutability": "view",
      "type": "function"
    },
    {
      "inputs": [],
      "name": "brandRegistrationCurrentEarnings",
      "outputs": [
        {
          "internalType": "uint256",
          "name": "",
          "type": "uint256"
        }
      ],
      "stateMutability": "view",
      "type": "function"
    },
    {
      "inputs": [
        {
          "internalType": "address",
          "name": "account",
          "type": "address"
        },
        {
          "internalType": "address",
          "name": "operator",
          "type": "address"
        }
      ],
      "name": "isApprovedForAll",
      "outputs": [
        {
          "internalType": "bool",
          "name": "",
          "type": "bool"
        }
      ],
      "stateMutability": "view",
      "type": "function"
    },
    {
      "inputs": [],
      "name": "owner",
      "outputs": [
        {
          "internalType": "address",
          "name": "",
          "type": "address"
        }
      ],
      "stateMutability": "view",
      "type": "function"
    },
    {
      "inputs": [
        {
          "internalType": "string",
          "name": "_name",
          "type": "string"
        },
        {
          "internalType": "string",
          "name": "_description",
          "type": "string"
        },
        {
          "internalType": "string",
          "name": "_image",
          "type": "string"
        },
        {
          "internalType": "string",
          "name": "_challengeUrl",
          "type": "string"
        },
        {
          "internalType": "string",
          "name": "_icon16x16",
          "type": "string"
        },
        {
          "internalType": "string",
          "name": "_icon32x32",
          "type": "string"
        },
        {
          "internalType": "string",
          "name": "_icon64x64",
          "type": "string"
        }
      ],
      "name": "registerBrand",
      "outputs": [],
      "stateMutability": "payable",
      "type": "function"
    },
    {
      "inputs": [
        {
          "internalType": "address",
          "name": "from",
          "type": "address"
        },
        {
          "internalType": "address",
          "name": "to",
          "type": "address"
        },
        {
          "internalType": "uint256[]",
          "name": "ids",
          "type": "uint256[]"
        },
        {
          "internalType": "uint256[]",
          "name": "amounts",
          "type": "uint256[]"
        },
        {
          "internalType": "bytes",
          "name": "data",
          "type": "bytes"
        }
      ],
      "name": "safeBatchTransferFrom",
      "outputs": [],
      "stateMutability": "nonpayable",
      "type": "function"
    },
    {
      "inputs": [
        {
          "internalType": "address",
          "name": "from",
          "type": "address"
        },
        {
          "internalType": "address",
          "name": "to",
          "type": "address"
        },
        {
          "internalType": "uint256",
          "name": "id",
          "type": "uint256"
        },
        {
          "internalType": "uint256",
          "name": "amount",
          "type": "uint256"
        },
        {
          "internalType": "bytes",
          "name": "data",
          "type": "bytes"
        }
      ],
      "name": "safeTransferFrom",
      "outputs": [],
      "stateMutability": "nonpayable",
      "type": "function"
    },
    {
      "inputs": [
        {
          "internalType": "address",
          "name": "operator",
          "type": "address"
        },
        {
          "internalType": "bool",
          "name": "approved",
          "type": "bool"
        }
      ],
      "name": "setApprovalForAll",
      "outputs": [],
      "stateMutability": "nonpayable",
      "type": "function"
    },
    {
      "inputs": [
        {
          "internalType": "uint256",
          "name": "_newCost",
          "type": "uint256"
        }
      ],
      "name": "setBrandRegistrationCost",
      "outputs": [],
      "stateMutability": "nonpayable",
      "type": "function"
    },
    {
      "inputs": [
        {
          "internalType": "bytes4",
          "name": "interfaceId",
          "type": "bytes4"
        }
      ],
      "name": "supportsInterface",
      "outputs": [
        {
          "internalType": "bool",
          "name": "",
          "type": "bool"
        }
      ],
      "stateMutability": "view",
      "type": "function"
    },
    {
      "inputs": [
        {
          "internalType": "address",
          "name": "_brandId",
          "type": "address"
        },
        {
          "internalType": "string",
          "name": "_challengeUrl",
          "type": "string"
        }
      ],
      "name": "updateBrandChallengeUrl",
      "outputs": [],
      "stateMutability": "nonpayable",
      "type": "function"
    },
    {
      "inputs": [
        {
          "internalType": "address",
          "name": "_brandId",
          "type": "address"
        },
        {
          "internalType": "string",
          "name": "_icon",
          "type": "string"
        }
      ],
      "name": "updateBrandIcon16x16Url",
      "outputs": [],
      "stateMutability": "nonpayable",
      "type": "function"
    },
    {
      "inputs": [
        {
          "internalType": "address",
          "name": "_brandId",
          "type": "address"
        },
        {
          "internalType": "string",
          "name": "_icon",
          "type": "string"
        }
      ],
      "name": "updateBrandIcon32x32Url",
      "outputs": [],
      "stateMutability": "nonpayable",
      "type": "function"
    },
    {
      "inputs": [
        {
          "internalType": "address",
          "name": "_brandId",
          "type": "address"
        },
        {
          "internalType": "string",
          "name": "_icon",
          "type": "string"
        }
      ],
      "name": "updateBrandIcon64x64Url",
      "outputs": [],
      "stateMutability": "nonpayable",
      "type": "function"
    },
    {
      "inputs": [
        {
          "internalType": "address",
          "name": "_brandId",
          "type": "address"
        },
        {
          "internalType": "string",
          "name": "_image",
          "type": "string"
        }
      ],
      "name": "updateBrandImage",
      "outputs": [],
      "stateMutability": "nonpayable",
      "type": "function"
    },
    {
      "inputs": [
        {
          "internalType": "uint256",
          "name": "",
          "type": "uint256"
        }
      ],
      "name": "uri",
      "outputs": [
        {
          "internalType": "string",
          "name": "",
          "type": "string"
        }
      ],
      "stateMutability": "view",
      "type": "function"
    },
    {
      "inputs": [
        {
          "internalType": "uint256",
          "name": "amount",
          "type": "uint256"
        }
      ],
      "name": "withdrawBrandRegistrationEarnings",
      "outputs": [],
      "stateMutability": "nonpayable",
      "type": "function"
    }
  ],
  "bytecode": "0x60806040523480156200001157600080fd5b506040518060400160405280600b81526020017f61626f75743a626c616e6b0000000000000000000000000000000000000000008152506200005981620000a160201b60201c565b5033600760006101000a81548173ffffffffffffffffffffffffffffffffffffffff021916908373ffffffffffffffffffffffffffffffffffffffff160217905550620001d2565b8060029080519060200190620000b9929190620000bd565b5050565b828054620000cb906200019c565b90600052602060002090601f016020900481019282620000ef57600085556200013b565b82601f106200010a57805160ff19168380011785556200013b565b828001600101855582156200013b579182015b828111156200013a5782518255916020019190600101906200011d565b5b5090506200014a91906200014e565b5090565b5b80821115620001695760008160009055506001016200014f565b5090565b7f4e487b7100000000000000000000000000000000000000000000000000000000600052602260045260246000fd5b60006002820490506001821680620001b557607f821691505b60208210811415620001cc57620001cb6200016d565b5b50919050565b6152d880620001e26000396000f3fe60806040526004361061011e5760003560e01c806351a8de60116100a05780639896c31d116100645780639896c31d146103d357806399de09ff14610410578063a22cb46514610439578063e985e9c514610462578063f242432a1461049f5761011e565b806351a8de601461031157806352ea8a361461033a57806374ee38681461036357806378df8fb71461037f5780638da5cb5b146103a85761011e565b80632eb2c2d6116100e75780632eb2c2d61461022e5780633c1213fb146102575780633e49d9251461028057806343779197146102ab5780634e1273f4146102d45761011e565b8062fdd58e1461012357806301ffc9a7146101605780630e89341c1461019d5780630f73da86146101da57806320c6940b14610205575b600080fd5b34801561012f57600080fd5b5061014a60048036038101906101459190613032565b6104c8565b6040516101579190613081565b60405180910390f35b34801561016c57600080fd5b50610187600480360381019061018291906130f4565b610591565b604051610194919061313c565b60405180910390f35b3480156101a957600080fd5b506101c460048036038101906101bf9190613157565b610673565b6040516101d1919061321d565b60405180910390f35b3480156101e657600080fd5b506101ef610707565b6040516101fc9190613081565b60405180910390f35b34801561021157600080fd5b5061022c60048036038101906102279190613374565b61070d565b005b34801561023a57600080fd5b5061025560048036038101906102509190613539565b6108f6565b005b34801561026357600080fd5b5061027e60048036038101906102799190613374565b610997565b005b34801561028c57600080fd5b50610295610b80565b6040516102a29190613081565b60405180910390f35b3480156102b757600080fd5b506102d260048036038101906102cd9190613157565b610b86565b005b3480156102e057600080fd5b506102fb60048036038101906102f691906136cb565b610c60565b6040516103089190613801565b60405180910390f35b34801561031d57600080fd5b5061033860048036038101906103339190613374565b610d79565b005b34801561034657600080fd5b50610361600480360381019061035c9190613374565b610fa7565b005b61037d60048036038101906103789190613823565b611190565b005b34801561038b57600080fd5b506103a660048036038101906103a19190613374565b6115a0565b005b3480156103b457600080fd5b506103bd611789565b6040516103ca9190613998565b60405180910390f35b3480156103df57600080fd5b506103fa60048036038101906103f591906139b3565b6117af565b604051610407919061321d565b60405180910390f35b34801561041c57600080fd5b5061043760048036038101906104329190613157565b6118d6565b005b34801561044557600080fd5b50610460600480360381019061045b9190613a0c565b611a16565b005b34801561046e57600080fd5b5061048960048036038101906104849190613a4c565b611a2c565b604051610496919061313c565b60405180910390f35b3480156104ab57600080fd5b506104c660048036038101906104c19190613a8c565b611ac0565b005b60008073ffffffffffffffffffffffffffffffffffffffff168373ffffffffffffffffffffffffffffffffffffffff161415610539576040517f08c379a000000000000000000000000000000000000000000000000000000000815260040161053090613b95565b60405180910390fd5b60008083815260200190815260200160002060008473ffffffffffffffffffffffffffffffffffffffff1673ffffffffffffffffffffffffffffffffffffffff16815260200190815260200160002054905092915050565b60007fd9b67a26000000000000000000000000000000000000000000000000000000007bffffffffffffffffffffffffffffffffffffffffffffffffffffffff1916827bffffffffffffffffffffffffffffffffffffffffffffffffffffffff1916148061065c57507f0e89341c000000000000000000000000000000000000000000000000000000007bffffffffffffffffffffffffffffffffffffffffffffffffffffffff1916827bffffffffffffffffffffffffffffffffffffffffffffffffffffffff1916145b8061066c575061066b82611b61565b5b9050919050565b60606002805461068290613be4565b80601f01602080910402602001604051908101604052809291908181526020018280546106ae90613be4565b80156106fb5780601f106106d0576101008083540402835291602001916106fb565b820191906000526020600020905b8154815290600101906020018083116106de57829003601f168201915b50505050509050919050565b60065481565b816000600460008373ffffffffffffffffffffffffffffffffffffffff1673ffffffffffffffffffffffffffffffffffffffff16815260200190815260200160002060000160009054906101000a900473ffffffffffffffffffffffffffffffffffffffff169050600061077f611bcb565b9050600073ffffffffffffffffffffffffffffffffffffffff168273ffffffffffffffffffffffffffffffffffffffff1614806107e757508173ffffffffffffffffffffffffffffffffffffffff168173ffffffffffffffffffffffffffffffffffffffff16145b806107f857506107f78282611bd3565b5b610837576040517f08c379a000000000000000000000000000000000000000000000000000000000815260040161082e90613c88565b60405180910390fd5b83600460008773ffffffffffffffffffffffffffffffffffffffff1673ffffffffffffffffffffffffffffffffffffffff168152602001908152602001600020600501908051906020019061088d929190612ee7565b508473ffffffffffffffffffffffffffffffffffffffff166108ad611bcb565b73ffffffffffffffffffffffffffffffffffffffff167f7fd1c43abb0471595dcd4d461fdb320d926cbf2b8ba6fa87a78f1b1b0bf3e59260405160405180910390a35050505050565b6108fe611bcb565b73ffffffffffffffffffffffffffffffffffffffff168573ffffffffffffffffffffffffffffffffffffffff16148061094457506109438561093e611bcb565b611a2c565b5b610983576040517f08c379a000000000000000000000000000000000000000000000000000000000815260040161097a90613d1a565b60405180910390fd5b6109908585858585611be7565b5050505050565b816000600460008373ffffffffffffffffffffffffffffffffffffffff1673ffffffffffffffffffffffffffffffffffffffff16815260200190815260200160002060000160009054906101000a900473ffffffffffffffffffffffffffffffffffffffff1690506000610a09611bcb565b9050600073ffffffffffffffffffffffffffffffffffffffff168273ffffffffffffffffffffffffffffffffffffffff161480610a7157508173ffffffffffffffffffffffffffffffffffffffff168173ffffffffffffffffffffffffffffffffffffffff16145b80610a825750610a818282611bd3565b5b610ac1576040517f08c379a0000000000000000000000000000000000000000000000000000000008152600401610ab890613c88565b60405180910390fd5b83600460008773ffffffffffffffffffffffffffffffffffffffff1673ffffffffffffffffffffffffffffffffffffffff1681526020019081526020016000206007019080519060200190610b17929190612ee7565b508473ffffffffffffffffffffffffffffffffffffffff16610b37611bcb565b73ffffffffffffffffffffffffffffffffffffffff167f7fd1c43abb0471595dcd4d461fdb320d926cbf2b8ba6fa87a78f1b1b0bf3e59260405160405180910390a35050505050565b60035481565b610b96610b91611bcb565b611c9e565b610bd5576040517f08c379a0000000000000000000000000000000000000000000000000000000008152600401610bcc90613dac565b60405180910390fd5b662386f26fc10000811015610c1f576040517f08c379a0000000000000000000000000000000000000000000000000000000008152600401610c1690613e64565b60405180910390fd5b806003819055507fc652b105063222eb8399f76ca13b5913144c1d8af3a94bc240248ecbc36ac80b81604051610c559190613081565b60405180910390a150565b60608151835114610ca6576040517f08c379a0000000000000000000000000000000000000000000000000000000008152600401610c9d90613ef6565b60405180910390fd5b6000835167ffffffffffffffff811115610cc357610cc2613249565b5b604051908082528060200260200182016040528015610cf15781602001602082028036833780820191505090505b50905060005b8451811015610d6e57610d3e858281518110610d1657610d15613f16565b5b6020026020010151858381518110610d3157610d30613f16565b5b60200260200101516104c8565b828281518110610d5157610d50613f16565b5b60200260200101818152505080610d6790613f74565b9050610cf7565b508091505092915050565b816000600460008373ffffffffffffffffffffffffffffffffffffffff1673ffffffffffffffffffffffffffffffffffffffff16815260200190815260200160002060000160009054906101000a900473ffffffffffffffffffffffffffffffffffffffff1690506000610deb611bcb565b9050600073ffffffffffffffffffffffffffffffffffffffff168273ffffffffffffffffffffffffffffffffffffffff161480610e5357508173ffffffffffffffffffffffffffffffffffffffff168173ffffffffffffffffffffffffffffffffffffffff16145b80610e645750610e638282611bd3565b5b610ea3576040517f08c379a0000000000000000000000000000000000000000000000000000000008152600401610e9a90613c88565b60405180910390fd5b600084511415610ee8576040517f08c379a0000000000000000000000000000000000000000000000000000000008152600401610edf9061402f565b60405180910390fd5b83600460008773ffffffffffffffffffffffffffffffffffffffff1673ffffffffffffffffffffffffffffffffffffffff1681526020019081526020016000206004019080519060200190610f3e929190612ee7565b508473ffffffffffffffffffffffffffffffffffffffff16610f5e611bcb565b73ffffffffffffffffffffffffffffffffffffffff167f7fd1c43abb0471595dcd4d461fdb320d926cbf2b8ba6fa87a78f1b1b0bf3e59260405160405180910390a35050505050565b816000600460008373ffffffffffffffffffffffffffffffffffffffff1673ffffffffffffffffffffffffffffffffffffffff16815260200190815260200160002060000160009054906101000a900473ffffffffffffffffffffffffffffffffffffffff1690506000611019611bcb565b9050600073ffffffffffffffffffffffffffffffffffffffff168273ffffffffffffffffffffffffffffffffffffffff16148061108157508173ffffffffffffffffffffffffffffffffffffffff168173ffffffffffffffffffffffffffffffffffffffff16145b8061109257506110918282611bd3565b5b6110d1576040517f08c379a00000000000000000000000000000000000000000000000000000000081526004016110c890613c88565b60405180910390fd5b83600460008773ffffffffffffffffffffffffffffffffffffffff1673ffffffffffffffffffffffffffffffffffffffff1681526020019081526020016000206006019080519060200190611127929190612ee7565b508473ffffffffffffffffffffffffffffffffffffffff16611147611bcb565b73ffffffffffffffffffffffffffffffffffffffff167f7fd1c43abb0471595dcd4d461fdb320d926cbf2b8ba6fa87a78f1b1b0bf3e59260405160405180910390a35050505050565b604051806060016040528060218152602001615282602191396003546000349050818114836111be84611cf8565b6111c784611cf8565b6040516020016111d99392919061416f565b60405160208183030381529060405290611229576040517f08c379a0000000000000000000000000000000000000000000000000000000008152600401611220919061321d565b60405180910390fd5b506000611234611bcb565b905060008b51141561127b576040517f08c379a000000000000000000000000000000000000000000000000000000000815260040161127290614233565b60405180910390fd5b60008a5114156112c0576040517f08c379a00000000000000000000000000000000000000000000000000000000081526004016112b7906142c5565b60405180910390fd5b600089511415611305576040517f08c379a00000000000000000000000000000000000000000000000000000000081526004016112fc9061402f565b60405180910390fd5b346006600082825461131791906142e5565b9250508190555060016005600082825461133191906142e5565b92505081905550600060d660f81b609460f81b308460055460001b6040516020016113609594939291906143fb565b6040516020818303038152906040528051906020012060001c90506040518061010001604052808373ffffffffffffffffffffffffffffffffffffffff1681526020018d81526020018c81526020018a81526020018b815260200189815260200188815260200187815250600460008373ffffffffffffffffffffffffffffffffffffffff1673ffffffffffffffffffffffffffffffffffffffff16815260200190815260200160002060008201518160000160006101000a81548173ffffffffffffffffffffffffffffffffffffffff021916908373ffffffffffffffffffffffffffffffffffffffff160217905550602082015181600101908051906020019061146d929190612ee7565b50604082015181600201908051906020019061148a929190612ee7565b5060608201518160030190805190602001906114a7929190612ee7565b5060808201518160040190805190602001906114c4929190612ee7565b5060a08201518160050190805190602001906114e1929190612ee7565b5060c08201518160060190805190602001906114fe929190612ee7565b5060e082015181600701908051906020019061151b929190612ee7565b509050506115298183611e59565b8073ffffffffffffffffffffffffffffffffffffffff168273ffffffffffffffffffffffffffffffffffffffff167fbaa80c9cbed3f9a5fcdc4e9dd7785f9cfc968a81b80b94363bea0e92c938c0d98e8e3460405161158a9392919061445a565b60405180910390a3505050505050505050505050565b816000600460008373ffffffffffffffffffffffffffffffffffffffff1673ffffffffffffffffffffffffffffffffffffffff16815260200190815260200160002060000160009054906101000a900473ffffffffffffffffffffffffffffffffffffffff1690506000611612611bcb565b9050600073ffffffffffffffffffffffffffffffffffffffff168273ffffffffffffffffffffffffffffffffffffffff16148061167a57508173ffffffffffffffffffffffffffffffffffffffff168173ffffffffffffffffffffffffffffffffffffffff16145b8061168b575061168a8282611bd3565b5b6116ca576040517f08c379a00000000000000000000000000000000000000000000000000000000081526004016116c190613c88565b60405180910390fd5b83600460008773ffffffffffffffffffffffffffffffffffffffff1673ffffffffffffffffffffffffffffffffffffffff1681526020019081526020016000206003019080519060200190611720929190612ee7565b508473ffffffffffffffffffffffffffffffffffffffff16611740611bcb565b73ffffffffffffffffffffffffffffffffffffffff167f7fd1c43abb0471595dcd4d461fdb320d926cbf2b8ba6fa87a78f1b1b0bf3e59260405160405180910390a35050505050565b600760009054906101000a900473ffffffffffffffffffffffffffffffffffffffff1681565b60606000600460008473ffffffffffffffffffffffffffffffffffffffff1673ffffffffffffffffffffffffffffffffffffffff1681526020019081526020016000209050600073ffffffffffffffffffffffffffffffffffffffff168160000160009054906101000a900473ffffffffffffffffffffffffffffffffffffffff1673ffffffffffffffffffffffffffffffffffffffff16141561186557604051806020016040528060008152509150506118d1565b6118ae8160010182600201836004018460030185600501866006018760070160405160200161189a9796959493929190614793565b604051602081830303815290604052611e98565b6040516020016118be919061489c565b6040516020818303038152906040529150505b919050565b60006118e0611bcb565b90506118eb81611ffc565b61192a576040517f08c379a000000000000000000000000000000000000000000000000000000000815260040161192190614930565b60405180910390fd5b6000821161196d576040517f08c379a0000000000000000000000000000000000000000000000000000000008152600401611964906149c2565b60405180910390fd5b8160065410156119b2576040517f08c379a00000000000000000000000000000000000000000000000000000000081526004016119a990614a54565b60405180910390fd5b81600660008282546119c49190614a74565b925050819055508073ffffffffffffffffffffffffffffffffffffffff166108fc839081150290604051600060405180830381858888f19350505050158015611a11573d6000803e3d6000fd5b505050565b611a28611a21611bcb565b8383612056565b5050565b6000600160008473ffffffffffffffffffffffffffffffffffffffff1673ffffffffffffffffffffffffffffffffffffffff16815260200190815260200160002060008373ffffffffffffffffffffffffffffffffffffffff1673ffffffffffffffffffffffffffffffffffffffff16815260200190815260200160002060009054906101000a900460ff16905092915050565b611ac8611bcb565b73ffffffffffffffffffffffffffffffffffffffff168573ffffffffffffffffffffffffffffffffffffffff161480611b0e5750611b0d85611b08611bcb565b611a2c565b5b611b4d576040517f08c379a0000000000000000000000000000000000000000000000000000000008152600401611b4490613d1a565b60405180910390fd5b611b5a85858585856121c3565b5050505050565b60007f01ffc9a7000000000000000000000000000000000000000000000000000000007bffffffffffffffffffffffffffffffffffffffffffffffffffffffff1916827bffffffffffffffffffffffffffffffffffffffffffffffffffffffff1916149050919050565b600033905090565b6000611bdf8383611a2c565b905092915050565b611bf485858585856121ff565b60005b8251811015611c965774010000000000000000000000000000000000000000848281518110611c2957611c28613f16565b5b6020026020010151108015611c5957506000838281518110611c4e57611c4d613f16565b5b602002602001015114155b15611c8357611c82848281518110611c7457611c73613f16565b5b602002602001015186612521565b5b8080611c8e90613f74565b915050611bf7565b505050505050565b60008173ffffffffffffffffffffffffffffffffffffffff16600760009054906101000a900473ffffffffffffffffffffffffffffffffffffffff1673ffffffffffffffffffffffffffffffffffffffff16149050919050565b60606000821415611d40576040518060400160405280600181526020017f30000000000000000000000000000000000000000000000000000000000000008152509050611e54565b600082905060005b60008214611d72578080611d5b90613f74565b915050600a82611d6b9190614ad7565b9150611d48565b60008167ffffffffffffffff811115611d8e57611d8d613249565b5b6040519080825280601f01601f191660200182016040528015611dc05781602001600182028036833780820191505090505b5090505b60008514611e4d57600182611dd99190614a74565b9150600a85611de89190614b08565b6030611df491906142e5565b60f81b818381518110611e0a57611e09613f16565b5b60200101907effffffffffffffffffffffffffffffffffffffffffffffffffffffffffffff1916908160001a905350600a85611e469190614ad7565b9450611dc4565b8093505050505b919050565b611e94818373ffffffffffffffffffffffffffffffffffffffff1660016040518060600160405280603281526020016152106032913961263d565b5050565b6060600082511415611ebb57604051806020016040528060008152509050611ff7565b60006040518060600160405280604081526020016152426040913990506000600360028551611eea91906142e5565b611ef49190614ad7565b6004611f009190614b39565b67ffffffffffffffff811115611f1957611f18613249565b5b6040519080825280601f01601f191660200182016040528015611f4b5781602001600182028036833780820191505090505b509050600182016020820185865187015b80821015611fb7576003820191508151603f8160121c168501518453600184019350603f81600c1c168501518453600184019350603f8160061c168501518453600184019350603f8116850151845360018401935050611f5c565b5050600386510660018114611fd35760028114611fe657611fee565b603d6001830353603d6002830353611fee565b603d60018303535b50505080925050505b919050565b60008173ffffffffffffffffffffffffffffffffffffffff16600760009054906101000a900473ffffffffffffffffffffffffffffffffffffffff1673ffffffffffffffffffffffffffffffffffffffff16149050919050565b8173ffffffffffffffffffffffffffffffffffffffff168373ffffffffffffffffffffffffffffffffffffffff1614156120c5576040517f08c379a00000000000000000000000000000000000000000000000000000000081526004016120bc90614c05565b60405180910390fd5b80600160008573ffffffffffffffffffffffffffffffffffffffff1673ffffffffffffffffffffffffffffffffffffffff16815260200190815260200160002060008473ffffffffffffffffffffffffffffffffffffffff1673ffffffffffffffffffffffffffffffffffffffff16815260200190815260200160002060006101000a81548160ff0219169083151502179055508173ffffffffffffffffffffffffffffffffffffffff168373ffffffffffffffffffffffffffffffffffffffff167f17307eab39ab6107e8899845ad3d59bd9653f200f220920489ca2b5937696c31836040516121b6919061313c565b60405180910390a3505050565b6121d085858585856127ee565b740100000000000000000000000000000000000000008310156121f8576121f78385612521565b5b5050505050565b8151835114612243576040517f08c379a000000000000000000000000000000000000000000000000000000000815260040161223a90614c97565b60405180910390fd5b600073ffffffffffffffffffffffffffffffffffffffff168473ffffffffffffffffffffffffffffffffffffffff1614156122b3576040517f08c379a00000000000000000000000000000000000000000000000000000000081526004016122aa90614d29565b60405180910390fd5b60006122bd611bcb565b90506122cd818787878787612a8a565b60005b845181101561247e5760008582815181106122ee576122ed613f16565b5b60200260200101519050600085838151811061230d5761230c613f16565b5b60200260200101519050600080600084815260200190815260200160002060008b73ffffffffffffffffffffffffffffffffffffffff1673ffffffffffffffffffffffffffffffffffffffff168152602001908152602001600020549050818110156123ae576040517f08c379a00000000000000000000000000000000000000000000000000000000081526004016123a590614dbb565b60405180910390fd5b81810360008085815260200190815260200160002060008c73ffffffffffffffffffffffffffffffffffffffff1673ffffffffffffffffffffffffffffffffffffffff168152602001908152602001600020819055508160008085815260200190815260200160002060008b73ffffffffffffffffffffffffffffffffffffffff1673ffffffffffffffffffffffffffffffffffffffff168152602001908152602001600020600082825461246391906142e5565b925050819055505050508061247790613f74565b90506122d0565b508473ffffffffffffffffffffffffffffffffffffffff168673ffffffffffffffffffffffffffffffffffffffff168273ffffffffffffffffffffffffffffffffffffffff167f4a39dc06d4c0dbc64b70af90fd698a233a518aa5d07e595d983b8c0526c8f7fb87876040516124f5929190614ddb565b60405180910390a461250b818787878787612a92565b612519818787878787612a9a565b505050505050565b600073ffffffffffffffffffffffffffffffffffffffff16600460008473ffffffffffffffffffffffffffffffffffffffff1673ffffffffffffffffffffffffffffffffffffffff16815260200190815260200160002060000160009054906101000a900473ffffffffffffffffffffffffffffffffffffffff1673ffffffffffffffffffffffffffffffffffffffff16146126395780600460008473ffffffffffffffffffffffffffffffffffffffff1673ffffffffffffffffffffffffffffffffffffffff16815260200190815260200160002060000160006101000a81548173ffffffffffffffffffffffffffffffffffffffff021916908373ffffffffffffffffffffffffffffffffffffffff1602179055505b5050565b600073ffffffffffffffffffffffffffffffffffffffff168473ffffffffffffffffffffffffffffffffffffffff1614156126ad576040517f08c379a00000000000000000000000000000000000000000000000000000000081526004016126a490614e84565b60405180910390fd5b60006126b7611bcb565b905060006126c485612c72565b905060006126d185612c72565b90506126e283600089858589612a8a565b8460008088815260200190815260200160002060008973ffffffffffffffffffffffffffffffffffffffff1673ffffffffffffffffffffffffffffffffffffffff168152602001908152602001600020600082825461274191906142e5565b925050819055508673ffffffffffffffffffffffffffffffffffffffff16600073ffffffffffffffffffffffffffffffffffffffff168473ffffffffffffffffffffffffffffffffffffffff167fc3d58168c5ae7397731d063d5bbf3d657854427343f4c083240f7aacaa2d0f6289896040516127bf929190614ea4565b60405180910390a46127d683600089858589612a92565b6127e583600089898989612cec565b50505050505050565b600073ffffffffffffffffffffffffffffffffffffffff168473ffffffffffffffffffffffffffffffffffffffff16141561285e576040517f08c379a000000000000000000000000000000000000000000000000000000000815260040161285590614d29565b60405180910390fd5b6000612868611bcb565b9050600061287585612c72565b9050600061288285612c72565b9050612892838989858589612a8a565b600080600088815260200190815260200160002060008a73ffffffffffffffffffffffffffffffffffffffff1673ffffffffffffffffffffffffffffffffffffffff16815260200190815260200160002054905085811015612929576040517f08c379a000000000000000000000000000000000000000000000000000000000815260040161292090614dbb565b60405180910390fd5b85810360008089815260200190815260200160002060008b73ffffffffffffffffffffffffffffffffffffffff1673ffffffffffffffffffffffffffffffffffffffff168152602001908152602001600020819055508560008089815260200190815260200160002060008a73ffffffffffffffffffffffffffffffffffffffff1673ffffffffffffffffffffffffffffffffffffffff16815260200190815260200160002060008282546129de91906142e5565b925050819055508773ffffffffffffffffffffffffffffffffffffffff168973ffffffffffffffffffffffffffffffffffffffff168573ffffffffffffffffffffffffffffffffffffffff167fc3d58168c5ae7397731d063d5bbf3d657854427343f4c083240f7aacaa2d0f628a8a604051612a5b929190614ea4565b60405180910390a4612a71848a8a86868a612a92565b612a7f848a8a8a8a8a612cec565b505050505050505050565b505050505050565b505050505050565b612ab98473ffffffffffffffffffffffffffffffffffffffff16612ec4565b15612c6a578373ffffffffffffffffffffffffffffffffffffffff1663bc197c8187878686866040518663ffffffff1660e01b8152600401612aff959493929190614f22565b6020604051808303816000875af1925050508015612b3b57506040513d601f19601f82011682018060405250810190612b389190614f9f565b60015b612be157612b47614fd9565b806308c379a01415612ba45750612b5c614ffb565b80612b675750612ba6565b806040517f08c379a0000000000000000000000000000000000000000000000000000000008152600401612b9b919061321d565b60405180910390fd5b505b6040517f08c379a0000000000000000000000000000000000000000000000000000000008152600401612bd890615103565b60405180910390fd5b63bc197c8160e01b7bffffffffffffffffffffffffffffffffffffffffffffffffffffffff1916817bffffffffffffffffffffffffffffffffffffffffffffffffffffffff191614612c68576040517f08c379a0000000000000000000000000000000000000000000000000000000008152600401612c5f90615195565b60405180910390fd5b505b505050505050565b60606000600167ffffffffffffffff811115612c9157612c90613249565b5b604051908082528060200260200182016040528015612cbf5781602001602082028036833780820191505090505b5090508281600081518110612cd757612cd6613f16565b5b60200260200101818152505080915050919050565b612d0b8473ffffffffffffffffffffffffffffffffffffffff16612ec4565b15612ebc578373ffffffffffffffffffffffffffffffffffffffff1663f23a6e6187878686866040518663ffffffff1660e01b8152600401612d519594939291906151b5565b6020604051808303816000875af1925050508015612d8d57506040513d601f19601f82011682018060405250810190612d8a9190614f9f565b60015b612e3357612d99614fd9565b806308c379a01415612df65750612dae614ffb565b80612db95750612df8565b806040517f08c379a0000000000000000000000000000000000000000000000000000000008152600401612ded919061321d565b60405180910390fd5b505b6040517f08c379a0000000000000000000000000000000000000000000000000000000008152600401612e2a90615103565b60405180910390fd5b63f23a6e6160e01b7bffffffffffffffffffffffffffffffffffffffffffffffffffffffff1916817bffffffffffffffffffffffffffffffffffffffffffffffffffffffff191614612eba576040517f08c379a0000000000000000000000000000000000000000000000000000000008152600401612eb190615195565b60405180910390fd5b505b505050505050565b6000808273ffffffffffffffffffffffffffffffffffffffff163b119050919050565b828054612ef390613be4565b90600052602060002090601f016020900481019282612f155760008555612f5c565b82601f10612f2e57805160ff1916838001178555612f5c565b82800160010185558215612f5c579182015b82811115612f5b578251825591602001919060010190612f40565b5b509050612f699190612f6d565b5090565b5b80821115612f86576000816000905550600101612f6e565b5090565b6000604051905090565b600080fd5b600080fd5b600073ffffffffffffffffffffffffffffffffffffffff82169050919050565b6000612fc982612f9e565b9050919050565b612fd981612fbe565b8114612fe457600080fd5b50565b600081359050612ff681612fd0565b92915050565b6000819050919050565b61300f81612ffc565b811461301a57600080fd5b50565b60008135905061302c81613006565b92915050565b6000806040838503121561304957613048612f94565b5b600061305785828601612fe7565b92505060206130688582860161301d565b9150509250929050565b61307b81612ffc565b82525050565b60006020820190506130966000830184613072565b92915050565b60007fffffffff0000000000000000000000000000000000000000000000000000000082169050919050565b6130d18161309c565b81146130dc57600080fd5b50565b6000813590506130ee816130c8565b92915050565b60006020828403121561310a57613109612f94565b5b6000613118848285016130df565b91505092915050565b60008115159050919050565b61313681613121565b82525050565b6000602082019050613151600083018461312d565b92915050565b60006020828403121561316d5761316c612f94565b5b600061317b8482850161301d565b91505092915050565b600081519050919050565b600082825260208201905092915050565b60005b838110156131be5780820151818401526020810190506131a3565b838111156131cd576000848401525b50505050565b6000601f19601f8301169050919050565b60006131ef82613184565b6131f9818561318f565b93506132098185602086016131a0565b613212816131d3565b840191505092915050565b6000602082019050818103600083015261323781846131e4565b905092915050565b600080fd5b600080fd5b7f4e487b7100000000000000000000000000000000000000000000000000000000600052604160045260246000fd5b613281826131d3565b810181811067ffffffffffffffff821117156132a05761329f613249565b5b80604052505050565b60006132b3612f8a565b90506132bf8282613278565b919050565b600067ffffffffffffffff8211156132df576132de613249565b5b6132e8826131d3565b9050602081019050919050565b82818337600083830152505050565b6000613317613312846132c4565b6132a9565b90508281526020810184848401111561333357613332613244565b5b61333e8482856132f5565b509392505050565b600082601f83011261335b5761335a61323f565b5b813561336b848260208601613304565b91505092915050565b6000806040838503121561338b5761338a612f94565b5b600061339985828601612fe7565b925050602083013567ffffffffffffffff8111156133ba576133b9612f99565b5b6133c685828601613346565b9150509250929050565b600067ffffffffffffffff8211156133eb576133ea613249565b5b602082029050602081019050919050565b600080fd5b600061341461340f846133d0565b6132a9565b90508083825260208201905060208402830185811115613437576134366133fc565b5b835b81811015613460578061344c888261301d565b845260208401935050602081019050613439565b5050509392505050565b600082601f83011261347f5761347e61323f565b5b813561348f848260208601613401565b91505092915050565b600067ffffffffffffffff8211156134b3576134b2613249565b5b6134bc826131d3565b9050602081019050919050565b60006134dc6134d784613498565b6132a9565b9050828152602081018484840111156134f8576134f7613244565b5b6135038482856132f5565b509392505050565b600082601f8301126135205761351f61323f565b5b81356135308482602086016134c9565b91505092915050565b600080600080600060a0868803121561355557613554612f94565b5b600061356388828901612fe7565b955050602061357488828901612fe7565b945050604086013567ffffffffffffffff81111561359557613594612f99565b5b6135a18882890161346a565b935050606086013567ffffffffffffffff8111156135c2576135c1612f99565b5b6135ce8882890161346a565b925050608086013567ffffffffffffffff8111156135ef576135ee612f99565b5b6135fb8882890161350b565b9150509295509295909350565b600067ffffffffffffffff82111561362357613622613249565b5b602082029050602081019050919050565b600061364761364284613608565b6132a9565b9050808382526020820190506020840283018581111561366a576136696133fc565b5b835b81811015613693578061367f8882612fe7565b84526020840193505060208101905061366c565b5050509392505050565b600082601f8301126136b2576136b161323f565b5b81356136c2848260208601613634565b91505092915050565b600080604083850312156136e2576136e1612f94565b5b600083013567ffffffffffffffff811115613700576136ff612f99565b5b61370c8582860161369d565b925050602083013567ffffffffffffffff81111561372d5761372c612f99565b5b6137398582860161346a565b9150509250929050565b600081519050919050565b600082825260208201905092915050565b6000819050602082019050919050565b61377881612ffc565b82525050565b600061378a838361376f565b60208301905092915050565b6000602082019050919050565b60006137ae82613743565b6137b8818561374e565b93506137c38361375f565b8060005b838110156137f45781516137db888261377e565b97506137e683613796565b9250506001810190506137c7565b5085935050505092915050565b6000602082019050818103600083015261381b81846137a3565b905092915050565b600080600080600080600060e0888a03121561384257613841612f94565b5b600088013567ffffffffffffffff8111156138605761385f612f99565b5b61386c8a828b01613346565b975050602088013567ffffffffffffffff81111561388d5761388c612f99565b5b6138998a828b01613346565b965050604088013567ffffffffffffffff8111156138ba576138b9612f99565b5b6138c68a828b01613346565b955050606088013567ffffffffffffffff8111156138e7576138e6612f99565b5b6138f38a828b01613346565b945050608088013567ffffffffffffffff81111561391457613913612f99565b5b6139208a828b01613346565b93505060a088013567ffffffffffffffff81111561394157613940612f99565b5b61394d8a828b01613346565b92505060c088013567ffffffffffffffff81111561396e5761396d612f99565b5b61397a8a828b01613346565b91505092959891949750929550565b61399281612fbe565b82525050565b60006020820190506139ad6000830184613989565b92915050565b6000602082840312156139c9576139c8612f94565b5b60006139d784828501612fe7565b91505092915050565b6139e981613121565b81146139f457600080fd5b50565b600081359050613a06816139e0565b92915050565b60008060408385031215613a2357613a22612f94565b5b6000613a3185828601612fe7565b9250506020613a42858286016139f7565b9150509250929050565b60008060408385031215613a6357613a62612f94565b5b6000613a7185828601612fe7565b9250506020613a8285828601612fe7565b9150509250929050565b600080600080600060a08688031215613aa857613aa7612f94565b5b6000613ab688828901612fe7565b9550506020613ac788828901612fe7565b9450506040613ad88882890161301d565b9350506060613ae98882890161301d565b925050608086013567ffffffffffffffff811115613b0a57613b09612f99565b5b613b168882890161350b565b9150509295509295909350565b7f455243313135353a2061646472657373207a65726f206973206e6f742061207660008201527f616c6964206f776e657200000000000000000000000000000000000000000000602082015250565b6000613b7f602a8361318f565b9150613b8a82613b23565b604082019050919050565b60006020820190508181036000830152613bae81613b72565b9050919050565b7f4e487b7100000000000000000000000000000000000000000000000000000000600052602260045260246000fd5b60006002820490506001821680613bfc57607f821691505b60208210811415613c1057613c0f613bb5565b5b50919050565b7f4272616e6452656769737472793a2063616c6c6572206973206e6f742062726160008201527f6e64206f776e6572206e6f7220617070726f7665640000000000000000000000602082015250565b6000613c7260358361318f565b9150613c7d82613c16565b604082019050919050565b60006020820190508181036000830152613ca181613c65565b9050919050565b7f455243313135353a2063616c6c6572206973206e6f7420746f6b656e206f776e60008201527f6572206e6f7220617070726f7665640000000000000000000000000000000000602082015250565b6000613d04602f8361318f565b9150613d0f82613ca8565b604082019050919050565b60006020820190508181036000830152613d3381613cf7565b9050919050565b7f4272616e6452656769737472793a206e6f7420616c6c6f77656420746f20736560008201527f7420746865206272616e6420726567697374726174696f6e20636f7374000000602082015250565b6000613d96603d8361318f565b9150613da182613d3a565b604082019050919050565b60006020820190508181036000830152613dc581613d89565b9050919050565b7f4272616e6452656769737472793a20746865206272616e64207265676973747260008201527f7920636f7374206d757374206e6f74206265206c657373207468616e20302e3060208201527f31206e617469766520746f6b656e730000000000000000000000000000000000604082015250565b6000613e4e604f8361318f565b9150613e5982613dcc565b606082019050919050565b60006020820190508181036000830152613e7d81613e41565b9050919050565b7f455243313135353a206163636f756e747320616e6420696473206c656e67746860008201527f206d69736d617463680000000000000000000000000000000000000000000000602082015250565b6000613ee060298361318f565b9150613eeb82613e84565b604082019050919050565b60006020820190508181036000830152613f0f81613ed3565b9050919050565b7f4e487b7100000000000000000000000000000000000000000000000000000000600052603260045260246000fd5b7f4e487b7100000000000000000000000000000000000000000000000000000000600052601160045260246000fd5b6000613f7f82612ffc565b91507fffffffffffffffffffffffffffffffffffffffffffffffffffffffffffffffff821415613fb257613fb1613f45565b5b600182019050919050565b7f4272616e6452656769737472793a207573652061206e6f6e2d656d707479206960008201527f6d6167652075726c000000000000000000000000000000000000000000000000602082015250565b600061401960288361318f565b915061402482613fbd565b604082019050919050565b600060208201905081810360008301526140488161400c565b9050919050565b600081905092915050565b600061406582613184565b61406f818561404f565b935061407f8185602086016131a0565b80840191505092915050565b7f20726571756972657320616e206578616374207061796d656e74206f66200000600082015250565b60006140c1601e8361404f565b91506140cc8261408b565b601e82019050919050565b7f2062757420000000000000000000000000000000000000000000000000000000600082015250565b600061410d60058361404f565b9150614118826140d7565b600582019050919050565b7f2077617320676976656e00000000000000000000000000000000000000000000600082015250565b6000614159600a8361404f565b915061416482614123565b600a82019050919050565b600061417b828661405a565b9150614186826140b4565b9150614192828561405a565b915061419d82614100565b91506141a9828461405a565b91506141b48261414c565b9150819050949350505050565b7f4272616e6452656769737472793a207573652061206e6f6e2d656d707479206e60008201527f616d650000000000000000000000000000000000000000000000000000000000602082015250565b600061421d60238361318f565b9150614228826141c1565b604082019050919050565b6000602082019050818103600083015261424c81614210565b9050919050565b7f4272616e6452656769737472793a207573652061206e6f6e2d656d707479206460008201527f65736372697074696f6e00000000000000000000000000000000000000000000602082015250565b60006142af602a8361318f565b91506142ba82614253565b604082019050919050565b600060208201905081810360008301526142de816142a2565b9050919050565b60006142f082612ffc565b91506142fb83612ffc565b9250827fffffffffffffffffffffffffffffffffffffffffffffffffffffffffffffffff038211156143305761432f613f45565b5b828201905092915050565b60007fff0000000000000000000000000000000000000000000000000000000000000082169050919050565b6000819050919050565b61438261437d8261433b565b614367565b82525050565b60008160601b9050919050565b60006143a082614388565b9050919050565b60006143b282614395565b9050919050565b6143ca6143c582612fbe565b6143a7565b82525050565b6000819050919050565b6000819050919050565b6143f56143f0826143d0565b6143da565b82525050565b60006144078288614371565b6001820191506144178287614371565b60018201915061442782866143b9565b60148201915061443782856143b9565b60148201915061444782846143e4565b6020820191508190509695505050505050565b6000606082019050818103600083015261447481866131e4565b9050818103602083015261448881856131e4565b90506144976040830184613072565b949350505050565b7f7b226e616d65223a220000000000000000000000000000000000000000000000600082015250565b60006144d560098361404f565b91506144e08261449f565b600982019050919050565b60008190508160005260206000209050919050565b6000815461450d81613be4565b614517818661404f565b94506001821660008114614532576001811461454357614576565b60ff19831686528186019350614576565b61454c856144eb565b60005b8381101561456e5781548189015260018201915060208101905061454f565b838801955050505b50505092915050565b7f222c226465736372697074696f6e223a22000000000000000000000000000000600082015250565b60006145b560118361404f565b91506145c08261457f565b601182019050919050565b7f222c22696d616765223a22000000000000000000000000000000000000000000600082015250565b6000614601600b8361404f565b915061460c826145cb565b600b82019050919050565b7f222c2270726f70657274696573223a7b226368616c6c656e676555726c223a22600082015250565b600061464d60208361404f565b915061465882614617565b602082019050919050565b7f222c2269636f6e3136783136223a220000000000000000000000000000000000600082015250565b6000614699600f8361404f565b91506146a482614663565b600f82019050919050565b7f222c2269636f6e3332783332223a220000000000000000000000000000000000600082015250565b60006146e5600f8361404f565b91506146f0826146af565b600f82019050919050565b7f222c2269636f6e3634783634223a220000000000000000000000000000000000600082015250565b6000614731600f8361404f565b915061473c826146fb565b600f82019050919050565b7f227d7d0000000000000000000000000000000000000000000000000000000000600082015250565b600061477d60038361404f565b915061478882614747565b600382019050919050565b600061479e826144c8565b91506147aa828a614500565b91506147b5826145a8565b91506147c18289614500565b91506147cc826145f4565b91506147d88288614500565b91506147e382614640565b91506147ef8287614500565b91506147fa8261468c565b91506148068286614500565b9150614811826146d8565b915061481d8285614500565b915061482882614724565b91506148348284614500565b915061483f82614770565b915081905098975050505050505050565b7f646174613a6170706c69636174696f6e2f6a736f6e3b6261736536342c000000600082015250565b6000614886601d8361404f565b915061489182614850565b601d82019050919050565b60006148a782614879565b91506148b3828461405a565b915081905092915050565b7f4272616e6452656769737472793a206561726e696e67732063616e6e6f74206260008201527f652077697468647261776e20627920746869732073656e646572000000000000602082015250565b600061491a603a8361318f565b9150614925826148be565b604082019050919050565b600060208201905081810360008301526149498161490d565b9050919050565b7f4272616e6452656769737472793a206561726e696e677320616d6f756e74206d60008201527f757374206e6f7420626520300000000000000000000000000000000000000000602082015250565b60006149ac602c8361318f565b91506149b782614950565b604082019050919050565b600060208201905081810360008301526149db8161499f565b9050919050565b7f4272616e6452656769737472793a206561726e696e677320616d6f756e74206960008201527f73206c657373207468616e207468652072657175657374656420616d6f756e74602082015250565b6000614a3e60408361318f565b9150614a49826149e2565b604082019050919050565b60006020820190508181036000830152614a6d81614a31565b9050919050565b6000614a7f82612ffc565b9150614a8a83612ffc565b925082821015614a9d57614a9c613f45565b5b828203905092915050565b7f4e487b7100000000000000000000000000000000000000000000000000000000600052601260045260246000fd5b6000614ae282612ffc565b9150614aed83612ffc565b925082614afd57614afc614aa8565b5b828204905092915050565b6000614b1382612ffc565b9150614b1e83612ffc565b925082614b2e57614b2d614aa8565b5b828206905092915050565b6000614b4482612ffc565b9150614b4f83612ffc565b9250817fffffffffffffffffffffffffffffffffffffffffffffffffffffffffffffffff0483118215151615614b8857614b87613f45565b5b828202905092915050565b7f455243313135353a2073657474696e6720617070726f76616c2073746174757360008201527f20666f722073656c660000000000000000000000000000000000000000000000602082015250565b6000614bef60298361318f565b9150614bfa82614b93565b604082019050919050565b60006020820190508181036000830152614c1e81614be2565b9050919050565b7f455243313135353a2069647320616e6420616d6f756e7473206c656e6774682060008201527f6d69736d61746368000000000000000000000000000000000000000000000000602082015250565b6000614c8160288361318f565b9150614c8c82614c25565b604082019050919050565b60006020820190508181036000830152614cb081614c74565b9050919050565b7f455243313135353a207472616e7366657220746f20746865207a65726f20616460008201527f6472657373000000000000000000000000000000000000000000000000000000602082015250565b6000614d1360258361318f565b9150614d1e82614cb7565b604082019050919050565b60006020820190508181036000830152614d4281614d06565b9050919050565b7f455243313135353a20696e73756666696369656e742062616c616e636520666f60008201527f72207472616e7366657200000000000000000000000000000000000000000000602082015250565b6000614da5602a8361318f565b9150614db082614d49565b604082019050919050565b60006020820190508181036000830152614dd481614d98565b9050919050565b60006040820190508181036000830152614df581856137a3565b90508181036020830152614e0981846137a3565b90509392505050565b7f455243313135353a206d696e7420746f20746865207a65726f2061646472657360008201527f7300000000000000000000000000000000000000000000000000000000000000602082015250565b6000614e6e60218361318f565b9150614e7982614e12565b604082019050919050565b60006020820190508181036000830152614e9d81614e61565b9050919050565b6000604082019050614eb96000830185613072565b614ec66020830184613072565b9392505050565b600081519050919050565b600082825260208201905092915050565b6000614ef482614ecd565b614efe8185614ed8565b9350614f0e8185602086016131a0565b614f17816131d3565b840191505092915050565b600060a082019050614f376000830188613989565b614f446020830187613989565b8181036040830152614f5681866137a3565b90508181036060830152614f6a81856137a3565b90508181036080830152614f7e8184614ee9565b90509695505050505050565b600081519050614f99816130c8565b92915050565b600060208284031215614fb557614fb4612f94565b5b6000614fc384828501614f8a565b91505092915050565b60008160e01c9050919050565b600060033d1115614ff85760046000803e614ff5600051614fcc565b90505b90565b600060443d101561500b5761508e565b615013612f8a565b60043d036004823e80513d602482011167ffffffffffffffff8211171561503b57505061508e565b808201805167ffffffffffffffff811115615059575050505061508e565b80602083010160043d03850181111561507657505050505061508e565b61508582602001850186613278565b82955050505050505b90565b7f455243313135353a207472616e7366657220746f206e6f6e204552433131353560008201527f526563656976657220696d706c656d656e746572000000000000000000000000602082015250565b60006150ed60348361318f565b91506150f882615091565b604082019050919050565b6000602082019050818103600083015261511c816150e0565b9050919050565b7f455243313135353a204552433131353552656365697665722072656a6563746560008201527f6420746f6b656e73000000000000000000000000000000000000000000000000602082015250565b600061517f60288361318f565b915061518a82615123565b604082019050919050565b600060208201905081810360008301526151ae81615172565b9050919050565b600060a0820190506151ca6000830188613989565b6151d76020830187613989565b6151e46040830186613072565b6151f16060830185613072565b81810360808301526152038184614ee9565b9050969550505050505056fe53616d706c6545524331313535576974684272616e6452656769737472793a2074657374205f6d696e744272616e64466f724142434445464748494a4b4c4d4e4f505152535455565758595a6162636465666768696a6b6c6d6e6f707172737475767778797a303132333435363738392b2f4272616e6452656769737472793a206272616e6420726567697374726174696f6ea2646970667358221220f6c716a682979342b631ddc1f192690afecab932c5e3386e225e1ebae883070664736f6c634300080a0033",
  "immutableReferences": {},
  "source": "// SPDX-License-Identifier: MIT\npragma solidity >=0.8 <0.9.0;\n\nimport \"@openzeppelin/contracts/token/ERC1155/ERC1155.sol\";\nimport \"../BrandRegistry.sol\";\nimport \"../../IdUtils.sol\";\n\ncontract SampleERC1155WithBrandRegistry is ERC1155, BrandRegistry {\n    address public owner;\n\n    constructor() ERC1155(\"about:blank\") {\n        owner = msg.sender;\n    }\n\n    function _canSetBrandRegistrationCost(address _sender) internal override view returns (bool) {\n        return owner == _sender;\n    }\n\n    function _mintBrandFor(address _brandId, address _owner) internal override {\n        _mint(_owner, uint256(uint160(_brandId)), 1, \"SampleERC1155WithBrandRegistry: test _mintBrandFor\");\n    }\n\n    function _isBrandOwnerApproved(address _brandOwner, address _sender) internal view override returns (bool) {\n        return isApprovedForAll(_brandOwner, _sender);\n    }\n\n    function _canWithdrawBrandRegistrationEarnings(address _sender) internal view override returns (bool) {\n        return owner == _sender;\n    }\n\n    function _safeTransferFrom(\n        address from,\n        address to,\n        uint256 id,\n        uint256 amount,\n        bytes memory data\n    ) internal override {\n        super._safeTransferFrom(from, to, id, amount, data);\n        if (id < (1 << 160)) {\n            _setBrandOwner(address(uint160(id)), to);\n        }\n    }\n\n    function _safeBatchTransferFrom(\n        address from,\n        address to,\n        uint256[] memory ids,\n        uint256[] memory amounts,\n        bytes memory data\n    ) internal override {\n        super._safeBatchTransferFrom(from, to, ids, amounts, data);\n        for(uint256 index = 0; index < amounts.length; index++) {\n            if (ids[index] < (1 << 160) && amounts[index] != 0) {\n                _setBrandOwner(address(uint160(ids[index])), to);\n            }\n        }\n    }\n}",
  "sourcePath": "/home/luismasuelli/Projects/OuterMaze/lingr-contracts/contracts/lingr/samples/SampleERC1155WithBrandRegistry.sol",
  "compiler": {
    "name": "solc",
    "version": "0.8.10+commit.fc410830.Emscripten.clang"
  },
  "schemaVersion": "3.4.3",
  "updatedAt": "2022-07-30T14:06:00.836Z",
  "devdoc": {
    "kind": "dev",
    "methods": {
      "balanceOf(address,uint256)": {
        "details": "See {IERC1155-balanceOf}. Requirements: - `account` cannot be the zero address."
      },
      "balanceOfBatch(address[],uint256[])": {
        "details": "See {IERC1155-balanceOfBatch}. Requirements: - `accounts` and `ids` must have the same length."
      },
      "isApprovedForAll(address,address)": {
        "details": "See {IERC1155-isApprovedForAll}."
      },
      "safeBatchTransferFrom(address,address,uint256[],uint256[],bytes)": {
        "details": "See {IERC1155-safeBatchTransferFrom}."
      },
      "safeTransferFrom(address,address,uint256,uint256,bytes)": {
        "details": "See {IERC1155-safeTransferFrom}."
      },
      "setApprovalForAll(address,bool)": {
        "details": "See {IERC1155-setApprovalForAll}."
      },
      "supportsInterface(bytes4)": {
        "details": "See {IERC165-supportsInterface}."
      },
      "uri(uint256)": {
        "details": "See {IERC1155MetadataURI-uri}. This implementation returns the same URI for *all* token types. It relies on the token type ID substitution mechanism https://eips.ethereum.org/EIPS/eip-1155#metadata[defined in the EIP]. Clients calling this function must replace the `\\{id\\}` substring with the actual token type ID."
      }
    },
    "version": 1
  },
  "userdoc": {
    "events": {
      "BrandEarningsWithdrawn(address,uint256)": {
        "notice": "This event is triggered when brand earnings were withdrawn successfully."
      },
      "BrandRegistered(address,address,string,string,uint256)": {
        "notice": "This event is triggered when a brand is registered. The new address is also included, along some reference data."
      },
      "BrandRegistrationCostUpdated(uint256)": {
        "notice": "An event for when the brand registration cost is updated."
      },
      "BrandUpdated(address,address)": {
        "notice": "This event is triggered when a brand is registered. The new address is also included, along some reference data."
      }
    },
    "kind": "user",
    "methods": {
      "brandMetadataURI(address)": {
        "notice": "Assembles the whole metadata for a brand. WARNING: This method will consume a lot of gas if invoked inside a transaction, so it is recommended to invoke this method in the context of a CALL, and never in the context of a SEND (even as part of other contract's code)."
      },
      "brandRegistrationCost()": {
        "notice": "The cost to register a new brand. This can be changed in the future and must be able to be known in the ABI for the users to be aware of the statistic."
      },
      "brandRegistrationCurrentEarnings()": {
        "notice": "Tells the current earnings, not yet withdrawn, from brand registrations."
      },
      "registerBrand(string,string,string,string,string,string,string)": {
        "notice": "Given the appropriate metadata, mints a new brand. The image url is mandatory, but about:blank may be used if it is missing or one image is not yet ready. The icons are optional. An empty string or about:blank should be used if not needed. Ensure all the urls are empty (as permitted) or valid urls, and the name and description have only json-string-friendly character, no backslash, and no double quotes or the metadata might fail to be assembled into valid JSON, also taking special care with the name and description, since they cannot be changed later."
      },
      "setBrandRegistrationCost(uint256)": {
        "notice": "Sets the new brand registration cost."
      },
      "updateBrandChallengeUrl(address,string)": {
        "notice": "Updates the brand's challenge url. Only the owner of the brand or an approved account can invoke this method. Ensure the url is empty or a valid URL, or metadata might fail to be assembled into valid JSON."
      },
      "updateBrandIcon16x16Url(address,string)": {
        "notice": "Updates the brand's 16x16 icon url. Only the owner of the brand or an approved account can invoke this method. Ensure the _icon is empty or a valid URL, or metadata might fail to be assembled into valid JSON."
      },
      "updateBrandIcon32x32Url(address,string)": {
        "notice": "Updates the brand's 32x32 icon url. Only the owner of the brand or an approved account can invoke this method. Ensure the _icon is empty or a valid URL, or metadata might fail to be assembled into valid JSON."
      },
      "updateBrandIcon64x64Url(address,string)": {
        "notice": "Updates the brand's 64x64 icon url. Only the owner of the brand or an approved account can invoke this method. Ensure the _icon is empty or a valid URL, or metadata might fail to be assembled into valid JSON."
      },
      "updateBrandImage(address,string)": {
        "notice": "Updates the brand image. Only the owner of the brand or an approved account can invoke this method. Ensure the _image is empty or a valid URL, or metadata might fail to be assembled into valid JSON."
      },
      "withdrawBrandRegistrationEarnings(uint256)": {
        "notice": "Allows the sender to withdraw brand registration earnings."
      }
    },
    "version": 1
  }
}