{
  "contractName": "SampleMetaverse",
  "abi": [
    {
      "inputs": [],
      "stateMutability": "nonpayable",
      "type": "constructor"
    },
    {
      "inputs": [
        {
          "internalType": "address",
          "name": "_contract",
          "type": "address"
        }
      ],
      "name": "addPlugin",
      "outputs": [],
      "stateMutability": "nonpayable",
      "type": "function"
    },
    {
      "inputs": [],
      "name": "brandRegistry",
      "outputs": [
        {
          "internalType": "address",
          "name": "",
          "type": "address"
        }
      ],
      "stateMutability": "view",
      "type": "function"
    },
    {
      "inputs": [
        {
          "internalType": "uint256",
          "name": "_tokenId",
          "type": "uint256"
        }
      ],
      "name": "defineFTType",
      "outputs": [],
      "stateMutability": "nonpayable",
      "type": "function"
    },
    {
      "inputs": [
        {
          "internalType": "uint256",
          "name": "_tokenId",
          "type": "uint256"
        }
      ],
      "name": "defineNFTType",
      "outputs": [],
      "stateMutability": "nonpayable",
      "type": "function"
    },
    {
      "inputs": [],
      "name": "deployer",
      "outputs": [
        {
          "internalType": "address",
          "name": "",
          "type": "address"
        }
      ],
      "stateMutability": "view",
      "type": "function"
    },
    {
      "inputs": [],
      "name": "economy",
      "outputs": [
        {
          "internalType": "address",
          "name": "",
          "type": "address"
        }
      ],
      "stateMutability": "view",
      "type": "function"
    },
    {
      "inputs": [
        {
          "internalType": "address",
          "name": "_to",
          "type": "address"
        },
        {
          "internalType": "address",
          "name": "_brandId",
          "type": "address"
        }
      ],
      "name": "mintBrandFor",
      "outputs": [],
      "stateMutability": "nonpayable",
      "type": "function"
    },
    {
      "inputs": [
        {
          "internalType": "address",
          "name": "_to",
          "type": "address"
        },
        {
          "internalType": "uint256",
          "name": "_tokenId",
          "type": "uint256"
        },
        {
          "internalType": "uint256",
          "name": "_amount",
          "type": "uint256"
        },
        {
          "internalType": "bytes",
          "name": "_data",
          "type": "bytes"
        }
      ],
      "name": "mintFTFor",
      "outputs": [],
      "stateMutability": "nonpayable",
      "type": "function"
    },
    {
      "inputs": [
        {
          "internalType": "address",
          "name": "_to",
          "type": "address"
        },
        {
          "internalType": "uint256",
          "name": "_tokenId",
          "type": "uint256"
        },
        {
          "internalType": "uint256",
          "name": "_tokenType",
          "type": "uint256"
        },
        {
          "internalType": "bytes",
          "name": "_data",
          "type": "bytes"
        }
      ],
      "name": "mintNFTFor",
      "outputs": [],
      "stateMutability": "nonpayable",
      "type": "function"
    },
    {
      "inputs": [
        {
          "internalType": "uint256",
          "name": "",
          "type": "uint256"
        }
      ],
      "name": "nftTypes",
      "outputs": [
        {
          "internalType": "uint256",
          "name": "",
          "type": "uint256"
        }
      ],
      "stateMutability": "view",
      "type": "function"
    },
    {
      "inputs": [
        {
          "internalType": "address",
          "name": "_brandId",
          "type": "address"
        },
        {
          "internalType": "address",
          "name": "_newOwner",
          "type": "address"
        }
      ],
      "name": "onBrandOwnerChanged",
      "outputs": [],
      "stateMutability": "nonpayable",
      "type": "function"
    },
    {
      "inputs": [
        {
          "internalType": "address",
          "name": "_from",
          "type": "address"
        },
        {
          "internalType": "uint256",
          "name": "_tokenId",
          "type": "uint256"
        },
        {
          "internalType": "uint256",
          "name": "_amount",
          "type": "uint256"
        }
      ],
      "name": "onTokenBurned",
      "outputs": [],
      "stateMutability": "nonpayable",
      "type": "function"
    },
    {
      "inputs": [
        {
          "internalType": "address",
          "name": "_from",
          "type": "address"
        },
        {
          "internalType": "uint256[]",
          "name": "_tokenIds",
          "type": "uint256[]"
        },
        {
          "internalType": "uint256[]",
          "name": "_amounts",
          "type": "uint256[]"
        }
      ],
      "name": "onTokensBurned",
      "outputs": [],
      "stateMutability": "nonpayable",
      "type": "function"
    },
    {
      "inputs": [
        {
          "internalType": "address",
          "name": "",
          "type": "address"
        }
      ],
      "name": "plugins",
      "outputs": [
        {
          "internalType": "bool",
          "name": "",
          "type": "bool"
        }
      ],
      "stateMutability": "view",
      "type": "function"
    },
    {
      "inputs": [
        {
          "internalType": "address",
          "name": "_contract",
          "type": "address"
        }
      ],
      "name": "setBrandRegistry",
      "outputs": [],
      "stateMutability": "nonpayable",
      "type": "function"
    },
    {
      "inputs": [
        {
          "internalType": "address",
          "name": "_contract",
          "type": "address"
        }
      ],
      "name": "setEconomy",
      "outputs": [],
      "stateMutability": "nonpayable",
      "type": "function"
    },
    {
      "inputs": [
        {
          "internalType": "bytes4",
          "name": "interfaceId",
          "type": "bytes4"
        }
      ],
      "name": "supportsInterface",
      "outputs": [
        {
          "internalType": "bool",
          "name": "",
          "type": "bool"
        }
      ],
      "stateMutability": "view",
      "type": "function"
    },
    {
      "inputs": [
        {
          "internalType": "uint256",
          "name": "",
          "type": "uint256"
        }
      ],
      "name": "tokenTypeResolvers",
      "outputs": [
        {
          "internalType": "address",
          "name": "",
          "type": "address"
        }
      ],
      "stateMutability": "view",
      "type": "function"
    },
    {
      "inputs": [
        {
          "internalType": "uint256",
          "name": "_tokenId",
          "type": "uint256"
        }
      ],
      "name": "tokenURI",
      "outputs": [
        {
          "internalType": "string",
          "name": "",
          "type": "string"
        }
      ],
      "stateMutability": "view",
      "type": "function"
    }
  ],
  "bytecode": "0x60806040523480156200001157600080fd5b50620000226200006860201b60201c565b600560006101000a81548173ffffffffffffffffffffffffffffffffffffffff021916908373ffffffffffffffffffffffffffffffffffffffff16021790555062000070565b600033905090565b61383f80620000806000396000f3fe608060405234801561001057600080fd5b50600436106101215760003560e01c80638cd6e9a9116100ad578063b2863cc111610071578063b2863cc1146102ee578063c87b56dd1461030a578063d053bfa11461033a578063d5f394881461036a578063d8867fc81461038857610121565b80638cd6e9a914610262578063a16bc2ae1461027e578063ab21afb51461029a578063acb8a060146102b6578063ad8509b0146102d257610121565b806328c90cd9116100f457806328c90cd9146101aa5780634b12e643146101c65780635b1798e4146101f657806379b2ab23146102145780638820f6bd1461024457610121565b806301ffc9a71461012657806306716519146101565780631b5dc598146101725780632320a8b71461018e575b600080fd5b610140600480360381019061013b9190612114565b6103a4565b60405161014d919061215c565b60405180910390f35b610170600480360381019061016b919061220b565b610476565b005b61018c6004803603810190610187919061225e565b61051d565b005b6101a860048036038101906101a391906123f7565b610660565b005b6101c460048036038101906101bf9190612482565b610761565b005b6101e060048036038101906101db91906124af565b61099a565b6040516101ed919061215c565b60405180910390f35b6101fe6109ba565b60405161020b91906124eb565b60405180910390f35b61022e60048036038101906102299190612482565b6109e0565b60405161023b9190612515565b60405180910390f35b61024c6109f8565b60405161025991906124eb565b60405180910390f35b61027c6004803603810190610277919061225e565b610a1e565b005b610298600480360381019061029391906125e5565b610b48565b005b6102b460048036038101906102af9190612482565b610d7d565b005b6102d060048036038101906102cb91906124af565b610f74565b005b6102ec60048036038101906102e791906124af565b6110e0565b005b610308600480360381019061030391906125e5565b61124c565b005b610324600480360381019061031f9190612482565b6115ab565b60405161033191906126f0565b60405180910390f35b610354600480360381019061034f9190612482565b6116ce565b60405161036191906124eb565b60405180910390f35b610372611701565b60405161037f91906124eb565b60405180910390f35b6103a2600480360381019061039d91906124af565b611727565b005b60007f01ffc9a7000000000000000000000000000000000000000000000000000000007bffffffffffffffffffffffffffffffffffffffffffffffffffffffff1916827bffffffffffffffffffffffffffffffffffffffffffffffffffffffff1916148061046f57507f7281625b000000000000000000000000000000000000000000000000000000007bffffffffffffffffffffffffffffffffffffffffffffffffffffffff1916827bffffffffffffffffffffffffffffffffffffffffffffffffffffffff1916145b9050919050565b600260009054906101000a900473ffffffffffffffffffffffffffffffffffffffff1673ffffffffffffffffffffffffffffffffffffffff166104b7611904565b73ffffffffffffffffffffffffffffffffffffffff161461050d576040517f08c379a000000000000000000000000000000000000000000000000000000000815260040161050490612784565b60405180910390fd5b61051883838361190c565b505050565b600160009054906101000a900473ffffffffffffffffffffffffffffffffffffffff1673ffffffffffffffffffffffffffffffffffffffff1661055e611904565b73ffffffffffffffffffffffffffffffffffffffff16146105b4576040517f08c379a00000000000000000000000000000000000000000000000000000000081526004016105ab90612816565b60405180910390fd5b600260009054906101000a900473ffffffffffffffffffffffffffffffffffffffff1673ffffffffffffffffffffffffffffffffffffffff16635b0034fd838373ffffffffffffffffffffffffffffffffffffffff1660016040518463ffffffff1660e01b815260040161062a939291906128d8565b600060405180830381600087803b15801561064457600080fd5b505af1158015610658573d6000803e3d6000fd5b505050505050565b600260009054906101000a900473ffffffffffffffffffffffffffffffffffffffff1673ffffffffffffffffffffffffffffffffffffffff166106a1611904565b73ffffffffffffffffffffffffffffffffffffffff16146106f7576040517f08c379a00000000000000000000000000000000000000000000000000000000081526004016106ee90612784565b60405180910390fd5b60008251905060005b8181101561075a576107478585838151811061071f5761071e612922565b5b602002602001015185848151811061073a57610739612922565b5b602002602001015161190c565b808061075290612980565b915050610700565b5050505050565b60008061076c611904565b73ffffffffffffffffffffffffffffffffffffffff1673ffffffffffffffffffffffffffffffffffffffff16815260200190815260200160002060009054906101000a900460ff166107f3576040517f08c379a00000000000000000000000000000000000000000000000000000000081526004016107ea90612a3b565b60405180910390fd5b80600073ffffffffffffffffffffffffffffffffffffffff166003600083815260200190815260200160002060009054906101000a900473ffffffffffffffffffffffffffffffffffffffff1673ffffffffffffffffffffffffffffffffffffffff1614610896576040517f08c379a000000000000000000000000000000000000000000000000000000000815260040161088d90612acd565b60405180910390fd5b817f800000000000000000000000000000000000000000000000000000000000000081106108f9576040517f08c379a00000000000000000000000000000000000000000000000000000000081526004016108f090612b5f565b60405180910390fd5b6001831161093c576040517f08c379a000000000000000000000000000000000000000000000000000000000815260040161093390612c17565b60405180910390fd5b610944611904565b6003600085815260200190815260200160002060006101000a81548173ffffffffffffffffffffffffffffffffffffffff021916908373ffffffffffffffffffffffffffffffffffffffff160217905550505050565b60006020528060005260406000206000915054906101000a900460ff1681565b600160009054906101000a900473ffffffffffffffffffffffffffffffffffffffff1681565b60046020528060005260406000206000915090505481565b600260009054906101000a900473ffffffffffffffffffffffffffffffffffffffff1681565b600260009054906101000a900473ffffffffffffffffffffffffffffffffffffffff1673ffffffffffffffffffffffffffffffffffffffff16610a5f611904565b73ffffffffffffffffffffffffffffffffffffffff1614610ab5576040517f08c379a0000000000000000000000000000000000000000000000000000000008152600401610aac90612784565b60405180910390fd5b600160009054906101000a900473ffffffffffffffffffffffffffffffffffffffff1673ffffffffffffffffffffffffffffffffffffffff16638cd6e9a983836040518363ffffffff1660e01b8152600401610b12929190612c37565b600060405180830381600087803b158015610b2c57600080fd5b505af1158015610b40573d6000803e3d6000fd5b505050505050565b600080610b53611904565b73ffffffffffffffffffffffffffffffffffffffff1673ffffffffffffffffffffffffffffffffffffffff16815260200190815260200160002060009054906101000a900460ff16610bda576040517f08c379a0000000000000000000000000000000000000000000000000000000008152600401610bd190612a3b565b60405180910390fd5b82600073ffffffffffffffffffffffffffffffffffffffff166003600083815260200190815260200160002060009054906101000a900473ffffffffffffffffffffffffffffffffffffffff1673ffffffffffffffffffffffffffffffffffffffff161415610c7e576040517f08c379a0000000000000000000000000000000000000000000000000000000008152600401610c7590612cd2565b60405180910390fd5b837f8000000000000000000000000000000000000000000000000000000000000000811015610ce2576040517f08c379a0000000000000000000000000000000000000000000000000000000008152600401610cd990612d8a565b60405180910390fd5b600260009054906101000a900473ffffffffffffffffffffffffffffffffffffffff1673ffffffffffffffffffffffffffffffffffffffff16635b0034fd878787876040518563ffffffff1660e01b8152600401610d439493929190612dee565b600060405180830381600087803b158015610d5d57600080fd5b505af1158015610d71573d6000803e3d6000fd5b50505050505050505050565b600080610d88611904565b73ffffffffffffffffffffffffffffffffffffffff1673ffffffffffffffffffffffffffffffffffffffff16815260200190815260200160002060009054906101000a900460ff16610e0f576040517f08c379a0000000000000000000000000000000000000000000000000000000008152600401610e0690612a3b565b60405180910390fd5b80600073ffffffffffffffffffffffffffffffffffffffff166003600083815260200190815260200160002060009054906101000a900473ffffffffffffffffffffffffffffffffffffffff1673ffffffffffffffffffffffffffffffffffffffff1614610eb2576040517f08c379a0000000000000000000000000000000000000000000000000000000008152600401610ea990612acd565b60405180910390fd5b817f8000000000000000000000000000000000000000000000000000000000000000811015610f16576040517f08c379a0000000000000000000000000000000000000000000000000000000008152600401610f0d90612d8a565b60405180910390fd5b610f1e611904565b6003600085815260200190815260200160002060006101000a81548173ffffffffffffffffffffffffffffffffffffffff021916908373ffffffffffffffffffffffffffffffffffffffff160217905550505050565b610f84610f7f611904565b611abd565b610fc3576040517f08c379a0000000000000000000000000000000000000000000000000000000008152600401610fba90612eac565b60405180910390fd5b610fcc81611b17565b61100b576040517f08c379a000000000000000000000000000000000000000000000000000000000815260040161100290612f64565b60405180910390fd5b600073ffffffffffffffffffffffffffffffffffffffff16600160009054906101000a900473ffffffffffffffffffffffffffffffffffffffff1673ffffffffffffffffffffffffffffffffffffffff161461109c576040517f08c379a000000000000000000000000000000000000000000000000000000000815260040161109390612ff6565b60405180910390fd5b80600160006101000a81548173ffffffffffffffffffffffffffffffffffffffff021916908373ffffffffffffffffffffffffffffffffffffffff16021790555050565b6110f06110eb611904565b611abd565b61112f576040517f08c379a000000000000000000000000000000000000000000000000000000000815260040161112690613088565b60405180910390fd5b61113881611c0e565b611177576040517f08c379a000000000000000000000000000000000000000000000000000000000815260040161116e90613140565b60405180910390fd5b600073ffffffffffffffffffffffffffffffffffffffff16600260009054906101000a900473ffffffffffffffffffffffffffffffffffffffff1673ffffffffffffffffffffffffffffffffffffffff1614611208576040517f08c379a00000000000000000000000000000000000000000000000000000000081526004016111ff906131d2565b60405180910390fd5b80600260006101000a81548173ffffffffffffffffffffffffffffffffffffffff021916908373ffffffffffffffffffffffffffffffffffffffff16021790555050565b600080611257611904565b73ffffffffffffffffffffffffffffffffffffffff1673ffffffffffffffffffffffffffffffffffffffff16815260200190815260200160002060009054906101000a900460ff166112de576040517f08c379a00000000000000000000000000000000000000000000000000000000081526004016112d590612a3b565b60405180910390fd5b81600073ffffffffffffffffffffffffffffffffffffffff166003600083815260200190815260200160002060009054906101000a900473ffffffffffffffffffffffffffffffffffffffff1673ffffffffffffffffffffffffffffffffffffffff161415611382576040517f08c379a000000000000000000000000000000000000000000000000000000000815260040161137990612cd2565b60405180910390fd5b827f800000000000000000000000000000000000000000000000000000000000000081106113e5576040517f08c379a00000000000000000000000000000000000000000000000000000000081526004016113dc90612b5f565b60405180910390fd5b847f80000000000000000000000000000000000000000000000000000000000000008110611448576040517f08c379a000000000000000000000000000000000000000000000000000000000815260040161143f90612b5f565b60405180910390fd5b740100000000000000000000000000000000000000008510156114a0576040517f08c379a000000000000000000000000000000000000000000000000000000000815260040161149790613264565b60405180910390fd5b60006004600088815260200190815260200160002054146114f6576040517f08c379a00000000000000000000000000000000000000000000000000000000081526004016114ed906132f6565b60405180910390fd5b600260009054906101000a900473ffffffffffffffffffffffffffffffffffffffff1673ffffffffffffffffffffffffffffffffffffffff16635b0034fd88886001886040518563ffffffff1660e01b81526004016115589493929190613316565b600060405180830381600087803b15801561157257600080fd5b505af1158015611586573d6000803e3d6000fd5b5050505084600460008881526020019081526020016000208190555050505050505050565b60607401000000000000000000000000000000000000000082101561167257600160009054906101000a900473ffffffffffffffffffffffffffffffffffffffff1673ffffffffffffffffffffffffffffffffffffffff16639896c31d836040518263ffffffff1660e01b815260040161162591906124eb565b600060405180830381865afa158015611642573d6000803e3d6000fd5b505050506040513d6000823e3d601f19601f8201168201806040525081019061166b9190613403565b90506116c9565b7f80000000000000000000000000000000000000000000000000000000000000008210156116bd576116b66004600084815260200190815260200160002054611d05565b90506116c9565b6116c682611d05565b90505b919050565b60036020528060005260406000206000915054906101000a900473ffffffffffffffffffffffffffffffffffffffff1681565b600560009054906101000a900473ffffffffffffffffffffffffffffffffffffffff1681565b611737611732611904565b611abd565b611776576040517f08c379a000000000000000000000000000000000000000000000000000000000815260040161176d906134be565b60405180910390fd5b61177f81611e14565b6117be576040517f08c379a00000000000000000000000000000000000000000000000000000000081526004016117b590613576565b60405180910390fd5b6000808273ffffffffffffffffffffffffffffffffffffffff1673ffffffffffffffffffffffffffffffffffffffff16815260200190815260200160002060009054906101000a900460ff161561184a576040517f08c379a000000000000000000000000000000000000000000000000000000000815260040161184190613608565b60405180910390fd5b60016000808373ffffffffffffffffffffffffffffffffffffffff1673ffffffffffffffffffffffffffffffffffffffff16815260200190815260200160002060006101000a81548160ff0219169083151502179055508073ffffffffffffffffffffffffffffffffffffffff16638129fc1c6040518163ffffffff1660e01b8152600401600060405180830381600087803b1580156118e957600080fd5b505af11580156118fd573d6000803e3d6000fd5b5050505050565b600033905090565b74010000000000000000000000000000000000000000821015611964576040517f08c379a000000000000000000000000000000000000000000000000000000000815260040161195b9061369a565b60405180910390fd5b60007f80000000000000000000000000000000000000000000000000000000000000008310156119dc57600360006004600086815260200190815260200160002054815260200190815260200160002060009054906101000a900473ffffffffffffffffffffffffffffffffffffffff169050611a13565b6003600084815260200190815260200160002060009054906101000a900473ffffffffffffffffffffffffffffffffffffffff1690505b600073ffffffffffffffffffffffffffffffffffffffff168173ffffffffffffffffffffffffffffffffffffffff1614611ab7578073ffffffffffffffffffffffffffffffffffffffff1663c5f980af8585856040518463ffffffff1660e01b8152600401611a84939291906136ba565b600060405180830381600087803b158015611a9e57600080fd5b505af1158015611ab2573d6000803e3d6000fd5b505050505b50505050565b6000600560009054906101000a900473ffffffffffffffffffffffffffffffffffffffff1673ffffffffffffffffffffffffffffffffffffffff168273ffffffffffffffffffffffffffffffffffffffff16149050919050565b6000611b627f9b151866000000000000000000000000000000000000000000000000000000008373ffffffffffffffffffffffffffffffffffffffff16611f0b90919063ffffffff16565b8015611c0757503073ffffffffffffffffffffffffffffffffffffffff168273ffffffffffffffffffffffffffffffffffffffff1663f200670d6040518163ffffffff1660e01b8152600401602060405180830381865afa158015611bcb573d6000803e3d6000fd5b505050506040513d601f19601f82011682018060405250810190611bef9190613706565b73ffffffffffffffffffffffffffffffffffffffff16145b9050919050565b6000611c597fa90053f0000000000000000000000000000000000000000000000000000000008373ffffffffffffffffffffffffffffffffffffffff16611f0b90919063ffffffff16565b8015611cfe57503073ffffffffffffffffffffffffffffffffffffffff168273ffffffffffffffffffffffffffffffffffffffff1663f200670d6040518163ffffffff1660e01b8152600401602060405180830381865afa158015611cc2573d6000803e3d6000fd5b505050506040513d601f19601f82011682018060405250810190611ce69190613706565b73ffffffffffffffffffffffffffffffffffffffff16145b9050919050565b606060006003600084815260200190815260200160002060009054906101000a900473ffffffffffffffffffffffffffffffffffffffff169050600073ffffffffffffffffffffffffffffffffffffffff168173ffffffffffffffffffffffffffffffffffffffff161415611d8c5760405180602001604052806000815250915050611e0f565b8073ffffffffffffffffffffffffffffffffffffffff16630e89341c846040518263ffffffff1660e01b8152600401611dc59190612515565b600060405180830381865afa158015611de2573d6000803e3d6000fd5b505050506040513d6000823e3d601f19601f82011682018060405250810190611e0b9190613403565b9150505b919050565b6000611e5f7ff220faae000000000000000000000000000000000000000000000000000000008373ffffffffffffffffffffffffffffffffffffffff16611f0b90919063ffffffff16565b8015611f0457503073ffffffffffffffffffffffffffffffffffffffff168273ffffffffffffffffffffffffffffffffffffffff1663f200670d6040518163ffffffff1660e01b8152600401602060405180830381865afa158015611ec8573d6000803e3d6000fd5b505050506040513d601f19601f82011682018060405250810190611eec9190613706565b73ffffffffffffffffffffffffffffffffffffffff16145b9050919050565b6000611f1683611f30565b8015611f285750611f278383611f7d565b5b905092915050565b6000611f5c827f01ffc9a700000000000000000000000000000000000000000000000000000000611f7d565b8015611f765750611f748263ffffffff60e01b611f7d565b155b9050919050565b6000806301ffc9a760e01b83604051602401611f999190613742565b604051602081830303815290604052907bffffffffffffffffffffffffffffffffffffffffffffffffffffffff19166020820180517bffffffffffffffffffffffffffffffffffffffffffffffffffffffff838183161783525050505090506000808573ffffffffffffffffffffffffffffffffffffffff16617530846040516120239190613799565b6000604051808303818686fa925050503d806000811461205f576040519150601f19603f3d011682016040523d82523d6000602084013e612064565b606091505b509150915060208151101561207f57600093505050506120a2565b81801561209c57508080602001905181019061209b91906137dc565b5b93505050505b92915050565b6000604051905090565b600080fd5b600080fd5b60007fffffffff0000000000000000000000000000000000000000000000000000000082169050919050565b6120f1816120bc565b81146120fc57600080fd5b50565b60008135905061210e816120e8565b92915050565b60006020828403121561212a576121296120b2565b5b6000612138848285016120ff565b91505092915050565b60008115159050919050565b61215681612141565b82525050565b6000602082019050612171600083018461214d565b92915050565b600073ffffffffffffffffffffffffffffffffffffffff82169050919050565b60006121a282612177565b9050919050565b6121b281612197565b81146121bd57600080fd5b50565b6000813590506121cf816121a9565b92915050565b6000819050919050565b6121e8816121d5565b81146121f357600080fd5b50565b600081359050612205816121df565b92915050565b600080600060608486031215612224576122236120b2565b5b6000612232868287016121c0565b9350506020612243868287016121f6565b9250506040612254868287016121f6565b9150509250925092565b60008060408385031215612275576122746120b2565b5b6000612283858286016121c0565b9250506020612294858286016121c0565b9150509250929050565b600080fd5b6000601f19601f8301169050919050565b7f4e487b7100000000000000000000000000000000000000000000000000000000600052604160045260246000fd5b6122ec826122a3565b810181811067ffffffffffffffff8211171561230b5761230a6122b4565b5b80604052505050565b600061231e6120a8565b905061232a82826122e3565b919050565b600067ffffffffffffffff82111561234a576123496122b4565b5b602082029050602081019050919050565b600080fd5b600061237361236e8461232f565b612314565b905080838252602082019050602084028301858111156123965761239561235b565b5b835b818110156123bf57806123ab88826121f6565b845260208401935050602081019050612398565b5050509392505050565b600082601f8301126123de576123dd61229e565b5b81356123ee848260208601612360565b91505092915050565b6000806000606084860312156124105761240f6120b2565b5b600061241e868287016121c0565b935050602084013567ffffffffffffffff81111561243f5761243e6120b7565b5b61244b868287016123c9565b925050604084013567ffffffffffffffff81111561246c5761246b6120b7565b5b612478868287016123c9565b9150509250925092565b600060208284031215612498576124976120b2565b5b60006124a6848285016121f6565b91505092915050565b6000602082840312156124c5576124c46120b2565b5b60006124d3848285016121c0565b91505092915050565b6124e581612197565b82525050565b600060208201905061250060008301846124dc565b92915050565b61250f816121d5565b82525050565b600060208201905061252a6000830184612506565b92915050565b600080fd5b600067ffffffffffffffff8211156125505761254f6122b4565b5b612559826122a3565b9050602081019050919050565b82818337600083830152505050565b600061258861258384612535565b612314565b9050828152602081018484840111156125a4576125a3612530565b5b6125af848285612566565b509392505050565b600082601f8301126125cc576125cb61229e565b5b81356125dc848260208601612575565b91505092915050565b600080600080608085870312156125ff576125fe6120b2565b5b600061260d878288016121c0565b945050602061261e878288016121f6565b935050604061262f878288016121f6565b925050606085013567ffffffffffffffff8111156126505761264f6120b7565b5b61265c878288016125b7565b91505092959194509250565b600081519050919050565b600082825260208201905092915050565b60005b838110156126a2578082015181840152602081019050612687565b838111156126b1576000848401525b50505050565b60006126c282612668565b6126cc8185612673565b93506126dc818560208601612684565b6126e5816122a3565b840191505092915050565b6000602082019050818103600083015261270a81846126b7565b905092915050565b7f4d65746176657273653a20746865206f6e6c7920616c6c6f7765642073656e6460008201527f6572206973207468652065636f6e6f6d792073797374656d0000000000000000602082015250565b600061276e603883612673565b915061277982612712565b604082019050919050565b6000602082019050818103600083015261279d81612761565b9050919050565b7f4d65746176657273653a20746865206f6e6c7920616c6c6f7765642073656e6460008201527f657220697320746865206272616e642072656769737472790000000000000000602082015250565b6000612800603883612673565b915061280b826127a4565b604082019050919050565b6000602082019050818103600083015261282f816127f3565b9050919050565b6000819050919050565b6000819050919050565b600061286561286061285b84612836565b612840565b6121d5565b9050919050565b6128758161284a565b82525050565b600082825260208201905092915050565b7f4d65746176657273653a204d696e74696e672061206272616e64000000000000600082015250565b60006128c2601a8361287b565b91506128cd8261288c565b602082019050919050565b60006080820190506128ed60008301866124dc565b6128fa6020830185612506565b612907604083018461286c565b8181036060830152612918816128b5565b9050949350505050565b7f4e487b7100000000000000000000000000000000000000000000000000000000600052603260045260246000fd5b7f4e487b7100000000000000000000000000000000000000000000000000000000600052601160045260246000fd5b600061298b826121d5565b91507fffffffffffffffffffffffffffffffffffffffffffffffffffffffffffffffff8214156129be576129bd612951565b5b600182019050919050565b7f4d65746176657273653a207468652073656e646572206d75737420626520612060008201527f706c75672d696e00000000000000000000000000000000000000000000000000602082015250565b6000612a25602783612673565b9150612a30826129c9565b604082019050919050565b60006020820190508181036000830152612a5481612a18565b9050919050565b7f4d65746176657273653a207468652073706563696669656420746f6b656e207460008201527f797065206973206e6f7420617661696c61626c65000000000000000000000000602082015250565b6000612ab7603483612673565b9150612ac282612a5b565b604082019050919050565b60006020820190508181036000830152612ae681612aaa565b9050919050565b7f4d65746176657273653a20746865207370656369666965642076616c7565206960008201527f73206e6f7420696e20746865206e66742072616e676500000000000000000000602082015250565b6000612b49603683612673565b9150612b5482612aed565b604082019050919050565b60006020820190508181036000830152612b7881612b3c565b9050919050565b7f4d65746176657273653a206e667420747970652030206973207265736572766560008201527f6420666f7220696e76616c6964202f206d697373696e67206e6674732c20616e60208201527f64203120666f72206272616e6473000000000000000000000000000000000000604082015250565b6000612c01604e83612673565b9150612c0c82612b7f565b606082019050919050565b60006020820190508181036000830152612c3081612bf4565b9050919050565b6000604082019050612c4c60008301856124dc565b612c5960208301846124dc565b9392505050565b7f4d65746176657273653a20756e6b6e6f776e202f206e6f6e2d6d696e7461626c60008201527f6520746f6b656e20747970652069640000000000000000000000000000000000602082015250565b6000612cbc602f83612673565b9150612cc782612c60565b604082019050919050565b60006020820190508181036000830152612ceb81612caf565b9050919050565b7f4d65746176657273653a20746865207370656369666965642076616c7565206960008201527f73206e6f7420696e207468652066756e6769626c6520746f6b656e732072616e60208201527f6765000000000000000000000000000000000000000000000000000000000000604082015250565b6000612d74604283612673565b9150612d7f82612cf2565b606082019050919050565b60006020820190508181036000830152612da381612d67565b9050919050565b600081519050919050565b6000612dc082612daa565b612dca818561287b565b9350612dda818560208601612684565b612de3816122a3565b840191505092915050565b6000608082019050612e0360008301876124dc565b612e106020830186612506565b612e1d6040830185612506565b8181036060830152612e2f8184612db5565b905095945050505050565b7f4d65746176657273653a207468652073656e646572206973206e6f7420616c6c60008201527f6f77656420746f207365742074686520706c75672d696e000000000000000000602082015250565b6000612e96603783612673565b9150612ea182612e3a565b604082019050919050565b60006020820190508181036000830152612ec581612e89565b9050919050565b7f4d65746176657273653a20746865206164647265737320646f6573206e6f742060008201527f62656c6f6e6720746f20612076616c6964206272616e6420726567697374727960208201527f20636f6e747261637420666f722074686973206d657461766572736500000000604082015250565b6000612f4e605c83612673565b9150612f5982612ecc565b606082019050919050565b60006020820190508181036000830152612f7d81612f41565b9050919050565b7f4d65746176657273653a2061206272616e64207265676973747279206973206160008201527f6c72656164792073657420696e746f2074686973206d65746176657273650000602082015250565b6000612fe0603e83612673565b9150612feb82612f84565b604082019050919050565b6000602082019050818103600083015261300f81612fd3565b9050919050565b7f4d65746176657273653a207468652073656e646572206973206e6f7420616c6c60008201527f6f77656420746f20736574207468652065636f6e6f6d79000000000000000000602082015250565b6000613072603783612673565b915061307d82613016565b604082019050919050565b600060208201905081810360008301526130a181613065565b9050919050565b7f4d65746176657273653a20746865206164647265737320646f6573206e6f742060008201527f62656c6f6e6720746f20612076616c69642065636f6e6f6d7920636f6e74726160208201527f637420666f722074686973206d65746176657273650000000000000000000000604082015250565b600061312a605583612673565b9150613135826130a8565b606082019050919050565b600060208201905081810360008301526131598161311d565b9050919050565b7f4d65746176657273653a20616e2065636f6e6f6d7920697320616c726561647960008201527f2073657420696e746f2074686973206d65746176657273650000000000000000602082015250565b60006131bc603883612673565b91506131c782613160565b604082019050919050565b600060208201905081810360008301526131eb816131af565b9050919050565b7f4d65746176657273653a207468652073706563696669656420746f6b656e206960008201527f6420697320726573657276656420666f72206272616e64730000000000000000602082015250565b600061324e603883612673565b9150613259826131f2565b604082019050919050565b6000602082019050818103600083015261327d81613241565b9050919050565b7f4d65746176657273653a2074686520737065636966696564206e66742069642060008201527f6973206e6f7420617661696c61626c6500000000000000000000000000000000602082015250565b60006132e0603083612673565b91506132eb82613284565b604082019050919050565b6000602082019050818103600083015261330f816132d3565b9050919050565b600060808201905061332b60008301876124dc565b6133386020830186612506565b613345604083018561286c565b81810360608301526133578184612db5565b905095945050505050565b600067ffffffffffffffff82111561337d5761337c6122b4565b5b613386826122a3565b9050602081019050919050565b60006133a66133a184613362565b612314565b9050828152602081018484840111156133c2576133c1612530565b5b6133cd848285612684565b509392505050565b600082601f8301126133ea576133e961229e565b5b81516133fa848260208601613393565b91505092915050565b600060208284031215613419576134186120b2565b5b600082015167ffffffffffffffff811115613437576134366120b7565b5b613443848285016133d5565b91505092915050565b7f4d65746176657273653a207468652073656e646572206973206e6f7420616c6c60008201527f6f77656420746f20616464206120706c75672d696e0000000000000000000000602082015250565b60006134a8603583612673565b91506134b38261344c565b604082019050919050565b600060208201905081810360008301526134d78161349b565b9050919050565b7f4d65746176657273653a20746865206164647265737320646f6573206e6f742060008201527f62656c6f6e6720746f20612076616c696420706c75672d696e20636f6e74726160208201527f637420666f722074686973206d65746176657273650000000000000000000000604082015250565b6000613560605583612673565b915061356b826134de565b606082019050919050565b6000602082019050818103600083015261358f81613553565b9050919050565b7f4d65746176657273653a2074686520706c75672d696e20697320616c7265616460008201527f7920616464656420746f2074686973206d657461766572736500000000000000602082015250565b60006135f2603983612673565b91506135fd82613596565b604082019050919050565b60006020820190508181036000830152613621816135e5565b9050919050565b7f4d65746176657273653a206272616e64732063616e6e6f74206265206275726e60008201527f6564000000000000000000000000000000000000000000000000000000000000602082015250565b6000613684602283612673565b915061368f82613628565b604082019050919050565b600060208201905081810360008301526136b381613677565b9050919050565b60006060820190506136cf60008301866124dc565b6136dc6020830185612506565b6136e96040830184612506565b949350505050565b600081519050613700816121a9565b92915050565b60006020828403121561371c5761371b6120b2565b5b600061372a848285016136f1565b91505092915050565b61373c816120bc565b82525050565b60006020820190506137576000830184613733565b92915050565b600081905092915050565b600061377382612daa565b61377d818561375d565b935061378d818560208601612684565b80840191505092915050565b60006137a58284613768565b915081905092915050565b6137b981612141565b81146137c457600080fd5b50565b6000815190506137d6816137b0565b92915050565b6000602082840312156137f2576137f16120b2565b5b6000613800848285016137c7565b9150509291505056fea264697066735822122098c42f921688b43f4ca4518377bd1fe3638007b73b10a8d5bacdd600738ea5a564736f6c634300080a0033",
  "immutableReferences": {},
  "source": "// SPDX-License-Identifier: MIT\npragma solidity >=0.8 <0.9.0;\n\nimport \"../Metaverse.sol\";\n\ncontract SampleMetaverse is Metaverse {\n    /**\n     * The deployer of this metaverse.\n     */\n    address public deployer;\n\n    constructor() {\n        deployer = _msgSender();\n    }\n\n    /**\n     * Adding the plug-ins is only allowed to the deployer.\n     */\n    function _canAddPlugin(address _sender) internal view override returns (bool) {\n        return _sender == deployer;\n    }\n\n    /**\n     * Setting the brand registry is only allowed to the deployer.\n     */\n    function _canSetBrandRegistry(address _sender) internal view override returns (bool) {\n        return _sender == deployer;\n    }\n\n    /**\n     * Setting the economy system is only allowed to the deployer.\n     */\n    function _canSetEconomy(address _sender) internal view override returns (bool) {\n        return _sender == deployer;\n    }\n}\n",
  "sourcePath": "/home/luismasuelli/Projects/OuterMaze/lingr-contracts/contracts/lingr/samples/SampleMetaverse.sol",
  "compiler": {
    "name": "solc",
    "version": "0.8.10+commit.fc410830.Emscripten.clang"
  },
  "schemaVersion": "3.4.3",
  "updatedAt": "2022-08-08T03:31:54.024Z",
  "devdoc": {
    "kind": "dev",
    "methods": {},
    "version": 1
  },
  "userdoc": {
    "kind": "user",
    "methods": {
      "addPlugin(address)": {
        "notice": "Adds a plug-in contract to this metaverse."
      },
      "brandRegistry()": {
        "notice": "The linked brand registry for this metaverse."
      },
      "defineFTType(uint256)": {
        "notice": "Defines the resolution of a fungible token type. The token id must be in the range of the fungible token ids."
      },
      "defineNFTType(uint256)": {
        "notice": "Defines the resolution of a non-fungible token type. The token id must be in the range of the fungible token (type) ids (strictly > 0, strictly < (1 << 255))."
      },
      "deployer()": {
        "notice": "The deployer of this metaverse."
      },
      "economy()": {
        "notice": "The linked economy for this metaverse."
      },
      "mintBrandFor(address,address)": {
        "notice": "Mints a specific brand token for a given user. The brand is stated as its address."
      },
      "mintFTFor(address,uint256,uint256,bytes)": {
        "notice": "Mints a specific fungible token type, in a certain amount."
      },
      "mintNFTFor(address,uint256,uint256,bytes)": {
        "notice": "Mints a specific non-fungible token type, using a specific id (and always using an amount of 1). It is an error if the token id is already minted, or the chosen id is < (1 << 160) since those ids are reserved for brands."
      },
      "nftTypes(uint256)": {
        "notice": "Now, each NFT id will be registered here along its token type. The difference with the fungible tokens (they're already registered in the `tokenTypes` mapping) is that they need to be registered with a particular token type. Also, both the NFT id and its associated token type will be lower than (1<<255) since, otherwise, they would be using values corresponding to the FT side (both for IDs and type indices). Brand NFTs are not included in this mapping (they are only characterized by being < (1 << 160))."
      },
      "onBrandOwnerChanged(address,address)": {
        "notice": "Hook to be invoked as part of a transfer from ERC1155."
      },
      "onTokenBurned(address,uint256,uint256)": {
        "notice": "Hook to be invoked as part of a burn process when an address burns a particular token in some quantity (for NFTs, the quantity is 1 in every case). By this point, we should be guaranteed that the _tokenId will actually have a resolver (being it a fungible token type, or being it a non-fungible token id)."
      },
      "onTokensBurned(address,uint256[],uint256[])": {
        "notice": "Hook to be invoked as part of a batch burn process when an address burns a particulars et of tokens in respective quantities (for NFTs, the quantity is 1 in every case; it is guaranteed that both arrays are always of the same length."
      },
      "plugins(address)": {
        "notice": "This is the list of plug-ins that are being added to the hub. Each contract has its separate logic but they have access to the same set of features. Once a contract is added, it will never be removed from this list. This mapping tells whether a contract in particular has permission(s) to define a type and mint tokens for an address."
      },
      "setBrandRegistry(address)": {
        "notice": "Adds a plug-in contract to this metaverse."
      },
      "setEconomy(address)": {
        "notice": "Set the economy contract to this metaverse."
      },
      "supportsInterface(bytes4)": {
        "notice": "A metaverse satisfies the IMetaverse and IERC165 interfaces."
      },
      "tokenTypeResolvers(uint256)": {
        "notice": "Types are identified as integer values, and each registered type will have a non-zero responsible address (serving to metadata resolution and also to account for the existence of a given type). The type 1 (0x1) will be the first type, and actually it will be the brand type. Other NFT types will be registered using indices lower to (1<<255), while FT types will be registered using indices greater than or equal to that value (i.e. starting with binary {1}). In the case of the FTs, the index in this mapping is also their token id. This is not the same for NFTs (they have one extra level of indirection since multiple ids might share the same type). A special type id will be regarded as invalid type (i.e. it will not count as NFT nor FT type, but as a non-existent type): 0 (0x0). The responsible serves two purposes: The first one, is to resolve the metadata of a given token id (be it FT or NFT). The second one is to account for one of such tokens being burned. The responsible will actually be one of the registered plug-ins, on each case (save for the brands case, which is resolved by this contract, and the invalid case, which has no resolver)."
      },
      "tokenURI(uint256)": {
        "notice": "Retrieves the metadata uri of a given token. WARNING: This method will consume a lot of gas if invoked inside a transaction, so it is recommended to invoke this method in the context of a CALL, and never in the context of a SEND (even as part of other contract's code)."
      }
    },
    "version": 1
  }
}