{
  "contractName": "SampleERC1155WithSafeExchange",
  "abi": [
    {
      "inputs": [],
      "stateMutability": "nonpayable",
      "type": "constructor"
    },
    {
      "anonymous": false,
      "inputs": [
        {
          "indexed": true,
          "internalType": "address",
          "name": "account",
          "type": "address"
        },
        {
          "indexed": true,
          "internalType": "address",
          "name": "operator",
          "type": "address"
        },
        {
          "indexed": false,
          "internalType": "bool",
          "name": "approved",
          "type": "bool"
        }
      ],
      "name": "ApprovalForAll",
      "type": "event"
    },
    {
      "anonymous": false,
      "inputs": [
        {
          "indexed": true,
          "internalType": "uint256",
          "name": "dealId",
          "type": "uint256"
        },
        {
          "indexed": true,
          "internalType": "address",
          "name": "emitter",
          "type": "address"
        },
        {
          "indexed": true,
          "internalType": "address",
          "name": "receiver",
          "type": "address"
        }
      ],
      "name": "DealAccepted",
      "type": "event"
    },
    {
      "anonymous": false,
      "inputs": [
        {
          "indexed": true,
          "internalType": "uint256",
          "name": "dealId",
          "type": "uint256"
        },
        {
          "indexed": true,
          "internalType": "address",
          "name": "breaker",
          "type": "address"
        }
      ],
      "name": "DealBroken",
      "type": "event"
    },
    {
      "anonymous": false,
      "inputs": [
        {
          "indexed": true,
          "internalType": "uint256",
          "name": "dealId",
          "type": "uint256"
        },
        {
          "indexed": true,
          "internalType": "address",
          "name": "emitter",
          "type": "address"
        },
        {
          "indexed": true,
          "internalType": "address",
          "name": "receiver",
          "type": "address"
        }
      ],
      "name": "DealConfirmed",
      "type": "event"
    },
    {
      "anonymous": false,
      "inputs": [
        {
          "indexed": true,
          "internalType": "uint256",
          "name": "dealId",
          "type": "uint256"
        },
        {
          "indexed": true,
          "internalType": "address",
          "name": "emitter",
          "type": "address"
        },
        {
          "indexed": true,
          "internalType": "address",
          "name": "receiver",
          "type": "address"
        }
      ],
      "name": "DealStarted",
      "type": "event"
    },
    {
      "anonymous": false,
      "inputs": [
        {
          "indexed": true,
          "internalType": "address",
          "name": "operator",
          "type": "address"
        },
        {
          "indexed": true,
          "internalType": "address",
          "name": "from",
          "type": "address"
        },
        {
          "indexed": true,
          "internalType": "address",
          "name": "to",
          "type": "address"
        },
        {
          "indexed": false,
          "internalType": "uint256[]",
          "name": "ids",
          "type": "uint256[]"
        },
        {
          "indexed": false,
          "internalType": "uint256[]",
          "name": "values",
          "type": "uint256[]"
        }
      ],
      "name": "TransferBatch",
      "type": "event"
    },
    {
      "anonymous": false,
      "inputs": [
        {
          "indexed": true,
          "internalType": "address",
          "name": "operator",
          "type": "address"
        },
        {
          "indexed": true,
          "internalType": "address",
          "name": "from",
          "type": "address"
        },
        {
          "indexed": true,
          "internalType": "address",
          "name": "to",
          "type": "address"
        },
        {
          "indexed": false,
          "internalType": "uint256",
          "name": "id",
          "type": "uint256"
        },
        {
          "indexed": false,
          "internalType": "uint256",
          "name": "value",
          "type": "uint256"
        }
      ],
      "name": "TransferSingle",
      "type": "event"
    },
    {
      "anonymous": false,
      "inputs": [
        {
          "indexed": false,
          "internalType": "string",
          "name": "value",
          "type": "string"
        },
        {
          "indexed": true,
          "internalType": "uint256",
          "name": "id",
          "type": "uint256"
        }
      ],
      "name": "URI",
      "type": "event"
    },
    {
      "inputs": [
        {
          "internalType": "address",
          "name": "account",
          "type": "address"
        },
        {
          "internalType": "uint256",
          "name": "id",
          "type": "uint256"
        }
      ],
      "name": "balanceOf",
      "outputs": [
        {
          "internalType": "uint256",
          "name": "",
          "type": "uint256"
        }
      ],
      "stateMutability": "view",
      "type": "function"
    },
    {
      "inputs": [
        {
          "internalType": "address[]",
          "name": "accounts",
          "type": "address[]"
        },
        {
          "internalType": "uint256[]",
          "name": "ids",
          "type": "uint256[]"
        }
      ],
      "name": "balanceOfBatch",
      "outputs": [
        {
          "internalType": "uint256[]",
          "name": "",
          "type": "uint256[]"
        }
      ],
      "stateMutability": "view",
      "type": "function"
    },
    {
      "inputs": [
        {
          "internalType": "uint256",
          "name": "_dealIndex",
          "type": "uint256"
        },
        {
          "internalType": "uint256[]",
          "name": "_tokenIds",
          "type": "uint256[]"
        },
        {
          "internalType": "uint256[]",
          "name": "_tokenAmounts",
          "type": "uint256[]"
        }
      ],
      "name": "dealAccept",
      "outputs": [],
      "stateMutability": "nonpayable",
      "type": "function"
    },
    {
      "inputs": [
        {
          "internalType": "uint256",
          "name": "_dealIndex",
          "type": "uint256"
        }
      ],
      "name": "dealBreak",
      "outputs": [],
      "stateMutability": "nonpayable",
      "type": "function"
    },
    {
      "inputs": [
        {
          "internalType": "uint256",
          "name": "_dealIndex",
          "type": "uint256"
        }
      ],
      "name": "dealConfirm",
      "outputs": [],
      "stateMutability": "nonpayable",
      "type": "function"
    },
    {
      "inputs": [
        {
          "internalType": "address",
          "name": "_emitter",
          "type": "address"
        },
        {
          "internalType": "address",
          "name": "_receiver",
          "type": "address"
        },
        {
          "internalType": "uint256[]",
          "name": "_tokenIds",
          "type": "uint256[]"
        },
        {
          "internalType": "uint256[]",
          "name": "_tokenAmounts",
          "type": "uint256[]"
        }
      ],
      "name": "dealStart",
      "outputs": [],
      "stateMutability": "nonpayable",
      "type": "function"
    },
    {
      "inputs": [
        {
          "internalType": "uint256",
          "name": "",
          "type": "uint256"
        }
      ],
      "name": "deals",
      "outputs": [
        {
          "internalType": "address",
          "name": "emitter",
          "type": "address"
        },
        {
          "internalType": "address",
          "name": "receiver",
          "type": "address"
        },
        {
          "internalType": "enum SafeExchange.DealState",
          "name": "state",
          "type": "uint8"
        }
      ],
      "stateMutability": "view",
      "type": "function"
    },
    {
      "inputs": [
        {
          "internalType": "address",
          "name": "account",
          "type": "address"
        },
        {
          "internalType": "address",
          "name": "operator",
          "type": "address"
        }
      ],
      "name": "isApprovedForAll",
      "outputs": [
        {
          "internalType": "bool",
          "name": "",
          "type": "bool"
        }
      ],
      "stateMutability": "view",
      "type": "function"
    },
    {
      "inputs": [
        {
          "internalType": "address",
          "name": "from",
          "type": "address"
        },
        {
          "internalType": "address",
          "name": "to",
          "type": "address"
        },
        {
          "internalType": "uint256[]",
          "name": "ids",
          "type": "uint256[]"
        },
        {
          "internalType": "uint256[]",
          "name": "amounts",
          "type": "uint256[]"
        },
        {
          "internalType": "bytes",
          "name": "data",
          "type": "bytes"
        }
      ],
      "name": "safeBatchTransferFrom",
      "outputs": [],
      "stateMutability": "nonpayable",
      "type": "function"
    },
    {
      "inputs": [
        {
          "internalType": "address",
          "name": "from",
          "type": "address"
        },
        {
          "internalType": "address",
          "name": "to",
          "type": "address"
        },
        {
          "internalType": "uint256",
          "name": "id",
          "type": "uint256"
        },
        {
          "internalType": "uint256",
          "name": "amount",
          "type": "uint256"
        },
        {
          "internalType": "bytes",
          "name": "data",
          "type": "bytes"
        }
      ],
      "name": "safeTransferFrom",
      "outputs": [],
      "stateMutability": "nonpayable",
      "type": "function"
    },
    {
      "inputs": [
        {
          "internalType": "address",
          "name": "operator",
          "type": "address"
        },
        {
          "internalType": "bool",
          "name": "approved",
          "type": "bool"
        }
      ],
      "name": "setApprovalForAll",
      "outputs": [],
      "stateMutability": "nonpayable",
      "type": "function"
    },
    {
      "inputs": [
        {
          "internalType": "bytes4",
          "name": "interfaceId",
          "type": "bytes4"
        }
      ],
      "name": "supportsInterface",
      "outputs": [
        {
          "internalType": "bool",
          "name": "",
          "type": "bool"
        }
      ],
      "stateMutability": "view",
      "type": "function"
    },
    {
      "inputs": [
        {
          "internalType": "uint256",
          "name": "",
          "type": "uint256"
        }
      ],
      "name": "uri",
      "outputs": [
        {
          "internalType": "string",
          "name": "",
          "type": "string"
        }
      ],
      "stateMutability": "view",
      "type": "function"
    }
  ],
  "bytecode": "0x608060405260006003553480156200001657600080fd5b506040518060400160405280600b81526020017f61626f75743a626c616e6b0000000000000000000000000000000000000000008152506200005e816200018860201b60201c565b50620000c062000073620001a460201b60201c565b6001670de0b6b3a76400006040518060400160405280600481526020017f7465737400000000000000000000000000000000000000000000000000000000815250620001ac60201b60201c565b62000121620000d4620001a460201b60201c565b6002671bc16d674ec800006040518060400160405280600481526020017f7465737400000000000000000000000000000000000000000000000000000000815250620001ac60201b60201c565b6200018262000135620001a460201b60201c565b60036729a2241af62c00006040518060400160405280600481526020017f7465737400000000000000000000000000000000000000000000000000000000815250620001ac60201b60201c565b62000dc7565b8060029080519060200190620001a092919062000642565b5050565b600033905090565b600073ffffffffffffffffffffffffffffffffffffffff168473ffffffffffffffffffffffffffffffffffffffff1614156200021f576040517f08c379a0000000000000000000000000000000000000000000000000000000008152600401620002169062000779565b60405180910390fd5b600062000231620001a460201b60201c565b9050600062000246856200039460201b60201c565b905060006200025b856200039460201b60201c565b905062000274836000898585896200041560201b60201c565b8460008088815260200190815260200160002060008973ffffffffffffffffffffffffffffffffffffffff1673ffffffffffffffffffffffffffffffffffffffff1681526020019081526020016000206000828254620002d59190620007d4565b925050819055508673ffffffffffffffffffffffffffffffffffffffff16600073ffffffffffffffffffffffffffffffffffffffff168473ffffffffffffffffffffffffffffffffffffffff167fc3d58168c5ae7397731d063d5bbf3d657854427343f4c083240f7aacaa2d0f6289896040516200035592919062000842565b60405180910390a462000374836000898585896200041d60201b60201c565b6200038b836000898989896200042560201b60201c565b50505050505050565b60606000600167ffffffffffffffff811115620003b657620003b56200086f565b5b604051908082528060200260200182016040528015620003e55781602001602082028036833780820191505090505b50905082816000815181106200040057620003ff6200089e565b5b60200260200101818152505080915050919050565b505050505050565b505050505050565b620004518473ffffffffffffffffffffffffffffffffffffffff166200061f60201b620018c51760201c565b1562000617578373ffffffffffffffffffffffffffffffffffffffff1663f23a6e6187878686866040518663ffffffff1660e01b81526004016200049a959493929190620009b6565b6020604051808303816000875af1925050508015620004d957506040513d601f19601f82011682018060405250810190620004d6919062000a86565b60015b6200058b57620004e862000ac5565b806308c379a014156200054c57506200050062000b20565b806200050d57506200054e565b806040517f08c379a000000000000000000000000000000000000000000000000000000000815260040162000543919062000c0e565b60405180910390fd5b505b6040517f08c379a0000000000000000000000000000000000000000000000000000000008152600401620005829062000ca8565b60405180910390fd5b63f23a6e6160e01b7bffffffffffffffffffffffffffffffffffffffffffffffffffffffff1916817bffffffffffffffffffffffffffffffffffffffffffffffffffffffff19161462000615576040517f08c379a00000000000000000000000000000000000000000000000000000000081526004016200060c9062000d40565b60405180910390fd5b505b505050505050565b6000808273ffffffffffffffffffffffffffffffffffffffff163b119050919050565b828054620006509062000d91565b90600052602060002090601f016020900481019282620006745760008555620006c0565b82601f106200068f57805160ff1916838001178555620006c0565b82800160010185558215620006c0579182015b82811115620006bf578251825591602001919060010190620006a2565b5b509050620006cf9190620006d3565b5090565b5b80821115620006ee576000816000905550600101620006d4565b5090565b600082825260208201905092915050565b7f455243313135353a206d696e7420746f20746865207a65726f2061646472657360008201527f7300000000000000000000000000000000000000000000000000000000000000602082015250565b600062000761602183620006f2565b91506200076e8262000703565b604082019050919050565b60006020820190508181036000830152620007948162000752565b9050919050565b6000819050919050565b7f4e487b7100000000000000000000000000000000000000000000000000000000600052601160045260246000fd5b6000620007e1826200079b565b9150620007ee836200079b565b9250827fffffffffffffffffffffffffffffffffffffffffffffffffffffffffffffffff03821115620008265762000825620007a5565b5b828201905092915050565b6200083c816200079b565b82525050565b600060408201905062000859600083018562000831565b62000868602083018462000831565b9392505050565b7f4e487b7100000000000000000000000000000000000000000000000000000000600052604160045260246000fd5b7f4e487b7100000000000000000000000000000000000000000000000000000000600052603260045260246000fd5b600073ffffffffffffffffffffffffffffffffffffffff82169050919050565b6000620008fa82620008cd565b9050919050565b6200090c81620008ed565b82525050565b600081519050919050565b600082825260208201905092915050565b60005b838110156200094e57808201518184015260208101905062000931565b838111156200095e576000848401525b50505050565b6000601f19601f8301169050919050565b6000620009828262000912565b6200098e81856200091d565b9350620009a08185602086016200092e565b620009ab8162000964565b840191505092915050565b600060a082019050620009cd600083018862000901565b620009dc602083018762000901565b620009eb604083018662000831565b620009fa606083018562000831565b818103608083015262000a0e818462000975565b90509695505050505050565b6000604051905090565b600080fd5b60007fffffffff0000000000000000000000000000000000000000000000000000000082169050919050565b62000a608162000a29565b811462000a6c57600080fd5b50565b60008151905062000a808162000a55565b92915050565b60006020828403121562000a9f5762000a9e62000a24565b5b600062000aaf8482850162000a6f565b91505092915050565b60008160e01c9050919050565b600060033d111562000ae75760046000803e62000ae460005162000ab8565b90505b90565b62000af58262000964565b810181811067ffffffffffffffff8211171562000b175762000b166200086f565b5b80604052505050565b600060443d101562000b325762000bbf565b62000b3c62000a1a565b60043d036004823e80513d602482011167ffffffffffffffff8211171562000b6657505062000bbf565b808201805167ffffffffffffffff81111562000b86575050505062000bbf565b80602083010160043d03850181111562000ba557505050505062000bbf565b62000bb68260200185018662000aea565b82955050505050505b90565b600081519050919050565b600062000bda8262000bc2565b62000be68185620006f2565b935062000bf88185602086016200092e565b62000c038162000964565b840191505092915050565b6000602082019050818103600083015262000c2a818462000bcd565b905092915050565b7f455243313135353a207472616e7366657220746f206e6f6e204552433131353560008201527f526563656976657220696d706c656d656e746572000000000000000000000000602082015250565b600062000c90603483620006f2565b915062000c9d8262000c32565b604082019050919050565b6000602082019050818103600083015262000cc38162000c81565b9050919050565b7f455243313135353a204552433131353552656365697665722072656a6563746560008201527f6420746f6b656e73000000000000000000000000000000000000000000000000602082015250565b600062000d28602883620006f2565b915062000d358262000cca565b604082019050919050565b6000602082019050818103600083015262000d5b8162000d19565b9050919050565b7f4e487b7100000000000000000000000000000000000000000000000000000000600052602260045260246000fd5b6000600282049050600182168062000daa57607f821691505b6020821081141562000dc15762000dc062000d62565b5b50919050565b6141b88062000dd76000396000f3fe608060405234801561001057600080fd5b50600436106100ce5760003560e01c80636344bb131161008c578063d22d235911610066578063d22d235914610235578063e067bd6f14610251578063e985e9c51461026d578063f242432a1461029d576100ce565b80636344bb13146101e1578063a22cb465146101fd578063c3e5002714610219576100ce565b8062fdd58e146100d357806301ffc9a71461010357806303988f84146101335780630e89341c146101655780632eb2c2d6146101955780634e1273f4146101b1575b600080fd5b6100ed60048036038101906100e891906127a2565b6102b9565b6040516100fa91906127f1565b60405180910390f35b61011d60048036038101906101189190612864565b610382565b60405161012a91906128ac565b60405180910390f35b61014d600480360381019061014891906128c7565b610464565b60405161015c9392919061297a565b60405180910390f35b61017f600480360381019061017a91906128c7565b6104db565b60405161018c9190612a4a565b60405180910390f35b6101af60048036038101906101aa9190612c69565b61056f565b005b6101cb60048036038101906101c69190612dfb565b610610565b6040516101d89190612f31565b60405180910390f35b6101fb60048036038101906101f691906128c7565b610729565b005b61021760048036038101906102129190612f7f565b6109d7565b005b610233600480360381019061022e91906128c7565b6109ed565b005b61024f600480360381019061024a9190612fbf565b610ef9565b005b61026b6004803603810190610266919061304a565b611294565b005b610287600480360381019061028291906130e9565b611790565b60405161029491906128ac565b60405180910390f35b6102b760048036038101906102b29190613129565b611824565b005b60008073ffffffffffffffffffffffffffffffffffffffff168373ffffffffffffffffffffffffffffffffffffffff16141561032a576040517f08c379a000000000000000000000000000000000000000000000000000000000815260040161032190613232565b60405180910390fd5b60008083815260200190815260200160002060008473ffffffffffffffffffffffffffffffffffffffff1673ffffffffffffffffffffffffffffffffffffffff16815260200190815260200160002054905092915050565b60007fd9b67a26000000000000000000000000000000000000000000000000000000007bffffffffffffffffffffffffffffffffffffffffffffffffffffffff1916827bffffffffffffffffffffffffffffffffffffffffffffffffffffffff1916148061044d57507f0e89341c000000000000000000000000000000000000000000000000000000007bffffffffffffffffffffffffffffffffffffffffffffffffffffffff1916827bffffffffffffffffffffffffffffffffffffffffffffffffffffffff1916145b8061045d575061045c826118e8565b5b9050919050565b60046020528060005260406000206000915090508060000160009054906101000a900473ffffffffffffffffffffffffffffffffffffffff16908060010160009054906101000a900473ffffffffffffffffffffffffffffffffffffffff16908060060160009054906101000a900460ff16905083565b6060600280546104ea90613281565b80601f016020809104026020016040519081016040528092919081815260200182805461051690613281565b80156105635780601f1061053857610100808354040283529160200191610563565b820191906000526020600020905b81548152906001019060200180831161054657829003601f168201915b50505050509050919050565b610577611952565b73ffffffffffffffffffffffffffffffffffffffff168573ffffffffffffffffffffffffffffffffffffffff1614806105bd57506105bc856105b7611952565b611790565b5b6105fc576040517f08c379a00000000000000000000000000000000000000000000000000000000081526004016105f390613325565b60405180910390fd5b610609858585858561195a565b5050505050565b60608151835114610656576040517f08c379a000000000000000000000000000000000000000000000000000000000815260040161064d906133b7565b60405180910390fd5b6000835167ffffffffffffffff81111561067357610672612a71565b5b6040519080825280602002602001820160405280156106a15781602001602082028036833780820191505090505b50905060005b845181101561071e576106ee8582815181106106c6576106c56133d7565b5b60200260200101518583815181106106e1576106e06133d7565b5b60200260200101516102b9565b828281518110610701576107006133d7565b5b6020026020010181815250508061071790613435565b90506106a7565b508091505092915050565b600060046000838152602001908152602001600020905060008160000160009054906101000a900473ffffffffffffffffffffffffffffffffffffffff16905060008260010160009054906101000a900473ffffffffffffffffffffffffffffffffffffffff169050600061079c611952565b9050600073ffffffffffffffffffffffffffffffffffffffff168373ffffffffffffffffffffffffffffffffffffffff16141561080e576040517f08c379a0000000000000000000000000000000000000000000000000000000008152600401610805906134ca565b60405180910390fd5b8073ffffffffffffffffffffffffffffffffffffffff168373ffffffffffffffffffffffffffffffffffffffff16148061084e575061084d8382611c7c565b5b8061088457508073ffffffffffffffffffffffffffffffffffffffff168273ffffffffffffffffffffffffffffffffffffffff16145b8061089557506108948282611c7c565b5b6108d4576040517f08c379a00000000000000000000000000000000000000000000000000000000081526004016108cb9061355c565b60405180910390fd5b8073ffffffffffffffffffffffffffffffffffffffff16857f90af83379d8595c89e65f7a24d8e34d82ba665bd027f7e7c61529730189bc57160405160405180910390a360046000868152602001908152602001600020600080820160006101000a81549073ffffffffffffffffffffffffffffffffffffffff02191690556001820160006101000a81549073ffffffffffffffffffffffffffffffffffffffff021916905560028201600061098a919061266f565b60038201600061099a919061266f565b6004820160006109aa919061266f565b6005820160006109ba919061266f565b6006820160006101000a81549060ff021916905550505050505050565b6109e96109e2611952565b8383611c90565b5050565b600060046000838152602001908152602001600020905060008160000160009054906101000a900473ffffffffffffffffffffffffffffffffffffffff169050600073ffffffffffffffffffffffffffffffffffffffff168173ffffffffffffffffffffffffffffffffffffffff161415610a9d576040517f08c379a0000000000000000000000000000000000000000000000000000000008152600401610a94906134ca565b60405180910390fd5b610aa5611952565b73ffffffffffffffffffffffffffffffffffffffff168173ffffffffffffffffffffffffffffffffffffffff161480610aeb5750610aea81610ae5611952565b611c7c565b5b610b2a576040517f08c379a0000000000000000000000000000000000000000000000000000000008152600401610b21906135ee565b60405180910390fd5b60008260060160009054906101000a900460ff169050600180811115610b5357610b52612903565b5b816001811115610b6657610b65612903565b5b14610ba6576040517f08c379a0000000000000000000000000000000000000000000000000000000008152600401610b9d90613680565b60405180910390fd5b610c9f848460000160009054906101000a900473ffffffffffffffffffffffffffffffffffffffff168560010160009054906101000a900473ffffffffffffffffffffffffffffffffffffffff1686600201805480602002602001604051908101604052809291908181526020018280548015610c4257602002820191906000526020600020905b815481526020019060010190808311610c2e575b505050505087600301805480602002602001604051908101604052809291908181526020018280548015610c9557602002820191906000526020600020905b815481526020019060010190808311610c81575b5050505050611dfd565b610d98848460010160009054906101000a900473ffffffffffffffffffffffffffffffffffffffff168560000160009054906101000a900473ffffffffffffffffffffffffffffffffffffffff1686600401805480602002602001604051908101604052809291908181526020018280548015610d3b57602002820191906000526020600020905b815481526020019060010190808311610d27575b505050505087600501805480602002602001604051908101604052809291908181526020018280548015610d8e57602002820191906000526020600020905b815481526020019060010190808311610d7a575b5050505050611dfd565b8260010160009054906101000a900473ffffffffffffffffffffffffffffffffffffffff1673ffffffffffffffffffffffffffffffffffffffff168360000160009054906101000a900473ffffffffffffffffffffffffffffffffffffffff1673ffffffffffffffffffffffffffffffffffffffff16857fa5fbbfff4decd4f44ed03e28267dd014277bccd985cc2153acfa058f41ae8c0760405160405180910390a460046000858152602001908152602001600020600080820160006101000a81549073ffffffffffffffffffffffffffffffffffffffff02191690556001820160006101000a81549073ffffffffffffffffffffffffffffffffffffffff0219169055600282016000610ead919061266f565b600382016000610ebd919061266f565b600482016000610ecd919061266f565b600582016000610edd919061266f565b6006820160006101000a81549060ff0219169055505050505050565b600060046000858152602001908152602001600020905060008160010160009054906101000a900473ffffffffffffffffffffffffffffffffffffffff169050600073ffffffffffffffffffffffffffffffffffffffff168173ffffffffffffffffffffffffffffffffffffffff161415610fa9576040517f08c379a0000000000000000000000000000000000000000000000000000000008152600401610fa0906134ca565b60405180910390fd5b610fb1611952565b73ffffffffffffffffffffffffffffffffffffffff168173ffffffffffffffffffffffffffffffffffffffff161480610ff75750610ff681610ff1611952565b611c7c565b5b611036576040517f08c379a000000000000000000000000000000000000000000000000000000000815260040161102d90613712565b60405180910390fd5b8251845114801561104957506000845114155b611088576040517f08c379a000000000000000000000000000000000000000000000000000000000815260040161107f906137a4565b60405180910390fd5b60008260060160009054906101000a900460ff169050600060018111156110b2576110b1612903565b5b8160018111156110c5576110c4612903565b5b14611105576040517f08c379a00000000000000000000000000000000000000000000000000000000081526004016110fc90613836565b60405180910390fd5b60005b84518110156111ad576000858281518110611126576111256133d7565b5b6020026020010151141561113982611e38565b604051602001611149919061392a565b60405160208183030381529060405290611199576040517f08c379a00000000000000000000000000000000000000000000000000000000081526004016111909190612a4a565b60405180910390fd5b5080806111a590613435565b915050611108565b5060018360060160006101000a81548160ff021916908360018111156111d6576111d5612903565b5b0217905550848360040190805190602001906111f3929190612690565b508383600501908051906020019061120c929190612690565b508173ffffffffffffffffffffffffffffffffffffffff168360000160009054906101000a900473ffffffffffffffffffffffffffffffffffffffff1673ffffffffffffffffffffffffffffffffffffffff16877fc396021e8ed80b78876c14f5696c767ff229eb9689369af47444c8f10525fbca60405160405180910390a4505050505050565b600073ffffffffffffffffffffffffffffffffffffffff168473ffffffffffffffffffffffffffffffffffffffff16141580156112fe5750600073ffffffffffffffffffffffffffffffffffffffff168373ffffffffffffffffffffffffffffffffffffffff1614155b61133d576040517f08c379a0000000000000000000000000000000000000000000000000000000008152600401611334906139c9565b60405180910390fd5b611345611952565b73ffffffffffffffffffffffffffffffffffffffff168473ffffffffffffffffffffffffffffffffffffffff16148061138b575061138a84611385611952565b611c7c565b5b6113ca576040517f08c379a00000000000000000000000000000000000000000000000000000000081526004016113c1906135ee565b60405180910390fd5b805182511480156113dd57506000825114155b61141c576040517f08c379a0000000000000000000000000000000000000000000000000000000008152600401611413906137a4565b60405180910390fd5b60005b81518110156114c457600082828151811061143d5761143c6133d7565b5b6020026020010151141561145082611e38565b604051602001611460919061392a565b604051602081830303815290604052906114b0576040517f08c379a00000000000000000000000000000000000000000000000000000000081526004016114a79190612a4a565b60405180910390fd5b5080806114bc90613435565b91505061141f565b506001600360008282546114d891906139e9565b925050819055506040518060e001604052808573ffffffffffffffffffffffffffffffffffffffff1681526020018473ffffffffffffffffffffffffffffffffffffffff168152602001838152602001828152602001600067ffffffffffffffff81111561154957611548612a71565b5b6040519080825280602002602001820160405280156115775781602001602082028036833780820191505090505b508152602001600067ffffffffffffffff81111561159857611597612a71565b5b6040519080825280602002602001820160405280156115c65781602001602082028036833780820191505090505b508152602001600060018111156115e0576115df612903565b5b81525060046000600354815260200190815260200160002060008201518160000160006101000a81548173ffffffffffffffffffffffffffffffffffffffff021916908373ffffffffffffffffffffffffffffffffffffffff16021790555060208201518160010160006101000a81548173ffffffffffffffffffffffffffffffffffffffff021916908373ffffffffffffffffffffffffffffffffffffffff16021790555060408201518160020190805190602001906116a2929190612690565b5060608201518160030190805190602001906116bf929190612690565b5060808201518160040190805190602001906116dc929190612690565b5060a08201518160050190805190602001906116f9929190612690565b5060c08201518160060160006101000a81548160ff0219169083600181111561172557611724612903565b5b02179055509050508273ffffffffffffffffffffffffffffffffffffffff168473ffffffffffffffffffffffffffffffffffffffff166003547fbfd9d9412b47e0af5402810f3d892346a590db4773210f27841a6a506d70aa6860405160405180910390a450505050565b6000600160008473ffffffffffffffffffffffffffffffffffffffff1673ffffffffffffffffffffffffffffffffffffffff16815260200190815260200160002060008373ffffffffffffffffffffffffffffffffffffffff1673ffffffffffffffffffffffffffffffffffffffff16815260200190815260200160002060009054906101000a900460ff16905092915050565b61182c611952565b73ffffffffffffffffffffffffffffffffffffffff168573ffffffffffffffffffffffffffffffffffffffff16148061187257506118718561186c611952565b611790565b5b6118b1576040517f08c379a00000000000000000000000000000000000000000000000000000000081526004016118a890613325565b60405180910390fd5b6118be8585858585611f99565b5050505050565b6000808273ffffffffffffffffffffffffffffffffffffffff163b119050919050565b60007f01ffc9a7000000000000000000000000000000000000000000000000000000007bffffffffffffffffffffffffffffffffffffffffffffffffffffffff1916827bffffffffffffffffffffffffffffffffffffffffffffffffffffffff1916149050919050565b600033905090565b815183511461199e576040517f08c379a000000000000000000000000000000000000000000000000000000000815260040161199590613ab1565b60405180910390fd5b600073ffffffffffffffffffffffffffffffffffffffff168473ffffffffffffffffffffffffffffffffffffffff161415611a0e576040517f08c379a0000000000000000000000000000000000000000000000000000000008152600401611a0590613b43565b60405180910390fd5b6000611a18611952565b9050611a28818787878787612235565b60005b8451811015611bd9576000858281518110611a4957611a486133d7565b5b602002602001015190506000858381518110611a6857611a676133d7565b5b60200260200101519050600080600084815260200190815260200160002060008b73ffffffffffffffffffffffffffffffffffffffff1673ffffffffffffffffffffffffffffffffffffffff16815260200190815260200160002054905081811015611b09576040517f08c379a0000000000000000000000000000000000000000000000000000000008152600401611b0090613bd5565b60405180910390fd5b81810360008085815260200190815260200160002060008c73ffffffffffffffffffffffffffffffffffffffff1673ffffffffffffffffffffffffffffffffffffffff168152602001908152602001600020819055508160008085815260200190815260200160002060008b73ffffffffffffffffffffffffffffffffffffffff1673ffffffffffffffffffffffffffffffffffffffff1681526020019081526020016000206000828254611bbe91906139e9565b9250508190555050505080611bd290613435565b9050611a2b565b508473ffffffffffffffffffffffffffffffffffffffff168673ffffffffffffffffffffffffffffffffffffffff168273ffffffffffffffffffffffffffffffffffffffff167f4a39dc06d4c0dbc64b70af90fd698a233a518aa5d07e595d983b8c0526c8f7fb8787604051611c50929190613bf5565b60405180910390a4611c6681878787878761223d565b611c74818787878787612245565b505050505050565b6000611c888383611790565b905092915050565b8173ffffffffffffffffffffffffffffffffffffffff168373ffffffffffffffffffffffffffffffffffffffff161415611cff576040517f08c379a0000000000000000000000000000000000000000000000000000000008152600401611cf690613c9e565b60405180910390fd5b80600160008573ffffffffffffffffffffffffffffffffffffffff1673ffffffffffffffffffffffffffffffffffffffff16815260200190815260200160002060008473ffffffffffffffffffffffffffffffffffffffff1673ffffffffffffffffffffffffffffffffffffffff16815260200190815260200160002060006101000a81548160ff0219169083151502179055508173ffffffffffffffffffffffffffffffffffffffff168373ffffffffffffffffffffffffffffffffffffffff167f17307eab39ab6107e8899845ad3d59bd9653f200f220920489ca2b5937696c3183604051611df091906128ac565b60405180910390a3505050565b611e3184848484611e0d8a611e38565b604051602001611e1d9190613d30565b60405160208183030381529060405261195a565b5050505050565b60606000821415611e80576040518060400160405280600181526020017f30000000000000000000000000000000000000000000000000000000000000008152509050611f94565b600082905060005b60008214611eb2578080611e9b90613435565b915050600a82611eab9190613d81565b9150611e88565b60008167ffffffffffffffff811115611ece57611ecd612a71565b5b6040519080825280601f01601f191660200182016040528015611f005781602001600182028036833780820191505090505b5090505b60008514611f8d57600182611f199190613db2565b9150600a85611f289190613de6565b6030611f3491906139e9565b60f81b818381518110611f4a57611f496133d7565b5b60200101907effffffffffffffffffffffffffffffffffffffffffffffffffffffffffffff1916908160001a905350600a85611f869190613d81565b9450611f04565b8093505050505b919050565b600073ffffffffffffffffffffffffffffffffffffffff168473ffffffffffffffffffffffffffffffffffffffff161415612009576040517f08c379a000000000000000000000000000000000000000000000000000000000815260040161200090613b43565b60405180910390fd5b6000612013611952565b905060006120208561241d565b9050600061202d8561241d565b905061203d838989858589612235565b600080600088815260200190815260200160002060008a73ffffffffffffffffffffffffffffffffffffffff1673ffffffffffffffffffffffffffffffffffffffff168152602001908152602001600020549050858110156120d4576040517f08c379a00000000000000000000000000000000000000000000000000000000081526004016120cb90613bd5565b60405180910390fd5b85810360008089815260200190815260200160002060008b73ffffffffffffffffffffffffffffffffffffffff1673ffffffffffffffffffffffffffffffffffffffff168152602001908152602001600020819055508560008089815260200190815260200160002060008a73ffffffffffffffffffffffffffffffffffffffff1673ffffffffffffffffffffffffffffffffffffffff168152602001908152602001600020600082825461218991906139e9565b925050819055508773ffffffffffffffffffffffffffffffffffffffff168973ffffffffffffffffffffffffffffffffffffffff168573ffffffffffffffffffffffffffffffffffffffff167fc3d58168c5ae7397731d063d5bbf3d657854427343f4c083240f7aacaa2d0f628a8a604051612206929190613e17565b60405180910390a461221c848a8a86868a61223d565b61222a848a8a8a8a8a612497565b505050505050505050565b505050505050565b505050505050565b6122648473ffffffffffffffffffffffffffffffffffffffff166118c5565b15612415578373ffffffffffffffffffffffffffffffffffffffff1663bc197c8187878686866040518663ffffffff1660e01b81526004016122aa959493929190613e95565b6020604051808303816000875af19250505080156122e657506040513d601f19601f820116820180604052508101906122e39190613f12565b60015b61238c576122f2613f4c565b806308c379a0141561234f5750612307613f6e565b806123125750612351565b806040517f08c379a00000000000000000000000000000000000000000000000000000000081526004016123469190612a4a565b60405180910390fd5b505b6040517f08c379a000000000000000000000000000000000000000000000000000000000815260040161238390614076565b60405180910390fd5b63bc197c8160e01b7bffffffffffffffffffffffffffffffffffffffffffffffffffffffff1916817bffffffffffffffffffffffffffffffffffffffffffffffffffffffff191614612413576040517f08c379a000000000000000000000000000000000000000000000000000000000815260040161240a90614108565b60405180910390fd5b505b505050505050565b60606000600167ffffffffffffffff81111561243c5761243b612a71565b5b60405190808252806020026020018201604052801561246a5781602001602082028036833780820191505090505b5090508281600081518110612482576124816133d7565b5b60200260200101818152505080915050919050565b6124b68473ffffffffffffffffffffffffffffffffffffffff166118c5565b15612667578373ffffffffffffffffffffffffffffffffffffffff1663f23a6e6187878686866040518663ffffffff1660e01b81526004016124fc959493929190614128565b6020604051808303816000875af192505050801561253857506040513d601f19601f820116820180604052508101906125359190613f12565b60015b6125de57612544613f4c565b806308c379a014156125a15750612559613f6e565b8061256457506125a3565b806040517f08c379a00000000000000000000000000000000000000000000000000000000081526004016125989190612a4a565b60405180910390fd5b505b6040517f08c379a00000000000000000000000000000000000000000000000000000000081526004016125d590614076565b60405180910390fd5b63f23a6e6160e01b7bffffffffffffffffffffffffffffffffffffffffffffffffffffffff1916817bffffffffffffffffffffffffffffffffffffffffffffffffffffffff191614612665576040517f08c379a000000000000000000000000000000000000000000000000000000000815260040161265c90614108565b60405180910390fd5b505b505050505050565b508054600082559060005260206000209081019061268d91906126dd565b50565b8280548282559060005260206000209081019282156126cc579160200282015b828111156126cb5782518255916020019190600101906126b0565b5b5090506126d991906126dd565b5090565b5b808211156126f65760008160009055506001016126de565b5090565b6000604051905090565b600080fd5b600080fd5b600073ffffffffffffffffffffffffffffffffffffffff82169050919050565b60006127398261270e565b9050919050565b6127498161272e565b811461275457600080fd5b50565b60008135905061276681612740565b92915050565b6000819050919050565b61277f8161276c565b811461278a57600080fd5b50565b60008135905061279c81612776565b92915050565b600080604083850312156127b9576127b8612704565b5b60006127c785828601612757565b92505060206127d88582860161278d565b9150509250929050565b6127eb8161276c565b82525050565b600060208201905061280660008301846127e2565b92915050565b60007fffffffff0000000000000000000000000000000000000000000000000000000082169050919050565b6128418161280c565b811461284c57600080fd5b50565b60008135905061285e81612838565b92915050565b60006020828403121561287a57612879612704565b5b60006128888482850161284f565b91505092915050565b60008115159050919050565b6128a681612891565b82525050565b60006020820190506128c1600083018461289d565b92915050565b6000602082840312156128dd576128dc612704565b5b60006128eb8482850161278d565b91505092915050565b6128fd8161272e565b82525050565b7f4e487b7100000000000000000000000000000000000000000000000000000000600052602160045260246000fd5b6002811061294357612942612903565b5b50565b600081905061295482612932565b919050565b600061296482612946565b9050919050565b61297481612959565b82525050565b600060608201905061298f60008301866128f4565b61299c60208301856128f4565b6129a9604083018461296b565b949350505050565b600081519050919050565b600082825260208201905092915050565b60005b838110156129eb5780820151818401526020810190506129d0565b838111156129fa576000848401525b50505050565b6000601f19601f8301169050919050565b6000612a1c826129b1565b612a2681856129bc565b9350612a368185602086016129cd565b612a3f81612a00565b840191505092915050565b60006020820190508181036000830152612a648184612a11565b905092915050565b600080fd5b7f4e487b7100000000000000000000000000000000000000000000000000000000600052604160045260246000fd5b612aa982612a00565b810181811067ffffffffffffffff82111715612ac857612ac7612a71565b5b80604052505050565b6000612adb6126fa565b9050612ae78282612aa0565b919050565b600067ffffffffffffffff821115612b0757612b06612a71565b5b602082029050602081019050919050565b600080fd5b6000612b30612b2b84612aec565b612ad1565b90508083825260208201905060208402830185811115612b5357612b52612b18565b5b835b81811015612b7c5780612b68888261278d565b845260208401935050602081019050612b55565b5050509392505050565b600082601f830112612b9b57612b9a612a6c565b5b8135612bab848260208601612b1d565b91505092915050565b600080fd5b600067ffffffffffffffff821115612bd457612bd3612a71565b5b612bdd82612a00565b9050602081019050919050565b82818337600083830152505050565b6000612c0c612c0784612bb9565b612ad1565b905082815260208101848484011115612c2857612c27612bb4565b5b612c33848285612bea565b509392505050565b600082601f830112612c5057612c4f612a6c565b5b8135612c60848260208601612bf9565b91505092915050565b600080600080600060a08688031215612c8557612c84612704565b5b6000612c9388828901612757565b9550506020612ca488828901612757565b945050604086013567ffffffffffffffff811115612cc557612cc4612709565b5b612cd188828901612b86565b935050606086013567ffffffffffffffff811115612cf257612cf1612709565b5b612cfe88828901612b86565b925050608086013567ffffffffffffffff811115612d1f57612d1e612709565b5b612d2b88828901612c3b565b9150509295509295909350565b600067ffffffffffffffff821115612d5357612d52612a71565b5b602082029050602081019050919050565b6000612d77612d7284612d38565b612ad1565b90508083825260208201905060208402830185811115612d9a57612d99612b18565b5b835b81811015612dc35780612daf8882612757565b845260208401935050602081019050612d9c565b5050509392505050565b600082601f830112612de257612de1612a6c565b5b8135612df2848260208601612d64565b91505092915050565b60008060408385031215612e1257612e11612704565b5b600083013567ffffffffffffffff811115612e3057612e2f612709565b5b612e3c85828601612dcd565b925050602083013567ffffffffffffffff811115612e5d57612e5c612709565b5b612e6985828601612b86565b9150509250929050565b600081519050919050565b600082825260208201905092915050565b6000819050602082019050919050565b612ea88161276c565b82525050565b6000612eba8383612e9f565b60208301905092915050565b6000602082019050919050565b6000612ede82612e73565b612ee88185612e7e565b9350612ef383612e8f565b8060005b83811015612f24578151612f0b8882612eae565b9750612f1683612ec6565b925050600181019050612ef7565b5085935050505092915050565b60006020820190508181036000830152612f4b8184612ed3565b905092915050565b612f5c81612891565b8114612f6757600080fd5b50565b600081359050612f7981612f53565b92915050565b60008060408385031215612f9657612f95612704565b5b6000612fa485828601612757565b9250506020612fb585828601612f6a565b9150509250929050565b600080600060608486031215612fd857612fd7612704565b5b6000612fe68682870161278d565b935050602084013567ffffffffffffffff81111561300757613006612709565b5b61301386828701612b86565b925050604084013567ffffffffffffffff81111561303457613033612709565b5b61304086828701612b86565b9150509250925092565b6000806000806080858703121561306457613063612704565b5b600061307287828801612757565b945050602061308387828801612757565b935050604085013567ffffffffffffffff8111156130a4576130a3612709565b5b6130b087828801612b86565b925050606085013567ffffffffffffffff8111156130d1576130d0612709565b5b6130dd87828801612b86565b91505092959194509250565b60008060408385031215613100576130ff612704565b5b600061310e85828601612757565b925050602061311f85828601612757565b9150509250929050565b600080600080600060a0868803121561314557613144612704565b5b600061315388828901612757565b955050602061316488828901612757565b94505060406131758882890161278d565b93505060606131868882890161278d565b925050608086013567ffffffffffffffff8111156131a7576131a6612709565b5b6131b388828901612c3b565b9150509295509295909350565b7f455243313135353a2061646472657373207a65726f206973206e6f742061207660008201527f616c6964206f776e657200000000000000000000000000000000000000000000602082015250565b600061321c602a836129bc565b9150613227826131c0565b604082019050919050565b6000602082019050818103600083015261324b8161320f565b9050919050565b7f4e487b7100000000000000000000000000000000000000000000000000000000600052602260045260246000fd5b6000600282049050600182168061329957607f821691505b602082108114156132ad576132ac613252565b5b50919050565b7f455243313135353a2063616c6c6572206973206e6f7420746f6b656e206f776e60008201527f6572206e6f7220617070726f7665640000000000000000000000000000000000602082015250565b600061330f602f836129bc565b915061331a826132b3565b604082019050919050565b6000602082019050818103600083015261333e81613302565b9050919050565b7f455243313135353a206163636f756e747320616e6420696473206c656e67746860008201527f206d69736d617463680000000000000000000000000000000000000000000000602082015250565b60006133a16029836129bc565b91506133ac82613345565b604082019050919050565b600060208201905081810360008301526133d081613394565b9050919050565b7f4e487b7100000000000000000000000000000000000000000000000000000000600052603260045260246000fd5b7f4e487b7100000000000000000000000000000000000000000000000000000000600052601160045260246000fd5b60006134408261276c565b91507fffffffffffffffffffffffffffffffffffffffffffffffffffffffffffffffff82141561347357613472613406565b5b600182019050919050565b7f5361666545786368616e67653a20696e76616c6964206465616c000000000000600082015250565b60006134b4601a836129bc565b91506134bf8261347e565b602082019050919050565b600060208201905081810360008301526134e3816134a7565b9050919050565b7f5361666545786368616e67653a2063616c6c6572206973206e6f7420656d697460008201527f7465722f7265636569766572206e6f7220617070726f76656400000000000000602082015250565b60006135466039836129bc565b9150613551826134ea565b604082019050919050565b6000602082019050818103600083015261357581613539565b9050919050565b7f5361666545786368616e67653a2063616c6c6572206973206e6f7420656d697460008201527f746572206e6f7220617070726f76656400000000000000000000000000000000602082015250565b60006135d86030836129bc565b91506135e38261357c565b604082019050919050565b60006020820190508181036000830152613607816135cb565b9050919050565b7f5361666545786368616e67653a206465616c206973206e6f7420696e206a757360008201527f742d616363657074656420737461746500000000000000000000000000000000602082015250565b600061366a6030836129bc565b91506136758261360e565b604082019050919050565b600060208201905081810360008301526136998161365d565b9050919050565b7f5361666545786368616e67653a2063616c6c6572206973206e6f74207265636560008201527f69766572206e6f7220617070726f766564000000000000000000000000000000602082015250565b60006136fc6031836129bc565b9150613707826136a0565b604082019050919050565b6000602082019050818103600083015261372b816136ef565b9050919050565b7f5361666545786368616e67653a20746f6b656e2069647320616e6420616d6f7560008201527f6e7473206c656e677468206d69736d61746368206f7220300000000000000000602082015250565b600061378e6038836129bc565b915061379982613732565b604082019050919050565b600060208201905081810360008301526137bd81613781565b9050919050565b7f5361666545786368616e67653a206465616c206973206e6f7420696e206a757360008201527f742d637265617465642073746174650000000000000000000000000000000000602082015250565b6000613820602f836129bc565b915061382b826137c4565b604082019050919050565b6000602082019050818103600083015261384f81613813565b9050919050565b600081905092915050565b7f5361666545786368616e67653a20746f6b656e20696e20706f736974696f6e20600082015250565b6000613897602083613856565b91506138a282613861565b602082019050919050565b60006138b8826129b1565b6138c28185613856565b93506138d28185602086016129cd565b80840191505092915050565b7f206d757374206e6f74206861766520616d6f756e74206f662030000000000000600082015250565b6000613914601a83613856565b915061391f826138de565b601a82019050919050565b60006139358261388a565b915061394182846138ad565b915061394c82613907565b915081905092915050565b7f5361666545786368616e67653a207472616e736665722066726f6d2f746f207460008201527f6865207a65726f20616464726573730000000000000000000000000000000000602082015250565b60006139b3602f836129bc565b91506139be82613957565b604082019050919050565b600060208201905081810360008301526139e2816139a6565b9050919050565b60006139f48261276c565b91506139ff8361276c565b9250827fffffffffffffffffffffffffffffffffffffffffffffffffffffffffffffffff03821115613a3457613a33613406565b5b828201905092915050565b7f455243313135353a2069647320616e6420616d6f756e7473206c656e6774682060008201527f6d69736d61746368000000000000000000000000000000000000000000000000602082015250565b6000613a9b6028836129bc565b9150613aa682613a3f565b604082019050919050565b60006020820190508181036000830152613aca81613a8e565b9050919050565b7f455243313135353a207472616e7366657220746f20746865207a65726f20616460008201527f6472657373000000000000000000000000000000000000000000000000000000602082015250565b6000613b2d6025836129bc565b9150613b3882613ad1565b604082019050919050565b60006020820190508181036000830152613b5c81613b20565b9050919050565b7f455243313135353a20696e73756666696369656e742062616c616e636520666f60008201527f72207472616e7366657200000000000000000000000000000000000000000000602082015250565b6000613bbf602a836129bc565b9150613bca82613b63565b604082019050919050565b60006020820190508181036000830152613bee81613bb2565b9050919050565b60006040820190508181036000830152613c0f8185612ed3565b90508181036020830152613c238184612ed3565b90509392505050565b7f455243313135353a2073657474696e6720617070726f76616c2073746174757360008201527f20666f722073656c660000000000000000000000000000000000000000000000602082015250565b6000613c886029836129bc565b9150613c9382613c2c565b604082019050919050565b60006020820190508181036000830152613cb781613c7b565b9050919050565b7f53616d706c6545524331313535576974685361666545786368616e67653a206560008201527f7865637574696e67206465616c20000000000000000000000000000000000000602082015250565b6000613d1a602e83613856565b9150613d2582613cbe565b602e82019050919050565b6000613d3b82613d0d565b9150613d4782846138ad565b915081905092915050565b7f4e487b7100000000000000000000000000000000000000000000000000000000600052601260045260246000fd5b6000613d8c8261276c565b9150613d978361276c565b925082613da757613da6613d52565b5b828204905092915050565b6000613dbd8261276c565b9150613dc88361276c565b925082821015613ddb57613dda613406565b5b828203905092915050565b6000613df18261276c565b9150613dfc8361276c565b925082613e0c57613e0b613d52565b5b828206905092915050565b6000604082019050613e2c60008301856127e2565b613e3960208301846127e2565b9392505050565b600081519050919050565b600082825260208201905092915050565b6000613e6782613e40565b613e718185613e4b565b9350613e818185602086016129cd565b613e8a81612a00565b840191505092915050565b600060a082019050613eaa60008301886128f4565b613eb760208301876128f4565b8181036040830152613ec98186612ed3565b90508181036060830152613edd8185612ed3565b90508181036080830152613ef18184613e5c565b90509695505050505050565b600081519050613f0c81612838565b92915050565b600060208284031215613f2857613f27612704565b5b6000613f3684828501613efd565b91505092915050565b60008160e01c9050919050565b600060033d1115613f6b5760046000803e613f68600051613f3f565b90505b90565b600060443d1015613f7e57614001565b613f866126fa565b60043d036004823e80513d602482011167ffffffffffffffff82111715613fae575050614001565b808201805167ffffffffffffffff811115613fcc5750505050614001565b80602083010160043d038501811115613fe9575050505050614001565b613ff882602001850186612aa0565b82955050505050505b90565b7f455243313135353a207472616e7366657220746f206e6f6e204552433131353560008201527f526563656976657220696d706c656d656e746572000000000000000000000000602082015250565b60006140606034836129bc565b915061406b82614004565b604082019050919050565b6000602082019050818103600083015261408f81614053565b9050919050565b7f455243313135353a204552433131353552656365697665722072656a6563746560008201527f6420746f6b656e73000000000000000000000000000000000000000000000000602082015250565b60006140f26028836129bc565b91506140fd82614096565b604082019050919050565b60006020820190508181036000830152614121816140e5565b9050919050565b600060a08201905061413d60008301886128f4565b61414a60208301876128f4565b61415760408301866127e2565b61416460608301856127e2565b81810360808301526141768184613e5c565b9050969550505050505056fea264697066735822122067c5df6e14b3661a821694b9c14e89f6bb53752f42930ae5ce82928d13870bf064736f6c634300080a0033",
  "immutableReferences": {},
  "source": "// SPDX-License-Identifier: MIT\npragma solidity >=0.8 <0.9.0;\n\nimport \"@openzeppelin/contracts/token/ERC1155/ERC1155.sol\";\nimport \"@openzeppelin/contracts/utils/Strings.sol\";\nimport \"../lingr/economy/SafeExchange.sol\";\n\ncontract SampleERC1155WithSafeExchange is ERC1155, SafeExchange\n{\n    constructor() ERC1155(\"about:blank\") {\n        _mint(_msgSender(), 1, 1 ether, \"test\");\n        _mint(_msgSender(), 2, 2 ether, \"test\");\n        _mint(_msgSender(), 3, 3 ether, \"test\");\n    }\n\n    function _batchTransfer(\n        uint256 _dealIndex, address _from, address _to, uint256[] memory _tokenIds, uint256[] memory _tokenAmounts\n    ) internal override {\n        _safeBatchTransferFrom(_from, _to, _tokenIds, _tokenAmounts, abi.encodePacked(\n            \"SampleERC1155WithSafeExchange: executing deal \", Strings.toString(_dealIndex)\n        ));\n    }\n\n    function _isApproved(address _party, address _sender) internal override view returns (bool) {\n        return isApprovedForAll(_party, _sender);\n    }\n}\n",
  "sourcePath": "/home/luismasuelli/Projects/OuterMaze/lingr-contracts/contracts/samples/SampleERC1155WithSafeExchange.sol",
  "compiler": {
    "name": "solc",
    "version": "0.8.10+commit.fc410830.Emscripten.clang"
  },
  "schemaVersion": "3.4.3",
  "updatedAt": "2022-11-02T01:33:26.306Z",
  "devdoc": {
    "kind": "dev",
    "methods": {
      "balanceOf(address,uint256)": {
        "details": "See {IERC1155-balanceOf}. Requirements: - `account` cannot be the zero address."
      },
      "balanceOfBatch(address[],uint256[])": {
        "details": "See {IERC1155-balanceOfBatch}. Requirements: - `accounts` and `ids` must have the same length."
      },
      "isApprovedForAll(address,address)": {
        "details": "See {IERC1155-isApprovedForAll}."
      },
      "safeBatchTransferFrom(address,address,uint256[],uint256[],bytes)": {
        "details": "See {IERC1155-safeBatchTransferFrom}."
      },
      "safeTransferFrom(address,address,uint256,uint256,bytes)": {
        "details": "See {IERC1155-safeTransferFrom}."
      },
      "setApprovalForAll(address,bool)": {
        "details": "See {IERC1155-setApprovalForAll}."
      },
      "supportsInterface(bytes4)": {
        "details": "See {IERC165-supportsInterface}."
      },
      "uri(uint256)": {
        "details": "See {IERC1155MetadataURI-uri}. This implementation returns the same URI for *all* token types. It relies on the token type ID substitution mechanism https://eips.ethereum.org/EIPS/eip-1155#metadata[defined in the EIP]. Clients calling this function must replace the `\\{id\\}` substring with the actual token type ID."
      }
    },
    "version": 1
  },
  "userdoc": {
    "events": {
      "DealAccepted(uint256,address,address)": {
        "notice": "This event is raised when a deal is accepted by the receiver."
      },
      "DealBroken(uint256,address)": {
        "notice": "This event is raised when a deal is broken by its emitter, the receiver, or an operator on behalf of any of them."
      },
      "DealConfirmed(uint256,address,address)": {
        "notice": "This event is raised when a deal is confirmed by its creator, after the receiver's acceptance."
      },
      "DealStarted(uint256,address,address)": {
        "notice": "This event is raised when a new deal is created."
      }
    },
    "kind": "user",
    "methods": {
      "dealAccept(uint256,uint256[],uint256[])": {
        "notice": "Accepting a deal requires the deal to be valid, the sender to be the deal receiver (or an allowed operator of the deal receiver), and the deal to be in the appropriate state. Also, the objects data must be non-empty and no element must be 0."
      },
      "dealBreak(uint256)": {
        "notice": "Breaking a deal requires the deal to be valid, the sender to be the emitter (or approved) or the receiver (or approved)."
      },
      "dealConfirm(uint256)": {
        "notice": "Confirming a deal requires the deal to be valid, the sender to be the deal emitter (or an allowed operator of the deal emitter), and the deal to be in the appropriate state."
      },
      "dealStart(address,address,uint256[],uint256[])": {
        "notice": "Starting a deal requires the sender to be the _emitter address or an address the sender can operate on their behalf. Also, the objects data must be non-empty, and no element must be 0."
      },
      "deals(uint256)": {
        "notice": "All the ACTIVE / PENDING deals instantiated so far."
      }
    },
    "version": 1
  }
}