{
  "contractName": "SampleERC1155WithBrandRegistry",
  "abi": [
    {
      "inputs": [],
      "stateMutability": "nonpayable",
      "type": "constructor"
    },
    {
      "anonymous": false,
      "inputs": [
        {
          "indexed": true,
          "internalType": "address",
          "name": "account",
          "type": "address"
        },
        {
          "indexed": true,
          "internalType": "address",
          "name": "operator",
          "type": "address"
        },
        {
          "indexed": false,
          "internalType": "bool",
          "name": "approved",
          "type": "bool"
        }
      ],
      "name": "ApprovalForAll",
      "type": "event"
    },
    {
      "anonymous": false,
      "inputs": [
        {
          "indexed": true,
          "internalType": "address",
          "name": "withdrawnBy",
          "type": "address"
        },
        {
          "indexed": false,
          "internalType": "uint256",
          "name": "amount",
          "type": "uint256"
        }
      ],
      "name": "BrandEarningsWithdrawn",
      "type": "event"
    },
    {
      "anonymous": false,
      "inputs": [
        {
          "indexed": true,
          "internalType": "address",
          "name": "registeredBy",
          "type": "address"
        },
        {
          "indexed": true,
          "internalType": "address",
          "name": "brandId",
          "type": "address"
        },
        {
          "indexed": false,
          "internalType": "string",
          "name": "name",
          "type": "string"
        },
        {
          "indexed": false,
          "internalType": "string",
          "name": "description",
          "type": "string"
        },
        {
          "indexed": false,
          "internalType": "uint256",
          "name": "price",
          "type": "uint256"
        }
      ],
      "name": "BrandRegistered",
      "type": "event"
    },
    {
      "anonymous": false,
      "inputs": [
        {
          "indexed": false,
          "internalType": "uint256",
          "name": "newCost",
          "type": "uint256"
        }
      ],
      "name": "BrandRegistrationCostUpdated",
      "type": "event"
    },
    {
      "anonymous": false,
      "inputs": [
        {
          "indexed": true,
          "internalType": "address",
          "name": "updatedBy",
          "type": "address"
        },
        {
          "indexed": true,
          "internalType": "address",
          "name": "brandId",
          "type": "address"
        }
      ],
      "name": "BrandUpdated",
      "type": "event"
    },
    {
      "anonymous": false,
      "inputs": [
        {
          "indexed": true,
          "internalType": "address",
          "name": "operator",
          "type": "address"
        },
        {
          "indexed": true,
          "internalType": "address",
          "name": "from",
          "type": "address"
        },
        {
          "indexed": true,
          "internalType": "address",
          "name": "to",
          "type": "address"
        },
        {
          "indexed": false,
          "internalType": "uint256[]",
          "name": "ids",
          "type": "uint256[]"
        },
        {
          "indexed": false,
          "internalType": "uint256[]",
          "name": "values",
          "type": "uint256[]"
        }
      ],
      "name": "TransferBatch",
      "type": "event"
    },
    {
      "anonymous": false,
      "inputs": [
        {
          "indexed": true,
          "internalType": "address",
          "name": "operator",
          "type": "address"
        },
        {
          "indexed": true,
          "internalType": "address",
          "name": "from",
          "type": "address"
        },
        {
          "indexed": true,
          "internalType": "address",
          "name": "to",
          "type": "address"
        },
        {
          "indexed": false,
          "internalType": "uint256",
          "name": "id",
          "type": "uint256"
        },
        {
          "indexed": false,
          "internalType": "uint256",
          "name": "value",
          "type": "uint256"
        }
      ],
      "name": "TransferSingle",
      "type": "event"
    },
    {
      "anonymous": false,
      "inputs": [
        {
          "indexed": false,
          "internalType": "string",
          "name": "value",
          "type": "string"
        },
        {
          "indexed": true,
          "internalType": "uint256",
          "name": "id",
          "type": "uint256"
        }
      ],
      "name": "URI",
      "type": "event"
    },
    {
      "inputs": [
        {
          "internalType": "address",
          "name": "account",
          "type": "address"
        },
        {
          "internalType": "uint256",
          "name": "id",
          "type": "uint256"
        }
      ],
      "name": "balanceOf",
      "outputs": [
        {
          "internalType": "uint256",
          "name": "",
          "type": "uint256"
        }
      ],
      "stateMutability": "view",
      "type": "function"
    },
    {
      "inputs": [
        {
          "internalType": "address[]",
          "name": "accounts",
          "type": "address[]"
        },
        {
          "internalType": "uint256[]",
          "name": "ids",
          "type": "uint256[]"
        }
      ],
      "name": "balanceOfBatch",
      "outputs": [
        {
          "internalType": "uint256[]",
          "name": "",
          "type": "uint256[]"
        }
      ],
      "stateMutability": "view",
      "type": "function"
    },
    {
      "inputs": [
        {
          "internalType": "address",
          "name": "_brandId",
          "type": "address"
        }
      ],
      "name": "brandExists",
      "outputs": [
        {
          "internalType": "bool",
          "name": "",
          "type": "bool"
        }
      ],
      "stateMutability": "view",
      "type": "function"
    },
    {
      "inputs": [
        {
          "internalType": "address",
          "name": "_brandId",
          "type": "address"
        }
      ],
      "name": "brandMetadataURI",
      "outputs": [
        {
          "internalType": "string",
          "name": "",
          "type": "string"
        }
      ],
      "stateMutability": "view",
      "type": "function"
    },
    {
      "inputs": [],
      "name": "brandRegistrationCost",
      "outputs": [
        {
          "internalType": "uint256",
          "name": "",
          "type": "uint256"
        }
      ],
      "stateMutability": "view",
      "type": "function"
    },
    {
      "inputs": [],
      "name": "brandRegistrationCurrentEarnings",
      "outputs": [
        {
          "internalType": "uint256",
          "name": "",
          "type": "uint256"
        }
      ],
      "stateMutability": "view",
      "type": "function"
    },
    {
      "inputs": [
        {
          "internalType": "address",
          "name": "account",
          "type": "address"
        },
        {
          "internalType": "address",
          "name": "operator",
          "type": "address"
        }
      ],
      "name": "isApprovedForAll",
      "outputs": [
        {
          "internalType": "bool",
          "name": "",
          "type": "bool"
        }
      ],
      "stateMutability": "view",
      "type": "function"
    },
    {
      "inputs": [],
      "name": "owner",
      "outputs": [
        {
          "internalType": "address",
          "name": "",
          "type": "address"
        }
      ],
      "stateMutability": "view",
      "type": "function"
    },
    {
      "inputs": [
        {
          "internalType": "string",
          "name": "_name",
          "type": "string"
        },
        {
          "internalType": "string",
          "name": "_description",
          "type": "string"
        },
        {
          "internalType": "string",
          "name": "_image",
          "type": "string"
        },
        {
          "internalType": "string",
          "name": "_icon16x16",
          "type": "string"
        },
        {
          "internalType": "string",
          "name": "_icon32x32",
          "type": "string"
        },
        {
          "internalType": "string",
          "name": "_icon64x64",
          "type": "string"
        }
      ],
      "name": "registerBrand",
      "outputs": [],
      "stateMutability": "payable",
      "type": "function"
    },
    {
      "inputs": [
        {
          "internalType": "address",
          "name": "from",
          "type": "address"
        },
        {
          "internalType": "address",
          "name": "to",
          "type": "address"
        },
        {
          "internalType": "uint256[]",
          "name": "ids",
          "type": "uint256[]"
        },
        {
          "internalType": "uint256[]",
          "name": "amounts",
          "type": "uint256[]"
        },
        {
          "internalType": "bytes",
          "name": "data",
          "type": "bytes"
        }
      ],
      "name": "safeBatchTransferFrom",
      "outputs": [],
      "stateMutability": "nonpayable",
      "type": "function"
    },
    {
      "inputs": [
        {
          "internalType": "address",
          "name": "from",
          "type": "address"
        },
        {
          "internalType": "address",
          "name": "to",
          "type": "address"
        },
        {
          "internalType": "uint256",
          "name": "id",
          "type": "uint256"
        },
        {
          "internalType": "uint256",
          "name": "amount",
          "type": "uint256"
        },
        {
          "internalType": "bytes",
          "name": "data",
          "type": "bytes"
        }
      ],
      "name": "safeTransferFrom",
      "outputs": [],
      "stateMutability": "nonpayable",
      "type": "function"
    },
    {
      "inputs": [
        {
          "internalType": "address",
          "name": "operator",
          "type": "address"
        },
        {
          "internalType": "bool",
          "name": "approved",
          "type": "bool"
        }
      ],
      "name": "setApprovalForAll",
      "outputs": [],
      "stateMutability": "nonpayable",
      "type": "function"
    },
    {
      "inputs": [
        {
          "internalType": "uint256",
          "name": "_newCost",
          "type": "uint256"
        }
      ],
      "name": "setBrandRegistrationCost",
      "outputs": [],
      "stateMutability": "nonpayable",
      "type": "function"
    },
    {
      "inputs": [
        {
          "internalType": "bytes4",
          "name": "interfaceId",
          "type": "bytes4"
        }
      ],
      "name": "supportsInterface",
      "outputs": [
        {
          "internalType": "bool",
          "name": "",
          "type": "bool"
        }
      ],
      "stateMutability": "view",
      "type": "function"
    },
    {
      "inputs": [
        {
          "internalType": "address",
          "name": "_brandId",
          "type": "address"
        },
        {
          "internalType": "string",
          "name": "_challengeUrl",
          "type": "string"
        }
      ],
      "name": "updateBrandChallengeUrl",
      "outputs": [],
      "stateMutability": "nonpayable",
      "type": "function"
    },
    {
      "inputs": [
        {
          "internalType": "address",
          "name": "_brandId",
          "type": "address"
        },
        {
          "internalType": "string",
          "name": "_icon",
          "type": "string"
        }
      ],
      "name": "updateBrandIcon16x16Url",
      "outputs": [],
      "stateMutability": "nonpayable",
      "type": "function"
    },
    {
      "inputs": [
        {
          "internalType": "address",
          "name": "_brandId",
          "type": "address"
        },
        {
          "internalType": "string",
          "name": "_icon",
          "type": "string"
        }
      ],
      "name": "updateBrandIcon32x32Url",
      "outputs": [],
      "stateMutability": "nonpayable",
      "type": "function"
    },
    {
      "inputs": [
        {
          "internalType": "address",
          "name": "_brandId",
          "type": "address"
        },
        {
          "internalType": "string",
          "name": "_icon",
          "type": "string"
        }
      ],
      "name": "updateBrandIcon64x64Url",
      "outputs": [],
      "stateMutability": "nonpayable",
      "type": "function"
    },
    {
      "inputs": [
        {
          "internalType": "address",
          "name": "_brandId",
          "type": "address"
        },
        {
          "internalType": "string",
          "name": "_image",
          "type": "string"
        }
      ],
      "name": "updateBrandImage",
      "outputs": [],
      "stateMutability": "nonpayable",
      "type": "function"
    },
    {
      "inputs": [
        {
          "internalType": "uint256",
          "name": "",
          "type": "uint256"
        }
      ],
      "name": "uri",
      "outputs": [
        {
          "internalType": "string",
          "name": "",
          "type": "string"
        }
      ],
      "stateMutability": "view",
      "type": "function"
    },
    {
      "inputs": [
        {
          "internalType": "uint256",
          "name": "amount",
          "type": "uint256"
        }
      ],
      "name": "withdrawBrandRegistrationEarnings",
      "outputs": [],
      "stateMutability": "nonpayable",
      "type": "function"
    }
  ],
  "bytecode": "0x60806040523480156200001157600080fd5b506040518060400160405280600b81526020017f61626f75743a626c616e6b0000000000000000000000000000000000000000008152506200005981620000a160201b60201c565b5033600760006101000a81548173ffffffffffffffffffffffffffffffffffffffff021916908373ffffffffffffffffffffffffffffffffffffffff160217905550620001d2565b8060029080519060200190620000b9929190620000bd565b5050565b828054620000cb906200019c565b90600052602060002090601f016020900481019282620000ef57600085556200013b565b82601f106200010a57805160ff19168380011785556200013b565b828001600101855582156200013b579182015b828111156200013a5782518255916020019190600101906200011d565b5b5090506200014a91906200014e565b5090565b5b80821115620001695760008160009055506001016200014f565b5090565b7f4e487b7100000000000000000000000000000000000000000000000000000000600052602260045260246000fd5b60006002820490506001821680620001b557607f821691505b60208210811415620001cc57620001cb6200016d565b5b50919050565b6153b080620001e26000396000f3fe6080604052600436106101295760003560e01c806351a8de60116100ab5780638da5cb5b1161006f5780638da5cb5b146103f05780639896c31d1461041b57806399de09ff14610458578063a22cb46514610481578063e985e9c5146104aa578063f242432a146104e757610129565b806351a8de601461031c57806352ea8a361461034557806370e979fb1461036e57806378df8fb71461038a5780637d5555df146103b357610129565b80632eb2c2d6116100f25780632eb2c2d6146102395780633c1213fb146102625780633e49d9251461028b57806343779197146102b65780634e1273f4146102df57610129565b8062fdd58e1461012e57806301ffc9a71461016b5780630e89341c146101a85780630f73da86146101e557806320c6940b14610210575b600080fd5b34801561013a57600080fd5b506101556004803603810190610150919061308b565b610510565b60405161016291906130da565b60405180910390f35b34801561017757600080fd5b50610192600480360381019061018d919061314d565b6105d9565b60405161019f9190613195565b60405180910390f35b3480156101b457600080fd5b506101cf60048036038101906101ca91906131b0565b6106bb565b6040516101dc9190613276565b60405180910390f35b3480156101f157600080fd5b506101fa61074f565b60405161020791906130da565b60405180910390f35b34801561021c57600080fd5b50610237600480360381019061023291906133cd565b610755565b005b34801561024557600080fd5b50610260600480360381019061025b9190613592565b610907565b005b34801561026e57600080fd5b50610289600480360381019061028491906133cd565b6109a8565b005b34801561029757600080fd5b506102a0610b5a565b6040516102ad91906130da565b60405180910390f35b3480156102c257600080fd5b506102dd60048036038101906102d891906131b0565b610b60565b005b3480156102eb57600080fd5b5061030660048036038101906103019190613724565b610c3a565b604051610313919061385a565b60405180910390f35b34801561032857600080fd5b50610343600480360381019061033e91906133cd565b610d53565b005b34801561035157600080fd5b5061036c600480360381019061036791906133cd565b610f4a565b005b6103886004803603810190610383919061387c565b6110fc565b005b34801561039657600080fd5b506103b160048036038101906103ac91906133cd565b6111b1565b005b3480156103bf57600080fd5b506103da60048036038101906103d591906139b1565b611363565b6040516103e79190613195565b60405180910390f35b3480156103fc57600080fd5b506104056113fe565b60405161041291906139ed565b60405180910390f35b34801561042757600080fd5b50610442600480360381019061043d91906139b1565b611424565b60405161044f9190613276565b60405180910390f35b34801561046457600080fd5b5061047f600480360381019061047a91906131b0565b61155e565b005b34801561048d57600080fd5b506104a860048036038101906104a39190613a34565b61169e565b005b3480156104b657600080fd5b506104d160048036038101906104cc9190613a74565b6116b4565b6040516104de9190613195565b60405180910390f35b3480156104f357600080fd5b5061050e60048036038101906105099190613ab4565b611748565b005b60008073ffffffffffffffffffffffffffffffffffffffff168373ffffffffffffffffffffffffffffffffffffffff161415610581576040517f08c379a000000000000000000000000000000000000000000000000000000000815260040161057890613bbd565b60405180910390fd5b60008083815260200190815260200160002060008473ffffffffffffffffffffffffffffffffffffffff1673ffffffffffffffffffffffffffffffffffffffff16815260200190815260200160002054905092915050565b60007fd9b67a26000000000000000000000000000000000000000000000000000000007bffffffffffffffffffffffffffffffffffffffffffffffffffffffff1916827bffffffffffffffffffffffffffffffffffffffffffffffffffffffff191614806106a457507f0e89341c000000000000000000000000000000000000000000000000000000007bffffffffffffffffffffffffffffffffffffffffffffffffffffffff1916827bffffffffffffffffffffffffffffffffffffffffffffffffffffffff1916145b806106b457506106b3826117e9565b5b9050919050565b6060600280546106ca90613c0c565b80601f01602080910402602001604051908101604052809291908181526020018280546106f690613c0c565b80156107435780601f1061071857610100808354040283529160200191610743565b820191906000526020600020905b81548152906001019060200180831161072657829003601f168201915b50505050509050919050565b60065481565b816000600460008373ffffffffffffffffffffffffffffffffffffffff1673ffffffffffffffffffffffffffffffffffffffff16815260200190815260200160002060000160009054906101000a900473ffffffffffffffffffffffffffffffffffffffff16905060006107c7611853565b90508173ffffffffffffffffffffffffffffffffffffffff168173ffffffffffffffffffffffffffffffffffffffff1614806108095750610808828261185b565b5b610848576040517f08c379a000000000000000000000000000000000000000000000000000000000815260040161083f90613cb0565b60405180910390fd5b83600460008773ffffffffffffffffffffffffffffffffffffffff1673ffffffffffffffffffffffffffffffffffffffff168152602001908152602001600020600501908051906020019061089e929190612f40565b508473ffffffffffffffffffffffffffffffffffffffff166108be611853565b73ffffffffffffffffffffffffffffffffffffffff167f7fd1c43abb0471595dcd4d461fdb320d926cbf2b8ba6fa87a78f1b1b0bf3e59260405160405180910390a35050505050565b61090f611853565b73ffffffffffffffffffffffffffffffffffffffff168573ffffffffffffffffffffffffffffffffffffffff16148061095557506109548561094f611853565b6116b4565b5b610994576040517f08c379a000000000000000000000000000000000000000000000000000000000815260040161098b90613d42565b60405180910390fd5b6109a1858585858561186f565b5050505050565b816000600460008373ffffffffffffffffffffffffffffffffffffffff1673ffffffffffffffffffffffffffffffffffffffff16815260200190815260200160002060000160009054906101000a900473ffffffffffffffffffffffffffffffffffffffff1690506000610a1a611853565b90508173ffffffffffffffffffffffffffffffffffffffff168173ffffffffffffffffffffffffffffffffffffffff161480610a5c5750610a5b828261185b565b5b610a9b576040517f08c379a0000000000000000000000000000000000000000000000000000000008152600401610a9290613cb0565b60405180910390fd5b83600460008773ffffffffffffffffffffffffffffffffffffffff1673ffffffffffffffffffffffffffffffffffffffff1681526020019081526020016000206007019080519060200190610af1929190612f40565b508473ffffffffffffffffffffffffffffffffffffffff16610b11611853565b73ffffffffffffffffffffffffffffffffffffffff167f7fd1c43abb0471595dcd4d461fdb320d926cbf2b8ba6fa87a78f1b1b0bf3e59260405160405180910390a35050505050565b60035481565b610b70610b6b611853565b611926565b610baf576040517f08c379a0000000000000000000000000000000000000000000000000000000008152600401610ba690613dd4565b60405180910390fd5b662386f26fc10000811015610bf9576040517f08c379a0000000000000000000000000000000000000000000000000000000008152600401610bf090613e8c565b60405180910390fd5b806003819055507fc652b105063222eb8399f76ca13b5913144c1d8af3a94bc240248ecbc36ac80b81604051610c2f91906130da565b60405180910390a150565b60608151835114610c80576040517f08c379a0000000000000000000000000000000000000000000000000000000008152600401610c7790613f1e565b60405180910390fd5b6000835167ffffffffffffffff811115610c9d57610c9c6132a2565b5b604051908082528060200260200182016040528015610ccb5781602001602082028036833780820191505090505b50905060005b8451811015610d4857610d18858281518110610cf057610cef613f3e565b5b6020026020010151858381518110610d0b57610d0a613f3e565b5b6020026020010151610510565b828281518110610d2b57610d2a613f3e565b5b60200260200101818152505080610d4190613f9c565b9050610cd1565b508091505092915050565b816000600460008373ffffffffffffffffffffffffffffffffffffffff1673ffffffffffffffffffffffffffffffffffffffff16815260200190815260200160002060000160009054906101000a900473ffffffffffffffffffffffffffffffffffffffff1690506000610dc5611853565b90508173ffffffffffffffffffffffffffffffffffffffff168173ffffffffffffffffffffffffffffffffffffffff161480610e075750610e06828261185b565b5b610e46576040517f08c379a0000000000000000000000000000000000000000000000000000000008152600401610e3d90613cb0565b60405180910390fd5b600084511415610e8b576040517f08c379a0000000000000000000000000000000000000000000000000000000008152600401610e8290614057565b60405180910390fd5b83600460008773ffffffffffffffffffffffffffffffffffffffff1673ffffffffffffffffffffffffffffffffffffffff1681526020019081526020016000206004019080519060200190610ee1929190612f40565b508473ffffffffffffffffffffffffffffffffffffffff16610f01611853565b73ffffffffffffffffffffffffffffffffffffffff167f7fd1c43abb0471595dcd4d461fdb320d926cbf2b8ba6fa87a78f1b1b0bf3e59260405160405180910390a35050505050565b816000600460008373ffffffffffffffffffffffffffffffffffffffff1673ffffffffffffffffffffffffffffffffffffffff16815260200190815260200160002060000160009054906101000a900473ffffffffffffffffffffffffffffffffffffffff1690506000610fbc611853565b90508173ffffffffffffffffffffffffffffffffffffffff168173ffffffffffffffffffffffffffffffffffffffff161480610ffe5750610ffd828261185b565b5b61103d576040517f08c379a000000000000000000000000000000000000000000000000000000000815260040161103490613cb0565b60405180910390fd5b83600460008773ffffffffffffffffffffffffffffffffffffffff1673ffffffffffffffffffffffffffffffffffffffff1681526020019081526020016000206006019080519060200190611093929190612f40565b508473ffffffffffffffffffffffffffffffffffffffff166110b3611853565b73ffffffffffffffffffffffffffffffffffffffff167f7fd1c43abb0471595dcd4d461fdb320d926cbf2b8ba6fa87a78f1b1b0bf3e59260405160405180910390a35050505050565b60405180606001604052806021815260200161535a6021913960035460003490508181148361112a84611980565b61113384611980565b60405160200161114593929190614197565b60405160208183030381529060405290611195576040517f08c379a000000000000000000000000000000000000000000000000000000000815260040161118c9190613276565b60405180910390fd5b506111a68989898989896000611ae1565b505050505050505050565b816000600460008373ffffffffffffffffffffffffffffffffffffffff1673ffffffffffffffffffffffffffffffffffffffff16815260200190815260200160002060000160009054906101000a900473ffffffffffffffffffffffffffffffffffffffff1690506000611223611853565b90508173ffffffffffffffffffffffffffffffffffffffff168173ffffffffffffffffffffffffffffffffffffffff1614806112655750611264828261185b565b5b6112a4576040517f08c379a000000000000000000000000000000000000000000000000000000000815260040161129b90613cb0565b60405180910390fd5b83600460008773ffffffffffffffffffffffffffffffffffffffff1673ffffffffffffffffffffffffffffffffffffffff16815260200190815260200160002060030190805190602001906112fa929190612f40565b508473ffffffffffffffffffffffffffffffffffffffff1661131a611853565b73ffffffffffffffffffffffffffffffffffffffff167f7fd1c43abb0471595dcd4d461fdb320d926cbf2b8ba6fa87a78f1b1b0bf3e59260405160405180910390a35050505050565b60008073ffffffffffffffffffffffffffffffffffffffff16600460008473ffffffffffffffffffffffffffffffffffffffff1673ffffffffffffffffffffffffffffffffffffffff16815260200190815260200160002060000160009054906101000a900473ffffffffffffffffffffffffffffffffffffffff1673ffffffffffffffffffffffffffffffffffffffff1614159050919050565b600760009054906101000a900473ffffffffffffffffffffffffffffffffffffffff1681565b60606000600460008473ffffffffffffffffffffffffffffffffffffffff1673ffffffffffffffffffffffffffffffffffffffff1681526020019081526020016000209050600073ffffffffffffffffffffffffffffffffffffffff168160000160009054906101000a900473ffffffffffffffffffffffffffffffffffffffff1673ffffffffffffffffffffffffffffffffffffffff1614156114da5760405180602001604052806000815250915050611559565b611536816001018260020183600401846003018560050186600601876007018860080160009054906101000a900460ff16604051602001611522989796959493929190614571565b604051602081830303815290604052611eb2565b6040516020016115469190614696565b6040516020818303038152906040529150505b919050565b6000611568611853565b905061157381612016565b6115b2576040517f08c379a00000000000000000000000000000000000000000000000000000000081526004016115a99061472a565b60405180910390fd5b600082116115f5576040517f08c379a00000000000000000000000000000000000000000000000000000000081526004016115ec906147bc565b60405180910390fd5b81600654101561163a576040517f08c379a00000000000000000000000000000000000000000000000000000000081526004016116319061484e565b60405180910390fd5b816006600082825461164c919061486e565b925050819055508073ffffffffffffffffffffffffffffffffffffffff166108fc839081150290604051600060405180830381858888f19350505050158015611699573d6000803e3d6000fd5b505050565b6116b06116a9611853565b8383612070565b5050565b6000600160008473ffffffffffffffffffffffffffffffffffffffff1673ffffffffffffffffffffffffffffffffffffffff16815260200190815260200160002060008373ffffffffffffffffffffffffffffffffffffffff1673ffffffffffffffffffffffffffffffffffffffff16815260200190815260200160002060009054906101000a900460ff16905092915050565b611750611853565b73ffffffffffffffffffffffffffffffffffffffff168573ffffffffffffffffffffffffffffffffffffffff161480611796575061179585611790611853565b6116b4565b5b6117d5576040517f08c379a00000000000000000000000000000000000000000000000000000000081526004016117cc90613d42565b60405180910390fd5b6117e285858585856121dd565b5050505050565b60007f01ffc9a7000000000000000000000000000000000000000000000000000000007bffffffffffffffffffffffffffffffffffffffffffffffffffffffff1916827bffffffffffffffffffffffffffffffffffffffffffffffffffffffff1916149050919050565b600033905090565b600061186783836116b4565b905092915050565b61187c8585858585612219565b60005b825181101561191e57740100000000000000000000000000000000000000008482815181106118b1576118b0613f3e565b5b60200260200101511080156118e1575060008382815181106118d6576118d5613f3e565b5b602002602001015114155b1561190b5761190a8482815181106118fc576118fb613f3e565b5b60200260200101518661253b565b5b808061191690613f9c565b91505061187f565b505050505050565b60008173ffffffffffffffffffffffffffffffffffffffff16600760009054906101000a900473ffffffffffffffffffffffffffffffffffffffff1673ffffffffffffffffffffffffffffffffffffffff16149050919050565b606060008214156119c8576040518060400160405280600181526020017f30000000000000000000000000000000000000000000000000000000000000008152509050611adc565b600082905060005b600082146119fa5780806119e390613f9c565b915050600a826119f391906148d1565b91506119d0565b60008167ffffffffffffffff811115611a1657611a156132a2565b5b6040519080825280601f01601f191660200182016040528015611a485781602001600182028036833780820191505090505b5090505b60008514611ad557600182611a61919061486e565b9150600a85611a709190614902565b6030611a7c9190614933565b60f81b818381518110611a9257611a91613f3e565b5b60200101907effffffffffffffffffffffffffffffffffffffffffffffffffffffffffffff1916908160001a905350600a85611ace91906148d1565b9450611a4c565b8093505050505b919050565b6000611aeb611853565b9050600088511415611b32576040517f08c379a0000000000000000000000000000000000000000000000000000000008152600401611b29906149fb565b60405180910390fd5b600087511415611b77576040517f08c379a0000000000000000000000000000000000000000000000000000000008152600401611b6e90614a8d565b60405180910390fd5b600086511415611bbc576040517f08c379a0000000000000000000000000000000000000000000000000000000008152600401611bb390614057565b60405180910390fd5b3460066000828254611bce9190614933565b92505081905550600160056000828254611be89190614933565b92505081905550600060d660f81b609460f81b308460055460001b604051602001611c17959493929190614b6d565b6040516020818303038152906040528051906020012060001c90506040518061012001604052808373ffffffffffffffffffffffffffffffffffffffff1681526020018a81526020018981526020016040518060400160405280600b81526020017f61626f75743a626c616e6b0000000000000000000000000000000000000000008152508152602001888152602001878152602001868152602001858152602001841515815250600460008373ffffffffffffffffffffffffffffffffffffffff1673ffffffffffffffffffffffffffffffffffffffff16815260200190815260200160002060008201518160000160006101000a81548173ffffffffffffffffffffffffffffffffffffffff021916908373ffffffffffffffffffffffffffffffffffffffff1602179055506020820151816001019080519060200190611d61929190612f40565b506040820151816002019080519060200190611d7e929190612f40565b506060820151816003019080519060200190611d9b929190612f40565b506080820151816004019080519060200190611db8929190612f40565b5060a0820151816005019080519060200190611dd5929190612f40565b5060c0820151816006019080519060200190611df2929190612f40565b5060e0820151816007019080519060200190611e0f929190612f40565b506101008201518160080160006101000a81548160ff021916908315150217905550905050611e3e8183612657565b8073ffffffffffffffffffffffffffffffffffffffff168273ffffffffffffffffffffffffffffffffffffffff167fbaa80c9cbed3f9a5fcdc4e9dd7785f9cfc968a81b80b94363bea0e92c938c0d98b8b34604051611e9f93929190614bcc565b60405180910390a3505050505050505050565b6060600082511415611ed557604051806020016040528060008152509050612011565b600060405180606001604052806040815260200161531a6040913990506000600360028551611f049190614933565b611f0e91906148d1565b6004611f1a9190614c11565b67ffffffffffffffff811115611f3357611f326132a2565b5b6040519080825280601f01601f191660200182016040528015611f655781602001600182028036833780820191505090505b509050600182016020820185865187015b80821015611fd1576003820191508151603f8160121c168501518453600184019350603f81600c1c168501518453600184019350603f8160061c168501518453600184019350603f8116850151845360018401935050611f76565b5050600386510660018114611fed576002811461200057612008565b603d6001830353603d6002830353612008565b603d60018303535b50505080925050505b919050565b60008173ffffffffffffffffffffffffffffffffffffffff16600760009054906101000a900473ffffffffffffffffffffffffffffffffffffffff1673ffffffffffffffffffffffffffffffffffffffff16149050919050565b8173ffffffffffffffffffffffffffffffffffffffff168373ffffffffffffffffffffffffffffffffffffffff1614156120df576040517f08c379a00000000000000000000000000000000000000000000000000000000081526004016120d690614cdd565b60405180910390fd5b80600160008573ffffffffffffffffffffffffffffffffffffffff1673ffffffffffffffffffffffffffffffffffffffff16815260200190815260200160002060008473ffffffffffffffffffffffffffffffffffffffff1673ffffffffffffffffffffffffffffffffffffffff16815260200190815260200160002060006101000a81548160ff0219169083151502179055508173ffffffffffffffffffffffffffffffffffffffff168373ffffffffffffffffffffffffffffffffffffffff167f17307eab39ab6107e8899845ad3d59bd9653f200f220920489ca2b5937696c31836040516121d09190613195565b60405180910390a3505050565b6121ea8585858585612696565b7401000000000000000000000000000000000000000083101561221257612211838561253b565b5b5050505050565b815183511461225d576040517f08c379a000000000000000000000000000000000000000000000000000000000815260040161225490614d6f565b60405180910390fd5b600073ffffffffffffffffffffffffffffffffffffffff168473ffffffffffffffffffffffffffffffffffffffff1614156122cd576040517f08c379a00000000000000000000000000000000000000000000000000000000081526004016122c490614e01565b60405180910390fd5b60006122d7611853565b90506122e7818787878787612932565b60005b845181101561249857600085828151811061230857612307613f3e565b5b60200260200101519050600085838151811061232757612326613f3e565b5b60200260200101519050600080600084815260200190815260200160002060008b73ffffffffffffffffffffffffffffffffffffffff1673ffffffffffffffffffffffffffffffffffffffff168152602001908152602001600020549050818110156123c8576040517f08c379a00000000000000000000000000000000000000000000000000000000081526004016123bf90614e93565b60405180910390fd5b81810360008085815260200190815260200160002060008c73ffffffffffffffffffffffffffffffffffffffff1673ffffffffffffffffffffffffffffffffffffffff168152602001908152602001600020819055508160008085815260200190815260200160002060008b73ffffffffffffffffffffffffffffffffffffffff1673ffffffffffffffffffffffffffffffffffffffff168152602001908152602001600020600082825461247d9190614933565b925050819055505050508061249190613f9c565b90506122ea565b508473ffffffffffffffffffffffffffffffffffffffff168673ffffffffffffffffffffffffffffffffffffffff168273ffffffffffffffffffffffffffffffffffffffff167f4a39dc06d4c0dbc64b70af90fd698a233a518aa5d07e595d983b8c0526c8f7fb878760405161250f929190614eb3565b60405180910390a461252581878787878761293a565b612533818787878787612942565b505050505050565b600073ffffffffffffffffffffffffffffffffffffffff16600460008473ffffffffffffffffffffffffffffffffffffffff1673ffffffffffffffffffffffffffffffffffffffff16815260200190815260200160002060000160009054906101000a900473ffffffffffffffffffffffffffffffffffffffff1673ffffffffffffffffffffffffffffffffffffffff16146126535780600460008473ffffffffffffffffffffffffffffffffffffffff1673ffffffffffffffffffffffffffffffffffffffff16815260200190815260200160002060000160006101000a81548173ffffffffffffffffffffffffffffffffffffffff021916908373ffffffffffffffffffffffffffffffffffffffff1602179055505b5050565b612692818373ffffffffffffffffffffffffffffffffffffffff1660016040518060600160405280603281526020016152e860329139612b1a565b5050565b600073ffffffffffffffffffffffffffffffffffffffff168473ffffffffffffffffffffffffffffffffffffffff161415612706576040517f08c379a00000000000000000000000000000000000000000000000000000000081526004016126fd90614e01565b60405180910390fd5b6000612710611853565b9050600061271d85612ccb565b9050600061272a85612ccb565b905061273a838989858589612932565b600080600088815260200190815260200160002060008a73ffffffffffffffffffffffffffffffffffffffff1673ffffffffffffffffffffffffffffffffffffffff168152602001908152602001600020549050858110156127d1576040517f08c379a00000000000000000000000000000000000000000000000000000000081526004016127c890614e93565b60405180910390fd5b85810360008089815260200190815260200160002060008b73ffffffffffffffffffffffffffffffffffffffff1673ffffffffffffffffffffffffffffffffffffffff168152602001908152602001600020819055508560008089815260200190815260200160002060008a73ffffffffffffffffffffffffffffffffffffffff1673ffffffffffffffffffffffffffffffffffffffff16815260200190815260200160002060008282546128869190614933565b925050819055508773ffffffffffffffffffffffffffffffffffffffff168973ffffffffffffffffffffffffffffffffffffffff168573ffffffffffffffffffffffffffffffffffffffff167fc3d58168c5ae7397731d063d5bbf3d657854427343f4c083240f7aacaa2d0f628a8a604051612903929190614eea565b60405180910390a4612919848a8a86868a61293a565b612927848a8a8a8a8a612d45565b505050505050505050565b505050505050565b505050505050565b6129618473ffffffffffffffffffffffffffffffffffffffff16612f1d565b15612b12578373ffffffffffffffffffffffffffffffffffffffff1663bc197c8187878686866040518663ffffffff1660e01b81526004016129a7959493929190614f68565b6020604051808303816000875af19250505080156129e357506040513d601f19601f820116820180604052508101906129e09190614fe5565b60015b612a89576129ef61501f565b806308c379a01415612a4c5750612a04615041565b80612a0f5750612a4e565b806040517f08c379a0000000000000000000000000000000000000000000000000000000008152600401612a439190613276565b60405180910390fd5b505b6040517f08c379a0000000000000000000000000000000000000000000000000000000008152600401612a8090615149565b60405180910390fd5b63bc197c8160e01b7bffffffffffffffffffffffffffffffffffffffffffffffffffffffff1916817bffffffffffffffffffffffffffffffffffffffffffffffffffffffff191614612b10576040517f08c379a0000000000000000000000000000000000000000000000000000000008152600401612b07906151db565b60405180910390fd5b505b505050505050565b600073ffffffffffffffffffffffffffffffffffffffff168473ffffffffffffffffffffffffffffffffffffffff161415612b8a576040517f08c379a0000000000000000000000000000000000000000000000000000000008152600401612b819061526d565b60405180910390fd5b6000612b94611853565b90506000612ba185612ccb565b90506000612bae85612ccb565b9050612bbf83600089858589612932565b8460008088815260200190815260200160002060008973ffffffffffffffffffffffffffffffffffffffff1673ffffffffffffffffffffffffffffffffffffffff1681526020019081526020016000206000828254612c1e9190614933565b925050819055508673ffffffffffffffffffffffffffffffffffffffff16600073ffffffffffffffffffffffffffffffffffffffff168473ffffffffffffffffffffffffffffffffffffffff167fc3d58168c5ae7397731d063d5bbf3d657854427343f4c083240f7aacaa2d0f628989604051612c9c929190614eea565b60405180910390a4612cb38360008985858961293a565b612cc283600089898989612d45565b50505050505050565b60606000600167ffffffffffffffff811115612cea57612ce96132a2565b5b604051908082528060200260200182016040528015612d185781602001602082028036833780820191505090505b5090508281600081518110612d3057612d2f613f3e565b5b60200260200101818152505080915050919050565b612d648473ffffffffffffffffffffffffffffffffffffffff16612f1d565b15612f15578373ffffffffffffffffffffffffffffffffffffffff1663f23a6e6187878686866040518663ffffffff1660e01b8152600401612daa95949392919061528d565b6020604051808303816000875af1925050508015612de657506040513d601f19601f82011682018060405250810190612de39190614fe5565b60015b612e8c57612df261501f565b806308c379a01415612e4f5750612e07615041565b80612e125750612e51565b806040517f08c379a0000000000000000000000000000000000000000000000000000000008152600401612e469190613276565b60405180910390fd5b505b6040517f08c379a0000000000000000000000000000000000000000000000000000000008152600401612e8390615149565b60405180910390fd5b63f23a6e6160e01b7bffffffffffffffffffffffffffffffffffffffffffffffffffffffff1916817bffffffffffffffffffffffffffffffffffffffffffffffffffffffff191614612f13576040517f08c379a0000000000000000000000000000000000000000000000000000000008152600401612f0a906151db565b60405180910390fd5b505b505050505050565b6000808273ffffffffffffffffffffffffffffffffffffffff163b119050919050565b828054612f4c90613c0c565b90600052602060002090601f016020900481019282612f6e5760008555612fb5565b82601f10612f8757805160ff1916838001178555612fb5565b82800160010185558215612fb5579182015b82811115612fb4578251825591602001919060010190612f99565b5b509050612fc29190612fc6565b5090565b5b80821115612fdf576000816000905550600101612fc7565b5090565b6000604051905090565b600080fd5b600080fd5b600073ffffffffffffffffffffffffffffffffffffffff82169050919050565b600061302282612ff7565b9050919050565b61303281613017565b811461303d57600080fd5b50565b60008135905061304f81613029565b92915050565b6000819050919050565b61306881613055565b811461307357600080fd5b50565b6000813590506130858161305f565b92915050565b600080604083850312156130a2576130a1612fed565b5b60006130b085828601613040565b92505060206130c185828601613076565b9150509250929050565b6130d481613055565b82525050565b60006020820190506130ef60008301846130cb565b92915050565b60007fffffffff0000000000000000000000000000000000000000000000000000000082169050919050565b61312a816130f5565b811461313557600080fd5b50565b60008135905061314781613121565b92915050565b60006020828403121561316357613162612fed565b5b600061317184828501613138565b91505092915050565b60008115159050919050565b61318f8161317a565b82525050565b60006020820190506131aa6000830184613186565b92915050565b6000602082840312156131c6576131c5612fed565b5b60006131d484828501613076565b91505092915050565b600081519050919050565b600082825260208201905092915050565b60005b838110156132175780820151818401526020810190506131fc565b83811115613226576000848401525b50505050565b6000601f19601f8301169050919050565b6000613248826131dd565b61325281856131e8565b93506132628185602086016131f9565b61326b8161322c565b840191505092915050565b60006020820190508181036000830152613290818461323d565b905092915050565b600080fd5b600080fd5b7f4e487b7100000000000000000000000000000000000000000000000000000000600052604160045260246000fd5b6132da8261322c565b810181811067ffffffffffffffff821117156132f9576132f86132a2565b5b80604052505050565b600061330c612fe3565b905061331882826132d1565b919050565b600067ffffffffffffffff821115613338576133376132a2565b5b6133418261322c565b9050602081019050919050565b82818337600083830152505050565b600061337061336b8461331d565b613302565b90508281526020810184848401111561338c5761338b61329d565b5b61339784828561334e565b509392505050565b600082601f8301126133b4576133b3613298565b5b81356133c484826020860161335d565b91505092915050565b600080604083850312156133e4576133e3612fed565b5b60006133f285828601613040565b925050602083013567ffffffffffffffff81111561341357613412612ff2565b5b61341f8582860161339f565b9150509250929050565b600067ffffffffffffffff821115613444576134436132a2565b5b602082029050602081019050919050565b600080fd5b600061346d61346884613429565b613302565b905080838252602082019050602084028301858111156134905761348f613455565b5b835b818110156134b957806134a58882613076565b845260208401935050602081019050613492565b5050509392505050565b600082601f8301126134d8576134d7613298565b5b81356134e884826020860161345a565b91505092915050565b600067ffffffffffffffff82111561350c5761350b6132a2565b5b6135158261322c565b9050602081019050919050565b6000613535613530846134f1565b613302565b9050828152602081018484840111156135515761355061329d565b5b61355c84828561334e565b509392505050565b600082601f83011261357957613578613298565b5b8135613589848260208601613522565b91505092915050565b600080600080600060a086880312156135ae576135ad612fed565b5b60006135bc88828901613040565b95505060206135cd88828901613040565b945050604086013567ffffffffffffffff8111156135ee576135ed612ff2565b5b6135fa888289016134c3565b935050606086013567ffffffffffffffff81111561361b5761361a612ff2565b5b613627888289016134c3565b925050608086013567ffffffffffffffff81111561364857613647612ff2565b5b61365488828901613564565b9150509295509295909350565b600067ffffffffffffffff82111561367c5761367b6132a2565b5b602082029050602081019050919050565b60006136a061369b84613661565b613302565b905080838252602082019050602084028301858111156136c3576136c2613455565b5b835b818110156136ec57806136d88882613040565b8452602084019350506020810190506136c5565b5050509392505050565b600082601f83011261370b5761370a613298565b5b813561371b84826020860161368d565b91505092915050565b6000806040838503121561373b5761373a612fed565b5b600083013567ffffffffffffffff81111561375957613758612ff2565b5b613765858286016136f6565b925050602083013567ffffffffffffffff81111561378657613785612ff2565b5b613792858286016134c3565b9150509250929050565b600081519050919050565b600082825260208201905092915050565b6000819050602082019050919050565b6137d181613055565b82525050565b60006137e383836137c8565b60208301905092915050565b6000602082019050919050565b60006138078261379c565b61381181856137a7565b935061381c836137b8565b8060005b8381101561384d57815161383488826137d7565b975061383f836137ef565b925050600181019050613820565b5085935050505092915050565b6000602082019050818103600083015261387481846137fc565b905092915050565b60008060008060008060c0878903121561389957613898612fed565b5b600087013567ffffffffffffffff8111156138b7576138b6612ff2565b5b6138c389828a0161339f565b965050602087013567ffffffffffffffff8111156138e4576138e3612ff2565b5b6138f089828a0161339f565b955050604087013567ffffffffffffffff81111561391157613910612ff2565b5b61391d89828a0161339f565b945050606087013567ffffffffffffffff81111561393e5761393d612ff2565b5b61394a89828a0161339f565b935050608087013567ffffffffffffffff81111561396b5761396a612ff2565b5b61397789828a0161339f565b92505060a087013567ffffffffffffffff81111561399857613997612ff2565b5b6139a489828a0161339f565b9150509295509295509295565b6000602082840312156139c7576139c6612fed565b5b60006139d584828501613040565b91505092915050565b6139e781613017565b82525050565b6000602082019050613a0260008301846139de565b92915050565b613a118161317a565b8114613a1c57600080fd5b50565b600081359050613a2e81613a08565b92915050565b60008060408385031215613a4b57613a4a612fed565b5b6000613a5985828601613040565b9250506020613a6a85828601613a1f565b9150509250929050565b60008060408385031215613a8b57613a8a612fed565b5b6000613a9985828601613040565b9250506020613aaa85828601613040565b9150509250929050565b600080600080600060a08688031215613ad057613acf612fed565b5b6000613ade88828901613040565b9550506020613aef88828901613040565b9450506040613b0088828901613076565b9350506060613b1188828901613076565b925050608086013567ffffffffffffffff811115613b3257613b31612ff2565b5b613b3e88828901613564565b9150509295509295909350565b7f455243313135353a2061646472657373207a65726f206973206e6f742061207660008201527f616c6964206f776e657200000000000000000000000000000000000000000000602082015250565b6000613ba7602a836131e8565b9150613bb282613b4b565b604082019050919050565b60006020820190508181036000830152613bd681613b9a565b9050919050565b7f4e487b7100000000000000000000000000000000000000000000000000000000600052602260045260246000fd5b60006002820490506001821680613c2457607f821691505b60208210811415613c3857613c37613bdd565b5b50919050565b7f4272616e6452656769737472793a2063616c6c6572206973206e6f742062726160008201527f6e64206f776e6572206e6f7220617070726f7665640000000000000000000000602082015250565b6000613c9a6035836131e8565b9150613ca582613c3e565b604082019050919050565b60006020820190508181036000830152613cc981613c8d565b9050919050565b7f455243313135353a2063616c6c6572206973206e6f7420746f6b656e206f776e60008201527f6572206e6f7220617070726f7665640000000000000000000000000000000000602082015250565b6000613d2c602f836131e8565b9150613d3782613cd0565b604082019050919050565b60006020820190508181036000830152613d5b81613d1f565b9050919050565b7f4272616e6452656769737472793a206e6f7420616c6c6f77656420746f20736560008201527f7420746865206272616e6420726567697374726174696f6e20636f7374000000602082015250565b6000613dbe603d836131e8565b9150613dc982613d62565b604082019050919050565b60006020820190508181036000830152613ded81613db1565b9050919050565b7f4272616e6452656769737472793a20746865206272616e64207265676973747260008201527f7920636f7374206d757374206e6f74206265206c657373207468616e20302e3060208201527f31206e617469766520746f6b656e730000000000000000000000000000000000604082015250565b6000613e76604f836131e8565b9150613e8182613df4565b606082019050919050565b60006020820190508181036000830152613ea581613e69565b9050919050565b7f455243313135353a206163636f756e747320616e6420696473206c656e67746860008201527f206d69736d617463680000000000000000000000000000000000000000000000602082015250565b6000613f086029836131e8565b9150613f1382613eac565b604082019050919050565b60006020820190508181036000830152613f3781613efb565b9050919050565b7f4e487b7100000000000000000000000000000000000000000000000000000000600052603260045260246000fd5b7f4e487b7100000000000000000000000000000000000000000000000000000000600052601160045260246000fd5b6000613fa782613055565b91507fffffffffffffffffffffffffffffffffffffffffffffffffffffffffffffffff821415613fda57613fd9613f6d565b5b600182019050919050565b7f4272616e6452656769737472793a207573652061206e6f6e2d656d707479206960008201527f6d6167652075726c000000000000000000000000000000000000000000000000602082015250565b60006140416028836131e8565b915061404c82613fe5565b604082019050919050565b6000602082019050818103600083015261407081614034565b9050919050565b600081905092915050565b600061408d826131dd565b6140978185614077565b93506140a78185602086016131f9565b80840191505092915050565b7f20726571756972657320616e206578616374207061796d656e74206f66200000600082015250565b60006140e9601e83614077565b91506140f4826140b3565b601e82019050919050565b7f2062757420000000000000000000000000000000000000000000000000000000600082015250565b6000614135600583614077565b9150614140826140ff565b600582019050919050565b7f2077617320676976656e00000000000000000000000000000000000000000000600082015250565b6000614181600a83614077565b915061418c8261414b565b600a82019050919050565b60006141a38286614082565b91506141ae826140dc565b91506141ba8285614082565b91506141c582614128565b91506141d18284614082565b91506141dc82614174565b9150819050949350505050565b7f7b226e616d65223a220000000000000000000000000000000000000000000000600082015250565b600061421f600983614077565b915061422a826141e9565b600982019050919050565b60008190508160005260206000209050919050565b6000815461425781613c0c565b6142618186614077565b9450600182166000811461427c576001811461428d576142c0565b60ff198316865281860193506142c0565b61429685614235565b60005b838110156142b857815481890152600182019150602081019050614299565b838801955050505b50505092915050565b7f222c226465736372697074696f6e223a22000000000000000000000000000000600082015250565b60006142ff601183614077565b915061430a826142c9565b601182019050919050565b7f222c22696d616765223a22000000000000000000000000000000000000000000600082015250565b600061434b600b83614077565b915061435682614315565b600b82019050919050565b7f222c2270726f70657274696573223a7b226368616c6c656e676555726c223a22600082015250565b6000614397602083614077565b91506143a282614361565b602082019050919050565b7f222c2269636f6e3136783136223a220000000000000000000000000000000000600082015250565b60006143e3600f83614077565b91506143ee826143ad565b600f82019050919050565b7f222c2269636f6e3332783332223a220000000000000000000000000000000000600082015250565b600061442f600f83614077565b915061443a826143f9565b600f82019050919050565b7f222c2269636f6e3634783634223a220000000000000000000000000000000000600082015250565b600061447b600f83614077565b915061448682614445565b600f82019050919050565b7f222c22636f6d6d6974746564223a000000000000000000000000000000000000600082015250565b60006144c7600e83614077565b91506144d282614491565b600e82019050919050565b60008160f81b9050919050565b60006144f5826144dd565b9050919050565b6000614507826144ea565b9050919050565b61451f61451a8261317a565b6144fc565b82525050565b7f7d7d000000000000000000000000000000000000000000000000000000000000600082015250565b600061455b600283614077565b915061456682614525565b600282019050919050565b600061457c82614212565b9150614588828b61424a565b9150614593826142f2565b915061459f828a61424a565b91506145aa8261433e565b91506145b6828961424a565b91506145c18261438a565b91506145cd828861424a565b91506145d8826143d6565b91506145e4828761424a565b91506145ef82614422565b91506145fb828661424a565b91506146068261446e565b9150614612828561424a565b915061461d826144ba565b9150614629828461450e565b6001820191506146388261454e565b91508190509998505050505050505050565b7f646174613a6170706c69636174696f6e2f6a736f6e3b6261736536342c000000600082015250565b6000614680601d83614077565b915061468b8261464a565b601d82019050919050565b60006146a182614673565b91506146ad8284614082565b915081905092915050565b7f4272616e6452656769737472793a206561726e696e67732063616e6e6f74206260008201527f652077697468647261776e20627920746869732073656e646572000000000000602082015250565b6000614714603a836131e8565b915061471f826146b8565b604082019050919050565b6000602082019050818103600083015261474381614707565b9050919050565b7f4272616e6452656769737472793a206561726e696e677320616d6f756e74206d60008201527f757374206e6f7420626520300000000000000000000000000000000000000000602082015250565b60006147a6602c836131e8565b91506147b18261474a565b604082019050919050565b600060208201905081810360008301526147d581614799565b9050919050565b7f4272616e6452656769737472793a206561726e696e677320616d6f756e74206960008201527f73206c657373207468616e207468652072657175657374656420616d6f756e74602082015250565b60006148386040836131e8565b9150614843826147dc565b604082019050919050565b600060208201905081810360008301526148678161482b565b9050919050565b600061487982613055565b915061488483613055565b92508282101561489757614896613f6d565b5b828203905092915050565b7f4e487b7100000000000000000000000000000000000000000000000000000000600052601260045260246000fd5b60006148dc82613055565b91506148e783613055565b9250826148f7576148f66148a2565b5b828204905092915050565b600061490d82613055565b915061491883613055565b925082614928576149276148a2565b5b828206905092915050565b600061493e82613055565b915061494983613055565b9250827fffffffffffffffffffffffffffffffffffffffffffffffffffffffffffffffff0382111561497e5761497d613f6d565b5b828201905092915050565b7f4272616e6452656769737472793a207573652061206e6f6e2d656d707479206e60008201527f616d650000000000000000000000000000000000000000000000000000000000602082015250565b60006149e56023836131e8565b91506149f082614989565b604082019050919050565b60006020820190508181036000830152614a14816149d8565b9050919050565b7f4272616e6452656769737472793a207573652061206e6f6e2d656d707479206460008201527f65736372697074696f6e00000000000000000000000000000000000000000000602082015250565b6000614a77602a836131e8565b9150614a8282614a1b565b604082019050919050565b60006020820190508181036000830152614aa681614a6a565b9050919050565b60007fff0000000000000000000000000000000000000000000000000000000000000082169050919050565b6000819050919050565b614af4614aef82614aad565b614ad9565b82525050565b60008160601b9050919050565b6000614b1282614afa565b9050919050565b6000614b2482614b07565b9050919050565b614b3c614b3782613017565b614b19565b82525050565b6000819050919050565b6000819050919050565b614b67614b6282614b42565b614b4c565b82525050565b6000614b798288614ae3565b600182019150614b898287614ae3565b600182019150614b998286614b2b565b601482019150614ba98285614b2b565b601482019150614bb98284614b56565b6020820191508190509695505050505050565b60006060820190508181036000830152614be6818661323d565b90508181036020830152614bfa818561323d565b9050614c0960408301846130cb565b949350505050565b6000614c1c82613055565b9150614c2783613055565b9250817fffffffffffffffffffffffffffffffffffffffffffffffffffffffffffffffff0483118215151615614c6057614c5f613f6d565b5b828202905092915050565b7f455243313135353a2073657474696e6720617070726f76616c2073746174757360008201527f20666f722073656c660000000000000000000000000000000000000000000000602082015250565b6000614cc76029836131e8565b9150614cd282614c6b565b604082019050919050565b60006020820190508181036000830152614cf681614cba565b9050919050565b7f455243313135353a2069647320616e6420616d6f756e7473206c656e6774682060008201527f6d69736d61746368000000000000000000000000000000000000000000000000602082015250565b6000614d596028836131e8565b9150614d6482614cfd565b604082019050919050565b60006020820190508181036000830152614d8881614d4c565b9050919050565b7f455243313135353a207472616e7366657220746f20746865207a65726f20616460008201527f6472657373000000000000000000000000000000000000000000000000000000602082015250565b6000614deb6025836131e8565b9150614df682614d8f565b604082019050919050565b60006020820190508181036000830152614e1a81614dde565b9050919050565b7f455243313135353a20696e73756666696369656e742062616c616e636520666f60008201527f72207472616e7366657200000000000000000000000000000000000000000000602082015250565b6000614e7d602a836131e8565b9150614e8882614e21565b604082019050919050565b60006020820190508181036000830152614eac81614e70565b9050919050565b60006040820190508181036000830152614ecd81856137fc565b90508181036020830152614ee181846137fc565b90509392505050565b6000604082019050614eff60008301856130cb565b614f0c60208301846130cb565b9392505050565b600081519050919050565b600082825260208201905092915050565b6000614f3a82614f13565b614f448185614f1e565b9350614f548185602086016131f9565b614f5d8161322c565b840191505092915050565b600060a082019050614f7d60008301886139de565b614f8a60208301876139de565b8181036040830152614f9c81866137fc565b90508181036060830152614fb081856137fc565b90508181036080830152614fc48184614f2f565b90509695505050505050565b600081519050614fdf81613121565b92915050565b600060208284031215614ffb57614ffa612fed565b5b600061500984828501614fd0565b91505092915050565b60008160e01c9050919050565b600060033d111561503e5760046000803e61503b600051615012565b90505b90565b600060443d1015615051576150d4565b615059612fe3565b60043d036004823e80513d602482011167ffffffffffffffff821117156150815750506150d4565b808201805167ffffffffffffffff81111561509f57505050506150d4565b80602083010160043d0385018111156150bc5750505050506150d4565b6150cb826020018501866132d1565b82955050505050505b90565b7f455243313135353a207472616e7366657220746f206e6f6e204552433131353560008201527f526563656976657220696d706c656d656e746572000000000000000000000000602082015250565b60006151336034836131e8565b915061513e826150d7565b604082019050919050565b6000602082019050818103600083015261516281615126565b9050919050565b7f455243313135353a204552433131353552656365697665722072656a6563746560008201527f6420746f6b656e73000000000000000000000000000000000000000000000000602082015250565b60006151c56028836131e8565b91506151d082615169565b604082019050919050565b600060208201905081810360008301526151f4816151b8565b9050919050565b7f455243313135353a206d696e7420746f20746865207a65726f2061646472657360008201527f7300000000000000000000000000000000000000000000000000000000000000602082015250565b60006152576021836131e8565b9150615262826151fb565b604082019050919050565b600060208201905081810360008301526152868161524a565b9050919050565b600060a0820190506152a260008301886139de565b6152af60208301876139de565b6152bc60408301866130cb565b6152c960608301856130cb565b81810360808301526152db8184614f2f565b9050969550505050505056fe53616d706c6545524331313535576974684272616e6452656769737472793a2074657374205f6d696e744272616e64466f724142434445464748494a4b4c4d4e4f505152535455565758595a6162636465666768696a6b6c6d6e6f707172737475767778797a303132333435363738392b2f4272616e6452656769737472793a206272616e6420726567697374726174696f6ea2646970667358221220ae71e4d60a39496dd2af5341302c07ca868aa883dc7d2a064408c820d13b9aff64736f6c634300080a0033",
  "immutableReferences": {},
  "source": "// SPDX-License-Identifier: MIT\npragma solidity >=0.8 <0.9.0;\n\nimport \"@openzeppelin/contracts/token/ERC1155/ERC1155.sol\";\nimport \"../BrandRegistry.sol\";\nimport \"../../IdUtils.sol\";\n\ncontract SampleERC1155WithBrandRegistry is ERC1155, BrandRegistry {\n    address public owner;\n\n    constructor() ERC1155(\"about:blank\") {\n        owner = msg.sender;\n    }\n\n    function _canSetBrandRegistrationCost(address _sender) internal override view returns (bool) {\n        return owner == _sender;\n    }\n\n    function _mintBrandFor(address _brandId, address _owner) internal override {\n        _mint(_owner, uint256(uint160(_brandId)), 1, \"SampleERC1155WithBrandRegistry: test _mintBrandFor\");\n    }\n\n    function _isBrandOwnerApproved(address _brandOwner, address _sender) internal view override returns (bool) {\n        return isApprovedForAll(_brandOwner, _sender);\n    }\n\n    function _canWithdrawBrandRegistrationEarnings(address _sender) internal view override returns (bool) {\n        return owner == _sender;\n    }\n\n    function _safeTransferFrom(\n        address from,\n        address to,\n        uint256 id,\n        uint256 amount,\n        bytes memory data\n    ) internal override {\n        super._safeTransferFrom(from, to, id, amount, data);\n        if (id < (1 << 160)) {\n            _setBrandOwner(address(uint160(id)), to);\n        }\n    }\n\n    function _safeBatchTransferFrom(\n        address from,\n        address to,\n        uint256[] memory ids,\n        uint256[] memory amounts,\n        bytes memory data\n    ) internal override {\n        super._safeBatchTransferFrom(from, to, ids, amounts, data);\n        for(uint256 index = 0; index < amounts.length; index++) {\n            if (ids[index] < (1 << 160) && amounts[index] != 0) {\n                _setBrandOwner(address(uint160(ids[index])), to);\n            }\n        }\n    }\n}",
  "sourcePath": "/home/luismasuelli/Projects/OuterMaze/lingr-contracts/contracts/lingr/samples/SampleERC1155WithBrandRegistry.sol",
  "compiler": {
    "name": "solc",
    "version": "0.8.10+commit.fc410830.Emscripten.clang"
  },
  "schemaVersion": "3.4.3",
  "updatedAt": "2022-07-31T15:31:23.963Z",
  "devdoc": {
    "kind": "dev",
    "methods": {
      "balanceOf(address,uint256)": {
        "details": "See {IERC1155-balanceOf}. Requirements: - `account` cannot be the zero address."
      },
      "balanceOfBatch(address[],uint256[])": {
        "details": "See {IERC1155-balanceOfBatch}. Requirements: - `accounts` and `ids` must have the same length."
      },
      "isApprovedForAll(address,address)": {
        "details": "See {IERC1155-isApprovedForAll}."
      },
      "safeBatchTransferFrom(address,address,uint256[],uint256[],bytes)": {
        "details": "See {IERC1155-safeBatchTransferFrom}."
      },
      "safeTransferFrom(address,address,uint256,uint256,bytes)": {
        "details": "See {IERC1155-safeTransferFrom}."
      },
      "setApprovalForAll(address,bool)": {
        "details": "See {IERC1155-setApprovalForAll}."
      },
      "supportsInterface(bytes4)": {
        "details": "See {IERC165-supportsInterface}."
      },
      "uri(uint256)": {
        "details": "See {IERC1155MetadataURI-uri}. This implementation returns the same URI for *all* token types. It relies on the token type ID substitution mechanism https://eips.ethereum.org/EIPS/eip-1155#metadata[defined in the EIP]. Clients calling this function must replace the `\\{id\\}` substring with the actual token type ID."
      }
    },
    "version": 1
  },
  "userdoc": {
    "events": {
      "BrandEarningsWithdrawn(address,uint256)": {
        "notice": "This event is triggered when brand earnings were withdrawn successfully."
      },
      "BrandRegistered(address,address,string,string,uint256)": {
        "notice": "This event is triggered when a brand is registered. The new address is also included, along some reference data."
      },
      "BrandRegistrationCostUpdated(uint256)": {
        "notice": "An event for when the brand registration cost is updated."
      },
      "BrandUpdated(address,address)": {
        "notice": "This event is triggered when a brand is registered. The new address is also included, along some reference data."
      }
    },
    "kind": "user",
    "methods": {
      "brandExists(address)": {
        "notice": "Tells whether an address corresponds to a registered brand or not."
      },
      "brandMetadataURI(address)": {
        "notice": "Assembles the whole metadata for a brand. WARNING: This method will consume a lot of gas if invoked inside a transaction, so it is recommended to invoke this method in the context of a CALL, and never in the context of a SEND (even as part of other contract's code)."
      },
      "brandRegistrationCost()": {
        "notice": "The cost to register a new brand. This can be changed in the future and must be able to be known in the ABI for the users to be aware of the statistic."
      },
      "brandRegistrationCurrentEarnings()": {
        "notice": "Tells the current earnings, not yet withdrawn, from brand registrations."
      },
      "registerBrand(string,string,string,string,string,string)": {
        "notice": "Registers a new brand, when the appropriate price is paid for it. For more details on how this method works, check _registerBrand's inline documentation."
      },
      "setBrandRegistrationCost(uint256)": {
        "notice": "Sets the new brand registration cost."
      },
      "updateBrandChallengeUrl(address,string)": {
        "notice": "Updates the brand's challenge url. Only the owner of the brand or an approved account can invoke this method. Ensure the url is empty or a valid URL, or metadata might fail to be assembled into valid JSON."
      },
      "updateBrandIcon16x16Url(address,string)": {
        "notice": "Updates the brand's 16x16 icon url. Only the owner of the brand or an approved account can invoke this method. Ensure the _icon is empty or a valid URL, or metadata might fail to be assembled into valid JSON."
      },
      "updateBrandIcon32x32Url(address,string)": {
        "notice": "Updates the brand's 32x32 icon url. Only the owner of the brand or an approved account can invoke this method. Ensure the _icon is empty or a valid URL, or metadata might fail to be assembled into valid JSON."
      },
      "updateBrandIcon64x64Url(address,string)": {
        "notice": "Updates the brand's 64x64 icon url. Only the owner of the brand or an approved account can invoke this method. Ensure the _icon is empty or a valid URL, or metadata might fail to be assembled into valid JSON."
      },
      "updateBrandImage(address,string)": {
        "notice": "Updates the brand image. Only the owner of the brand or an approved account can invoke this method. Ensure the _image is empty or a valid URL, or metadata might fail to be assembled into valid JSON."
      },
      "withdrawBrandRegistrationEarnings(uint256)": {
        "notice": "Allows the sender to withdraw brand registration earnings."
      }
    },
    "version": 1
  }
}